:400000000080002011000000D52E0000D52E0000034A08B51268034B1A6002F07BFF00BFFA460040BC76004010B5054C237833B9044B13B10448AFF300800123237010BDFE
:400040009081FF1F0000000014930000084B10B51BB108490848AFF300800848036803B910BD074B002BFBD0BDE81040184700BF000000009481FF1F14930000C880FF1F24
:4000800000000000000000002DE9F04F16469BB0894D10AC09920690089103930FCD0FC40FCD0FC495E80300334684E803004FF000094A460399814802F052FB012703F0F5
:4000C0007DFA7F4B18687B1E0293002800F0C180039AFBB203F1FF3B012A5FFA8BFB4FF000044FF0000572D9C3F1BD0B5FFA8BFB4FF00A0AD6E9000107F02AF85FFA80F80C
:40010000584603F091F8404603F0D6F8012002F061FF03F0D5F9002003F0EAF903F0DCF903F0FCF903F006FA06F0EAFC0022654B06F076FE02460B462046294606F094FB86
:40014000BAF1010A04460D46D4D12046294600225D4B06F065FE04460D46039B02460193029B564800930B4602F0E2FB50A3D3E900232046294606F029FD044606980D468C
:4001800006F0BEFC0022514B06F020FD0B4602462946204606F044FE06F0B2FF029B044683B110AB53F8293000F10A050499059800930A311E302B4607F11D0200F012FE19
:4001C000BD2F49D0029B04940593013779E70796089E4FF00A0A16F80980584603F024F8404603F069F8012002F0F4FE03F068F9002003F07DF903F06FF903F08FF903F036
:4002000099F906F07DFC00222E4B06F009FE02460B462046294606F027FBBAF1010A04460D46D8D1079E90E73846D6E90023284907F078FC02983B46294609F101094FF678
:40024000FF72233001F05CFAB9F1040F06F1080629D11BB0BDE8F08F03F094F9039B0BAF032BE7D801A252F823F000BF8B020000990200007D020000290200003846D6E935
:400280000023144907F04EFCD4E73846D6E90023114907F047FCCDE73846D6E900230F4907F040FCC6E7029B04940593099B00E70000000000C06C40189300004093000040
:4002C000E091FF1F00004A40000024400000F43F68930000609300004C930000549300002DE9F04D8EB062B602F0FCFE02F0EAFE012002F0DBFE642002F06CFE002002F04D
:40030000D5FE642002F066FE012002F0CFFE642002F060FE00F044FC03F0ECF903F0CAF903F0E2F902F086FF02F03CFF02F0CAFF03F02AFD0321BE4803F04FFFBD49BE48E0
:4003400003F044FE0446BD4A03AB07CA03C303A91A802046092203F06AFF204603F070FDB74FDFF80C8300F097FE4FF0FF333B6008E003F0C5F9012003F0D4F9012003F02E
:40038000E3F93B68D8F800200120022AD9B20BD00129EED8002003F0B3F9002003F0C2F9002003F0D1F9ECE7834240F3768203F005F90D2002F038FF002002F07DFF002405
:4003C000E6B2304602F078FF012002F003FE03F077F8002003F08CF803F07EF803F09EF803F0A8F806F08CFB0022964B06F018FD0022954B06F07AFE0134002840F03582B5
:40040000FF2CDDD1019003F0BDF801980546002000F098FB8D4B4FF6FF72A021782001F06FF98B498B4802F085F903F0C7F8BC2002F0FAFE00262C4603E0DCB2DC2C00F053
:400440002382204602F038FF012002F0C3FD03F037F8002003F04CF803F03EF803F05EF803F068F806F04CFB0022764B06F0D8FC794B002206F030FE631C0028DDD003F0FC
:4004800081F8002002F0D0FE002002F015FF013C724BA41BA3FB04343A688DF80850C4F34704032A00F22482DFE812F09A013901E4000400304606F013FB5BA3D3E900230B
:4004C00006F084FB0022664B06F080FB0022654B06F0C8F90022644B06F0A2FC2544CDE90601EDB28DF80950284606F009FB4EA3D3E9002306F06AFB0022594B06F066FB02
:400500000022584B06F0AEF90022574B06F088FC2544CDE90801EDB28DF80A50284606F0EFFA41A3D3E9002306F050FB00224C4B06F04CFB00224B4B06F094F94A4B00223C
:4005400006F06EFC6319CDE90A01DBB28DF80B30184606F0D5FA34A3D3E9002306F036FB00223F4B06F032FB3E4B002206F07AF900223D4B06F054FCCDE90C0103F01EF8F2
:400580000A244FF0000A4FF0000B9DF80B50BC2002F04AFE284602F08FFE012002F01AFD02F08EFF002002F0A3FF02F095FF02F0B5FF02F0BFFF06F0A3FA0022214B06F037
:4005C0002FFC02460B465046594606F04DF9013C82468B46D9D10022234B06F021FC06F08FFD224DC31785FB0025C3EB650505EB8505053502F0C6FF3968284600F020FC95
:400600003B7806AA02A92846FFF73EFD02F0BAFF204602F009FE204602F04EFED8F80030002B3FF4A0AEFEE7FCA9F1D24D621040749300007C93000080930000DC930000CF
:40064000E491FF1F00004A400000F03F8C930000A0930000D493000000003440ABAAAAAA0000703F00002E400000244067666666E091FF1F304606F033FAB9A3D3E90023DB
:4006800006F0A4FA0022BA4B06F0A0FA0022B94B06F0E8F82544CDE90601EDB28DF80950284606F02DFAAEA3D3E9002306F08EFA0022AF4B06F08AFA0022AE4B06F0D2F8A6
:4006C0002544CDE90801EDB28DF80A50284606F017FAA3A3D3E9002306F078FA0022A44B06F074FAA34B002206F0BCF86319CDE90A01DBB28DF80B30184606F001FA98A30F
:40070000D3E9002306F062FA0022994B06F05EFA0022984B06F0A6F8CDE90C012EE7304606F0DEF98EA3D3E9002306F04FFA00228F4B06F04BFA8CA3D3E9002306F092F86C
:4007400000228D4B06F06CFB2544CDE90601EDB28DF80950284606F0D3F981A3D3E9002306F034FA0022824B06F030FA7EA3D3E9002306F077F800227F4B06F051FB25441D
:40078000CDE90801EDB28DF80A50284606F0B8F973A3D3E9002306F019FA0022744B06F015FA71A3D3E9002306F05CF8724B002206F036FB6319CDE90A01DBB28DF80B3036
:4007C000184606F09DF966A3D3E9002306F0FEF90022674B06F0FAF963A3D3E90023C5E6304606F07DF95EA3D3E9002306F0EEF900225F4B06F0EAF92544CDE90601EDB2E4
:400800008DF80950284606F07BF955A3D3E9002306F0DCF90022564B06F0D8F92544CDE90801EDB28DF80A50284606F069F94CA3D3E9002306F0CAF94D4B002206F0C6F974
:400840006319CDE90A01DBB28DF80B30184606F057F943A3D3E9002306F0B8F90022444B06F0B4F9CDE90C0188E602F08BFE3546002E3FF4CCAD02F0A1FEBC2002F0D4FC5A
:40088000DB2E7FF6D8AD344602F07CFE002002F0CBFC002002F010FDFAE502F08FFE152002F0C2FC002002F007FD0024E6B2304602F002FD012002F08DFB02F001FE00202F
:4008C00002F016FE02F008FE02F028FE02F032FE06F016F90022294B06F0A2FA0022284B06F004FC01340028BFD1FF2CDED189E52544EDB28DF80950032A0BD801A353F8EE
:4009000022F000BF0508000055070000A1060000E90400002544EDB28DF80A50032A0BD801A353F822F000BF290800008B070000CD0600001D0500006319DBB28DF80B30B1
:40094000032A3FF61BAE01A151F822F04D080000C1070000F906000051050000AFF30080FCA9F1D24D621040666666666666E63F0000703F00002E400000244000004A40C0
:400980000000F03F38B5054602440B44013A013B002042EA054543EA014402F07BFB2A2002F0F4FB02F06EFB0028FBD102F06AFB0128FBD102F06EFB002002F057FB280E99
:4009C00002F0E4FB02F05EFB0128FBD1C5F3074002F0DCFB02F056FB0128FBD1C5F3072002F0D4FB02F04EFB0128FBD1E8B202F0CDFB02F047FB0128FBD102F037FB002055
:400A000002F048FB2B2002F0C1FB02F03BFB0028FBD102F037FB0128FBD102F03BFB002002F024FB200E02F0B1FB02F02BFB0128FBD1C4F3074002F0A9FB02F023FB012854
:400A4000FBD1C4F3072002F0A1FB02F01BFB0128FBD1E0B202F09AFB02F014FB0128FBD102F004FB002002F015FB2C2002F08EFB02F008FB0028FBD102F004FB0128FBD189
:400A800038BD00BF2DE9F04190469AB211441F468BB2C3F1F004A4B20FFA84FE1FFA88F6BEF1EF0F3044BDF8185008DC80B2C0F5A07189B20FFA81FCBCF5A07F01DBBDE8D6
:400AC000F081BE44BEF1F00FC444C4BF1FB21A46BCF5A07FC6BF0FFA80F8034633462046FFF750FF012002F0D5FA002002F0BEFAB8F1000F4FEA1526EDB21DDD002FC8BFAF
:400B00003C4612DD304602F041FB02F0BBFA0128FBD1284602F03AFB02F0B4FA0128FBD1013CA3B21CB2002BECD108F1FF339BB20FFA83F8002BE1D10120BDE8F04102F0D0
:400B400095BA00BF0021F8B5F02205464FF4A0730846FFF717FF012002F09CFA002002F085FA2E0A4FF4A077EDB2F024304602F00DFB02F087FA0128FBD1284602F006FBD4
:400B800002F080FA0128FBD1013CA4B2002CEDD1013FBFB2002FE8D1BDE8F84002F066BA2DE9F8431F4EEF24002002F073FA204602F0ECFA02F066FA0028FBD102F062FAAD
:400BC0000128FBD106F10208444696F8019009F07F07BB1C1E44B44214D014F8015B012002F058FA284602F0D1FA02F04BFA0028FBD102F047FA0128EDD002F043FA012830
:400C0000F7D1E8E719F0800F08EB070605D118F80740002CC8D1BDE8F883782002F0DAF9F5E700BFE8930000C1F1EF0138B58CB2EF2C24D8C0F59F70013081B2B1F5A07F2F
:400C40001DD2154601231A462046FFF79BFE012002F020FA002002F009FA280A02F096FA02F010FA0128FBD1E8B202F08FFA02F009FA0128FBD1BDE8384002F0F7B938BD17
:400C80002DE9F04FC1EB030AC0EB020BBAF1000FB8BFCAF1000ABBF1000FB8BFCBF1000B87B0DA45914614468846BDF8402000F39380054651461C4640464D4509DD474640
:400CC0002E4698464D463B46B146011B0029B8BF4942AEB2C6EB090080B204B204EBD474434502904FEA640470DD012303938BB2C6F59F760193130A01360493D3B2B6B2DC
:400D00000593DA4536DDA6F1500080B2EF281FFA88F720D8C7F59F71013189B2B1F5A07F19D201231A46FFF72DFE012002F0B2F9002002F09BF9049802F028FA02F0A2F9FA
:400D40000128FBD1059802F021FA02F09BF90128FBD102F08BF9019BE41AA3B21CB2002C2CDB01352DB2013EA945B6B2C9DA07B0BDE8F08F1FFA88F7C7F1EF0080B2EF2843
:400D8000E9D8B6F5A07FE6D201231A463146FFF7F9FD012002F07EF9002002F067F9049802F0F4F902F06EF90128FBD1059802F0EDF902F067F90128FBD1CAE7039A1744DF
:400DC000029A0FFA87F89C1824B2CAE7A945CEDB4FF6FF7303938AE799460D462346594680466AE7F0B5904204460E461F46BDF814E016D0994205D0CDF814E0BDE8F040A7
:400E0000FFF73EBF9042154601DD14460546CDF814E02A46204633463146BDE8F040FFF72FBF994201DD3E460F46CDF814E03B46314622462046BDE8F040FFF721BF00BF5C
:400E40002DE9F04F0E468BB000214FF4A073F022814602AF0846FFF795FD012002F01AF9002002F003F94FF4A075F024002002F08DF902F007F90128FBD1002002F086F907
:400E800002F000F90128FBD1013CA4B2002CEDD1013DADB2002DE8D102F0E8F8484605F02FFE02460B460020724905F0B9FF06F027F94FF6FF740A231946DC2282460094FB
:400EC0001E20FFF7DDFE1E22C923009410460A21FFF7D6FE012E8CBF4FF00C084FF01508F30700F1B680644B22460421E62000F007FC2246614BD921032000F001FCB9F191
:400F0000040F24DD1FFA8AFB0BF10A04A4B20AF10A0605252A465A4907F1140006F002FE4FF6FF7223B2194600921E20DC22FFF7A7FE0535314607F114034FF6FF72032069
:400F400000F0DEFB5C44A9455644A4B2E2DA4FF0BD0999FBF8F94FF6FF7B1FFA88FA0AF11E0408F11E0601252A46464907F1080006F0D8FD22B21046CA230A21CDF800B0A9
:400F8000FFF77EFE0135304607F108034FF6FF72042100F0B5FB54444D45A4B24644E3DD394A3C2392E803001E22F860397401208221FFF7E7FC012002F06CF8002002F001
:400FC00055F83C251E24F82002F0E0F802F05AF80128FBD1002002F0D9F802F053F80128FBD1013CA4B2002CEDD16A1E95B2002DE8D102F03BF83B7B002B37D02A4607F12A
:401000000C0111F8013F0132002BFAD1891AD31D23F007030878ADEB030D02AB38B10DF1070404F8010F11F8010F0028F9D1C2EBC20202EBD2725010C0F1A3000022DF212B
:4010400000F05EFB114B022224371A60BD46BDE8F08F22460E4B0421E62000F051FB22460C4BD921032000F04BFB48E7A3203B1DE4E700BF00008E405894000060940000EF
:40108000809400008494000088940000E091FF1F6C94000074940000F8B5A02300AF1946F0220020FFF76EFC012001F0F3FF002001F0DCFFA026F025002002F067F801F014
:4010C000E1FF0128FBD11F2002F060F801F0DAFF01280446FAD1013DADB2002DECD1013EB6B2002EE7D101F0C1FF3146A023F0223046FFF747FC204601F0CCFF304601F041
:40110000B5FFA026F025F82002F040F801F0BAFF0128FBD1002002F039F801F0B3FF01280446FAD1013DADB2002DECD1013EB6B2002EE7D101F09AFF0223F0229F21304610
:40114000FFF720FC204601F0A5FF304601F08EFF0226F025002002F019F801F093FF0128FBD1002002F012F801F08CFF01280446FAD1013DADB2002DECD1013EB6B2002E64
:40118000E7D101F073FF31464FF4A07302227720FFF7F8FB204601F07DFF304601F066FF4FF4A0760225002001F0F0FF01F06AFF0128FBD1002001F0E9FF01F063FF0128C0
:4011C0000446FAD1013DADB2002DECD1013EB6B2002EE7D101F04AFFFC23162223216D20FFF7D0FB204601F055FF304601F03EFFFC261625002001F0C9FF01F043FF0128C2
:40120000FBD1002001F0C2FF01F03CFF01280446FAD1013DADB2002DECD1013EB6B2002EE7D101F023FFF823122225216F20FFF7A9FB204601F02EFF304601F017FFF825A3
:401240001224FF2001F0A2FF01F01CFF0128FBD1FF2001F09BFF01F015FF0128FBD1013CA4B2002CEDD16A1E95B2002DE8D101F0FDFE2A46A94911F8013F0132002BFAD1F0
:40128000891AD31D23F0070308786C46ADEB030D6B460DF1FF3528B105F8010F11F8010F0028F9D1C2EBC20202EBD272501077210022C0F1A20000F023FA8B23A546632296
:4012C000AB218320FFF75EFB012001F0E3FE002001F0CCFE8B2563249E2001F057FF01F0D1FE0128FBD19F2001F050FF01F0CAFE0128FBD1013CA4B2002CEDD16A1E95B278
:40130000002DE8D101F0B2FE2A46854911F8013F0132002BFAD1891AD31D23F0070308786C46ADEB030D6B460DF1FF3528B105F8010F11F8010F0028F9D1C2EBC20202EBBA
:40134000D27250103A210022C0F1520000F0D8F98B23A5466322AB210A20FFF713FB012001F098FE002001F081FE8B2563249E2001F00CFF01F086FE0128FBD19F2001F02D
:4013800005FF01F07FFE0128FBD1013CA4B2002CEDD16A1E95B2002DE8D101F067FE2A46604911F8013F0132002BFAD1891AD31D23F0070308786C46ADEB030D6B460DF17A
:4013C000FF3528B105F8010F11F8010F0028F9D1C2EBC20202EBD2725010B3210022C0F1520000F08DF98B23A54663220A218320FFF7C8FA012001F04DFE002001F036FE11
:401400008B256324FC2001F0C1FE01F03BFE0128FBD1F32001F0BAFE01F034FE0128FBD1013CA4B2002CEDD16A1E95B2002DE8D101F01CFE2A463C4911F8013F0132002BDD
:40144000FAD1891AD31D23F0070308786C46ADEB030D6B460DF1FF3528B105F8010F11F8010F0028F9D1C2EBC20202EBD27250103A210022C0F1F30000F042F90A2108467C
:40148000A5468B236322FFF77DFA012001F002FE002001F0EBFD8B256324FC2001F076FE01F0F0FD0128FBD1F32001F06FFE01F0E9FD0128FBD1013CA4B2002CEDD16A1EC9
:4014C00095B2002DE8D101F0D1FD2A46174911F8013F0132002BFAD1891AD31D23F007030878ADEB030D6B460DF1FF3428B104F8010F11F8010F0028F9D1C2EBC20202EBB6
:40150000D2725010B3210022C0F1F30000F0F8F8074B00221A60BD46F8BD00BF90940000AC940000B8940000C0940000CC940000E091FF1F38B50021154D08464FF4A07321
:40154000F02201242C60FFF71DFA204601F0A2FD002001F08BFD4FF4A075F024002001F015FE01F08FFD0128FBD1002001F00EFE01F088FD0128FBD1013CA4B2002CEDD105
:40158000013DADB2002DE8D1BDE8384001F06EBDE091FF1F2DE9F04388468BB000214FF4A073F022814600AF0846FFF7EBF9012001F070FD002001F059FD4FF4A076F02513
:4015C000002001F0E3FD01F05DFD0128FBD1002001F0DCFD01F056FD01280446FAD1013DADB2002DECD1013EB6B2002EE7D101F03DFD404B032507F110010A2248461D601C
:4016000005F009FE07F11C010A22404605F003FE07F110034FF6FF726E21642000F070F8642107F11C0308464FF6FF7200F068F8314B4FF6FF72C821642000F061F82F4A74
:40164000322392E803001E220D0CB860B981D2204FF48771BD73FFF795F9204601F01AFD304601F003FD32251E24FF2001F08EFD01F008FD0128FBD1FF2001F087FD01F093
:4016800001FD0128FBD1013CA4B2002CEDD16A1E95B2002DE8D101F0E9FC3B7A3BB32A4607F1080111F8013F0132002BFAD1891AD31D23F007030878ADEB030D6B4638B137
:4016C0000DF1FF3404F8010F11F8010F0028F9D1C2EBC20202EBD2725010C0F11C0000220E2100F00DF82C37BD46BDE8F0831C203B1DF4E7E091FF1FD4940000E89400002D
:401700002DE9F04F87B001931B7804900291002B56D014460646DFF864BC203B3A2B3CD8DFE813F008053B003B003B003B003B003B003B003B003B003B003B003B003B0037
:40174000CF043B00A0049F054105700578028C065D06BB064F03FD053B003B003B003B003B003B003B00CE052E0611020B04DC03AD037E0373043A0495074002CE0717037C
:40178000DF02A7022307EA065C07D901A10131016901F900C10089005100B3B20393039E073636B2B6F59E7F04DD029B049E093B1BB20293019A12F8013F0192002BACD107
:4017C00007B0BDE8F08F23211A22012301E01BF803200132134401399BB2F8D1B2B211460392BDF808200133951E05328F1E1FFA83F813B23FB22DB205931BF80890B9F16B
:40180000000F0DD009EB08065E440BEB080A1AF8010F224638442946FFF706FA5645F6D10135059B09F101092DB2C844AB421FFA88F8E2D1B3E722211A22012301E01BF814
:4018400003200132134401399BB2F8D1B2B211460392BDF808200133951E05328F1E1FFA83F813B23FB22DB205931BF80890B9F1000F0DD009EB08065E440BEB080A1AF8B3
:40188000010F224638442946FFF7CEF95645F6D10135059B09F101092DB2C844AB421FFA88F8E2D17BE721211A22012301E01BF803200132134401399BB2F8D1B2B21146F8
:4018C0000392BDF808200133951E05328F1E1FFA83F813B23FB22DB205931BF80890B9F1000F0DD009EB08065E440BEB080A1AF8010F224638442946FFF796F95645F6D1A1
:401900000135059B09F101092DB2C844AB421FFA88F8E2D143E720211A22012301E01BF803200132134401399BB2F8D1B2B211460392BDF808200133951E05328F1E1FFADC
:4019400083F813B23FB22DB205931BF80890B9F1000F0DD009EB08065E440BEB080A1AF8010F224638442946FFF75EF95645F6D10135059B09F101092DB2C844AB421FFAE3
:4019800088F8E2D10BE71E211A22012301E01BF803200132134401399BB2F8D1B2B211460392BDF808200133951E05328F1E1FFA83F813B23FB22DB205931BF80890B9F164
:4019C000000F0DD009EB08065E440BEB080A1AF8010F224638442946FFF726F95645F6D10135059B09F101092DB2C844AB421FFA88F8E2D1D3E61F211A22012301E01BF818
:401A000003200132134401399BB2F8D1B2B211460392BDF808200133951E05328F1E1FFA83F813B23FB22DB205931BF80890B9F1000F0DD009EB08065E440BEB080A1AF8F1
:401A4000010F224638442946FFF7EEF85645F6D10135059B09F101092DB2C844AB421FFA88F8E2D19BE61D211A22012301E01BF803200132134401399BB2F8D1B2B21146FC
:401A80000392BDF808200133951E05328F1E1FFA83F813B23FB22DB205931BF80890B9F1000F0DD009EB08065E440BEB080A1AF8010F224638442946FFF7B6F85645F6D1C0
:401AC0000135059B09F101092DB2C844AB421FFA88F8E2D163E61C211A22012301E01BF803200132134401399BB2F8D1B2B211460392BDF808200133951E05328F1E1FFA00
:401B000083F813B23FB22DB205931BF80890B9F1000F0DD009EB08065E440BEB080A1AF8010F224638442946FFF77EF85645F6D10135059B09F101092DB2C844AB421FFA02
:401B400088F8E2D12BE6B3B21A460393BDF80830971E9D1E05331BB23FB22DB205934FF003094FF49078B9F1000F0DD009EB08065E440BEB080A1AF8010F224638442946AF
:401B8000FFF752F85645F6D10135059B09F101092DB2C8449D421FFA88F83FF400AE1BF80890E0E714211A22012301E01BF803200132134401399BB2F8D1B2B2114603921D
:401BC000BDF808200133951E05328F1E1FFA83F813B23FB22DB205931BF80890B9F1000F0DD009EB08065E440BEB080A1AF8010F224638442946FFF717F85645F6D101357D
:401C0000059B09F101092DB2C844AB421FFA88F8E2D1C4E5B3B21A460393BDF80830971E9D1E05331BB23FB22DB205934FF001094FF05F08B9F1000F0DD009EB08065E44E5
:401C40000BEB080A1AF8010F224638442946FEF7EBFFB245F6D10135059B09F101092DB2C844AB421FFA88F83FF499AD1BF80890E0E718211A22012301E01BF80320013231
:401C8000134401399BB2F8D1B2B211460392BDF808200133951E05328F1E1FFA83F813B23FB22DB205931BF80890B9F1000F0DD009EB08065E440BEB080A1AF8010F22464D
:401CC00038442946FEF7B0FF5645F6D10135059B09F101092DB2C844AB421FFA88F8E2D15DE517211A22012301E01BF803200132134401399BB2F8D1B2B211460392BDF825
:401D000008200133951E05328F1E1FFA83F813B23FB22DB205931BF80890B9F1000F0DD009EB08065E440BEB080A1AF8010F224638442946FEF778FF5645F6D10135059BE9
:401D400009F101092DB2C844AB421FFA88F8E2D125E516211A22012301E01BF803200132134401399BB2F8D1B2B211460392BDF808200133951E05328F1E1FFA83F813B258
:401D80003FB22DB205931BF80890B9F1000F0DD009EB08065E440BEB080A1AF8010F224638442946FEF740FF5645F6D10135059B09F101092DB2C844AB421FFA88F8E2D1C5
:401DC000EDE4B3B21A460393BDF80830971E9D1E05331BB23FB22DB205934FF003094FF0BA08B9F1000F0DD009EB08065E440BEB080A1AF8010F224638442946FEF714FFE2
:401E00005645F6D10135059B09F101092DB2C844AB421FFA88F83FF4C2AC1BF80890E0E7B3B21A460393BDF80830971E9D1E05331BB23FB22DB205934FF003094FF4BF78F8
:401E4000B9F1000F0DD009EB08065E440BEB080A1AF8010F224638442946FEF7E5FE5645F6D10135059B09F101092DB2C844AB421FFA88F83FF493AC1BF80890E0E7B3B2DD
:401E80001A4640F269180393BDF80830971E9D1E05331BB23FB22DB205934FF00109B9F1000F0DD009EB08065E440BEB080A1AF8010F224638442946FEF7B6FEB245F6D148
:401EC0000135059B09F101092DB2C844AB421FFA88F83FF464AC1BF80890E0E7B3B21A4640F24F180393BDF80830971E9D1E05331BB23FB22DB205934FF00509B9F1000F1E
:401F00000DD009EB08065E440BEB080A1AF8010F224638442946FEF787FE5645F6D10135059B09F101092DB2C844AB421FFA88F83FF435AC1BF80890E0E7B3B21A4640F2FF
:401F400035180393BDF80830971E9D1E05331BB23FB22DB205934FF00409B9F1000F0DD009EB08065E440BEB080A1AF8010F224638442946FEF758FE5645F6D10135059B2E
:401F800009F101092DB2C8449D421FFA88F83FF406AC1BF80890E0E712211A22012301E01BF803200132134401399BB2F8D1B2B211460392BDF808200133951E05328F1EE7
:401FC0001FFA83F813B23FB22DB205931BF80890B9F1000F0DD009EB08065E440BEB080A1AF8010F224638442946FEF71DFE5645F6D10135059B09F101092DB2C844AB429A
:402000001FFA88F8E2D1FFF7CABBB3B21A4640F297180393BDF80830971E9D1E05331BB23FB22DB205931BF80890B9F1000F0DD009EB08065E440BEB080A1AF8010F22465C
:4020400038442946FEF7F0FD5645F6D10135059B09F101092DB2C844AB421FFA88F8E2D1FFF79DBBB3B21A460393BDF80830971E9D1E05331BB23FB22DB205934FF0030975
:402080004FF00208B9F1000F0DD009EB08065E440BEB080A1AF8010F224638442946FEF7C3FD5645F6D10135059B09F101092DB2C844AB421FFA88F83FF471AB1BF80890C4
:4020C000E0E724211A22012301E01BF803200132134401399BB2F8D1B2B211460392BDF808200133951E05328F1E1FFA83F813B23FB22DB205931BF80890B9F1000F0DD089
:4021000009EB08065E440BEB080A1AF8010F224638442946FEF788FD5645F6D10135059B09F101092DB2C8449D421FFA88F8E2D1FFF735BB25211A22012301E01BF803200F
:402140000132134401399BB2F8D1B2B211460392BDF808200133951E05328F1E1FFA83F813B23FB22DB205931BF80890B9F1000F0DD009EB08065E440BEB080A1AF8010FBD
:40218000224638442946FEF74FFD5645F6D10135059B09F101092DB2C8449D421FFA88F8E2D1FFF7FCBAB3B21A460393BDF80830971E9D1E05331BB23FB22DB205934FF029
:4021C00005094FF03108B9F1000F0DD009EB08065E440BEB080A1AF8010F224638442946FEF722FDB245F6D10135059B09F101092DB2C844AB421FFA88F83FF4D0AA1BF8C5
:402200000890E0E7B3B21A460393BDF80830971E9D1E05331BB23FB22DB205934FF003094FF04908B9F1000F0DD009EB08065E440BEB080A1AF8010F224638442946FEF793
:40224000F3FC5645F6D10135059B09F101092DB2C844AB421FFA88F83FF4A1AA1BF80890E0E7B3B21A460393BDF80830971E9D1E05331BB23FB22DB205934FF005094FF021
:402280001D08B9F1000F0DD009EB08065E440BEB080A1AF8010F224638442946FEF7C4FC5645F6D10135059B09F101092DB2C844AB421FFA88F83FF472AA1BF80890E0E71F
:4022C000B3B21A460393BDF80830971E9D1E05331BB23FB22DB205934FF002094FF0EA08B9F1000F0DD009EB08065E440BEB080A1AF8010F224638442946FEF795FCB2450A
:40230000F6D10135059B09F101092DB2C844AB421FFA88F83FF443AA1BF80890E0E7B3B21A460393BDF80830971E9D1E05331BB23FB22DB205934FF002094FF0D308B9F1C6
:40234000000F0DD009EB08065E440BEB080A1AF8010F224638442946FEF766FCB245F6D10135059B09F101092DB2C844AB421FFA88F83FF414AA1BF80890E0E7F094000009
:40238000B3B21A460393BDF80830971E9D1E05331BB23FB22DB205934FF004094FF48278B9F1000F0DD009EB08065E440BEB080A1AF8010F224638442946FEF735FC5645F7
:4023C000F6D10135059B09F101092DB2C844AB421FFA88F83FF4E3A91BF80890E0E7B3B21A460393BDF80830971E9D1E05331BB23FB22DB205934FF003094FF08F08B9F1AA
:40240000000F0DD009EB08065E440BEB080A1AF8010F224638442946FEF706FC5645F6D10135059B09F101092DB2C844AB421FFA88F83FF4B4A91BF80890E0E7B3B21A4624
:402440000393BDF80830971E9D1E05331BB23FB22DB205934FF003094FF07608B9F1000F0DD009EB08065E440BEB080A1AF8010F224638442946FEF7D7FB5645F6D10135DE
:40248000059B09F101092DB2C844AB421FFA88F83FF485A91BF80890E0E7B3B21A460393BDF80830971E9D1E05331BB23FB22DB205934FF001094FF0A608B9F1000F0DD043
:4024C00009EB08065E440BEB080A1AF8010F224638442946FEF7A8FB5645F6D10135059B09F101092DB2C844AB421FFA88F83FF456A91BF80890E0E71A210A46012301E042
:402500001BF803200132134401399BB2F8D1B2B211460392BDF808200133951E05328F1E1FFA83F813B23FB22DB205931BF80890B9F1000F0DD009EB08065E440BEB080AE5
:402540001AF8010F224638442946FEF76DFB5645F6D10135059B09F101092DB2C844AB421FFA88F8E2D1FFF71AB919211A22012301E01BF803200132134401399BB2F8D1D5
:40258000B2B211460392BDF808200133951E05328F1E1FFA83F813B23FB22DB205931BF80890B9F1000F0DD009EB08065E440BEB080A1AF8010F224638442946FEF734FBDC
:4025C0005645F6D10135059B09F101092DB2C844AB421FFA88F8E2D1FFF7E1B81B211A22012301E01BF803200132134401399BB2F8D1B2B211460392BDF808200133951E4B
:4026000005328F1E1FFA83F813B23FB22DB205931BF80890B9F1000F0DD009EB08065E440BEB080A1AF8010F224638442946FEF7FBFA5645F6D10135059B09F101092DB28E
:40264000C844AB421FFA88F8E2D1FFF7A8B813211A22012301E01BF803200132134401399BB2F8D1B2B211460392BDF808200133951E05328F1E1FFA83F813B23FB22DB219
:4026800005931BF80890B9F1000F0DD009EB08065E440BEB080A1AF8010F224638442946FEF7C2FA5645F6D10135059B09F101092DB2C844AB421FFA88F8E2D1FFF76FB8F2
:4026C00015211A22012301E01BF803200132134401399BB2F8D1B2B211460392BDF808200133951E05328F1E1FFA83F813B23FB22DB205931BF80890B9F1000F0DD009EB65
:4027000008065E440BEB080A1AF8010F224638442946FEF789FA5645F6D10135059B09F101092DB2C844AB421FFA88F8E2D1FFF736B800BF38B50D46084901F047FC0446E2
:40274000284605F013FA29460246204601F06FFD2046BDE8384001F073BB00BF409800002DE9F047914696B0634D08AC07460E4698460FCD0FC40FCD0FC4604A604B1268BC
:402780001B686049ADF80820ADF81C30120C1B0C088891F802E08DF80A205B495B4A8DF81E305B4BADF80B008DF80DE00491059206930FCD0FC495E8030044F8040B24F801
:4027C000021B090C2170B9F1000F0FD15149384601F0FCFB044608A805F0C8F908A90246204601F024FD204601F02AFB740806ABA500494938465E1901F0E8FB8246304675
:4028000005F0B4F931460246504601F010FD504601F016FB4049384601F0D8FB064601223E4901F004FD08EBC908304601F008FBD8E9002368463A4905F074F936493846B6
:4028400001F0C4FB0646684605F090F969460246304601F0ECFC304601F0F2FA2E49384601F0B4FB064601222E4901F0E0FC304601F0E6FA04EB440402AB274938461C44D6
:4028800001F0A4FB0646204605F070F921460246304601F0CCFC304601F0D2FA1E49384601F094FB044601221F4901F0C0FC204601F0C6FA04AB184938465C1901F086FBF4
:4028C0000546204605F052F921460246284601F0AEFC284601F0B4FA38460F4901F076FB044601220F4901F0A2FC204601F0A8FA16B0BDE8F08700BF6098000098980000D4
:40290000489800009C98000056647300566365005667730040980000449800004C98000050980000589800005C980000000000002DE9F04385B09DF8341004460129904603
:4029400099469DF8300057D904F0DAF80022364B04F03CF932A3D3E9002304F037F90022324B04F033F906460F464B46424601A82F4905F0D7F82F49204601F027FB05467F
:4029800001A805F0F3F801A90246284601F04FFC284601F055FA2749204601F017FB05460122254901F043FC284601F049FA3B46324601A8214905F0B5F81E49204601F051
:4029C00005FB054601A805F0D1F801A90246284601F02DFC284601F033FA2046154901F0F5FA04460122164901F021FC204601F027FA05B0BDE8F08304F082F800220A4B77
:402A000004F0E4F806A3D3E9002304F0DFF800220C4B04F0DBF806460F46A6E7AFF30080FCA9F1D24D6210400000703F00001040A0980000449800005C980000A498000039
:402A4000589800000000084070B53F4E88B0336804460D46032B27D8DFE803F03B332802322801D81E296CD91E235F210022009208461A46FEF706F802A90A22204604F077
:402A8000CAFB05A90A22284604F0C5FB02AB4FF6FF726E216420FEF733FE642105AB08464FF6FF72FEF72CFE08B070BDA0F182043C2CF9D8A1F1D1051E2DF5D800233360F6
:402AC000F2E7B0F5A07FEFD2EF29EDD802233360EAE7A0F12303F82B06D8A1F16F03122B02D8FEF757FDDFE7A4F10A038B2B12D8A5F10A03632B05D8144B00221A60FEF7F0
:402B000019FDD1E7833D632DCED8104B01221A60FEF710FDC8E7AB3C8B2CC5D8A5F10A03632B05D8094B02221A60FEF703FDBBE7833D632DB8D8054B03221A60FEF7FAFC9C
:402B4000B2E7FEF7A9FAB9E7E091FF1FE491FF1F012807D8044B53F8202018441178037A0B431370704700BFA8980000012808D8044B53F820201844017A137823EA010341
:402B800013707047A8980000012808D8044B03EB8002D26818441178037D0B4313707047A8980000012809D8054B03EB8002D2681844017D137823EA01031370704700BFF9
:402BC000A8980000012809D8054B03EB800292691844117890F820300B431370704700BFA898000001280AD8054B03EB80029269184490F82010137823EA010313707047DC
:402C0000A89800002DE9F04172B6904A904D1378A5F1240643F004031370002404EB440306EB4303AA88586A0134002104F000FB092C05F10605F1D180228649864804F031
:402C4000ECFA864E864F002556F8043F13F0FF0E23F0FF0413D005F110530EF1FF3E03F131005FFA8EFE7044303340005B001A785978023383421155F9D101357544BE4239
:402C8000E2D1784941F251260B78774A43F002030B701378754843F0020313700278A1F5863142F04002027041390A78704C42F01002704B0A7003CB6F4A2060616003CB88
:402CC0006E4DC4F8C000C4F8C41003CB106051602A786B4F03CBDFF8E8C13860796042F0080203CB674F2A70DFF8D8E12063612265486163A5F29E258CF800200021582209
:402D000039808EF800202980027002211868A4F6027487F880124FF04025082203215B4B2A7021701B785A49DBB287F82136594BA5F8222226841C7808604FF4F0701D46C8
:402D400004F0010400F014FD182601E0032C0DD02B784FF4F07003F0010343EA440400F007FD013E04F00304F0D1FEE74A4B4B4F4B4DDFF854C14B484FF4807407211C8067
:402D8000002219704FF0480E4749022604248CF8002087F800E01A702E7004700B78434A43F003030B701378304C43F001031370237800F5F720012100F2F97043F08003F5
:402DC0004FF0810E3A4A23703A4E85F8FFE7017013783578DBB297F8F186374AA0F5F420A0F2967003F0070EEDB21B0980F800E05FFA88F813700CF5D45C45F00303337077
:402E000080220CF1050C48F0030387F8F136DFF8BCE080F89B208CF80010284920238EF8003080F8BA220A200B7000F0F7F894E80F00DFF89CE087F8F1861034442735705A
:402E40008EF8007007C42380BDE8F081E8460040CC9800002C05004800040140FCFFFF475C0000480350014013500140A043004002510040AC050048F25100402243004054
:402E80001251004080400040864000400801004900410040254200400440004008400040014000400B400040A2430040A1430040CF010049F84600406F5800402B5B00402A
:402EC000004800408240004006400040985A00407658004008B504F05BF903680C2B00D0FEE7FEE7094908B50A68094B1044C31AB3F5805F02DC0860104608BD04F048F91E
:402F00000C234FF0FF320360104608BDCC80FF1F9092FF1F80B5134FF7B1134E002556F80C0C56F8084C56F8102C03463CB1043A52F8041F43F8041B191AA142F8D156F80B
:402F4000040C1A4620B142F8045BD11A8842FAD1013F06F11006E2D104F020F9FDF7C0F9FEE700BF01000000E89B00000E4B0F4A0F491A600B680F4A43F400730E480B605A
:402F80000023032B94BF50F823100C490133302B42F8041FF5D10A4B0A4918780A4A0B4B08701A60FFF72EBE0CED00E00004FA0514ED00E0FC7FFF1F00000000D52E0000DC
:402FC000BC760040C080FF1F0080FF1F08ED00E001BE7047B0F5004F70B506461AD904460D4DA4F50044686800F0C2FBB4F5004FF7D8A6F50043013B23F4FF4323F07F03F3
:40300000A6F50046F61AA86800FB06F0BDE8704000F0AEBB004DF6E7D080FF1F024B1B7800FB03F000F0A4BBD080FF1F064B1F281A6800D901BE00F01F0000F1100352F8BE
:40304000230042F82310704708ED00E0072900D901BE1F2800D901BE00F01F0000F16040490100F56440C9B201707047044A4000137800F0020003F0FD03184310707047D7
:4030800000510040024B1878C0F34000704700BF01510040044A00F00100137803F0FE0318431070704700BF00510040044A4001137800F0200003F0DF0318431070704776
:4030C000F05100400549064A0B7843F002030B70137843F002031370704700BFA2430040B243004070B51E4C2378A3B11D4C00F047FB23781C4943F0200323700B781B4A7B
:4031000043F010030B70137843F010031370BDE8704000F039BB164B0F21164A19701378990604D514490B7813789B06FBD400F027FB124B124E1A780E4D42F001021A706E
:403140001A7802F0FE021A7000F01EFB0D480E490023012236782D7803700B702270C5E7AC81FF1F9064004092640040966400408064004066640040516400409164004080
:40318000626400408264004086640040034A13785B07FCD5024B1870704700BF626400404164004010B419490A78FAB9184B19481A7002701A78184C02F0F3021A701A7864
:4031C000012042F004021A701A78C2F3810202F19242063292F83821D2B222701A7802F0FD021A701A78D2B21A7008700B490C4A0B780C4843F008030B701378642143F088
:4032000008031370017010BC704700BFAD81FF1F2C5800402D5800400B460040A8430040B8430040835B0040014B1870704700BF835B004010B419490A78FAB9184B1948DC
:403240001A7002701A78184C02F0F3021A701A78012042F004021A701A78C2F3810202F19242063292F83021D2B222701A7802F0FD021A701A78D2B21A7008700B490C4AED
:403280000B780C4843F002030B701378642143F002031370017010BC704700BFAE81FF1F245800402558004009460040A8430040B8430040815B0040014B1870704700BFE5
:4032C000815B0040F8B5334D2C78F4B9102000F085F907212046FFF7B9FE2F492046FFF7A5FE44F620602D4A2D4E13782D4F43F006031370C22333702B492C4A2C4B012662
:403300003C802E70086014801C8000F039FA294A04461378284943F0020313700B78274843F002030B70037801F5AA5143F0010303709379103143F0010393710A7800F54A
:40334000AB501F4B0D30182542F003020A7005701A781C4E42F040021A701A78A0F5975002F0FC021838CE2702251A703770057091F824320A2043F0080381F82432FFF732
:403380004DFE114B012220461A60BDE8F84000F0FBB900BFAF81FF1F81350000095900400A590040E891FF1FEC91FF1FEA91FF1FF091FF1FAB430040BB430040A1430040E0
:4033C0000D5900400859004080E200E0F8B500F0D7F9214A04461378204943F0020313700B781F4843F002030B70037801F5AA5143F0010303709379103143F00103937138
:403400000A7800F5AB50174B0D30182542F003020A7005701A78144E42F040021A701A78A0F5975002F0FC021838CE2702251A703770057091F824320A2043F0080381F856
:403440002432FFF7EBFD094B012220461A60BDE8F84000F099B900BFAB430040BB430040A14300400D5900400859004080E200E010B500F085F90F490F4A0B780F4C03F015
:40348000FE030B701378A1F5AB5103F0FD0313702378073903F0FD0323700B7803F0FE030B70937903F0FE039371BDE8104000F06BB900BF08590040AB430040BB430040D1
:4034C000044B1A7802F0FB021A701A7842F001021A70704708590040044B1A7802F0FE021A701A7842F004021A7070470859004008B550B9084A1378DB07FCD50120FFF753
:403500008DFD054B01201B7808BD034B1B78DA07F4D4002008BD00BF09590040034A044B1B881088181A00B2704700BFEA91FF1FA25B00400F4A13881BB2C3B1128812B2CE
:4035400002EB8202520042F210730B490988401A00B203FB00F3002802EBD2704FEA6000D8BF4042184490FBF2F000B27047034B1A68E8E7E891FF1FF091FF1FEC91FF1F44
:40358000704700BF0A4B1B7803F0020303F0FF0253B1084A084B127812F0010F14BF032201221A70FFF764BF034B1A70704700BFAB43004008590040B081FF1F10B5064C3B
:4035C000237803B910BDFFF701FF23789B07F9D5BDE81040FFF774BFB081FF1F034A00F0F800137818431070704700BF0241004070B500F0CDF80021382000F0A3FA0520A0
:4036000000F02CFB0121382000F0D8FA002000F051FB044600F006FB0021382000F092FA062000F01BFB0121382000F0C7FA002000F040FB054600F0F5FA00F003F900F003
:40364000A7F80021382000F07DFA032000F006FB0121382000F0B2FA002000F02BFB240204F470642C43054600F0DCFA0021382000F068FA042000F0F1FA0121382000F0C5
:403680009DFA002000F016FB06462D0205F4706500F0C8FA24B200F0D5F845EA0601204609B2FFF7D1F9024B02221A6070BD00BF80E200E070B4074B074E1C68074D0849A0
:4036C0000223084AE02033606564087070BC1360704700BF08ED00E080E100E0F135000001E400E000E100E0014B02221A60704700E100E0014B02221A60704780E200E063
:4037000038B505460020FFF731FA054C0120FFF72DFAFF2328462370FFF71AFA257038BDE080FF1F38B505460020FFF73BFA054C0120FFF737FAFF2328462370FFF724FAF9
:40374000257038BDE180FF1F38B505460020FFF749FA054C0120FFF745FAFF2328462370FFF730FA257038BDE280FF1F000000000230800803D000BF01380046FCD170476C
:40378000EFF3108072B6704780F31088704700BFF8B51D4D2C7824BB1C4B1D4E02271F701C4A812737701C4B1C481D49082717700F264FF40042067030460C701A600721B3
:4037C000FFF744FC30461749FFF730FC164E1749174A184B10270120377028700C7014701C70FFF7CDFF1449144A0B7843F004030B70137843F004031370FFF7C5FF104BDE
:403800004FF400421A60F8BDB181FF1FD6490040C8490040CA49004080E100E0DB490040DC49004001390000F291FF1FF691FF1FFE91FF1FF491FF1FA5430040B543004047
:4038400000E100E02DE9F843234BDFF8B080234F234E4FF40049C3F8009098F800E0214D3978327830783B781F4C43EA00202B78013003F0FE032B7080B284F803E0217135
:403880006271FFF775FFFFF77BFF1849184A0B7803F0FB030B70137803F0FB031370FFF773FF2B782179627994F803E043F002032B7088F800E088F800E0397032702B783A
:4038C0000C480D4A03F0EF0310212B70C0F800901170BDE8F88300BF80E100E0DB490040DC490040D6490040E480FF1FA5430040B543004080E200E0F291FF1FCA49004043
:40390000F8B5824B824D1C782B78590641D5E4B2E2072AD52B78453B052B7ED8DFE803F003657D7D033F04F00A03082B04F0DF0400F08B800A2B70D1764A7749137843F053
:40394000A00313700B789F0740F189802B78107813F0080F0CBF0A2309237049034360264FF4004013702E700860A20616D52B78684913F0080F08780CBF02230123684A7D
:4039800003430B701378102103F0EF0313702970F8BD2B78DB065CBF10232B70F8BD614A61496248137809780068DBB2C9B2C15413785F490133DBB2137012780B789A42C2
:4039C0003FD3554B1B7803F0020303F0FF02002B72D0504A51491378602643F009034FF4004013702E700860BFE7A60719D4514B514A1978127891424ED250491A78096878
:403A0000D2B28A5C484E4149D2B20420327008701A780132D2B21A70A7E70020FFF7D8FAA3E73D4B1B78990725D53A4A3B491378602643F09A034FF4004013702E700860BD
:403A400093E7324B10221A708FE72B78304A452B3AD02E4900204A230870137085E7304A374E1378294943F010031027042013703770087079E72A4A314E1378234943F05F
:403A8000100313701027234A042037700870137843F09003137068E71F4B1B789807DED51C4A1E491378602643F00A034FF4004013702E70086058E7194914480B7843F03A
:403AC00010030B70027050E71B4B1B7873B11B4B15481B680D4E1B781649DBB203700427012046233770087013703EE70A4B1B789B07B4D5074909480B78602743F00A0365
:403B00004FF400460B70177006602EE7D7490040F291FF1FF691FF1FFC91FF1F80E100E0D6490040FE91FF1FD8490040F891FF1FFD91FF1FF491FF1FF591FF1F0092FF1F36
:403B4000D9490040184A1378102B01D002207047164B1B781B071BD4154B30B440004FF40044C0B21C60A9B945231370114D0F4B0121114C2870197023780F49DB07FBD5C9
:403B80000B7803F00A030A2B09D0002030BC704701207047492340F001001370E6E7102313700320F2E700BFF291FF1FD949004080E100E0D8490040D7490040154B1B7883
:403BC0005A0701D4022070474000F0B4C0B2124CB1B945232370114B114F19460D4D1226042238702E701A700B780C4ADB07FBD5137803F00A030A2B07D0F0BC0020704755
:403C0000492340F001002370E5E7102323700320F0BC7047D9490040F291FF1FD7490040D84900400A4B1A78520701D402207047084830B40246084C102104251970057062
:403C40002170137813F0210FFBD0002030BC7047D9490040D7490040F291FF1F114B1B785A0701D4022070470F4B70B419460F4E0F4C0425462230701D7022700B780A4A4A
:403C8000DB07FBD5137803F0020303F0FF0023B160232370032070BC70476023237070BC704700BFD9490040D7490040D8490040F291FF1F124B1B7803F00403B3B130B43F
:403CC000104C05462378492B14D00F4A13780E49DB07FBD50D4B1B78D8B21DB96023237030BC704710230B7030BC704703F0FF0210467047044A00214A2311702370E4E72C
:403D0000D9490040F291FF1FD7490040D8490040094B10B5D8689A68002308E0114652F8084B1CB901230B60486810BD01338342F4D3002010BD00BF0492FF1F084B30B52C
:403D40000022DC689B6808E05D6819460833854202D100230B6030BD0132A242F4D330BD0492FF1F01230373704700230373704710B1002282720260704718B1027B0AB16D
:403D8000013A02737047000038B501F02BFD20B3124C4200E260000101F018FD238AA060E068584301F012FDA568E168228A002304E005EBC3046060013380188B42F8D366
:403DC000102001F003FD054C6061282001F0FEFCA37CA06143F00203A37438BD0492FF1F38B510220D460021044601F021FCFFF78FFF08B9013038BDA0604FF0FF3300205E
:403E000065602360A07338BD38B5837A044643B1056801F0F7FA2846FFF7AFFF2046FFF7A7FF002038BD08B50368827A03B19B6822B11BB1FFF7E8FF002008BD012008BD70
:403E400008B901307047FFF7EEBF000038B5104B9C69217B59B921606160A16004F11000142201F0E5FB237B013323730DE0656A45B9282001F094FC606218B1294628227D
:403E800001F0D6FB646A002CE3D1204638BD00BF0492FF1F38B50E4B5C69A17AE56839B92046102201F0C4FB0123A372E5600CE045B9102001F074FCE06018B12946102274
:403EC00001F0B6FBE468002CE7D1204638BD00BF0492FF1F2DE9F74F06460020884691469B469DF830A09DF83470FFF7AFFF054608B9044610E0FFF7CDFF044660B180F8B7
:403F00000B900560AE604046214652463B46CDF800B001F0ABF830B12046FFF729FF2846FFF72BFF00242046BDE8FE8F2DE9FF410C461F4604A9002341F8043D15469DF86E
:403F4000286000F0A5F88046B8B1039B0BB11B789BB1404600F025F900280EDD14F0150F01D0032809D1039939B1404622462B4600970196FFF7AEFF00E0002004B0BDE810
:403F8000F08100002DE9F3410646884600240E4D404655F83410E70001F080FB10B9002C04DA0DE001340F2CF1D109E07D19A87929790090EA796B793046FFF7B7FF00E036
:403FC0000020BDE8FC8100BF04990000FFF7DABF10B5437B04460BB1012010BD40682168A268A37B01F0C5FC10B10120607310BD207310BD10B5437B044663B9037B53B1C5
:4040000040682168A268A37B01F0B3FC08B1012363730023237310BD036870B5994204460D46164607D0037B0BB1FFF7E3FF00232560A673E37370BDFFF7DCBF10B504461D
:40404000FFF7D8FFA068BDE81040FFF777BE01230373FFF7CFBF10B50446407B08B1012010BDE37B5BB960682168A268A37B01F01AFC10B10120607310BD0122E27310BD03
:4040800008B5436813B94FF0FF3008BD984708BD2DE9F0470F463A21064601F02EFB044610B93446174D27E00378C6EB000A5BB114F8013F43B162783A2A05D1A3F1300838
:4040C0005FFA88F8023401E04FF000080D4D2B6828791B689847814601F0EDFA504508D148463146524601F0EEFA10B92B79434502D0AD6D002DEAD107B13C602846BDE8E6
:40410000F08700BF2092FF1FF8B5174C064694F85710A56D69B95C220127204601F088FA84F85770A5653046FFF7AAFF00280EDA18E045B95C2001F033FBA06518B1294637
:404140005C2201F075FAA46D002CE0D10AE0074B26609A6F01329A670323207184F8577084F856302046F8BD2092FF1F0492FF1FFFF7CABF38B504460D4601F062FB08B9C1
:40418000013838BD204601F06FFB204601F008FD204600F0D5FC08B184F8555094F8550038BD90F8553023B990F8561009B1FFF7E1BF1846704710B590F8552004463AB9A2
:4041C00031B1FFF7D7FF002802DC4FF0FF3010BD94F8550010BDFFF7EEBF10B50C460021FFF756FF08B9013810BD2146BDE81040FFF7F1BF30B51346BAB1B0B10268857AC0
:404200000AB1946804B900247DB172B16CB1C27A12F0100204D14FF6FA730381104630BD1A46BDE8304001F00FB9002030BDFFF7E1BF0C2802D0102805D102E001EB5100D6
:4042400070474800704788007047036840689B685B6AB0FBF3F0704710B5C46C436CE4B199421AD3E318994217D2013B99420CBF4FF0FF31013172B190F836300C2B02D0CC
:40428000102B05D102E00905090D03E089B201E021F070411160012010BD002010BD40F6F473984201D80C2070474FF6F473984294BF102020207047027F8368023902FB03
:4042C00001307047431EDBB21F2B13D92F2811D007D826280ED002D8222809D10AE02A3804E03A2804D33F2804D95B38022801D90120704700207047034638B30B2A01DD37
:404300000B2200E0013A00201CE0082809D191F808C0BCF1200F0DD04FF02E0C03F801CB08E038B991F800C0BCF1050F02D1ACF1200C04E011F800C0BCF1200F01D003F8F1
:4043400001CB01309042E0DB00221A7070472DE9F04788B005AE04460D463046114600229A469DF84490BDF84C80BDF8507000F0BDFC08B1002413E020462946524600F077
:40438000AEFD044660B1129B31460093109A4B46CDF80480029700F065FF2846FFF7E2FC204608B0BDE8F08710B59DF80C400394BDE8104000F078BD2DE9F04F144E87B00E
:4043C000109DDDF848809DF84440376800950194CDF8088005937F68934682468946B84732680C4BDDF814C09A420DD060B9504649465A46634610951194CDF8488007B0EE
:40440000BDE8F04FFFF7D0BF07B0BDE8F08F00BFEC80FF1FAC99000070B5C37A04460B7010300D4601F098F9064604F10E0001F093F940EA0640686004F1120001F08CF9ED
:404440000004A86004F1180001F086F9064604F1160001F081F940EA0640E86004F11C0001F061F9286170BD2DE9F845038A04460E46924687692BB907F1180021466269BB
:4044800000F004FC38465146224600F087FC0546204600F005FCD5B12B78C3B1E52BF1D095F80B80B8F10F0FECD018F00808E9D170692946B269FFF71FFF28463146FFF74D
:4044C000ABFF238A404601332382BDE8F8854FF0FF30BDE8F8850222FFF79EBD2DE9F74F04460D461E461746002A00F09B8090F836001146FFF79DFEB4F81EA0A36A20FAB9
:404500000AFA9A45814680F08D80638E04F118089A44284651464246FFF7DDFF2846FFF79AFD6B7B002B7DD1A38B013B09EA0309AB681FFA89F909EB030B26B9226C974258
:4045400003D2276401E07A1C226494F83620102A0AD0202A11D1584601F0E5F831460746584601F0EBF84EE0584601F0F5F8B1B20746584601F0ECF845E028460193FFF730
:40458000F1FB019B17F0010F19F803701CD007F00F0242EA061209F80320A38B013B994502D00BF1010309E028460AF101014246FFF791FF2846FFF74EFDAB681A78120199
:4045C00042EA171732091DE009F80360A38B013B994502D00BF1010309E028460AF101014246FFF778FF2846FFF735FDAB681A7802F00F0147EA0127310A22F00F0201F07D
:404600000F010A431A702846FFF7ACFBE36BB3F1FF3F09D00FB10133E3632EB1E36B013BE36301E0012000E00020BDE8FE8F6FF07043FFF753BF70B5C36C04460E4693B112
:40464000002506E0AA1820463146531CFFF746FF0135E36C626C013B9D42F3D320463146AA18FFF7E4FF00236364E364A364236570BD70B506460D461C460AB1FFF72EFF49
:40468000304629462246BDE87040FFF7D0BF2DE9F04790F8366005460C46304611469146FFF7C7FDB5F81E80AB6A20FA08F89845824602D30020BDE8F0876B8E05F118072F
:4046C0009844204641463A46FFF705FF2046FFF7C2FC18B14FF0FF30BDE8F087AA8BA168013A0AEA020A1FFA8AFA92450AEB01031AF8015001D0013309E0204608F1010172
:404700003A46FFF7E8FE2046FFF7A5FCA36818780C2E45EA002009D0202E0FD15D7840EA05409D7840EA0560BDE8F08719F0010F02D00009BDE8F0870005000DBDE8F087B3
:404740002DE9F34190F83630144603FB02F7828B8846D200511E0F40D71B0546B7FBF3F7002618E00E4B93F87C30022B05D12846214601AAFFF770FD28B92846414622469A
:40478000FFF785FF0190019B0134A34205D10136B6B2013F1C46002FE4DC3046BDE8FC810492FF1F2DE9F34105460E46144698461F681CE0114B93F87C30022B05D128463E
:4047C000214601AAFFF748FD28B9284631462246FFF75DFF0190737B0BB100240BE0AA6B019B0132934204D81BB1013F1C46002FE0D1C8F800702046BDE8FC810492FF1F53
:4048000073B504680E4623681BB9FFF71EFD013039E0FFF71AFD236998423CBF4FF0FF3323612369B3F1FF3F04D12268013323616261E3832169E28B451A954234BF2B4634
:4048400013463BB16069C918C018D21A60612161E283ED1A0DB9284615E002AB43F8045D31466269A068FFF79DFF6061019B21690246C91A4D19256123B9A0683146FFF739
:404880005FFFE08301987CBD13B502AC44F8043D2346FFF787FF019B002B18BF00201CBD2DE9F0410746884615461E460024384641462A460123FFF7E7FF30B1BA6B013401
:4048C000944201D80546F2E7002406B134602846BDE8F0812DE9F84504460E4615461F46002B36D01C4B93F87C30022B31D190F8368011464046FFF79CFCB4F81CA00AF137
:40490000FF3A2AEA000A4FEACA0ABAFBF8FAAA44A8460EE0204631464246FFF7B8FE50B9636C0BB9C4F84480A36C08F101080133A364D045EED9A36C5BB127653B685A6940
:4049400022B1204631462B46FFF7C8FDE36C0133E364BDE8F88500BF0492FF1F2DE9F8459846274B054693F87C300F46022B1646846B19D1036D984503D0836C0BB1FFF75F
:404980005AFEB8F1000F0FD02B6D43450CD1EB6CAA6C9A4204D96C6C1C190133EB642CE028463946FFF747FE012E04F1010A01D9564505D92E6C012E01D9564500D9022660
:4049C0003446284639462246FFF761FE50B101345445F6D902240DE0284639462246FFF756FE30B92846394622464346FFF772FF03E00134B442EFD300242046BDE8F88599
:404A00000492FF1FF8B507460E461546FFF7A6FF044628B1384631462A462346FFF729FE2046F8BDB2F1FF3F73B504460D4614D0561A013611D0FFF7FFFA084B00211A8A3C
:404A4000A06800F0F5FD022300936068A3682946324600F069FF0023E3737CBD0492FF1F2DE9F84F984690F8363004460C2B0D4616465AD04FF0FF3AD1463CE094F836002C
:404A80003146FFF7D6FBB4F81CB0678E0BF1FF3B10EA0B0BE38B1DD1D840013F3F18022228463946FFF7B8FAA38BAA689B0852F80B1079B9013B0BF1040BF8D13BE049460D
:404AC00028465246FFF7AEFFB946BB462846FFF74CF9DA462946324601232046FFF7D4FE29460746324620460023FFF7F7FC2FB108F1FF383E46B8F1000FBFD1284649468C
:404B00005246FFF78FFF13E02946324601232046FFF7BAFE29460746324620460023FFF7DDFC2FB108F1FF383E46B8F1000FEBD14046BDE8F88F0AF1010B5F45BFD1C5E71A
:404B40002DE9F8450446FFF7E3F8054608B9044696E0204600F014FF4B4E338A834208D338B1002120462A460B4600F09CFE002804DA2846FFF7E2F8002481E005F5FF70AF
:404B800000F0EAFD4AF65523984275D105F10B0000F0E2FD10F47E4F07466DD0338A83426AD32B7C022B67D16E7B002E64D000213C2204F1180000F03BFD05F1130000F058
:404BC000CBFD804620B905F1200000F0ACFD804605F1160000F0C0FD824680B905F1280000F0BAFD10F08F0F46D105F1240000F09AFD824605F12C0000F095FDE062022331
:404C000084F83530C4F828A0C4F8188084F8346005F10E0000F0A0FD608605F1110000F09BFD638E94F83520208602FB0A3A7B099BB2B0FBF3F05044A783206209230122FE
:404C40009A40BA4201D1E38302E00133102BF6D17743C0EB0800B0FBF6F0A0636762FFF71EFB4FF0FF33202884F8360018BFC4F82CA0E363012400E000242846FFF75EF842
:404C80002046BDE8F88500BF0492FF1F00238B60837F202B01D102B942694A600A60704783680133836070472DE9F0410C46202105461F469DF818604FF0000800F0B8FC60
:404CC00010E014F8080036B9E52804D1B8F1000F01D1E03802E000F009FDC0B205F8080008F10108B845ECDBBDE8F0812DE9F74506460D4608462849002A14BF92464FF04E
:404D0000FF3A00F0CBFC804650B930462946022200F05DFEB01C2021092200F089FC37E000274FF0FF3415F80780B8F1000F01D0574505D1B4F1FF3F08BF3C4664B925E026
:404D40004046FFF7BFFA08B3B8F12E0F08BF3C4601370D2FE7D119E0082C17DC3F1B042F14DC30462946082223464FF00008CDF80080FFF799FF0123611C009306F1080086
:404D8000691803227B1EFFF78FFF01E04FF001084046BDE8FE8500BFBC9900002DE9F74FD2F808B0436A4FEA4B18B8FBF3F8D368054698450E461446D2F8009001D200231F
:404DC000D360B5F81EA0E368AAF1050A0BB9D4F804902BFA0AF7B9F1000F17D095F83420B8EB0303019206D04A4628463146FFF74BFD814640B3494605F11800FFF75CFAED
:404E0000019B591E01EA0707C11906E02B8E43FA0AF39F4218D2E96A79183046C4F80090C4F80C800122FFF7F7F83046FFF713F950B9013000FA0AFAB3680AF1FF3A0AEAFF
:404E40000B0B03EB4B1000E00020BDE8FE8F2DE9FF4107460E4601A811461A460A9D9DF82C40FFF743FFC8B9384631462A46FFF795FF8046A0B1037883B101A90B2200F06D
:404E8000C7FB38B998F80B3004EA0302A24201D1082B05D12846FFF703FFE5E74FF00008404604B0BDE8F0812DE9F04587B002AF04460E46154698469DF83CA039460E9A57
:404EC0001830FFF7E3FE204631462A4643460097CDF804A0FFF7BBFF07B0BDE8F0852DE9F04500F1180785B005460C46384669469246FFF7CBFE284621466A46FFF74EFF83
:404F000006466846E846FFF7CBFE002E37D1BAF1000F02D12B8E002B35D12146009A00232846FFF7BDFC2146024600232846FFF769FD80462046FFF78AF8B8F1000F22D0B2
:404F4000AA8B0021A06800F073FB38464146FFF7B3F995F8347000257E1E361808E0314620460122FFF758F82046FFF731F8013E01357B1BB3F1FF3FF1D1A66803E0337890
:404F80000BB1E52BB7D1304605B0BDE8F08538B504461A3000F0E0FB054604F1140000F0DBFB45EA004038BD2DE9F0451D4685B007460E462A6010465C21904600F09DFB4F
:404FC0004FF0000A0446A04508D108F10108C5F8008040465C2100F090FB044694B1C8EB0403002B0EDD10220192103A0292384631464246CDF800A0FFF7DEF970B1FFF7DB
:40500000C6FF824628685C2100F077FBA04604460028D8D10C9B0130C3F800A005B0BDE8F085F8B505460C461E461746DAB16FF01A0313700846FEF795FE16B94FF47A7604
:4050400008E007F11C0000F06EFB6B6A5E1E3618B6FBF3F63846FFF79AFF2146024633462846FFF7FDFC607BF8BD00002DE9F04FD1F8008093B0D8F808700BAD04460893BA
:405080000E464FF0FF333946284609920F939DF870A0FEF7A5FE10AB009338462946224611ABFFF781FFD0B1F27A109B07920FAA00930292002338462946119A0193FFF799
:4050C0007BF9044680B1C37A13F0100F07D10D9BDDF82CB0C3EB00094FEA691906E02846FEF7ACFF0125A3E083468146099B002B3CD0002C33D0524B5D6912E02B687BB174
:40510000AA7A6AB19A8B4A450AD19A695A4507D19B68BB4204D14FF6F772328100257EE0ED68002DEAD10DF12C0C6146384622460123CDF818C0FFF774FFDDF818C018B1CE
:405140004FF0FF3333816AE03E4B1B68DC6824B138466146109A0F9BA0472C4606E0BAF1000F03D1089A002A44D065E0089BEBB1CCB1E37A13F0010F0BD0079A12F0150F62
:4051800007D04FF6FA733381BAF1000F01D1012500E000252046FFF7FAFE074604F11C0000F0C1FA29E0BAF1000F45D0BAF1010F01D000251BE0ECB900F024FD214B2022B6
:4051C0001B68019282B2000C03920490009402949D6838460BA9119A109BA84750B10D9ADDF82CB0C2EB00094FEA6919254628462F4602E00125002007464FF0FF33C8F8CC
:405200001030C8F818B0A8F81C90079AC8F8040012F0010308BF1846C8F800707060B6F908300BA835EA230528BF0125FEF706FF284613B0BDE8F08F01255046DCE700BF4F
:405240000492FF1FEC80FF1F70B505460C461A3089B200F07DFA05F11400210CBDE8704000F076BA2DE9F0470446BDF824700D469146002120229A46BDF82860DDF8208097
:4052800000F0D6F90B222046294600F0A0FB04F10E00394684F80BA000F05AFA04F11000314600F055FA04F11600394600F050FA04F11800314600F04BFA20464946FFF792
:4052C000C3FF04F11C004146BDE8F04700F036BA07B5426803460AB910460AE081680020009048681968DB6800F0FCFA003818BF01200EBD2DE9F047046805460F46A66891
:40530000FFF77EFA81468246002841D0D4F80080B8F1000F1BD14246304639462B46FFF71DFB0246D8B11C4B6061C4F8108093F87C302060022B07D030463946FFF777F9F0
:4053400010B10120BDE8F087B9F1010A20D03046394662692B46FFF701FB804628B94FF6FE732B810130BDE8F0870B4B93F87C30022B05D03046394662694346FFF779F9D1
:405380002369C4F8148001332361BAF1010ADDE70020BDE8F08700BF0492FF1F2DE9F041836804460D4608460122A1699E8BFEF733FE2846B4F81C80AF68FEF74CFEF8B9DA
:4053C000013E06EA4816B6B2BE1906F11C00616800F0B4F921683046FFF736FF00F012FC0446A1B206F1160000F0B2F906F11800210C00F0ADF92846BDE8F041FEF727BE0B
:40540000BDE8F0817FB50668B0F90830B568C3B9C37A13F0110F14D029466846FEF7E0FC30466946FFF7BAFF064B6C4693F87C30022B03D128466946FFF7FDF86846FEF74E
:40544000FDFD7FBD0492FF1F03682DE9F04F9F68038995B001339BB2012B04460E46059201D90025CEE0394610AD0CA8FEF7B8FC39462846FEF7B4FC039626680023D6F8D8
:4054800008909A4609F118010791D9F82420059906924FF0FF32099308920A950291049320460CA9FFF726FF38B108A8FFF710FF5546002818BF00258FE0326906990132A0
:4054C0004A43B9F81CB063680BF1FF3BD21A0BEA030B029B0798934228BF134601937169FEF7EAFE99F83430B9F81C206768013BB7FBF2F703EA0707C719B9F81C3001991C
:40550000CBEB03058D4228BF0D469D4228D0BBF1000F03D1626873689A420FD00DF14008404639460022FEF777FD4046FEF793FD20B14FF6F9725546228154E012980399C4
:4055400058442A460DF1400800F041FA404639460022FEF761FD4046FEF73AFD90B141E0099B089A9A1897420AD008A8FFF7B0FE002837D101230993039B08970B9301E075
:4055800001330993029B03995B1B019A029363684919521BAA44ED186560736803919D42019207D91BB1194B93F87C300BB9012104917560019A1AB101374FF0000B9CE707
:4055C000029B002B7FF46CAF08A8FFF781FE04995546002818BF002529B1304610A9FFF7DDFE00E05546059A954205D0B4F9083013B94FF6F87323810CA8FEF71FFD10A8B2
:40560000FEF71CFD284615B0BDE8F08F0492FF1F10B5002308E0C45C11F803C0013A0133644501D0012010BD002AF4D1104610BD70B5034602E003F8011C013A1C4622B1D4
:4056400003F003050133002DF5D193081ED04FF001354D4308E044F8105C44F80C5C44F8085C44F8045C043B032BA44604F11004F1DC1C46002603E04CF80650013B043662
:40568000002BF9D102F003020CEB8404002302E0E154013A0133002AFAD170BD002310F803C0CA5C624501D0012070470133002AF5D110467047002300E00133C25C002AA0
:4056C000FBD11846704710B500230BE0C45C11F803C0644501D0012010BDC4186478013314B1013A002AF1DC002010BDA0F16103192B98BF00F0DF007047C9B203E00BB99A
:4057000018467047013003788B42F8D1704742780178431C42EA01205A789B7842EA002043EA002070478378C27803EB0222437803EB0222037803EB0220704703460A0A94
:4057400003F8011B42700A0C090E5A70997070470170090A417070474278037843EA022070470000094A0A4BC11C10B5146821F0030118680919814201D9002010BD11600A
:405780009A685868013220189A6010BD8492FF1FB481FF1F08B5FFF7E5FF00B9FEE708BDFFF7E0BF30B1044A9368013B93600BB9024A1360704700BFB481FF1F8492FF1F06
:4057C000014B586019607047B481FF1F38B50546FFF7E0FF002104462A46FFF729FF204638BD000010B5084CA37C0BB1002010BD4FF40073238200F0F5F9A37C012043F034
:405800000103A37410BD00BF0492FF1F08B583680BB10020984708BD08B583680BB10120984708BD10B504680079A468A04710BD37B59DF81850046800790095E468A047BC
:405840003EBD08B5036800799B69984708BD036810B55B69044623B10079984708B1002000E00120607110BD10B5437904460BB9FFF7EDFF607910BDF7B504461F460E463C
:405880001546FFF7F1FF2046FFF7C6FF2A463146012320460097FFF7C5FF05462046FFF7B5FF2846FEBD10B504690919BDE81040FFF7E2BFF7B5044615461F460E46FFF760
:4058C000D3FF2046FFF7A8FF0023009331462B463A462046FFF7ACFF05462046FFF796FF2846FEBD30B504699DF80C5009190395BDE83040FFF7DEBFF7B5044615461F46EE
:405900000E46FFF7B1FF2046FFF786FF0123009331462B463A462046FFF78AFF05462046FFF774FF2846FEBD30B504699DF80C5009190395BDE83040FFF7DEBF73B504462E
:405940000E461546FFF790FF2046FFF765FF00232A460093314601332046FFF769FF05462046FFF753FF002D14BF4FF0FF3000207CBD10B504690919BDE81040FFF7DEBF02
:4059800030B5054685B0FFF76FFF2B6828791C694FF47B71002201ABA04708B1002001E0BDF80C0005B030BD70B506460D46FFF75BFF336830791C694FF47B7100222B46C5
:4059C000A047002814BF4FF0FF30002070BD11F0030F70B584460B4632D110F0030F2FD195100446AC4611E053F8106CACF1040C44F8106C53F80C6C44F80C6C53F8086C6E
:405A000044F8086C53F8046C44F8046C10341033BCF1030FE8D8AB081B0100EB030CCB1815F003050AD0284600215C584CF8014004310138F9D1AD00AC445B1902F00302AE
:405A400013F0010F19462FD11CF0010F60462BD15410254610E031F8086C043D20F8086C31F8066C20F8066C31F8046C20F8046C31F8026C20F8026C08300831032DEAD807
:405A8000A108C9005B1814F003048C440AD0204600215D5A2CF8015002310138F9D16400A4441B1902F00102614610E013F8040C043A01F8040C13F8030C01F8030C13F8C8
:405AC000020C01F8020C13F8010C01F8010C18460433032A8C4601F10401E7DC32B10023C15C0CF8031001339342F9D170BD0378E92B01D101207047EB2B01D000207047F4
:405B00008078902814BF00200120704708B500F5FF70FFF721FE4AF65523984214BF0020012008BD01EB001000F5E370FFF7FBBDF0B50D4685B01446064658B352B3002153
:405B40000B46FFF799FE002824DB2046FFF7DEFF00B32046FFF7CBFF10B10024274616E02146FFF7DFFF074604F5E570FFF7DBFD01A904463046FFF717FF5CB157B1E2199C
:405B8000FF23120AB2FBF3F2029B9A4202D81DB12C6001E04FF0FF37384605B0F0BD000073B50446FFF7ECFE0646FEF7B1F80C4B05461B8AB3420DD366B1204601A92A4643
:405BC000FFF7B6FFB0F1FF3F04D02061019B6361002400E0FF242846FEF7B0F860B27CBD0492FF1F08B505484FF48051FFF7E8FDBDE808400248FEF7BBBA00BFC081FF1F7D
:405C0000089A00004FF40410704700BF4FF6FF7070470000014B1868704700BFC091FF1F00487047289A000000F0B2BC37B501220DF10701054600F0BFFC9DF80740FF2CA8
:405C400014BF0A240724284601220DF1070100F0B3FC9DF80700FF2803D1013CE4B2002CF1D13EBD37B50469857828460DF10701012200F0A1FC9DF807300BB1002003E06A
:405C8000013CF2D14FF0FF303EBD37B54FF0FF3305460C468DF8073006E028460DF10701012200F0B1FC013C002CF6DC3EBD000038B5094C2368032B02DD4FF0FF3509E03F
:405CC000DDB2013323601420FFF780FD04EB850460608570284638BDC091FF1F08B5034B4FF400711B68984708BD00BFF080FF1F4FEAD20CACEBD103CCF10F0C10B5013332
:405D00006044002410F801CB013B4CEA0424F9D101F00703511A02228A40DC40013A04EA020010BD7FB5130E85788DF80530130C01F03F018DF80630130A41F040018DF8D0
:405D4000073000238DF808208DF804101A4601A911F802C000215B00DBB283EA0C0E1EF0800F18BF83F009030131082904D04FEA4C0C5FFA8CFCEEE70132052AE7D15B0038
:405D800043F001038DF809308678C4680122304603A900F011FC9DF80C30FF2B04D00CB9FF2009E0013CF1E7284601A9062200F02BFC2846FFF73AFF04B070BDF7B5847854
:405DC00006460F4620460121FFF75FFF204600F0A7FB304609210022FFF7A4FF8DF8070028BBF6680546012220460DF1060100F0E3FB9DF80630FE2B06D0FC2B04D0013564
:405E0000ADB2B542EFD112E00DF1070520463946102200F0D1FB29462046012200F0CCFB29462046012200F0C7FB002500E0FF25204600F079FB20460121FFF726FF284620
:405E4000FEBD00002DE9F04F9B46494B89B003EB800305925C684A02029103924FF00309029AA578E678039B2846022E08BF13461E4600F059FB01212846FFF706FFBBF187
:405E8000010F0CBF4FF0110A4FF0120A284600F047FB204651463246FFF744FF002851D1059F5E46A378E268B44604924FF000081E460FE0012230460DF11F01CDF804C0A3
:405EC00000F07AFB9DF81F20DDF804C0FE2A05D008F10108049B9845ECD333E0284639464FF40072664600F067FB0222284607A900F062FB9DF81C30384601939DF81D802F
:405F0000FFF7ECFE4FF6FF729042019B0CD048EA0328404508D0BAF1120F13D120460C210022FFF7FFFE0DE0013E02D007F50077B8E7BAF1120F07D120460C213246FFF7BA
:405F4000F1FE01E04FF0FF36284600F0EDFA28460121FFF79AFE3EB1B9F1000F02D009F1FF397DE74FF0FF36304609B0BDE8F08FC091FF1F2DE9F04F99464C4B87B002929E
:405F800003EB80039DF840205D68009103926B78002B40F085804B0201930327009BAC78EE78019A2046022E08BF1A46164600F0BBFA01212046FFF768FEB9F1010F0CBF5B
:405FC0004FF0180A4FF0190A204600F0A9FA284651463246FFF7A6FE8DF81700002850D120460121FFF751FE029ECB46B8463046FFF774FE0DF11707BAF1180F0CBFFE23B5
:40600000FC2301228DF817308DF81500030A394620468DF8143000F0F7FA204631464FF4007200F0F1FA0222204605A900F0ECFA01222046394600F0BFFA9DF8173003F021
:406040001F03052B1CD12846FFF70CFEC0B9039A0AB906F50076BBF1010BC8D1BAF1190F474611D106A96FF00203204601F8013D012200F0C9FA2846FFF7F4FD20B100E00A
:4060800047464FF0FF3600E00026204600F04CFA20460121FFF7F9FD26B10FB1013F7DE74FF0FF36304607B0BDE8F08FC091FF1F2DE9F04F877887B0044638460D4600F0C4
:4060C0002FFA20463A210022FFF72CFE064638B1384600F029FA38460121FFF7D6FD58E00DF1140804224146384600F065FA4046FFF70DFB8046384600F016FA0121384611
:40610000FFF7C3FDB8F1000F28F07F02B8BF4FEA987BD2B240F272634FEA1828B8BF0BF0010B1FFA88F8002A14BF1A460022012111EA080F05D10136F6B24900102E89B250
:40614000F6D140F27260824233460DD06422724302F5FA6208E011EA080F07D049000133013689B2DBB2F6B20F2EF4D964214B434FF6FE7103F5FA6302EA01014FF6FC72F0
:40618000384603EA020200F0F5F910F0FF0F40F099804FF0FF3092E028467E217F22FFF7A7FD8246EB78DFF82C8103F0030203F0780308EBD30358F822101B7C3846594302
:4061C00089B200F0B7F90646002877D06B7803F00702DB1003F00F0308EB82024344126A93F810800292B8F1000F67D0A978284603911C221A21FFF77BFD0190BAF1000FCD
:406200001FD1502153222846FFF772FD4FF0010909FA00F92F2131222846FFF769FD1FFA89F982463E21284649224FEA5929FFF75FFD0AF1020A09FA0AF9013000FB09F920
:4062400010E0BAF1010F01D0012038E0284630214522FFF74DFD4FEA8029BBF1000F01D00223E37008FB06F2029B0399B2FBF3F2642303FB01225A437343D208DB089A42C3
:4062800094BFE260E360FA235E43019BF6089A400C21B24294BF2261266128460D22FFF727FD0546384600F043F94FF4007128436070A180C4F80890002000E0FF2007B070
:4062C000BDE8F08FE378A778012B3FF465AF4FF0000A67E7C0990000F0B5857887B004464FF4C871284600F025F9B0F5C87F00F2CC804CF25033E3600026284600F014F9C3
:406300000A212846FFF7C1FC624B93E8030001902846ADF8081000F003F9062201A9284600F072F92846FFF781FC0746284600F0FBF801212846FFF7A8FC17F0010F03D10F
:406340000136052ED9D1A0E0284600F0E9F8082120464FF4D572FFF7E5FC10F0040F52D0284600F0E1F8A5784FF4FA66284600F0D7F8002237212046FFF7D4FC28460121CB
:40638000FFF783FC292100222046FFF7CBFC0746284600F0C9F828460121FFF776FC17B90123E3701EE017F0040F01D1013EDDD14FF4FA66284600F0B3F801210022204601
:4063C000FFF7B0FC0746284600F0AEF828460121FFF75BFC0FB9E77004E0012F55D1013EE8D152E001AD20462946FFF7E7FC00284BD120462946FFF75BFEC0B2002844D1D7
:406400000123237043E00422A07805A900F0D4F8284600F089F89DF81730AA2B35D19DF8163003F00F03012B2FD1A5784FF4FA66284600F075F8002237212046FFF772FC69
:4064400028460121FFF721FC29214FF080422046FFF768FC0746284600F066F828460121FFF713FC0FB1013EE2D101AE20463146FFF7A4FC48B90125E57020463146FFF7AD
:4064800017FEC0B208B9257001E04FF0FF3007B0F0BD00BF009A000010B5084B03EB80035C6823783BB9FFF7BFFB20B12046BDE81040FFF711BF4FF0FF3010BDC091FF1FCB
:4064C00038B51D46154BA1F57B7103EB80035C68072918D8DFE801F00A17171704041719204600211422FFF7A3F80CE0237833B92046FFF7F1FE10B14FF0FF3038BDA3887B
:406500002B81A3686B60002038BD2046FFF74AF9024B00201A68013A1A6038BDC091FF1F00B1002000F08EB9012000F08BB900BF00207047B1F5C87F38B50CD21D254FF4ED
:40654000C87400F0FDF82846012100F009F900F0E7F8204638BD45F6C053B1F57A6F28BF4FF47A614D00ADB2B3FBF5F5013D0C46ADB2E6E740F6E443994206D840F6E340FD
:40658000824294BF0020012070470020704700BF10B5084B1A785AB901241C7000F0D0F821463B2000F0DCF800F0BAF800F04EF8022010BDD491FF1FF8B507460E46154697
:4065C000741C77B1FF2000F099F800F091F8C307FBD500F09FF8013D264604F8010CEFD1F8BD013D2544FF2000F088F800F080F8C207FBD500F08EF8A542307002D026460F
:406600000134F0E7F8BD00BF70B506460C46154614F8010B56B100F071F800F069F8C307FBD500F077F8013DF2D170BD013D254400F064F800F05CF8C207FBD500F06AF8AA
:40664000AC4202D014F8010BF2E770BD70B51E4C2378A3B11D4CFDF793F823781C4943F0200323700B781B4A43F010030B70137843F010031370BDE87040FDF785B8164B09
:406680000F21164A19701378990604D514490B7813789B06FBD4FDF773F80C4B114E1A780E4D42F001021A701A7802F0FE021A70FDF76AF80C480D490023012236782D787B
:4066C00003700B702270C5E7D591FF1F946400409364004097640040846400406764004054640040636400408364004087640040014B1878704700BF63640040034A13788B
:406700005B07FCD5024B1870704700BF6364004044640040014B1878704700BF546400400549064A0B7843F001030B70137843F001031370704700BFA2430040B2430040BA
:406740000549064A0B7803F0FE030B70137803F0FE031370704700BFA2430040B2430040F0B4314D314E2A7833889BB298420BD02F4C02F007022478E4B24AB933B9308070
:406780002B7803F0BF032B70F0BC7047002843D014F0010422D0274F274D284E00223A7001272F70327015F8082C02F07F0205F8082C96F86E2016072BD41E4A204F154669
:4067C00007263B8016702B781A4A13F00103FAD1174E357805F0FE0535701370144B1A78D5070FD56FF4687213441A460029144C14BF03210121208019701378DB07FCD473
:40680000F0BC7047094A10801A7814431C70F0BC70470028E2D1D0E72B7843F040032B703080F0BC704700BF8240004080400040A243004001400040104000401440004056
:4068400002400040044A8000137800F0040003F0FB031843107070471051004081F0004102E000BF83F0004330B54FEA41044FEA430594EA050F08BF90EA020F1FBF54EA38
:40688000000C55EA020C7FEA645C7FEA655C00F0E2804FEA5454D4EB5555B8BF6D420CDD2C4480EA020281EA030382EA000083EA010180EA020281EA0303362D88BF30BDE1
:4068C00011F0004F4FEA01314FF4801C4CEA113102D0404261EB410113F0004F4FEA03334CEA133302D0524263EB430394EA050F00F0A780A4F10104D5F1200E0DDB02FA52
:406900000EFC22FA05F2801841F1000103FA0EF2801843FA05F359410EE0A5F120050EF1200E012A03FA0EFC28BF4CF0020C43FA05F3C01851EBE37101F0004507D54FF0E4
:40694000000EDCF1000C7EEB00006EEB0101B1F5801F1BD3B1F5001F0CD349085FEA30004FEA3C0C04F101044FEA445212F5800F80F09A80BCF1004F08BF5FEA500C50F1B8
:40698000000041EB045141EA050130BD5FEA4C0C404141EB010111F4801FA4F10104E9D191F0000F04BF01460020B1FA81F308BF2033A3F10B03B3F120020CDA0C3208DD8C
:4069C00002F1140CC2F10C0201FA0CF021FA02F10CE002F11402D8BFC2F1200C01FA02F120FA0CFCDCBF41EA0C019040E41AA2BF01EB0451294330BD6FEA04041F3C1CDAF5
:406A00000C340EDC04F11404C4F1200220FA04F001FA02F340EA030021FA04F345EA030130BDC4F10C04C4F1200220FA02F001FA04F340EA0300294630BD21FA04F029464A
:406A400030BD94F0000F83F4801306BF81F480110134013D4EE77FEA645C18BF7FEA655C29D094EA050F08BF90EA020F05D054EA000C04BF1946104630BD91EA030F1EBF24
:406A80000021002030BD5FEA545C05D14000494128BF41F0004130BD14F580043CBF01F5801130BD01F0004545F0FE4141F470014FF0000030BD7FEA645C1ABF194610469A
:406AC0007FEA655C1CBF0B46024650EA013406BF52EA033591EA030F41F4002130BD00BF90F0000F04BF0021704730B54FF4806404F132044FF000054FF0000150E700BFE6
:406B000090F0000F04BF0021704730B54FF4806404F1320410F0004548BF40424FF000013EE700BF42004FEAE2014FEA31014FEA02701FBF12F07F4393F07F4F81F0605179
:406B4000704792F0000F14BF93F07F4F704730B54FF4607401F0004521F0004120E700BF50EA010208BF704730B54FF000050AE050EA010208BF704730B511F0004502D51D
:406B8000404261EB41014FF4806404F132045FEA915C3FF4DCAE4FF003025FEADC0C18BF03325FEADC0C18BF033202EBDC02C2F1200300FA03FC20FA02F001FA03FE40EAF6
:406BC0000E0021FA02F11444C1E600BF70B54FF0FF0C4CF4E06C1CEA11541DBF1CEA135594EA0C0F95EA0C0F00F0DEF82C4481EA030621EA4C5123EA4C5350EA013518BF93
:406C000052EA033541F4801143F4801338D0A0FB02CE4FF00005E1FB02E506F00042E0FB03E54FF00006E1FB03569CF0000F18BF4EF0010EA4F1FF04B6F5007F64F54074D3
:406C400004D25FEA4E0E6D4146EB060642EAC62141EA55514FEAC52040EA5E504FEACE2EB4F1FD0C88BFBCF5E06F1ED8BEF1004F08BF5FEA500E50F1000041EB045170BD59
:406C800006F0004646EA010140EA020081EA0301B4EB5C04C2BFD4EB0C0541EA045170BD41F480114FF0000E013C00F3AB8014F1360FDEBF002001F0004170BDC4F1000441
:406CC000203C35DA0C341BDC04F11404C4F1200500FA05F320FA04F001FA05F240EA020001F0004221F0004110EBD37021FA04F642EB06015EEA430E08BF20EAD37070BD07
:406D0000C4F10C04C4F1200500FA04F320FA05F001FA04F240EA020001F0004110EBD37041F100015EEA430E08BF20EAD37070BDC4F1200500FA05F24EEA020E20FA04F3F6
:406D400001FA05F243EA020321FA04F001F0004121FA04F220EA020000EBD3705EEA430E08BF20EAD37070BD94F0000F0FD101F00046400041EB010111F4801F08BF013CC9
:406D8000F7D041EA060195F0000F18BF704703F00046520043EB030313F4801F08BF013DF7D043EA0603704794EA0C0F0CEA135518BF95EA0C0F0CD050EA410618BF52EAC2
:406DC0004306D1D181EA030101F000414FF0000070BD50EA410606BF1046194652EA430619D094EA0C0F02D150EA013613D195EA0C0F05D152EA03361CBF104619460AD121
:406E000081EA030101F0004141F0FE4141F470014FF0000070BD41F0FE4141F4780170BD70B54FF0FF0C4CF4E06C1CEA11541DBF1CEA135594EA0C0F95EA0C0F00F0A7F872
:406E4000A4EB050481EA030E52EA03354FEA013100F088804FEA03334FF0805545EA131343EA12634FEA022245EA111545EA10654FEA00260EF000419D4208BF964244F106
:406E8000FD0404F5407402D25B084FEA3202B61A65EB03055B084FEA32024FF480104FF4002CB6EB020E75EB030E22BFB61A754640EA0C005B084FEA3202B6EB020E75EBA1
:406EC000030E22BFB61A754640EA5C005B084FEA3202B6EB020E75EB030E22BFB61A754640EA9C005B084FEA3202B6EB020E75EB030E22BFB61A754640EADC0055EA060EB4
:406F000018D04FEA051545EA16754FEA06164FEAC30343EA52734FEAC2025FEA1C1CC0D111F4801F0BD141EA00014FF000004FF0004CB6E711F4801F04BF01430020B4F184
:406F4000FD0C88BFBCF5E06F3FF6AFAEB5EB030C04BFB6EB020C5FEA500C50F1000041EB045170BD0EF0004E4EEA113114EB5C04C2BFD4EB0C0541EA045170BD41F4801191
:406F80004FF0000E013C90E645EA060E8DE60CEA135594EA0C0F08BF95EA0C0F3FF43BAF94EA0C0F0AD150EA01347FF434AF95EA0C0F7FF425AF104619462CE795EA0C0F2A
:406FC00006D152EA03353FF4FDAE1046194622E750EA410618BF52EA43067FF4C5AE50EA41047FF40DAF52EA43057FF4EBAE12E74FF0FF3C06E000BF4FF0010C02E000BFA4
:407000004FF0010C4DF804CD4FEA410C7FEA6C5C4FEA430C18BF7FEA6C5C1BD001B050EA410C0CBF52EA430C91EA030F02BF90EA020F0020704710F1000F91EA030F58BFCA
:40704000994208BF90422CBFD8176FEAE37040F0010070474FEA410C7FEA6C5C02D150EA013C07D14FEA430C7FEA6C5CD6D152EA033CD3D05DF8040B704700BF84461046DD
:4070800062468C461946634600E000BF01B5FFF7B7FF002848BF10F1000F01BD4DF808EDFFF7F4FF0CBF012000205DF808FB00BF4DF808EDFFF7EAFF34BF012000205DF868
:4070C00008FB00BF4DF808EDFFF7E0FF94BF012000205DF808FB00BF4DF808EDFFF7CEFF94BF012000205DF808FB00BF4DF808EDFFF7C4FF34BF012000205DF808FB00BF2E
:407100004FEA410212F5001215D211D56FF47873B3EB625212D94FEAC12343F0004343EA505311F0004F23FA02F018BF404270474FF00000704750EA013005D111F0004018
:4071400008BF6FF0004070474FF00000704700BF4A0011D212F5001211D20DD56FF47873B3EB62520ED44FEAC12343F0004343EA505323FA02F070474FF00000704750EA57
:40718000013002D14FF0FF3070474FF000007047014B1868704700BF5481FF1F0E4B70B51E460E4C0025E41AA410A54204D056F8253098470135F8E702F0FCFC084B094C84
:4071C0001E46E41AA4100025A54204D056F8253098470135F8E770BDC09B0000C09B0000C09B0000C89B0000931E222B10B50C4602D90020087010BD0A2A06D1002804DAFB
:407200002D230B704042012100E00021214400F0B5FC204610BDFFF7E7BF10B5431E0A44914204D011F8014B03F8014FF8E710BD03460244934202D003F8011BFAE77047BD
