:400000000080002011000000410A0000410A000008B5044B1A6803F53F5302331A6000F017FD00BFFA46004010B5054C237833B9044B13B10448AFF300800123237010BDCD
:400040004081FF1F00000000141B0000084B10B51BB108490848AFF300800848036803B910BD074B002BFBD0BDE81040184700BF000000004481FF1F141B0000C880FF1FB4
:40008000000000000000000010B50C4600F04EFE204600F0B1FE012000F036FD00F0DAFF002000F0E7FF00F0DDFF00F0F5FF00F0FFFF01F0C7F904A3D3E9002301F052FBD2
:4000C00010BD00BFAFF300809A99999999D9494008B500F091FE012000F016FD00F0BAFF002000F0C7FF00F0BDFF00F0D5FF00F0DFFF01F0A7F904A3D3E9002301F032FBA0
:4001000008BD00BFAFF300809A99999999D9494038B50546084600F009FE002000F06CFE00240BE02046FFF7D3FF0022054B01F07FFC08B1204638BD0134E4B2AC42F1D316
:40014000002038BD0000F03F38B504461546084600F0ECFD09E02046FFF7BAFF0022054B01F05CFC18B90134E4B2AC42F3D3601E38BD00BF000034402DE9F04FADF2CC6DA6
:4001800062B600F0A9FD00F037FD012000F028FD4FF4FA7000F0B8FC002000F021FD4FF4FA7000F0B1FC012000F01AFD4FF4FA7000F0AAFC00F0E2F9002000F0D1F900F06E
:4001C00053FE00F0EBFD00F037FF754B0FCB0DF5D96404E90F0000F0B9FF1521FF20FFF797FF051EC0F2D080ECB2DC22BC212046FFF7AAFF401B6B4B83FB0023A3EBE0731C
:40020000DBB28DF8B44601220AE0511E0DF5D960014411F8141C1044194400F8141C0132032AF2DD00238DF8F43500220023CDE90223012421E0631E0DF5D962134413F83E
:40024000D42C0DF5D9612144013201F8D42C13F8D40C01F0F7F80022534B01F059F90022524B01F055F90022514B01F051F902AB03EBC403C3E900010134BC2CDBDD4FF0C9
:40028000000876E00DF5D963434413F8141C0DF5D9632B4413F8D40CFFF7F6FE44B102460B463046394600F081FF06460F4601E006460F46013400E00024B4F57A7FE1DBB1
:4002C00000223C4B3046394601F04CFA06460F46EDB90022384B01F01BF90022374B01F041FA01F0AFFB824602AB03EBC5012AA3D3E90023D1E9000101F00AF901F0A2FBBB
:400300002F4B83FB0039C017C0EBE9192AE000222A4B01F0FDF80022274B01F023FA01F091FB044602AB03EBC5010022254BD1E9000101F0EDF818A3D3E9002301F012FAFD
:4003400001F080FB83460DF5D96303EB880353F8103C0093234602465146484600F0DAF9A246D946013500E00025BC2DA4DD08F10108B8F1030FF7DD00F0C8FE002000F0CB
:40038000D5FC002000F038FD00200DF2CC6DBDE8F08F00BFAFF30080000000000088C340181B000056555555000008400000B0400000703F00408F400000394000006E409A
:4003C000676666660000744010B50446002000F0FBFB204600F042FC00F0EEFB0028FBD100F0EAFB0128FBD110BD00BF10B50446012000F0E9FB204600F030FC00F0DCFB97
:400400000028FBD100F0D8FB0128FBD110BD00BF38B50244013A42EA00450B44013B43EA01442A20FFF7D0FF012000F0CDFB002000F0B6FB280E00F011FC00F0BDFB0128FB
:40044000FBD1C5F3074000F009FC00F0B5FB0128FBD1C5F3072000F001FC00F0ADFB0128FBD1E8B200F0FAFB00F0A6FB0128FBD100F096FB2B20FFF7A7FF012000F0A4FBB1
:40048000002000F08DFB200E00F0E8FB00F094FB0128FBD1C4F3074000F0E0FB00F08CFB0128FBD1C4F3072000F0D8FB00F084FB0128FBD1E0B200F0D1FB00F07DFB012816
:4004C000FBD100F06DFB2C20FFF77EFF38BD00BF2DE9F041BDF81850EF283FDC90461F46B1F5A07F3ADA8318013BEF2B03DDC0F1F0080FFA88F8CB19013BB3F5A07F02DBF4
:40050000C1F5A0773FB2BBB21FFA88F289B280B2FFF77EFF2E0AEDB2012000F055FB002000F03EFB15E0304600F098FB00F044FB0128FBD1284600F091FB00F03DFB01284F
:40054000FBD1013C24B200E04446002CEBDC013F3FB2002FF8DC012000F022FBBDE8F08100B583B000904FF4A073F02200210846FFF7AEFF03B05DF804FB00BFF8B50E4D07
:4005800016E0FFF721FF6F7807F07F02023505E06E1C2878FFF72AFF22463546531EDCB2002AF5D117F0800F02D0782000F0ACFA28780028E5D1F8BD281B000080B2EF2844
:4005C00022D8002920DBB1F5A07F1DDA10B5144601231A4689B2FFF71BFF012000F0F4FA002000F0DDFA200A00F038FB00F0E4FA0128FBD1E0B200F031FB00F0DDFA01289F
:40060000FBD100F0CDFA10BD704700BF08B5C0F59F730133C1F1EF0019B200B2FFF7CEFF08BD00BF2DE9F04F83B005460E461746BDF830200092C1EB0308B8F1000FB8BFD6
:40064000C8F10008C0EB0709B9F1000FB8BFC9F10009C84504DD3A461F4613460D460646BD4205DD32461E4613462A463D461746C5EB070B1FFA8BFB0FFA8BF4C6EB030A33
:40068000BAF1000FB8BFCAF1000A04EBD47464109E4202DA012301931EE04FF0FF3301931AE0C84505DD009A29463046FFF7AEFF04E0009A31462846FFF7A8FFCAEB04045A
:4006C000A3B21CB2002C05DA019A164436B20BEB030424B201352DB2BD42E2DD03B0BDE8F08F00BF00B583B00244013A00930B4612B2FFF797FF03B05DF804FB00B583B027
:400700000A44013A009313B20246FFF78BFF03B05DF804FB10B582B0BDF8104090420BD1994202DD0A46194613465A1A0132234612B2FFF7E3FF10E099420BD1904202DD99
:40074000034610461A46121A0132234612B2FFF7C9FF02E00094FFF765FF02B010BD00BFFEE700BFF0B40022174611E050F82760F3B226F0FF0608E001EB420511F8124065
:400780006D78A5550132013BDBB2002BF4D10137122FEBD9F0BC704708B50A46002101F0B0F908BDF8B5194B1B78DBB2184E3478E4B2184F3D78EDB203F00701164A1170D1
:4007C0001B090132137044F00303337045F003033B703822114B1A70802103F2CC73197010230F4A137020220E480270903001700D490A700D4A13700A2000F09BF93D706F
:40080000347044220A4B1A70F8BD00BFCF010049F8460040F94600406E5800403D510040905A0040985A00402B5B0040585B00407658004008B501F059F908BD38B5002478
:400840002C4B1C80582202331A7004222A492B48FFF7F0FF02222A4B1A7008224FF040231A70032103F500731970264B1B78DBB225490B70254B1A8041F25122023B1A80A9
:4008800019250CE0224B1B7803F0010343EA440404F003044FF4F07000F072FC013D0DB1032CEFD115B90320FFF75AFF194B4FF480721A8007221A70002217490A70482031
:4008C000023108701A700222033B1A7004220A331A70124A137843F001031370013A137843F001031370013A137843F08003137038BD00BF804000408002004800410040CB
:400900000043004008010049A146004022420040254200400440004006400040A243004038B572B6354A137843F00403137000240CE0334D630019194A0011462A440846E3
:4009400091882858FFF728FF0134E4B2082CF0D900240BE02A49A3001819420088188022C16B806BFFF766FF0134E4B2002CF1D024494FF09040FFF7F5FE234A137843F065
:40098000020313701032137843F0020313701F4C237843F040032370A2F58632513A137843F010031370082219491A48FFF742FF082219491948FFF73DFF082218491948BA
:4009C000FFF738FF082218491848FFF733FF184A137843F008031370164D61232B70FFF72DFF81232B700122134B1A70FFF7DAFE0E2221461148FFF71DFF38BDE8460040E8
:400A0000981B00004C00004803500140A0430040600200480251004068020048F251004070020048125100407802004832510040224300400048004004000840B0430040B8
:400A400008B501F027F803680C2B00D1FEE7FEE708B5104E104D16E029686B68AC68002204E051F8040B43F8040B0432A242F8D1E868002203E0002143F8041B0432824231
:400A8000F9D11035013E002EE6D101F009F8FFF773FBFEE701000000001C000008B5104A104B1A60104A136843F40073136000230AE0032B03D80D4A52F8231000E00C49AE
:400AC0000C4A42F8231001332F2BF2D90A4B1A780A4B1A70074A0A4B1A60FFF721FF08BD0004FA050CED00E014ED00E000000000410A00000080FF1FBC760040C080FF1FA3
:400B000008ED00E001BE704710B5044605E0084B186800F035FBA4F50044B4F5004FF6D8034B586800FB04F000F02AFB10BD00BFCC80FF1F08B5034B1B7A00FB03F000F05A
:400B40001FFB08BDCC80FF1F70B504460E46074B1D681F2802D90020FFF7D4FF04F01F04103455F8240045F8246070BD08ED00E038B504460D46072902D90020FFF7C2FF8C
:400B80001F2C02D90020FFF7BDFF04F01F0000F1604000F564406D01EDB2057038BD00BF044A137803F0FD03400000F0020018431070704700510040024B1878C0F34000D9
:400BC000704700BF01510040044A137803F0FE0300F0010018431070704700BF00510040044A137803F0DF03400100F02000184310707047F0510040054A137843F001032A
:400C000013701032137843F001031370704700BFA243004008B500F0BBFA094A137843F0200313700232137843F010031370013A137843F01003137000F0AEFA08BD00BFC3
:400C400091640040014B1878704700BF63640040014B1878704700BF62640040034B1B7813F0040FFAD0024B18707047636400404164004008B501E00A4B1B780A4B1B78E7
:400C800013F0200FF8D100F083FA084B1A7842F001021A701A7802F0FE021A7000F07CFA08BD00BF51640040626400409164004008B50F22064B1A70FFF7DCFFFFF7C2FFAF
:400CC000FFF7C6FF0023034A1370013A137008BD816400408364004008B5054B1B7823B9FFF7E6FF0122024B1A70FFF793FF08BD5C81FF1F054A137843F008031370103201
:400D0000137843F008031370704700BFA8430040054B1A7802F0FD021A701A7800F0020010431870704700BF2C580040014B1870704700BF835B0040064B1B78C3F381034A
:400D400003F19243063393F83831DBB2024A1370704700BF2C5800400B46004008B5064B1A7802F0F3021A701A7800F00C0010431870FFF7E1FF08BD2C58004010B5002494
:400D8000054B1C7001331C700420FFF7E7FF2046FFF7BEFF10BD00BF2C58004008B5074B1B7823B9FFF7EAFF0122044B1A70FFF7A1FF6420FFF7BAFF08BD00BF5D81FF1F8C
:400DC000054A137843F0040313701032137843F004031370704700BFA8430040054B1A7802F0FD021A701A7800F0020010431870704700BF28580040014B1870704700BFF5
:400E0000825B0040064B1B78C3F3810303F19243063393F82831DBB2024A1370704700BF285800400A46004008B5064B1A7802F0F3021A701A7800F00C0010431870FFF7FF
:400E4000E1FF08BD2858004010B50024054B1C7001331C700420FFF7E7FF2046FFF7BEFF10BD00BF2858004008B5074B1B7823B9FFF7EAFF0122044B1A70FFF7A1FF6420B0
:400E8000FFF7BAFF08BD00BF5E81FF1F08B50A280FD00C2802D0082806D102E04FF4805209E04FF4807206E00020FFF72BFE002201E04FF480620021084B198042F2107301
:400EC00003FB02F313F5806301D503F2FF73DB12034A13600022034B1A8008BD6481FF1F6881FF1F6681FF1F10B500F051F904461E4A137843F0020313701032137843F055
:400F0000020313701A3A137843F0010313701032137843F00103137002F5AA521A32137843F0030313701822114B1A70013B1A7842F040021A701A7802F0FC021A70C822A1
:400F4000053B1A700222A3F59753123B1A70094A137843F0080313700A20FFF7EBFD0122054B1A60204600F017F910BDAB4300400E5900402F5B004080E200E008B500F0D5
:400F800007F90F4A137803F0FE031370A2F5AA521D3A137803F0FD0313701032137803F0FD0313701A3A137803F0FE0313701032137803F0FE03137000F0EEF808BD00BFB4
:400FC0000859004010B504460A280DD00C2802D0082804D101E0C22207E0422205E00020FFF790FDC22200E08222034B1A702046FFF74CFF10BD00BF0A59004008B510208C
:4010000000F0B4F807210020FFF7B2FD07490020FFF79AFD064A137843F0060313700C20FFF7D0FF0022034B1A8008BD09110000095900406C81FF1F08B5054B1B7823B98D
:40104000FFF7DCFF0122024B1A70FFF74DFF08BD5F81FF1F024A137843F001031370704708590040024A137803F0FE03137070470859004010B5074B1B7813F0010401D18D
:401080000028F8D024B10120FFF754FD014B1B78204610BD09590040034B188880B2034B1B88C01A00B27047A25B00406681FF1F10B4124B1B881BB233B1104B1B881BB279
:4010C00003EB83035C0001E00D4B1C680D4B1988411A09B242F2107303FB01F2002903DD04EBD470401003E004EBD47040104042831893FBF4F000B210BC70476481FF1FF3
:401100006881FF1F6C81FF1F704700BF08B50C4B1B7813F0020F0ED00A4B1B7813F0010F03D00322084B1A7002E00122064B1A70FFF724FF08BD0022034B1A7008BD00BF82
:40114000AB430040085900406081FF1F08B5064B1B7843B1FFF7C8FE034B1B7813F0020F01D0FFF777FF08BD6081FF1F034B1A7800F0F80010431870704700BF02410040BE
:401180000230800803D000BF01380046FCD17047EFF3108072B6704780F31088704700BF81F0004102E000BF83F0004330B54FEA41044FEA430594EA050F08BF90EA020F3D
:4011C0001FBF54EA000C55EA020C7FEA645C7FEA655C00F0E2804FEA5454D4EB5555B8BF6D420CDD2C4480EA020281EA030382EA000083EA010180EA020281EA0303362D10
:4012000088BF30BD11F0004F4FEA01314FF4801C4CEA113102D0404261EB410113F0004F4FEA03334CEA133302D0524263EB430394EA050F00F0A780A4F10104D5F1200E18
:401240000DDB02FA0EFC22FA05F2801841F1000103FA0EF2801843FA05F359410EE0A5F120050EF1200E012A03FA0EFC28BF4CF0020C43FA05F3C01851EBE37101F0004532
:4012800007D54FF0000EDCF1000C7EEB00006EEB0101B1F5801F1BD3B1F5001F0CD349085FEA30004FEA3C0C04F101044FEA445212F5800F80F09A80BCF1004F08BF5FEA51
:4012C000500C50F1000041EB045141EA050130BD5FEA4C0C404141EB010111F4801FA4F10104E9D191F0000F04BF01460020B1FA81F308BF2033A3F10B03B3F120020CDA29
:401300000C3208DD02F1140CC2F10C0201FA0CF021FA02F10CE002F11402D8BFC2F1200C01FA02F120FA0CFCDCBF41EA0C019040E41AA2BF01EB0451294330BD6FEA040439
:401340001F3C1CDA0C340EDC04F11404C4F1200220FA04F001FA02F340EA030021FA04F345EA030130BDC4F10C04C4F1200220FA02F001FA04F340EA0300294630BD21FA73
:4013800004F0294630BD94F0000F83F4801306BF81F480110134013D4EE77FEA645C18BF7FEA655C29D094EA050F08BF90EA020F05D054EA000C04BF1946104630BD91EAC7
:4013C000030F1EBF0021002030BD5FEA545C05D14000494128BF41F0004130BD14F580043CBF01F5801130BD01F0004545F0FE4141F470014FF0000030BD7FEA645C1ABF77
:40140000194610467FEA655C1CBF0B46024650EA013406BF52EA033591EA030F41F4002130BD00BF90F0000F04BF0021704730B54FF4806404F132044FF000054FF000013D
:4014400050E700BF90F0000F04BF0021704730B54FF4806404F1320410F0004548BF40424FF000013EE700BF42004FEAE2014FEA31014FEA02701FBF12F07F4393F07F4FBC
:4014800081F06051704792F0000F14BF93F07F4F704730B54FF4607401F0004521F0004120E700BF50EA010208BF704730B54FF000050AE050EA010208BF704730B511F02E
:4014C000004502D5404261EB41014FF4806404F132045FEA915C3FF4DCAE4FF003025FEADC0C18BF03325FEADC0C18BF033202EBDC02C2F1200300FA03FC20FA02F001FA1C
:4015000003FE40EA0E0021FA02F11444C1E600BF70B54FF0FF0C4CF4E06C1CEA11541DBF1CEA135594EA0C0F95EA0C0F00F0DEF82C4481EA030621EA4C5123EA4C5350EA8B
:40154000013518BF52EA033541F4801143F4801338D0A0FB02CE4FF00005E1FB02E506F00042E0FB03E54FF00006E1FB03569CF0000F18BF4EF0010EA4F1FF04B6F5007FEA
:4015800064F5407404D25FEA4E0E6D4146EB060642EAC62141EA55514FEAC52040EA5E504FEACE2EB4F1FD0C88BFBCF5E06F1ED8BEF1004F08BF5FEA500E50F1000041EBE5
:4015C000045170BD06F0004646EA010140EA020081EA0301B4EB5C04C2BFD4EB0C0541EA045170BD41F480114FF0000E013C00F3AB8014F1360FDEBF002001F0004170BD8F
:40160000C4F10004203C35DA0C341BDC04F11404C4F1200500FA05F320FA04F001FA05F240EA020001F0004221F0004110EBD37021FA04F642EB06015EEA430E08BF20EAD4
:40164000D37070BDC4F10C04C4F1200500FA04F320FA05F001FA04F240EA020001F0004110EBD37041F100015EEA430E08BF20EAD37070BDC4F1200500FA05F24EEA020EAE
:4016800020FA04F301FA05F243EA020321FA04F001F0004121FA04F220EA020000EBD3705EEA430E08BF20EAD37070BD94F0000F0FD101F00046400041EB010111F4801FD3
:4016C00008BF013CF7D041EA060195F0000F18BF704703F00046520043EB030313F4801F08BF013DF7D043EA0603704794EA0C0F0CEA135518BF95EA0C0F0CD050EA4106E8
:4017000018BF52EA4306D1D181EA030101F000414FF0000070BD50EA410606BF1046194652EA430619D094EA0C0F02D150EA013613D195EA0C0F05D152EA03361CBF10465E
:4017400019460AD181EA030101F0004141F0FE4141F470014FF0000070BD41F0FE4141F4780170BD70B54FF0FF0C4CF4E06C1CEA11541DBF1CEA135594EA0C0F95EA0C0FDE
:4017800000F0A7F8A4EB050481EA030E52EA03354FEA013100F088804FEA03334FF0805545EA131343EA12634FEA022245EA111545EA10654FEA00260EF000419D4208BF9B
:4017C000964244F1FD0404F5407402D25B084FEA3202B61A65EB03055B084FEA32024FF480104FF4002CB6EB020E75EB030E22BFB61A754640EA0C005B084FEA3202B6EB1B
:40180000020E75EB030E22BFB61A754640EA5C005B084FEA3202B6EB020E75EB030E22BFB61A754640EA9C005B084FEA3202B6EB020E75EB030E22BFB61A754640EADC00AD
:4018400055EA060E18D04FEA051545EA16754FEA06164FEAC30343EA52734FEAC2025FEA1C1CC0D111F4801F0BD141EA00014FF000004FF0004CB6E711F4801F04BF01430D
:401880000020B4F1FD0C88BFBCF5E06F3FF6AFAEB5EB030C04BFB6EB020C5FEA500C50F1000041EB045170BD0EF0004E4EEA113114EB5C04C2BFD4EB0C0541EA045170BDA9
:4018C00041F480114FF0000E013C90E645EA060E8DE60CEA135594EA0C0F08BF95EA0C0F3FF43BAF94EA0C0F0AD150EA01347FF434AF95EA0C0F7FF425AF104619462CE715
:4019000095EA0C0F06D152EA03353FF4FDAE1046194622E750EA410618BF52EA43067FF4C5AE50EA41047FF40DAF52EA43057FF4EBAE12E74FF0FF3C06E000BF4FF0010CC1
:4019400002E000BF4FF0010C4DF804CD4FEA410C7FEA6C5C4FEA430C18BF7FEA6C5C1BD001B050EA410C0CBF52EA430C91EA030F02BF90EA020F0020704710F1000F91EA69
:40198000030F58BF994208BF90422CBFD8176FEAE37040F0010070474FEA410C7FEA6C5C02D150EA013C07D14FEA430C7FEA6C5CD6D152EA033CD3D05DF8040B704700BFEB
:4019C0008446104662468C461946634600E000BF01B5FFF7B7FF002848BF10F1000F01BD4DF808EDFFF7F4FF0CBF012000205DF808FB00BF4DF808EDFFF7EAFF34BF0120D4
:401A000000205DF808FB00BF4DF808EDFFF7E0FF94BF012000205DF808FB00BF4DF808EDFFF7CEFF94BF012000205DF808FB00BF4DF808EDFFF7C4FF34BF012000205DF891
:401A400008FB00BF4FEA410212F5001215D211D56FF47873B3EB625212D94FEAC12343F0004343EA505311F0004F23FA02F018BF404270474FF00000704750EA013005D1AE
:401A800011F0004008BF6FF0004070474FF00000704700BF014B1868704700BF3C81FF1F0E4B70B51E460E4C0025E41AA410A54204D056F8253098470135F8E700F08EF81B
:401AC000084B094C1E46E41AA4100025A54204D056F8253098470135F8E770BDE81B0000E81B0000E81B0000F01B000010B5431E0A44914204D011F8014B03F8014FF8E7D6
:401B000010BD03460244934202D003F8011BFAE770470000000000001F000000E007000000F8000020FD0000EF03038002CF0300C130ED0464031281E803850078CB0539C2
:401B40002C003402F70120EA020000C00123C10110C5023E28C701863601483701003A0155B1020018B603088227F20100260101E00F0F312B0C0E084EF1370710030E0914
:401B800000E10F000E1403110731C148080F0C31360F118029800000205100401000405100403000C0510040100000000140800000010140000F00140140000800400140D8
:401BC000000A004C01400002005001402000000080000140E001004880004300F8B500BFF8BC08BC9E4670474D0000009D0A0000F8B500BFF8BC08BC9E46704729000000D3
:401C0000101C0000C880FF1F7800000030000000000000000000E02EC05D00001800000000366E010000000000000000000000000000000000000000000000000000000082
:401C400000000000DA1B000000000000000000000000000000000000000000000000000000000000000000000000000000000000000000000000000000000000000000006F
:401C800000000000DC80FF1F0000000000000000000000000000000000000000000000000000000000000000000000000000000000000000000000000000000000000000AA
:401CC00000000000000000000000000000000000000000000000000000000000000000000000000000000000000000000000000000000000000000000000000000000000E4
:401D000000000000000000000000000000000000000000000000000000000000000000000000000000000000000000000000000000000000000000000000000000000000A3
:401D40000000000000000000000000000000000000000000000000000000000000000000000000000000000000000000000000000000000000000000000000000000000063
:401D80000000000000000000000000000000000000000000000000000000000000000000000000000000000000000000000000000000000000000000000000000000000023
:020000040003F7
:0200000480007A
:4000000002520040016400400D0001402C0101403A020140300301400605014001150140011B0140024001400B41014005420140014301400148014002490140024C014018
:40004000014D0140025001400151014000200120810F01020305050807010D08190D1B02350E37013B203F4059045F010402060207080EAA17051D801E8120042240230892
:4000800024032570261027402E802F883120375938053A803DA03E02448045A047084C014D0855015688571065406E0A6F9D76028D21C0D0C2F0C430CAB0CCF4CEBBD0F050
:4000C000D210D810000702380456050906090736086009050B3A0C840D130F0C10011102130D1680180A1A101B201C84200422802480260428842C04307F34803530370F3C
:4001000038023B803E105440580459045B045F018101840485018609880E980599019A0A9C039E04B20FB60FB701B888BF40D409D804D904DB04DF0100140406060A096036
:400140000C040D200E820F20175518101A021E801F10218026A02702316032803620370238063C043DA059085A815B20618065206640672084809006928199289A8A9B557D
:400180009C809D40A170A201A310C0F6C2F3C4F0CCA4CE73D60FD878AA20AC04AE41B2C0B320EA20EE08EE083320CC100A0253105B0264108601A720C240D420D640D88015
:4001C000E440A720AB02AF10B010EEC0A720A720AF20EE101F80C601AF80000108010003019A020000000000022108D81D13006402980D0202FC04031D9800021D3800C08F
:400200000D9A10001D00000000020098000200000FE00000000F1013000002220000400023051000040EDCFB3DFFFFFF2200F008040000000000022004040404000000011D
:400240000000C00040011011C0010011400140010000000000000000000000000000000040A3A300A20000000020200000000000000B0B0000000000000000000000380052
:400280000E00180100000000000000000000000000000000000000000000000000000000000000000000000000000000000000000000000000000000000000000000000017
:4002C00000000000000000000000000000000000000000000000000000000000000000000000000000000000000000000000000000000000000000000000000000000000FE
:4003000000000000000000000000000000000000000000000000000000000000000000000000000000000000000000000000000000000000000000000000000000000000BD
:40034000000000000000000000000000000000000000000000000000000000000000000000000000000000000000000000000000000000000000000000000000000000007D
:40038000000000000000000000000000000000000000000000000000000000000000000000000000000000000000000000000000000000000000000000000000000000003D
:0200000490006A
:0400000000004005B7
:0200000490105A
:04000000BC90ACAF55
:0200000490303A
:02000000AEE46C
:0200000490402A
:4000000000000000000000000000000000000000000000000000000000000000000000000000000000000000000000000000000000000000000000000000000000000000C0
:400040000000000000000000000000000000000000000000000000000000000000000000000000000000000000000000000000000000000000000000000000000000000080
:400080000000000000000000000000000000000000000000000000000000000000000000000000000000000000000000000000000000000000000000000000000000000040
:4000C0000000000000000000000000000000000000000000000000000000000000000000000000000000000000000000000000000000000000000000000000000000000000
:0200000490501A
:0C00000000012E16106900012E21BF4DDA
:00000001FF