:4000000000800020110000006D3000006D30000008B5044B1A6803F53F5302331A6003F045F800BFFA46004010B5054C237833B9044B13B10448AFF300800123237010BDFD
:40004000B081FF1F0000000024970000084B10B51BB108490848AFF300800848036803B910BD074B002BFBD0BDE81040184700BF00000000B481FF1F24970000C880FF1FBC
:400080000000000008B5012809D8002003F038FF002003F051FF002003F06AFF08BD012003F02EFF012003F047FF012003F060FF08BD00BF38B505460C4603F07DFB284696
:4000C00003F062F9204603F0C5F9012003F04AF803F0EEFA002003F003FB03F0F5FA03F011FB03F01BFB06F0A3FE00220B4B07F02FF804460D4603F03FFB094B1B684BB1A5
:40010000002003F041F9002003F0A4F9044B186803F028F82046294638BD00BF00004A40D881FF1F38B5044603F046FB204603F091F9012003F016F803F0BAFA002003F02C
:40014000CFFA03F0C1FA03F0DDFA03F0E7FA06F06FFE0022044B06F0FBFF04460D4603F00BFB2046294638BD00004A4038B50546084603F009F9002003F06CF900240BE0BA
:400180002046FFF7CFFF0022054B07F047F908B1204638BD0134E4B2AC42F1D3002038BD0000F03F38B504461546084603F0ECF811E02046FFF7B6FF0022094B07F024F954
:4001C00038B1002003F0E0F8002003F043F9601E38BD0134E4B2AC42EBD3204638BD00BF00003440000000002DE9F04F97B005908A4691469846804C94E803000E908DF840
:400200003C100027CDF83D70ADF8417007AD0C340FCC0FC594E8030085E80300DAE0774B1B68CBB1209A76490DA807F075FE0EAC0DA9204607F094FE204607F0A0FE02463C
:400240002118704B1868A0501B790B714B463A464146204601F0D8FE002680E06A4B1B68022B29D00020BAE0B8F1010F0DD81AF80710F0B2FFF71EFF02460B4620462946BD
:4002800006F08AFC04460D4613E009EBC703D3E9000107F0F5F8C6F1BC03C1B2D8B2FFF709FF02460B462046294606F075FC04460D460BF1010B03E0002400254FF0000B72
:4002C000524B18688345CFDB06F0B2FD02460B462046294606F03CFF04460D46474B1B683BB1CDF80480009602460B460EA801F02BFF3DA3D3E900232046294606F0FEFDBF
:400300003BA3D3E9002306F0F9FD04460D46059806F08EFD02460B462046294606F018FF07F086F80546BC2404FB06F3384A146893FBF4F4002E0FDD16AB03EB870353F834
:400340003C3C009300F10A0304F11E0203990A3104981E3000F000FC0136049403952C4B1B689E42FFF67AAFB8F1030F26D8DFE808F0020B141D09EBC703D3E90023254992
:4003800011A807F0C9FD19E009EBC703D3E90023214911A807F0C0FD10E009EBC703D3E900231E4911A807F0B7FD07E009EBC703D3E900231A4911A807F0AEFD0123009309
:4003C00011AB4FF6FF7203990A310498253001F061FC0137134B1B689F42FFF620AF17B0BDE8F08FAFF300800000000000C06C409A9999999999E93F28970000DC80FF1F46
:400400004C97000050970000CC81FF1FD880FF1FD480FF1F58970000609700006897000070970000E080FF1F2DE9F04393B062B602F080FF02F00EFF012002F0FFFE64208D
:4004400002F090FE002002F0F9FE642002F08AFE012002F0F3FE642002F084FE00F0B0FA03F028FD03F018FD03F00AFD002003F0FFFC03F027F802F0BFFF03F00BF903F08B
:40048000FBF90021382003F0CDFBA42003F05CFC002003F059FC03F03BFC03F001FA03F06BFE4FF0FF32A64B1A60A64B02934FF6FF73019300240094F0234FF4A0722146F6
:4004C000204600F011FC4FF47A7002F04BFEA0469B4B1B68B3F1FF3F02D100F087FD01E000F0F6FD984B1B68022B08D0072BF9D10021084601F030FA00F078FDF2E7934BE8
:400500001B680BB108F101088D4C2078FFF7BAFD2368012B05DC1521FF20FFF727FE814604E00D21FF20FFF721FE8146B9F1000F0CD1002000F036FA4FF6FF73844A96216E
:40054000642001F0A7FBC82002F00CFE5FFA89F4DC22BC212046FFF725FEC9EB00007D4B1F687E1EB0FBF6F6F6B28DF84040744B1D68032D29D8DFE805F002112A3D484634
:4005800006F046FC6AA3D3E9002306F0B7FC0022714B06F0B3FCCDE9040116E0484606F037FC63A3D3E9002306F0A8FC00226A4B06F0A4FC60A3D3E9002306F0EBFA0022B8
:4005C000664B06F0C5FDCDE90401012493E0484606F01EFC56A3D3E9002306F08FFC00225D4B06F08BFC00225D4B06F0D3FACDE90401EAE7484606F00BFC4DA3D3E900238E
:4006000006F07CFC0022544B06F078FC0022544B06F0C0FA0022514B06F09AFDCDE90401D3E7631E12AA134413F8080C3044C0B21346234403F8080C032D5BD8DFE805F069
:4006400002132D4206F0F4FB39A3D3E9002306F055FC0022404B06F051FC12AB03EBC40343E90E0146E006F0E3FB31A3D3E9002306F044FC0022384B06F040FC2EA3D3E92B
:40068000002306F087FA0022344B06F061FD12AB03EBC40343E90E012CE006F0C9FB24A3D3E9002306F02AFC00222B4B06F026FC00222B4B06F06EFA12AB03EBC40343E932
:4006C0000E0117E006F0B4FB19A3D3E9002306F015FC0022204B06F011FC0022204B06F059FA00221D4B06F033FD12AB03EBC40343E90E010134BC4293DB1A4B1B68ABBBFB
:400700000020194941E0134B1B68013B12AA134413F8081CBC20FFF7CDFC02460B462046294606F039FA04460D46013621E000BFFCA9F1D24D621040666666666666E63F01
:40074000D080FF1F7C970000CC81FF1FDC80FF1FC0970000E080FF1F0000703F0000244000002E40D881FF1F00003D40002400250026174B18688642C5DB06F059FB02467E
:400780000B462046294606F0E3FC06F051FE114C84FB0034C017C0EB640404EB840405340D4D2968204600F047FB2B78CDF8008004AA10A92046FFF717FD002002F0E4FD1A
:4007C000002002F047FE054B1B68022BFBD07FE6D880FF1F67666666D080FF1FCC81FF1F10B50446002002F01DFD204602F064FD02F010FD0028FBD102F00CFD0128FBD1B3
:4008000010BD00BF10B50446012002F00BFD204602F052FD02F0FEFC0028FBD102F0FAFC0128FBD110BD00BF38B50244013A42EA00450B44013B43EA01442A20FFF7D0FF27
:40084000012002F0EFFC002002F0D8FC280E02F033FD02F0DFFC0128FBD1C5F3074002F02BFD02F0D7FC0128FBD1C5F3072002F023FD02F0CFFC0128FBD1E8B202F01CFD5F
:4008800002F0C8FC0128FBD102F0B8FC2B20FFF7A7FF012002F0C6FC002002F0AFFC200E02F00AFD02F0B6FC0128FBD1C4F3074002F002FD02F0AEFC0128FBD1C4F3072050
:4008C00002F0FAFC02F0A6FC0128FBD1E0B202F0F3FC02F09FFC0128FBD102F08FFC2C20FFF77EFF38BD00BF2DE9F041BDF81850EF283FDC90461F46B1F5A07F3ADA83185D
:40090000013BEF2B03DDC0F1F0080FFA88F8CB19013BB3F5A07F02DBC1F5A0773FB2BBB21FFA88F289B280B2FFF77EFF2E0AEDB2012002F077FC002002F060FC15E03046B7
:4009400002F0BAFC02F066FC0128FBD1284602F0B3FC02F05FFC0128FBD1013C24B200E04446002CEBDC013F3FB2002FF8DC012002F044FCBDE8F08130B583B015461A4655
:400980004042441B04F5A0744942C81AF030BDF8183000932B4621B200B2FFF7A5FF03B030BD00BF00B583B00090F0234FF4A07200210846FFF7E0FF03B05DF804FB00BF53
:4009C000F8B50E4D16E0FFF70BFF6F7807F07F02023505E06E1C2878FFF714FF22463546531EDCB2002AF5D117F0800F02D0782002F0B8FB28780028E5D1F8BDD09700003A
:400A000080B2EF2822D8002920DBB1F5A07F1DDA10B5144601231A4689B2FFF705FF012002F000FC002002F0E9FB200A02F044FC02F0F0FB0128FBD1E0B202F03DFC02F0D9
:400A4000E9FB0128FBD102F0D9FB10BD704700BF08B5C0F59F730133C1F1EF0019B200B2FFF7CEFF08BD00BF2DE9F04F83B005460E461746BDF830200092C1EB0308B8F1FC
:400A8000000FB8BFC8F10008C0EB0709B9F1000FB8BFC9F10009C84504DD3A461F4613460D460646BD4205DD32461E4613462A463D461746C5EB070B1FFA8BFB0FFA8BF427
:400AC000C6EB030ABAF1000FB8BFCAF1000A04EBD47464109E4202DA012301931EE04FF0FF3301931AE0C84505DD009A29463046FFF7AEFF04E0009A31462846FFF7A8FF15
:400B0000CAEB0404A3B21CB2002C05DA019A164436B20BEB030424B201352DB2BD42E2DD03B0BDE8F08F00BF00B583B00244013A00930B4612B2FFF797FF03B05DF804FB0D
:400B400000B583B00A44013A009313B20246FFF78BFF03B05DF804FB10B582B0BDF8104090420BD1994202DD0A46194613465A1A0132234612B2FFF7E3FF10E099420BD11E
:400B8000904202DD034610461A46121A0132234612B2FFF7C9FF02E00094FFF765FF02B010BD00BF2DE9F04F87B00390049115469B46BDF84430059393B2C3F101073FB28A
:400BC000C3EBC3335E0036B2BDF9403001339BB2029301924FF00009012466E0002F06DB013D2DB20236B3B21EB21F443FB21FFA89FA0AF101081FFA88F80FFA88F90234A2
:400C0000A3B21CB21F443FB26B1C994523DA1BF0010F0ED0A9B2029B03EB4102049B591A039B08EB0300059B12B209B200B2FFF787FF1BF0020F0ED0A9B2029B03EB4102A3
:400C4000049B591A039BC8EB0300059B12B209B200B2FFF775FF019B9D4226D01BF0010F0ED0029B03EB4A02049BCAEB0301039B01981818059B12B209B200B2FFF760FFAD
:400C80001BF0020F10D0029B03EB4A02049BCAEB0301039B0198181A059B12B209B200B2FFF74EFF019500E00195A94596DB07B0BDE8F08FF0B583B006460C4615461F4610
:400CC00091B24A000132611A12B209B2FFF738FF01970023009303232A4621463046FFF761FF03B0F0BD00BF2DE9F04F85B002AF8246884616461D46B7F83490BC6BB7F8FE
:400D000030E0CDF800E0FFF737FE06EBD67E0AEB6E0E05EBD57508EB6508002201E0013201342378002BFAD102F1080323F00703ADEB030D02AB1D46A41A002103E014F8E6
:400D4000010B685401318A42F9DC00219954C2EBC201B1420CDA01EBD171AEEB6100012200924A4608F1FF31033000F093FF5DE0B1425BDD2F4C84FB06343444F617C6EB64
:400D8000A40424B2013C00E0013C2B5D202BFBD104F1010BC7F804D004F1080323F00703ADEB030D02AB9C46121B511C396002F1080121F00701ADEB010D0DF1080A504640
:400DC000002603E0A95D0CF806100136B442F9DC002104E066180136AE5D465401319142F8DB002119550AF802103A68541ECBEBCB0B0BEBDB7BAEEB6B00C4EBC40404EB98
:400E0000D474AEEB64040434012500954A4608F10301053000F03EFF009553464A46A8F10501204600F036FFD7F804D00C37BD46BDE8F08F932449922DE9F0418AB0064633
:400E400088460020FFF7AEFD304605F0F1FF02460B460020594906F07BF906F0E9FA07464FF6FF7400940A23DC2219461E20FFF773FE0094C9231E220A211046FFF76CFE81
:400E80004F4B1B68BD2595FBF3F518F0010F12D1012400944B4B4FF6FF720421E62000F0F9FE0094484B4FF6FF72D921032000F0F1FE012431E001240094444B4FF6FF729C
:400EC0000421E62000F0E6FE0094414B4FF6FF72D921032000F0DEFEEBE73E4907A807F01BF83D4B1B68012B0BD104FB07F10A3109B24FF6FF7300930B46DC221E20FFF755
:400F00002BFE07FB04F10123009307AB4FF6FF720A31032000F0BEFE013404EB84029642DBDA012420E022462C4906A806F0F4FF294B1B68012B0BD104FB05F01E3000B2A5
:400F40004FF6FF730093CA2302460A21FFF704FE05FB04F00123009306AB4FF6FF7204211E3000F097FE0134BD2393FBF5F39C42D9DD1B4B93E8030004908DF8141004ABD6
:400F80000293002401944FF4784300931E233C22D1218220FFF7A8FE124B029301944FF6FF7300931E234F22D121F120FFF79CFE02220D4B1A600AB0BDE8F08100008E40D9
:400FC000CC80FF1F7098000078980000849800008C9800004C970000E480FF1F98980000A49800009C980000CC81FF1F30B585B00024314B1C601F230093F023A022214678
:401000002046FFF7B9FC4FF478430093F023A02221461046FFF7B0FC0094F023022221469F20FFF7A9FC009402234FF4A07277212046FFF7A1FC00941623FC226D212120F5
:40104000FFF79AFC1D4B029301944FF6FF7300931223F8226F212320FFF746FE184B0293019449F69F65009563238B220A210846FFF73AFE134B02930194009563238B221D
:4010800083210A20FFF730FE0F4B029301944FF6F345009563238B220A21AB20FFF724FE0A4B02930194009563238B228321AB20FFF71AFE05B030BDCC81FF1FAC98000052
:4010C000C8980000D4980000DC980000E898000070B59CB00122414B1A6017AC404D0FCD0FC42B6824F8023B1B0C23703D4B13AE0FCB86E80F003C4B0FAC0FCB07C42370D7
:401100000AAC3A4D0FCD0FC42B682370384B93E803000890ADF82410090C8DF82610354A05AB07CA03C31A7017AB02930024019449F69F65009577231A4621462046FFF766
:40114000D3FD029601944FF6F346009677231A4679212046FFF7C8FD0FAB02930194009677231A4621467920FFF7BEFD0AAB02930194009577231A4679210846FFF7B4FD87
:4011800008AB029301944FF6FF75009577234F222146F120FFF7A8FD05AB02930194009577234F227921F120FFF79EFD0094F023022221467720FFF7DFFB009402234FF49B
:4011C000A07277212046FFF7D7FB0094F02302222146EF20FFF7D0FB1CB070BDCC81FF1FF0980000049900001499000024990000389900004099000070B598B008223F4B57
:401200001A603F4B15AE93E8070086E807000FAC3C4D0FCD0FC495E8030044F8040B218009AC394D0FCD0FC495E8030044F8040B2180364B93E803000790ADF82010090CBB
:401240008DF82210324A04AB07CA03C31A7002960024019449F69F65009577231A4621462046FFF741FD0FAB029301944FF6F343009377231A4679212046FFF735FD09AB7F
:4012800002930194009577231A4679210846FFF72BFD4FF6FF75009577231A4621467920FFF76AFB07AB02930194009577234F222146F120FFF718FD04AB0293019400955F
:4012C00077234F227921F120FFF70EFD0094F023022221467720FFF74FFB009402234FF4A07277212046FFF747FB0094F02302222146EF20FFF740FB18B070BDCC81FF1F18
:401300004C9900005899000070990000389900004099000070B586B00322374B1A600020FFF740FB354B0293002401944FF6FF7500951423EF22DB212046FFF7D5FC304B4F
:401340000293019400953223462296215020FFF7CBFC2C4B0293019400953223462250210846FFF7C1FC284B029301940095322346220A215020FFF7B7FC244B02930194DC
:401380000095322346229621A020FFF7ADFC204B029301940095322346225021A020FFF7A3FC1C4B029301940095322346220A21A020FFF799FC0A2205A9174B186806F00D
:4013C000C2F80226009605AB2A466921142000F061FC124B029301940095F0234F222146F120FFF781FC0094F02332462146EF20FFF7C2FA06B070BDCC81FF1F8899000009
:40140000A4990000AC990000B4990000C0990000C8990000D4990000D880FF1F38990000F0B58DB00422434B1A600020FFF7BAFA414B0293002601964FF6FF77009714232E
:40144000EF22DB213046FFF74FFC05AC3B4D0FCD0FC495E8070003C4227005AB0293019600970A23EF22AA213046FFF73DFC344B1B68012B16D1334B0293019649F69F63C2
:4014800000933223502264211E20FFF72DFC2E4B0293019600973223502264218220FFF723FC31E0CBB9274B0293002401944FF6FF7300933223502264211E20FFF714FC82
:4014C000214B0293019449F69F6300933223502264218220FFF708FC16E01A4B0293002501954FF6FF7400943223502264211046FFF7FAFB144B0293019500943223502231
:4015000064218220FFF7F0FB104B0293002401944FF6FF730093F0234F222146F120FFF7E3FB0094F02302222146EF20FFF724FA0DB0F0BDCC81FF1F04990000E899000098
:40154000DC80FF1FE0990000E49900003899000030B587B00522234B1A600020FFF722FA214B0293002401944FF6FF7500951423EF22DB212046FFF7B7FB1C4B02930194E2
:40158000009546231A461E218220FFF7ADFB184B02930194009546231A4678218220FFF7A3FB0A2205A9134B186805F0CCFF0323009305AB2A466921322000F06BFB0E4BB8
:4015C000029301940095F0234F222146F120FFF78BFB0094F02302222146EF20FFF7CCF907B030BDCC81FF1F049A0000209A00002C9A0000E080FF1F38990000F0B58FB058
:401600000622434B1A600020FFF7CCF9414B0293002601964FF6FF7700971423EF22DB213046FFF761FB05AC3B4D0FCD0FC40FCD0FC42B68236005AB02930196009714230C
:40164000EF22AA213046FFF74FFB344B1B68012B16D1334B0293019649F69F6300933223502264211E20FFF73FFB2E4B0293019600973223502264218220FFF735FB31E02A
:40168000CBB9274B0293002401944FF6FF7300933223502264211E20FFF726FB214B0293019449F69F6300933223502264218220FFF71AFB16E01A4B0293002501954FF6A8
:4016C000FF7400943223502264211046FFF70CFB144B0293019500943223502264218220FFF702FB104B0293002401944FF6FF730093F0234F222146F120FFF7F5FA0094DD
:40170000F02302222146EF20FFF736F90FB0F0BDCC81FF1F389A0000589A0000E480FF1FE0990000E49900003899000030B585B00922554B1A600020FFF734F9534B02931E
:40174000002401944FF6FF7500951423EF22DB212046FFF7C9FA4E4B029301940095322346220F212820FFF7BFFA4A4B029301940095322346220F218220FFF7B5FA464BAA
:401780000293019400953223462255212820FFF7ABFA424B0293019400953223462255218220FFF7A1FA3E4B029301940095322346229B215520FFF797FA3A4B1B680A2BA8
:4017C0004CD8DFE803F00614224B4B304B4B4B4B3E00334B02930023019349F69F630093322346229B215520FFF77EFA36E02A4B02930023019349F69F630093322346223D
:4018000055212820FFF770FA28E0244B02930023019349F69F6300933223462255218220FFF762FA1AE01A4B02930023019349F69F630093322346220F212820FFF754FAD4
:401840000CE0144B02930023019349F69F630093322346220F218220FFF746FA124B0293002401944FF6FF730093F0234F222146F120FFF739FA0094F02302222146EF20DD
:40188000FFF77AF805B030BDCC81FF1F7C9A0000B09A0000B49A0000B89A0000BC9A0000C09A0000D881FF1F3899000070B586B00A26234B1E600020FFF774F8214B0293C1
:4018C000002401944FF6FF7500951423EF22DB212046FFF709FA1C4B02930194009546231A461E218220FFF7FFF9184B02930194009546231A4678218220FFF7F5F93246FE
:4019000005A9134B186805F01EFE0323009305AB2A466921322000F0BDF90E4B029301940095F0234F222146F120FFF7DDF90094F02302222146EF20FFF71EF806B070BD9F
:40194000CC81FF1FCC9A0000209A00002C9A0000CC80FF1F38990000F0B58FB04FF6FF70FFF720F8974C0723236001250095964B0022E621052000F08DF90095934B0022B0
:40198000DE21052000F086F94BF605436E2277219F20FFF78FF92368072B40F010814FF6FF73009313235022DC210020FEF7E4FF0095874B0022E621052000F06BF90095A3
:4019C000844B0022DE21052000F064F94BF265135F2277219F20FFF76DF97A4B1B68072B40F0ED804FF6FF73009313235022DC210020FEF7C1FF0095774B0022E62105201C
:401A000000F048F90095754B0022DE21052000F041F94EF2C9635A2277219F20FFF74AF9684B1B68072B40F0CA804FF6FF73009313235022DC210020FEF79EFF0095684B6D
:401A40000022E621052000F025F90095654B0022DE21052000F01EF94BF265130A2254218220FFF727F9574B1B68072B40F0A7804BF265130A2294217320FFF71BF94BF24C
:401A800065130A228421B820FFF714F94BF265130A2271215C20FFF70DF94BF265130A226221CD20FFF706F94BF265130A2274219420FFF7FFF84BF265130A224421B8209C
:401AC000FFF7F8F84BF265130A2236219920FFF7F1F84BF265130A22BD21AE20FFF7EAF84BF265130A22A8218C20FFF7E3F84BF265130A229A21D020FFF7DCF84FF6FF7397
:401B0000009313235022DC210020FEF735FF02AC354D0FCD0FC40FCD0FC495E80F0084E80F00324B1B68324A106800FB03F006F091F94FF47A7706F0B5F92E4A80FB02233D
:401B4000C418C317C3EBE414C4EBC40404EB4414041B06F0A7F9284B83FB0023C617C6EB6316EC2303FB160606F09CF9234D054003D5013D65F00305013506F093F9204B7C
:401B800083FB0032C317C3EB620303EB43039A00831A0EAA02EB830353F8302C0095194B3146204600F076F8384601F0DBFA0A3F002F00DC0127034B1B68072BBBD00FB00A
:401BC000F0BD00BFCC81FF1FE09A0000E89A0000F09A0000FC9A0000049B00000C9B0000149B00001C9B000040980000D081FF1FD481FF1F0352DA8DBF3CB622030000807A
:401C0000ABAAAA2A289B00002DE9F04782B092469DF828500026012206E01D4CA45C224492B2013292B201369E42F6DB013296B24FEA4509C9EB01010FB2C9EB00000FFA7D
:401C400080F94FF000081DE0A3190133104AD05C691ECDF800A02B462A4601FB087105FB0090FEF789FE013400E00024084B9B5D9C42E9DB01373FB21E44B6B20136B6B22B
:401C800008F10108B8F1060FEFDD02B0BDE8F087349B00002DE9F04383B081460F4690461E469DF828506B1EDBB2072B00D901254C467AE1203B3A2B00F26C81DFE813F07F
:401CC00063016A016A016A016A016A016A016A016A016A016A016A016A016A015B016A013B0043004B0053005B0063006B0073007B0083006A016A016A016A016A016A0112
:401D00006A018B0093009B00A300AB00B300BB00C300CB00D300DB00E300EB00F300FB0003010B0113011B0123012B0133013B0143014B01530100950023424639462046C2
:401D4000FFF762FF26E100950123424639462046FFF75AFF1EE100950223424639462046FFF752FF16E100950323424639462046FFF74AFF0EE100950423424639462046AD
:401D8000FFF742FF06E100950523424639462046FFF73AFFFEE000950623424639462046FFF732FFF6E000950723424639462046FFF72AFFEEE00095082342463946204660
:401DC000FFF722FFE6E000950923424639462046FFF71AFFDEE000950A23424639462046FFF712FFD6E000950B23424639462046FFF70AFFCEE000950C2342463946204611
:401E0000FFF702FFC6E000950D23424639462046FFF7FAFEBEE000950E23424639462046FFF7F2FEB6E000950F23424639462046FFF7EAFEAEE000951023424639462046C3
:401E4000FFF7E2FEA6E000951123424639462046FFF7DAFE9EE000951223424639462046FFF7D2FE96E000951323424639462046FFF7CAFE8EE00095142342463946204674
:401E8000FFF7C2FE86E000951523424639462046FFF7BAFE7EE000951623424639462046FFF7B2FE76E000951723424639462046FFF7AAFE6EE00095182342463946204624
:401EC000FFF7A2FE66E000951923424639462046FFF79AFE5EE000951A23424639462046FFF792FE56E000951B23424639462046FFF78AFE4EE000951C23424639462046D4
:401F0000FFF782FE46E000951D23424639462046FFF77AFE3EE000951E23424639462046FFF772FE36E000951F23424639462046FFF76AFE2EE00095202342463946204683
:401F4000FFF762FE26E000952123424639462046FFF75AFE1EE000952223424639462046FFF752FE16E000952323424639462046FFF74AFE0EE00095242342463946204633
:401F8000FFF742FE06E000952523424639462046FFF73AFEC5EBC5031C4424B2B4F59E7F02DD093F3FB24C4601363378002B7FF481AE03B0BDE8F08338B50D46074902F073
:401FC000FDF90446284605F0DAFF02462946204602F006FB204602F02BF938BD849E000038B50D46074902F0E9F90446284605F0C6FF02462946204602F0F2FA204602F099
:4020000017F938BD889E00002DE9F043A1B006460F46914698463F4B1B68ADF878301B0C8DF87A303C4B1A889B78ADF87B208DF87D303A4B1C9303F1FF2303F571031D93C1
:4020400003F5602303F580631A93354B1B68ADF86C301B0C8DF86E300AAC324D0FCD0FC40FCD0FC40FCD0FC495E8030044F8040B24F8021B090C2170B9F1000F17D10AA98F
:402080003046FFF799FF284B1A68284901A805F043FF01A93046FFF7A3FF254B1A68254901A805F039FF01A93046FFF799FF7C08A7001AABD9193046FFF792FF1E4930467E
:4020C000FFF78EFF08EBC908D8E900231B4918A805F022FF18A93046FFF782FF184D29463046FFF77DFF04EB44011EAB19443046FFF776FF13493046FFF772FF1CABD919E4
:402100003046FFF76DFF29463046FFF769FF21B0BDE8F083D89E0000DC9E0000566473008C9E0000E09E0000D880FF1F909E0000D881FF1FA89E0000C49E0000C89E0000AD
:40214000D09E0000D49E00002DE9D04384B0044616461F469DF828009DF82C30012B11D804F066FE0022224B04F0C8FE1EA3D3E9002304F0C3FE00221E4B04F0BFFE80465C
:40218000894610E004F054FE0022194B04F0B6FE15A3D3E9002304F0B1FE0022164B04F0ADFE8046894632463B46144901A805F0B3FE01A92046FFF713FF11492046FFF788
:4021C0000FFF42464B460F4901A805F0A5FE01A92046FFF705FF0C492046FFF701FF04B0BDE8D083AFF30080FCA9F1D24D6210400000703F0000084000001040189F000031
:40220000D49E00001C9F0000D09E00000000000030B587B004460D46A74B1B680A2B00F23C85DFE813F00B005D009C00BE00C70122028302E002EB021D038904A0F12303BD
:402240009BB2F82B07D86E2905D9812903D80722994B1A603CE0A4F10A039BB28B2B0BD8092D09D96D2D07D8944B09221A6000225A60FEF72DFF2BE08B2B0BD8822D09D9A3
:40228000E62D07D88D4B09221A6001225A60FEF71FFF1DE0A4F1AB039BB28B2B0BD8092D09D96D2D07D8854B0C221A6002225A60FEF70EFF0CE08B2B0AD8822D08D9E62D89
:4022C00006D87E4B0C221A6003225A60FEF700FF794B5C609D60BC22784B9A6000F0DDBC772805D8772903D8FFF714F800F0D5BC772C07D8782D05D9EF2D03D8FFF790F827
:4023000000F0CBBCA4F179039BB2772B05D8772D03D8FEF771FF00F0C0BC772B07D8782D05D9EF2D03D8FFF713F900F0B6BCF13CA4B24E2C05D8772D03D8FEF757FE00F007
:40234000ACBC4E2C00F2A984782D40F2A684EF2D00F2A3840222584B1A6000F09EBCA0F182039BB23C2B08D8D02906D9EF2904D80122514B1A6000F090BCF13CA4B24E2CB3
:4023800000F28B84D02D40F28884EF2D00F285840022494B1A604FF0FF32484B5A6000F07CBCA0F1F1039BB24E2B05D8EF2903D8FEF78EFE00F071BCA4F150039BB2462B56
:4023C00027D8952D25D9C82D23D83C4AD3680133D360B3F57A7F03DD4FF47A72374BDA60002300931E233C225F210A20FEF7C4FA0A2205A9314BD86805F0A5F80223009308
:4024000005AB4FF6FF7269211420FFF743FC00F044BC462B27D84F2D25D9822D23D8274AD3680A33D360B3F57A7F03DD4FF47A72224BDA60002300931E233C225F210A204D
:40244000FEF79AFA0A2205A91C4BD86805F07BF80223009305AB4FF6FF7269211420FFF719FC00F01ABC462B2AD8092D28D93C2D26D8124AD3686433D360B3F57A7F03DD4A
:402480004FF47A720D4BDA60002300931E233C225F210A20FEF770FA0A2205A9074BD86805F051F80223009305AB4FF6FF7269211420FFF7EFFBF0E3CC81FF1FCC80FF1FEF
:4024C000A03CA4B2462C24D8952D22D9C82D20D8AE4AD368013BD360002B02DC0122AB4BDA60002300931E233C225F210A20FEF743FA0A2205A9A54BD86805F024F8022323
:40250000009305AB4FF6FF7269211420FFF7C2FBC3E3462C24D84F2D22D9822D20D89B4AD3680A3BD360002B02DC0122974BDA60002300931E233C225F210A20FEF71CFA15
:402540000A2205A9914BD86804F0FDFF0223009305AB4FF6FF7269211420FFF79BFB9CE3462C00F29A83092D40F297833C2D00F29483864AD368643BD360002B02DC012210
:40258000824BDA60002300931E233C225F210A20FEF7F2F90A2205A97C4BD86804F0D3FF0223009305AB4FF6FF7269211420FFF771FB72E3A0F1F1039BB24E2B04D8EF29BC
:4025C00002D8FEF785FD68E3A4F11E039BB2502B22D8632D20D9962D1ED86D4B02930024019449F69F6300933223502264211E20FEF77AFB674B029301944FF6FF73009391
:402600003223502264218220FEF76EFB01225F4B1A6101F0BDFC40E3823CA4B2502C00F23C83632D40F23983962D00F23683584B0293002401944FF6FF730093322350220A
:4026400064211E20FEF750FB524B0293019449F69F6300933223502264218220FEF744FB01F092FC494B1C6117E3A0F1F1039BB24E2B04D8EF2902D8FEF72AFD0DE3823C2D
:40268000A4B2462C26D81D2D24D9642D22D83F4B5B69012B03DD013B3C4A536102E001223A4B5A61002300931E233C225F212820FEF762F90A2205A9344B586904F043FFB0
:4026C0000323009305AB4FF6FF7269213220FFF7E1FAE2E2462C00F2E082772D40F2DD82BE2D00F2DA82294B5B69052B03DC0133264A536102E00622244B5A61002300938D
:402700001E233C225F212820FEF736F90A2205A91E4B586904F017FF0323009305AB4FF6FF7269213220FFF7B5FAB6E2A0F1F1039BB24E2B04D8EF2902D8FEF75DFDACE2D2
:40274000A4F11E039BB2502B26D8632D24D9962D22D80F4B02930024019449F69F6300933223502264211E20FEF7BEFA094B029301944FF6FF73009332235022642182202A
:40278000FEF7B2FA0122014B9A6186E2CC80FF1FE0990000E4990000823CA4B2502C00F27C82632D40F27982962D00F27682964B0293002401944FF6FF730093322350221C
:4027C00064211E20FEF790FA904B0293019449F69F6300933223502264218220FEF784FA8B4B9C6159E2B0F5A07F80F05682EF2900F253820022874B1A604EE2772804D84B
:40280000772902D8FFF752F847E2772C06D8782D04D9EF2D02D8FEF7F1FE3EE2A4F179039BB2772B06D8782D04D9EF2D02D8FEF77DFF32E2F13CA4B24E2C04D8772D02D886
:40284000FEF746FC29E24E2C00F22782782D40F22482EF2D00F2218202226E4B1A601CE2A0F1F1039BB24E2B04D8EF2902D8FEF7C3FC12E2A4F128039BB2462B3ED80E2DEE
:402880003CD9412D3AD80522624BDA60624B02930024019449F69F630093322346220F212820FEF721FA5D4B029301944FF6FF750095322346220F218220FEF715FA584B0B
:4028C0000293019400953223462255212820FEF70BFA544B0293019400953223462255218220FEF701FA504B029301940095322346229B215520FEF7F7F9CEE1A4F182028C
:4029000092B2462A3ED80E2D3CD9412D3AD80A22404BDA60404B0293002401944FF6FF750095322346220F212820FEF7DDF93B4B0293019449F69F630093322346220F2174
:402940008220FEF7D1F9364B0293019400953223462255212820FEF7C7F9324B0293019400953223462255218220FEF7BDF92E4B029301940095322346229B215520FEF7AF
:40298000B3F98AE1462B51D8542D4FD9872D4DD80122204BDA60204B0293002401944FF6FF750095322346220F212820FEF79CF91A4B029301940095322346220F218220A3
:4029C000FEF792F9164B0293019449F69F6300933223462255212820FEF786F9114B0293019400953223462255218220FEF77CF90D4B029301940095322346229B215520AA
:402A0000FEF772F949E100BFE0990000E4990000CC80FF1FCC81FF1FB09A0000B49A0000B89A0000BC9A0000C09A0000462A3ED8542D3CD9872D3AD802229D4BDA609D4BD8
:402A40000293002401944FF6FF750095322346220F212820FEF748F9974B029301940095322346220F218220FEF73EF9934B0293019400953223462255212820FEF734F9B9
:402A80008F4B0293019449F69F6300933223462255218220FEF728F98A4B029301940095322346229B215520FEF71EF9F5E0553CA4B2462C00F2F1809A2D40F2EE80CD2DD3
:402AC00000F2EB8000247A4BDC607A4B029301944FF6FF750095322346220F212820FEF703F9754B029301940095322346220F218220FEF7F9F8714B02930194009532232D
:402B0000462255212820FEF7EFF86D4B0293019400953223462255218220FEF7E5F8694B0293019449F69F630093322346229B215520FEF7D9F8B0E0A0F1F1039BB24E2B34
:402B400004D8EF2902D8FEF757FB79E0823CA4B2462C26D81D2D24D9642D22D85A4B1B68032B03DD013B584A136002E00322564B1A60002300931E233C225F212820FDF7D7
:402B8000FBFE0A2205A9504B186804F0DCFC0323009305AB4FF6FF7269213220FFF77AF84EE0462C4CD8772D4AD9BE2D48D8464B5B68012B22DC444B1B68082B03DC01338C
:402BC000414A136002E009223F4B1A60002300931E233C225F212820FDF7CEFE0A2205A9394B186804F0AFFC0323009305AB4FF6FF7269213220FFF74DF821E0324B1B6835
:402C00000B2B03DC0133304A136002E00C222E4B1A60002300931E233C225F212820FDF7ABFE0A2205A9284B186804F08CFC0323009305AB4FF6FF7269213220FFF72AF845
:402C4000214B5B68012B14DC1F4C206804F0F0F800221E4B04F052F904F0EAFB04F0E8F80FA3D3E9002304F073FA04F0E1FBA06013E0154C206804F0DBF80022134B04F0EA
:402C80003DF904F0D5FB04F0D3F807A3D3E9002304F05EFA04F0CCFBA06007B030BD00BFFA7E6ABC74932840FCA9F1D24D623040CC81FF1FB09A0000B49A0000B89A00007F
:402CC000BC9A0000C09A0000CC80FF1F00007040FEE700BFF0B40022174611E050F82760F3B226F0FF0608E001EB420511F812406D78A5550132013BDBB2002BF4D101374A
:402D0000172FEBD9F0BC704708B50A46002104F027FC08BDF8B5164B1B78DBB2154E3478E4B2154F3D78EDB203F00701134A11701B090132137044F00303337045F00303C6
:402D40003B7080220E4B1A70012103F5C173197020230C490B7090310A700B4A13700A2000F016FA3D7034704422084B1A70F8BDCF010049F8460040F94600406E58004097
:402D800009590040985A00402B5B00407658004008B504F0DAFB08BD38B500242E4B1C8058232E4A1370023214800232137004222B492C48FFF7ECFF02222B4B1A700822C8
:402DC0004FF040231A70032103F500731970274B1B78DBB226490B70264B1A8041F25122023B1A8019250CE0234B1B7803F0010343EA440404F003044FF4F07001F0E8F885
:402E0000013D0DB1032CEFD115B90320FFF760FF1A4B4FF480721A8007221A70002218490A704820023108701A700222033B1A7004220A331A70134A137843F00303137063
:402E4000013A137843F001031370013A137843F08003137038BD00BF8040004082400040D4050048004100400043004008010049A1460040224200402542004004400040B0
:402E800006400040A2430040012807D8044B53F820201844017A13780B431370704700BF209F0000012808D8044B53F820201844017A137823EA010313707047209F0000CE
:402EC000012808D8044B03EB8002D2681844017D13780B4313707047209F0000012809D8054B03EB8002D2681844017D137823EA01031370704700BF209F0000012809D8E8
:402F0000054B03EB80029269184490F8201013780B431370704700BF209F000001280AD8054B03EB80029269184490F82010137823EA010313707047209F000038B572B6AD
:402F4000374A137843F00403137000240BE0354863001A19510001440A46098D506AFFF7D3FE0134E4B2082CF1D900240BE02D49A3001819420088188022016EC06DFFF731
:402F800007FF0134E4B2002CF1D027494FF09040FFF7A0FE254A137843F0020313701032137843F002031370214C237843F040032370A2F58632513A137843F010031370C4
:402FC00008221C491C48FFF7E3FE08221B491C48FFF7DEFE08221B491B48FFF7D9FE08221A491B48FFF7D4FE08221A491A48FFF7CFFE1A4A137843F008031370184D612382
:403000002B70FFF7C9FE81232B700122154B1A70FFF780FE0E2221461348FFF7B9FE38BDE8460040209F00006000004803500140A0430040AC05004802510040B4050048CB
:40304000C2510040BC050048F2510040C405004812510040CC05004832510040224300400048004004000840B043004008B504F027FA03680C2B00D1FEE7FEE708B5094B15
:403080001A681044084BC31AB3F5805F02DC054B186005E004F014FA0C2303604FF0FF32104608BDE880FF1FB892FF1F08B5104E104D16E029686B68AC68002204E051F8B6
:4030C000040B43F8040B0432A242F8D1E868002203E0002143F8041B04328242F9D11035013E002EE6D104F0F1F9FDF79DF9FEE70100000058A2000008B5104A104B1A6063
:40310000104A136843F40073136000230AE0032B03D80D4A52F8231000E00C490C4A42F8231001332F2BF2D90A4B1A780A4B1A70074A0A4B1A60FFF701FF08BD0004FA05BE
:403140000CED00E014ED00E0000000006D3000000080FF1FBC760040C080FF1F08ED00E001BE704710B5044605E0084B186800F02FFFA4F50044B4F5004FF6D8034B5868A9
:4031800000FB04F000F024FF10BD00BFEC80FF1F08B5034B1B7A00FB03F000F019FF08BDEC80FF1F70B504460E46074B1D681F2802D90020FFF7D4FF04F01F04103455F8C5
:4031C000240045F8246070BD08ED00E038B504460D46072902D90020FFF7C2FF1F2C02D90020FFF7BDFF04F01F0000F1604000F564406D01EDB2057038BD00BF044A137838
:4032000003F0FD03400000F0020018431070704700510040024B1878C0F34000704700BF01510040044A137803F0FE0300F0010018431070704700BF00510040044A1378F5
:4032400003F0DF03400100F02000184310707047F0510040054A137843F0020313701032137843F002031370704700BFA243004008B500F0B5FE094A137843F02003137046
:403280000232137843F0100313700432137843F01003137000F0A8FE08BD00BF90640040014B1878704700BF62640040014B1878704700BF66640040034B1B7813F0040F03
:4032C000FAD0024B18707047626400404164004008B501E00A4B1B780A4B1B7813F0200FF8D100F07DFE084B1A7842F001021A701A7802F0FE021A7000F076FE08BD00BF1F
:4033000051640040666400409164004008B50F22064B1A70FFF7DCFFFFF7C2FFFFF7C6FF0023034A13700432137008BD806400408264004008B5054B1B7823B9FFF7E6FF3B
:403340000122024B1A70FFF793FF08BDDC81FF1F054A137843F0080313701032137843F008031370704700BFA8430040054B1A7802F0FD021A701A7800F002001043187005
:40338000704700BF2C580040014B1870704700BF835B0040064B1B78C3F3810303F19243063393F83831DBB2024A1370704700BF2C5800400B46004008B5064B1A7802F09E
:4033C000F3021A701A7800F00C0010431870FFF7E1FF08BD2C58004010B50024054B1C7001331C700420FFF7E7FF2046FFF7BEFF10BD00BF2C58004008B5074B1B7823B91A
:40340000FFF7EAFF0122044B1A70FFF7A1FF6420FFF7BAFF08BD00BFDD81FF1F054A137843F0020313701032137843F002031370704700BFA8430040054B1A7802F0FD0257
:403440001A701A7800F0020010431870704700BF24580040014B1870704700BF815B0040064B1B78C3F3810303F19243063393F83031DBB2024A1370704700BF2458004031
:403480000946004008B5064B1A7802F0F3021A701A7800F00C0010431870FFF7E1FF08BD2458004010B50024054B1C7001331C700420FFF7E7FF2046FFF7BEFF10BD00BF82
:4034C0002458004008B5074B1B7823B9FFF7EAFF0122044B1A70FFF7A1FF6420FFF7BAFF08BD00BFDE81FF1F08B50A280FD00C2802D0082806D102E04FF4805209E04FF4EF
:40350000807206E00020FFF72BFE002201E04FF480620021084B198042F2107303FB02F313F5806301D503F2FF73DB12034A13600022034B1A8008BD1092FF1F1492FF1F6D
:403540001292FF1F10B500F04BFD04461E4A137843F0020313701032137843F0020313701A3A137843F0010313701032137843F00103137002F5AA521A32137843F00303E9
:4035800013701822114B1A70013B1A7842F040021A701A7802F0FC021A70CE22053B1A700222A3F59753123B1A70094A137843F0080313700A20FFF7EBFD0122054B1A60C5
:4035C000204600F011FD10BDAB4300400E5900402F5B004080E200E008B500F001FD0F4A137803F0FE031370A2F5AA521D3A137803F0FD0313701032137803F0FD03137085
:403600001A3A137803F0FE0313701032137803F0FE03137000F0E8FC08BD00BF0859004010B504460A280DD00C2802D0082804D101E0C22207E0422205E00020FFF790FD36
:40364000C22200E08222034B1A702046FFF74CFF10BD00BF0A59004008B5102000F0BCF807210020FFF7B2FD07490020FFF79AFD064A137843F0060313700C20FFF7D0FF2E
:403680000022034B1A8008BD75370000095900401892FF1F08B5054B1B7823B9FFF7DCFF0122024B1A70FFF74DFF08BDDF81FF1F044B1A7802F0FB021A701A7842F0010238
:4036C0001A70704708590040044B1A7802F0FE021A701A7842F004021A7070470859004010B5074B1B7813F0010401D10028F8D024B10120FFF74CFD014B1B78204610BD24
:4037000009590040034B188880B2034B1B88C01A00B27047A25B00401292FF1F10B4124B1B881BB233B1104B1B881BB203EB83035C0001E00D4B1C680D4B1988411A09B2B8
:4037400042F2107303FB01F2002903DD04EBD470401003E004EBD47040104042831893FBF4F000B210BC70471092FF1F1492FF1F1892FF1F704700BF08B50C4B1B7813F07F
:40378000020F0ED00A4B1B7813F0010F03D00322084B1A7002E00122064B1A70FFF71CFF08BD0022034B1A7008BD00BFAB43004008590040E081FF1F08B5064B1B7843B133
:4037C000FFF7C0FE034B1B7813F0020F01D0FFF76FFF08BDE081FF1F034B1A7800F0F80010431870704700BF0241004038B50222114B1A7081220E3B1A70082202331A70B5
:403800000F2511331D70002401331C704FF400420A4B1A6007212846FFF7D8FC08492846FFF7C0FC1022074B1A70074B1C70074B1C70074B1C7038BDD649004080E100E03D
:40384000553900001A92FF1F1E92FF1F2692FF1F1C92FF1F08B500F0C3FB064A137843F0040313701032137843F00403137000F0BBFB08BDA543004008B5074B1B7823B9E2
:40388000FFF7B4FF0122044B1A70FFF7E3FF4FF40042024B1A6008BDE181FF1F00E100E02DE9F8434FF40049214BC3F80090DFF8A08098F800301F4CE3701F4F3B7823717B
:4038C0001E4E3378637130783B7843EA002001301B4D2B7803F0FE032B7080B200F078FB00F07EFB174A137803F0FB0313701032137803F0FB03137000F076FB2B7843F094
:4039000002032B70E37888F80030E37888F8003023793B70637933702B7803F0EF032B70094BC3F800901022084B1A70BDE8F88380E100E0FC80FF1FDB490040DC49004076
:40394000D6490040A543004080E200E01A92FF1FCA49004038B5A54B1C78A54B1B7813F0400F00F03A81E4B214F0010F00F01D819F4B1B78453B052B00F21481DFE813F0BA
:4039800006008200120112010600DF0004F0DF0504F00A04082C42D1954B1B78DBB2452B35D1944B1B7813F0FF0F10D0924B1B681B78DBB2914A137004228C4B1A700122F2
:4039C0008F4B1A7046228A4B1A702C46EDE08D4B1B7813F0020F0DD08B4A137843F00A0313706022824B1A704FF40042874B1A602C46DAE0864A137843F0100313701022B2
:403A0000844B1A700422023B1A702C46CDE00022764B1A704A22764B1A702C46C5E00A2C2BD1794A137843F0A0031370754B1B7813F0020F14D06E4B1B7813F0080F01D08B
:403A4000092300E00A23704A11780B4313706022674B1A704FF400426C4B1A602C46A4E06B4A137843F0100313701022694B1A700422023B1A702C4697E00020FFF770FBBF
:403A80002C4692E014F0020F36D15D4B1A78D2B2584B1B78DBB29A4210D2594A1378DBB255490968CB5CDBB254490B7004214F4B197013780133DBB2137076E0514B1B7895
:403AC00013F0020F0CD0504A137843F00A0313706022474B1A704FF400424C4B1A6064E04B4A137843F0100313701022494B1A700422023B1A7058E0424B1B7813F0020FE4
:403B00000CD0414A137843F09A0313706022384B1A704FF400423D4B1A6046E03C4A137843F01003137010223A4B1A700422023B1A70354A137843F09003137035E0364A14
:403B40001378DBB2354908682C490978C9B2C15413780133DBB213701278D2B2304B1B78DBB29A4203D21022204B1A701DE0254B1B7813F0020F0CD0234A137843F0090342
:403B8000137060221A4B1A704FF400421F4B1A600BE01F4A137843F0100313700022134B1A7002E00020FFF7DBFA14F0200F1CD00F4B1B7813F0080F01D0012300E0022309
:403BC000114A11780B431370114A137803F0EF0313701022064B1A7038BD054B1B7813F0100F02D11022024B1A7038BDD74900401A92FF1F1D92FF1F2892FF1FD8490040BA
:403C00001C92FF1F2492FF1F1E92FF1F80E100E0D6490040D94900402692FF1F2092FF1F2592FF1F1A4B1B78DBB2102B29D1194B1B7813F0080F26D14FF40042164B1A6077
:403C40004000C0B229B140F001004922104B1A7002E045220E4B1A70104B1870012201331A700F4B1B7813F0010FFAD00C4B1B7803F00A030A2B08D11022054B1A70032056
:403C8000704702207047012070470020704700BF1A92FF1FD949004080E100E0D8490040D7490040164B1B7813F0040F23D04000C0B229B140F001004922124B1A7002E0EA
:403CC0004522104B1A70104B1870122201331A700422023B1A700D4B1B7813F0010FFAD00A4B1B7803F00A030A2B06D11022054B1A7003207047022070470020704700BFA5
:403D0000D94900401A92FF1FD8490040D74900400A4B1B7813F0040F0ED01023074A13700421023A1170064A1370064B1B7813F0210FFAD00020704702207047D94900400B
:403D40001A92FF1FD7490040114B1B7813F0040F1BD0104B18700422013B1A7046220E4B1A700E4B1B7813F0010FFAD00B4B1B7813F0020F04D16022074B1A70002070473F
:403D80006022054B1A70032070470220704700BFD9490040D84900401A92FF1FD7490040114B1B7813F0040F1BD0104B1B78DBB2492B05D100220E4B1A704A220B4B1A7042
:403DC0000B4B1B7813F0010FFAD00A4B1B78DBB218B11021064A117004E06021034A117000E0002318467047D94900401A92FF1FD7490040D849004038B510B1012805D1D8
:403E000002E00425032401E006250524FFF734FD00213820FFF706FF2046FFF795FF01213820FFF73FFF0020FFF7BAFF84B2FFF76FFF00213820FFF7F5FE2846FFF784FF30
:403E400001213820FFF72EFF0020FFF7A9FF85B2FFF75EFFFFF724FD240204F47064E8B2204338BD014B1B685864704708ED00E04001C0B2014B1870704700BF01E400E089
:403E80000222014B1A60704700E100E00222014B1A60704780E100E008B5FFF7F7FF0448FFF7E0FF0720FFF7E3FFFFF7E9FF08BDC13E00000222014B1A60704780E200E070
:403EC00010B50120FFF798FF04460020FFF794FF01462046FEF79CF9FFF7ECFF10BD00BF10B5002404E02046FEF7DCFF0134E4B2012CF8D9FF22014B1A7010BD0281FF1F87
:403F000010B50446FFF7ECFF2046FEF7BDFF014B1C7010BD0281FF1F10B5002404E02046FEF7DCFF0134E4B2012CF8D9FF22014B1A7010BD0381FF1F10B50446FFF7ECFF12
:403F40002046FEF7BDFF014B1C7010BD0381FF1F10B5002404E02046FEF7E0FF0134E4B2012CF8D9FF22014B1A7010BD0481FF1F10B50446FFF7ECFF2046FEF7BFFF014B57
:403F80001C7010BD0481FF1F08B500F005F808BD08B500F00FF808BD08B5044B1B78C3F30013034A137000F03BF808BD936400400881FF1F08B500F063F8034B1B780BB17A
:403FC00000F016F808BD00BF0881FF1F000000000230800803D000BF01380046FCD17047EFF3108072B6704780F31088704700BF08B5FFF7F5FF094A137843F02003137019
:40400000013A137843F0100313700432137843F010031370FFF7E8FF08BD00BF9464004008B5FFF7DDFF064A137803F0EF0313700432137803F0EF031370FFF7D5FF08BD44
:4040400093640040014B1878704700BF63640040014B1878704700BF67640040034B1B7813F0040FFAD0024B187070476364004044640040014B1878704700BF54640040CD
:4040800008B501E00A4B1B780A4B1B7813F0200FF8D1FFF7A5FF084B1A7842F001021A701A7802F0FE021A70FFF79EFF08BD00BF54640040676400409464004008B50F220B
:4040C000064B1A70FFF7DCFFFFF7BCFFFFF7C0FF0023034A13700432137008BD846400408364004008B5054B1B7823B9FFF7E6FF0122024B1A70FFF77BFF08BDE281FF1FE7
:40410000094B10B5D8689A68002308E0114652F8084B1CB901230B60486810BD01338342F4D3002010BD00BF2C92FF1F084B30B50022DC689B6808E05D681946083385424D
:4041400002D100230B6030BD0132A242F4D330BD2C92FF1F01230373704700230373704710B1002282720260704718B1027B0AB1013A02737047000038B501F00DFD20B396
:40418000124C4200E260000101F0FAFC238AA060E068584301F0F4FCA568E168228A002304E005EBC3046060013380188B42F8D3102001F0E5FC054C6061282001F0E0FCB7
:4041C000A37CA06143F00203A37438BD2C92FF1F38B510220D460021044601F003FCFFF78FFF08B9013038BDA0604FF0FF33002065602360A07338BD38B5837A044643B13E
:40420000056801F0D9FA2846FFF7AFFF2046FFF7A7FF002038BD08B50368827A03B19B6822B11BB1FFF7E8FF002008BD012008BD08B901307047FFF7EEBF000038B5104B6E
:404240009C69217B59B921606160A16004F11000142201F0C7FB237B013323730DE0656A45B9282001F076FC606218B12946282201F0B8FB646A002CE3D1204638BD00BFDD
:404280002C92FF1F38B50E4B5C69A17AE56839B92046102201F0A6FB0123A372E5600CE045B9102001F056FCE06018B12946102201F098FBE468002CE7D1204638BD00BF40
:4042C0002C92FF1F2DE9F74F06460020884691469B469DF830A09DF83470FFF7AFFF054608B9044610E0FFF7CDFF044660B180F80B900560AE604046214652463B46CDF89E
:4043000000B001F08DF830B12046FFF729FF2846FFF72BFF00242046BDE8FE8F2DE9FF410C461F4604A9002341F8043D15469DF8286000F0A5F88046B8B1039B0BB11B7830
:404340009BB1404600F025F900280EDD14F0150F01D0032809D1039939B1404622462B4600970196FFF7AEFF00E0002004B0BDE8F08100002DE9F3410646884600240E4DE9
:40438000404655F83410E70001F062FB10B9002C04DA0DE001340F2CF1D109E07D19A87929790090EA796B793046FFF7B7FF00E00020BDE8FC8100BF889F0000FFF7DABFED
:4043C00010B5437B04460BB1012010BD40682168A268A37B01F0A7FC10B10120607310BD207310BD10B5437B044663B9037B53B140682168A268A37B01F095FC08B1012354
:4044000063730023237310BD036870B5994204460D46164607D0037B0BB1FFF7E3FF00232560A673E37370BDFFF7DCBF10B50446FFF7D8FFA068BDE81040FFF777BE0123D6
:404440000373FFF7CFBF10B50446407B08B1012010BDE37B5BB960682168A268A37B01F0FCFB10B10120607310BD0122E27310BD08B5436813B94FF0FF3008BD984708BD2C
:404480002DE9F0470F463A21064601F010FB044610B93446174D27E00378C6EB000A5BB114F8013F43B162783A2A05D1A3F130085FFA88F8023401E04FF000080D4D2B6839
:4044C00028791B689847814601F0CFFA504508D148463146524601F0D0FA10B92B79434502D0AD6D002DEAD107B13C602846BDE8F08700BF4892FF1FF8B5174C064694F82C
:404500005710A56D69B95C220127204601F06AFA84F85770A5653046FFF7AAFF00280EDA18E045B95C2001F015FBA06518B129465C2201F057FAA46D002CE0D10AE0074B73
:4045400026609A6F01329A670323207184F8577084F856302046F8BD4892FF1F2C92FF1FFFF7CABF38B504460D4601F044FB08B9013838BD204601F051FB204601F0EAFC85
:40458000204600F0B7FC08B184F8555094F8550038BD90F8553023B990F8561009B1FFF7E1BF1846704730B51346BAB1B0B10268857A0AB1946804B900247DB172B16CB18D
:4045C000C27A12F0100204D14FF6FA730381104630BD1A46BDE8304001F010B9002030BDFFF7E1BF0C2802D0102805D102E001EB5100704748007047880070470368406810
:404600009B685B6AB0FBF3F0704710B5C46C436CE4B199421AD3E318994217D2013B99420CBF4FF0FF31013172B190F836300C2B02D0102B05D102E00905090D03E089B2DB
:4046400001E021F070411160012010BD002010BD40F6F473984201D80C2070474FF6F473984294BF102020207047027F8368023902FB01307047431EDBB21F2B13D92F2811
:4046800011D007D826280ED002D8222809D10AE02A3804E03A2804D33F2804D95B38022801D90120704700207047034638B30B2A01DD0B2200E0013A00201CE0082809D168
:4046C00091F808C0BCF1200F0DD04FF02E0C03F801CB08E038B991F800C0BCF1050F02D1ACF1200C04E011F800C0BCF1200F01D003F801CB01309042E0DB00221A707047AF
:404700002DE9F04788B005AE04460D463046114600229A469DF84490BDF84C80BDF8507000F0BEFC08B1002413E020462946524600F0AFFD044660B1129B31460093109A37
:404740004B46CDF80480029700F066FF2846FFF701FD204608B0BDE8F08710B59DF80C400394BDE8104000F079BD00002DE9F04F144E87B0109DDDF848809DF8444037688D
:4047800000950194CDF8088005937F68934682468946B84732680C4BDDF814C09A420DD060B9504649465A46634610951194CDF8488007B0BDE8F04FFFF7CFBF07B0BDE868
:4047C000F08F00BF0C81FF1F30A0000070B5C37A04460B7010300D4601F098F9064604F10E0001F093F940EA0640686004F1120001F08CF90004A86004F1180001F086F9BA
:40480000064604F1160001F081F940EA0640E86004F11C0001F061F9286170BD2DE9F845038A04460E46924687692BB907F118002146626900F004FC38465146224600F023
:4048400087FC0546204600F005FCD5B12B78C3B1E52BF1D095F80B80B8F10F0FECD018F00808E9D170692946B269FFF71EFF28463146FFF7ABFF238A404601332382BDE88C
:40488000F8854FF0FF30BDE8F8850222FFF7BCBD2DE9F74F04460D461E461746002A00F09B8090F836001146FFF79CFEB4F81EA0A36A20FA0AFA9A45814680F08D80638E1B
:4048C00004F118089A44284651464246FFF7DDFF2846FFF7B8FD6B7B002B7DD1A38B013B09EA0309AB681FFA89F909EB030B26B9226C974203D2276401E07A1C226494F8A6
:404900003620102A0AD0202A11D1584601F0E5F831460746584601F0EBF84EE0584601F0F5F8B1B20746584601F0ECF845E028460193FFF70FFC019B17F0010F19F8037013
:404940001CD007F00F0242EA061209F80320A38B013B994502D00BF1010309E028460AF101014246FFF791FF2846FFF76CFDAB681A78120142EA171732091DE009F80360E4
:40498000A38B013B994502D00BF1010309E028460AF101014246FFF778FF2846FFF753FDAB681A7802F00F0147EA0127310A22F00F0201F00F010A431A702846FFF7CAFB81
:4049C000E36BB3F1FF3F09D00FB10133E3632EB1E36B013BE36301E0012000E00020BDE8FE8F6FF07043FFF753BF70B5C36C04460E4693B1002506E0AA1820463146531C28
:404A0000FFF746FF0135E36C626C013B9D42F3D320463146AA18FFF7E4FF00236364E364A364236570BD70B506460D461C460AB1FFF72EFF304629462246BDE87040FFF706
:404A4000D0BF2DE9F04790F8366005460C46304611469146FFF7C6FDB5F81E80AB6A20FA08F89845824602D30020BDE8F0876B8E05F118079844204641463A46FFF705FFC1
:404A80002046FFF7E0FC18B14FF0FF30BDE8F087AA8BA168013A0AEA020A1FFA8AFA92450AEB01031AF8015001D0013309E0204608F101013A46FFF7E8FE2046FFF7C3FC5C
:404AC000A36818780C2E45EA002009D0202E0FD15D7840EA05409D7840EA0560BDE8F08719F0010F02D00009BDE8F0870005000DBDE8F0872DE9F34190F83630144603FBB9
:404B000002F7828B8846D200511E0F40D71B0546B7FBF3F7002618E00E4B93F87C30022B05D12846214601AAFFF76FFD28B9284641462246FFF785FF0190019B0134A342A6
:404B400005D10136B6B2013F1C46002FE4DC3046BDE8FC812C92FF1F2DE9F34105460E46144698461F681CE0114B93F87C30022B05D12846214601AAFFF747FD28B9284678
:404B800031462246FFF75DFF0190737B0BB100240BE0AA6B019B0132934204D81BB1013F1C46002FE0D1C8F800702046BDE8FC812C92FF1F73B504680E4623681BB9FFF7C6
:404BC0001DFD013039E0FFF719FD236998423CBF4FF0FF3323612369B3F1FF3F04D12268013323616261E3832169E28B451A954234BF2B4613463BB16069C918C018D21AFD
:404C000060612161E283ED1A0DB9284615E002AB43F8045D31466269A068FFF79DFF6061019B21690246C91A4D19256123B9A0683146FFF75FFFE08301987CBD13B502AC1F
:404C400044F8043D2346FFF787FF019B002B18BF00201CBD2DE9F0410746884615461E460024384641462A460123FFF7E7FF30B1BA6B0134944201D80546F2E7002406B198
:404C800034602846BDE8F0812DE9F84504460E4615461F46002B36D01C4B93F87C30022B31D190F8368011464046FFF79BFCB4F81CA00AF1FF3A2AEA000A4FEACA0ABAFB09
:404CC000F8FAAA44A8460EE0204631464246FFF7B8FE50B9636C0BB9C4F84480A36C08F101080133A364D045EED9A36C5BB127653B685A6922B1204631462B46FFF7C8FDBA
:404D0000E36C0133E364BDE8F88500BF2C92FF1F2DE9F8459846274B054693F87C300F46022B1646846B19D1036D984503D0836C0BB1FFF75AFEB8F1000F0FD02B6D434540
:404D40000CD1EB6CAA6C9A4204D96C6C1C190133EB642CE028463946FFF747FE012E04F1010A01D9564505D92E6C012E01D9564500D902263446284639462246FFF761FE87
:404D800050B101345445F6D902240DE0284639462246FFF756FE30B92846394622464346FFF772FF03E00134B442EFD300242046BDE8F8852C92FF1FF8B507460E46154674
:404DC000FFF7A6FF044628B1384631462A462346FFF729FE2046F8BDB2F1FF3F73B504460D4614D0561A013611D0FFF71DFB084B00211A8AA06800F0F5FD0223009360684D
:404E0000A3682946324600F069FF0023E3737CBD2C92FF1F2DE9F84F984690F8363004460C2B0D4616465AD04FF0FF3AD1463CE094F836003146FFF7D5FBB4F81CB0678E00
:404E40000BF1FF3B10EA0B0BE38B1DD1D840013F3F18022228463946FFF7D6FAA38BAA689B0852F80B1079B9013B0BF1040BF8D13BE0494628465246FFF7AEFFB946BB462D
:404E80002846FFF76AF9DA462946324601232046FFF7D4FE29460746324620460023FFF7F7FC2FB108F1FF383E46B8F1000FBFD1284649465246FFF78FFF13E0294632465D
:404EC00001232046FFF7BAFE29460746324620460023FFF7DDFC2FB108F1FF383E46B8F1000FEBD14046BDE8F88F0AF1010B5F45BFD1C5E72DE9F8450446FFF701F9054675
:404F000008B9044696E0204600F014FF4B4E338A834208D338B1002120462A460B4600F09CFE002804DA2846FFF700F9002481E005F5FF7000F0EAFD4AF65523984275D1D6
:404F400005F10B0000F0E2FD10F47E4F07466DD0338A83426AD32B7C022B67D16E7B002E64D000213C2204F1180000F03BFD05F1130000F0CBFD804620B905F1200000F0D6
:404F8000ACFD804605F1160000F0C0FD824680B905F1280000F0BAFD10F08F0F46D105F1240000F09AFD824605F12C0000F095FDE062022384F83530C4F828A0C4F8188021
:404FC00084F8346005F10E0000F0A0FD608605F1110000F09BFD638E94F83520208602FB0A3A7B099BB2B0FBF3F05044A7832062092301229A40BA4201D1E38302E00133D0
:40500000102BF6D17743C0EB0800B0FBF6F0A0636762FFF71DFB4FF0FF33202884F8360018BFC4F82CA0E363012400E000242846FFF77CF82046BDE8F88500BF2C92FF1F62
:4050400000238B60837F202B01D102B942694A600A60704783680133836070472DE9F0410C46202105461F469DF818604FF0000800F0B8FC10E014F8080036B9E52804D1C2
:40508000B8F1000F01D1E03802E000F009FDC0B205F8080008F10108B845ECDBBDE8F0812DE9F74506460D4608462849002A14BF92464FF0FF3A00F0CBFC804650B930462A
:4050C0002946022200F05DFEB01C2021092200F089FC37E000274FF0FF3415F80780B8F1000F01D0574505D1B4F1FF3F08BF3C4664B925E04046FFF7BEFA08B3B8F12E0FC3
:4051000008BF3C4601370D2FE7D119E0082C17DC3F1B042F14DC30462946082223464FF00008CDF80080FFF799FF0123611C009306F10800691803227B1EFFF78FFF01E0F4
:405140004FF001084046BDE8FE8500BF40A000002DE9F74FD2F808B0436A4FEA4B18B8FBF3F8D368054698450E461446D2F8009001D20023D360B5F81EA0E368AAF1050AE1
:405180000BB9D4F804902BFA0AF7B9F1000F17D095F83420B8EB0303019206D04A4628463146FFF74BFD814640B3494605F11800FFF75BFA019B591E01EA0707C11906E0F1
:4051C0002B8E43FA0AF39F4218D2E96A79183046C4F80090C4F80C800122FFF715F93046FFF731F950B9013000FA0AFAB3680AF1FF3A0AEA0B0B03EB4B1000E00020BDE8C7
:40520000FE8F2DE9FF4107460E4601A811461A460A9D9DF82C40FFF743FFC8B9384631462A46FFF795FF8046A0B1037883B101A90B2200F0C7FB38B998F80B3004EA03023C
:40524000A24201D1082B05D12846FFF703FFE5E74FF00008404604B0BDE8F0812DE9F04587B002AF04460E46154698469DF83CA039460E9A1830FFF7E3FE204631462A4698
:4052800043460097CDF804A0FFF7BBFF07B0BDE8F0852DE9F04500F1180785B005460C46384669469246FFF7CBFE284621466A46FFF74EFF06466846E846FFF7CBFE002E16
:4052C00037D1BAF1000F02D12B8E002B35D12146009A00232846FFF7BDFC2146024600232846FFF769FD80462046FFF7A8F8B8F1000F22D0AA8B0021A06800F073FB3846AC
:405300004146FFF7B2F995F8347000257E1E361808E0314620460122FFF776F82046FFF74FF8013E01357B1BB3F1FF3FF1D1A66803E033780BB1E52BB7D1304605B0BDE8A7
:40534000F08538B504461A3000F0E0FB054604F1140000F0DBFB45EA004038BD2DE9F0451D4685B007460E462A6010465C21904600F09DFB4FF0000A0446A04508D108F165
:405380000108C5F8008040465C2100F090FB044694B1C8EB0403002B0EDD10220192103A0292384631464246CDF800A0FFF7DEF970B1FFF7C6FF824628685C2100F077FB65
:4053C000A04604460028D8D10C9B0130C3F800A005B0BDE8F085F8B505460C461E461746DAB16FF01A0313700846FEF7B3FE16B94FF47A7608E007F11C0000F06EFB6B6AF5
:405400005E1E3618B6FBF3F63846FFF79AFF2146024633462846FFF7FDFC607BF8BD00002DE9F04FD1F8008093B0D8F808700BAD044608930E464FF0FF33394628460992D3
:405440000F939DF870A0FEF7C3FE10AB009338462946224611ABFFF781FFD0B1F27A109B07920FAA00930292002338462946119A0193FFF77BF9044680B1C37A13F0100FB6
:4054800007D10D9BDDF82CB0C3EB00094FEA691906E02846FEF7CAFF0125A3E083468146099B002B3CD0002C33D0524B5D6912E02B687BB1AA7A6AB19A8B4A450AD19A690F
:4054C0005A4507D19B68BB4204D14FF6F772328100257EE0ED68002DEAD10DF12C0C6146384622460123CDF818C0FFF774FFDDF818C018B14FF0FF3333816AE03E4B1B6861
:40550000DC6824B138466146109A0F9BA0472C4606E0BAF1000F03D1089A002A44D065E0089BEBB1CCB1E37A13F0010F0BD0079A12F0150F07D04FF6FA733381BAF1000F22
:4055400001D1012500E000252046FFF7FAFE074604F11C0000F0C1FA29E0BAF1000F45D0BAF1010F01D000251BE0ECB900F022FD214B20221B68019282B2000C039204906C
:40558000009402949D6838460BA9119A109BA84750B10D9ADDF82CB0C2EB00094FEA6919254628462F4602E00125002007464FF0FF33C8F81030C8F818B0A8F81C90079AD2
:4055C000C8F8040012F0010308BF1846C8F800707060B6F908300BA835EA230528BF0125FEF724FF284613B0BDE8F08F01255046DCE700BF2C92FF1F0C81FF1F70B505462C
:405600000C461A3089B200F07DFA05F11400210CBDE8704000F076BA2DE9F0470446BDF824700D469146002120229A46BDF82860DDF8208000F0D6F90B222046294600F0D0
:40564000A0FB04F10E00394684F80BA000F05AFA04F11000314600F055FA04F11600394600F050FA04F11800314600F04BFA20464946FFF7C3FF04F11C004146BDE8F04749
:4056800000F036BA07B5426803460AB910460AE081680020009048681968DB6800F0FCFA003818BF01200EBD2DE9F047046805460F46A668FFF77EFA81468246002841D0CD
:4056C000D4F80080B8F1000F1BD14246304639462B46FFF71DFB0246D8B11C4B6061C4F8108093F87C302060022B07D030463946FFF777F910B10120BDE8F087B9F1010AB0
:4057000020D03046394662692B46FFF701FB804628B94FF6FE732B810130BDE8F0870B4B93F87C30022B05D03046394662694346FFF779F92369C4F8148001332361BAF181
:40574000010ADDE70020BDE8F08700BF2C92FF1F2DE9F041836804460D4608460122A1699E8BFEF751FE2846B4F81C80AF68FEF76AFEF8B9013E06EA4816B6B2BE1906F12E
:405780001C00616800F0B4F921683046FFF736FF00F010FC0446A1B206F1160000F0B2F906F11800210C00F0ADF92846BDE8F041FEF745BEBDE8F0817FB50668B0F9083055
:4057C000B568C3B9C37A13F0110F14D029466846FEF7FEFC30466946FFF7BAFF064B6C4693F87C30022B03D128466946FFF7FDF86846FEF71BFE7FBD2C92FF1F03682DE954
:40580000F04F9F68038995B001339BB2012B04460E46059201D90025CEE0394610AD0CA8FEF7D6FC39462846FEF7D2FC039626680023D6F808909A4609F118010791D9F84F
:405840002420059906924FF0FF32099308920A950291049320460CA9FFF726FF38B108A8FFF710FF5546002818BF00258FE03269069901324A43B9F81CB063680BF1FF3BC5
:40588000D21A0BEA030B029B0798934228BF134601937169FEF7E9FE99F83430B9F81C206768013BB7FBF2F703EA0707C719B9F81C300199CBEB03058D4228BF0D469D42BE
:4058C00028D0BBF1000F03D1626873689A420FD00DF14008404639460022FEF795FD4046FEF7B1FD20B14FF6F9725546228154E01298039958442A460DF1400800F041FAEE
:40590000404639460022FEF77FFD4046FEF758FD90B141E0099B089A9A1897420AD008A8FFF7B0FE002837D101230993039B08970B9301E001330993029B03995B1B019AD8
:40594000029363684919521BAA44ED186560736803919D42019207D91BB1194B93F87C300BB9012104917560019A1AB101374FF0000B9CE7029B002B7FF46CAF08A8FFF761
:4059800081FE04995546002818BF002529B1304610A9FFF7DDFE00E05546059A954205D0B4F9083013B94FF6F87323810CA8FEF73DFD10A8FEF73AFD284615B0BDE8F08F49
:4059C0002C92FF1F10B5002308E0C45C11F803C0013A0133644501D0012010BD002AF4D1104610BD70B5034602E003F8011C013A1C4622B103F003050133002DF5D1930891
:405A00001ED04FF001354D4308E044F8105C44F80C5C44F8085C44F8045C043B032BA44604F11004F1DC1C46002603E04CF80650013B0436002BF9D102F003020CEB8404F0
:405A4000002302E0E154013A0133002AFAD170BD002310F803C0CA5C624501D0012070470133002AF5D110467047002300E00133C25C002AFBD11846704710B500230BE093
:405A8000C45C11F803C0644501D0012010BDC4186478013314B1013A002AF1DC002010BDA0F16103192B98BF00F0DF007047C9B203E00BB918467047013003788B42F8D133
:405AC000704742780178431C42EA01205A789B7842EA002043EA002070478378C27803EB0222437803EB0222037803EB0220704703460A0A03F8011B42700A0C090E5A7068
:405B0000997070470170090A417070474278037843EA022070470000094A0A4BC11C10B5146821F0030118680919814201D9002010BD11609A685868013220189A6010BD12
:405B4000AC92FF1FE481FF1F08B5FFF7E5FF00B9FEE708BDFFF7E0BF30B1044A9368013B93600BB9024A1360704700BFE481FF1FAC92FF1F014B586019607047E481FF1FCF
:405B800038B50546FFF7E0FF002104462A46FFF729FF204638BD000010B5084CA37C0BB1002010BD4FF40073238200F0F5F9A37C012043F00103A37410BD00BF2C92FF1F74
:405BC00008B583680BB10020984708BD08B583680BB10120984708BD10B504680079A468A04710BD37B59DF81850046800790095E468A0473EBD08B5036800799B699847D5
:405C000008BD036810B55B69044623B10079984708B1002000E00120607110BD10B5437904460BB9FFF7EDFF607910BDF7B504461F460E461546FFF7F1FF2046FFF7C6FF95
:405C40002A463146012320460097FFF7C5FF05462046FFF7B5FF2846FEBD10B504690919BDE81040FFF7E2BFF7B5044615461F460E46FFF7D3FF2046FFF7A8FF0023009373
:405C800031462B463A462046FFF7ACFF05462046FFF796FF2846FEBD30B504699DF80C5009190395BDE83040FFF7DEBFF7B5044615461F460E46FFF7B1FF2046FFF786FFDA
:405CC0000123009331462B463A462046FFF78AFF05462046FFF774FF2846FEBD30B504699DF80C5009190395BDE83040FFF7DEBF73B504460E461546FFF790FF2046FFF7B6
:405D000065FF00232A460093314601332046FFF769FF05462046FFF753FF002D14BF4FF0FF3000207CBD10B504690919BDE81040FFF7DEBF30B5054685B0FFF76FFF2B6872
:405D400028791C694FF47B71002201ABA04708B1002001E0BDF80C0005B030BD70B506460D46FFF75BFF336830791C694FF47B7100222B46A047002814BF4FF0FF300020ED
:405D800070BD11F0030F70B584460B4632D110F0030F2FD195100446AC4611E053F8106CACF1040C44F8106C53F80C6C44F80C6C53F8086C44F8086C53F8046C44F8046C03
:405DC00010341033BCF1030FE8D8AB081B0100EB030CCB1815F003050AD0284600215C584CF8014004310138F9D1AD00AC445B1902F0030213F0010F19462FD11CF0010F74
:405E000060462BD15410254610E031F8086C043D20F8086C31F8066C20F8066C31F8046C20F8046C31F8026C20F8026C08300831032DEAD8A108C9005B1814F003048C4411
:405E40000AD0204600215D5A2CF8015002310138F9D16400A4441B1902F00102614610E013F8040C043A01F8040C13F8030C01F8030C13F8020C01F8020C13F8010C01F89E
:405E8000010C18460433032A8C4601F10401E7DC32B10023C15C0CF8031001339342F9D170BD0378E92B01D101207047EB2B01D0002070478078902814BF002001207047DB
:405EC00008B500F5FF70FFF721FE4AF65523984214BF0020012008BD01EB001000F5E370FFF7FBBDF0B50D4685B01446064658B352B300210B46FFF799FE002824DB2046A0
:405F0000FFF7DEFF00B32046FFF7CBFF10B10024274616E02146FFF7DFFF074604F5E570FFF7DBFD01A904463046FFF717FF5CB157B1E219FF23120AB2FBF3F2029B9A42FA
:405F400002D81DB12C6001E04FF0FF37384605B0F0BD000073B50446FFF7ECFE0646FEF7CFF80C4B05461B8AB3420DD366B1204601A92A46FFF7B6FFB0F1FF3F04D02061CB
:405F8000019B6361002400E0FF242846FEF7CEF860B27CBD2C92FF1F08B54FF480510348FFF7E8FD0248FEF7DBFA08BDF081FF1F8CA000004FF40410704700BF4FF6FF70FE
:405FC00070470000014B1868704700BFF091FF1F00487047ACA0000000F016BD37B501220DF10701054600F015FD9DF80740FF2C14BF0A240724284601220DF1070100F0DF
:4060000009FD9DF80700FF2803D1013CE4B2002CF1D13EBD37B50469857828460DF10701012200F0F7FC9DF807300BB1002003E0013CF2D14FF0FF303EBD37B54FF0FF33E6
:4060400005460C468DF8073006E028460DF10701012200F0EDFC013C002CF6DC3EBD000038B5094C2368032B02DD4FF0FF3509E0DDB2013323601420FFF782FD04EB85049E
:4060800060608570284638BDF091FF1F08B5034B4FF400711B68984708BD00BF1081FF1F4FEAD20CACEBD103CCF10F0C10B501336044002410F801CB013B4CEA0424F9D182
:4060C00001F00703511A02228A40DC40013A04EA020010BD7FB5130E85788DF80530130C01F03F018DF80630130A41F040018DF8073000238DF808208DF804101A4601A963
:4061000011F802C000215B00DBB283EA0C0E1EF0800F18BF83F009030131082904D04FEA4C0C5FFA8CFCEEE70132052AE7D15B0043F001038DF809308678C4680122304666
:4061400003A900F067FC9DF80C30FF2B04D00CB9FF2009E0013CF1E7284601A9062200F067FC2846FFF73AFF04B070BDF7B5847806460F4620460121FFF75FFF204600F0E3
:40618000E5FB304609210022FFF7A4FF8DF8070028BBF6680546012220460DF1060100F039FC9DF80630FE2B06D0FC2B04D00135ADB2B542EFD112E00DF1070520463946E7
:4061C000102200F027FC29462046012200F022FC29462046012200F01DFC002500E0FF25204600F0BDFB20460121FFF726FF2846FEBD00002DE9F04F9B46494B89B003EB5F
:40620000800305925C684A02029103924FF00309029AA578E678039B2846022E08BF13461E4600F09DFB01212846FFF706FFBBF1010F0CBF4FF0110A4FF0120A284600F03D
:4062400085FB204651463246FFF744FF002851D1059F5E46A378E268B44604924FF000081E460FE0012230460DF11F01CDF804C000F0D0FB9DF81F20DDF804C0FE2A05D06A
:4062800008F10108049B9845ECD333E0284639464FF40072664600F0BDFB0222284607A900F0B8FB9DF81C30384601939DF81D80FFF7ECFE4FF6FF729042019B0CD048EA7C
:4062C0000328404508D0BAF1120F13D120460C210022FFF7FFFE0DE0013E02D007F50077B8E7BAF1120F07D120460C213246FFF7F1FE01E04FF0FF36284600F031FB2846CD
:406300000121FFF79AFE3EB1B9F1000F02D009F1FF397DE74FF0FF36304609B0BDE8F08FF091FF1F2DE9F04F99464C4B87B0029203EB80039DF840205D68009103926B786D
:40634000002B40F085804B0201930327009BAC78EE78019A2046022E08BF1A46164600F0FFFA01212046FFF768FEB9F1010F0CBF4FF0180A4FF0190A204600F0E7FA28461F
:4063800051463246FFF7A6FE8DF81700002850D120460121FFF751FE029ECB46B8463046FFF774FE0DF11707BAF1180F0CBFFE23FC2301228DF817308DF81500030A3946E7
:4063C00020468DF8143000F033FB204631464FF4007200F02DFB0222204605A900F028FB01222046394600F015FB9DF8173003F01F03052B1CD12846FFF70CFEC0B9039AC1
:406400000AB906F50076BBF1010BC8D1BAF1190F474611D106A96FF00203204601F8013D012200F005FB2846FFF7F4FD20B100E047464FF0FF3600E00026204600F090FAE5
:4064400020460121FFF7F9FD26B10FB1013F7DE74FF0FF36304607B0BDE8F08FF091FF1F2DE9F04F877887B0044638460D4600F06DFA20463A210022FFF72CFE064638B1D4
:40648000384600F06DFA38460121FFF7D6FD58E00DF1140804224146384600F0BBFA4046FFF70FFB8046384600F05AFA01213846FFF7C3FDB8F1000F28F07F02B8BF4FEA17
:4064C000987BD2B240F272634FEA1828B8BF0BF0010B1FFA88F8002A14BF1A460022012111EA080F05D10136F6B24900102E89B2F6D140F27260824233460DD06422724324
:4065000002F5FA6208E011EA080F07D049000133013689B2DBB2F6B20F2EF4D964214B434FF6FE7103F5FA6302EA01014FF6FC72384603EA020200F049FA10F0FF0F40F06C
:4065400099804FF0FF3092E028467E217F22FFF7A7FD8246EB78DFF82C8103F0030203F0780308EBD30358F822101B7C3846594389B200F001FA0646002877D06B7803F012
:406580000702DB1003F00F0308EB82024344126A93F810800292B8F1000F67D0A978284603911C221A21FFF77BFD0190BAF1000F1FD1502153222846FFF772FD4FF0010983
:4065C00009FA00F92F2131222846FFF769FD1FFA89F982463E21284649224FEA5929FFF75FFD0AF1020A09FA0AF9013000FB09F910E0BAF1010F01D0012038E028463021DB
:406600004522FFF74DFD4FEA8029BBF1000F01D00223E37008FB06F2029B0399B2FBF3F2642303FB01225A437343D208DB089A4294BFE260E360FA235E43019BF6089A4069
:406640000C21B24294BF2261266128460D22FFF727FD0546384600F08DF94FF4007128436070A180C4F80890002000E0FF2007B0BDE8F08FE378A778012B3FF465AF4FF01C
:40668000000A67E744A00000F0B5857887B004464FF4C871284600F06FF9B0F5C87F00F2CC804CF25033E3600026284600F058F90A212846FFF7C1FC624B93E8030001902E
:4066C0002846ADF8081000F041F9062201A9284600F0AEF92846FFF781FC0746284600F03FF901212846FFF7A8FC17F0010F03D10136052ED9D1A0E0284600F027F908215A
:4067000020464FF4D572FFF7E5FC10F0040F52D0284600F025F9A5784FF4FA66284600F015F9002237212046FFF7D4FC28460121FFF783FC292100222046FFF7CBFC07462E
:40674000284600F00DF928460121FFF776FC17B90123E3701EE017F0040F01D1013EDDD14FF4FA66284600F0F1F8012100222046FFF7B0FC0746284600F0F2F82846012144
:40678000FFF75BFC0FB9E77004E0012F55D1013EE8D152E001AD20462946FFF7E7FC00284BD120462946FFF75BFEC0B2002844D10123237043E00422A07805A900F02AF9BD
:4067C000284600F0CDF89DF81730AA2B35D19DF8163003F00F03012B2FD1A5784FF4FA66284600F0B3F8002237212046FFF772FC28460121FFF721FC29214FF08042204652
:40680000FFF768FC0746284600F0AAF828460121FFF713FC0FB1013EE2D101AE20463146FFF7A4FC48B90125E57020463146FFF717FEC0B208B9257001E04FF0FF3007B016
:40684000F0BD00BF84A0000010B5084B03EB80035C6823783BB9FFF7BFFB20B12046BDE81040FFF711BF4FF0FF3010BDF091FF1F38B51D46154BA1F57B7103EB80035C68C9
:40688000072918D8DFE801F00A17171704041719204600211422FFF7A5F80CE0237833B92046FFF7F1FE10B14FF0FF3038BDA3882B81A3686B60002038BD2046FFF74CF9E4
:4068C000024B00201A68013A1A6038BDF091FF1F10B580B9104B1B78EBB901240E4B1C7000F0C0F821463B2000F0D8F800F0ACF8FDF7F8FB10BD084B1B7863B90124064BDC
:406900001C7000F0AFF821463B2000F0C7F800F09BF8FDF7E7FB10BD0492FF1F08B550B90846FDF79BFBFDF78DFB10F0010FFAD0FDF7A0FB08BD0846FDF790FBFDF782FB63
:4069400010F0010FFAD0FDF795FB08BD08B510B900F010F908BD002000F00CF908BD00BF08B518B9012000F005F908BD012000F001F908BD0020704738B5B1F5C87F04D35D
:406980000D46B1F57A6F03D804E04FF4C87501E04FF47A656C00A4B245F6C053B3FBF4F448B900F05FF8601E012180B200F076F800F04AF808E000F055F8601E012180B26C
:4069C00000F06CF800F040F8284638BD032809D840F6E44399420FD840F6E3439A420DD80020704740F6E443994209D840F6E3439A4207D8002070470020704701207047E3
:406A0000002070470120704708B5FFF761FF022008BD00BFF8B507460D4614466E1CFF213846FFF77BFF28703546013CF6D1F8BD70B5064614464D1C09783046FFF76EFF55
:406A40002946013CF7D170BD054A137843F0010313701032137843F001031370704700BFA2430040054A137803F0FE0313701032137803F0FE031370704700BFA24300408F
:406A8000014B188880B2704780400040024B187800F00700704700BF8240004070B505460E46FFF7F3FF0446FFF7EAFFA84256D02B4B1B7803F0010294B900B185B938B9A4
:406AC000284B1D80284A137803F0BF03137070BD254A137843F040031370224B1D8070BD22B3002321490B7001240F310C7004310B700C390B7803F07F030B701A4B1B78DC
:406B000013F0080F00D08DB9194B18800721013B1970164B1B7813F0010FFAD110490B7803F0FE030B700021104B19700C4B1B7813F0010F0DD00E4B1D800EB1032200E086
:406B400001220A4B1A70094B1B7813F0010FFAD170BD044B1D8002490B7813430B7070BDA243004080400040824000400140004002400040044A137803F0FB03800000F005
:406B800004001843107070471051004081F0004102E000BF83F0004330B54FEA41044FEA430594EA050F08BF90EA020F1FBF54EA000C55EA020C7FEA645C7FEA655C00F015
:406BC000E2804FEA5454D4EB5555B8BF6D420CDD2C4480EA020281EA030382EA000083EA010180EA020281EA0303362D88BF30BD11F0004F4FEA01314FF4801C4CEA113128
:406C000002D0404261EB410113F0004F4FEA03334CEA133302D0524263EB430394EA050F00F0A780A4F10104D5F1200E0DDB02FA0EFC22FA05F2801841F1000103FA0EF23B
:406C4000801843FA05F359410EE0A5F120050EF1200E012A03FA0EFC28BF4CF0020C43FA05F3C01851EBE37101F0004507D54FF0000EDCF1000C7EEB00006EEB0101B1F535
:406C8000801F1BD3B1F5001F0CD349085FEA30004FEA3C0C04F101044FEA445212F5800F80F09A80BCF1004F08BF5FEA500C50F1000041EB045141EA050130BD5FEA4C0C86
:406CC000404141EB010111F4801FA4F10104E9D191F0000F04BF01460020B1FA81F308BF2033A3F10B03B3F120020CDA0C3208DD02F1140CC2F10C0201FA0CF021FA02F1B0
:406D00000CE002F11402D8BFC2F1200C01FA02F120FA0CFCDCBF41EA0C019040E41AA2BF01EB0451294330BD6FEA04041F3C1CDA0C340EDC04F11404C4F1200220FA04F06E
:406D400001FA02F340EA030021FA04F345EA030130BDC4F10C04C4F1200220FA02F001FA04F340EA0300294630BD21FA04F0294630BD94F0000F83F4801306BF81F48011CE
:406D80000134013D4EE77FEA645C18BF7FEA655C29D094EA050F08BF90EA020F05D054EA000C04BF1946104630BD91EA030F1EBF0021002030BD5FEA545C05D1400049416F
:406DC00028BF41F0004130BD14F580043CBF01F5801130BD01F0004545F0FE4141F470014FF0000030BD7FEA645C1ABF194610467FEA655C1CBF0B46024650EA013406BF4C
:406E000052EA033591EA030F41F4002130BD00BF90F0000F04BF0021704730B54FF4806404F132044FF000054FF0000150E700BF90F0000F04BF0021704730B54FF480643E
:406E400004F1320410F0004548BF40424FF000013EE700BF42004FEAE2014FEA31014FEA02701FBF12F07F4393F07F4F81F06051704792F0000F14BF93F07F4F704730B564
:406E80004FF4607401F0004521F0004120E700BF50EA010208BF704730B54FF000050AE050EA010208BF704730B511F0004502D5404261EB41014FF4806404F132045FEA37
:406EC000915C3FF4DCAE4FF003025FEADC0C18BF03325FEADC0C18BF033202EBDC02C2F1200300FA03FC20FA02F001FA03FE40EA0E0021FA02F11444C1E600BF70B54FF020
:406F0000FF0C4CF4E06C1CEA11541DBF1CEA135594EA0C0F95EA0C0F00F0DEF82C4481EA030621EA4C5123EA4C5350EA013518BF52EA033541F4801143F4801338D0A0FBE6
:406F400002CE4FF00005E1FB02E506F00042E0FB03E54FF00006E1FB03569CF0000F18BF4EF0010EA4F1FF04B6F5007F64F5407404D25FEA4E0E6D4146EB060642EAC621BE
:406F800041EA55514FEAC52040EA5E504FEACE2EB4F1FD0C88BFBCF5E06F1ED8BEF1004F08BF5FEA500E50F1000041EB045170BD06F0004646EA010140EA020081EA030186
:406FC000B4EB5C04C2BFD4EB0C0541EA045170BD41F480114FF0000E013C00F3AB8014F1360FDEBF002001F0004170BDC4F10004203C35DA0C341BDC04F11404C4F120057E
:4070000000FA05F320FA04F001FA05F240EA020001F0004221F0004110EBD37021FA04F642EB06015EEA430E08BF20EAD37070BDC4F10C04C4F1200500FA04F320FA05F0AD
:4070400001FA04F240EA020001F0004110EBD37041F100015EEA430E08BF20EAD37070BDC4F1200500FA05F24EEA020E20FA04F301FA05F243EA020321FA04F001F00041ED
:4070800021FA04F220EA020000EBD3705EEA430E08BF20EAD37070BD94F0000F0FD101F00046400041EB010111F4801F08BF013CF7D041EA060195F0000F18BF704703F0DD
:4070C0000046520043EB030313F4801F08BF013DF7D043EA0603704794EA0C0F0CEA135518BF95EA0C0F0CD050EA410618BF52EA4306D1D181EA030101F000414FF00000C2
:4071000070BD50EA410606BF1046194652EA430619D094EA0C0F02D150EA013613D195EA0C0F05D152EA03361CBF104619460AD181EA030101F0004141F0FE4141F47001F1
:407140004FF0000070BD41F0FE4141F4780170BD70B54FF0FF0C4CF4E06C1CEA11541DBF1CEA135594EA0C0F95EA0C0F00F0A7F8A4EB050481EA030E52EA03354FEA0131F3
:4071800000F088804FEA03334FF0805545EA131343EA12634FEA022245EA111545EA10654FEA00260EF000419D4208BF964244F1FD0404F5407402D25B084FEA3202B61A94
:4071C00065EB03055B084FEA32024FF480104FF4002CB6EB020E75EB030E22BFB61A754640EA0C005B084FEA3202B6EB020E75EB030E22BFB61A754640EA5C005B084FEAE1
:407200003202B6EB020E75EB030E22BFB61A754640EA9C005B084FEA3202B6EB020E75EB030E22BFB61A754640EADC0055EA060E18D04FEA051545EA16754FEA06164FEA8C
