:400000000080002011000000612700006127000008B5044B1A6803F53F5302331A6002F0BFFB00BFFA46004010B5054C237833B9044B13B10448AFF300800123237010BDAB
:40004000A881FF1F00000000348E0000084B10B51BB108490848AFF300800848036803B910BD074B002BFBD0BDE81040184700BF00000000AC81FF1F348E0000C880FF1FBE
:400080000000000008B5012809D8002003F0B2FA002003F0CBFA002003F0E4FA08BD012003F0A8FA012003F0C1FA012003F0DAFA08BD00BFF8B504460D4602F0F7FE2046A4
:4000C00002F0DCFC284602F03FFD012002F0C4FB02F068FE002002F07DFE02F06FFE02F08BFE02F095FE06F039FA00220D4B06F0C5FB06460F4602F0B9FE802C0FD900222B
:40010000094B3046394606F01FFD40B1002002F0B5FC002002F018FD0A2002F09DFB30463946F8BD00004A400000244038B5044602F0BCFE204602F007FD012002F08CFB64
:4001400002F030FE002002F045FE02F037FE02F053FE02F05DFE06F001FA0022044B06F08DFB04460D4602F081FE2046294638BD00004A4038B50546084602F07FFC0020FE
:4001800002F0E2FC00240BE02046FFF7CFFF0022054B06F0D9FC08B1204638BD0134E4B2AC42F1D3002038BD0000F03F38B504461546084602F062FC11E02046FFF7B6FFF2
:4001C0000022094B06F0B6FC38B1002002F056FC002002F0B9FC601E38BD0134E4B2AC42EBD3204638BD00BF00003440000000002DE9F04F93B0059088469246994607ACF0
:40020000694D0FCD0FC495E8030084E803000027B7E0CDF8109053463A464946634801F007FD002675E0624B1B684BBB0020ADE0B9F1010F0DD818F80710F0B2FFF73AFF0A
:4002400002460B462046294606F03CF804460D4613E00AEBC703D3E9000106F0A7FCC6F1BC03C1B2D8B2FFF725FF02460B462046294606F027F804460D460BF1010B03E0A9
:40028000002400254FF0000B4A4B18688345CFDB06F064F902460B462046294606F0EEFA04460D46049B0193009602460B463F4801F042FD38A3D3E900232046294606F04A
:4002C000B3F937A3D3E9002306F0AEF904460D46059806F043F902460B462046294606F0CDFA06F03BFC0446002E0FDD12AB03EB870353F82C3C009300F10A0306F11E0244
:4003000002990A3103981E3000F0ECFB039602940136BB2E87DDB9F1030F26D8DFE809F0020B141D0AEBC703D3E9002322490DA807F088F919E00AEBC703D3E900231F4987
:400340000DA807F07FF910E00AEBC703D3E900231B490DA807F076F907E00AEBC703D3E9002318490DA807F06DF9012300930DAB4FF6FF7202990A310398253001F09EFAE0
:400380000137114B1B689F42FFF643AF13B0BDE8F08F00BFAFF300800000000000C06C409A9999999999E93F388E0000508E0000C481FF1FD080FF1F5C8E0000648E00001A
:4003C000708E0000788E0000D880FF1F000000002DE9F04192B062B602F026FB02F0B4FA012002F0A5FA642002F036FA002002F09FFA642002F030FA012002F099FA642062
:4004000002F02AFA00F0A2FA03F0CEF803F0BEF803F0B0F8002003F0A5F802F0CDFB02F065FB02F0B1FC02F0A1FD0021382002F073FFA42003F002F8002002F0FFFF02F0A2
:40044000E1FF02F0A7FD03F00FFA0321B84803F034FCB849B84803F029FB0446B74A01AB07CA03C31A8001A807F010F9024601A9204603F04CFC204603F052FA00F06AFD4B
:40048000AF4B1B68022B08D0072BF9D10021084601F076F800F05EFDF2E7AA4C2078FFF7F1FD2368012B05DC1521FF20FFF762FE804604E00D21FF20FFF75CFE8046B8F161
:4004C000000F10D1002000F033FA4FF6FF739E4A9621642001F0F2F99C499D4801F080FBC82002F0B9F95FFA88F4DC22BC212046FFF75CFEC8EB0000964B1F687E1EB0FB8F
:40050000F6F6F6B28DF840408E4B1D68032D29D8DFE805F002112A3D404606F00FF880A3D3E9002306F080F800228B4B06F07CF8CDE9040116E0404606F000F878A3D3E90C
:40054000002306F071F80022834B06F06DF876A3D3E9002305F0B4FE0022804B06F08EF9CDE90401012493E0404605F0E7FF6CA3D3E9002306F058F80022774B06F054F897
:400580000022774B05F09CFECDE90401EAE7404605F0D4FF62A3D3E9002306F045F800226D4B06F041F800226D4B05F089FE00226A4B06F063F9CDE90401D3E7631E12AA9D
:4005C000134413F8080C3044C0B21346234403F8080C032D5BD8DFE805F002132D4205F0BDFF4FA3D3E9002306F01EF800225A4B06F01AF812AB03EBC40343E90E0146E0FD
:4006000005F0ACFF46A3D3E9002306F00DF80022514B06F009F844A3D3E9002305F050FE00224E4B06F02AF912AB03EBC40343E90E012CE005F092FF39A3D3E9002305F0D6
:40064000F3FF0022444B05F0EFFF0022444B05F037FE12AB03EBC40343E90E0117E005F07DFF2FA3D3E9002305F0DEFF00223A4B05F0DAFF00223A4B05F022FE0022374BAC
:4006800006F0FCF812AB03EBC40343E90E010134BC4293DB00240025002612E02D4B1B68013B12AA134413F8081CBC20FFF702FD02460B462046294605F004FE04460D4655
:4006C0000136284B18688642E8DB05F047FF02460B462046294606F0D1F806F03FFA224C84FB0034C017C0EB640404EB84040534144D2968204600F065FB2B7804AA10A941
:400700002046FFF775FD002002F0B8F9002002F01BFA0B4B1B68002BFBD1AFE6AFF30080FCA9F1D24D621040666666666666E63F848E00008C8E0000908E0000E88E0000CA
:40074000C481FF1FCC80FF1F9C8E0000AC8E0000E08E0000D880FF1F0000703F0000244000002E40D080FF1F6766666610B50446002002F0D1F8204602F018F902F0C4F8DB
:400780000028FBD102F0C0F80128FBD110BD00BF10B50446012002F0BFF8204602F006F902F0B2F80028FBD102F0AEF80128FBD110BD00BF38B50244013A42EA00450B4413
:4007C000013B43EA01442A20FFF7D0FF012002F0A3F8002002F08CF8280E02F0E7F802F093F80128FBD1C5F3074002F0DFF802F08BF80128FBD1C5F3072002F0D7F802F0BB
:4008000083F80128FBD1E8B202F0D0F802F07CF80128FBD102F06CF82B20FFF7A7FF012002F07AF8002002F063F8200E02F0BEF802F06AF80128FBD1C4F3074002F0B6F8AD
:4008400002F062F80128FBD1C4F3072002F0AEF802F05AF80128FBD1E0B202F0A7F802F053F80128FBD102F043F82C20FFF77EFF38BD00BF2DE9F041BDF81850EF283FDCFD
:4008800090461F46B1F5A07F3ADA8318013BEF2B03DDC0F1F0080FFA88F8CB19013BB3F5A07F02DBC1F5A0773FB2BBB21FFA88F289B280B2FFF77EFF2E0AEDB2012002F0D5
:4008C0002BF8002002F014F815E0304602F06EF802F01AF80128FBD1284602F067F802F013F80128FBD1013C24B200E04446002CEBDC013F3FB2002FF8DC012001F0F8FF9D
:40090000BDE8F08130B583B015461A464042441B04F5A0744942C81AF030BDF8183000932B4621B200B2FFF7A5FF03B030BD00BF00B583B00090F0234FF4A0720021084685
:40094000FFF7E0FF03B05DF804FB00BFF8B50E4D16E0FFF70BFF6F7807F07F02023505E06E1C2878FFF714FF22463546531EDCB2002AF5D117F0800F02D0782001F06CFF02
:4009800028780028E5D1F8BDF48E000080B2EF2822D8002920DBB1F5A07F1DDA10B5144601231A4689B2FFF705FF012001F0B4FF002001F09DFF200A01F0F8FF01F0A4FF6F
:4009C0000128FBD1E0B201F0F1FF01F09DFF0128FBD101F08DFF10BD704700BF08B5C0F59F730133C1F1EF0019B200B2FFF7CEFF08BD00BF2DE9F04F83B005460E461746AC
:400A0000BDF830200092C1EB0308B8F1000FB8BFC8F10008C0EB0709B9F1000FB8BFC9F10009C84504DD3A461F4613460D460646BD4205DD32461E4613462A463D46174699
:400A4000C5EB070B1FFA8BFB0FFA8BF4C6EB030ABAF1000FB8BFCAF1000A04EBD47464109E4202DA012301931EE04FF0FF3301931AE0C84505DD009A29463046FFF7AEFFAC
:400A800004E0009A31462846FFF7A8FFCAEB0404A3B21CB2002C05DA019A164436B20BEB030424B201352DB2BD42E2DD03B0BDE8F08F00BF00B583B00244013A00930B46E5
:400AC00012B2FFF797FF03B05DF804FB00B583B00A44013A009313B20246FFF78BFF03B05DF804FB10B582B0BDF8104090420BD1994202DD0A46194613465A1A013223468B
:400B000012B2FFF7E3FF10E099420BD1904202DD034610461A46121A0132234612B2FFF7C9FF02E00094FFF765FF02B010BD00BF2DE9F04F87B00390049115469B46BDF8C5
:400B40004430059393B2C3F101073FB2C3EBC3335E0036B2BDF9403001339BB2029301924FF00009012466E0002F06DB013D2DB20236B3B21EB21F443FB21FFA89FA0AF186
:400B800001081FFA88F80FFA88F90234A3B21CB21F443FB26B1C994523DA1BF0010F0ED0A9B2029B03EB4102049B591A039B08EB0300059B12B209B200B2FFF787FF1BF0DA
:400BC000020F0ED0A9B2029B03EB4102049B591A039BC8EB0300059B12B209B200B2FFF775FF019B9D4226D01BF0010F0ED0029B03EB4A02049BCAEB0301039B019818183C
:400C0000059B12B209B200B2FFF760FF1BF0020F10D0029B03EB4A02049BCAEB0301039B0198181A059B12B209B200B2FFF74EFF019500E00195A94596DB07B0BDE8F08FA0
:400C4000F0B583B006460C4615461F4691B24A000132611A12B209B2FFF738FF01970023009303232A4621463046FFF761FF03B0F0BD00BF2DE9F04F85B002AF8246884650
:400C800016461D46B7F83490BC6BB7F830E0CDF800E0FFF737FE06EBD67E0AEB6E0E05EBD57508EB6508002201E0013201342378002BFAD102F1080323F00703ADEB030D3D
:400CC00002AB1D46A41A002103E014F8010B685401318A42F9DC00219954C2EBC201B1420CDA01EBD171AEEB6100012200924A4608F1FF31033000F0E1FD5DE0B1425BDD25
:400D00002F4C84FB06343444F617C6EBA40424B2013C00E0013C2B5D202BFBD104F1010BC7F804D004F1080323F00703ADEB030D02AB9C46121B511C396002F1080121F0AA
:400D40000701ADEB010D0DF1080A5046002603E0A95D0CF806100136B442F9DC002104E066180136AE5D465401319142F8DB002119550AF802103A68541ECBEBCB0B0BEB84
:400D8000DB7BAEEB6B00C4EBC40404EBD474AEEB64040434012500954A4608F10301053000F08CFD009553464A46A8F10501204600F084FDD7F804D00C37BD46BDE8F08FBB
:400DC00093244992F0B58BB006460C460020FFF7AFFD304605F0C2FB02460B460020534905F04CFD05F0BAFE07464FF6FF7500950A23DC2219461E20FFF774FE0095C9236D
:400E00001E220A211046FFF76DFE012C01D8152500E00C2514F0010F12D101240094444B4FF6FF720421E62000F048FD0094414B4FF6FF72D921032000F040FD012431E094
:400E4000012400943C4B4FF6FF720421E62000F035FD0094394B4FF6FF72D921032000F02DFDEBE7364907A806F0ECFB354B1B68012B0BD104FB07F10A3109B24FF6FF739E
:400E800000930B46DC221E20FFF72CFE07FB04F10123009307AB4FF6FF720A31032000F00DFD013404EB84029642DBDA012420E02246254906A806F0C5FB224B1B68012BD2
:400EC0000BD104FB05F01E3000B24FF6FF730093CA2302460A21FFF705FE04FB05F00123009306AB4FF6FF7204211E3000F0E6FC0134BD2393FBF5F39C42D9DD134B93E830
:400F0000030004908DF8141004AB0293002301934FF4784300931E233C22D1218220FFF7A9FE02220A4B1A600BB0F0BD00008E408C8F0000948F0000A08F0000A88F000048
:400F4000B48F0000DC80FF1FB88F0000BC8F0000C481FF1F30B585B00024314B1C601F230093F023A02221462046FFF7CBFC4FF478430093F023A02221461046FFF7C2FC7E
:400F80000094F023022221469F20FFF7BBFC009402234FF4A07277212046FFF7B3FC00941623FC226D212120FFF7ACFC1D4B029301944FF6FF7300931223F8226F2123208C
:400FC000FFF758FE184B0293019449F69F65009563238B220A210846FFF74CFE134B02930194009563238B2283210A20FFF742FE0F4B029301944FF6F345009563238B2237
:401000000A21AB20FFF736FE0A4B02930194009563238B228321AB20FFF72CFE05B030BDC481FF1FC48F0000E08F0000EC8F0000F48F00000090000070B59EB00122434B41
:401040001A6019AC424D0FCD0FC42B6824F8023B1B0C23703F4B15AE0FCB86E80F0010AC3D4D0FCD0FC42B6823700AAC3B4D0FCD0FC495E8030044F8040B2180384B93E837
:4010800003000890ADF82410090C8DF82610354A05AB07CA03C31A7019AB02930024019449F69F65009577231A4621462046FFF7E1FD029601944FF6F346009677231A46DC
:4010C00079212046FFF7D6FD10AB02930194009677231A4621467920FFF7CCFD0AAB02930194009577231A4679210846FFF7C2FD08AB029301944FF6FF75009577234F22B2
:401100002146F120FFF7B6FD05AB02930194009577234F227921F120FFF7ACFD0094F023022221467720FFF7EDFB009402234FF4A07277212046FFF7E5FB0094F023022276
:401140002146EF20FFF7DEFB1EB070BDC481FF1F089000001C9000002C90000040900000589000006090000070B586B00322374B1A600020FFF7DCFB354B029300240194ED
:401180004FF6FF7500951423EF22DB212046FFF771FD304B0293019400953223462296215020FFF767FD2C4B0293019400953223462250210846FFF75DFD284B02930194BC
:4011C0000095322346220A215020FFF753FD244B029301940095322346229621A020FFF749FD204B029301940095322346225021A020FFF73FFD1C4B029301940095322359
:4012000046220A21A020FFF735FD0A2205A9174B186805F02EFD0226009605AB2A466921142000F04BFB124B029301940095F0234F222146F120FFF71DFD0094F02332463E
:401240002146EF20FFF75EFB06B070BDC481FF1F6C900000889000009090000098900000A4900000AC900000B8900000D080FF1F58900000F0B58DB00422434B1A600020C9
:40128000FFF756FB414B0293002601964FF6FF7700971423EF22DB213046FFF7EBFC05AC3B4D0FCD0FC495E8070003C4227005AB0293019600970A23EF22AA213046FFF773
:4012C000D9FC344B1B68012B16D1334B0293019649F69F6300933223502264211E20FFF7C9FC2E4B0293019600973223502264218220FFF7BFFC31E0CBB9274B02930024A6
:4013000001944FF6FF7300933223502264211E20FFF7B0FC214B0293019449F69F6300933223502264218220FFF7A4FC16E01A4B0293002501954FF6FF74009432235022F6
:4013400064211046FFF796FC144B0293019500943223502264218220FFF78CFC104B0293002401944FF6FF730093F0234F222146F120FFF77FFC0094F02302222146EF20DF
:40138000FFF7C0FA0DB0F0BDC481FF1F1C900000CC900000D480FF1FC4900000C89000005890000030B587B00522234B1A600020FFF7BEFA214B0293002401944FF6FF7536
:4013C00000951423EF22DB212046FFF753FC1C4B02930194009546231A461E218220FFF749FC184B02930194009546231A4678218220FFF73FFC0A2205A9134B186805F05A
:4014000038FC0323009305AB2A466921322000F055FA0E4B029301940095F0234F222146F120FFF727FC0094F02302222146EF20FFF768FA07B030BDC481FF1FE89000003F
:401440000491000010910000D880FF1F58900000F0B58FB00622434B1A600020FFF768FA414B0293002601964FF6FF7700971423EF22DB213046FFF7FDFB05AC3B4D0FCD5F
:401480000FC40FCD0FC42B68236005AB0293019600971423EF22AA213046FFF7EBFB344B1B68012B16D1334B0293019649F69F6300933223502264211E20FFF7DBFB2E4B5A
:4014C0000293019600973223502264218220FFF7D1FB31E0CBB9274B0293002401944FF6FF7300933223502264211E20FFF7C2FB214B0293019449F69F630093322350226C
:4015000064218220FFF7B6FB16E01A4B0293002501954FF6FF7400943223502264211046FFF7A8FB144B0293019500943223502264218220FFF79EFB104B02930024019467
:401540004FF6FF730093F0234F222146F120FFF791FB0094F02302222146EF20FFF7D2F90FB0F0BDC481FF1F1C9100003C910000DC80FF1FC4900000C8900000589000004A
:40158000F0B58DB04FF6FF70FFF7D2F9974C0723236001250095964B0022E621052000F08DF90095934B0022DE21052000F086F94BF605436E2277219F20FFF741FB23688F
:4015C000072B40F010814FF6FF73009313235022DC210020FFF796F90095874B0022E621052000F06BF90095844B0022DE21052000F064F94BF265135F2277219F20FFF7E1
:401600001FFB7A4B1B68072B40F0ED804FF6FF73009313235022DC210020FFF773F90095774B0022E621052000F048F90095754B0022DE21052000F041F94EF2C9635A2285
:4016400077219F20FFF7FCFA684B1B68072B40F0CA804FF6FF73009313235022DC210020FFF750F90095684B0022E621052000F025F90095654B0022DE21052000F01EF9C1
:401680004BF265130A2254218220FFF7D9FA574B1B68072B40F0A7804BF265130A2294217320FFF7CDFA4BF265130A228421B820FFF7C6FA4BF265130A2271215C20FFF7DC
:4016C000BFFA4BF265130A226221CD20FFF7B8FA4BF265130A2274219420FFF7B1FA4BF265130A224421B820FFF7AAFA4BF265130A2236219920FFF7A3FA4BF265130A2250
:40170000BD21AE20FFF79CFA4BF265130A22A8218C20FFF795FA4BF265130A229A21D020FFF78EFA4FF6FF73009313235022DC210020FFF7E7F802AC354D0FCD0FC40FCDED
:401740000FC495E8030084E80300324B1B68324A106800FB03F005F013FF4FF47A7705F037FF2E4A80FB0223C418C317C3EBE414C4EBC40404EB4414041B05F029FF284B7E
:4017800083FB0023C617C6EB6316EC2303FB160605F01EFF234D054003D5013D65F00305013505F015FF204B83FB0032C317C3EBA20303EB83035A00831A0CAA02EB830303
:4017C00053F8282C0095194B3146204600F076F8384601F041F80A3F002F00DC0127034B1B68072BBBD00DB0F0BD00BFC481FF1F6091000068910000709100007C910000E0
:40180000849100008C910000949100009C910000648F0000C881FF1FCC81FF1F0352DA8DBF3CB6220300008067666666A89100002DE9F04782B092469DF8285000260122CE
:4018400006E01D4CA45C224492B2013292B201369E42F6DB013296B24FEA4509C9EB01010FB2C9EB00000FFA80F94FF000081DE0A3190133104AD05C691ECDF800A02B464A
:401880002A4601FB087105FB0090FFF73BF8013400E00024084B9B5D9C42E9DB01373FB21E44B6B20136B6B208F10108B8F1060FEFDD02B0BDE8F087149200002DE9F04389
:4018C00083B081460F4690461E469DF828506B1EDBB2072B00D901254C467AE1203B3A2B00F26C81DFE813F063016A016A016A016A016A016A016A016A016A016A016A01B8
:401900006A016A015B016A013B0043004B0053005B0063006B0073007B0083006A016A016A016A016A016A016A018B0093009B00A300AB00B300BB00C300CB00D300DB00B6
:40194000E300EB00F300FB0003010B0113011B0123012B0133013B0143014B01530100950023424639462046FFF762FF26E100950123424639462046FFF75AFF1EE100953B
:401980000223424639462046FFF752FF16E100950323424639462046FFF74AFF0EE100950423424639462046FFF742FF06E100950523424639462046FFF73AFFFEE00095EE
:4019C0000623424639462046FFF732FFF6E000950723424639462046FFF72AFFEEE000950823424639462046FFF722FFE6E000950923424639462046FFF71AFFDEE00095A1
:401A00000A23424639462046FFF712FFD6E000950B23424639462046FFF70AFFCEE000950C23424639462046FFF702FFC6E000950D23424639462046FFF7FAFEBEE0009551
:401A40000E23424639462046FFF7F2FEB6E000950F23424639462046FFF7EAFEAEE000951023424639462046FFF7E2FEA6E000951123424639462046FFF7DAFE9EE0009504
:401A80001223424639462046FFF7D2FE96E000951323424639462046FFF7CAFE8EE000951423424639462046FFF7C2FE86E000951523424639462046FFF7BAFE7EE00095B4
:401AC0001623424639462046FFF7B2FE76E000951723424639462046FFF7AAFE6EE000951823424639462046FFF7A2FE66E000951923424639462046FFF79AFE5EE0009564
:401B00001A23424639462046FFF792FE56E000951B23424639462046FFF78AFE4EE000951C23424639462046FFF782FE46E000951D23424639462046FFF77AFE3EE0009513
:401B40001E23424639462046FFF772FE36E000951F23424639462046FFF76AFE2EE000952023424639462046FFF762FE26E000952123424639462046FFF75AFE1EE00095C3
:401B80002223424639462046FFF752FE16E000952323424639462046FFF74AFE0EE000952423424639462046FFF742FE06E000952523424639462046FFF73AFEC5EBC5036E
:401BC0001C4424B2B4F59E7F02DD093F3FB24C4601363378002B7FF481AE03B0BDE8F08338B50D46074901F061FF0446284605F04DFD02462946204602F089F8204601F006
:401C00008FFE38BD6495000038B50D46074901F04DFF0446284605F039FD02462946204602F075F8204601F07BFE38BD689500002DE9F04397B006460F4691469846354BD5
:401C40001B68ADF850301B0C8DF85230324B1A889B78ADF853208DF85530304B129303F1FF2303F57103139303F5602303F5806310932B4B1B68ADF844301B0C8DF84630C5
:401C80006C46284D0FCD0FC40FCD0FC40FCD0FC495E8030044F8040B24F8021B090C2170B9F1000F03D169463046FFF799FF7C08A70010ABD9193046FFF7A6FF1A49304644
:401CC000FFF7A2FF08EBC908D8E9002317490EA805F0B8FC0EA93046FFF796FF144D29463046FFF791FF04EB440114AB19443046FFF78AFF0F493046FFF786FF12ABD91925
:401D00003046FFF781FF29463046FFF77DFF17B0BDE8F0838495000088950000566473006C9500008C95000070950000749500007C950000809500002DE9D04384B0044621
:401D400016461F469DF828009DF82C30012B11D804F004FC0022224B04F066FC1EA3D3E9002304F061FC00221E4B04F05DFC8046894610E004F0F2FB0022194B04F054FC0D
:401D800015A3D3E9002304F04FFC0022164B04F04BFC8046894632463B46144901A805F051FC01A92046FFF72FFF11492046FFF72BFF42464B460F4901A805F043FC01A9AD
:401DC0002046FFF721FF0C492046FFF71DFF04B0BDE8D083AFF30080FCA9F1D24D6210400000703F0000084000001040C495000080950000C89500007C95000030B587B026
:401E000004460D46A74B1B68082B00F2D882DFE813F009004F00880098009E01F9015A02AE02B702A0F123039BB2F82B07D86E2905D9812903D807229A4B1A6034E0A4F140
:401E40000A039BB28B2B09D8092D07D96D2D05D80022954B1A60FFF7EFF825E08B2B09D8822D07D9E62D05D801228F4B1A60FFF7E3F819E0A4F1AB039BB28B2B09D8092DD2
:401E800007D96D2D05D80222874B1A60FFF7D4F80AE08B2B08D8822D06D9E62D04D80322814B1A60FFF7C8F87E4B5C609D6086E2772804D8772902D8FFF756F97FE2772C53
:401EC00006D8782D04D9EF2D02D8FFF7D3F976E2A4F179039BB2772B04D8772D02D8FFF761FA6CE2772B06D8782D04D9EF2D02D8FFF7AEFA63E2F13CA4B24E2C04D8772D21
:401F000002D8FFF727F85AE24E2C00F25882782D40F25582EF2D00F252820222614B1A604DE2A0F18204A4B23C2C00F24882D02940F24582EF2900F242820022594B1A6096
:401F40003DE2A0F1F1039BB24E2B04D8EF2902D8FFF772F833E2A4F150039BB2462B26D8952D24D9C82D22D84F4A536801335360B3F57A7F03DD4FF47A724B4B5A60002304
:401F800000931E233C225F210A20FEF7BBFC0A2205A9454B586804F06CFE0223009305AB4FF6FF7269211420FFF788FC07E2462B26D84F2D24D9822D22D83B4A53680A33C4
:401FC0005360B3F57A7F03DD4FF47A72364B5A60002300931E233C225F210A20FEF792FC0A2205A9304B586804F043FE0223009305AB4FF6FF7269211420FFF75FFCDEE18B
:40200000462B26D8092D24D93C2D22D8264A536864335360B3F57A7F03DD4FF47A72224B5A60002300931E233C225F210A20FEF769FC0A2205A91C4B586804F01AFE0223C4
:40204000009305AB4FF6FF7269211420FFF736FCB5E1A03CA4B2462C28D8952D26D9C82D24D8114A5368013B5360002B02DC01220D4B5A60002300931E233C225F210A2053
:40208000FEF740FC0A2205A9074B586804F0F1FD0223009305AB4FF6FF7269211420FFF70DFC8CE1C481FF1FCC80FF1F462C24D84F2D22D9822D20D8B64A53680A3B5360CD
:4020C000002B02DC0122B34B5A60002300931E233C225F210A20FEF715FC0A2205A9AD4B586804F0C6FD0223009305AB4FF6FF7269211420FFF7E2FB61E1462C00F25F8179
:40210000092D40F25C813C2D00F25981A14A5368643B5360002B02DC01229E4B5A60002300931E233C225F210A20FEF7EBFB0A2205A9984B586804F09CFD0223009305AB12
:402140004FF6FF7269211420FFF7B8FB37E1A0F1F1039BB24E2B04D8EF2902D8FEF76CFF2DE1A4F11E039BB2502B22D8632D20D9962D1ED8884B02930024019449F69F6387
:4021800000933223502264211E20FEF773FD834B029301944FF6FF7300933223502264218220FEF767FD01227A4B9A6001F06AFA05E1823CA4B2502C00F20181632D40F231
:4021C000FE80962D00F2FB80734B0293002401944FF6FF7300933223502264211E20FEF749FD6E4B0293019449F69F6300933223502264218220FEF73DFD01F03FFA654B68
:402200009C60DCE0A0F1F1039BB24E2B04D8EF2902D8FEF711FFD2E0823CA4B2462C26D81D2D24D9642D22D85A4BDB68012B03DD013B584AD36002E00122564BDA600023B8
:4022400000931E233C225F212820FEF75BFB0A2205A9504BD86804F00CFD0323009305AB4FF6FF7269213220FFF728FBA7E0462C00F2A580772D40F2A280BE2D00F29F804F
:40228000444BDB68052B03DC0133424AD36002E00622404BDA60002300931E233C225F212820FEF72FFB0A2205A93A4BD86804F0E0FC0323009305AB4FF6FF7269213220D5
:4022C000FFF7FCFA7BE0A0F1F1039BB24E2B04D8EF2902D8FEF7B0FE71E0A4F11E039BB2502B20D8632D1ED9962D1CD82A4B02930024019449F69F630093322350226421F3
:402300001E20FEF7B7FC254B029301944FF6FF7300933223502264218220FEF7ABFC01221C4B1A614BE0823CA4B2502C47D8632D45D9962D43D8184B0293002401944FF6E8
:40234000FF7300933223502264211E20FEF792FC124B0293019449F69F6300933223502264218220FEF786FC0A4B1C6127E0B0F5A07F24D2EF2922D80022094B1A601EE0F8
:40238000A0F1F1039BB24E2B0CD8EF290AD8FEF7E1FD14E0CC80FF1FC4900000C8900000C481FF1FA4F164039BB2502B07D8632D05D9962D03D829462046FFF7E1F807B0AA
:4023C00030BD00BFFEE700BFF0B40022174611E050F82760F3B226F0FF0608E001EB420511F812406D78A5550132013BDBB2002BF4D10137172FEBD9F0BC704708B50A46F7
:40240000002104F043FC08BDF8B5164B1B78DBB2154E3478E4B2154F3D78EDB203F00701134A11701B090132137044F00303337045F003033B7080220E4B1A70012103F5E3
:40244000C173197020230C490B7090310A700B4A13700A2000F016FA3D7034704422084B1A70F8BDCF010049F8460040F94600406E58004009590040985A00402B5B004050
:402480007658004008B504F0F6FB08BD38B500242E4B1C8058232E4A1370023214800232137004222B492C48FFF7ECFF02222B4B1A7008224FF040231A70032103F5007394
:4024C0001970274B1B78DBB226490B70264B1A8041F25122023B1A8019250CE0234B1B7803F0010343EA440404F003044FF4F07001F0E6F8013D0DB1032CEFD115B903206F
:40250000FFF760FF1A4B4FF480721A8007221A70002218490A704820023108701A700222033B1A7004220A331A70134A137843F003031370013A137843F001031370013A8D
:40254000137843F08003137038BD00BF8040004082400040D4050048004100400043004008010049A146004022420040254200400440004006400040A2430040012807D8C1
:40258000044B53F820201844017A13780B431370704700BFCC950000012808D8044B53F820201844017A137823EA010313707047CC950000012808D8044B03EB8002D26844
:4025C0001844017D13780B4313707047CC950000012809D8054B03EB8002D2681844017D137823EA01031370704700BFCC950000012809D8054B03EB80029269184490F810
:40260000201013780B431370704700BFCC95000001280AD8054B03EB80029269184490F82010137823EA010313707047CC95000038B572B6374A137843F004031370002424
:402640000BE0354863001A19510001440A46098D506AFFF7D3FE0134E4B2082CF1D900240BE02D49A3001819420088188022016EC06DFFF707FF0134E4B2002CF1D02749F9
:402680004FF09040FFF7A0FE254A137843F0020313701032137843F002031370214C237843F040032370A2F58632513A137843F01003137008221C491C48FFF7E3FE082207
:4026C0001B491C48FFF7DEFE08221B491B48FFF7D9FE08221A491B48FFF7D4FE08221A491A48FFF7CFFE1A4A137843F008031370184D61232B70FFF7C9FE81232B700122C5
:40270000154B1A70FFF780FE0E2221461348FFF7B9FE38BDE8460040CC9500006000004803500140A0430040AC05004802510040B4050048C2510040BC050048F25100400D
:40274000C405004812510040CC05004832510040224300400048004004000840B043004008B504F043FA03680C2B00D1FEE7FEE708B5094B1A681044084BC31AB3F5805F54
:4027800002DC054B186005E004F030FA0C2303604FF0FF32104608BDE080FF1FA892FF1F08B5104E104D16E029686B68AC68002204E051F8040B43F8040B0432A242F8D10C
:4027C000E868002203E0002143F8041B04328242F9D11035013E002EE6D104F00DFAFDF7F7FDFEE7010000000899000008B5104A104B1A60104A136843F400731360002371
:402800000AE0032B03D80D4A52F8231000E00C490C4A42F8231001332F2BF2D90A4B1A780A4B1A70074A0A4B1A60FFF701FF08BD0004FA050CED00E014ED00E00000000022
:40284000612700000080FF1FBC760040C080FF1F08ED00E001BE704710B5044605E0084B186800F02DFFA4F50044B4F5004FF6D8034B586800FB04F000F022FF10BD00BFF7
:40288000E480FF1F08B5034B1B7A00FB03F000F017FF08BDE480FF1F70B504460E46074B1D681F2802D90020FFF7D4FF04F01F04103455F8240045F8246070BD08ED00E087
:4028C00038B504460D46072902D90020FFF7C2FF1F2C02D90020FFF7BDFF04F01F0000F1604000F564406D01EDB2057038BD00BF044A137803F0FD03400000F002001843A8
:402900001070704700510040024B1878C0F34000704700BF01510040044A137803F0FE0300F0010018431070704700BF00510040044A137803F0DF03400100F020001843FD
:4029400010707047F0510040054A137843F0020313701032137843F002031370704700BFA243004008B500F0B3FE094A137843F0200313700232137843F010031370043214
:40298000137843F01003137000F0A6FE08BD00BF90640040014B1878704700BF62640040014B1878704700BF66640040034B1B7813F0040FFAD0024B187070476264004070
:4029C0004164004008B501E00A4B1B780A4B1B7813F0200FF8D100F07BFE084B1A7842F001021A701A7802F0FE021A7000F074FE08BD00BF51640040666400409164004054
:402A000008B50F22064B1A70FFF7DCFFFFF7C2FFFFF7C6FF0023034A13700432137008BD806400408264004008B5054B1B7823B9FFF7E6FF0122024B1A70FFF793FF08BD31
:402A4000D081FF1F054A137843F0080313701032137843F008031370704700BFA8430040054B1A7802F0FD021A701A7800F0020010431870704700BF2C580040014B187053
:402A8000704700BF835B0040064B1B78C3F3810303F19243063393F83831DBB2024A1370704700BF2C5800400B46004008B5064B1A7802F0F3021A701A7800F00C00104355
:402AC0001870FFF7E1FF08BD2C58004010B50024054B1C7001331C700420FFF7E7FF2046FFF7BEFF10BD00BF2C58004008B5074B1B7823B9FFF7EAFF0122044B1A70FFF7B2
:402B0000A1FF6420FFF7BAFF08BD00BFD181FF1F054A137843F0020313701032137843F002031370704700BFA8430040054B1A7802F0FD021A701A7800F002001043187054
:402B4000704700BF24580040014B1870704700BF815B0040064B1B78C3F3810303F19243063393F83031DBB2024A1370704700BF245800400946004008B5064B1A7802F002
:402B8000F3021A701A7800F00C0010431870FFF7E1FF08BD2458004010B50024054B1C7001331C700420FFF7E7FF2046FFF7BEFF10BD00BF2458004008B5074B1B7823B972
:402BC000FFF7EAFF0122044B1A70FFF7A1FF6420FFF7BAFF08BD00BFD281FF1F08B50A280FD00C2802D0082806D102E04FF4805209E04FF4807206E00020FFF72BFE002205
:402C000001E04FF480620021084B198042F2107303FB02F313F5806301D503F2FF73DB12034A13600022034B1A8008BD0492FF1F0892FF1F0692FF1F10B500F049FD0446CC
:402C40001E4A137843F0020313701032137843F0020313701A3A137843F0010313701032137843F00103137002F5AA521A32137843F0030313701822114B1A70013B1A788A
:402C800042F040021A701A7802F0FC021A70CE22053B1A700222A3F59753123B1A70094A137843F0080313700A20FFF7EBFD0122054B1A60204600F00FFD10BDAB430040E2
:402CC0000E5900402F5B004080E200E008B500F0FFFC0F4A137803F0FE031370A2F5AA521D3A137803F0FD0313701032137803F0FD0313701A3A137803F0FE031370103258
:402D0000137803F0FE03137000F0E6FC08BD00BF0859004010B504460A280DD00C2802D0082804D101E0C22207E0422205E00020FFF790FDC22200E08222034B1A70204633
:402D4000FFF74CFF10BD00BF0A59004008B5102000F0BCF807210020FFF7B2FD07490020FFF79AFD064A137843F0060313700C20FFF7D0FF0022034B1A8008BD692E000077
:402D8000095900400C92FF1F08B5054B1B7823B9FFF7DCFF0122024B1A70FFF74DFF08BDD381FF1F044B1A7802F0FB021A701A7842F001021A70704708590040044B1A7811
:402DC00002F0FE021A701A7842F004021A7070470859004010B5074B1B7813F0010401D10028F8D024B10120FFF74CFD014B1B78204610BD09590040034B188880B2034BE0
:402E00001B88C01A00B27047A25B00400692FF1F10B4124B1B881BB233B1104B1B881BB203EB83035C0001E00D4B1C680D4B1988411A09B242F2107303FB01F2002903DD2C
:402E400004EBD470401003E004EBD47040104042831893FBF4F000B210BC70470492FF1F0892FF1F0C92FF1F704700BF08B50C4B1B7813F0020F0ED00A4B1B7813F0010F73
:402E800003D00322084B1A7002E00122064B1A70FFF71CFF08BD0022034B1A7008BD00BFAB43004008590040D481FF1F08B5064B1B7843B1FFF7C0FE034B1B7813F0020F89
:402EC00001D0FFF76FFF08BDD481FF1F034B1A7800F0F80010431870704700BF0241004038B50222114B1A7081220E3B1A70082202331A700F2511331D70002401331C708A
:402F00004FF400420A4B1A6007212846FFF7D8FC08492846FFF7C0FC1022074B1A70074B1C70074B1C70074B1C7038BDD649004080E100E0493000000E92FF1F1292FF1F36
:402F40001A92FF1F1092FF1F08B500F0C1FB064A137843F0040313701032137843F00403137000F0B9FB08BDA543004008B5074B1B7823B9FFF7B4FF0122044B1A70FFF792
:402F8000E3FF4FF40042024B1A6008BDD581FF1F00E100E02DE9F8434FF40049214BC3F80090DFF8A08098F800301F4CE3701F4F3B7823711E4E3378637130783B7843EAB8
:402FC000002001301B4D2B7803F0FE032B7080B200F076FB00F07CFB174A137803F0FB0313701032137803F0FB03137000F074FB2B7843F002032B70E37888F80030E37810
:4030000088F8003023793B70637933702B7803F0EF032B70094BC3F800901022084B1A70BDE8F88380E100E0F480FF1FDB490040DC490040D6490040A543004080E200E0C4
:403040000E92FF1FCA49004038B5A54B1C78A54B1B7813F0400F00F03A81E4B214F0010F00F01D819F4B1B78453B052B00F21481DFE813F006008200120112010600DF0005
:4030800004F0DF0504F00A04082C42D1954B1B78DBB2452B35D1944B1B7813F0FF0F10D0924B1B681B78DBB2914A137004228C4B1A7001228F4B1A7046228A4B1A702C46F1
:4030C000EDE08D4B1B7813F0020F0DD08B4A137843F00A0313706022824B1A704FF40042874B1A602C46DAE0864A137843F0100313701022844B1A700422023B1A702C46A0
:40310000CDE00022764B1A704A22764B1A702C46C5E00A2C2BD1794A137843F0A0031370754B1B7813F0020F14D06E4B1B7813F0080F01D0092300E00A23704A11780B4382
:4031400013706022674B1A704FF400426C4B1A602C46A4E06B4A137843F0100313701022694B1A700422023B1A702C4697E00020FFF770FB2C4692E014F0020F36D15D4BEA
:403180001A78D2B2584B1B78DBB29A4210D2594A1378DBB255490968CB5CDBB254490B7004214F4B197013780133DBB2137076E0514B1B7813F0020F0CD0504A137843F0FE
:4031C0000A0313706022474B1A704FF400424C4B1A6064E04B4A137843F0100313701022494B1A700422023B1A7058E0424B1B7813F0020F0CD0414A137843F09A031370F0
:403200006022384B1A704FF400423D4B1A6046E03C4A137843F01003137010223A4B1A700422023B1A70354A137843F09003137035E0364A1378DBB2354908682C49097866
:40324000C9B2C15413780133DBB213701278D2B2304B1B78DBB29A4203D21022204B1A701DE0254B1B7813F0020F0CD0234A137843F00903137060221A4B1A704FF40042CE
:403280001F4B1A600BE01F4A137843F0100313700022134B1A7002E00020FFF7DBFA14F0200F1CD00F4B1B7813F0080F01D0012300E00223114A11780B431370114A1378F0
:4032C00003F0EF0313701022064B1A7038BD054B1B7813F0100F02D11022024B1A7038BDD74900400E92FF1F1192FF1F1C92FF1FD84900401092FF1F1892FF1F1292FF1F38
:4033000080E100E0D6490040D94900401A92FF1F1492FF1F1992FF1F1A4B1B78DBB2102B29D1194B1B7813F0080F26D14FF40042164B1A604000C0B229B140F001004922EA
:40334000104B1A7002E045220E4B1A70104B1870012201331A700F4B1B7813F0010FFAD00C4B1B7803F00A030A2B08D11022054B1A700320704702207047012070470020FF
:40338000704700BF0E92FF1FD949004080E100E0D8490040D7490040164B1B7813F0040F23D04000C0B229B140F001004922124B1A7002E04522104B1A70104B1870122224
:4033C00001331A700422023B1A700D4B1B7813F0010FFAD00A4B1B7803F00A030A2B06D11022054B1A7003207047022070470020704700BFD94900400E92FF1FD849004090
:40340000D74900400A4B1B7813F0040F0ED01023074A13700421023A1170064A1370064B1B7813F0210FFAD00020704702207047D94900400E92FF1FD7490040114B1B7894
:4034400013F0040F1BD0104B18700422013B1A7046220E4B1A700E4B1B7813F0010FFAD00B4B1B7813F0020F04D16022074B1A70002070476022054B1A7003207047022009
:40348000704700BFD9490040D84900400E92FF1FD7490040114B1B7813F0040F1BD0104B1B78DBB2492B05D100220E4B1A704A220B4B1A700B4B1B7813F0010FFAD00A4B94
:4034C0001B78DBB218B11021064A117004E06021034A117000E0002318467047D94900400E92FF1FD7490040D849004038B510B1012805D102E00425032401E006250524A1
:40350000FFF734FD00213820FFF706FF2046FFF795FF01213820FFF73FFF0020FFF7BAFF84B2FFF76FFF00213820FFF7F5FE2846FFF784FF01213820FFF72EFF0020FFF7ED
:40354000A9FF85B2FFF75EFFFFF724FD240204F47064E8B2204338BD014B1B685864704708ED00E04001C0B2014B1870704700BF01E400E00222014B1A60704700E100E0E3
:403580000222014B1A60704780E100E008B5FFF7F7FF0448FFF7E0FF0720FFF7E3FFFFF7E9FF08BDB53500000222014B1A60704780E200E010B50120FFF798FF0446002013
:4035C000FFF794FF01462046FEF718FCFFF7ECFF10BD00BF10B5002404E02046FEF7DCFF0134E4B2012CF8D9FF22014B1A7010BDFA80FF1F10B50446FFF7ECFF2046FEF7AC
:40360000BDFF014B1C7010BDFA80FF1F10B5002404E02046FEF7DCFF0134E4B2012CF8D9FF22014B1A7010BDFB80FF1F10B50446FFF7ECFF2046FEF7BDFF014B1C7010BDBC
:40364000FB80FF1F10B5002404E02046FEF7E0FF0134E4B2012CF8D9FF22014B1A7010BDFC80FF1F10B50446FFF7ECFF2046FEF7BFFF014B1C7010BDFC80FF1F08B500F08E
:4036800005F808BD08B500F00FF808BD08B5044B1B78C3F30013034A137000F039F808BD936400400081FF1F08B500F061F8034B1B780BB100F014F808BD00BF0081FF1F19
:4036C0000230800803D000BF01380046FCD17047EFF3108072B6704780F31088704700BF08B5FFF7F5FF094A137843F020031370013A137843F0100313700432137843F0C8
:4037000010031370FFF7E8FF08BD00BF9464004008B5FFF7DDFF064A137803F0EF0313700432137803F0EF031370FFF7D5FF08BD93640040014B1878704700BF6364004040
:40374000014B1878704700BF67640040034B1B7813F0040FFAD0024B187070476364004044640040014B1878704700BF5464004008B501E00A4B1B780A4B1B7813F0200FC6
:40378000F8D1FFF7A5FF084B1A7842F001021A701A7802F0FE021A70FFF79EFF08BD00BF54640040676400409464004008B50F22064B1A70FFF7DCFFFFF7BCFFFFF7C0FFA2
:4037C0000023034A13700432137008BD846400408364004008B5054B1B7823B9FFF7E6FF0122024B1A70FFF77BFF08BDD681FF1F094B10B5D8689A68002308E0114652F807
:40380000084B1CB901230B60486810BD01338342F4D3002010BD00BF2092FF1F084B30B50022DC689B6808E05D6819460833854202D100230B6030BD0132A242F4D330BD50
:403840002092FF1F01230373704700230373704710B1002282720260704718B1027B0AB1013A02737047000038B501F02BFD20B3124C4200E260000101F018FD238AA06010
:40388000E068584301F012FDA568E168228A002304E005EBC3046060013380188B42F8D3102001F003FD054C6061282001F0FEFCA37CA06143F00203A37438BD2092FF1FA7
:4038C00038B510220D460021044601F021FCFFF78FFF08B9013038BDA0604FF0FF33002065602360A07338BD38B5837A044643B1056801F0F7FA2846FFF7AFFF2046FFF7AC
:40390000A7FF002038BD08B50368827A03B19B6822B11BB1FFF7E8FF002008BD012008BD08B901307047FFF7EEBF000038B5104B9C69217B59B921606160A16004F110001B
:40394000142201F0E5FB237B013323730DE0656A45B9282001F094FC606218B12946282201F0D6FB646A002CE3D1204638BD00BF2092FF1F38B50E4B5C69A17AE56839B952
:403980002046102201F0C4FB0123A372E5600CE045B9102001F074FCE06018B12946102201F0B6FBE468002CE7D1204638BD00BF2092FF1F2DE9F74F0646002088469146F3
:4039C0009B469DF830A09DF83470FFF7AFFF054608B9044610E0FFF7CDFF044660B180F80B900560AE604046214652463B46CDF800B001F0ABF830B12046FFF729FF2846D9
:403A0000FFF72BFF00242046BDE8FE8F2DE9FF410C461F4604A9002341F8043D15469DF8286000F0A5F88046B8B1039B0BB11B789BB1404600F025F900280EDD14F0150F17
:403A400001D0032809D1039939B1404622462B4600970196FFF7AEFF00E0002004B0BDE8F08100002DE9F3410646884600240E4D404655F83410E70001F080FB10B9002CAE
:403A800004DA0DE001340F2CF1D109E07D19A87929790090EA796B793046FFF7B7FF00E00020BDE8FC8100BF34960000FFF7DABF10B5437B04460BB1012010BD40682168EC
:403AC000A268A37B01F0C5FC10B10120607310BD207310BD10B5437B044663B9037B53B140682168A268A37B01F0B3FC08B1012363730023237310BD036870B599420446B8
:403B00000D46164607D0037B0BB1FFF7E3FF00232560A673E37370BDFFF7DCBF10B50446FFF7D8FFA068BDE81040FFF777BE01230373FFF7CFBF10B50446407B08B1012052
:403B400010BDE37B5BB960682168A268A37B01F01AFC10B10120607310BD0122E27310BD08B5436813B94FF0FF3008BD984708BD2DE9F0470F463A21064601F02EFB044607
:403B800010B93446174D27E00378C6EB000A5BB114F8013F43B162783A2A05D1A3F130085FFA88F8023401E04FF000080D4D2B6828791B689847814601F0EDFA504508D1C1
:403BC00048463146524601F0EEFA10B92B79434502D0AD6D002DEAD107B13C602846BDE8F08700BF3C92FF1FF8B5174C064694F85710A56D69B95C220127204601F088FAFB
:403C000084F85770A5653046FFF7AAFF00280EDA18E045B95C2001F033FBA06518B129465C2201F075FAA46D002CE0D10AE0074B26609A6F01329A670323207184F857707F
:403C400084F856302046F8BD3C92FF1F2092FF1FFFF7CABF38B504460D4601F062FB08B9013838BD204601F06FFB204601F008FD204600F0D5FC08B184F8555094F8550026
:403C800038BD90F8553023B990F8561009B1FFF7E1BF1846704710B590F8552004463AB931B1FFF7D7FF002802DC4FF0FF3010BD94F8550010BDFFF7EEBF10B50C4600215C
:403CC000FFF756FF08B9013810BD2146BDE81040FFF7F1BF30B51346BAB1B0B10268857A0AB1946804B900247DB172B16CB1C27A12F0100204D14FF6FA730381104630BD99
:403D00001A46BDE8304001F00FB9002030BDFFF7E1BF0C2802D0102805D102E001EB510070474800704788007047036840689B685B6AB0FBF3F0704710B5C46C436CE4B131
:403D400099421AD3E318994217D2013B99420CBF4FF0FF31013172B190F836300C2B02D0102B05D102E00905090D03E089B201E021F070411160012010BD002010BD40F6C5
:403D8000F473984201D80C2070474FF6F473984294BF102020207047027F8368023902FB01307047431EDBB21F2B13D92F2811D007D826280ED002D8222809D10AE02A38C9
:403DC00004E03A2804D33F2804D95B38022801D90120704700207047034638B30B2A01DD0B2200E0013A00201CE0082809D191F808C0BCF1200F0DD04FF02E0C03F801CB1D
:403E000008E038B991F800C0BCF1050F02D1ACF1200C04E011F800C0BCF1200F01D003F801CB01309042E0DB00221A7070472DE9F04788B005AE04460D46304611460022FD
:403E40009A469DF84490BDF84C80BDF8507000F0BDFC08B1002413E020462946524600F0AEFD044660B1129B31460093109A4B46CDF80480029700F065FF2846FFF7E2FCBD
:403E8000204608B0BDE8F08710B59DF80C400394BDE8104000F078BD2DE9F04F144E87B0109DDDF848809DF84440376800950194CDF8088005937F68934682468946B8471C
:403EC00032680C4BDDF814C09A420DD060B9504649465A46634610951194CDF8488007B0BDE8F04FFFF7D0BF07B0BDE8F08F00BF0481FF1FDC96000070B5C37A04460B701B
:403F000010300D4601F098F9064604F10E0001F093F940EA0640686004F1120001F08CF90004A86004F1180001F086F9064604F1160001F081F940EA0640E86004F11C00D7
:403F400001F061F9286170BD2DE9F845038A04460E46924687692BB907F118002146626900F004FC38465146224600F087FC0546204600F005FCD5B12B78C3B1E52BF1D0E4
:403F800095F80B80B8F10F0FECD018F00808E9D170692946B269FFF71FFF28463146FFF7ABFF238A404601332382BDE8F8854FF0FF30BDE8F8850222FFF79EBD2DE9F74F09
:403FC00004460D461E461746002A00F09B8090F836001146FFF79DFEB4F81EA0A36A20FA0AFA9A45814680F08D80638E04F118089A44284651464246FFF7DDFF2846FFF729
:404000009AFD6B7B002B7DD1A38B013B09EA0309AB681FFA89F909EB030B26B9226C974203D2276401E07A1C226494F83620102A0AD0202A11D1584601F0E5F8314607467C
:40404000584601F0EBF84EE0584601F0F5F8B1B20746584601F0ECF845E028460193FFF7F1FB019B17F0010F19F803701CD007F00F0242EA061209F80320A38B013B99451D
:4040800002D00BF1010309E028460AF101014246FFF791FF2846FFF74EFDAB681A78120142EA171732091DE009F80360A38B013B994502D00BF1010309E028460AF1010101
:4040C0004246FFF778FF2846FFF735FDAB681A7802F00F0147EA0127310A22F00F0201F00F010A431A702846FFF7ACFBE36BB3F1FF3F09D00FB10133E3632EB1E36B013B48
:40410000E36301E0012000E00020BDE8FE8F6FF07043FFF753BF70B5C36C04460E4693B1002506E0AA1820463146531CFFF746FF0135E36C626C013B9D42F3D32046314650
:40414000AA18FFF7E4FF00236364E364A364236570BD70B506460D461C460AB1FFF72EFF304629462246BDE87040FFF7D0BF2DE9F04790F8366005460C46304611469146E0
:40418000FFF7C7FDB5F81E80AB6A20FA08F89845824602D30020BDE8F0876B8E05F118079844204641463A46FFF705FF2046FFF7C2FC18B14FF0FF30BDE8F087AA8BA16819
:4041C000013A0AEA020A1FFA8AFA92450AEB01031AF8015001D0013309E0204608F101013A46FFF7E8FE2046FFF7A5FCA36818780C2E45EA002009D0202E0FD15D7840EAE2
:4042000005409D7840EA0560BDE8F08719F0010F02D00009BDE8F0870005000DBDE8F0872DE9F34190F83630144603FB02F7828B8846D200511E0F40D71B0546B7FBF3F76E
:40424000002618E00E4B93F87C30022B05D12846214601AAFFF770FD28B9284641462246FFF785FF0190019B0134A34205D10136B6B2013F1C46002FE4DC3046BDE8FC810D
:404280002092FF1F2DE9F34105460E46144698461F681CE0114B93F87C30022B05D12846214601AAFFF748FD28B9284631462246FFF75DFF0190737B0BB100240BE0AA6B5A
:4042C000019B0132934204D81BB1013F1C46002FE0D1C8F800702046BDE8FC812092FF1F73B504680E4623681BB9FFF71EFD013039E0FFF71AFD236998423CBF4FF0FF33E7
:4043000023612369B3F1FF3F04D12268013323616261E3832169E28B451A954234BF2B4613463BB16069C918C018D21A60612161E283ED1A0DB9284615E002AB43F8045DE6
:4043400031466269A068FFF79DFF6061019B21690246C91A4D19256123B9A0683146FFF75FFFE08301987CBD13B502AC44F8043D2346FFF787FF019B002B18BF00201CBD10
:404380002DE9F0410746884615461E460024384641462A460123FFF7E7FF30B1BA6B0134944201D80546F2E7002406B134602846BDE8F0812DE9F84504460E4615461F4691
:4043C000002B36D01C4B93F87C30022B31D190F8368011464046FFF79CFCB4F81CA00AF1FF3A2AEA000A4FEACA0ABAFBF8FAAA44A8460EE0204631464246FFF7B8FE50B9C4
:40440000636C0BB9C4F84480A36C08F101080133A364D045EED9A36C5BB127653B685A6922B1204631462B46FFF7C8FDE36C0133E364BDE8F88500BF2092FF1F2DE9F8458A
:404440009846274B054693F87C300F46022B1646846B19D1036D984503D0836C0BB1FFF75AFEB8F1000F0FD02B6D43450CD1EB6CAA6C9A4204D96C6C1C190133EB642CE044
:4044800028463946FFF747FE012E04F1010A01D9564505D92E6C012E01D9564500D902263446284639462246FFF761FE50B101345445F6D902240DE0284639462246FFF7F3
:4044C00056FE30B92846394622464346FFF772FF03E00134B442EFD300242046BDE8F8852092FF1FF8B507460E461546FFF7A6FF044628B1384631462A462346FFF729FE9C
:404500002046F8BDB2F1FF3F73B504460D4614D0561A013611D0FFF7FFFA084B00211A8AA06800F0F5FD022300936068A3682946324600F069FF0023E3737CBD2092FF1F11
:404540002DE9F84F984690F8363004460C2B0D4616465AD04FF0FF3AD1463CE094F836003146FFF7D6FBB4F81CB0678E0BF1FF3B10EA0B0BE38B1DD1D840013F3F1802222B
:4045800028463946FFF7B8FAA38BAA689B0852F80B1079B9013B0BF1040BF8D13BE0494628465246FFF7AEFFB946BB462846FFF74CF9DA462946324601232046FFF7D4FE87
:4045C00029460746324620460023FFF7F7FC2FB108F1FF383E46B8F1000FBFD1284649465246FFF78FFF13E02946324601232046FFF7BAFE29460746324620460023FFF75B
:40460000DDFC2FB108F1FF383E46B8F1000FEBD14046BDE8F88F0AF1010B5F45BFD1C5E72DE9F8450446FFF7E3F8054608B9044696E0204600F014FF4B4E338A834208D367
:4046400038B1002120462A460B4600F09CFE002804DA2846FFF7E2F8002481E005F5FF7000F0EAFD4AF65523984275D105F10B0000F0E2FD10F47E4F07466DD0338A8342F1
:404680006AD32B7C022B67D16E7B002E64D000213C2204F1180000F03BFD05F1130000F0CBFD804620B905F1200000F0ACFD804605F1160000F0C0FD824680B905F1280005
:4046C00000F0BAFD10F08F0F46D105F1240000F09AFD824605F12C0000F095FDE062022384F83530C4F828A0C4F8188084F8346005F10E0000F0A0FD608605F1110000F0B3
:404700009BFD638E94F83520208602FB0A3A7B099BB2B0FBF3F05044A7832062092301229A40BA4201D1E38302E00133102BF6D17743C0EB0800B0FBF6F0A0636762FFF754
:404740001EFB4FF0FF33202884F8360018BFC4F82CA0E363012400E000242846FFF75EF82046BDE8F88500BF2092FF1F00238B60837F202B01D102B942694A600A607047B8
:4047800083680133836070472DE9F0410C46202105461F469DF818604FF0000800F0B8FC10E014F8080036B9E52804D1B8F1000F01D1E03802E000F009FDC0B205F80800F8
:4047C00008F10108B845ECDBBDE8F0812DE9F74506460D4608462849002A14BF92464FF0FF3A00F0CBFC804650B930462946022200F05DFEB01C2021092200F089FC37E042
:4048000000274FF0FF3415F80780B8F1000F01D0574505D1B4F1FF3F08BF3C4664B925E04046FFF7BFFA08B3B8F12E0F08BF3C4601370D2FE7D119E0082C17DC3F1B042F0A
:4048400014DC30462946082223464FF00008CDF80080FFF799FF0123611C009306F10800691803227B1EFFF78FFF01E04FF001084046BDE8FE8500BFEC9600002DE9F74F4C
:40488000D2F808B0436A4FEA4B18B8FBF3F8D368054698450E461446D2F8009001D20023D360B5F81EA0E368AAF1050A0BB9D4F804902BFA0AF7B9F1000F17D095F83420D0
:4048C000B8EB0303019206D04A4628463146FFF74BFD814640B3494605F11800FFF75CFA019B591E01EA0707C11906E02B8E43FA0AF39F4218D2E96A79183046C4F8009020
:40490000C4F80C800122FFF7F7F83046FFF713F950B9013000FA0AFAB3680AF1FF3A0AEA0B0B03EB4B1000E00020BDE8FE8F2DE9FF4107460E4601A811461A460A9D9DF810
:404940002C40FFF743FFC8B9384631462A46FFF795FF8046A0B1037883B101A90B2200F0C7FB38B998F80B3004EA0302A24201D1082B05D12846FFF703FFE5E74FF00008ED
:40498000404604B0BDE8F0812DE9F04587B002AF04460E46154698469DF83CA039460E9A1830FFF7E3FE204631462A4643460097CDF804A0FFF7BBFF07B0BDE8F0852DE979
:4049C000F04500F1180785B005460C46384669469246FFF7CBFE284621466A46FFF74EFF06466846E846FFF7CBFE002E37D1BAF1000F02D12B8E002B35D12146009A00235C
:404A00002846FFF7BDFC2146024600232846FFF769FD80462046FFF78AF8B8F1000F22D0AA8B0021A06800F073FB38464146FFF7B3F995F8347000257E1E361808E031466D
:404A400020460122FFF758F82046FFF731F8013E01357B1BB3F1FF3FF1D1A66803E033780BB1E52BB7D1304605B0BDE8F08538B504461A3000F0E0FB054604F1140000F06E
:404A8000DBFB45EA004038BD2DE9F0451D4685B007460E462A6010465C21904600F09DFB4FF0000A0446A04508D108F10108C5F8008040465C2100F090FB044694B1C8EB2D
:404AC0000403002B0EDD10220192103A0292384631464246CDF800A0FFF7DEF970B1FFF7C6FF824628685C2100F077FBA04604460028D8D10C9B0130C3F800A005B0BDE8A6
:404B0000F085F8B505460C461E461746DAB16FF01A0313700846FEF795FE16B94FF47A7608E007F11C0000F06EFB6B6A5E1E3618B6FBF3F63846FFF79AFF214602463346D0
:404B40002846FFF7FDFC607BF8BD00002DE9F04FD1F8008093B0D8F808700BAD044608930E464FF0FF333946284609920F939DF870A0FEF7A5FE10AB0093384629462246B3
:404B800011ABFFF781FFD0B1F27A109B07920FAA00930292002338462946119A0193FFF77BF9044680B1C37A13F0100F07D10D9BDDF82CB0C3EB00094FEA691906E0284628
:404BC000FEF7ACFF0125A3E083468146099B002B3CD0002C33D0524B5D6912E02B687BB1AA7A6AB19A8B4A450AD19A695A4507D19B68BB4204D14FF6F772328100257EE0BD
:404C0000ED68002DEAD10DF12C0C6146384622460123CDF818C0FFF774FFDDF818C018B14FF0FF3333816AE03E4B1B68DC6824B138466146109A0F9BA0472C4606E0BAF1DD
:404C4000000F03D1089A002A44D065E0089BEBB1CCB1E37A13F0010F0BD0079A12F0150F07D04FF6FA733381BAF1000F01D1012500E000252046FFF7FAFE074604F11C00B8
:404C800000F0C1FA29E0BAF1000F45D0BAF1010F01D000251BE0ECB900F022FD214B20221B68019282B2000C03920490009402949D6838460BA9119A109BA84750B10D9A96
:404CC000DDF82CB0C2EB00094FEA6919254628462F4602E00125002007464FF0FF33C8F81030C8F818B0A8F81C90079AC8F8040012F0010308BF1846C8F800707060B6F94B
:404D000008300BA835EA230528BF0125FEF706FF284613B0BDE8F08F01255046DCE700BF2092FF1F0481FF1F70B505460C461A3089B200F07DFA05F11400210CBDE87040FA
:404D400000F076BA2DE9F0470446BDF824700D469146002120229A46BDF82860DDF8208000F0D6F90B222046294600F0A0FB04F10E00394684F80BA000F05AFA04F11000D6
:404D8000314600F055FA04F11600394600F050FA04F11800314600F04BFA20464946FFF7C3FF04F11C004146BDE8F04700F036BA07B5426803460AB910460AE08168002004
:404DC000009048681968DB6800F0FCFA003818BF01200EBD2DE9F047046805460F46A668FFF77EFA81468246002841D0D4F80080B8F1000F1BD14246304639462B46FFF75D
:404E00001DFB0246D8B11C4B6061C4F8108093F87C302060022B07D030463946FFF777F910B10120BDE8F087B9F1010A20D03046394662692B46FFF701FB804628B94FF64D
:404E4000FE732B810130BDE8F0870B4B93F87C30022B05D03046394662694346FFF779F92369C4F8148001332361BAF1010ADDE70020BDE8F08700BF2092FF1F2DE9F04168
:404E8000836804460D4608460122A1699E8BFEF733FE2846B4F81C80AF68FEF74CFEF8B9013E06EA4816B6B2BE1906F11C00616800F0B4F921683046FFF736FF00F010FC78
:404EC0000446A1B206F1160000F0B2F906F11800210C00F0ADF92846BDE8F041FEF727BEBDE8F0817FB50668B0F90830B568C3B9C37A13F0110F14D029466846FEF7E0FC19
:404F000030466946FFF7BAFF064B6C4693F87C30022B03D128466946FFF7FDF86846FEF7FDFD7FBD2092FF1F03682DE9F04F9F68038995B001339BB2012B04460E46059237
:404F400001D90025CEE0394610AD0CA8FEF7B8FC39462846FEF7B4FC039626680023D6F808909A4609F118010791D9F82420059906924FF0FF32099308920A950291049364
:404F800020460CA9FFF726FF38B108A8FFF710FF5546002818BF00258FE03269069901324A43B9F81CB063680BF1FF3BD21A0BEA030B029B0798934228BF134601937169C9
:404FC000FEF7EAFE99F83430B9F81C206768013BB7FBF2F703EA0707C719B9F81C300199CBEB03058D4228BF0D469D4228D0BBF1000F03D1626873689A420FD00DF1400807
:40500000404639460022FEF777FD4046FEF793FD20B14FF6F9725546228154E01298039958442A460DF1400800F041FA404639460022FEF761FD4046FEF73AFD90B141E091
:40504000099B089A9A1897420AD008A8FFF7B0FE002837D101230993039B08970B9301E001330993029B03995B1B019A029363684919521BAA44ED186560736803919D4236
:40508000019207D91BB1194B93F87C300BB9012104917560019A1AB101374FF0000B9CE7029B002B7FF46CAF08A8FFF781FE04995546002818BF002529B1304610A9FFF785
:4050C000DDFE00E05546059A954205D0B4F9083013B94FF6F87323810CA8FEF71FFD10A8FEF71CFD284615B0BDE8F08F2092FF1F10B5002308E0C45C11F803C0013A01332D
:40510000644501D0012010BD002AF4D1104610BD70B5034602E003F8011C013A1C4622B103F003050133002DF5D193081ED04FF001354D4308E044F8105C44F80C5C44F8FD
:40514000085C44F8045C043B032BA44604F11004F1DC1C46002603E04CF80650013B0436002BF9D102F003020CEB8404002302E0E154013A0133002AFAD170BD002310F826
:4051800003C0CA5C624501D0012070470133002AF5D110467047002300E00133C25C002AFBD11846704710B500230BE0C45C11F803C0644501D0012010BDC4186478013312
:4051C00014B1013A002AF1DC002010BDA0F16103192B98BF00F0DF007047C9B203E00BB918467047013003788B42F8D1704742780178431C42EA01205A789B7842EA002075
:4052000043EA002070478378C27803EB0222437803EB0222037803EB0220704703460A0A03F8011B42700A0C090E5A70997070470170090A417070474278037843EA0220C7
:4052400070470000094A0A4BC11C10B5146821F0030118680919814201D9002010BD11609A685868013220189A6010BDA092FF1FD881FF1F08B5FFF7E5FF00B9FEE708BD4A
:40528000FFF7E0BF30B1044A9368013B93600BB9024A1360704700BFD881FF1FA092FF1F014B586019607047D881FF1F38B50546FFF7E0FF002104462A46FFF729FF204629
:4052C00038BD000010B5084CA37C0BB1002010BD4FF40073238200F0F5F9A37C012043F00103A37410BD00BF2092FF1F08B583680BB10020984708BD08B583680BB1012008
:40530000984708BD10B504680079A468A04710BD37B59DF81850046800790095E468A0473EBD08B5036800799B69984708BD036810B55B69044623B10079984708B1002042
:4053400000E00120607110BD10B5437904460BB9FFF7EDFF607910BDF7B504461F460E461546FFF7F1FF2046FFF7C6FF2A463146012320460097FFF7C5FF05462046FFF7FD
:40538000B5FF2846FEBD10B504690919BDE81040FFF7E2BFF7B5044615461F460E46FFF7D3FF2046FFF7A8FF0023009331462B463A462046FFF7ACFF05462046FFF796FFFA
:4053C0002846FEBD30B504699DF80C5009190395BDE83040FFF7DEBFF7B5044615461F460E46FFF7B1FF2046FFF786FF0123009331462B463A462046FFF78AFF0546204699
:40540000FFF774FF2846FEBD30B504699DF80C5009190395BDE83040FFF7DEBF73B504460E461546FFF790FF2046FFF765FF00232A460093314601332046FFF769FF0546EF
:405440002046FFF753FF002D14BF4FF0FF3000207CBD10B504690919BDE81040FFF7DEBF30B5054685B0FFF76FFF2B6828791C694FF47B71002201ABA04708B1002001E0BB
:40548000BDF80C0005B030BD70B506460D46FFF75BFF336830791C694FF47B7100222B46A047002814BF4FF0FF30002070BD11F0030F70B584460B4632D110F0030F2FD1E5
:4054C00095100446AC4611E053F8106CACF1040C44F8106C53F80C6C44F80C6C53F8086C44F8086C53F8046C44F8046C10341033BCF1030FE8D8AB081B0100EB030CCB18AF
:4055000015F003050AD0284600215C584CF8014004310138F9D1AD00AC445B1902F0030213F0010F19462FD11CF0010F60462BD15410254610E031F8086C043D20F8086C23
:4055400031F8066C20F8066C31F8046C20F8046C31F8026C20F8026C08300831032DEAD8A108C9005B1814F003048C440AD0204600215D5A2CF8015002310138F9D164007E
:40558000A4441B1902F00102614610E013F8040C043A01F8040C13F8030C01F8030C13F8020C01F8020C13F8010C01F8010C18460433032A8C4601F10401E7DC32B100232D
:4055C000C15C0CF8031001339342F9D170BD0378E92B01D101207047EB2B01D0002070478078902814BF00200120704708B500F5FF70FFF721FE4AF65523984214BF00204A
:40560000012008BD01EB001000F5E370FFF7FBBDF0B50D4685B01446064658B352B300210B46FFF799FE002824DB2046FFF7DEFF00B32046FFF7CBFF10B10024274616E02F
:405640002146FFF7DFFF074604F5E570FFF7DBFD01A904463046FFF717FF5CB157B1E219FF23120AB2FBF3F2029B9A4202D81DB12C6001E04FF0FF37384605B0F0BD00004D
:4056800073B50446FFF7ECFE0646FEF7B1F80C4B05461B8AB3420DD366B1204601A92A46FFF7B6FFB0F1FF3F04D02061019B6361002400E0FF242846FEF7B0F860B27CBD3F
:4056C0002092FF1F08B54FF480510348FFF7E8FD0248FEF7BDFA08BDE481FF1F389700004FF40410704700BF4FF6FF7070470000014B1868704700BFE491FF1F00487047CA
:405700005897000000F016BD37B501220DF10701054600F015FD9DF80740FF2C14BF0A240724284601220DF1070100F009FD9DF80700FF2803D1013CE4B2002CF1D13EBD42
:4057400037B50469857828460DF10701012200F0F7FC9DF807300BB1002003E0013CF2D14FF0FF303EBD37B54FF0FF3305460C468DF8073006E028460DF10701012200F042
:40578000EDFC013C002CF6DC3EBD000038B5094C2368032B02DD4FF0FF3509E0DDB2013323601420FFF782FD04EB850460608570284638BDE491FF1F08B5034B4FF40071C3
:4057C0001B68984708BD00BF0881FF1F4FEAD20CACEBD103CCF10F0C10B501336044002410F801CB013B4CEA0424F9D101F00703511A02228A40DC40013A04EA020010BD61
:405800007FB5130E85788DF80530130C01F03F018DF80630130A41F040018DF8073000238DF808208DF804101A4601A911F802C000215B00DBB283EA0C0E1EF0800F18BFC4
:4058400083F009030131082904D04FEA4C0C5FFA8CFCEEE70132052AE7D15B0043F001038DF809308678C4680122304603A900F067FC9DF80C30FF2B04D00CB9FF2009E063
:40588000013CF1E7284601A9062200F067FC2846FFF73AFF04B070BDF7B5847806460F4620460121FFF75FFF204600F0E5FB304609210022FFF7A4FF8DF8070028BBF6683F
:4058C0000546012220460DF1060100F039FC9DF80630FE2B06D0FC2B04D00135ADB2B542EFD112E00DF1070520463946102200F027FC29462046012200F022FC2946204698
:40590000012200F01DFC002500E0FF25204600F0BDFB20460121FFF726FF2846FEBD00002DE9F04F9B46494B89B003EB800305925C684A02029103924FF00309029AA578F1
:40594000E678039B2846022E08BF13461E4600F09DFB01212846FFF706FFBBF1010F0CBF4FF0110A4FF0120A284600F085FB204651463246FFF744FF002851D1059F5E469C
:40598000A378E268B44604924FF000081E460FE0012230460DF11F01CDF804C000F0D0FB9DF81F20DDF804C0FE2A05D008F10108049B9845ECD333E0284639464FF4007201
:4059C000664600F0BDFB0222284607A900F0B8FB9DF81C30384601939DF81D80FFF7ECFE4FF6FF729042019B0CD048EA0328404508D0BAF1120F13D120460C210022FFF754
:405A0000FFFE0DE0013E02D007F50077B8E7BAF1120F07D120460C213246FFF7F1FE01E04FF0FF36284600F031FB28460121FFF79AFE3EB1B9F1000F02D009F1FF397DE7B8
:405A40004FF0FF36304609B0BDE8F08FE491FF1F2DE9F04F99464C4B87B0029203EB80039DF840205D68009103926B78002B40F085804B0201930327009BAC78EE78019AD7
:405A80002046022E08BF1A46164600F0FFFA01212046FFF768FEB9F1010F0CBF4FF0180A4FF0190A204600F0E7FA284651463246FFF7A6FE8DF81700002850D120460121FD
:405AC000FFF751FE029ECB46B8463046FFF774FE0DF11707BAF1180F0CBFFE23FC2301228DF817308DF81500030A394620468DF8143000F033FB204631464FF4007200F0F7
:405B00002DFB0222204605A900F028FB01222046394600F015FB9DF8173003F01F03052B1CD12846FFF70CFEC0B9039A0AB906F50076BBF1010BC8D1BAF1190F474611D191
:405B400006A96FF00203204601F8013D012200F005FB2846FFF7F4FD20B100E047464FF0FF3600E00026204600F090FA20460121FFF7F9FD26B10FB1013F7DE74FF0FF3652
:405B8000304607B0BDE8F08FE491FF1F2DE9F04F877887B0044638460D4600F06DFA20463A210022FFF72CFE064638B1384600F06DFA38460121FFF7D6FD58E00DF114083C
:405BC00004224146384600F0BBFA4046FFF70FFB8046384600F05AFA01213846FFF7C3FDB8F1000F28F07F02B8BF4FEA987BD2B240F272634FEA1828B8BF0BF0010B1FFAC2
:405C000088F8002A14BF1A460022012111EA080F05D10136F6B24900102E89B2F6D140F27260824233460DD06422724302F5FA6208E011EA080F07D049000133013689B287
:405C4000DBB2F6B20F2EF4D964214B434FF6FE7103F5FA6302EA01014FF6FC72384603EA020200F049FA10F0FF0F40F099804FF0FF3092E028467E217F22FFF7A7FD82463F
:405C8000EB78DFF82C8103F0030203F0780308EBD30358F822101B7C3846594389B200F001FA0646002877D06B7803F00702DB1003F00F0308EB82024344126A93F8108056
:405CC0000292B8F1000F67D0A978284603911C221A21FFF77BFD0190BAF1000F1FD1502153222846FFF772FD4FF0010909FA00F92F2131222846FFF769FD1FFA89F982460E
:405D00003E21284649224FEA5929FFF75FFD0AF1020A09FA0AF9013000FB09F910E0BAF1010F01D0012038E0284630214522FFF74DFD4FEA8029BBF1000F01D00223E370E2
:405D400008FB06F2029B0399B2FBF3F2642303FB01225A437343D208DB089A4294BFE260E360FA235E43019BF6089A400C21B24294BF2261266128460D22FFF727FD05463F
:405D8000384600F08DF94FF4007128436070A180C4F80890002000E0FF2007B0BDE8F08FE378A778012B3FF465AF4FF0000A67E7F0960000F0B5857887B004464FF4C871E8
:405DC000284600F06FF9B0F5C87F00F2CC804CF25033E3600026284600F058F90A212846FFF7C1FC624B93E8030001902846ADF8081000F041F9062201A9284600F0AEF9A6
:405E00002846FFF781FC0746284600F03FF901212846FFF7A8FC17F0010F03D10136052ED9D1A0E0284600F027F9082120464FF4D572FFF7E5FC10F0040F52D0284600F0F4
:405E400025F9A5784FF4FA66284600F015F9002237212046FFF7D4FC28460121FFF783FC292100222046FFF7CBFC0746284600F00DF928460121FFF776FC17B90123E370AE
:405E80001EE017F0040F01D1013EDDD14FF4FA66284600F0F1F8012100222046FFF7B0FC0746284600F0F2F828460121FFF75BFC0FB9E77004E0012F55D1013EE8D152E0E0
:405EC00001AD20462946FFF7E7FC00284BD120462946FFF75BFEC0B2002844D10123237043E00422A07805A900F02AF9284600F0CDF89DF81730AA2B35D19DF8163003F0AE
:405F00000F03012B2FD1A5784FF4FA66284600F0B3F8002237212046FFF772FC28460121FFF721FC29214FF080422046FFF768FC0746284600F0AAF828460121FFF713FC86
:405F40000FB1013EE2D101AE20463146FFF7A4FC48B90125E57020463146FFF717FEC0B208B9257001E04FF0FF3007B0F0BD00BF3097000010B5084B03EB80035C68237800
:405F80003BB9FFF7BFFB20B12046BDE81040FFF711BF4FF0FF3010BDE491FF1F38B51D46154BA1F57B7103EB80035C68072918D8DFE801F00A171717040417192046002130
:405FC0001422FFF7A5F80CE0237833B92046FFF7F1FE10B14FF0FF3038BDA3882B81A3686B60002038BD2046FFF74CF9024B00201A68013A1A6038BDE491FF1F10B580B969
:40600000104B1B78EBB901240E4B1C7000F0C0F821463B2000F0D8F800F0ACF8FDF7DAFB10BD084B1B7863B90124064B1C7000F0AFF821463B2000F0C7F800F09BF8FDF7ED
:40604000C9FB10BDF891FF1F08B550B90846FDF77DFBFDF76FFB10F0010FFAD0FDF782FB08BD0846FDF772FBFDF764FB10F0010FFAD0FDF777FB08BD08B510B900F010F974
:4060800008BD002000F00CF908BD00BF08B518B9012000F005F908BD012000F001F908BD0020704738B5B1F5C87F04D30D46B1F57A6F03D804E04FF4C87501E04FF47A65A4
:4060C0006C00A4B245F6C053B3FBF4F448B900F05FF8601E012180B200F076F800F04AF808E000F055F8601E012180B200F06CF800F040F8284638BD032809D840F6E44311
:4061000099420FD840F6E3439A420DD80020704740F6E443994209D840F6E3439A4207D8002070470020704701207047002070470120704708B5FFF761FF022008BD00BF8B
:40614000F8B507460D4614466E1CFF213846FFF77BFF28703546013CF6D1F8BD70B5064614464D1C09783046FFF76EFF2946013CF7D170BD054A137843F00103137010320F
:40618000137843F001031370704700BFA2430040054A137803F0FE0313701032137803F0FE031370704700BFA2430040014B188880B2704780400040024B187800F0070026
:4061C000704700BF8240004070B505460E46FFF7F3FF0446FFF7EAFFA84256D02B4B1B7803F0010294B900B185B938B9284B1D80284A137803F0BF03137070BD254A1378AA
:4062000043F040031370224B1D8070BD22B3002321490B7001240F310C7004310B700C390B7803F07F030B701A4B1B7813F0080F00D08DB9194B18800721013B1970164B96
:406240001B7813F0010FFAD110490B7803F0FE030B700021104B19700C4B1B7813F0010F0DD00E4B1D800EB1032200E001220A4B1A70094B1B7813F0010FFAD170BD044B86
:406280001D8002490B7813430B7070BDA243004080400040824000400140004002400040044A137803F0FB03800000F004001843107070471051004081F0004102E000BF87
:4062C00083F0004330B54FEA41044FEA430594EA050F08BF90EA020F1FBF54EA000C55EA020C7FEA645C7FEA655C00F0E2804FEA5454D4EB5555B8BF6D420CDD2C4480EAD3
:40630000020281EA030382EA000083EA010180EA020281EA0303362D88BF30BD11F0004F4FEA01314FF4801C4CEA113102D0404261EB410113F0004F4FEA03334CEA133366
:4063400002D0524263EB430394EA050F00F0A780A4F10104D5F1200E0DDB02FA0EFC22FA05F2801841F1000103FA0EF2801843FA05F359410EE0A5F120050EF1200E012ABB
:4063800003FA0EFC28BF4CF0020C43FA05F3C01851EBE37101F0004507D54FF0000EDCF1000C7EEB00006EEB0101B1F5801F1BD3B1F5001F0CD349085FEA30004FEA3C0CEA
:4063C00004F101044FEA445212F5800F80F09A80BCF1004F08BF5FEA500C50F1000041EB045141EA050130BD5FEA4C0C404141EB010111F4801FA4F10104E9D191F0000F94
:4064000004BF01460020B1FA81F308BF2033A3F10B03B3F120020CDA0C3208DD02F1140CC2F10C0201FA0CF021FA02F10CE002F11402D8BFC2F1200C01FA02F120FA0CFC34
:40644000DCBF41EA0C019040E41AA2BF01EB0451294330BD6FEA04041F3C1CDA0C340EDC04F11404C4F1200220FA04F001FA02F340EA030021FA04F345EA030130BDC4F1AE
:406480000C04C4F1200220FA02F001FA04F340EA0300294630BD21FA04F0294630BD94F0000F83F4801306BF81F480110134013D4EE77FEA645C18BF7FEA655C29D094EA52
:4064C000050F08BF90EA020F05D054EA000C04BF1946104630BD91EA030F1EBF0021002030BD5FEA545C05D14000494128BF41F0004130BD14F580043CBF01F5801130BD3F
:4065000001F0004545F0FE4141F470014FF0000030BD7FEA645C1ABF194610467FEA655C1CBF0B46024650EA013406BF52EA033591EA030F41F4002130BD00BF90F0000FC4
:4065400004BF0021704730B54FF4806404F132044FF000054FF0000150E700BF90F0000F04BF0021704730B54FF4806404F1320410F0004548BF40424FF000013EE700BF7C
:4065800042004FEAE2014FEA31014FEA02701FBF12F07F4393F07F4F81F06051704792F0000F14BF93F07F4F704730B54FF4607401F0004521F0004120E700BF50EA0102A8
:4065C00008BF704730B54FF000050AE050EA010208BF704730B511F0004502D5404261EB41014FF4806404F132045FEA915C3FF4DCAE4FF003025FEADC0C18BF03325FEA2E
:40660000DC0C18BF033202EBDC02C2F1200300FA03FC20FA02F001FA03FE40EA0E0021FA02F11444C1E600BF70B54FF0FF0C4CF4E06C1CEA11541DBF1CEA135594EA0C0F77
:4066400095EA0C0F00F0DEF82C4481EA030621EA4C5123EA4C5350EA013518BF52EA033541F4801143F4801338D0A0FB02CE4FF00005E1FB02E506F00042E0FB03E54FF083
:406680000006E1FB03569CF0000F18BF4EF0010EA4F1FF04B6F5007F64F5407404D25FEA4E0E6D4146EB060642EAC62141EA55514FEAC52040EA5E504FEACE2EB4F1FD0CEE
:4066C00088BFBCF5E06F1ED8BEF1004F08BF5FEA500E50F1000041EB045170BD06F0004646EA010140EA020081EA0301B4EB5C04C2BFD4EB0C0541EA045170BD41F4801136
:406700004FF0000E013C00F3AB8014F1360FDEBF002001F0004170BDC4F10004203C35DA0C341BDC04F11404C4F1200500FA05F320FA04F001FA05F240EA020001F00042B8
:4067400021F0004110EBD37021FA04F642EB06015EEA430E08BF20EAD37070BDC4F10C04C4F1200500FA04F320FA05F001FA04F240EA020001F0004110EBD37041F1000107
:406780005EEA430E08BF20EAD37070BDC4F1200500FA05F24EEA020E20FA04F301FA05F243EA020321FA04F001F0004121FA04F220EA020000EBD3705EEA430E08BF20EAC1
:4067C000D37070BD94F0000F0FD101F00046400041EB010111F4801F08BF013CF7D041EA060195F0000F18BF704703F00046520043EB030313F4801F08BF013DF7D043EAF0
:406800000603704794EA0C0F0CEA135518BF95EA0C0F0CD050EA410618BF52EA4306D1D181EA030101F000414FF0000070BD50EA410606BF1046194652EA430619D094EAE1
:406840000C0F02D150EA013613D195EA0C0F05D152EA03361CBF104619460AD181EA030101F0004141F0FE4141F470014FF0000070BD41F0FE4141F4780170BD70B54FF0B3
:40688000FF0C4CF4E06C1CEA11541DBF1CEA135594EA0C0F95EA0C0F00F0A7F8A4EB050481EA030E52EA03354FEA013100F088804FEA03334FF0805545EA131343EA126365
:4068C0004FEA022245EA111545EA10654FEA00260EF000419D4208BF964244F1FD0404F5407402D25B084FEA3202B61A65EB03055B084FEA32024FF480104FF4002CB6EBC4
:40690000020E75EB030E22BFB61A754640EA0C005B084FEA3202B6EB020E75EB030E22BFB61A754640EA5C005B084FEA3202B6EB020E75EB030E22BFB61A754640EA9C002C
:406940005B084FEA3202B6EB020E75EB030E22BFB61A754640EADC0055EA060E18D04FEA051545EA16754FEA06164FEAC30343EA52734FEAC2025FEA1C1CC0D111F4801F72
:406980000BD141EA00014FF000004FF0004CB6E711F4801F04BF01430020B4F1FD0C88BFBCF5E06F3FF6AFAEB5EB030C04BFB6EB020C5FEA500C50F1000041EB045170BD61
:4069C0000EF0004E4EEA113114EB5C04C2BFD4EB0C0541EA045170BD41F480114FF0000E013C90E645EA060E8DE60CEA135594EA0C0F08BF95EA0C0F3FF43BAF94EA0C0FEA
:406A00000AD150EA01347FF434AF95EA0C0F7FF425AF104619462CE795EA0C0F06D152EA03353FF4FDAE1046194622E750EA410618BF52EA43067FF4C5AE50EA41047FF4D7
:406A40000DAF52EA43057FF4EBAE12E74FF0FF3C06E000BF4FF0010C02E000BF4FF0010C4DF804CD4FEA410C7FEA6C5C4FEA430C18BF7FEA6C5C1BD001B050EA410C0CBF2E
:406A800052EA430C91EA030F02BF90EA020F0020704710F1000F91EA030F58BF994208BF90422CBFD8176FEAE37040F0010070474FEA410C7FEA6C5C02D150EA013C07D12C
:406AC0004FEA430C7FEA6C5CD6D152EA033CD3D05DF8040B704700BF8446104662468C461946634600E000BF01B5FFF7B7FF002848BF10F1000F01BD4DF808EDFFF7F4FF7B
:406B00000CBF012000205DF808FB00BF4DF808EDFFF7EAFF34BF012000205DF808FB00BF4DF808EDFFF7E0FF94BF012000205DF808FB00BF4DF808EDFFF7CEFF94BF0120A3
:406B400000205DF808FB00BF4DF808EDFFF7C4FF34BF012000205DF808FB00BF4FEA410212F5001215D211D56FF47873B3EB625212D94FEAC12343F0004343EA505311F04F
:406B8000004F23FA02F018BF404270474FF00000704750EA013005D111F0004008BF6FF0004070474FF00000704700BF4A0011D212F5001211D20DD56FF47873B3EB625272
:406BC0000ED44FEAC12343F0004343EA505323FA02F070474FF00000704750EA013002D14FF0FF3070474FF000007047014B1868704700BF6C81FF1F0E4B70B51E460E4CB2
:406C00000025E41AA410A54204D056F8253098470135F8E702F066FE084B094C1E46E41AA4100025A54204D056F8253098470135F8E770BDF0980000F0980000F0980000DB
:406C4000F8980000931E222B10B50C4602D90020087010BD0A2A06D1002804DA2D230B704042012100E00021214400F017FD204610BDFFF7E7BF10B5431E0A44914204D05B
:406C800011F8014B03F8014FF8E710BD03460244934202D003F8011BFAE770472DE9F04788B0149F002B1E461299B8BF03F1004327F02007B6BF1E4600232D23462F14462A
:406CC000109DDDF84CA00B7003D0452F03D1013501E0032300E0022307AA049206AA03928DE828042246334600F0A2FD472F804602D1119BDB0728D5462F08EB050911D1BF
:406D000098F80030302B0AD10022002320463146FFF7F2FE18B9C5F10105CAF80050DAF8003099440022002320463146FFF7E4FE08B9302202E0CDF81C9006E0079B994511
:406D400003D9591C07911A70F8E74046079B159AC8EB0303136008B0BDE8F087034673B50029B8BF494203F8022BB4BF2D222B22092942701ADD0DF1070216460A2591FB1E
:406D8000F5F405FB1411092C01F1300102F8011D2146F4DC3031541E02F8011CB4421A460AD214F8012B03F8012BF7E71A463024214402F8024B5970101A02B070BD000093
:406DC0002DE9F04F91B00C46DDF8688016461F46054601F0C5FA03681846099300F056FC00230E93D8F800300A90073323F0070303F1080294F81890D4F800B0C8F8002048
:406E0000D3E90023C4E91223D4F84CA0D4F848802AF000430B934FF0FF32A74B40460B9901F0F2FFA0B94FF0FF32A34B40460B99FFF776FE60B90022002340465146FFF720
:406E400065FE10B12D2384F843309C4B9C4A0AE0424653464046514601F0D6FF002800F09281984B984AB9F1470F8CBF90469846032323612BF0040323604FF0000A3DE050
:406E8000B9F1670F00F08A81B9F1470F00F0868123600193636800210DF13302059002920093424653460691CDF81090CDF80CE02846FFF7F3FE09F0DF03472B804600F0A8
:406EC0008481B9F1650F0D9900F28D8101394A4604F150000D91FFF741FF0E9A82468318012A236100F37C812268D10700F178819DF8333013B12D2384F8433000973346E5
:406F00000FAA2146284600F09FF9013002D14FF0FF3096E123685A0501D4236965E0B9F1650F40F2D580D4E9120100220023FFF7E3FD78B30123654A31462846B84701301F
:406F4000E5D00E9B0D9A9A420BDB2368D80708D423689B0740F111814FF0000804F1190906E10A9B099A31462846B8470130CED04FF0000804F11A090E9B013B9845E7DAF2
:406F800001234A4631462846B8470130BFD008F10108F1E70D9B002B29DC01234B4A31462846B8470130B2D00D9B23B90E9B13B92368D907CCD50A9B099A31462846B84746
:406FC0000130A4D04FF0000904F11A0A0D9B5B42994509DA0123524631462846B847013095D009F10109F1E70E9B4246A7E00E9AA36D9A42A8BF1A46002A914606DC4FF03E
:40700000000A29EAE97904F11A0B11E01346314642462846B8470130F1D178E701235A4631462846B84701303FF471AF0AF1010AA36DC9EB03029245F0DB08EB03090D9A6C
:407040000E9B9A420FDB2368DA070CD40E9B0D9A9844C9EB08089B1A9845A8BF9846B8F1000F08DC0FE00A9B099A31462846B8470130EBD14BE743464A4631462846B847BB
:4070800001303FF444AF4FF0000928EAE87804F11A0A09E00123524631462846B84701303FF435AF09F101090D9A0E9B9B1AC8EB03039945EEDB4BE7FFFFEF7F5E970000D9
:4070C00062970000669700006A9700006E9700000E9A012A01DCDB0738D50123424631462846B84701303FF412AF0A9B099A31462846B84701303FF40AAFD4E91201002205
:407100000023FFF7F9FC20B14FF0000804F11A090EE00E9B08F10102013B19E001234A4631462846B84701303FF4F1AE08F101080E9B013B9845F1DB534604F150023146C7
:407140002846B84701307FF403AFE0E64246012331462846B8470130EED1D8E601234A4631462846B84701303FF4D1AE08F10108E3680F9A9B1A9845F0DBE0680F9B9842AE
:40718000B8BF18465DE062680EA8531C0DF1340E4BF480637FF474AE062201E012B90122626075E6002106910DF133018DE80C00236005904246CDF81090CDF80CE002910F
:4071C00053462846FFF76AFD80460D9BD81C02DB626893421DDDA9F102095FFA89F970E60133236184E6B9F1660F14D10029636807DD216113B92268D2071DD501330B4459
:4072000019E013B92268D00701D5023313E0012311E04FF067090D9B0E9A934205DB22682361D10708D5013305E0002BD4BFC3F102030123134423610D9B4FF0000AA36516
