:400000000080002011000000CD320000CD320000034A08B51268034B1A6003F077F900BFFA460040BC76004010B5054C237833B9044B13B10448AFF300800123237010BD0F
:400040009081FF1F000000003C940000084B10B51BB108490848AFF300800848036803B910BD074B002BFBD0BDE81040184700BF000000009481FF1F3C940000C880FF1FD2
:400080000000000030B585B062B603F027FA03F015FA012003F006FA642003F097F9002003F000FA642003F091F9012003F0FAF9642003F08BF900F03DFA03F0C5FE03F0FD
:4000C000A3FE03F0BBFE03F0ABFA03F067FA03F0E9FA03F077FB0021382003F04DFDA42003F0D6FD002003F0D3FD174C03F0B4FD03F0C2FB154B16490A22042501201A6003
:400100000860256003F0F4FE0321124804F019F91149124804F00EF80446114A0DEB050307CA03C30DEB05011A802046092204F032F9204603F038FF00F0F8FC094B4FF030
:40014000FF321A60FEE700BFE891FF1FE091FF1FF091FF1F749400007C940000809400008C940000EC91FF1F38B5054602440B44013A013B002042EA054543EA014403F045
:4001800085F92A2003F0FEF903F078F90028FBD103F074F90128FBD103F078F9002003F061F9280E03F0EEF903F068F90128FBD1C5F3074003F0E6F903F060F90128FBD1A4
:4001C000C5F3072003F0DEF903F058F90128FBD1E8B203F0D7F903F051F90128FBD103F041F9002003F052F92B2003F0CBF903F045F90028FBD103F041F90128FBD103F0C7
:4002000045F9002003F02EF9200E03F0BBF903F035F90128FBD1C4F3074003F0B3F903F02DF90128FBD1C4F3072003F0ABF903F025F90128FBD1E0B203F0A4F903F01EF909
:400240000128FBD103F00EF9002003F01FF92C2003F098F903F012F90028FBD103F00EF90128FBD138BD00BF2DE9F04F8B46914601469AB289B0984602EB0B039BB202AF5F
:40028000F860C3F1F00080B20FFA80FC1FFA89F6BCF1EF0F06EB01043D6C09DCA4B2C4F5A07189B20FFA81FEBEF5A07FC0F2918008EBD87809EBD9720BEB680B90462B78E8
:4002C000FA6802EB6808002B00F0CE80002300E0234615F8012F5C1C002AF9D1093323F00703ADEB030D02AE291B3046224607F028F8C4EBC40300229945325500F3A480C3
:4003000063DA5B4A4FEAE97382FB09129144C3EBA9031BB25D1E725D202A06D0023B33449D1B13F80129202AFAD1641B05F1080323F0070304F1080222F00702C7F80CD040
:40034000ADEB030D02AB002DADEB020D04F101020DF10809BA6005F1010A05DD18462A46314606F0EEFF0346002C07DD06EB0A01224648467B6006F0E4FF7B68CAEBCA0ABD
:400380000AEBDA7A0026A8EB6A004FF0010A5E5509F804603246CDF800A00BF10301053001F0BAF8BB683246013BC3EBC30303EBD373A8EB6300CDF800A004304B46ABF17F
:4003C000050101F0A9F8D7F80CD01C37BD46BDE8F08FC444BCF1F00FCE44C6BF0FFA83FA1A46C246BEF5A07FD9BF33464E46234626B2FFF7B9FE012003F048F8002003F03B
:4004000031F8002E1CDDBAF1000FC8BF544612DDFF2003F0B7F803F031F80128FBD1FF2003F0B0F803F02AF80128FBD1013CA3B21CB2002BECD1731E9BB21EB2002BE2D138
:40044000012003F00FF833E703EBD373A8EB6300012433460BF1FF310094033001F05CF81C37BD46BDE8F08F07F114061C4642E7932449922DE9F04190469AB211441F467B
:400480008BB2C3F1F004A4B20FFA84FE1FFA88F6BEF1EF0F3044BDF8185008DC80B2C0F5A07189B20FFA81FCBCF5A07F01DBBDE8F081BE44BEF1F00FC444C4BF1FB21A46D6
:4004C000BCF5A07FC6BF0FFA80F8034633462046FFF74AFE012002F0D9FF002002F0C2FFB8F1000F4FEA1526EDB21DDD002FC8BF3C4612DD304603F045F802F0BFFF012897
:40050000FBD1284603F03EF802F0B8FF0128FBD1013CA3B21CB2002BECD108F1FF339BB20FFA83F8002BE1D10120BDE8F04102F099BF00BF2DE9F8431F4EEF24002002F0B6
:40054000A5FF204603F01EF802F098FF0028FBD102F094FF0128FBD106F10208444696F8019009F07F07BB1C1E44B44214D014F8015B012002F08AFF284603F003F802F0E3
:400580007DFF0028FBD102F079FF0128EDD002F075FF0128F7D1E8E719F0800F08EB070605D118F80740002CC8D1BDE8F883782002F00CFFF5E700BF989400002DE9F04FFA
:4005C000C1EB030AC0EB020BBAF1000FB8BFCAF1000ABBF1000FB8BFCBF1000B87B0DA45914614468846BDF8402000F39380054651461C4640464D4509DD47462E4698460A
:400600004D463B46B146011B0029B8BF4942AEB2C6EB090080B204B204EBD474434502904FEA640470DD012303938BB2C6F59F760193130A01360493D3B2B6B20593DA453D
:4006400036DDA6F1500080B2EF281FFA88F720D8C7F59F71013189B2B1F5A07F19D201231A46FFF781FD012002F010FF002002F0F9FE049802F086FF02F000FF0128FBD1A2
:40068000059802F07FFF02F0F9FE0128FBD102F0E9FE019BE41AA3B21CB2002C2CDB01352DB2013EA945B6B2C9DA07B0BDE8F08F1FFA88F7C7F1EF0080B2EF28E9D8B6F56A
:4006C000A07FE6D201231A463146FFF74DFD012002F0DCFE002002F0C5FE049802F052FF02F0CCFE0128FBD1059802F04BFF02F0C5FE0128FBD1CAE7039A1744029A0FFAC5
:4007000087F89C1824B2CAE7A945CEDB4FF6FF7303938AE799460D462346594680466AE72DE9F04F8BB01C4602AF7B610B469246F9600146A2B2D3189BB21FFA8AF5386154
:400740006C18C3F1F000B7F8481080B206B27960B7F84C10EF2EB960D7F850800ADCA4B2C4F5A0711FFA81FC0FFA8CFEBEF5A07FC0F296807A6998F8003002EBD276FA68A4
:400780000AEBDA7902EB66063A6902EB6909002B00F0DA80002300E0234618F8012F5C1C002AF9D1093323F00703ADEB030D02ADC4EB08012846224606F0C3FDC4EBC4039F
:4007C00000229A452A5500F3AF8065DA604A4FEAEA7382FB0A129244C3EBAA031BB203F1FF3815F80820202A07D0023B2B44C5EB030813F80129202AF9D1C8EB040408F15C
:40080000080323F0070304F1080222F00702C7F814D0ADEB030D02ABB8F1000FADEB020D04F101020DF1080B3A6108F1010A05DD18464246294606F084FD0346002C07DD70
:4008400005EB0A0122465846FB6006F07AFDFB680022012503F808200BF80420CAEBCA0A0095BC680AEBDA7AA9EB6A002246F11C053000F051FE3B692246013BC3EBC3038C
:4008800003EBD373A9EB6300009504305B46711F00F042FED7F814D02437BD46BDE8F08F7969D6440E44F02EC6BF1A460FFA83FB8B46BEF5A07FDABFD1462B462346614602
:4008C000C8BF0FFA84F9FFF74FFC012002F0DEFD7B6800201E0ADDB202F0C4FDB9F1000F1EDDBBF1000FC8BF5C4612DD304602F049FE02F0C3FD0128FBD1284602F042FED2
:4009000002F0BCFD0128FBD1013CA3B21CB2002BECD109F1FF339BB20FFA83F9002BE0D1012002F09FFD25E703EBD373A9EB63000124BA682B46711E0094033000F0ECFD28
:400940002437BD46BDE8F08F07F11C051C4637E7932449922DE9F04F894600218BB04FF4A073F02207460846FFF7FEFB012002F08DFD002002F076FD4FF4A076F0250020A8
:4009800002F000FE02F07AFD0128FBD1002002F0F9FD02F073FD01280446FAD1013DADB2002DECD1013EB6B2002EE7D102F05AFD384606F059F902460B460020524906F0D4
:4009C000E3FA06F051FC4FF6FF750A231946DC22824600951E20FFF7F1FD1E2200951046C9230A21FFF7EAFDB9F1010F8CBF4FF00C084FF0150819F0010F009475D1434BC1
:400A00002A460421E62000F087FD00942A46404BD921032000F080FD042F25DD4FF6FF7B1FFA8AF909F10A04A4B20AF10A0605252A46384907A807F009F923B21946DC22A0
:400A40001E20CDF800B0FFF7B9FD01230093314607AB4FF6FF720320053500F05DFD4C44AF425644A4B2E3DABD2797FBF8F74FF6FF7A1FFA88F909F11E0408F11E06012590
:400A80002A46254904A807F0E1F822B21046CA230A21CDF800A0FFF791FD01230093304604AB4FF6FF720421013500F035FD4C44AF42A4B24644E3DA184B05AD00244FF408
:400AC000784293E803008DE8140005908DF8181002951E233C22D1218220FFF721FE104B02221A600BB0BDE8F08F2A460D4B0421E62000F011FD00942A460B4BD9210320D4
:400B000000F00AFD88E700BF00008E400895000010950000309500003495000038950000E491FF1F1C9500002495000070B5A02300247E4D84B01946F02220462C60FFF7C4
:400B400013FB012002F0A2FC204602F08BFCA026F025002002F016FD02F090FC0128FBD11F2002F00FFD02F089FC01280446FAD1013DADB2002DECD1013EB6B2002EE7D15E
:400B800002F070FC3146A023F0223046FFF7ECFA204602F07BFC304602F064FCA026F025F82002F0EFFC02F069FC0128FBD1002002F0E8FC02F062FC01280446FAD1013DC4
:400BC000ADB2002DECD1013EB6B2002EE7D102F049FC0223F0229F213046FFF7C5FA204602F054FC304602F03DFC0226F025002002F0C8FC02F042FC0128FBD1002002F033
:400C0000C1FC02F03BFC01280446FAD1013DADB2002DECD1013EB6B2002EE7D102F022FC31464FF4A07302227720FFF79DFA204602F02CFC304602F015FC4FF4A0760225DE
:400C4000002002F09FFC02F019FC0128FBD1002002F098FC02F012FC01280446FAD1013DADB2002DECD1013EB6B2002EE7D102F0F9FBFC23162223216D20FFF775FA2046FA
:400C800002F004FC304602F0EDFBFC251624002002F078FC02F0F2FB0128FBD1002002F071FC02F0EBFB0128FBD1013CA4B2002CEDD1013DADB2002DE8D149F69F664FF668
:400CC000F34402F0CFFB1A4A122300926F21F8222320FFF7C9FA174B0A21029308460195009663238B22FFF71BFD134B00960293019563238B2283210A20FFF711FD0F4BD5
:400D00008DE8300002938B2263230A21AB20FFF707FD0B4B8DE8300002938B2263238321AB20FFF7FDFC04B070BD00BFE491FF1F409500005C95000068950000709500003A
:400D40007C9500002DE9F04349F69F684FF6F3499FB0734F734E13AC0FCF734D0FC496E80F000DF1380E0AAE86E80F000FCDAEE80F003B68296824F8023B6C4A1B0C6C4DA6
:400D80000127237018AC8EF8001017600FCD0FC495E80300674A684D44F8040B07AB218095E803000590ADF818100D0C07CA03C300241A7013A977231A460291204621461E
:400DC000CDF8008001948DF81A50FFF7A9FC77231A460296204679210194CDF80090FFF79FFC77230EAA2146029279201A460194CDF80090FFF794FC7723792118AA084688
:400E0000029201941A46CDF80080FFF789FC05AB214600934F227723F120FFF725FA07AB00934F2277237921F120FFF71DFA0223F022C7212046FFF797F9384602F026FBEA
:400E4000204602F00FFB0226F025002002F09AFB02F014FB0128FBD1002002F093FB02F00DFB01280446FAD1013DADB2002DECD1013EB6B2002EE7D102F0F4FA31464FF4B0
:400E8000A07302227720FFF76FF9204602F0FEFA304602F0E7FA4FF4A0760225002002F071FB02F0EBFA0128FBD1002002F06AFB02F0E4FA01280446FAD1013DADB2002D54
:400EC000ECD1013EB6B2002EE7D102F0CBFA0223F0224F213046FFF747F9204602F0D6FA304602F0BFFA0225F024002002F04AFB02F0C4FA0128FBD1002002F043FB02F0DC
:400F0000BDFA0128FBD1013CA4B2002CEDD1013DADB2002DE8D102F0A5FA1FB0BDE8F0838495000098950000A8950000E491FF1FBC950000D4950000E095000070B5002102
:400F4000504C084684B04FF4A073F02203252560FFF70AF9012002F099FA002002F082FA4FF4A076F025002002F00CFB02F086FA0128FBD1002002F005FB02F07FFA01287D
:400F80000446FAD1013DADB2002DECD1013EB6B2002EE7D102F066FA3B4A14230092DB21EF223046FFF760F9384A32230092962146225020FFF758F9354B50210846009385
:400FC00046223223FFF750F9324A322300920A2146225020FFF748F92F4A3223009296214622A020FFF740F92C4A3223009250214622A020FFF738F9294A322300920A2148
:401000004622A020FFF730F9264B03A918680A22022506F094F903AB4FF6FF7269210095142000F079FA204AF023009231464F22F120FFF719F92B46F0224F213046FFF76D
:4010400093F8204602F022FA304602F00BFAF024002002F097FA02F011FA0128FBD1002002F090FA02F00AFA0128FBD1013CA4B2002CEDD1013DADB2002DE8D102F0F2F9F7
:4010800004B070BDE491FF1FE8950000049600000C96000014960000209600002896000034960000E091FF1FE095000070B50021554C08468CB04FF4A073F0220425256090
:4010C000FFF752F8012002F0E1F9002002F0CAF94FF4A075F024002002F054FA02F0CEF90128FBD1002002F04DFA02F0C7F90128FBD1013CA4B2002CEDD1013DADB2002D2D
:40110000E8D102F0AFF9414A414E14230092DB21EF22284605ACFFF7A7F80FCE0FC496E8070003C405AB2270AA210093EF220A232846FFF799F8374B1B68012B56D0002B67
:401140003FD0354B50220093104632236421FFF78BF8324A32230092642150228220FFF783F82F4AF023009200214F22F120FFF77BF80223F0224F210020FEF7F5FF0120CA
:4011800002F084F9002002F06DF90225F024002002F0F8F902F072F90128FBD1002002F0F1F902F06BF90128FBD1013CA4B2002CEDD1013DADB2002DE8D102F053F90CB077
:4011C00070BD154A32230092642150221E20FFF74BF849F69F62114B8DE8240002935022322364218220FFF79BFABAE749F69F62094B8DE8240002935022322364211E20DE
:40120000FFF78EFAA5E700BFE491FF1F9895000048960000F091FF1F4096000044960000E095000070B50021414C084684B04FF4A073F02205252560FEF796FF012002F07A
:4012400025F9002002F00EF94FF4A076F025002002F098F902F012F90128FBD1002002F091F902F00BF901280446FAD1013DADB2002DECD1013EB6B2002EE7D102F0F2F874
:401280002C4A14230092DB21EF223046FEF7ECFF294A4623009228211A468220FEF7E4FF264A46238221084600921A46FEF7DCFF234B03A918680A2206F041F8032203ABA7
:4012C000009269214FF6FF72322000F025F91D4AF023009231464F22F120FEF7C5FF0223F0224F213046FEF73FFF204602F0CEF8304602F0B7F80225F024002002F042F9F1
:4013000002F0BCF80128FBD1002002F03BF902F0B5F80128FBD1013CA4B2002CEDD1013DADB2002DE8D102F09DF804B070BD00BFE491FF1F64960000809600008C9600004C
:40134000E891FF1FE095000070B50021324C084682B04FF4A073F02206252560FEF704FF012002F093F8002002F07CF84FF4A076F025002002F006F902F080F80128FBD10B
:40138000002002F0FFF802F079F801280446FAD1013DADB2002DECD1013EB6B2002EE7D102F060F81D4A14230092DB21EF223046FEF75AFF1A4AF023009231464F22F12022
:4013C000FEF752FF0223F0224F213046FEF7CCFE204602F05BF8304602F044F80225F024002002F0CFF802F049F80128FBD1002002F0C8F802F042F80128FBD1013CA4B2BA
:40140000002CEDD1013DADB2002DE8D102B0BDE8704002F027B800BFE491FF1F98960000E09500002DE9F0410F46002188B04FF4A073F02280460846FEF796FE012002F065
:4014400025F8002002F00EF84FF4A076F025002002F098F802F012F80128FBD1002002F091F802F00BF801280446FAD1013DADB2002DECD1013EB6B2002EE7D101F0F2FF72
:40148000204B07221A6002A940460A2205F057FF05A938460A2205F052FF02AB00944FF6FF726E21642000F037F8642105AB009408464FF6FF7200F02FF80094124B4FF695
:4014C000FF72C821642000F027F8062300934FF6FF720E4B9621322000F01EF80C4A46230092282177229620FEF7BEFE094A1E230092314632223046FEF7B6FE08B0BDE81E
:40150000F08100BFE491FF1FB8960000D8950000BC950000E09500002DE9F04F8DB09DF858400393651E1B78072D0890049188BF0124002B5FD091464D46A2B2C2EBC201A7
:40154000520092B289B20792621E06910292203B3A2B3CD8DFE813F02A073B003B003B003B003B003B003B003B003B003B003B003B003B00D9063B00940608087E07C30775
:401580006D0363091E09A809A60494083B003B003B003B003B003B003B004D08D908D802BC0575053005EB0452060106E20A1D03330B53040204B203400AED09910A850208
:4015C00035029201E5014201F200A200520083B20593059B069A134418B2B0F59E7F04DD049B0898093B1BB20493039A12F8013F0392002BABD10DB0BDE8F08F4FF0230BE9
:401600001A23012201E0A04B9B5C01331A44BBF1010B92B2F7D183B218460746079E04990593891B89B2531CCA1D1FFA83FA13B2C6EB07090B930BB209930FFA89F9CDF8DF
:4016400028B0914B13F80AB0BBF1000F15D00BEB0A071F44099A0A9B03EB02088A4B03EB0A0616F8010F2346009504FB009022464146FEF7FFFEB742F3D10A9A0299099BA8
:401680000A4401330A920B9A1BB20BF1010BDA44934209931FFA8AFAD3D19AE74FF0220B1A23012201E0784B9B5C01331A44BBF1010B92B2F7D183B218460746079E049962
:4016C0000593891B89B2531CCA1D1FFA83FA13B2C6EB07090B930BB209930FFA89F9CDF828B0694B13F80AB0BBF1000F15D00BEB0A071F44099A0A9B03EB0208624B03EB84
:401700000A0616F8010F2346009504FB009022464146FEF7AFFEB742F3D10A9A0299099B0A4401330A920B9A1BB20BF1010BDA44934209931FFA8AFAD3D14AE74FF0210BB9
:401740001A23012201E0504B9B5C01331A44BBF1010B92B2F7D183B218460746079E04990593891B89B2531CCA1D1FFA83FA13B2C6EB07090B930BB209930FFA89F9CDF8EE
:4017800028B0414B13F80AB0BBF1000F15D00BEB0A071F44099A0A9B03EB02083A4B03EB0A0616F8010F2346009504FB009022464146FEF75FFEB742F3D10A9A0299099BA7
:4017C0000A4401330A920B9A1BB20BF1010BDA44934209931FFA8AFAD3D1FAE64FF0200B1A23012201E0284B9B5C01331A44BBF1010B92B2F7D183B218460746079E049914
:401800000593891B89B2531CCA1D1FFA83FA13B2C6EB07090B930BB209930FFA89F9CDF828B0194B13F80AB0BBF1000F15D00BEB0A071F44099A0A9B03EB0208124B03EBE2
:401840000A0616F8010F2346009504FB009022464146FEF70FFEB742F3D10A9A0299099B0A4401330A920B9A1BB20BF1010BDA44934209931FFA8AFAD3D1AAE64FF01E0BBC
:401880001A23012204E000BFCC9600009D4B9B5C01331A44BBF1010B92B2F7D183B218460746079E04990593891B89B2531CCA1D1FFA83FA13B2C6EB07090B930BB209938C
:4018C0000FFA89F9CDF828B08E4B13F80AB0BBF1000F15D00BEB0A071F44099A0A9B03EB0208884B03EB0A0616F8010F2346009504FB009022464146FEF7BCFDB742F3D102
:401900000A9A0299099B0A4401330A920B9A1BB20BF1010BDA44934209931FFA8AFAD3D157E64FF01F0B1A23012201E0754B9B5C01331A44BBF1010B92B2F7D183B21846D5
:401940000746079E04990593891B89B2531CCA1D1FFA83FA13B2C6EB07090B930BB209930FFA89F9CDF828B0664B13F80AB0BBF1000F15D00BEB0A071F44099A0A9B03EB1A
:401980000208604B03EB0A0616F8010F2346009504FB009022464146FEF76CFDB742F3D10A9A0299099B0A4401330A920B9A1BB20BF1010BDA44934209931FFA8AFAD3D174
:4019C00007E64FF01D0B1A23012201E04D4B9B5C01331A44BBF1010B92B2F7D183B218460746079E04990593891B89B2531CCA1D1FFA83FA13B2C6EB07090B930BB209936B
:401A00000FFA89F9CDF828B03E4B13F80AB0BBF1000F15D00BEB0A071F44099A0A9B03EB0208384B03EB0A0616F8010F2346009504FB009022464146FEF71CFDB742F3D100
:401A40000A9A0299099B0A4401330A920B9A1BB20BF1010BDA44934209931FFA8AFAD3D1B7E54FF01C0B1A23012201E0254B9B5C01331A44BBF1010B92B2F7D183B2184688
:401A80000746079E04990593891B89B2531CCA1D1FFA83FA13B2C6EB07090B930BB209930FFA89F9CDF828B0164B13F80AB0BBF1000F15D00BEB0A071F44099A0A9B03EB29
:401AC0000208104B03EB0A0616F8010F2346009504FB009022464146FEF7CCFCB742F3D10A9A0299099B0A4401330A920B9A1BB20BF1010BDA44934209931FFA8AFAD3D124
:401B000067E500BFCC960000049A07994FF0030B531A82B210469BB20592DA1D1BB2C1EB000912B20A9300230B920FFA89F909934FF4907ABBF1000F16D0B34B0BEB0A071E
:401B40001F44099A0A9B03EB0208AF4B03EB0A0616F8010F2346009504FB009022464146FEF788FCB742F3D1099A02990A9B0A44013309920B9A1BB20BF1010BDA4493428D
:401B80000A931FFA8AFA3FF424AD9F4B13F80AB0D0E74FF0140B1A23012201E09A4B9B5C01331A44BBF1010B92B2F7D183B218460746079E04990593891B89B2531CCA1DC1
:401BC0001FFA83FA13B2C6EB07090B930BB209930FFA89F9CDF828B08B4B13F80AB0BBF1000F15D00BEB0A071F440A9A099B03EB0208854B03EB0A0616F8010F23460095DB
:401C000004FB009022464146FEF734FCB742F3D10A9A0299099B0A4401330A920B9A1BB20BF1010BDA44934209931FFA8AFAD3D1CFE4049A07994FF0010B531A82B21046C6
:401C40009BB20592DA1D1BB2C1EB000912B20A9300230B920FFA89F909934FF05F0ABBF1000F16D0684B0BEB0A071F44099A0A9B03EB0208644B03EB0A0616F8010F2346E5
:401C8000009504FB009022464146FEF7F3FBBE42F3D1099A02990A9B0A44013309920B9A1BB20BF1010BDA4493420A931FFA8AFA3FF48FAC544B13F80AB0D0E74FF0180BD8
:401CC0001A23012201E0504B9B5C01331A44BBF1010B92B2F7D183B218460746079E04990593891B89B2531CCA1D1FFA83FA13B2C6EB07090B930BB209930FFA89F9CDF869
:401D000028B0414B13F80AB0BBF1000F15D00BEB0A071F440A9A099B03EB02083A4B03EB0A0616F8010F2346009504FB009022464146FEF79FFBB742F3D10A9A0299099BE4
:401D40000A4401330A920B9A1BB20BF1010BDA44934209931FFA8AFAD3D13AE44FF0170B1A23012201E0284B9B5C01331A44BBF1010B92B2F7D183B218460746079E049959
:401D80000593891B89B2531CCA1D1FFA83FA13B2C6EB07090B930BB209930FFA89F9CDF828B0194B13F80AB0BBF1000F15D00BEB0A071F440A9A099B03EB0208124B03EB5D
:401DC0000A0616F8010F2346009504FB009022464146FEF74FFBBE42F3D10A9A0299099B0A4401330A920B9A1BB20BF1010BDA44934209931FFA8AFAD3D1FFF7EABB4FF011
:401E0000160B1A23012203E0CC960000AF4B9B5C01331A44BBF1010B92B2F7D183B218460746079E04990593891B89B2531CCA1D1FFA83FA13B2C6EB07090B930BB2099393
:401E40000FFA89F9CDF828B0A04B13F80AB0BBF1000F15D00BEB0A071F440A9A099B03EB02089A4B03EB0A0616F8010F2346009504FB009022464146FEF7FCFABE42F3D114
:401E80000A9A0299099B0A4401330A920B9A1BB20BF1010BDA44934209931FFA8AFAD3D1FFF797BB049A07994FF0030B531A82B210469BB20592DA1D1BB2C1EB000912B2EC
:401EC0000A9300230B920FFA89F909934FF0BA0ABBF1000F16D07D4B0BEB0A071F44099A0A9B03EB0208794B03EB0A0616F8010F2346009504FB009022464146FEF7BAFA43
:401F0000B742F3D1099A02990A9B0A44013309920B9A1BB20BF1010BDA4493420A931FFA8AFA3FF456AB694B13F80AB0D0E7049A07994FF0030B531A82B210469BB2059273
:401F4000DA1D1BB2C1EB000912B2099300230B920FFA89F90A934FF4BF7ABBF1000F16D05A4B0BEB0A071F440A9A099B03EB0208564B03EB0A0616F8010F2346009504FB7A
:401F8000009022464146FEF775FABE42F3D10A9A0299099B0A4401330A920B9A1BB20BF1010BDA44934209931FFA8AFA3FF411AB464B13F80AB0D0E7049A079940F2691AE4
:401FC000531A82B210469BB20592DA1D1BB2C1EB000912B2099300230B920FFA89F90A934FF0010BBBF1000F16D0384B0BEB0A071F440A9A099B03EB0208344B03EB0A06AF
:4020000016F8010F2346009504FB009022464146FEF730FABE42F3D10A9A0299099B0A4401330A920B9A1BB20BF1010BDA44934209931FFA8AFA3FF4CCAA244B13F80AB09F
:40204000D0E7049A079940F24F1A531A82B210469BB20592DA1D1BB2C1EB000912B20A9300230B920FFA89F909934FF0050BBBF1000F16D0154B0BEB0A071F44099A0A9B32
:4020800003EB0208114B03EB0A0616F8010F2346009504FB009022464146FEF7EBF9B742F3D1099A02990A9B0A44013309920B9A1BB20BF1010BDA4493420A931FFA8AFAF7
:4020C0003FF487AA014B13F80AB0D0E7CC960000049A079940F2351A531A82B210469BB20592DA1D1BB2C1EB000912B20A9300230B920FFA89F909934FF0040BBBF1000FEE
:4021000016D0AD4B0BEB0A071F44099A0A9B03EB0208A94B03EB0A0616F8010F2346009504FB009022464146FEF7A4F9B742F3D1099A02990A9B0A44013309920B9A1BB2CA
:402140000BF1010BDA4493420A931FFA8AFA3FF440AA994B13F80AB0D0E74FF0120B1A23012201E0944B9B5C01331A44BBF1010B92B2F7D183B218460746079E049905932A
:40218000891B89B2531CCA1D1FFA83FA13B2C6EB07090B930BB209930FFA89F9CDF828B0854B13F80AB0BBF1000F15D00BEB0A071F440A9A099B03EB02087F4B03EB0A0608
:4021C00016F8010F2346009504FB009022464146FEF750F9BE42F3D10A9A0299099B0A4401330A920B9A1BB20BF1010BDA44934209931FFA8AFAD3D1FFF7EBB9049A079920
:4022000040F2971A531A82B210469BB20592DA1D1BB2C1EB000912B2099300230B920FFA89F90A93644B13F80AB0BBF1000F15D00BEB0A071F440A9A099B03EB02085E4BB8
:4022400003EB0A0616F8010F2346009504FB009022464146FEF70EF9BE42F3D10A9A0299099B0A4401330A920B9A1BB20BF1010BDA44934209931FFA8AFAD3D1FFF7A9B963
:40228000049A07994FF0030B531A82B210469BB20592DA1D1BB2C1EB000912B20A9300230B920FFA89F909934FF0020ABBF1000F16D0414B0BEB0A071F44099A0A9B03EBDF
:4022C00002083D4B03EB0A0616F8010F2346009504FB009022464146FEF7CCF8BE42F3D1099A02990A9B0A44013309920B9A1BB20BF1010BDA4493420A931FFA8AFA3FF45D
:4023000068A92D4B13F80AB0D0E74FF0240B1A23012201E0284B9B5C01331A44BBF1010B92B2F7D183B218460746079E04990593891B89B2531CCA1D1FFA83FA13B2C6EB2E
:4023400007090B930BB209930FFA89F9CDF828B0194B13F80AB0BBF1000F15D00BEB0A071F44099A0A9B03EB0208134B03EB0A0616F8010F2346009504FB009022464146C5
:40238000FEF778F8BE42F3D10A9A0299099B0A4401330A920B9A1BB20BF1010BDA449A4209931FFA8AFAD3D1FFF713B94FF0250B1A23012204E000BFCC960000AF4B9B5C1B
:4023C00001331A44BBF1010B92B2F7D183B218460746079E04990593891B89B2531CCA1D1FFA83FA13B2C6EB07090B930BB209930FFA89F9CDF828B0A04B13F80AB0BBF101
:40240000000F15D00BEB0A071F44099A0A9B03EB02089A4B03EB0A0616F8010F2346009504FB009022464146FEF724F8BE42F3D10A9A0299099B0A4401330A920B9A1BB239
:402440000BF1010BDA449A4209931FFA8AFAD3D1FFF7BFB8049A07994FF0050B531A82B210469BB20592DA1D1BB2C1EB000912B20A9300230B920FFA89F909934FF0310A6D
:40248000BBF1000F16D07D4B0BEB0A071F44099A0A9B03EB0208794B03EB0A0616F8010F2346009504FB009022464146FDF7E2FFB742F3D1099A02990A9B0A44013309921B
:4024C0000B9A1BB20BF1010BDA4493420A931FFA8AFA3FF47EA8694B13F80AB0D0E7049A07994FF0030B531A82B210469BB20592DA1D1BB2C1EB000912B20A9300230B92AC
:402500000FFA89F909934FF0490ABBF1000F16D05A4B0BEB0A071F44099A0A9B03EB0208564B03EB0A0616F8010F2346009504FB009022464146FDF79DFFB742F3D1099AC9
:4025400002990A9B0A44013309920B9A1BB20BF1010BDA4493420A931FFA8AFA3FF439A8464B13F80AB0D0E7049A07994FF0050B531A82B210469BB20592DA1D1BB2C1EB5E
:40258000000912B20A9300230B920FFA89F909934FF01D0ABBF1000F16D0384B0BEB0A071F44099A0A9B03EB0208344B03EB0A0616F8010F2346009504FB0090224641467F
:4025C000FDF758FFB742F3D1099A02990A9B0A44013309920B9A1BB20BF1010BDA449A420A931FFA8AFA3EF4F4AF244B13F80AB0D0E7049A07994FF0020B531A82B21046E4
:402600009BB20592DA1D1BB2C1EB000912B20A9300230B920FFA89F909934FF0EA0ABBF1000F16D0154B0BEB0A071F44099A0A9B03EB0208114B03EB0A0616F8010F234636
:40264000009504FB009022464146FDF713FFB742F3D1099A02990A9B0A44013309920B9A1BB20BF1010BDA4493420A931FFA8AFA3EF4AFAF014B13F80AB0D0E7CC96000023
:40268000049A07994FF0020B531A82B210469BB20592DA1D1BB2C1EB000912B20A9300230B920FFA89F909934FF0D30ABBF1000F16D0A24B0BEB0A071F44099A0A9B03EBAA
:4026C00002089E4B03EB0A0616F8010F2346009504FB009022464146FDF7CCFEBE42F3D1099A02990A9B0A44013309920B9A1BB20BF1010BDA4493420A931FFA8AFA3EF4F4
:4027000068AF8E4B13F80AB0D0E7049A07994FF0040B531A82B210469BB20592DA1D1BB2C1EB000912B20A9300230B920FFA89F909934FF4827ABBF1000F16D07F4B0BEB65
:402740000A071F44099A0A9B03EB02087B4B03EB0A0616F8010F2346009504FB009022464146FDF787FEB742F3D1099A02990A9B0A44013309920B9A1BB20BF1010BDA4479
:4027800093420A931FFA8AFA3EF423AF6B4B13F80AB0D0E7049A07994FF0030B531A82B210469BB20592DA1D1BB2C1EB000912B2099300230B920FFA89F90A934FF08F0AD5
:4027C000BBF1000F16D05D4B0BEB0A071F440A9A099B03EB0208594B03EB0A0616F8010F2346009504FB009022464146FDF742FEB742F3D10A9A0299099B0A4401330A92B8
:402800000B9A1BB20BF1010BDA44934209931FFA8AFA3EF4DEAE494B13F80AB0D0E7049A07994FF0030B531A82B210469BB20592DA1D1BB2C1EB000912B20A9300230B9224
:402840000FFA89F909934FF0760ABBF1000F16D03A4B0BEB0A071F44099A0A9B03EB0208364B03EB0A0616F8010F2346009504FB009022464146FDF7FDFDB742F3D1099A3B
:4028800002990A9B0A44013309920B9A1BB20BF1010BDA4493420A931FFA8AFA3EF499AE264B13F80AB0D0E7049A07994FF0010B531A82B210469BB20592DA1D1BB2C1EBDA
:4028C000000912B20A9300230B920FFA89F909934FF0A60ABBF1000F16D0184B0BEB0A071F44099A0A9B03EB0208144B03EB0A0616F8010F2346009504FB009022464146F3
:40290000FDF7B8FDB742F3D1099A02990A9B0A44013309920B9A1BB20BF1010BDA4493420A931FFA8AFA3EF454AE044B13F80AB0D0E74FF01A0B5B46012203E0CC9600001E
:40294000A14B9B5C01331A44BBF1010B92B2F7D183B218460746079E04990593891B89B2531CCA1D1FFA83FA13B2C6EB07090B930BB209930FFA89F9CDF828B0924B13F80C
:402980000AB0BBF1000F15D00BEB0A071F44099A0A9B03EB02088C4B03EB0A0616F8010F2346009504FB009022464146FDF762FDB742F3D10A9A0299099B0A4401330A9293
:4029C0000B9A1BB20BF1010BDA44934209931FFA8AFAD3D1FEF7FDBD4FF0190B1A23012201E0794B9B5C01331A44BBF1010B92B2F7D183B218460746079E04990593891BCB
:402A000089B2531CCA1D1FFA83FA13B2C6EB07090B930BB209930FFA89F9CDF828B06A4B13F80AB0BBF1000F15D00BEB0A071F440A9A099B03EB0208634B03EB0A0616F84C
:402A4000010F2346009504FB009022464146FDF711FDB742F3D10A9A0299099B0A4401330A920B9A1BB20BF1010BDA44934209931FFA8AFAD3D1FEF7ACBD4FF01B0B1A23C0
:402A8000012201E0504B9B5C01331A44BBF1010B92B2F7D183B218460746079E04990593891B89B2531CCA1D1FFA83FA13B2C6EB07090B930BB209930FFA89F9CDF828B000
:402AC000414B13F80AB0BBF1000F15D00BEB0A071F44099A0A9B03EB02083B4B03EB0A0616F8010F2346009504FB009022464146FDF7C0FCB742F3D10A9A0299099B0A447F
:402B000001330A920B9A1BB20BF1010BDA44934209931FFA8AFAD3D1FEF75BBD4FF0130B1A23012201E0284B9B5C01331A44BBF1010B92B2F7D183B218460746079E0499EE
:402B40000593891B89B2531CCA1D1FFA83FA13B2C6EB07090B930BB209930FFA89F9CDF828B0194B13F80AB0BBF1000F15D00BEB0A071F440A9A099B03EB0208124B03EB8F
:402B80000A0616F8010F2346009504FB009022464146FDF76FFCB742F3D10A9A0299099B0A4401330A920B9A1BB20BF1010BDA44934209931FFA8AFAD3D1FEF70ABD4FF009
:402BC000150B1A23012203E0CC960000254B9B5C01331A44BBF1010B92B2F7D183B218460746079E04990593891B89B2531CCA1D1FFA83FA13B2C6EB07090B930BB2099351
:402C00000FFA89F9CDF828B0164B13F80AB0BBF1000F15D00BEB0A071F440A9A099B03EB0208104B03EB0A0616F8010F2346009504FB009022464146FDF71CFCB742F3D140
:402C40000A9A0299099B0A4401330A920B9A1BB20BF1010BDA44934209931FFA8AFAD3D1FEF7B7BCCC96000070B5BE4D8AB02B6804460E46072B18D8DFE813F042005E0018
:402C80006A007500A500D30001011900A0F17903772B40F23C81F13C4E2C06D8772E5FD9793E762E01D8FDF755FE0AB070BD322802D81E2940F295811E235F210022009208
:402CC00008461A46FDF7D6FB04A920460A2204F036FB012407A930460A2204F030FB04AB00944FF6FF726E216420FEF715FC6421009407AB08464FF6FF72FEF70DFCD4E7CD
:402D0000A0F12303F82B04D8A1F16F03122B40F20881A4F10A038B2B00F2BC80A6F10A03632B40F20181833E632EBED88E4B01221A60FEF707F8B8E77728A7D8772940F294
:402D4000F980A1F17903762BA5D8FEF7AFF9ACE7A0F182043C2CA8D8A1F1D1061E2EA4D8FDF7E4FEA1E7A0F1F1034E2B02D8EF2940F28D80A4F15003462B00F2BA80A6F1A5
:402D80009603322B00F2FC80784C2368B3F57A7F80F224815D1C002300933C221E235F2125600A20FDF766FB07A920680A2204F0C6FA0222009207AB4FF6FF726921142062
:402DC000FEF7AAFB71E7A0F1F1034E2B01D8EF295DD9A4F11E03502B6AD9823C502C3FF664AF643E322E3FF660AF4FF6FF72604B00240092029350223223642101941E20B5
:402E0000FDF78EFC49F69F625A4B8DE8140002935022322364218220FDF782FC564B1C6043E7A0F1F1034E2B01D8EF292FD9823C462C3FF63AAFA6F12803462B00F28780F9
:402E40004E4C2368012BCCBF03F1FF350125002300933C221E235F2125602820FDF70AFB07A920680A2204F06AFA0322009207AB4FF6FF7269213220FEF74EFB15E7A0F10B
:402E8000F1044E2C3FF611AFEF293FF60EAFFDF759FF0AE7AB3C8B2C3FF607AFA6F10A03632B4AD8304B02221A60FDF74BFFFCE6643E322E3FF6F9AE49F69F622C4B002498
:402EC0000092029350223223642101941E20FDF727FC4FF6FF72274B8DE8140002935022322364218220FDF71BFC234B01221A60DBE6A03C462C3FF6D8AEA6F19603322BD4
:402F000056D81A4C2368012B73DD5D1E43E777296CD9A1F17906762E3FF6C7AEFEF714FAC3E6FEF77FFAC0E60F4B00221A60FDF709FFBAE6FEF702F8B7E6833E632E3FF6A8
:402F4000B4AE094B03221A60FDF7FCFEADE6823E462E3FF6AAAE094C2368072BD4BF5D1C082574E7E491FF1FEC91FF1FE091FF1F4096000044960000F091FF1FE891FF1F71
:402F8000A6F15003322B07D81B4C2368B3F57A7F24DA03F10A05FEE60A3E322E3FF685AE154C2368B3F57A7F18DA03F16405F2E6A6F15003322B06D80F4C2368012B18DD83
:402FC000A3F10A05E7E60A3E322E3FF66EAE0A4C2368012B0DDDA3F16405DCE64FF47A75D9E6FDF7A3FD00232B605EE6FEF71AF95BE60125CFE600BFE091FF1F2DE9F04182
:4030000072B6904A904D1378A5F1240643F004031370002404EB440306EB4303AA88586A0134002104F098F9092C05F10605F1D180228649864804F084F9864E864F0025D3
:4030400056F8043F13F0FF0E23F0FF0413D005F110530EF1FF3E03F131005FFA8EFE7044303340005B001A785978023383421155F9D101357544BE42E2D1784941F25126CB
:403080000B78774A43F002030B701378754843F0020313700278A1F5863142F04002027041390A78704C42F01002704B0A7003CB6F4A2060616003CB6E4DC4F8C000C4F8AF
:4030C000C41003CB106051602A786B4F03CBDFF8E8C13860796042F0080203CB674F2A70DFF8D8E12063612265486163A5F29E258CF800200021582239808EF800202980F0
:40310000027002211868A4F6027487F880124FF04025082203215B4B2A7021701B785A49DBB287F82136594BA5F8222226841C7808604FF4F0701D4604F0010400F08CFE59
:40314000182601E0032C0DD02B784FF4F07003F0010343EA440400F07FFE013E04F00304F0D1FEE74A4B4B4F4B4DDFF854C14B484FF4807407211C80002219704FF0480EA4
:403180004749022604248CF8002087F800E01A702E7004700B78434A43F003030B701378304C43F001031370237800F5F720012100F2F97043F080034FF0810E3A4A23704C
:4031C0003A4E85F8FFE7017013783578DBB297F8F186374AA0F5F420A0F2967003F0070EEDB21B0980F800E05FFA88F813700CF5D45C45F00303337080220CF1050C48F070
:40320000030387F8F136DFF8BCE080F89B208CF80010284920238EF8003080F8BA220A200B7000F0F7F894E80F00DFF89CE087F8F1861034442735708EF8007007C42380DA
:40324000BDE8F081E8460040409A00002C05004800040140FCFFFF475C0000480350014013500140A043004002510040AC050048F25100402243004012510040804000409B
:40328000864000400801004900410040254200400440004008400040014000400B400040A2430040A1430040CF010049F84600406F5800402B5B004000480040824000403F
:4032C00006400040985A00407658004008B503F0F3FF03680C2B00D0FEE7FEE7094908B50A68094B1044C31AB3F5805F02DC0860104608BD03F0E0FF0C234FF0FF32036068
:40330000104608BDCC80FF1F9892FF1F80B5134FF7B1134E002556F80C0C56F8084C56F8102C03463CB1043A52F8041F43F8041B191AA142F8D156F8040C1A4620B142F886
:40334000045BD11A8842FAD1013F06F11006E2D103F0B8FFFCF796FEFEE700BF01000000589D00000E4B0F4A0F491A600B680F4A43F400730E480B600023032B94BF50F8FC
:4033800023100C490133302B42F8041FF5D10A4B0A4918780A4A0B4B08701A60FFF72EBE0CED00E00004FA0514ED00E0FC7FFF1F00000000CD320000BC760040C080FF1FF8
:4033C0000080FF1F08ED00E001BE7047B0F5004F70B506461AD904460D4DA4F50044686800F03AFDB4F5004FF7D8A6F50043013B23F4FF4323F07F03A6F50046F61AA86844
:4034000000FB06F0BDE8704000F026BD004DF6E7D080FF1F024B1B7800FB03F000F01CBDD080FF1F064B1F281A6800D901BE00F01F0000F1100352F8230042F82310704780
:4034400008ED00E0072900D901BE1F2800D901BE00F01F0000F16040490100F56440C9B201707047044A4000137800F0020003F0FD0318431070704700510040024B1878AC
:40348000C0F34000704700BF01510040044A00F00100137803F0FE0318431070704700BF00510040044A4001137800F0200003F0DF03184310707047F05100400549064AC1
:4034C0000B7843F002030B70137843F002031370704700BFA2430040B243004070B51E4C2378A3B11D4C00F0BFFC23781C4943F0200323700B781B4A43F010030B701378D1
:4035000043F010031370BDE8704000F0B1BC164B0F21164A19701378990604D514490B7813789B06FBD400F09FFC124B124E1A780E4D42F001021A701A7802F0FE021A70B6
:4035400000F096FC0D480E490023012236782D7803700B702270C5E7AC81FF1F906400409264004096640040806400406664004051640040916400406264004082640040E5
:4035800086640040034A13785B07FCD5024B1870704700BF626400404164004010B419490A78FAB9184B19481A7002701A78184C02F0F3021A701A78012042F004021A70A9
:4035C0001A78C2F3810202F19242063292F83821D2B222701A7802F0FD021A701A78D2B21A7008700B490C4A0B780C4843F008030B701378642143F008031370017010BC9C
:40360000704700BFAD81FF1F2C5800402D5800400B460040A8430040B8430040835B004010B419490A78FAB9184B19481A7002701A78184C02F0F3021A701A78012042F0C3
:4036400004021A701A78C2F3810202F19242063292F83021D2B222701A7802F0FD021A701A78D2B21A7008700B490C4A0B780C4843F002030B701378642143F002031370DC
:40368000017010BC704700BFAE81FF1F245800402558004009460040A8430040B8430040815B0040F8B5334D2C78F4B9102000F07FF807212046FFF7C5FE2F492046FFF750
:4036C000B1FE44F620602D4A2D4E13782D4F43F006031370C22333702B492C4A2C4B01263C802E70086014801C8000F0BDFB294A04461378284943F0020313700B78274899
:4037000043F002030B70037801F5AA5143F0010303709379103143F0010393710A7800F5AB501F4B0D30182542F003020A7005701A781C4E42F040021A701A78A0F59750B4
:4037400002F0FC021838CE2702251A703770057091F824320A2043F0080381F82432FFF759FE114B012220461A60BDE8F84000F07FBB00BFAF81FF1FAD37000009590040EB
:403780000A590040F491FF1FF891FF1FF691FF1FFC91FF1FAB430040BB430040A14300400D5900400859004080E200E0704700BF034A00F0F800137818431070704700BF2C
:4037C00002410040F8B51D4D2C7824BB1C4B1D4E02271F701C4A812737701C4B1C481D49082717700F264FF40042067030460C701A600721FFF726FE30461749FFF712FECC
:40380000164E1749174A184B10270120377028700C7014701C7000F027FB1449144A0B7843F004030B70137843F00403137000F01FFB104B4FF400421A60F8BDB081FF1F28
:40384000D6490040C8490040CA49004080E100E0DB490040DC49004035390000FE91FF1F0292FF1F0A92FF1F0092FF1FA5430040B543004000E100E02DE9F843234BDFF84D
:40388000B080234F234E4FF40049C3F8009098F800E0214D3978327830783B781F4C43EA00202B78013003F0FE032B7080B284F803E02171627100F0CFFA00F0D5FA1849A0
:4038C000184A0B7803F0FB030B70137803F0FB03137000F0CDFA2B782179627994F803E043F002032B7088F800E088F800E0397032702B780C480D4A03F0EF0310212B705D
:40390000C0F800901170BDE8F88300BF80E100E0DB490040DC490040D6490040E080FF1FA5430040B543004080E200E0FE91FF1FCA490040F8B5824B824D1C782B78590677
:4039400041D5E4B2E2072AD52B78453B052B7ED8DFE803F003657D7D033F04F00A03082B04F0DF0400F08B800A2B70D1764A7749137843F0A00313700B789F0740F1898069
:403980002B78107813F0080F0CBF0A2309237049034360264FF4004013702E700860A20616D52B78684913F0080F08780CBF02230123684A03430B701378102103F0EF0364
:4039C00013702970F8BD2B78DB065CBF10232B70F8BD614A61496248137809780068DBB2C9B2C15413785F490133DBB2137012780B789A423FD3554B1B7803F0020303F0B4
:403A0000FF02002B72D0504A51491378602643F009034FF4004013702E700860BFE7A60719D4514B514A1978127891424ED250491A780968D2B28A5C484E4149D2B2042035
:403A4000327008701A780132D2B21A70A7E70020FFF7BAFCA3E73D4B1B78990725D53A4A3B491378602643F09A034FF4004013702E70086093E7324B10221A708FE72B78FF
:403A8000304A452B3AD02E4900204A230870137085E7304A374E1378294943F010031027042013703770087079E72A4A314E1378234943F0100313701027234A04203770E6
:403AC0000870137843F09003137068E71F4B1B789807DED51C4A1E491378602643F00A034FF4004013702E70086058E7194914480B7843F010030B70027050E71B4B1B78CF
:403B000073B11B4B15481B680D4E1B781649DBB203700427012046233770087013703EE70A4B1B789B07B4D5074909480B78602743F00A034FF400460B70177006602EE74E
:403B4000D7490040FE91FF1F0292FF1F0892FF1F80E100E0D64900400A92FF1FD84900400492FF1F0992FF1F0092FF1F0192FF1F0C92FF1FD9490040184A1378102B01D02E
:403B800002207047164B1B781B071BD4154B30B440004FF40044C0B21C60A9B945231370114D0F4B0121114C2870197023780F49DB07FBD50B7803F00A030A2B09D0002033
:403BC00030BC704701207047492340F001001370E6E7102313700320F2E700BFFE91FF1FD949004080E100E0D8490040D7490040154B1B785A0701D4022070474000F0B4F5
:403C0000C0B2124CB1B945232370114B114F19460D4D1226042238702E701A700B780C4ADB07FBD5137803F00A030A2B07D0F0BC00207047492340F001002370E5E71023D8
:403C400023700320F0BC7047D9490040FE91FF1FD7490040D84900400A4B1A78520701D402207047084830B40246084C10210425197005702170137813F0210FFBD000200B
:403C800030BC7047D9490040D7490040FE91FF1F114B1B785A0701D4022070470F4B70B419460F4E0F4C0425462230701D7022700B780A4ADB07FBD5137803F0020303F010
:403CC000FF0023B160232370032070BC70476023237070BC704700BFD9490040D7490040D8490040FE91FF1F124B1B7803F00403B3B130B4104C05462378492B14D00F4A28
:403D000013780E49DB07FBD50D4B1B78D8B21DB96023237030BC704710230B7030BC704703F0FF0210467047044A00214A2311702370E4E7D9490040FE91FF1FD74900406F
:403D4000D849004070B5FFF73DFD00213820FFF713FF0520FFF79CFF01213820FFF748FF0020FFF7C1FF0446FFF776FF00213820FFF702FF0620FFF78BFF01213820FFF78E
:403D800037FF0020FFF7B0FF0546FFF765FFFFF773FDFFF717FD00213820FFF7EDFE0320FFF776FF01213820FFF722FF0020FFF79BFF240204F470642C430546FFF74CFFDD
:403DC00000213820FFF7D8FE0420FFF761FF01213820FFF70DFF0020FFF786FF06462D0205F47065FFF738FF24B2FFF745FD45EA0601204609B2FEF737FF024B02221A60FC
:403E000070BD00BF80E200E070B4074B074E1C68074D08490223084AE02033606564087070BC1360704700BF08ED00E080E100E0453D000001E400E000E100E0014B022272
:403E40001A60704700E100E0014B02221A60704780E200E0000000000230800803D000BF01380046FCD17047EFF3108072B6704780F31088704700BF094B10B5D8689A68F1
:403E8000002308E0114652F8084B1CB901230B60486810BD01338342F4D3002010BD00BF1092FF1F084B30B50022DC689B6808E05D6819460833854202D100230B6030BDF9
:403EC0000132A242F4D330BD1092FF1F01230373704700230373704710B1002282720260704718B1027B0AB1013A02737047000038B501F02BFD20B3124C4200E260000182
:403F000001F018FD238AA060E068584301F012FDA568E168228A002304E005EBC3046060013380188B42F8D3102001F003FD054C6061282001F0FEFCA37CA06143F0020349
:403F4000A37438BD1092FF1F38B510220D460021044601F021FCFFF78FFF08B9013038BDA0604FF0FF33002065602360A07338BD38B5837A044643B1056801F0F7FA284659
:403F8000FFF7AFFF2046FFF7A7FF002038BD08B50368827A03B19B6822B11BB1FFF7E8FF002008BD012008BD08B901307047FFF7EEBF000038B5104B9C69217B59B921605C
:403FC0006160A16004F11000142201F0E5FB237B013323730DE0656A45B9282001F094FC606218B12946282201F0D6FB646A002CE3D1204638BD00BF1092FF1F38B50E4B34
:404000005C69A17AE56839B92046102201F0C4FB0123A372E5600CE045B9102001F074FCE06018B12946102201F0B6FBE468002CE7D1204638BD00BF1092FF1F2DE9F74F6E
:4040400006460020884691469B469DF830A09DF83470FFF7AFFF054608B9044610E0FFF7CDFF044660B180F80B900560AE604046214652463B46CDF800B001F0ABF830B133
:404080002046FFF729FF2846FFF72BFF00242046BDE8FE8F2DE9FF410C461F4604A9002341F8043D15469DF8286000F0A5F88046B8B1039B0BB11B789BB1404600F025F9DA
:4040C00000280EDD14F0150F01D0032809D1039939B1404622462B4600970196FFF7AEFF00E0002004B0BDE8F08100002DE9F3410646884600240E4D404655F83410E7004E
:4041000001F080FB10B9002C04DA0DE001340F2CF1D109E07D19A87929790090EA796B793046FFF7B7FF00E00020BDE8FC8100BF789A0000FFF7DABF10B5437B04460BB1DB
:40414000012010BD40682168A268A37B01F0C5FC10B10120607310BD207310BD10B5437B044663B9037B53B140682168A268A37B01F0B3FC08B1012363730023237310BDC7
:40418000036870B5994204460D46164607D0037B0BB1FFF7E3FF00232560A673E37370BDFFF7DCBF10B50446FFF7D8FFA068BDE81040FFF777BE01230373FFF7CFBF10B5F6
:4041C0000446407B08B1012010BDE37B5BB960682168A268A37B01F01AFC10B10120607310BD0122E27310BD08B5436813B94FF0FF3008BD984708BD2DE9F0470F463A2152
:40420000064601F02EFB044610B93446174D27E00378C6EB000A5BB114F8013F43B162783A2A05D1A3F130085FFA88F8023401E04FF000080D4D2B6828791B6898478146D0
:4042400001F0EDFA504508D148463146524601F0EEFA10B92B79434502D0AD6D002DEAD107B13C602846BDE8F08700BF2C92FF1FF8B5174C064694F85710A56D69B95C223F
:404280000127204601F088FA84F85770A5653046FFF7AAFF00280EDA18E045B95C2001F033FBA06518B129465C2201F075FAA46D002CE0D10AE0074B26609A6F01329A67F2
:4042C0000323207184F8577084F856302046F8BD2C92FF1F1092FF1FFFF7CABF38B504460D4601F062FB08B9013838BD204601F06FFB204601F008FD204600F0D5FC08B1C8
:4043000084F8555094F8550038BD90F8553023B990F8561009B1FFF7E1BF1846704710B590F8552004463AB931B1FFF7D7FF002802DC4FF0FF3010BD94F8550010BDFFF7B8
:40434000EEBF10B50C460021FFF756FF08B9013810BD2146BDE81040FFF7F1BF30B51346BAB1B0B10268857A0AB1946804B900247DB172B16CB1C27A12F0100204D14FF661
:40438000FA730381104630BD1A46BDE8304001F00FB9002030BDFFF7E1BF0C2802D0102805D102E001EB510070474800704788007047036840689B685B6AB0FBF3F07047B0
:4043C00010B5C46C436CE4B199421AD3E318994217D2013B99420CBF4FF0FF31013172B190F836300C2B02D0102B05D102E00905090D03E089B201E021F0704111600120F6
:4044000010BD002010BD40F6F473984201D80C2070474FF6F473984294BF102020207047027F8368023902FB01307047431EDBB21F2B13D92F2811D007D826280ED002D8C2
:40444000222809D10AE02A3804E03A2804D33F2804D95B38022801D90120704700207047034638B30B2A01DD0B2200E0013A00201CE0082809D191F808C0BCF1200F0DD066
:404480004FF02E0C03F801CB08E038B991F800C0BCF1050F02D1ACF1200C04E011F800C0BCF1200F01D003F801CB01309042E0DB00221A7070472DE9F04788B005AE044679
:4044C0000D463046114600229A469DF84490BDF84C80BDF8507000F0BDFC08B1002413E020462946524600F0AEFD044660B1129B31460093109A4B46CDF80480029700F09B
:4045000065FF2846FFF7E2FC204608B0BDE8F08710B59DF80C400394BDE8104000F078BD2DE9F04F144E87B0109DDDF848809DF84440376800950194CDF8088005937F685E
:40454000934682468946B84732680C4BDDF814C09A420DD060B9504649465A46634610951194CDF8488007B0BDE8F04FFFF7D0BF07B0BDE8F08F00BFE880FF1F209B000020
:4045800070B5C37A04460B7010300D4601F098F9064604F10E0001F093F940EA0640686004F1120001F08CF90004A86004F1180001F086F9064604F1160001F081F940EAC9
:4045C0000640E86004F11C0001F061F9286170BD2DE9F845038A04460E46924687692BB907F118002146626900F004FC38465146224600F087FC0546204600F005FCD5B1A7
:404600002B78C3B1E52BF1D095F80B80B8F10F0FECD018F00808E9D170692946B269FFF71FFF28463146FFF7ABFF238A404601332382BDE8F8854FF0FF30BDE8F885022247
:40464000FFF79EBD2DE9F74F04460D461E461746002A00F09B8090F836001146FFF79DFEB4F81EA0A36A20FA0AFA9A45814680F08D80638E04F118089A442846514642462B
:40468000FFF7DDFF2846FFF79AFD6B7B002B7DD1A38B013B09EA0309AB681FFA89F909EB030B26B9226C974203D2276401E07A1C226494F83620102A0AD0202A11D1584652
:4046C00001F0E5F831460746584601F0EBF84EE0584601F0F5F8B1B20746584601F0ECF845E028460193FFF7F1FB019B17F0010F19F803701CD007F00F0242EA061209F870
:404700000320A38B013B994502D00BF1010309E028460AF101014246FFF791FF2846FFF74EFDAB681A78120142EA171732091DE009F80360A38B013B994502D00BF1010363
:4047400009E028460AF101014246FFF778FF2846FFF735FDAB681A7802F00F0147EA0127310A22F00F0201F00F010A431A702846FFF7ACFBE36BB3F1FF3F09D00FB101331C
:40478000E3632EB1E36B013BE36301E0012000E00020BDE8FE8F6FF07043FFF753BF70B5C36C04460E4693B1002506E0AA1820463146531CFFF746FF0135E36C626C013B9D
:4047C0009D42F3D320463146AA18FFF7E4FF00236364E364A364236570BD70B506460D461C460AB1FFF72EFF304629462246BDE87040FFF7D0BF2DE9F04790F836600546CE
:404800000C46304611469146FFF7C7FDB5F81E80AB6A20FA08F89845824602D30020BDE8F0876B8E05F118079844204641463A46FFF705FF2046FFF7C2FC18B14FF0FF30F6
:40484000BDE8F087AA8BA168013A0AEA020A1FFA8AFA92450AEB01031AF8015001D0013309E0204608F101013A46FFF7E8FE2046FFF7A5FCA36818780C2E45EA002009D02E
:40488000202E0FD15D7840EA05409D7840EA0560BDE8F08719F0010F02D00009BDE8F0870005000DBDE8F0872DE9F34190F83630144603FB02F7828B8846D200511E0F4094
:4048C000D71B0546B7FBF3F7002618E00E4B93F87C30022B05D12846214601AAFFF770FD28B9284641462246FFF785FF0190019B0134A34205D10136B6B2013F1C46002F06
:40490000E4DC3046BDE8FC811092FF1F2DE9F34105460E46144698461F681CE0114B93F87C30022B05D12846214601AAFFF748FD28B9284631462246FFF75DFF0190737B6B
:404940000BB100240BE0AA6B019B0132934204D81BB1013F1C46002FE0D1C8F800702046BDE8FC811092FF1F73B504680E4623681BB9FFF71EFD013039E0FFF71AFD2369D6
:4049800098423CBF4FF0FF3323612369B3F1FF3F04D12268013323616261E3832169E28B451A954234BF2B4613463BB16069C918C018D21A60612161E283ED1A0DB9284658
:4049C00015E002AB43F8045D31466269A068FFF79DFF6061019B21690246C91A4D19256123B9A0683146FFF75FFFE08301987CBD13B502AC44F8043D2346FFF787FF019B47
:404A0000002B18BF00201CBD2DE9F0410746884615461E460024384641462A460123FFF7E7FF30B1BA6B0134944201D80546F2E7002406B134602846BDE8F0812DE9F8456D
:404A400004460E4615461F46002B36D01C4B93F87C30022B31D190F8368011464046FFF79CFCB4F81CA00AF1FF3A2AEA000A4FEACA0ABAFBF8FAAA44A8460EE0204631461C
:404A80004246FFF7B8FE50B9636C0BB9C4F84480A36C08F101080133A364D045EED9A36C5BB127653B685A6922B1204631462B46FFF7C8FDE36C0133E364BDE8F88500BFEA
:404AC0001092FF1F2DE9F8459846274B054693F87C300F46022B1646846B19D1036D984503D0836C0BB1FFF75AFEB8F1000F0FD02B6D43450CD1EB6CAA6C9A4204D96C6C6F
:404B00001C190133EB642CE028463946FFF747FE012E04F1010A01D9564505D92E6C012E01D9564500D902263446284639462246FFF761FE50B101345445F6D902240DE0F3
:404B4000284639462246FFF756FE30B92846394622464346FFF772FF03E00134B442EFD300242046BDE8F8851092FF1FF8B507460E461546FFF7A6FF044628B138463146D0
:404B80002A462346FFF729FE2046F8BDB2F1FF3F73B504460D4614D0561A013611D0FFF7FFFA084B00211A8AA06800F0F5FD022300936068A3682946324600F069FF0023F4
:404BC000E3737CBD1092FF1F2DE9F84F984690F8363004460C2B0D4616465AD04FF0FF3AD1463CE094F836003146FFF7D6FBB4F81CB0678E0BF1FF3B10EA0B0BE38B1DD129
:404C0000D840013F3F18022228463946FFF7B8FAA38BAA689B0852F80B1079B9013B0BF1040BF8D13BE0494628465246FFF7AEFFB946BB462846FFF74CF9DA46294632467F
:404C400001232046FFF7D4FE29460746324620460023FFF7F7FC2FB108F1FF383E46B8F1000FBFD1284649465246FFF78FFF13E02946324601232046FFF7BAFE2946074679
:404C8000324620460023FFF7DDFC2FB108F1FF383E46B8F1000FEBD14046BDE8F88F0AF1010B5F45BFD1C5E72DE9F8450446FFF7E3F8054608B9044696E0204600F014FFE0
:404CC0004B4E338A834208D338B1002120462A460B4600F09CFE002804DA2846FFF7E2F8002481E005F5FF7000F0EAFD4AF65523984275D105F10B0000F0E2FD10F47E4F81
:404D000007466DD0338A83426AD32B7C022B67D16E7B002E64D000213C2204F1180000F03BFD05F1130000F0CBFD804620B905F1200000F0ACFD804605F1160000F0C0FD91
:404D4000824680B905F1280000F0BAFD10F08F0F46D105F1240000F09AFD824605F12C0000F095FDE062022384F83530C4F828A0C4F8188084F8346005F10E0000F0A0FDEA
:404D8000608605F1110000F09BFD638E94F83520208602FB0A3A7B099BB2B0FBF3F05044A7832062092301229A40BA4201D1E38302E00133102BF6D17743C0EB0800B0FB99
:404DC000F6F0A0636762FFF71EFB4FF0FF33202884F8360018BFC4F82CA0E363012400E000242846FFF75EF82046BDE8F88500BF1092FF1F00238B60837F202B01D102B910
:404E000042694A600A60704783680133836070472DE9F0410C46202105461F469DF818604FF0000800F0B8FC10E014F8080036B9E52804D1B8F1000F01D1E03802E000F078
:404E400009FDC0B205F8080008F10108B845ECDBBDE8F0812DE9F74506460D4608462849002A14BF92464FF0FF3A00F0CBFC804650B930462946022200F05DFEB01C2021F5
:404E8000092200F089FC37E000274FF0FF3415F80780B8F1000F01D0574505D1B4F1FF3F08BF3C4664B925E04046FFF7BFFA08B3B8F12E0F08BF3C4601370D2FE7D119E081
:404EC000082C17DC3F1B042F14DC30462946082223464FF00008CDF80080FFF799FF0123611C009306F10800691803227B1EFFF78FFF01E04FF001084046BDE8FE8500BFF0
:404F0000309B00002DE9F74FD2F808B0436A4FEA4B18B8FBF3F8D368054698450E461446D2F8009001D20023D360B5F81EA0E368AAF1050A0BB9D4F804902BFA0AF7B9F1F9
:404F4000000F17D095F83420B8EB0303019206D04A4628463146FFF74BFD814640B3494605F11800FFF75CFA019B591E01EA0707C11906E02B8E43FA0AF39F4218D2E96A15
:404F800079183046C4F80090C4F80C800122FFF7F7F83046FFF713F950B9013000FA0AFAB3680AF1FF3A0AEA0B0B03EB4B1000E00020BDE8FE8F2DE9FF4107460E4601A82A
:404FC00011461A460A9D9DF82C40FFF743FFC8B9384631462A46FFF795FF8046A0B1037883B101A90B2200F0C7FB38B998F80B3004EA0302A24201D1082B05D12846FFF789
:4050000003FFE5E74FF00008404604B0BDE8F0812DE9F04587B002AF04460E46154698469DF83CA039460E9A1830FFF7E3FE204631462A4643460097CDF804A0FFF7BBFFC4
:4050400007B0BDE8F0852DE9F04500F1180785B005460C46384669469246FFF7CBFE284621466A46FFF74EFF06466846E846FFF7CBFE002E37D1BAF1000F02D12B8E002B18
:4050800035D12146009A00232846FFF7BDFC2146024600232846FFF769FD80462046FFF78AF8B8F1000F22D0AA8B0021A06800F073FB38464146FFF7B3F995F83470002506
:4050C0007E1E361808E0314620460122FFF758F82046FFF731F8013E01357B1BB3F1FF3FF1D1A66803E033780BB1E52BB7D1304605B0BDE8F08538B504461A3000F0E0FBE3
:40510000054604F1140000F0DBFB45EA004038BD2DE9F0451D4685B007460E462A6010465C21904600F09DFB4FF0000A0446A04508D108F10108C5F8008040465C2100F02F
:4051400090FB044694B1C8EB0403002B0EDD10220192103A0292384631464246CDF800A0FFF7DEF970B1FFF7C6FF824628685C2100F077FBA04604460028D8D10C9B013007
:40518000C3F800A005B0BDE8F085F8B505460C461E461746DAB16FF01A0313700846FEF795FE16B94FF47A7608E007F11C0000F06EFB6B6A5E1E3618B6FBF3F63846FFF756
:4051C0009AFF2146024633462846FFF7FDFC607BF8BD00002DE9F04FD1F8008093B0D8F808700BAD044608930E464FF0FF333946284609920F939DF870A0FEF7A5FE10AB54
:40520000009338462946224611ABFFF781FFD0B1F27A109B07920FAA00930292002338462946119A0193FFF77BF9044680B1C37A13F0100F07D10D9BDDF82CB0C3EB0009C8
:405240004FEA691906E02846FEF7ACFF0125A3E083468146099B002B3CD0002C33D0524B5D6912E02B687BB1AA7A6AB19A8B4A450AD19A695A4507D19B68BB4204D14FF6C6
:40528000F772328100257EE0ED68002DEAD10DF12C0C6146384622460123CDF818C0FFF774FFDDF818C018B14FF0FF3333816AE03E4B1B68DC6824B138466146109A0F9BA2
:4052C000A0472C4606E0BAF1000F03D1089A002A44D065E0089BEBB1CCB1E37A13F0010F0BD0079A12F0150F07D04FF6FA733381BAF1000F01D1012500E000252046FFF79E
:40530000FAFE074604F11C0000F0C1FA29E0BAF1000F45D0BAF1010F01D000251BE0ECB900F024FD214B20221B68019282B2000C03920490009402949D6838460BA9119AF9
:40534000109BA84750B10D9ADDF82CB0C2EB00094FEA6919254628462F4602E00125002007464FF0FF33C8F81030C8F818B0A8F81C90079AC8F8040012F0010308BF184631
:40538000C8F800707060B6F908300BA835EA230528BF0125FEF706FF284613B0BDE8F08F01255046DCE700BF1092FF1FE880FF1F70B505460C461A3089B200F07DFA05F188
:4053C0001400210CBDE8704000F076BA2DE9F0470446BDF824700D469146002120229A46BDF82860DDF8208000F0D6F90B222046294600F0A0FB04F10E00394684F80BA003
:4054000000F05AFA04F11000314600F055FA04F11600394600F050FA04F11800314600F04BFA20464946FFF7C3FF04F11C004146BDE8F04700F036BA07B5426803460AB97D
:4054400010460AE081680020009048681968DB6800F0FCFA003818BF01200EBD2DE9F047046805460F46A668FFF77EFA81468246002841D0D4F80080B8F1000F1BD14246E9
:40548000304639462B46FFF71DFB0246D8B11C4B6061C4F8108093F87C302060022B07D030463946FFF777F910B10120BDE8F087B9F1010A20D03046394662692B46FFF753
:4054C00001FB804628B94FF6FE732B810130BDE8F0870B4B93F87C30022B05D03046394662694346FFF779F92369C4F8148001332361BAF1010ADDE70020BDE8F08700BF11
:405500001092FF1F2DE9F041836804460D4608460122A1699E8BFEF733FE2846B4F81C80AF68FEF74CFEF8B9013E06EA4816B6B2BE1906F11C00616800F0B4F92168304611
:40554000FFF736FF00F012FC0446A1B206F1160000F0B2F906F11800210C00F0ADF92846BDE8F041FEF727BEBDE8F0817FB50668B0F90830B568C3B9C37A13F0110F14D057
:4055800029466846FEF7E0FC30466946FFF7BAFF064B6C4693F87C30022B03D128466946FFF7FDF86846FEF7FDFD7FBD1092FF1F03682DE9F04F9F68038995B001339BB234
:4055C000012B04460E46059201D90025CEE0394610AD0CA8FEF7B8FC39462846FEF7B4FC039626680023D6F808909A4609F118010791D9F82420059906924FF0FF320993E0
:4056000008920A950291049320460CA9FFF726FF38B108A8FFF710FF5546002818BF00258FE03269069901324A43B9F81CB063680BF1FF3BD21A0BEA030B029B079893428D
:4056400028BF134601937169FEF7EAFE99F83430B9F81C206768013BB7FBF2F703EA0707C719B9F81C300199CBEB03058D4228BF0D469D4228D0BBF1000F03D162687368D3
:405680009A420FD00DF14008404639460022FEF777FD4046FEF793FD20B14FF6F9725546228154E01298039958442A460DF1400800F041FA404639460022FEF761FD404698
:4056C000FEF73AFD90B141E0099B089A9A1897420AD008A8FFF7B0FE002837D101230993039B08970B9301E001330993029B03995B1B019A029363684919521BAA44ED1835
:405700006560736803919D42019207D91BB1194B93F87C300BB9012104917560019A1AB101374FF0000B9CE7029B002B7FF46CAF08A8FFF781FE04995546002818BF0025EA
:4057400029B1304610A9FFF7DDFE00E05546059A954205D0B4F9083013B94FF6F87323810CA8FEF71FFD10A8FEF71CFD284615B0BDE8F08F1092FF1F10B5002308E0C45CF2
:4057800011F803C0013A0133644501D0012010BD002AF4D1104610BD70B5034602E003F8011C013A1C4622B103F003050133002DF5D193081ED04FF001354D4308E044F888
:4057C000105C44F80C5C44F8085C44F8045C043B032BA44604F11004F1DC1C46002603E04CF80650013B0436002BF9D102F003020CEB8404002302E0E154013A0133002A77
:40580000FAD170BD002310F803C0CA5C624501D0012070470133002AF5D110467047002300E00133C25C002AFBD11846704710B500230BE0C45C11F803C0644501D0012021
:4058400010BDC4186478013314B1013A002AF1DC002010BDA0F16103192B98BF00F0DF007047C9B203E00BB918467047013003788B42F8D1704742780178431C42EA012066
:405880005A789B7842EA002043EA002070478378C27803EB0222437803EB0222037803EB0220704703460A0A03F8011B42700A0C090E5A70997070470170090A4170704794
:4058C0004278037843EA022070470000094A0A4BC11C10B5146821F0030118680919814201D9002010BD11609A685868013220189A6010BD9092FF1FB481FF1F08B5FFF7BB
:40590000E5FF00B9FEE708BDFFF7E0BF30B1044A9368013B93600BB9024A1360704700BFB481FF1F9092FF1F014B586019607047B481FF1F38B50546FFF7E0FF00210446A7
:405940002A46FFF729FF204638BD000010B5084CA37C0BB1002010BD4FF40073238200F0F5F9A37C012043F00103A37410BD00BF1092FF1F08B583680BB10020984708BD22
:4059800008B583680BB10120984708BD10B504680079A468A04710BD37B59DF81850046800790095E468A0473EBD08B5036800799B69984708BD036810B55B69044623B168
:4059C0000079984708B1002000E00120607110BD10B5437904460BB9FFF7EDFF607910BDF7B504461F460E461546FFF7F1FF2046FFF7C6FF2A463146012320460097FFF7B1
:405A0000C5FF05462046FFF7B5FF2846FEBD10B504690919BDE81040FFF7E2BFF7B5044615461F460E46FFF7D3FF2046FFF7A8FF0023009331462B463A462046FFF7ACFF44
:405A400005462046FFF796FF2846FEBD30B504699DF80C5009190395BDE83040FFF7DEBFF7B5044615461F460E46FFF7B1FF2046FFF786FF0123009331462B463A46204606
:405A8000FFF78AFF05462046FFF774FF2846FEBD30B504699DF80C5009190395BDE83040FFF7DEBF73B504460E461546FFF790FF2046FFF765FF00232A4600933146013348
:405AC0002046FFF769FF05462046FFF753FF002D14BF4FF0FF3000207CBD10B504690919BDE81040FFF7DEBF30B5054685B0FFF76FFF2B6828791C694FF47B71002201ABC7
:405B0000A04708B1002001E0BDF80C0005B030BD70B506460D46FFF75BFF336830791C694FF47B7100222B46A047002814BF4FF0FF30002070BD11F0030F70B584460B46D2
:405B400032D110F0030F2FD195100446AC4611E053F8106CACF1040C44F8106C53F80C6C44F80C6C53F8086C44F8086C53F8046C44F8046C10341033BCF1030FE8D8AB080C
:405B80001B0100EB030CCB1815F003050AD0284600215C584CF8014004310138F9D1AD00AC445B1902F0030213F0010F19462FD11CF0010F60462BD15410254610E031F8E5
:405BC000086C043D20F8086C31F8066C20F8066C31F8046C20F8046C31F8026C20F8026C08300831032DEAD8A108C9005B1814F003048C440AD0204600215D5A2CF8015051
:405C000002310138F9D16400A4441B1902F00102614610E013F8040C043A01F8040C13F8030C01F8030C13F8020C01F8020C13F8010C01F8010C18460433032A8C4601F1DA
:405C40000401E7DC32B10023C15C0CF8031001339342F9D170BD0378E92B01D101207047EB2B01D0002070478078902814BF00200120704708B500F5FF70FFF721FE4AF63A
:405C80005523984214BF0020012008BD01EB001000F5E370FFF7FBBDF0B50D4685B01446064658B352B300210B46FFF799FE002824DB2046FFF7DEFF00B32046FFF7CBFFAC
:405CC00010B10024274616E02146FFF7DFFF074604F5E570FFF7DBFD01A904463046FFF717FF5CB157B1E219FF23120AB2FBF3F2029B9A4202D81DB12C6001E04FF0FF375F
:405D0000384605B0F0BD000073B50446FFF7ECFE0646FEF7B1F80C4B05461B8AB3420DD366B1204601A92A46FFF7B6FFB0F1FF3F04D02061019B6361002400E0FF242846C0
:405D4000FEF7B0F860B27CBD1092FF1F08B505484FF48051FFF7E8FDBDE808400248FEF7BBBA00BFC081FF1F7C9B00004FF40410704700BF4FF6FF7070470000014B1868A8
:405D8000704700BFC091FF1F004870479C9B000000F0B2BC37B501220DF10701054600F0BFFC9DF80740FF2C14BF0A240724284601220DF1070100F0B3FC9DF80700FF2833
:405DC00003D1013CE4B2002CF1D13EBD37B50469857828460DF10701012200F0A1FC9DF807300BB1002003E0013CF2D14FF0FF303EBD37B54FF0FF3305460C468DF80730EF
:405E000006E028460DF10701012200F0B1FC013C002CF6DC3EBD000038B5094C2368032B02DD4FF0FF3509E0DDB2013323601420FFF780FD04EB850460608570284638BD5F
:405E4000C091FF1F08B5034B4FF400711B68984708BD00BFEC80FF1F4FEAD20CACEBD103CCF10F0C10B501336044002410F801CB013B4CEA0424F9D101F00703511A0222A7
:405E80008A40DC40013A04EA020010BD7FB5130E85788DF80530130C01F03F018DF80630130A41F040018DF8073000238DF808208DF804101A4601A911F802C000215B00E8
:405EC000DBB283EA0C0E1EF0800F18BF83F009030131082904D04FEA4C0C5FFA8CFCEEE70132052AE7D15B0043F001038DF809308678C4680122304603A900F011FC9DF8B2
:405F00000C30FF2B04D00CB9FF2009E0013CF1E7284601A9062200F02BFC2846FFF73AFF04B070BDF7B5847806460F4620460121FFF75FFF204600F0A7FB30460921002291
:405F4000FFF7A4FF8DF8070028BBF6680546012220460DF1060100F0E3FB9DF80630FE2B06D0FC2B04D00135ADB2B542EFD112E00DF1070520463946102200F0D1FB2946C5
:405F80002046012200F0CCFB29462046012200F0C7FB002500E0FF25204600F079FB20460121FFF726FF2846FEBD00002DE9F04F9B46494B89B003EB800305925C684A021D
:405FC000029103924FF00309029AA578E678039B2846022E08BF13461E4600F059FB01212846FFF706FFBBF1010F0CBF4FF0110A4FF0120A284600F047FB20465146324637
:40600000FFF744FF002851D1059F5E46A378E268B44604924FF000081E460FE0012230460DF11F01CDF804C000F07AFB9DF81F20DDF804C0FE2A05D008F10108049B984579
:40604000ECD333E0284639464FF40072664600F067FB0222284607A900F062FB9DF81C30384601939DF81D80FFF7ECFE4FF6FF729042019B0CD048EA0328404508D0BAF1B5
:40608000120F13D120460C210022FFF7FFFE0DE0013E02D007F50077B8E7BAF1120F07D120460C213246FFF7F1FE01E04FF0FF36284600F0EDFA28460121FFF79AFE3EB1E8
:4060C000B9F1000F02D009F1FF397DE74FF0FF36304609B0BDE8F08FC091FF1F2DE9F04F99464C4B87B0029203EB80039DF840205D68009103926B78002B40F085804B02D2
:4061000001930327009BAC78EE78019A2046022E08BF1A46164600F0BBFA01212046FFF768FEB9F1010F0CBF4FF0180A4FF0190A204600F0A9FA284651463246FFF7A6FEE7
:406140008DF81700002850D120460121FFF751FE029ECB46B8463046FFF774FE0DF11707BAF1180F0CBFFE23FC2301228DF817308DF81500030A394620468DF8143000F0B3
:40618000F7FA204631464FF4007200F0F1FA0222204605A900F0ECFA01222046394600F0BFFA9DF8173003F01F03052B1CD12846FFF70CFEC0B9039A0AB906F50076BBF150
:4061C000010BC8D1BAF1190F474611D106A96FF00203204601F8013D012200F0C9FA2846FFF7F4FD20B100E047464FF0FF3600E00026204600F04CFA20460121FFF7F9FD15
:4062000026B10FB1013F7DE74FF0FF36304607B0BDE8F08FC091FF1F2DE9F04F877887B0044638460D4600F02FFA20463A210022FFF72CFE064638B1384600F029FA3846E9
:406240000121FFF7D6FD58E00DF1140804224146384600F065FA4046FFF70DFB8046384600F016FA01213846FFF7C3FDB8F1000F28F07F02B8BF4FEA987BD2B240F27263AA
:406280004FEA1828B8BF0BF0010B1FFA88F8002A14BF1A460022012111EA080F05D10136F6B24900102E89B2F6D140F27260824233460DD06422724302F5FA6208E011EACE
:4062C000080F07D049000133013689B2DBB2F6B20F2EF4D964214B434FF6FE7103F5FA6302EA01014FF6FC72384603EA020200F0F5F910F0FF0F40F099804FF0FF3092E041
:4063000028467E217F22FFF7A7FD8246EB78DFF82C8103F0030203F0780308EBD30358F822101B7C3846594389B200F0B7F90646002877D06B7803F00702DB1003F00F039F
:4063400008EB82024344126A93F810800292B8F1000F67D0A978284603911C221A21FFF77BFD0190BAF1000F1FD1502153222846FFF772FD4FF0010909FA00F92F2131221F
:406380002846FFF769FD1FFA89F982463E21284649224FEA5929FFF75FFD0AF1020A09FA0AF9013000FB09F910E0BAF1010F01D0012038E0284630214522FFF74DFD4FEADC
:4063C0008029BBF1000F01D00223E37008FB06F2029B0399B2FBF3F2642303FB01225A437343D208DB089A4294BFE260E360FA235E43019BF6089A400C21B24294BF226195
:40640000266128460D22FFF727FD0546384600F043F94FF4007128436070A180C4F80890002000E0FF2007B0BDE8F08FE378A778012B3FF465AF4FF0000A67E7349B000078
:40644000F0B5857887B004464FF4C871284600F025F9B0F5C87F00F2CC804CF25033E3600026284600F014F90A212846FFF7C1FC624B93E8030001902846ADF8081000F01F
:4064800003F9062201A9284600F072F92846FFF781FC0746284600F0FBF801212846FFF7A8FC17F0010F03D10136052ED9D1A0E0284600F0E9F8082120464FF4D572FFF7CF
:4064C000E5FC10F0040F52D0284600F0E1F8A5784FF4FA66284600F0D7F8002237212046FFF7D4FC28460121FFF783FC292100222046FFF7CBFC0746284600F0C9F828464E
:406500000121FFF776FC17B90123E3701EE017F0040F01D1013EDDD14FF4FA66284600F0B3F8012100222046FFF7B0FC0746284600F0AEF828460121FFF75BFC0FB9E7706E
:4065400004E0012F55D1013EE8D152E001AD20462946FFF7E7FC00284BD120462946FFF75BFEC0B2002844D10123237043E00422A07805A900F0D4F8284600F089F89DF84E
:406580001730AA2B35D19DF8163003F00F03012B2FD1A5784FF4FA66284600F075F8002237212046FFF772FC28460121FFF721FC29214FF080422046FFF768FC0746284675
:4065C00000F066F828460121FFF713FC0FB1013EE2D101AE20463146FFF7A4FC48B90125E57020463146FFF717FEC0B208B9257001E04FF0FF3007B0F0BD00BF749B000037
:4066000010B5084B03EB80035C6823783BB9FFF7BFFB20B12046BDE81040FFF711BF4FF0FF3010BDC091FF1F38B51D46154BA1F57B7103EB80035C68072918D8DFE801F0F3
:406640000A17171704041719204600211422FFF7A3F80CE0237833B92046FFF7F1FE10B14FF0FF3038BDA3882B81A3686B60002038BD2046FFF74AF9024B00201A68013AD8
:406680001A6038BDC091FF1F00B1002000F08EB9012000F08BB900BF00207047B1F5C87F38B50CD21D254FF4C87400F0FDF82846012100F009F900F0E7F8204638BD45F6C4
:4066C000C053B1F57A6F28BF4FF47A614D00ADB2B3FBF5F5013D0C46ADB2E6E740F6E443994206D840F6E340824294BF0020012070470020704700BF10B5084B1A785AB922
:4067000001241C7000F0D0F821463B2000F0DCF800F0BAF800F04EF8022010BDD491FF1FF8B507460E461546741C77B1FF2000F099F800F091F8C307FBD500F09FF8013D47
:40674000264604F8010CEFD1F8BD013D2544FF2000F088F800F080F8C207FBD500F08EF8A542307002D026460134F0E7F8BD00BF70B506460C46154614F8010B56B100F010
:4067800071F800F069F8C307FBD500F077F8013DF2D170BD013D254400F064F800F05CF8C207FBD500F06AF8AC4202D014F8010BF2E770BD70B51E4C2378A3B11D4CFDF71D
:4067C00053FB23781C4943F0200323700B781B4A43F010030B70137843F010031370BDE87040FDF745BB164B0F21164A19701378990604D514490B7813789B06FBD4FDF7D0
:4068000033FB0C4B114E1A780E4D42F001021A701A7802F0FE021A70FDF72AFB0C480D490023012236782D7803700B702270C5E7D591FF1F94640040936400409764004004
:40684000846400406764004054640040636400408364004087640040014B1878704700BF63640040034A13785B07FCD5024B1870704700BF6364004044640040014B18781A
:40688000704700BF546400400549064A0B7843F001030B70137843F001031370704700BFA2430040B24300400549064A0B7803F0FE030B70137803F0FE031370704700BF7A
:4068C000A2430040B2430040F0B4314D314E2A7833889BB298420BD02F4C02F007022478E4B24AB933B930802B7803F0BF032B70F0BC7047002843D014F0010422D0274FF5
:40690000274D284E00223A7001272F70327015F8082C02F07F0205F8082C96F86E2016072BD41E4A204F154607263B8016702B781A4A13F00103FAD1174E357805F0FE0598
:4069400035701370144B1A78D5070FD56FF4687213441A460029144C14BF03210121208019701378DB07FCD4F0BC7047094A10801A7814431C70F0BC70470028E2D1D0E792
:406980002B7843F040032B703080F0BC704700BF8240004080400040A243004001400040104000401440004002400040044A8000137800F0040003F0FB0318431070704733
:4069C0001051004081F0004102E000BF83F0004330B54FEA41044FEA430594EA050F08BF90EA020F1FBF54EA000C55EA020C7FEA645C7FEA655C00F0E2804FEA5454D4EB6B
:406A00005555B8BF6D420CDD2C4480EA020281EA030382EA000083EA010180EA020281EA0303362D88BF30BD11F0004F4FEA01314FF4801C4CEA113102D0404261EB410109
:406A400013F0004F4FEA03334CEA133302D0524263EB430394EA050F00F0A780A4F10104D5F1200E0DDB02FA0EFC22FA05F2801841F1000103FA0EF2801843FA05F3594178
:406A80000EE0A5F120050EF1200E012A03FA0EFC28BF4CF0020C43FA05F3C01851EBE37101F0004507D54FF0000EDCF1000C7EEB00006EEB0101B1F5801F1BD3B1F5001F0C
:406AC0000CD349085FEA30004FEA3C0C04F101044FEA445212F5800F80F09A80BCF1004F08BF5FEA500C50F1000041EB045141EA050130BD5FEA4C0C404141EB010111F4E6
:406B0000801FA4F10104E9D191F0000F04BF01460020B1FA81F308BF2033A3F10B03B3F120020CDA0C3208DD02F1140CC2F10C0201FA0CF021FA02F10CE002F11402D8BF99
:406B4000C2F1200C01FA02F120FA0CFCDCBF41EA0C019040E41AA2BF01EB0451294330BD6FEA04041F3C1CDA0C340EDC04F11404C4F1200220FA04F001FA02F340EA03009F
:406B800021FA04F345EA030130BDC4F10C04C4F1200220FA02F001FA04F340EA0300294630BD21FA04F0294630BD94F0000F83F4801306BF81F480110134013D4EE77FEA9C
:406BC000645C18BF7FEA655C29D094EA050F08BF90EA020F05D054EA000C04BF1946104630BD91EA030F1EBF0021002030BD5FEA545C05D14000494128BF41F0004130BDFC
:406C000014F580043CBF01F5801130BD01F0004545F0FE4141F470014FF0000030BD7FEA645C1ABF194610467FEA655C1CBF0B46024650EA013406BF52EA033591EA030F52
:406C400041F4002130BD00BF90F0000F04BF0021704730B54FF4806404F132044FF000054FF0000150E700BF90F0000F04BF0021704730B54FF4806404F1320410F0004591
:406C800048BF40424FF000013EE700BF42004FEAE2014FEA31014FEA02701FBF12F07F4393F07F4F81F06051704792F0000F14BF93F07F4F704730B54FF4607401F0004549
:406CC00021F0004120E700BF50EA010208BF704730B54FF000050AE050EA010208BF704730B511F0004502D5404261EB41014FF4806404F132045FEA915C3FF4DCAE4FF05D
:406D000003025FEADC0C18BF03325FEADC0C18BF033202EBDC02C2F1200300FA03FC20FA02F001FA03FE40EA0E0021FA02F11444C1E600BF70B54FF0FF0C4CF4E06C1CEA2D
:406D400011541DBF1CEA135594EA0C0F95EA0C0F00F0DEF82C4481EA030621EA4C5123EA4C5350EA013518BF52EA033541F4801143F4801338D0A0FB02CE4FF00005E1FB55
:406D800002E506F00042E0FB03E54FF00006E1FB03569CF0000F18BF4EF0010EA4F1FF04B6F5007F64F5407404D25FEA4E0E6D4146EB060642EAC62141EA55514FEAC52081
:406DC00040EA5E504FEACE2EB4F1FD0C88BFBCF5E06F1ED8BEF1004F08BF5FEA500E50F1000041EB045170BD06F0004646EA010140EA020081EA0301B4EB5C04C2BFD4EBF8
:406E00000C0541EA045170BD41F480114FF0000E013C00F3AB8014F1360FDEBF002001F0004170BDC4F10004203C35DA0C341BDC04F11404C4F1200500FA05F320FA04F07E
:406E400001FA05F240EA020001F0004221F0004110EBD37021FA04F642EB06015EEA430E08BF20EAD37070BDC4F10C04C4F1200500FA04F320FA05F001FA04F240EA020052
:406E800001F0004110EBD37041F100015EEA430E08BF20EAD37070BDC4F1200500FA05F24EEA020E20FA04F301FA05F243EA020321FA04F001F0004121FA04F220EA0200AF
:406EC00000EBD3705EEA430E08BF20EAD37070BD94F0000F0FD101F00046400041EB010111F4801F08BF013CF7D041EA060195F0000F18BF704703F00046520043EB0303F0
:406F000013F4801F08BF013DF7D043EA0603704794EA0C0F0CEA135518BF95EA0C0F0CD050EA410618BF52EA4306D1D181EA030101F000414FF0000070BD50EA410606BFDC
:406F40001046194652EA430619D094EA0C0F02D150EA013613D195EA0C0F05D152EA03361CBF104619460AD181EA030101F0004141F0FE4141F470014FF0000070BD41F089
:406F8000FE4141F4780170BD70B54FF0FF0C4CF4E06C1CEA11541DBF1CEA135594EA0C0F95EA0C0F00F0A7F8A4EB050481EA030E52EA03354FEA013100F088804FEA0333EB
:406FC0004FF0805545EA131343EA12634FEA022245EA111545EA10654FEA00260EF000419D4208BF964244F1FD0404F5407402D25B084FEA3202B61A65EB03055B084FEAC9
:4070000032024FF480104FF4002CB6EB020E75EB030E22BFB61A754640EA0C005B084FEA3202B6EB020E75EB030E22BFB61A754640EA5C005B084FEA3202B6EB020E75EB51
:40704000030E22BFB61A754640EA9C005B084FEA3202B6EB020E75EB030E22BFB61A754640EADC0055EA060E18D04FEA051545EA16754FEA06164FEAC30343EA52734FEAA2
:40708000C2025FEA1C1CC0D111F4801F0BD141EA00014FF000004FF0004CB6E711F4801F04BF01430020B4F1FD0C88BFBCF5E06F3FF6AFAEB5EB030C04BFB6EB020C5FEA2B
:4070C000500C50F1000041EB045170BD0EF0004E4EEA113114EB5C04C2BFD4EB0C0541EA045170BD41F480114FF0000E013C90E645EA060E8DE60CEA135594EA0C0F08BFE8
:4071000095EA0C0F3FF43BAF94EA0C0F0AD150EA01347FF434AF95EA0C0F7FF425AF104619462CE795EA0C0F06D152EA03353FF4FDAE1046194622E750EA410618BF52EAA1
:4071400043067FF4C5AE50EA41047FF40DAF52EA43057FF4EBAE12E74FF0FF3C06E000BF4FF0010C02E000BF4FF0010C4DF804CD4FEA410C7FEA6C5C4FEA430C18BF7FEABC
:407180006C5C1BD001B050EA410C0CBF52EA430C91EA030F02BF90EA020F0020704710F1000F91EA030F58BF994208BF90422CBFD8176FEAE37040F0010070474FEA410CC2
:4071C0007FEA6C5C02D150EA013C07D14FEA430C7FEA6C5CD6D152EA033CD3D05DF8040B704700BF8446104662468C461946634600E000BF01B5FFF7B7FF002848BF10F111
:40720000000F01BD4DF808EDFFF7F4FF0CBF012000205DF808FB00BF4DF808EDFFF7EAFF34BF012000205DF808FB00BF4DF808EDFFF7E0FF94BF012000205DF808FB00BF1D
