:4000000000800020110000003526000035260000034A08B51268034B1A6002F02BFB00BFFA460040BC76004010B5054C237833B9044B13B10448AFF300800123237010BDA2
:400040009081FF1F000000005C8B0000084B10B51BB108490848AFF300800848036803B910BD074B002BFBD0BDE81040184700BF000000009481FF1F5C8B0000C880FF1FA4
:400080000000000038B50C46054602F047FE204602F07AFC002002F0BFFC00241DB924E0DCB2A54221D0204602F0B6FC012002F041FB02F0B5FD002002F0CAFD02F0BCFDFF
:4000C00002F0DCFD02F0E6FD06F03EF90022094B06F0CAFA084B002206F02CFC631C0028DED002F0FFFD204638BD02F0FBFD002038BD00BF00004A400000F03F70B50E46E2
:400100000446154602F00AFE304602F03DFCAC4203D32AE0DCB2A54227D9204602F07CFC012002F007FB02F07BFD002002F090FD02F082FD02F0A2FD02F0ACFD06F004F9BE
:4001400000220F4B06F090FA0E4B002206F0E8FB631C0028DED002F0C5FD002002F014FC002002F059FC601E70BD02F0BBFD002002F00AFC002002F04FFC204670BD00BF81
:4001800000004A40000034402DE9F04F864E9DB012AD0B92914607900A9102930FCE0FC50FCE0FC596E8030085E8030000230593069D0B9B059A02997C4804950394012625
:4001C00001F004FF02F0AAFD029AF3B203F1FF3B771E012A5FFA8BFB06974FF000044FF0000570D9C3F1BD0B5FFA8BFB4FF00A0AD9E9000106F0D0FB5FFA80F8584602F064
:40020000C3FB404602F008FC012002F093FA02F007FD002002F01CFD02F00EFD02F02EFD02F038FD06F090F80022614B06F01CFA02460B462046294605F03AFFBAF1010AD8
:4002400004460D46D4D1204629460022594B06F00BFA04460D46029B0246019300970B46524801F099FF4EA3D3E900232046294606F0D0F8044607980D4606F065F8002271
:400280004D4B06F0C7F802460B462046294606F0EBF906F059FB04468FB1059B12AA52F8233000F10A050399049800930A311E302B4606F11D0200F0D7FBBD2E38D00497B1
:4002C0000394013680E7CDF82490DDF81480B1460A9E4FF00A0A089716F80870584602F053FB384602F098FB012002F023FA02F097FC002002F0ACFC02F09EFC02F0BEFC48
:4003000002F0C8FC06F020F80022294B06F0ACF902460B462046294605F0CAFEBAF1010A04460D46D8D14E46089FDDF824908AE702F0D8FC029B032B09D8DFE803F0232AF3
:400340001C02D9E900231D490DA807F00FF8059B294601331D46059307F123000DAB4FF6FF7200F003FE042D09F108097FF420AF1DB0BDE8F08FD9E9002311490DA806F050
:40038000F5FFE4E7D9E900230E490DA806F0EEFFDDE7D9E900230C490DA806F0E7FFD6E70000000000C06C40608B0000888B000000004A40000024400000F43FB08B000098
:4003C000A88B0000948B00009C8B000000000000F0B58DB062B602F035FA02F023FA012002F014FA4FF47A7002F0A4F9002002F00DFA4FF47A7002F09DF9012002F006FA9C
:400400004FF47A7002F096F900F00CFA002000F0DBF900F0F5FB02F091FD02F06FFD02F087FD02F0B7FA02F06DFA02F0FBFA03F0CFF803216A4803F0F4FA6A496A4803F054
:40044000E9F90446694A01AB07CA03C301A91A802046092203F00FFB204603F015F9002002F072FD002002F081FD002002F090FD1521FF20FFF706FE002800F0A180C4B273
:400480000646DC222046BC21FFF738FE0325801BB0FBF5F530468DF8004005F045FF4EA3D3E9002305F0B6FF0022514B05F0B2FFEDB22C4404F0FF04CDE9040120468DF82D
:4004C000014005F041FF44A3D3E9002305F0A2FF0022474B05F09EFF2B19DCB2CDE9060120468DF8024005F02FFF3BA3D3E9002305F090FF00223E4B05F08CFF2C44E4B293
:40050000CDE9080120468DF8034005F01DFF32A3D3E9002305F07EFF0022354B05F07AFFCDE90A0102F0FAFB002600270A249DF80350BC2002F028FA284602F06DFA0120A4
:4005400002F0F8F802F06CFB002002F081FB02F073FB02F093FB02F09DFB05F0F5FE0022244B06F081F802460B463046394605F09FFD013C06460F46D9D100221E4B06F038
:4005800073F806F0E1F9052590FBF5F505EB8505053502F0A7FB2146284600F093FA2346284604AA6946FFF7EFFD02F09BFB204602F0EAF9204602F02FFA00200DB0F0BDE3
:4005C0000E4B4FF6FF72A021782000F0CFFC0C490C4801F0E5FCF0E7FCA9F1D24D621040BC8B0000C48B0000C88B0000248C00000000703F00004A4000002440D48B00008A
:40060000E88B00001C8C000038B5054602440B44013A013B002042EA054543EA014402F0E9F82A2002F062F902F0DCF80028FBD102F0D8F80128FBD102F0DCF8002002F0A0
:40064000C5F8280E02F052F902F0CCF80128FBD1C5F3074002F04AF902F0C4F80128FBD1C5F3072002F042F902F0BCF80128FBD1E8B202F03BF902F0B5F80128FBD102F0DB
:40068000A5F8002002F0B6F82B2002F02FF902F0A9F80028FBD102F0A5F80128FBD102F0A9F8002002F092F8200E02F01FF902F099F80128FBD1C4F3074002F017F902F09C
:4006C00091F80128FBD1C4F3072002F00FF902F089F80128FBD1E0B202F008F902F082F80128FBD102F072F8002002F083F82C2002F0FCF802F076F80028FBD102F072F88B
:400700000128FBD138BD00BF2DE9F04190469AB211441F468BB2C3F1F004A4B20FFA84FE1FFA88F6BEF1EF0F3044BDF8185008DC80B2C0F5A07189B20FFA81FCBCF5A07FE5
:4007400001DBBDE8F081BE44BEF1F00FC444C4BF1FB21A46BCF5A07FC6BF0FFA80F8034633462046FFF750FF012002F043F8002002F02CF8B8F1000F4FEA1526EDB21DDD8F
:40078000002FC8BF3C4612DD304602F0AFF802F029F80128FBD1284602F0A8F802F022F80128FBD1013CA3B21CB2002BECD108F1FF339BB20FFA83F8002BE1D10120BDE813
:4007C000F04102F003B800BF0021F8B5F02205464FF4A0730846FFF717FF012002F00AF8002001F0F3FF2E0A4FF4A077EDB2F024304602F07BF801F0F5FF0128FBD1284601
:4008000002F074F801F0EEFF0128FBD1013CA4B2002CEDD1013FBFB2002FE8D1BDE8F84001F0D4BF2DE9F8431F4EEF24002001F0E1FF204602F05AF801F0D4FF0028FBD1EC
:4008400001F0D0FF0128FBD106F10208444696F8019009F07F07BB1C1E44B44214D014F8015B012001F0C6FF284602F03FF801F0B9FF0028FBD101F0B5FF0128EDD001F098
:40088000B1FF0128F7D1E8E719F0800F08EB070605D118F80740002CC8D1BDE8F883782001F048FFF5E700BF308C0000C1F1EF0138B58CB2EF2C24D8C0F59F70013081B2EB
:4008C000B1F5A07F1DD2154601231A462046FFF79BFE012001F08EFF002001F077FF280A02F004F801F07EFF0128FBD1E8B201F0FDFF01F077FF0128FBD1BDE8384001F0D6
:4009000065BF38BD2DE9F04FC1EB030AC0EB020BBAF1000FB8BFCAF1000ABBF1000FB8BFCBF1000B87B0DA45914614468846BDF8402000F39380054651461C4640464D451D
:4009400009DD47462E4698464D463B46B146011B0029B8BF4942AEB2C6EB090080B204B204EBD474434502904FEA640470DD012303938BB2C6F59F760193130A01360493D9
:40098000D3B2B6B20593DA4536DDA6F1500080B2EF281FFA88F720D8C7F59F71013189B2B1F5A07F19D201231A46FFF72DFE012001F020FF002001F009FF049801F096FFC6
:4009C00001F010FF0128FBD1059801F08FFF01F009FF0128FBD101F0F9FE019BE41AA3B21CB2002C2CDB01352DB2013EA945B6B2C9DA07B0BDE8F08F1FFA88F7C7F1EF00B9
:400A000080B2EF28E9D8B6F5A07FE6D201231A463146FFF7F9FD012001F0ECFE002001F0D5FE049801F062FF01F0DCFE0128FBD1059801F05BFF01F0D5FE0128FBD1CAE763
:400A4000039A1744029A0FFA87F89C1824B2CAE7A945CEDB4FF6FF7303938AE799460D462346594680466AE7F0B5904204460E461F46BDF814E016D0994205D0CDF814E007
:400A8000BDE8F040FFF73EBF9042154601DD14460546CDF814E02A46204633463146BDE8F040FFF72FBF994201DD3E460F46CDF814E03B46314622462046BDE8F040FFF7AA
:400AC00021BF00BF2DE9F04F87B00D46814605F03BFC02460B460020424905F0C5FD05F033FF4FF6FF740A231946DC22804600941E20FFF707FF1E22C923009410460A214C
:400B0000FFF700FF012D8CBF0C271527EB075CD4354B22460421E62000F028FA2246334BD921032000F022FAB9F1040F23DD4FF6FF7B1FFA88FA0AF10A04A4B208F10A0603
:400B400005252A462A4903A806F010FC23B21946DC221E20CDF800B0FFF7D4FE0535314603AB4FF6FF72032000F000FA5444A9454644A4B2E5DA4FF0BD0898FBF7F84FF6FC
:400B8000FF7A1FFA87F909F11E0407F11E0601252A46184902A806F0E9FB22B21046CA230A21CDF800A0FFF7ADFE0135304602AB4FF6FF72042100F0D9F94C44A845A4B25F
:400BC0003E44E5DA07B0BDE8F08F22460A4B0421E62000F0CBF92246084BD921032000F0C5F9A1E700008E40A08C0000A88C0000C88C0000CC8C0000B48C0000BC8C0000CD
:400C0000A02370B51946F0220020FFF7FDFC012001F0F0FD002001F0D9FDA026F025002001F064FE01F0DEFD0128FBD11F2001F05DFE01F0D7FD01280446FAD1013DADB22C
:400C4000002DECD1013EB6B2002EE7D101F0BEFD3146A023F0223046FFF7D6FC204601F0C9FD304601F0B2FDA026F025F82001F03DFE01F0B7FD0128FBD1002001F036FE96
:400C800001F0B0FD01280446FAD1013DADB2002DECD1013EB6B2002EE7D101F097FD8B236322AB218320FFF7AFFC204601F0A2FD304601F08BFD8B2663259E2001F016FE9B
:400CC00001F090FD0128FBD19F2001F00FFE01F089FD01280446FAD1013DADB2002DECD1013EB6B2002EE7D101F070FD8B236322AB210A20FFF788FC204601F07BFD3046B5
:400D000001F064FD8B2663259E2001F0EFFD01F069FD0128FBD19F2001F0E8FD01F062FD01280446FAD1013DADB2002DECD1013EB6B2002EE7D101F049FD8B2363220A2175
:400D40008320FFF761FC204601F054FD304601F03DFD8B266325FC2001F0C8FD01F042FD0128FBD1F32001F0C1FD01F03BFD01280446FAD1013DADB2002DECD1013EB6B2AD
:400D8000002EE7D101F022FD0A2108468B236322FFF73AFC204601F02DFD304601F016FD8B266325FC2001F0A1FD01F01BFD0128FBD1F32001F09AFD01F014FD0128044678
:400DC000FAD1013DADB2002DECD1013EB6B2002EE7D101F0FBFC0223F0229F213046FFF713FC204601F006FD304601F0EFFC0226F025002001F07AFD01F0F4FC0128FBD173
:400E0000002001F073FD01F0EDFC01280446FAD1013DADB2002DECD1013EB6B2002EE7D101F0D4FC31464FF4A07302227720FFF7EBFB204601F0DEFC304601F0C7FC4FF442
:400E4000A0760225002001F051FD01F0CBFC0128FBD1002001F04AFD01F0C4FC01280446FAD1013DADB2002DECD1013EB6B2002EE7D101F0ABFCFC23162223216D20FFF718
:400E8000C3FB204601F0B6FC304601F09FFCFC261625002001F02AFD01F0A4FC0128FBD1002001F023FD01F09DFC01280446FAD1013DADB2002DECD1013EB6B2002EE7D141
:400EC00001F084FCF823122225216F20FFF79CFB204601F08FFC304601F078FCF8251224FF2001F003FD01F07DFC0128FBD1FF2001F0FCFC01F076FC0128FBD1013CA4B25E
:400F0000002CEDD1013DADB2002DE8D101F05EFC104B2A467621422000F028F80E4B2A46B1213A2000F022F80C4B2A463921302000F01CF80A4B2A46B121DA2000F016F822
:400F4000084B2A463921D02000F010F8064B1D6070BD00BFD08C0000EC8C0000F48C0000008D0000088D0000E091FF1F2DE9F04F87B001931B7804900291002B56D0144628
:400F80000646DFF864BC203B3A2B3CD8DFE813F008053B003B003B003B003B003B003B003B003B003B003B003B003B00CF043B00A0049F054105700578028C065D06BB0603
:400FC0004F03FD053B003B003B003B003B003B003B00CE052E0611020B04DC03AD037E0373043A0495074002CE071703DF02A7022307EA065C07D901A10131016901F9002D
:40100000C10089005100B3B20393039E073636B2B6F59E7F04DD029B049E093B1BB20293019A12F8013F0192002BACD107B0BDE8F08F23211A22012301E01BF803200132DD
:40104000134401399BB2F8D1B2B211460392BDF808200133951E05328F1E1FFA83F813B23FB22DB205931BF80890B9F1000F0DD009EB08065E440BEB080A1AF8010F224699
:4010800038442946FFF712FC5645F6D10135059B09F101092DB2C844AB421FFA88F8E2D1B3E722211A22012301E01BF803200132134401399BB2F8D1B2B211460392BDF8AE
:4010C00008200133951E05328F1E1FFA83F813B23FB22DB205931BF80890B9F1000F0DD009EB08065E440BEB080A1AF8010F224638442946FFF7DAFB5645F6D10135059BD7
:4011000009F101092DB2C844AB421FFA88F8E2D17BE721211A22012301E01BF803200132134401399BB2F8D1B2B211460392BDF808200133951E05328F1E1FFA83F813B241
:401140003FB22DB205931BF80890B9F1000F0DD009EB08065E440BEB080A1AF8010F224638442946FFF7A2FB5645F6D10135059B09F101092DB2C844AB421FFA88F8E2D1B2
:4011800043E720211A22012301E01BF803200132134401399BB2F8D1B2B211460392BDF808200133951E05328F1E1FFA83F813B23FB22DB205931BF80890B9F1000F0DD079
:4011C00009EB08065E440BEB080A1AF8010F224638442946FFF76AFB5645F6D10135059B09F101092DB2C844AB421FFA88F8E2D10BE71E211A22012301E01BF80320013238
:40120000134401399BB2F8D1B2B211460392BDF808200133951E05328F1E1FFA83F813B23FB22DB205931BF80890B9F1000F0DD009EB08065E440BEB080A1AF8010F2246D7
:4012400038442946FFF732FB5645F6D10135059B09F101092DB2C844AB421FFA88F8E2D1D3E61F211A22012301E01BF803200132134401399BB2F8D1B2B211460392BDF8B1
:4012800008200133951E05328F1E1FFA83F813B23FB22DB205931BF80890B9F1000F0DD009EB08065E440BEB080A1AF8010F224638442946FFF7FAFA5645F6D10135059BF6
:4012C00009F101092DB2C844AB421FFA88F8E2D19BE61D211A22012301E01BF803200132134401399BB2F8D1B2B211460392BDF808200133951E05328F1E1FFA83F813B265
:401300003FB22DB205931BF80890B9F1000F0DD009EB08065E440BEB080A1AF8010F224638442946FFF7C2FA5645F6D10135059B09F101092DB2C844AB421FFA88F8E2D1D1
:4013400063E61C211A22012301E01BF803200132134401399BB2F8D1B2B211460392BDF808200133951E05328F1E1FFA83F813B23FB22DB205931BF80890B9F1000F0DD09C
:4013800009EB08065E440BEB080A1AF8010F224638442946FFF78AFA5645F6D10135059B09F101092DB2C844AB421FFA88F8E2D12BE6B3B21A460393BDF80830971E9D1E69
:4013C00005331BB23FB22DB205934FF003094FF49078B9F1000F0DD009EB08065E440BEB080A1AF8010F224638442946FFF75EFA5645F6D10135059B09F101092DB2C844BE
:401400009D421FFA88F83FF400AE1BF80890E0E714211A22012301E01BF803200132134401399BB2F8D1B2B211460392BDF808200133951E05328F1E1FFA83F813B23FB219
:401440002DB205931BF80890B9F1000F0DD009EB08065E440BEB080A1AF8010F224638442946FFF723FA5645F6D10135059B09F101092DB2C844AB421FFA88F8E2D1C4E577
:40148000B3B21A460393BDF80830971E9D1E05331BB23FB22DB205934FF001094FF05F08B9F1000F0DD009EB08065E440BEB080A1AF8010F224638442946FFF7F7F9B24584
:4014C000F6D10135059B09F101092DB2C844AB421FFA88F83FF499AD1BF80890E0E718211A22012301E01BF803200132134401399BB2F8D1B2B211460392BDF80820013304
:40150000951E05328F1E1FFA83F813B23FB22DB205931BF80890B9F1000F0DD009EB08065E440BEB080A1AF8010F224638442946FFF7BCF95645F6D10135059B09F101090A
:401540002DB2C844AB421FFA88F8E2D15DE517211A22012301E01BF803200132134401399BB2F8D1B2B211460392BDF808200133951E05328F1E1FFA83F813B23FB22DB25B
:4015800005931BF80890B9F1000F0DD009EB08065E440BEB080A1AF8010F224638442946FFF784F95645F6D10135059B09F101092DB2C844AB421FFA88F8E2D125E516211D
:4015C0001A22012301E01BF803200132134401399BB2F8D1B2B211460392BDF808200133951E05328F1E1FFA83F813B23FB22DB205931BF80890B9F1000F0DD009EB08069E
:401600005E440BEB080A1AF8010F224638442946FFF74CF95645F6D10135059B09F101092DB2C844AB421FFA88F8E2D1EDE4B3B21A460393BDF80830971E9D1E05331BB262
:401640003FB22DB205934FF003094FF0BA08B9F1000F0DD009EB08065E440BEB080A1AF8010F224638442946FFF720F95645F6D10135059B09F101092DB2C844AB421FFAC3
:4016800088F83FF4C2AC1BF80890E0E7B3B21A460393BDF80830971E9D1E05331BB23FB22DB205934FF003094FF4BF78B9F1000F0DD009EB08065E440BEB080A1AF8010F49
:4016C000224638442946FFF7F1F85645F6D10135059B09F101092DB2C844AB421FFA88F83FF493AC1BF80890E0E7B3B21A4640F269180393BDF80830971E9D1E05331BB2B7
:401700003FB22DB205934FF00109B9F1000F0DD009EB08065E440BEB080A1AF8010F224638442946FFF7C2F8B245F6D10135059B09F101092DB2C844AB421FFA88F83FF455
:4017400064AC1BF80890E0E7B3B21A4640F24F180393BDF80830971E9D1E05331BB23FB22DB205934FF00509B9F1000F0DD009EB08065E440BEB080A1AF8010F2246384494
:401780002946FFF793F85645F6D10135059B09F101092DB2C844AB421FFA88F83FF435AC1BF80890E0E7B3B21A4640F235180393BDF80830971E9D1E05331BB23FB22DB2FA
:4017C00005934FF00409B9F1000F0DD009EB08065E440BEB080A1AF8010F224638442946FFF764F85645F6D10135059B09F101092DB2C8449D421FFA88F83FF406AC1BF865
:401800000890E0E712211A22012301E01BF803200132134401399BB2F8D1B2B211460392BDF808200133951E05328F1E1FFA83F813B23FB22DB205931BF80890B9F1000FA8
:401840000DD009EB08065E440BEB080A1AF8010F224638442946FFF729F85645F6D10135059B09F101092DB2C844AB421FFA88F8E2D1FFF7CABBB3B21A4640F2971803933C
:40188000BDF80830971E9D1E05331BB23FB22DB205931BF80890B9F1000F0DD009EB08065E440BEB080A1AF8010F224638442946FEF7FCFF5645F6D10135059B09F10109D0
:4018C0002DB2C844AB421FFA88F8E2D1FFF79DBBB3B21A460393BDF80830971E9D1E05331BB23FB22DB205934FF003094FF00208B9F1000F0DD009EB08065E440BEB080A7B
:401900001AF8010F224638442946FEF7CFFF5645F6D10135059B09F101092DB2C844AB421FFA88F83FF471AB1BF80890E0E724211A22012301E01BF8032001321344013981
:401940009BB2F8D1B2B211460392BDF808200133951E05328F1E1FFA83F813B23FB22DB205931BF80890B9F1000F0DD009EB08065E440BEB080A1AF8010F22463844294636
:40198000FEF794FF5645F6D10135059B09F101092DB2C8449D421FFA88F8E2D1FFF735BB25211A22012301E01BF803200132134401399BB2F8D1B2B211460392BDF80820A3
:4019C0000133951E05328F1E1FFA83F813B23FB22DB205931BF80890B9F1000F0DD009EB08065E440BEB080A1AF8010F224638442946FEF75BFF5645F6D10135059B09F178
:401A000001092DB2C8449D421FFA88F8E2D1FFF7FCBAB3B21A460393BDF80830971E9D1E05331BB23FB22DB205934FF005094FF03108B9F1000F0DD009EB08065E440BEBC0
:401A4000080A1AF8010F224638442946FEF72EFFB245F6D10135059B09F101092DB2C844AB421FFA88F83FF4D0AA1BF80890E0E7B3B21A460393BDF80830971E9D1E0533A5
:401A80001BB23FB22DB205934FF003094FF04908B9F1000F0DD009EB08065E440BEB080A1AF8010F224638442946FEF7FFFE5645F6D10135059B09F101092DB2C844AB4259
:401AC0001FFA88F83FF4A1AA1BF80890E0E7B3B21A460393BDF80830971E9D1E05331BB23FB22DB205934FF005094FF01D08B9F1000F0DD009EB08065E440BEB080A1AF833
:401B0000010F224638442946FEF7D0FE5645F6D10135059B09F101092DB2C844AB421FFA88F83FF472AA1BF80890E0E7B3B21A460393BDF80830971E9D1E05331BB23FB263
:401B40002DB205934FF002094FF0EA08B9F1000F0DD009EB08065E440BEB080A1AF8010F224638442946FEF7A1FEB245F6D10135059B09F101092DB2C844AB421FFA88F81F
:401B80003FF443AA1BF80890E0E7B3B21A460393BDF80830971E9D1E05331BB23FB22DB205934FF002094FF0D308B9F1000F0DD009EB08065E440BEB080A1AF8010F22463E
:401BC00038442946FEF772FEB245F6D10135059B09F101092DB2C844AB421FFA88F83FF414AA1BF80890E0E7148D0000B3B21A460393BDF80830971E9D1E05331BB23FB2DA
:401C00002DB205934FF004094FF48278B9F1000F0DD009EB08065E440BEB080A1AF8010F224638442946FEF741FE5645F6D10135059B09F101092DB2C844AB421FFA88F80C
:401C40003FF4E3A91BF80890E0E7B3B21A460393BDF80830971E9D1E05331BB23FB22DB205934FF003094FF08F08B9F1000F0DD009EB08065E440BEB080A1AF8010F224621
:401C800038442946FEF712FE5645F6D10135059B09F101092DB2C844AB421FFA88F83FF4B4A91BF80890E0E7B3B21A460393BDF80830971E9D1E05331BB23FB22DB2059360
:401CC0004FF003094FF07608B9F1000F0DD009EB08065E440BEB080A1AF8010F224638442946FEF7E3FD5645F6D10135059B09F101092DB2C844AB421FFA88F83FF485A942
:401D00001BF80890E0E7B3B21A460393BDF80830971E9D1E05331BB23FB22DB205934FF001094FF0A608B9F1000F0DD009EB08065E440BEB080A1AF8010F2246384429461F
:401D4000FEF7B4FD5645F6D10135059B09F101092DB2C844AB421FFA88F83FF456A91BF80890E0E71A210A46012301E01BF803200132134401399BB2F8D1B2B2114603927C
:401D8000BDF808200133951E05328F1E1FFA83F813B23FB22DB205931BF80890B9F1000F0DD009EB08065E440BEB080A1AF8010F224638442946FEF779FD5645F6D1013555
:401DC000059B09F101092DB2C844AB421FFA88F8E2D1FFF71AB919211A22012301E01BF803200132134401399BB2F8D1B2B211460392BDF808200133951E05328F1E1FFAB6
:401E000083F813B23FB22DB205931BF80890B9F1000F0DD009EB08065E440BEB080A1AF8010F224638442946FEF740FD5645F6D10135059B09F101092DB2C844AB421FFA39
:401E400088F8E2D1FFF7E1B81B211A22012301E01BF803200132134401399BB2F8D1B2B211460392BDF808200133951E05328F1E1FFA83F813B23FB22DB205931BF80890AF
:401E8000B9F1000F0DD009EB08065E440BEB080A1AF8010F224638442946FEF707FD5645F6D10135059B09F101092DB2C844AB421FFA88F8E2D1FFF7A8B813211A22012328
:401EC00001E01BF803200132134401399BB2F8D1B2B211460392BDF808200133951E05328F1E1FFA83F813B23FB22DB205931BF80890B9F1000F0DD009EB08065E440BEB5D
:401F0000080A1AF8010F224638442946FEF7CEFC5645F6D10135059B09F101092DB2C844AB421FFA88F8E2D1FFF76FB815211A22012301E01BF803200132134401399BB220
:401F4000F8D1B2B211460392BDF808200133951E05328F1E1FFA83F813B23FB22DB205931BF80890B9F1000F0DD009EB08065E440BEB080A1AF8010F224638442946FEF788
:401F800095FC5645F6D10135059B09F101092DB2C844AB421FFA88F8E2D1FFF736B800BF38B50D46084901F035FC0446284605F001FA29460246204601F05DFD2046BDE8BF
:401FC000384001F061BB00BF649000002DE9F047914696B0634D08AC07460E4698460FCD0FC40FCD0FC4604A604B12681B686049ADF80820ADF81C30120C1B0C088891F8E7
:4020000002E08DF80A205B495B4A8DF81E305B4BADF80B008DF80DE00491059206930FCD0FC495E8030044F8040B24F8021B090C2170B9F1000F0FD15149384601F0EAFB86
:40204000044608A805F0B6F908A90246204601F012FD204601F018FB740806ABA500494938465E1901F0D6FB8246304605F0A2F931460246504601F0FEFC504601F004FB4A
:402080004049384601F0C6FB064601223E4901F0F2FC08EBC908304601F0F6FAD8E9002368463A4905F062F93649384601F0B2FB0646684605F07EF969460246304601F0B3
:4020C000DAFC304601F0E0FA2E49384601F0A2FB064601222E4901F0CEFC304601F0D4FA04EB440402AB274938461C4401F092FB0646204605F05EF921460246304601F0AC
:40210000BAFC304601F0C0FA1E49384601F082FB044601221F4901F0AEFC204601F0B4FA04AB184938465C1901F074FB0546204605F040F921460246284601F09CFC2846AA
:4021400001F0A2FA38460F4901F064FB044601220F4901F090FC204601F096FA16B0BDE8F08700BF84900000BC9000006C900000C0900000566473005663650056677300BB
:40218000649000006890000070900000749000007C900000809000002DE9F04385B09DF8341004460129904699469DF8300057D904F0CAF80022364B04F02CF932A3D3E99B
:4021C000002304F027F90022324B04F023F906460F464B46424601A82F4905F0C7F82F49204601F017FB054601A805F0E3F801A90246284601F03FFC284601F045FA27492B
:40220000204601F007FB05460122254901F033FC284601F039FA3B46324601A8214905F0A5F81E49204601F0F5FA054601A805F0C1F801A90246284601F01DFC284601F001
:4022400023FA2046154901F0E5FA04460122164901F011FC204601F017FA05B0BDE8F08304F072F800220A4B04F0D4F806A3D3E9002304F0CFF800220C4B04F0CBF806465A
:402280000F46A6E7AFF30080FCA9F1D24D6210400000703F00001040C49000006890000080900000C89000007C90000000000840012807D8044B53F8202018441178037A68
:4022C0000B431370704700BFCC900000012808D8044B53F820201844017A137823EA010313707047CC900000012808D8044B03EB8002D26818441178037D0B431370704760
:40230000CC900000012809D8054B03EB8002D2681844017D137823EA01031370704700BFCC900000012809D8054B03EB800292691844117890F820300B431370704700BFA9
:40234000CC90000001280AD8054B03EB80029269184490F82010137823EA010313707047CC9000002DE9F04172B6904A904D1378A5F1240643F004031370002404EB44036D
:4023800006EB4303AA88586A0134002104F074FB092C05F10605F1D180228649864804F060FB864E864F002556F8043F13F0FF0E23F0FF0413D005F110530EF1FF3E03F1C2
:4023C00031005FFA8EFE7044303340005B001A785978023383421155F9D101357544BE42E2D1784941F251260B78774A43F002030B701378754843F0020313700278A1F571
:40240000863142F04002027041390A78704C42F01002704B0A7003CB6F4A2060616003CB6E4DC4F8C000C4F8C41003CB106051602A786B4F03CBDFF8E8C13860796042F035
:40244000080203CB674F2A70DFF8D8E12063612265486163A5F29E258CF800200021582239808EF800202980027002211868A4F6027487F880124FF04025082203215B4BBE
:402480002A7021701B785A49DBB287F82136594BA5F8222226841C7808604FF4F0701D4604F0010400F088FD182601E0032C0DD02B784FF4F07003F0010343EA440400F0EC
:4024C0007BFD013E04F00304F0D1FEE74A4B4B4F4B4DDFF854C14B484FF4807407211C80002219704FF0480E4749022604248CF8002087F800E01A702E7004700B78434A74
:4025000043F003030B701378304C43F001031370237800F5F720012100F2F97043F080034FF0810E3A4A23703A4E85F8FFE7017013783578DBB297F8F186374AA0F5F42016
:40254000A0F2967003F0070EEDB21B0980F800E05FFA88F813700CF5D45C45F00303337080220CF1050C48F0030387F8F136DFF8BCE080F89B208CF80010284920238EF82D
:40258000003080F8BA220A200B7000F0F7F894E80F00DFF89CE087F8F1861034442735708EF8007007C42380BDE8F081E8460040F09000002C05004800040140FCFFFF4784
:4025C0005C0000480350014013500140A043004002510040AC050048F2510040224300401251004080400040864000400801004900410040254200400440004008400040F9
:40260000014000400B400040A2430040A1430040CF010049F84600406F5800402B5B0040004800408240004006400040985A00407658004008B504F0CFF903680C2B00D0A6
:40264000FEE7FEE7094908B50A68094B1044C31AB3F5805F02DC0860104608BD04F0BCF90C234FF0FF320360104608BDCC80FF1F8892FF1F80B5134FF7B1134E002556F827
:402680000C0C56F8084C56F8102C03463CB1043A52F8041F43F8041B191AA142F8D156F8040C1A4620B142F8045BD11A8842FAD1013F06F11006E2D104F094F9FDF788FE19
:4026C000FEE700BF01000000289400000E4B0F4A0F491A600B680F4A43F400730E480B600023032B94BF50F823100C490133302B42F8041FF5D10A4B0A4918780A4A0B4BB6
:4027000008701A60FFF72EBE0CED00E00004FA0514ED00E0FC7FFF1F0000000035260000BC760040C080FF1F0080FF1F08ED00E001BE7047B0F5004F70B506461AD90446B9
:402740000D4DA4F50044686800F036FCB4F5004FF7D8A6F50043013B23F4FF4323F07F03A6F50046F61AA86800FB06F0BDE8704000F022BC004DF6E7D080FF1F024B1B78D4
:4027800000FB03F000F018BCD080FF1F064B1F281A6800D901BE00F01F0000F1100352F8230042F82310704708ED00E0072900D901BE1F2800D901BE00F01F0000F1604087
:4027C000490100F56440C9B201707047044A4000137800F0020003F0FD0318431070704700510040024B1878C0F34000704700BF01510040044A00F00100137803F0FE039C
:4028000018431070704700BF00510040044A4001137800F0200003F0DF03184310707047F05100400549064A0B7843F002030B70137843F002031370704700BFA2430040EF
:40284000B243004070B51E4C2378A3B11D4C00F0BBFB23781C4943F0200323700B781B4A43F010030B70137843F010031370BDE8704000F0ADBB164B0F21164A19701378FE
:40288000990604D514490B7813789B06FBD400F09BFB124B124E1A780E4D42F001021A701A7802F0FE021A7000F092FB0D480E490023012236782D7803700B702270C5E7DA
:4028C000AC81FF1F90640040926400409664004080640040666400405164004091640040626400408264004086640040034A13785B07FCD5024B1870704700BF62640040DF
:402900004164004010B419490A78FAB9184B19481A7002701A78184C02F0F3021A701A78012042F004021A701A78C2F3810202F19242063292F83821D2B222701A7802F075
:40294000FD021A701A78D2B21A7008700B490C4A0B780C4843F008030B701378642143F008031370017010BC704700BFAD81FF1F2C5800402D5800400B460040A843004067
:40298000B8430040835B0040014B1870704700BF835B004010B419490A78FAB9184B19481A7002701A78184C02F0F3021A701A78012042F004021A701A78C2F3810202F1A2
:4029C0009242063292F83021D2B222701A7802F0FD021A701A78D2B21A7008700B490C4A0B780C4843F002030B701378642143F002031370017010BC704700BFAE81FF1FB6
:402A0000245800402558004009460040A8430040B8430040815B0040014B1870704700BF815B0040F8B5334D2C78F4B9102000F085F907212046FFF7B9FE2F492046FFF77B
:402A4000A5FE44F620602D4A2D4E13782D4F43F006031370C22333702B492C4A2C4B01263C802E70086014801C8000F0ADFA294A04461378284943F0020313700B78274842
:402A800043F002030B70037801F5AA5143F0010303709379103143F0010393710A7800F5AB501F4B0D30182542F003020A7005701A781C4E42F040021A701A78A0F5975041
:402AC00002F0FC021838CE2702251A703770057091F824320A2043F0080381F82432FFF74DFE114B012220461A60BDE8F84000F06FBA00BFAF81FF1FE12C0000095900406C
:402B00000A590040E491FF1FE891FF1FE691FF1FEC91FF1FAB430040BB430040A14300400D5900400859004080E200E0F8B500F04BFA214A04461378204943F00203137039
:402B40000B781F4843F002030B70037801F5AA5143F0010303709379103143F0010393710A7800F5AB50174B0D30182542F003020A7005701A78144E42F040021A701A7822
:402B8000A0F5975002F0FC021838CE2702251A703770057091F824320A2043F0080381F82432FFF7EBFD094B012220461A60BDE8F84000F00DBA00BFAB430040BB4300408D
:402BC000A14300400D5900400859004080E200E010B500F0F9F90F490F4A0B780F4C03F0FE030B701378A1F5AB5103F0FD0313702378073903F0FD0323700B7803F0FE0318
:402C00000B70937903F0FE039371BDE8104000F0DFB900BF08590040AB430040BB430040044B1A7802F0FB021A701A7842F001021A70704708590040044B1A7802F0FE02F6
:402C40001A701A7842F004021A7070470859004008B550B9084A1378DB07FCD50120FFF78DFD054B01201B7808BD034B1B78DA07F4D4002008BD00BF09590040034A044BF2
:402C80001B881088181A00B2704700BFE691FF1FA25B00400F4A13881BB2C3B1128812B202EB8202520042F210730B490988401A00B203FB00F3002802EBD2704FEA6000CE
:402CC000D8BF4042184490FBF2F000B27047034B1A68E8E7E491FF1FEC91FF1FE891FF1F704700BF0A4B1B7803F0020303F0FF0253B1084A084B127812F0010F14BF03229E
:402D000001221A70FFF764BF034B1A70704700BFAB43004008590040B081FF1F10B5064C237803B910BDFFF701FF23789B07F9D5BDE81040FFF774BFB081FF1F034A00F07B
:402D4000F800137818431070704700BF024100402DE9F04188B000F03FF90021382000F015FB052000F09EFB0121382000F04AFB002000F0C3FB044600F078FB002138208B
:402D800000F004FB062000F08DFB0121382000F039FB002000F0B2FB054600F067FB00F075F900F019F90021382000F0EFFA032000F078FB0121382000F024FB002000F0BD
:402DC0009DFB240204F470642C43054600F04EFB0021382000F0DAFA042000F063FB0121382000F00FFB002000F088FB27B204463E4E2D0200F03AFB05F4706500F046F9A0
:402E0000D6F800802C4324B2B8F1000F42D1BFB2A7F12303F82B37D8A4B2A4F16F03122B32D84046FDF7D0FC012302A90A223846336003F014FE05A90A22204603F00FFE98
:402E400002AB4FF6FF726E216420FEF78FF8642105AB08464FF6FF72FEF788F8244B4FF6FF72C8216420FEF781F84FF6FF721E230092414632224046FDF746FC42461D4BA2
:402E80000F210A20FEF772F81B4B02221A6008B0BDE8F081B8F1010FF6D1322F01DC1E2C20DD1E235F210022009208461A46FDF72BFC02A938460A2203F0D1FD05A920461A
:402EC0000A2203F0CCFD02AB4FF6FF726E216420FEF74CF8642105AB08464FF6FF72FEF745F8D1E7FDF78CFECEE700BFE091FF1F289100003C91000080E200E070B4074B59
:402F0000074E1C68074D08490223084AE02033606564087070BC1360704700BF08ED00E080E100E0512D000001E400E000E100E0014B02221A60704700E100E0014B0222C7
:402F40001A60704780E200E038B505460020FFF7BDF9054C0120FFF7B9F9FF2328462370FFF7A6F9257038BDE080FF1F38B505460020FFF7C7F9054C0120FFF7C3F9FF23AC
:402F800028462370FFF7B0F9257038BDE180FF1F38B505460020FFF7D5F9054C0120FFF7D1F9FF2328462370FFF7BCF9257038BDE280FF1F000000000230800803D000BFF6
:402FC00001380046FCD17047EFF3108072B6704780F31088704700BFF8B51D4D2C7824BB1C4B1D4E02271F701C4A812737701C4B1C481D49082717700F264FF4004206700C
:4030000030460C701A600721FFF7D0FB30461749FFF7BCFB164E1749174A184B10270120377028700C7014701C70FFF7CDFF1449144A0B7843F004030B70137843F0040393
:403040001370FFF7C5FF104B4FF400421A60F8BDB181FF1FD6490040C8490040CA49004080E100E0DB490040DC49004049310000EE91FF1FF291FF1FFA91FF1FF091FF1FA7
:40308000A5430040B543004000E100E02DE9F843234BDFF8B080234F234E4FF40049C3F8009098F800E0214D3978327830783B781F4C43EA00202B78013003F0FE032B70C0
:4030C00080B284F803E021716271FFF775FFFFF77BFF1849184A0B7803F0FB030B70137803F0FB031370FFF773FF2B782179627994F803E043F002032B7088F800E088F8AD
:4031000000E0397032702B780C480D4A03F0EF0310212B70C0F800901170BDE8F88300BF80E100E0DB490040DC490040D6490040E480FF1FA5430040B543004080E200E030
:40314000EE91FF1FCA490040F8B5824B824D1C782B78590641D5E4B2E2072AD52B78453B052B7ED8DFE803F003657D7D033F04F00A03082B04F0DF0400F08B800A2B70D169
:40318000764A7749137843F0A00313700B789F0740F189802B78107813F0080F0CBF0A2309237049034360264FF4004013702E700860A20616D52B78684913F0080F0878CD
:4031C0000CBF02230123684A03430B701378102103F0EF0313702970F8BD2B78DB065CBF10232B70F8BD614A61496248137809780068DBB2C9B2C15413785F490133DBB230
:40320000137012780B789A423FD3554B1B7803F0020303F0FF02002B72D0504A51491378602643F009034FF4004013702E700860BFE7A60719D4514B514A1978127891428F
:403240004ED250491A780968D2B28A5C484E4149D2B20420327008701A780132D2B21A70A7E70020FFF764FAA3E73D4B1B78990725D53A4A3B491378602643F09A034FF406
:40328000004013702E70086093E7324B10221A708FE72B78304A452B3AD02E4900204A230870137085E7304A374E1378294943F010031027042013703770087079E72A4A07
:4032C000314E1378234943F0100313701027234A042037700870137843F09003137068E71F4B1B789807DED51C4A1E491378602643F00A034FF4004013702E70086058E7CD
:40330000194914480B7843F010030B70027050E71B4B1B7873B11B4B15481B680D4E1B781649DBB203700427012046233770087013703EE70A4B1B789B07B4D50749094802
:403340000B78602743F00A034FF400460B70177006602EE7D7490040EE91FF1FF291FF1FF891FF1F80E100E0D6490040FA91FF1FD8490040F491FF1FF991FF1FF091FF1F24
:40338000F191FF1FFC91FF1FD9490040184A1378102B01D002207047164B1B781B071BD4154B30B440004FF40044C0B21C60A9B945231370114D0F4B0121114C28701970EB
:4033C00023780F49DB07FBD50B7803F00A030A2B09D0002030BC704701207047492340F001001370E6E7102313700320F2E700BFEE91FF1FD949004080E100E0D8490040FD
:40340000D7490040154B1B785A0701D4022070474000F0B4C0B2124CB1B945232370114B114F19460D4D1226042238702E701A700B780C4ADB07FBD5137803F00A030A2B23
:4034400007D0F0BC00207047492340F001002370E5E7102323700320F0BC7047D9490040EE91FF1FD7490040D84900400A4B1A78520701D402207047084830B40246084C2C
:4034800010210425197005702170137813F0210FFBD0002030BC7047D9490040D7490040EE91FF1F114B1B785A0701D4022070470F4B70B419460F4E0F4C042546223070B4
:4034C0001D7022700B780A4ADB07FBD5137803F0020303F0FF0023B160232370032070BC70476023237070BC704700BFD9490040D7490040D8490040EE91FF1F124B1B7857
:4035000003F00403B3B130B4104C05462378492B14D00F4A13780E49DB07FBD50D4B1B78D8B21DB96023237030BC704710230B7030BC704703F0FF0210467047044A0021FD
:403540004A2311702370E4E7D9490040EE91FF1FD7490040D8490040094B10B5D8689A68002308E0114652F8084B1CB901230B60486810BD01338342F4D3002010BD00BF98
:403580000092FF1F084B30B50022DC689B6808E05D6819460833854202D100230B6030BD0132A242F4D330BD0092FF1F01230373704700230373704710B100228272026009
:4035C000704718B1027B0AB1013A02737047000038B501F02BFD20B3124C4200E260000101F018FD238AA060E068584301F012FDA568E168228A002304E005EBC3046060DA
:40360000013380188B42F8D3102001F003FD054C6061282001F0FEFCA37CA06143F00203A37438BD0092FF1F38B510220D460021044601F021FCFFF78FFF08B9013038BD56
:40364000A0604FF0FF33002065602360A07338BD38B5837A044643B1056801F0F7FA2846FFF7AFFF2046FFF7A7FF002038BD08B50368827A03B19B6822B11BB1FFF7E8FF72
:40368000002008BD012008BD08B901307047FFF7EEBF000038B5104B9C69217B59B921606160A16004F11000142201F0E5FB237B013323730DE0656A45B9282001F094FCBE
:4036C000606218B12946282201F0D6FB646A002CE3D1204638BD00BF0092FF1F38B50E4B5C69A17AE56839B92046102201F0C4FB0123A372E5600CE045B9102001F074FCA6
:40370000E06018B12946102201F0B6FBE468002CE7D1204638BD00BF0092FF1F2DE9F74F06460020884691469B469DF830A09DF83470FFF7AFFF054608B9044610E0FFF777
:40374000CDFF044660B180F80B900560AE604046214652463B46CDF800B001F0ABF830B12046FFF729FF2846FFF72BFF00242046BDE8FE8F2DE9FF410C461F4604A9002301
:4037800041F8043D15469DF8286000F0A5F88046B8B1039B0BB11B789BB1404600F025F900280EDD14F0150F01D0032809D1039939B1404622462B4600970196FFF7AEFFC7
:4037C00000E0002004B0BDE8F08100002DE9F3410646884600240E4D404655F83410E70001F080FB10B9002C04DA0DE001340F2CF1D109E07D19A87929790090EA796B79A7
:403800003046FFF7B7FF00E00020BDE8FC8100BF44910000FFF7DABF10B5437B04460BB1012010BD40682168A268A37B01F0C5FC10B10120607310BD207310BD10B5437B3A
:40384000044663B9037B53B140682168A268A37B01F0B3FC08B1012363730023237310BD036870B5994204460D46164607D0037B0BB1FFF7E3FF00232560A673E37370BD9D
:40388000FFF7DCBF10B50446FFF7D8FFA068BDE81040FFF777BE01230373FFF7CFBF10B50446407B08B1012010BDE37B5BB960682168A268A37B01F01AFC10B1012060733D
:4038C00010BD0122E27310BD08B5436813B94FF0FF3008BD984708BD2DE9F0470F463A21064601F02EFB044610B93446174D27E00378C6EB000A5BB114F8013F43B16278F4
:403900003A2A05D1A3F130085FFA88F8023401E04FF000080D4D2B6828791B689847814601F0EDFA504508D148463146524601F0EEFA10B92B79434502D0AD6D002DEAD10E
:4039400007B13C602846BDE8F08700BF1C92FF1FF8B5174C064694F85710A56D69B95C220127204601F088FA84F85770A5653046FFF7AAFF00280EDA18E045B95C2001F007
:4039800033FBA06518B129465C2201F075FAA46D002CE0D10AE0074B26609A6F01329A670323207184F8577084F856302046F8BD1C92FF1F0092FF1FFFF7CABF38B5044688
:4039C0000D4601F062FB08B9013838BD204601F06FFB204601F008FD204600F0D5FC08B184F8555094F8550038BD90F8553023B990F8561009B1FFF7E1BF1846704710B542
:403A000090F8552004463AB931B1FFF7D7FF002802DC4FF0FF3010BD94F8550010BDFFF7EEBF10B50C460021FFF756FF08B9013810BD2146BDE81040FFF7F1BF30B5134682
:403A4000BAB1B0B10268857A0AB1946804B900247DB172B16CB1C27A12F0100204D14FF6FA730381104630BD1A46BDE8304001F00FB9002030BDFFF7E1BF0C2802D010285E
:403A800005D102E001EB510070474800704788007047036840689B685B6AB0FBF3F0704710B5C46C436CE4B199421AD3E318994217D2013B99420CBF4FF0FF31013172B196
:403AC00090F836300C2B02D0102B05D102E00905090D03E089B201E021F070411160012010BD002010BD40F6F473984201D80C2070474FF6F473984294BF10202020704778
:403B0000027F8368023902FB01307047431EDBB21F2B13D92F2811D007D826280ED002D8222809D10AE02A3804E03A2804D33F2804D95B38022801D90120704700207047A1
:403B4000034638B30B2A01DD0B2200E0013A00201CE0082809D191F808C0BCF1200F0DD04FF02E0C03F801CB08E038B991F800C0BCF1050F02D1ACF1200C04E011F800C01A
:403B8000BCF1200F01D003F801CB01309042E0DB00221A7070472DE9F04788B005AE04460D463046114600229A469DF84490BDF84C80BDF8507000F0BDFC08B1002413E0F4
:403BC00020462946524600F0AEFD044660B1129B31460093109A4B46CDF80480029700F065FF2846FFF7E2FC204608B0BDE8F08710B59DF80C400394BDE8104000F078BD67
:403C00002DE9F04F144E87B0109DDDF848809DF84440376800950194CDF8088005937F68934682468946B84732680C4BDDF814C09A420DD060B9504649465A4663461095B0
:403C40001194CDF8488007B0BDE8F04FFFF7D0BF07B0BDE8F08F00BFEC80FF1FEC91000070B5C37A04460B7010300D4601F098F9064604F10E0001F093F940EA0640686011
:403C800004F1120001F08CF90004A86004F1180001F086F9064604F1160001F081F940EA0640E86004F11C0001F061F9286170BD2DE9F845038A04460E46924687692BB948
:403CC00007F118002146626900F004FC38465146224600F087FC0546204600F005FCD5B12B78C3B1E52BF1D095F80B80B8F10F0FECD018F00808E9D170692946B269FFF7CC
:403D00001FFF28463146FFF7ABFF238A404601332382BDE8F8854FF0FF30BDE8F8850222FFF79EBD2DE9F74F04460D461E461746002A00F09B8090F836001146FFF79DFE18
:403D4000B4F81EA0A36A20FA0AFA9A45814680F08D80638E04F118089A44284651464246FFF7DDFF2846FFF79AFD6B7B002B7DD1A38B013B09EA0309AB681FFA89F909EBE3
:403D8000030B26B9226C974203D2276401E07A1C226494F83620102A0AD0202A11D1584601F0E5F831460746584601F0EBF84EE0584601F0F5F8B1B20746584601F0ECF8C1
:403DC00045E028460193FFF7F1FB019B17F0010F19F803701CD007F00F0242EA061209F80320A38B013B994502D00BF1010309E028460AF101014246FFF791FF2846FFF747
:403E00004EFDAB681A78120142EA171732091DE009F80360A38B013B994502D00BF1010309E028460AF101014246FFF778FF2846FFF735FDAB681A7802F00F0147EA012790
:403E4000310A22F00F0201F00F010A431A702846FFF7ACFBE36BB3F1FF3F09D00FB10133E3632EB1E36B013BE36301E0012000E00020BDE8FE8F6FF07043FFF753BF70B59C
:403E8000C36C04460E4693B1002506E0AA1820463146531CFFF746FF0135E36C626C013B9D42F3D320463146AA18FFF7E4FF00236364E364A364236570BD70B506460D4640
:403EC0001C460AB1FFF72EFF304629462246BDE87040FFF7D0BF2DE9F04790F8366005460C46304611469146FFF7C7FDB5F81E80AB6A20FA08F89845824602D30020BDE83C
:403F0000F0876B8E05F118079844204641463A46FFF705FF2046FFF7C2FC18B14FF0FF30BDE8F087AA8BA168013A0AEA020A1FFA8AFA92450AEB01031AF8015001D00133FE
:403F400009E0204608F101013A46FFF7E8FE2046FFF7A5FCA36818780C2E45EA002009D0202E0FD15D7840EA05409D7840EA0560BDE8F08719F0010F02D00009BDE8F0875F
:403F80000005000DBDE8F0872DE9F34190F83630144603FB02F7828B8846D200511E0F40D71B0546B7FBF3F7002618E00E4B93F87C30022B05D12846214601AAFFF770FD72
:403FC00028B9284641462246FFF785FF0190019B0134A34205D10136B6B2013F1C46002FE4DC3046BDE8FC810092FF1F2DE9F34105460E46144698461F681CE0114B93F8E9
:404000007C30022B05D12846214601AAFFF748FD28B9284631462246FFF75DFF0190737B0BB100240BE0AA6B019B0132934204D81BB1013F1C46002FE0D1C8F800702046D3
:40404000BDE8FC810092FF1F73B504680E4623681BB9FFF71EFD013039E0FFF71AFD236998423CBF4FF0FF3323612369B3F1FF3F04D12268013323616261E3832169E28BC4
:40408000451A954234BF2B4613463BB16069C918C018D21A60612161E283ED1A0DB9284615E002AB43F8045D31466269A068FFF79DFF6061019B21690246C91A4D192561B8
:4040C00023B9A0683146FFF75FFFE08301987CBD13B502AC44F8043D2346FFF787FF019B002B18BF00201CBD2DE9F0410746884615461E460024384641462A460123FFF799
:40410000E7FF30B1BA6B0134944201D80546F2E7002406B134602846BDE8F0812DE9F84504460E4615461F46002B36D01C4B93F87C30022B31D190F8368011464046FFF7D8
:404140009CFCB4F81CA00AF1FF3A2AEA000A4FEACA0ABAFBF8FAAA44A8460EE0204631464246FFF7B8FE50B9636C0BB9C4F84480A36C08F101080133A364D045EED9A36C0B
:404180005BB127653B685A6922B1204631462B46FFF7C8FDE36C0133E364BDE8F88500BF0092FF1F2DE9F8459846274B054693F87C300F46022B1646846B19D1036D9845A1
:4041C00003D0836C0BB1FFF75AFEB8F1000F0FD02B6D43450CD1EB6CAA6C9A4204D96C6C1C190133EB642CE028463946FFF747FE012E04F1010A01D9564505D92E6C012E2A
:4042000001D9564500D902263446284639462246FFF761FE50B101345445F6D902240DE0284639462246FFF756FE30B92846394622464346FFF772FF03E00134B442EFD396
:4042400000242046BDE8F8850092FF1FF8B507460E461546FFF7A6FF044628B1384631462A462346FFF729FE2046F8BDB2F1FF3F73B504460D4614D0561A013611D0FFF76D
:40428000FFFA084B00211A8AA06800F0F5FD022300936068A3682946324600F069FF0023E3737CBD0092FF1F2DE9F84F984690F8363004460C2B0D4616465AD04FF0FF3ADC
:4042C000D1463CE094F836003146FFF7D6FBB4F81CB0678E0BF1FF3B10EA0B0BE38B1DD1D840013F3F18022228463946FFF7B8FAA38BAA689B0852F80B1079B9013B0BF162
:40430000040BF8D13BE0494628465246FFF7AEFFB946BB462846FFF74CF9DA462946324601232046FFF7D4FE29460746324620460023FFF7F7FC2FB108F1FF383E46B8F16D
:40434000000FBFD1284649465246FFF78FFF13E02946324601232046FFF7BAFE29460746324620460023FFF7DDFC2FB108F1FF383E46B8F1000FEBD14046BDE8F88F0AF132
:40438000010B5F45BFD1C5E72DE9F8450446FFF7E3F8054608B9044696E0204600F014FF4B4E338A834208D338B1002120462A460B4600F09CFE002804DA2846FFF7E2F879
:4043C000002481E005F5FF7000F0EAFD4AF65523984275D105F10B0000F0E2FD10F47E4F07466DD0338A83426AD32B7C022B67D16E7B002E64D000213C2204F1180000F063
:404400003BFD05F1130000F0CBFD804620B905F1200000F0ACFD804605F1160000F0C0FD824680B905F1280000F0BAFD10F08F0F46D105F1240000F09AFD824605F12C00B0
:4044400000F095FDE062022384F83530C4F828A0C4F8188084F8346005F10E0000F0A0FD608605F1110000F09BFD638E94F83520208602FB0A3A7B099BB2B0FBF3F05044D8
:40448000A7832062092301229A40BA4201D1E38302E00133102BF6D17743C0EB0800B0FBF6F0A0636762FFF71EFB4FF0FF33202884F8360018BFC4F82CA0E363012400E0ED
:4044C00000242846FFF75EF82046BDE8F88500BF0092FF1F00238B60837F202B01D102B942694A600A60704783680133836070472DE9F0410C46202105461F469DF8186039
:404500004FF0000800F0B8FC10E014F8080036B9E52804D1B8F1000F01D1E03802E000F009FDC0B205F8080008F10108B845ECDBBDE8F0812DE9F74506460D46084628493E
:40454000002A14BF92464FF0FF3A00F0CBFC804650B930462946022200F05DFEB01C2021092200F089FC37E000274FF0FF3415F80780B8F1000F01D0574505D1B4F1FF3F45
:4045800008BF3C4664B925E04046FFF7BFFA08B3B8F12E0F08BF3C4601370D2FE7D119E0082C17DC3F1B042F14DC30462946082223464FF00008CDF80080FFF799FF0123F2
:4045C000611C009306F10800691803227B1EFFF78FFF01E04FF001084046BDE8FE8500BFFC9100002DE9F74FD2F808B0436A4FEA4B18B8FBF3F8D368054698450E461446F0
:40460000D2F8009001D20023D360B5F81EA0E368AAF1050A0BB9D4F804902BFA0AF7B9F1000F17D095F83420B8EB0303019206D04A4628463146FFF74BFD814640B34946BE
:4046400005F11800FFF75CFA019B591E01EA0707C11906E02B8E43FA0AF39F4218D2E96A79183046C4F80090C4F80C800122FFF7F7F83046FFF713F950B9013000FA0AFAB0
:40468000B3680AF1FF3A0AEA0B0B03EB4B1000E00020BDE8FE8F2DE9FF4107460E4601A811461A460A9D9DF82C40FFF743FFC8B9384631462A46FFF795FF8046A0B10378ED
:4046C00083B101A90B2200F0C7FB38B998F80B3004EA0302A24201D1082B05D12846FFF703FFE5E74FF00008404604B0BDE8F0812DE9F04587B002AF04460E4615469846BC
:404700009DF83CA039460E9A1830FFF7E3FE204631462A4643460097CDF804A0FFF7BBFF07B0BDE8F0852DE9F04500F1180785B005460C46384669469246FFF7CBFE28460C
:4047400021466A46FFF74EFF06466846E846FFF7CBFE002E37D1BAF1000F02D12B8E002B35D12146009A00232846FFF7BDFC2146024600232846FFF769FD80462046FFF74C
:404780008AF8B8F1000F22D0AA8B0021A06800F073FB38464146FFF7B3F995F8347000257E1E361808E0314620460122FFF758F82046FFF731F8013E01357B1BB3F1FF3F8A
:4047C000F1D1A66803E033780BB1E52BB7D1304605B0BDE8F08538B504461A3000F0E0FB054604F1140000F0DBFB45EA004038BD2DE9F0451D4685B007460E462A60104694
:404800005C21904600F09DFB4FF0000A0446A04508D108F10108C5F8008040465C2100F090FB044694B1C8EB0403002B0EDD10220192103A0292384631464246CDF800A0AB
:40484000FFF7DEF970B1FFF7C6FF824628685C2100F077FBA04604460028D8D10C9B0130C3F800A005B0BDE8F085F8B505460C461E461746DAB16FF01A0313700846FEF77D
:4048800095FE16B94FF47A7608E007F11C0000F06EFB6B6A5E1E3618B6FBF3F63846FFF79AFF2146024633462846FFF7FDFC607BF8BD00002DE9F04FD1F8008093B0D8F802
:4048C00008700BAD044608930E464FF0FF333946284609920F939DF870A0FEF7A5FE10AB009338462946224611ABFFF781FFD0B1F27A109B07920FAA0093029200233846F0
:404900002946119A0193FFF77BF9044680B1C37A13F0100F07D10D9BDDF82CB0C3EB00094FEA691906E02846FEF7ACFF0125A3E083468146099B002B3CD0002C33D0524B0E
:404940005D6912E02B687BB1AA7A6AB19A8B4A450AD19A695A4507D19B68BB4204D14FF6F772328100257EE0ED68002DEAD10DF12C0C6146384622460123CDF818C0FFF708
:4049800074FFDDF818C018B14FF0FF3333816AE03E4B1B68DC6824B138466146109A0F9BA0472C4606E0BAF1000F03D1089A002A44D065E0089BEBB1CCB1E37A13F0010FE3
:4049C0000BD0079A12F0150F07D04FF6FA733381BAF1000F01D1012500E000252046FFF7FAFE074604F11C0000F0C1FA29E0BAF1000F45D0BAF1010F01D000251BE0ECB99B
:404A000000F024FD214B20221B68019282B2000C03920490009402949D6838460BA9119A109BA84750B10D9ADDF82CB0C2EB00094FEA6919254628462F4602E00125002052
:404A400007464FF0FF33C8F81030C8F818B0A8F81C90079AC8F8040012F0010308BF1846C8F800707060B6F908300BA835EA230528BF0125FEF706FF284613B0BDE8F08FD7
:404A800001255046DCE700BF0092FF1FEC80FF1F70B505460C461A3089B200F07DFA05F11400210CBDE8704000F076BA2DE9F0470446BDF824700D469146002120229A46D7
:404AC000BDF82860DDF8208000F0D6F90B222046294600F0A0FB04F10E00394684F80BA000F05AFA04F11000314600F055FA04F11600394600F050FA04F11800314600F0D8
:404B00004BFA20464946FFF7C3FF04F11C004146BDE8F04700F036BA07B5426803460AB910460AE081680020009048681968DB6800F0FCFA003818BF01200EBD2DE9F04742
:404B4000046805460F46A668FFF77EFA81468246002841D0D4F80080B8F1000F1BD14246304639462B46FFF71DFB0246D8B11C4B6061C4F8108093F87C302060022B07D0F9
:404B800030463946FFF777F910B10120BDE8F087B9F1010A20D03046394662692B46FFF701FB804628B94FF6FE732B810130BDE8F0870B4B93F87C30022B05D030463946FA
:404BC00062694346FFF779F92369C4F8148001332361BAF1010ADDE70020BDE8F08700BF0092FF1F2DE9F041836804460D4608460122A1699E8BFEF733FE2846B4F81C80F1
:404C0000AF68FEF74CFEF8B9013E06EA4816B6B2BE1906F11C00616800F0B4F921683046FFF736FF00F012FC0446A1B206F1160000F0B2F906F11800210C00F0ADF928467B
:404C4000BDE8F041FEF727BEBDE8F0817FB50668B0F90830B568C3B9C37A13F0110F14D029466846FEF7E0FC30466946FFF7BAFF064B6C4693F87C30022B03D128466946F4
:404C8000FFF7FDF86846FEF7FDFD7FBD0092FF1F03682DE9F04F9F68038995B001339BB2012B04460E46059201D90025CEE0394610AD0CA8FEF7B8FC39462846FEF7B4FC2E
:404CC000039626680023D6F808909A4609F118010791D9F82420059906924FF0FF32099308920A950291049320460CA9FFF726FF38B108A8FFF710FF5546002818BF00252C
:404D00008FE03269069901324A43B9F81CB063680BF1FF3BD21A0BEA030B029B0798934228BF134601937169FEF7EAFE99F83430B9F81C206768013BB7FBF2F703EA07077E
:404D4000C719B9F81C300199CBEB03058D4228BF0D469D4228D0BBF1000F03D1626873689A420FD00DF14008404639460022FEF777FD4046FEF793FD20B14FF6F972554632
:404D8000228154E01298039958442A460DF1400800F041FA404639460022FEF761FD4046FEF73AFD90B141E0099B089A9A1897420AD008A8FFF7B0FE002837D101230993DC
:404DC000039B08970B9301E001330993029B03995B1B019A029363684919521BAA44ED186560736803919D42019207D91BB1194B93F87C300BB9012104917560019A1AB118
:404E000001374FF0000B9CE7029B002B7FF46CAF08A8FFF781FE04995546002818BF002529B1304610A9FFF7DDFE00E05546059A954205D0B4F9083013B94FF6F8732381F1
:404E40000CA8FEF71FFD10A8FEF71CFD284615B0BDE8F08F0092FF1F10B5002308E0C45C11F803C0013A0133644501D0012010BD002AF4D1104610BD70B5034602E003F8B0
:404E8000011C013A1C4622B103F003050133002DF5D193081ED04FF001354D4308E044F8105C44F80C5C44F8085C44F8045C043B032BA44604F11004F1DC1C46002603E0AD
:404EC0004CF80650013B0436002BF9D102F003020CEB8404002302E0E154013A0133002AFAD170BD002310F803C0CA5C624501D0012070470133002AF5D1104670470023B4
:404F000000E00133C25C002AFBD11846704710B500230BE0C45C11F803C0644501D0012010BDC4186478013314B1013A002AF1DC002010BDA0F16103192B98BF00F0DF00DE
:404F40007047C9B203E00BB918467047013003788B42F8D1704742780178431C42EA01205A789B7842EA002043EA002070478378C27803EB0222437803EB0222037803EBB9
:404F80000220704703460A0A03F8011B42700A0C090E5A70997070470170090A417070474278037843EA022070470000094A0A4BC11C10B5146821F00301186809198142D4
:404FC00001D9002010BD11609A685868013220189A6010BD8092FF1FB481FF1F08B5FFF7E5FF00B9FEE708BDFFF7E0BF30B1044A9368013B93600BB9024A1360704700BF21
:40500000B481FF1F8092FF1F014B586019607047B481FF1F38B50546FFF7E0FF002104462A46FFF729FF204638BD000010B5084CA37C0BB1002010BD4FF40073238200F0D9
:40504000F5F9A37C012043F00103A37410BD00BF0092FF1F08B583680BB10020984708BD08B583680BB10120984708BD10B504680079A468A04710BD37B59DF81850046868
:4050800000790095E468A0473EBD08B5036800799B69984708BD036810B55B69044623B10079984708B1002000E00120607110BD10B5437904460BB9FFF7EDFF607910BD72
:4050C000F7B504461F460E461546FFF7F1FF2046FFF7C6FF2A463146012320460097FFF7C5FF05462046FFF7B5FF2846FEBD10B504690919BDE81040FFF7E2BFF7B5044683
:4051000015461F460E46FFF7D3FF2046FFF7A8FF0023009331462B463A462046FFF7ACFF05462046FFF796FF2846FEBD30B504699DF80C5009190395BDE83040FFF7DEBF61
:40514000F7B5044615461F460E46FFF7B1FF2046FFF786FF0123009331462B463A462046FFF78AFF05462046FFF774FF2846FEBD30B504699DF80C5009190395BDE8304045
:40518000FFF7DEBF73B504460E461546FFF790FF2046FFF765FF00232A460093314601332046FFF769FF05462046FFF753FF002D14BF4FF0FF3000207CBD10B5046909194D
:4051C000BDE81040FFF7DEBF30B5054685B0FFF76FFF2B6828791C694FF47B71002201ABA04708B1002001E0BDF80C0005B030BD70B506460D46FFF75BFF336830791C69C7
:405200004FF47B7100222B46A047002814BF4FF0FF30002070BD11F0030F70B584460B4632D110F0030F2FD195100446AC4611E053F8106CACF1040C44F8106C53F80C6CE6
:4052400044F80C6C53F8086C44F8086C53F8046C44F8046C10341033BCF1030FE8D8AB081B0100EB030CCB1815F003050AD0284600215C584CF8014004310138F9D1AD005E
:40528000AC445B1902F0030213F0010F19462FD11CF0010F60462BD15410254610E031F8086C043D20F8086C31F8066C20F8066C31F8046C20F8046C31F8026C20F8026CD7
:4052C00008300831032DEAD8A108C9005B1814F003048C440AD0204600215D5A2CF8015002310138F9D16400A4441B1902F00102614610E013F8040C043A01F8040C13F84F
:40530000030C01F8030C13F8020C01F8020C13F8010C01F8010C18460433032A8C4601F10401E7DC32B10023C15C0CF8031001339342F9D170BD0378E92B01D10120704757
:40534000EB2B01D0002070478078902814BF00200120704708B500F5FF70FFF721FE4AF65523984214BF0020012008BD01EB001000F5E370FFF7FBBDF0B50D4685B01446DA
:40538000064658B352B300210B46FFF799FE002824DB2046FFF7DEFF00B32046FFF7CBFF10B10024274616E02146FFF7DFFF074604F5E570FFF7DBFD01A904463046FFF70D
:4053C00017FF5CB157B1E219FF23120AB2FBF3F2029B9A4202D81DB12C6001E04FF0FF37384605B0F0BD000073B50446FFF7ECFE0646FEF7B1F80C4B05461B8AB3420DD37C
:4054000066B1204601A92A46FFF7B6FFB0F1FF3F04D02061019B6361002400E0FF242846FEF7B0F860B27CBD0092FF1F08B505484FF48051FFF7E8FDBDE808400248FEF744
:40544000BBBA00BFC081FF1F489200004FF40410704700BF4FF6FF7070470000014B1868704700BFC091FF1F004870476892000000F0B2BC37B501220DF10701054600F02F
:40548000BFFC9DF80740FF2C14BF0A240724284601220DF1070100F0B3FC9DF80700FF2803D1013CE4B2002CF1D13EBD37B50469857828460DF10701012200F0A1FC9DF866
:4054C00007300BB1002003E0013CF2D14FF0FF303EBD37B54FF0FF3305460C468DF8073006E028460DF10701012200F0B1FC013C002CF6DC3EBD000038B5094C2368032B4C
:4055000002DD4FF0FF3509E0DDB2013323601420FFF780FD04EB850460608570284638BDC091FF1F08B5034B4FF400711B68984708BD00BFF080FF1F4FEAD20CACEBD1038F
:40554000CCF10F0C10B501336044002410F801CB013B4CEA0424F9D101F00703511A02228A40DC40013A04EA020010BD7FB5130E85788DF80530130C01F03F018DF80630DB
:40558000130A41F040018DF8073000238DF808208DF804101A4601A911F802C000215B00DBB283EA0C0E1EF0800F18BF83F009030131082904D04FEA4C0C5FFA8CFCEEE761
:4055C0000132052AE7D15B0043F001038DF809308678C4680122304603A900F011FC9DF80C30FF2B04D00CB9FF2009E0013CF1E7284601A9062200F02BFC2846FFF73AFF30
:4056000004B070BDF7B5847806460F4620460121FFF75FFF204600F0A7FB304609210022FFF7A4FF8DF8070028BBF6680546012220460DF1060100F0E3FB9DF80630FE2BA9
:4056400006D0FC2B04D00135ADB2B542EFD112E00DF1070520463946102200F0D1FB29462046012200F0CCFB29462046012200F0C7FB002500E0FF25204600F079FB20468C
:405680000121FFF726FF2846FEBD00002DE9F04F9B46494B89B003EB800305925C684A02029103924FF00309029AA578E678039B2846022E08BF13461E4600F059FB0121B9
:4056C0002846FFF706FFBBF1010F0CBF4FF0110A4FF0120A284600F047FB204651463246FFF744FF002851D1059F5E46A378E268B44604924FF000081E460FE001223046FD
:405700000DF11F01CDF804C000F07AFB9DF81F20DDF804C0FE2A05D008F10108049B9845ECD333E0284639464FF40072664600F067FB0222284607A900F062FB9DF81C3093
:40574000384601939DF81D80FFF7ECFE4FF6FF729042019B0CD048EA0328404508D0BAF1120F13D120460C210022FFF7FFFE0DE0013E02D007F50077B8E7BAF1120F07D13F
:4057800020460C213246FFF7F1FE01E04FF0FF36284600F0EDFA28460121FFF79AFE3EB1B9F1000F02D009F1FF397DE74FF0FF36304609B0BDE8F08FC091FF1F2DE9F04FA6
:4057C00099464C4B87B0029203EB80039DF840205D68009103926B78002B40F085804B0201930327009BAC78EE78019A2046022E08BF1A46164600F0BBFA01212046FFF7CD
:4058000068FEB9F1010F0CBF4FF0180A4FF0190A204600F0A9FA284651463246FFF7A6FE8DF81700002850D120460121FFF751FE029ECB46B8463046FFF774FE0DF117074F
:40584000BAF1180F0CBFFE23FC2301228DF817308DF81500030A394620468DF8143000F0F7FA204631464FF4007200F0F1FA0222204605A900F0ECFA01222046394600F0B3
:40588000BFFA9DF8173003F01F03052B1CD12846FFF70CFEC0B9039A0AB906F50076BBF1010BC8D1BAF1190F474611D106A96FF00203204601F8013D012200F0C9FA2846E2
:4058C000FFF7F4FD20B100E047464FF0FF3600E00026204600F04CFA20460121FFF7F9FD26B10FB1013F7DE74FF0FF36304607B0BDE8F08FC091FF1F2DE9F04F877887B0FF
:40590000044638460D4600F02FFA20463A210022FFF72CFE064638B1384600F029FA38460121FFF7D6FD58E00DF1140804224146384600F065FA4046FFF70DFB804638466D
:4059400000F016FA01213846FFF7C3FDB8F1000F28F07F02B8BF4FEA987BD2B240F272634FEA1828B8BF0BF0010B1FFA88F8002A14BF1A460022012111EA080F05D10136E2
:40598000F6B24900102E89B2F6D140F27260824233460DD06422724302F5FA6208E011EA080F07D049000133013689B2DBB2F6B20F2EF4D964214B434FF6FE7103F5FA63EF
:4059C00002EA01014FF6FC72384603EA020200F0F5F910F0FF0F40F099804FF0FF3092E028467E217F22FFF7A7FD8246EB78DFF82C8103F0030203F0780308EBD30358F80C
:405A000022101B7C3846594389B200F0B7F90646002877D06B7803F00702DB1003F00F0308EB82024344126A93F810800292B8F1000F67D0A978284603911C221A21FFF774
:405A40007BFD0190BAF1000F1FD1502153222846FFF772FD4FF0010909FA00F92F2131222846FFF769FD1FFA89F982463E21284649224FEA5929FFF75FFD0AF1020A09FA56
:405A80000AF9013000FB09F910E0BAF1010F01D0012038E0284630214522FFF74DFD4FEA8029BBF1000F01D00223E37008FB06F2029B0399B2FBF3F2642303FB01225A43A9
:405AC0007343D208DB089A4294BFE260E360FA235E43019BF6089A400C21B24294BF2261266128460D22FFF727FD0546384600F043F94FF4007128436070A180C4F80890BF
:405B0000002000E0FF2007B0BDE8F08FE378A778012B3FF465AF4FF0000A67E700920000F0B5857887B004464FF4C871284600F025F9B0F5C87F00F2CC804CF25033E3600C
:405B40000026284600F014F90A212846FFF7C1FC624B93E8030001902846ADF8081000F003F9062201A9284600F072F92846FFF781FC0746284600F0FBF801212846FFF7D5
:405B8000A8FC17F0010F03D10136052ED9D1A0E0284600F0E9F8082120464FF4D572FFF7E5FC10F0040F52D0284600F0E1F8A5784FF4FA66284600F0D7F80022372120465A
:405BC000FFF7D4FC28460121FFF783FC292100222046FFF7CBFC0746284600F0C9F828460121FFF776FC17B90123E3701EE017F0040F01D1013EDDD14FF4FA66284600F0C8
:405C0000B3F8012100222046FFF7B0FC0746284600F0AEF828460121FFF75BFC0FB9E77004E0012F55D1013EE8D152E001AD20462946FFF7E7FC00284BD120462946FFF751
:405C40005BFEC0B2002844D10123237043E00422A07805A900F0D4F8284600F089F89DF81730AA2B35D19DF8163003F00F03012B2FD1A5784FF4FA66284600F075F800224B
:405C800037212046FFF772FC28460121FFF721FC29214FF080422046FFF768FC0746284600F066F828460121FFF713FC0FB1013EE2D101AE20463146FFF7A4FC48B901257B
:405CC000E57020463146FFF717FEC0B208B9257001E04FF0FF3007B0F0BD00BF4092000010B5084B03EB80035C6823783BB9FFF7BFFB20B12046BDE81040FFF711BF4FF09E
:405D0000FF3010BDC091FF1F38B51D46154BA1F57B7103EB80035C68072918D8DFE801F00A17171704041719204600211422FFF7A3F80CE0237833B92046FFF7F1FE10B165
:405D40004FF0FF3038BDA3882B81A3686B60002038BD2046FFF74AF9024B00201A68013A1A6038BDC091FF1F00B1002000F08EB9012000F08BB900BF00207047B1F5C87F77
:405D800038B50CD21D254FF4C87400F0FDF82846012100F009F900F0E7F8204638BD45F6C053B1F57A6F28BF4FF47A614D00ADB2B3FBF5F5013D0C46ADB2E6E740F6E44387
:405DC000994206D840F6E340824294BF0020012070470020704700BF10B5084B1A785AB901241C7000F0D0F821463B2000F0DCF800F0BAF800F04EF8022010BDD491FF1FF6
:405E0000F8B507460E461546741C77B1FF2000F099F800F091F8C307FBD500F09FF8013D264604F8010CEFD1F8BD013D2544FF2000F088F800F080F8C207FBD500F08EF8F2
:405E4000A542307002D026460134F0E7F8BD00BF70B506460C46154614F8010B56B100F071F800F069F8C307FBD500F077F8013DF2D170BD013D254400F064F800F05CF898
:405E8000C207FBD500F06AF8AC4202D014F8010BF2E770BD70B51E4C2378A3B11D4CFDF793F823781C4943F0200323700B781B4A43F010030B70137843F010031370BDE828
:405EC0007040FDF785B8164B0F21164A19701378990604D514490B7813789B06FBD4FDF773F80C4B114E1A780E4D42F001021A701A7802F0FE021A70FDF76AF80C480D499A
:405F00000023012236782D7803700B702270C5E7D591FF1F946400409364004097640040846400406764004054640040636400408364004087640040014B1878704700BF98
:405F400063640040034A13785B07FCD5024B1870704700BF6364004044640040014B1878704700BF546400400549064A0B7843F001030B70137843F001031370704700BFFD
:405F8000A2430040B24300400549064A0B7803F0FE030B70137803F0FE031370704700BFA2430040B2430040F0B4314D314E2A7833889BB298420BD02F4C02F00702247813
:405FC000E4B24AB933B930802B7803F0BF032B70F0BC7047002843D014F0010422D0274F274D284E00223A7001272F70327015F8082C02F07F0205F8082C96F86E2016072D
:406000002BD41E4A204F154607263B8016702B781A4A13F00103FAD1174E357805F0FE0535701370144B1A78D5070FD56FF4687213441A460029144C14BF032101212080CF
:4060400019701378DB07FCD4F0BC7047094A10801A7814431C70F0BC70470028E2D1D0E72B7843F040032B703080F0BC704700BF8240004080400040A2430040014000407C
:40608000104000401440004002400040044A8000137800F0040003F0FB031843107070471051004081F0004102E000BF83F0004330B54FEA41044FEA430594EA050F08BF83
:4060C00090EA020F1FBF54EA000C55EA020C7FEA645C7FEA655C00F0E2804FEA5454D4EB5555B8BF6D420CDD2C4480EA020281EA030382EA000083EA010180EA020281EA9F
:406100000303362D88BF30BD11F0004F4FEA01314FF4801C4CEA113102D0404261EB410113F0004F4FEA03334CEA133302D0524263EB430394EA050F00F0A780A4F1010454
:40614000D5F1200E0DDB02FA0EFC22FA05F2801841F1000103FA0EF2801843FA05F359410EE0A5F120050EF1200E012A03FA0EFC28BF4CF0020C43FA05F3C01851EBE37125
:4061800001F0004507D54FF0000EDCF1000C7EEB00006EEB0101B1F5801F1BD3B1F5001F0CD349085FEA30004FEA3C0C04F101044FEA445212F5800F80F09A80BCF1004FDC
:4061C00008BF5FEA500C50F1000041EB045141EA050130BD5FEA4C0C404141EB010111F4801FA4F10104E9D191F0000F04BF01460020B1FA81F308BF2033A3F10B03B3F1D2
:4062000020020CDA0C3208DD02F1140CC2F10C0201FA0CF021FA02F10CE002F11402D8BFC2F1200C01FA02F120FA0CFCDCBF41EA0C019040E41AA2BF01EB0451294330BD43
:406240006FEA04041F3C1CDA0C340EDC04F11404C4F1200220FA04F001FA02F340EA030021FA04F345EA030130BDC4F10C04C4F1200220FA02F001FA04F340EA03002946CB
:4062800030BD21FA04F0294630BD94F0000F83F4801306BF81F480110134013D4EE77FEA645C18BF7FEA655C29D094EA050F08BF90EA020F05D054EA000C04BF19461046D8
:4062C00030BD91EA030F1EBF0021002030BD5FEA545C05D14000494128BF41F0004130BD14F580043CBF01F5801130BD01F0004545F0FE4141F470014FF0000030BD7FEA59
:40630000645C1ABF194610467FEA655C1CBF0B46024650EA013406BF52EA033591EA030F41F4002130BD00BF90F0000F04BF0021704730B54FF4806404F132044FF0000595
:406340004FF0000150E700BF90F0000F04BF0021704730B54FF4806404F1320410F0004548BF40424FF000013EE700BF42004FEAE2014FEA31014FEA02701FBF12F07F437E
:4063800093F07F4F81F06051704792F0000F14BF93F07F4F704730B54FF4607401F0004521F0004120E700BF50EA010208BF704730B54FF000050AE050EA010208BF704774
:4063C00030B511F0004502D5404261EB41014FF4806404F132045FEA915C3FF4DCAE4FF003025FEADC0C18BF03325FEADC0C18BF033202EBDC02C2F1200300FA03FC20FAD4
:4064000002F001FA03FE40EA0E0021FA02F11444C1E600BF70B54FF0FF0C4CF4E06C1CEA11541DBF1CEA135594EA0C0F95EA0C0F00F0DEF82C4481EA030621EA4C5123EA28
:406440004C5350EA013518BF52EA033541F4801143F4801338D0A0FB02CE4FF00005E1FB02E506F00042E0FB03E54FF00006E1FB03569CF0000F18BF4EF0010EA4F1FF04EC
:40648000B6F5007F64F5407404D25FEA4E0E6D4146EB060642EAC62141EA55514FEAC52040EA5E504FEACE2EB4F1FD0C88BFBCF5E06F1ED8BEF1004F08BF5FEA500E50F198
:4064C000000041EB045170BD06F0004646EA010140EA020081EA0301B4EB5C04C2BFD4EB0C0541EA045170BD41F480114FF0000E013C00F3AB8014F1360FDEBF002001F082
:40650000004170BDC4F10004203C35DA0C341BDC04F11404C4F1200500FA05F320FA04F001FA05F240EA020001F0004221F0004110EBD37021FA04F642EB06015EEA430EE8
:4065400008BF20EAD37070BDC4F10C04C4F1200500FA04F320FA05F001FA04F240EA020001F0004110EBD37041F100015EEA430E08BF20EAD37070BDC4F1200500FA05F2D6
:406580004EEA020E20FA04F301FA05F243EA020321FA04F001F0004121FA04F220EA020000EBD3705EEA430E08BF20EAD37070BD94F0000F0FD101F00046400041EB0101E0
:4065C00011F4801F08BF013CF7D041EA060195F0000F18BF704703F00046520043EB030313F4801F08BF013DF7D043EA0603704794EA0C0F0CEA135518BF95EA0C0F0CD076
:4066000050EA410618BF52EA4306D1D181EA030101F000414FF0000070BD50EA410606BF1046194652EA430619D094EA0C0F02D150EA013613D195EA0C0F05D152EA0336BF
:406640001CBF104619460AD181EA030101F0004141F0FE4141F470014FF0000070BD41F0FE4141F4780170BD70B54FF0FF0C4CF4E06C1CEA11541DBF1CEA135594EA0C0FF8
:4066800095EA0C0F00F0A7F8A4EB050481EA030E52EA03354FEA013100F088804FEA03334FF0805545EA131343EA12634FEA022245EA111545EA10654FEA00260EF0004158
:4066C0009D4208BF964244F1FD0404F5407402D25B084FEA3202B61A65EB03055B084FEA32024FF480104FF4002CB6EB020E75EB030E22BFB61A754640EA0C005B084FEAFB
:406700003202B6EB020E75EB030E22BFB61A754640EA5C005B084FEA3202B6EB020E75EB030E22BFB61A754640EA9C005B084FEA3202B6EB020E75EB030E22BFB61A75468F
:4067400040EADC0055EA060E18D04FEA051545EA16754FEA06164FEAC30343EA52734FEAC2025FEA1C1CC0D111F4801F0BD141EA00014FF000004FF0004CB6E711F4801FBF
:4067800004BF01430020B4F1FD0C88BFBCF5E06F3FF6AFAEB5EB030C04BFB6EB020C5FEA500C50F1000041EB045170BD0EF0004E4EEA113114EB5C04C2BFD4EB0C0541EAD5
:4067C000045170BD41F480114FF0000E013C90E645EA060E8DE60CEA135594EA0C0F08BF95EA0C0F3FF43BAF94EA0C0F0AD150EA01347FF434AF95EA0C0F7FF425AF1046B6
:4068000019462CE795EA0C0F06D152EA03353FF4FDAE1046194622E750EA410618BF52EA43067FF4C5AE50EA41047FF40DAF52EA43057FF4EBAE12E74FF0FF3C06E000BF4C
:406840004FF0010C02E000BF4FF0010C4DF804CD4FEA410C7FEA6C5C4FEA430C18BF7FEA6C5C1BD001B050EA410C0CBF52EA430C91EA030F02BF90EA020F0020704710F158
:40688000000F91EA030F58BF994208BF90422CBFD8176FEAE37040F0010070474FEA410C7FEA6C5C02D150EA013C07D14FEA430C7FEA6C5CD6D152EA033CD3D05DF8040B88
:4068C000704700BF8446104662468C461946634600E000BF01B5FFF7B7FF002848BF10F1000F01BD4DF808EDFFF7F4FF0CBF012000205DF808FB00BF4DF808EDFFF7EAFF23
:4069000034BF012000205DF808FB00BF4DF808EDFFF7E0FF94BF012000205DF808FB00BF4DF808EDFFF7CEFF94BF012000205DF808FB00BF4DF808EDFFF7C4FF34BF0120A3
:4069400000205DF808FB00BF4FEA410212F5001215D211D56FF47873B3EB625212D94FEAC12343F0004343EA505311F0004F23FA02F018BF404270474FF00000704750EAF1
:40698000013005D111F0004008BF6FF0004070474FF00000704700BF4A0011D212F5001211D20DD56FF47873B3EB62520ED44FEAC12343F0004343EA505323FA02F0704707
:4069C0004FF00000704750EA013002D14FF0FF3070474FF000007047014B1868704700BF5481FF1F0E4B70B51E460E4C0025E41AA410A54204D056F8253098470135F8E7AE
:406A000002F0F8FC084B094C1E46E41AA4100025A54204D056F8253098470135F8E770BD00940000009400000094000008940000931E222B10B50C4602D90020087010BD61
:406A40000A2A06D1002804DA2D230B704042012100E00021214400F0B5FC204610BDFFF7E7BF10B5431E0A44914204D011F8014B03F8014FF8E710BD03460244934202D023
:406A800003F8011BFAE770472DE9F04788B0149F002B1E461299B8BF03F1004327F02007B6BF1E4600232D23462F1446109DDDF84CA00B7003D0452F03D1013501E003236D
:406AC00000E0022307AA049206AA03928DE828042246334600F040FD472F804602D1119BDB0728D5462F08EB050911D198F80030302B0AD10022002320463146FFF7F2FE66
:406B000018B9C5F10105CAF80050DAF8003099440022002320463146FFF7E4FE08B9302202E0CDF81C9006E0079B994503D9591C07911A70F8E74046079B159AC8EB03032F
:406B4000136008B0BDE8F087034673B50029B8BF494203F8022BB4BF2D222B22092942701ADD0DF1070216460A2591FBF5F405FB1411092C01F1300102F8011D2146F4DC4D
:406B80003031541E02F8011CB4421A460AD214F8012B03F8012BF7E71A463024214402F8024B5970101A02B070BD00002DE9F04F91B00C46DDF8688016461F46054601F0A8
:406BC00063FA03681846099300F0F4FB00230E93D8F800300A90073323F0070303F1080294F81890D4F800B0C8F80020D3E90023C4E91223D4F84CA0D4F848802AF0004347
:406C00000B934FF0FF32A74B40460B9901F090FFA0B94FF0FF32A34B40460B99FFF776FE60B90022002340465146FFF765FE10B12D2384F843309C4B9C4A0AE042465346B3
:406C40004046514601F074FF002800F09281984B984AB9F1470F8CBF90469846032323612BF0040323604FF0000A3DE0B9F1670F00F08A81B9F1470F00F0868123600193C6
:406C8000636800210DF13302059002920093424653460691CDF81090CDF80CE02846FFF7F3FE09F0DF03472B804600F08481B9F1650F0D9900F28D8101394A4604F15000FB
:406CC0000D91FFF741FF0E9A82468318012A236100F37C812268D10700F178819DF8333013B12D2384F84330009733460FAA2146284600F09FF9013002D14FF0FF3096E1C0
:406D000023685A0501D4236965E0B9F1650F40F2D580D4E9120100220023FFF7E3FD78B30123654A31462846B8470130E5D00E9B0D9A9A420BDB2368D80708D423689B07E6
:406D400040F111814FF0000804F1190906E10A9B099A31462846B8470130CED04FF0000804F11A090E9B013B9845E7DA01234A4631462846B8470130BFD008F10108F1E7FC
:406D80000D9B002B29DC01234B4A31462846B8470130B2D00D9B23B90E9B13B92368D907CCD50A9B099A31462846B8470130A4D04FF0000904F11A0A0D9B5B42994509DA6E
:406DC0000123524631462846B847013095D009F10109F1E70E9B4246A7E00E9AA36D9A42A8BF1A46002A914606DC4FF0000A29EAE97904F11A0B11E01346314642462846FC
:406E0000B8470130F1D178E701235A4631462846B84701303FF471AF0AF1010AA36DC9EB03029245F0DB08EB03090D9A0E9B9A420FDB2368DA070CD40E9B0D9A9844C9EB23
:406E400008089B1A9845A8BF9846B8F1000F08DC0FE00A9B099A31462846B8470130EBD14BE743464A4631462846B84701303FF444AF4FF0000928EAE87804F11A0A09E045
:406E80000123524631462846B84701303FF435AF09F101090D9A0E9B9B1AC8EB03039945EEDB4BE7FFFFEF7F6E92000072920000769200007A9200007E9200000E9A012AE8
:406EC00001DCDB0738D50123424631462846B84701303FF412AF0A9B099A31462846B84701303FF40AAFD4E9120100220023FFF7F9FC20B14FF0000804F11A090EE00E9B01
:406F000008F10102013B19E001234A4631462846B84701303FF4F1AE08F101080E9B013B9845F1DB534604F1500231462846B84701307FF403AFE0E6424601233146284684
:406F4000B8470130EED1D8E601234A4631462846B84701303FF4D1AE08F10108E3680F9A9B1A9845F0DBE0680F9B9842B8BF18465DE062680EA8531C0DF1340E4BF4806367
:406F80007FF474AE062201E012B90122626075E6002106910DF133018DE80C00236005904246CDF81090CDF80CE0029153462846FFF76AFD80460D9BD81C02DB6268934232
:406FC0001DDDA9F102095FFA89F970E60133236184E6B9F1660F14D10029636807DD216113B92268D2071DD501330B4419E013B92268D00701D5023313E0012311E04FF025
:4070000067090D9B0E9A934205DB22682361D10708D5013305E0002BD4BFC3F102030123134423610D9B4FF0000AA36556E611B0BDE8F08F2DE9F04791461F460A698B6880
:4070400006469342B8BF1346C9F8003091F843200C46DDF8208012B10133C9F800302368990642BFD9F800300233C9F80030256815F0060510D104F1190A07E00123524608
:4070800039463046C04701301AD00135E368D9F800209B1A9D42F1DB94F843302268003318BF012392060FD5E118302081F843005A1C94F845102244023382F8431003E00D
:4070C0004FF0FF30BDE8F08704F1430239463046C0470130F4D02268D9F80050E36802F00602042A08BF5D1B2269A3680CBF25EAE57500259342C4BF9B1AED184FF0000935
:407100001A344D4509D00123224639463046C0470130D5D009F10109F3E70020BDE8F0872DE9F04317460A7E85B06E2A984606460C460C9B01F1430E00F0AE8011D8632A29
:4071400022D009D8002A00F0BB80582A40F0CA8081F84520834955E0642A1ED0692A1CD0C0E0732A00F0B08009D86F2A2ED0702A40F0B8800A6842F020020A603EE0752A4D
:4071800024D0782A3AD0ADE01A6801F14205111D1960136884F84230A8E021681A6811F0800F02D0111D196008E011F0400F02F10401196002D0B2F9003000E01368002B5F
:4071C0003CDA2D225B4284F8432037E021681A6811F0800F02D0111D196007E011F0400F02F10401196001D0138800E01368227E5C496F2A14BF0A2208221BE078225A49D5
:4072000084F845202268186812F0800F00F104051D6003D1550601D5038800E00368D00744BF42F0200222601BB9226822F0200222601022002084F8430001E049490A220C
