:400000000080002011000000A1200000A1200000034A08B51268034B1A6002F061F800BFFA460040BC76004010B5054C237833B9044B13B10448AFF300800123237010BDA3
:400040008881FF1F000000009C7D0000084B10B51BB108490848AFF300800848036803B910BD074B002BFBD0BDE81040184700BF000000008C81FF1F9C7D0000C880FF1F50
:400080000000000038B50C46054602F077FB204602F0ACF9002002F0F1F900241DB924E0DCB2A54221D0204602F0E8F9012002F075F802F0E7FA002002F0FCFA02F0EEFA87
:4000C00002F00EFB02F018FB05F0B4FA0022094B05F040FC084B002205F0A2FD631C0028DED002F031FB204638BD02F02DFB002038BD00BF00004A400000F03F70B50E46BF
:400100000446154602F03AFB304602F06FF9AC4203D32AE0DCB2A54227D9204602F0AEF9012002F03BF802F0ADFA002002F0C2FA02F0B4FA02F0D4FA02F0DEFA05F07AFAA1
:4001400000220F4B05F006FC0E4B002205F05EFD631C0028DED002F0F7FA002002F046F9002002F08BF9601E70BD02F0EDFA002002F03CF9002002F081F9204670BD00BF79
:4001800000004A40000034402DE9F04F904687B00592049102934FF0000A059B52460299444801F021FC4FF0000902F0E7FA029B5FFA89F5012B4FF000064FF000074BD9FE
:4001C000C5F1BC05EDB20A24D8E9000105F05AFD5FFA80FB284602F009F9584602F04EF9012001F0DBFF02F04DFA002002F062FA02F054FA02F074FA02F07EFA05F01AFAFA
:4002000000222D4B05F0A6FB02460B463046394605F0C4F8013C06460F46D5D10022274B3046394605F096FB029B02460193CDF800900B461F4809F1010901F0BDFCB9F1DE
:40024000BD0FB4D10AF1010ABAF1040F08F10808A3D107B0BDE8F08FCDF80C80DDF810800A2418F80AB0284602F0C0F8584602F005F9012001F092FF02F004FA002002F018
:4002800019FA02F00BFA02F02BFA02F035FA05F0D1F90022084B05F05DFB02460B463046394605F07BF8013C06460F46D9D1DDF80C80B3E7A07D000000004A4000002440F7
:4002C000F0B58DB062B601F0F1FF01F0DFFF012001F0D0FF642001F061FF002001F0CAFF642001F05BFF012001F0C4FF642001F055FF00F09FF9002000F06EF902F07CF8F2
:4003000002F032F802F0C0F802F0D6FA03216A4802F0FBFC69496A4802F0F0FB0446694A01AB07CA03C301A91A802046092202F016FD204602F01CFB002002F039FA002047
:4003400002F048FA002002F057FA1521FF20FFF799FE002800F0A180C4B20646DC222046BC21FFF7CBFE0325801BB0FBF5F530468DF8004005F04EF94DA3D3E9002305F076
:40038000BFF90022504B05F0BBF9EDB22C4404F0FF04CDE9040120468DF8014005F04AF943A3D3E9002305F0ABF90022464B05F0A7F92B19DCB2CDE9060120468DF8024098
:4003C00005F038F93AA3D3E9002305F099F900223D4B05F095F92C44E4B2CDE9080120468DF8034005F026F931A3D3E9002305F087F90022344B05F083F9CDE90A0102F073
:40040000BDF9002600270A249DF80350BC2001F0EDFF284602F032F8012001F0BFFE02F031F9002002F046F902F038F902F058F902F062F905F0FEF80022244B05F08AFA7C
:4004400002460B463046394604F0A8FF013C06460F46D9D100221E4B05F07CFA05F0EAFB052590FBF5F505EB8505053502F06CF92146284600F000FA2346284604AA69465E
:40048000FFF782FE02F060F9204601F0AFFF204601F0F4FF00200DB0F0BD0E4B4FF6FF72A021782000F086FAF4E700BFAFF30080FCA9F1D24D621040AC7D0000B47D00004D
:4004C000B87D0000D87D00000000703F00004A4000002440C47D000038B5054602440B44013A013B002042EA054543EA014401F0B5FE2A2001F02CFF01F0A8FE0028FBD1B3
:4005000001F0A4FE0128FBD101F0A8FE002001F091FE280E01F01CFF01F098FE0128FBD1C5F3074001F014FF01F090FE0128FBD1C5F3072001F00CFF01F088FE0128FBD180
:40054000E8B201F005FF01F081FE0128FBD101F071FE002001F082FE2B2001F0F9FE01F075FE0028FBD101F071FE0128FBD101F075FE002001F05EFE200E01F0E9FE01F0EE
:4005800065FE0128FBD1C4F3074001F0E1FE01F05DFE0128FBD1C4F3072001F0D9FE01F055FE0128FBD1E0B201F0D2FE01F04EFE0128FBD101F03EFE002001F04FFE2C2099
:4005C00001F0C6FE01F042FE0028FBD101F03EFE0128FBD138BD00BF0021F8B5F02205464FF4A0730846FFF777FF012001F036FE002001F01FFE2E0A4FF4A077EDB2F02457
:40060000304601F0A5FE01F021FE0128FBD1284601F09EFE01F01AFE0128FBD1013CA4B2002CEDD1013FBFB2002FE8D1BDE8F84001F000BE2DE9F8431F4EEF24002001F02E
:400640000DFE204601F084FE01F000FE0028FBD101F0FCFD0128FBD106F10208444696F8019009F07F07BB1C1E44B44214D014F8015B012001F0F2FD284601F069FE01F078
:40068000E5FD0028FBD101F0E1FD0128EDD001F0DDFD0128F7D1E8E719F0800F08EB070605D118F80740002CC8D1BDE8F883782001F074FDF5E700BFE47D0000C1F1EF01E2
:4006C00038B58CB2EF2C24D8C0F59F70013081B2B1F5A07F1DD2154601231A462046FFF7FBFE012001F0BAFD002001F0A3FD280A01F02EFE01F0AAFD0128FBD1E8B201F0C7
:4007000027FE01F0A3FD0128FBD1BDE8384001F091BD38BD2DE9F04FC1EB030AC0EB020BBAF1000FB8BFCAF1000ABBF1000FB8BFCBF1000B87B0DA45914614468846BDF8FE
:40074000402000F39380054651461C4640464D4509DD47462E4698464D463B46B146011B0029B8BF4942AEB2C6EB090080B204B204EBD474434502904FEA640470DD01233B
:4007800003938BB2C6F59F760193130A01360493D3B2B6B20593DA4536DDA6F1500080B2EF281FFA88F720D8C7F59F71013189B2B1F5A07F19D201231A46FFF78DFE012091
:4007C00001F04CFD002001F035FD049801F0C0FD01F03CFD0128FBD1059801F0B9FD01F035FD0128FBD101F025FD019BE41AA3B21CB2002C2CDB01352DB2013EA945B6B20A
:40080000C9DA07B0BDE8F08F1FFA88F7C7F1EF0080B2EF28E9D8B6F5A07FE6D201231A463146FFF759FE012001F018FD002001F001FD049801F08CFD01F008FD0128FBD1F0
:40084000059801F085FD01F001FD0128FBD1CAE7039A1744029A0FFA87F89C1824B2CAE7A945CEDB4FF6FF7303938AE799460D462346594680466AE72DE9F04F87B00D46F7
:40088000814604F0D7FE02460B460020424905F061F805F0CFF94FF6FF740A231946DC22804600941E20FFF735FF1E22C923009410460A21FFF72EFF012D8CBF0C27152709
:4008C000EB075CD4354B22460421E62000F072F82246334BD921032000F06CF8B9F1040F23DD4FF6FF7B1FFA88FA0AF10A04A4B208F10A0605252A462A4903A805F092FE56
:4009000023B21946DC221E20CDF800B0FFF702FF0535314603AB4FF6FF72032000F04AF85444A9454644A4B2E5DA4FF0BD0898FBF7F84FF6FF7A1FFA87F909F11E0407F15B
:400940001E0601252A46184902A805F06BFE22B21046CA230A21CDF800A0FFF7DBFE0135304602AB4FF6FF72042100F023F84C44A845A4B23E44E5DA07B0BDE8F08F224648
:400980000A4B0421E62000F015F82246084BD921032000F00FF8A1E700008E40547E00005C7E00007C7E0000807E0000687E0000707E00002DE9F04F87B001931B780490D6
:4009C0000291002B56D014460646DFF864BC203B3A2B3CD8DFE813F008053B003B003B003B003B003B003B003B003B003B003B003B003B00CF043B00A0049F0541057005BB
:400A000078028C065D06BB064F03FD053B003B003B003B003B003B003B00CE052E0611020B04DC03AD037E0373043A0495074002CE071703DF02A7022307EA065C07D901F9
:400A4000A10131016901F900C10089005100B3B20393039E073636B2B6F59E7F04DD029B049E093B1BB20293019A12F8013F0192002BACD107B0BDE8F08F23211A220123B6
:400A800001E01BF803200132134401399BB2F8D1B2B211460392BDF808200133951E05328F1E1FFA83F813B23FB22DB205931BF80890B9F1000F0DD009EB08065E440BEBB1
:400AC000080A1AF8010F224638442946FFF7F6FD5645F6D10135059B09F101092DB2C844AB421FFA88F8E2D1B3E722211A22012301E01BF803200132134401399BB2F8D1F8
:400B0000B2B211460392BDF808200133951E05328F1E1FFA83F813B23FB22DB205931BF80890B9F1000F0DD009EB08065E440BEB080A1AF8010F224638442946FFF7BEFDE9
:400B40005645F6D10135059B09F101092DB2C844AB421FFA88F8E2D17BE721211A22012301E01BF803200132134401399BB2F8D1B2B211460392BDF808200133951E0532D5
:400B80008F1E1FFA83F813B23FB22DB205931BF80890B9F1000F0DD009EB08065E440BEB080A1AF8010F224638442946FFF786FD5645F6D10135059B09F101092DB2C844C5
:400BC000AB421FFA88F8E2D143E720211A22012301E01BF803200132134401399BB2F8D1B2B211460392BDF808200133951E05328F1E1FFA83F813B23FB22DB205931BF834
:400C00000890B9F1000F0DD009EB08065E440BEB080A1AF8010F224638442946FFF74EFD5645F6D10135059B09F101092DB2C844AB421FFA88F8E2D10BE71E211A22012333
:400C400001E01BF803200132134401399BB2F8D1B2B211460392BDF808200133951E05328F1E1FFA83F813B23FB22DB205931BF80890B9F1000F0DD009EB08065E440BEBEF
:400C8000080A1AF8010F224638442946FFF716FD5645F6D10135059B09F101092DB2C844AB421FFA88F8E2D1D3E61F211A22012301E01BF803200132134401399BB2F8D1FA
:400CC000B2B211460392BDF808200133951E05328F1E1FFA83F813B23FB22DB205931BF80890B9F1000F0DD009EB08065E440BEB080A1AF8010F224638442946FFF7DEFC09
:400D00005645F6D10135059B09F101092DB2C844AB421FFA88F8E2D19BE61D211A22012301E01BF803200132134401399BB2F8D1B2B211460392BDF808200133951E0532F8
:400D40008F1E1FFA83F813B23FB22DB205931BF80890B9F1000F0DD009EB08065E440BEB080A1AF8010F224638442946FFF7A6FC5645F6D10135059B09F101092DB2C844E4
:400D8000AB421FFA88F8E2D163E61C211A22012301E01BF803200132134401399BB2F8D1B2B211460392BDF808200133951E05328F1E1FFA83F813B23FB22DB205931BF857
:400DC0000890B9F1000F0DD009EB08065E440BEB080A1AF8010F224638442946FFF76EFC5645F6D10135059B09F101092DB2C844AB421FFA88F8E2D12BE6B3B21A46039378
:400E0000BDF80830971E9D1E05331BB23FB22DB205934FF003094FF49078B9F1000F0DD009EB08065E440BEB080A1AF8010F224638442946FFF742FC5645F6D10135059B2F
:400E400009F101092DB2C8449D421FFA88F83FF400AE1BF80890E0E714211A22012301E01BF803200132134401399BB2F8D1B2B211460392BDF808200133951E05328F1E3A
:400E80001FFA83F813B23FB22DB205931BF80890B9F1000F0DD009EB08065E440BEB080A1AF8010F224638442946FFF707FC5645F6D10135059B09F101092DB2C844AB4202
:400EC0001FFA88F8E2D1C4E5B3B21A460393BDF80830971E9D1E05331BB23FB22DB205934FF001094FF05F08B9F1000F0DD009EB08065E440BEB080A1AF8010F22463844A1
:400F00002946FFF7DBFBB245F6D10135059B09F101092DB2C844AB421FFA88F83FF499AD1BF80890E0E718211A22012301E01BF803200132134401399BB2F8D1B2B211463D
:400F40000392BDF808200133951E05328F1E1FFA83F813B23FB22DB205931BF80890B9F1000F0DD009EB08065E440BEB080A1AF8010F224638442946FFF7A0FB5645F6D11E
:400F80000135059B09F101092DB2C844AB421FFA88F8E2D15DE517211A22012301E01BF803200132134401399BB2F8D1B2B211460392BDF808200133951E05328F1E1FFA57
:400FC00083F813B23FB22DB205931BF80890B9F1000F0DD009EB08065E440BEB080A1AF8010F224638442946FFF768FB5645F6D10135059B09F101092DB2C844AB421FFA61
:4010000088F8E2D125E516211A22012301E01BF803200132134401399BB2F8D1B2B211460392BDF808200133951E05328F1E1FFA83F813B23FB22DB205931BF80890B9F1DD
:40104000000F0DD009EB08065E440BEB080A1AF8010F224638442946FFF730FB5645F6D10135059B09F101092DB2C844AB421FFA88F8E2D1EDE4B3B21A460393BDF80830C9
:40108000971E9D1E05331BB23FB22DB205934FF003094FF0BA08B9F1000F0DD009EB08065E440BEB080A1AF8010F224638442946FFF704FB5645F6D10135059B09F101091F
:4010C0002DB2C844AB421FFA88F83FF4C2AC1BF80890E0E7B3B21A460393BDF80830971E9D1E05331BB23FB22DB205934FF003094FF4BF78B9F1000F0DD009EB08065E4448
:401100000BEB080A1AF8010F224638442946FFF7D5FA5645F6D10135059B09F101092DB2C844AB421FFA88F83FF493AC1BF80890E0E7B3B21A4640F269180393BDF80830E1
:40114000971E9D1E05331BB23FB22DB205934FF00109B9F1000F0DD009EB08065E440BEB080A1AF8010F224638442946FFF7A6FAB245F6D10135059B09F101092DB2C84479
:40118000AB421FFA88F83FF464AC1BF80890E0E7B3B21A4640F24F180393BDF80830971E9D1E05331BB23FB22DB205934FF00509B9F1000F0DD009EB08065E440BEB080AA7
:4011C0001AF8010F224638442946FFF777FA5645F6D10135059B09F101092DB2C844AB421FFA88F83FF435AC1BF80890E0E7B3B21A4640F235180393BDF80830971E9D1EA9
:4012000005331BB23FB22DB205934FF00409B9F1000F0DD009EB08065E440BEB080A1AF8010F224638442946FFF748FA5645F6D10135059B09F101092DB2C8449D421FFAE7
:4012400088F83FF406AC1BF80890E0E712211A22012301E01BF803200132134401399BB2F8D1B2B211460392BDF808200133951E05328F1E1FFA83F813B23FB22DB205935A
:401280001BF80890B9F1000F0DD009EB08065E440BEB080A1AF8010F224638442946FFF70DFA5645F6D10135059B09F101092DB2C844AB421FFA88F8E2D1FFF7CABBB3B28F
:4012C0001A4640F297180393BDF80830971E9D1E05331BB23FB22DB205931BF80890B9F1000F0DD009EB08065E440BEB080A1AF8010F224638442946FFF7E0F95645F6D1BA
:401300000135059B09F101092DB2C844AB421FFA88F8E2D1FFF79DBBB3B21A460393BDF80830971E9D1E05331BB23FB22DB205934FF003094FF00208B9F1000F0DD009EB1E
:4013400008065E440BEB080A1AF8010F224638442946FFF7B3F95645F6D10135059B09F101092DB2C844AB421FFA88F83FF471AB1BF80890E0E724211A22012301E01BF897
:4013800003200132134401399BB2F8D1B2B211460392BDF808200133951E05328F1E1FFA83F813B23FB22DB205931BF80890B9F1000F0DD009EB08065E440BEB080A1AF878
:4013C000010F224638442946FFF778F95645F6D10135059B09F101092DB2C8449D421FFA88F8E2D1FFF735BB25211A22012301E01BF803200132134401399BB2F8D1B2B2F0
:4014000011460392BDF808200133951E05328F1E1FFA83F813B23FB22DB205931BF80890B9F1000F0DD009EB08065E440BEB080A1AF8010F224638442946FFF73FF956452C
:40144000F6D10135059B09F101092DB2C8449D421FFA88F8E2D1FFF7FCBAB3B21A460393BDF80830971E9D1E05331BB23FB22DB205934FF005094FF03108B9F1000F0DD089
:4014800009EB08065E440BEB080A1AF8010F224638442946FFF712F9B245F6D10135059B09F101092DB2C844AB421FFA88F83FF4D0AA1BF80890E0E7B3B21A460393BDF8D2
:4014C0000830971E9D1E05331BB23FB22DB205934FF003094FF04908B9F1000F0DD009EB08065E440BEB080A1AF8010F224638442946FFF7E3F85645F6D10135059B09F142
:4015000001092DB2C844AB421FFA88F83FF4A1AA1BF80890E0E7B3B21A460393BDF80830971E9D1E05331BB23FB22DB205934FF005094FF01D08B9F1000F0DD009EB0806D2
:401540005E440BEB080A1AF8010F224638442946FFF7B4F85645F6D10135059B09F101092DB2C844AB421FFA88F83FF472AA1BF80890E0E7B3B21A460393BDF80830971E3F
:401580009D1E05331BB23FB22DB205934FF002094FF0EA08B9F1000F0DD009EB08065E440BEB080A1AF8010F224638442946FFF785F8B245F6D10135059B09F101092DB2E7
:4015C000C844AB421FFA88F83FF443AA1BF80890E0E7B3B21A460393BDF80830971E9D1E05331BB23FB22DB205934FF002094FF0D308B9F1000F0DD009EB08065E440BEB0E
:40160000080A1AF8010F224638442946FFF756F8B245F6D10135059B09F101092DB2C844AB421FFA88F83FF414AA1BF80890E0E7847E0000B3B21A460393BDF80830971E74
:401640009D1E05331BB23FB22DB205934FF004094FF48278B9F1000F0DD009EB08065E440BEB080A1AF8010F224638442946FFF725F85645F6D10135059B09F101092DB2D4
:40168000C844AB421FFA88F83FF4E3A91BF80890E0E7B3B21A460393BDF80830971E9D1E05331BB23FB22DB205934FF003094FF08F08B9F1000F0DD009EB08065E440BEBF1
:4016C000080A1AF8010F224638442946FEF7F6FF5645F6D10135059B09F101092DB2C844AB421FFA88F83FF4B4A91BF80890E0E7B3B21A460393BDF80830971E9D1E0533DA
:401700001BB23FB22DB205934FF003094FF07608B9F1000F0DD009EB08065E440BEB080A1AF8010F224638442946FEF7C7FF5645F6D10135059B09F101092DB2C844AB42E6
:401740001FFA88F83FF485A91BF80890E0E7B3B21A460393BDF80830971E9D1E05331BB23FB22DB205934FF001094FF0A608B9F1000F0DD009EB08065E440BEB080A1AF84E
:40178000010F224638442946FEF798FF5645F6D10135059B09F101092DB2C844AB421FFA88F83FF456A91BF80890E0E71A210A46012301E01BF803200132134401399BB212
:4017C000F8D1B2B211460392BDF808200133951E05328F1E1FFA83F813B23FB22DB205931BF80890B9F1000F0DD009EB08065E440BEB080A1AF8010F224638442946FEF710
:401800005DFF5645F6D10135059B09F101092DB2C844AB421FFA88F8E2D1FFF71AB919211A22012301E01BF803200132134401399BB2F8D1B2B211460392BDF80820013337
:40184000951E05328F1E1FFA83F813B23FB22DB205931BF80890B9F1000F0DD009EB08065E440BEB080A1AF8010F224638442946FEF724FF5645F6D10135059B09F101095A
:401880002DB2C844AB421FFA88F8E2D1FFF7E1B81B211A22012301E01BF803200132134401399BB2F8D1B2B211460392BDF808200133951E05328F1E1FFA83F813B23FB2A6
:4018C0002DB205931BF80890B9F1000F0DD009EB08065E440BEB080A1AF8010F224638442946FEF7EBFE5645F6D10135059B09F101092DB2C844AB421FFA88F8E2D1FFF7DB
:40190000A8B813211A22012301E01BF803200132134401399BB2F8D1B2B211460392BDF808200133951E05328F1E1FFA83F813B23FB22DB205931BF80890B9F1000F0DD0C8
:4019400009EB08065E440BEB080A1AF8010F224638442946FEF7B2FE5645F6D10135059B09F101092DB2C844AB421FFA88F8E2D1FFF76FB815211A22012301E01BF8032077
:401980000132134401399BB2F8D1B2B211460392BDF808200133951E05328F1E1FFA83F813B23FB22DB205931BF80890B9F1000F0DD009EB08065E440BEB080A1AF8010F85
:4019C000224638442946FEF779FE5645F6D10135059B09F101092DB2C844AB421FFA88F8E2D1FFF736B800BF2DE9F047914696B0634D08AC07460E4698460FCD0FC40FCD4D
:401A00000FC4604A604B12681B686049ADF80820ADF81C30120C1B0C088891F802E08DF80A205B495B4A8DF81E305B4BADF80B008DF80DE00491059206930FCD0FC495E856
:401A4000030044F8040B24F8021B090C2170B9F1000F0FD15149384601F050F8044608A804F004FE08A90246204601F078F9204600F07EFF740806ABA500494938465E1972
:401A800001F03CF88246304604F0F0FD31460246504601F064F9504600F06AFF4049384601F02CF8064601223E4901F058F908EBC908304600F05CFFD8E9002368463A4962
:401AC00004F0B0FD3649384601F018F80646684604F0CCFD69460246304601F040F9304600F046FF2E49384601F008F8064601222E4901F034F9304600F03AFF04EB44048E
:401B000002AB274938461C4400F0F8FF0646204604F0ACFD21460246304601F020F9304600F026FF1E49384600F0E8FF044601221F4901F014F9204600F01AFF04AB1849AC
:401B400038465C1900F0DAFF0546204604F08EFD21460246284601F002F9284600F008FF38460F4900F0CAFF044601220F4901F0F6F8204600F0FCFE16B0BDE8F08700BFE7
:401B8000F081000028820000D88100002C820000566473005663650056677300B47D0000D4810000DC810000E0810000E8810000EC810000000000002DE9F04385B09DF85B
:401BC000341004460129904699469DF8300057D903F030FD0022364B03F092FD32A3D3E9002303F08DFD0022324B03F089FD06460F464B46424601A82F4904F013FD2F499E
:401C0000204600F07BFF054601A804F02FFD01A90246284601F0A3F8284600F0A9FE2749204600F06BFF05460122254901F097F8284600F09DFE3B46324601A8214904F04A
:401C4000F1FC1E49204600F059FF054601A804F00DFD01A90246284601F081F8284600F087FE2046154900F049FF04460122164901F075F8204600F07BFE05B0BDE8F08301
:401C800003F0D8FC00220A4B03F03AFD06A3D3E9002303F035FD00220C4B03F031FD06460F46A6E7AFF30080FCA9F1D24D6210400000703F0000104030820000D4810000B8
:401CC000EC81000034820000E881000000000840012807D8044B53F8202018441178037A0B431370704700BF38820000012808D8044B53F820201844017A137823EA010375
:401D00001370704738820000012808D8044B03EB8002D26818441178037D0B431370704738820000012809D8054B03EB8002D2681844017D137823EA01031370704700BF93
:401D400038820000012818D830B40C4B4000C0B203EB800294691A1801302578C0B292F8282003EB80012A438969227018440A7890F8283013430B7030BC704738820000A6
:401D800001281AD830B40D4B4000C0B203EB8002946919180130227891F82850C0B203EB800122EA050289692270184490F828200B7823EA02030B7030BC7047388200009F
:401DC0002DE9F04172B6924A924D1378A5F12C0643F004031370002404EB440306EB4303AA88D86A0134002103F0A3FF0A2C05F10605F1D180228849884803F08FFF80225A
:401E00008749884803F08AFF874E884F002556F8043F13F0FF0E23F0FF0413D005F110530EF1FF3E03F137005FFA8EFE7044363340005B001A785978023383421155F9D131
:401E400001357544BE42E2D1794941F251260B78784A43F002030B701378774843F0020313700278A1F5863142F04002027041390A78724C42F01002714B0A7003CB714AED
:401E80002060616003CB704DC4F8C000C4F8C41003CB106051602A786C4F03CBDFF8ECC13860796042F0080203CB694F2A70DFF8E0E12063612267486163A5F29E258CF8F0
:401EC00000200021582239808EF800202980027002211868A4F6027487F880124FF04025082203215C4B2A7021701B785B49DBB287F821365A4BA5F8222226841C7808605F
:401F00004FF4F0701D4604F0010400F089FC182601E0032C0DD02B784FF4F07003F0010343EA440400F07CFC013E04F00304F0D1FEE74C4B4C4F4D4DDFF858C14C484FF475
:401F4000807407211C80002219704FF0480E4949022604248CF8002087F800E01A702E7004700B78444A43F003030B701378324C43F001031370237800F5F720012200F2A4
:401F8000F97043F080034FF0810E3C4923703C4E85F8FFE702700B7835783A4997F8F186DBB2A0F5F420A0F2967003F0070EEDB21B0980F800E05FFA88F80B7045F0030384
:401FC0003370DFF8D4E048F0030387F8F136802380F893308EF800202B4A4FF0100E81F829E2202180F8B2320A20117000F0FAF894E80F00DFF8A4E087F8F1861034442740
:4020000035708EF8007007C42380BDE8F08100BFE84600406482000014040048000201409404004880040140FCFFFF47680000480350014013500140A04300400251004047
:4020400014050048F2510040224300401251004080400040864000400801004900410040254200400440004008400040014000400B400040A2430040A1430040CF0100493A
:40208000F84600406F580040235B00400048004082400040064000408B5A00407658004008B503F00FFE03680C2B00D0FEE7FEE7094908B50A68094B1044C31AB3F5805F14
:4020C00002DC0860104608BD03F0FCFD0C234FF0FF320360104608BDCC80FF1F7092FF1F80B5134FF7B1134E002556F80C0C56F8084C56F8102C03463CB1043A52F8041FB4
:4021000043F8041B191AA142F8D156F8040C1A4620B142F8045BD11A8842FAD1013F06F11006E2D103F0D4FDFEF7CAF8FEE700BF01000000608500000E4B0F4A0F491A6035
:402140000B680F4A43F400730E480B600023032B94BF50F823100C490133302B42F8041FF5D10A4B0A4918780A4A0B4B08701A60FFF726BE0CED00E00004FA0514ED00E097
:40218000FC7FFF1F00000000A1200000BC760040C080FF1F0080FF1F08ED00E0B0F5004F70B506461AD904460D4DA4F50044686800F036FBB4F5004FF7D8A6F50043013BD7
:4021C00023F4FF4323F07F03A6F50046F61AA86800FB06F0BDE8704000F022BB004DF6E7D080FF1F024B1B7800FB03F000F018BBD080FF1F064B1F281A6800D901BE00F0A4
:402200001F0000F1100352F8230042F82310704708ED00E0072900D901BE1F2800D901BE00F01F0000F16040490100F56440C9B201707047044A4000137800F0020003F04A
:40224000FD0318431070704700510040024B1878C0F34000704700BF01510040044A00F00100137803F0FE0318431070704700BF00510040044A4001137800F0200003F0A6
:40228000DF03184310707047F05100400549064A0B7843F002030B70137843F002031370704700BFA2430040B243004070B51E4C2378A3B11D4C00F0BBFA23781C4943F080
:4022C000200323700B781B4A43F010030B70137843F010031370BDE8704000F0ADBA164B0F21164A19701378990604D514490B7813789B06FBD400F09BFA0C4B114E1A785A
:402300000E4D42F001021A701A7802F0FE021A7000F092FA0C480D490023012236782D7803700B702270C5E7A481FF1F956400409464004092640040856400406264004071
:4023400055640040646400408464004082640040034A13785B07FCD5024B1870704700BF646400404564004010B419490A78FAB9184B19481A7002701A78184C02F0F302CF
:402380001A701A78012042F004021A701A78C2F3810202F19242063292F83021D2B222701A7802F0FD021A701A78D2B21A7008700B490C4A0B780C4843F002030B70137880
:4023C000642143F002031370017010BC704700BFA581FF1F245800402558004009460040A8430040B8430040815B0040014B1870704700BF815B004010B419490A78FAB95B
:40240000184B19481A7002701A78184C02F0F3021A701A78012042F004021A701A78C2F3810202F19242063292F83821D2B222701A7802F0FD021A701A78D2B21A70087019
:402440000B490C4A0B780C4843F008030B701378642143F008031370017010BC704700BFA681FF1F2C5800402D5800400B460040A8430040B8430040835B0040014B1870E7
:40248000704700BF835B0040F8B5334D2C78F4B9102000F083F907212046FFF7BBFE2F492046FFF7A7FE44F620602D4A2D4E13782D4F43F006031370C22333702B492C4AD4
:4024C0002C4B01263C802E70086014801C8000F0AFF9294A04461378284943F0010313700B78274843F001030B70037801F5AA5143F0010303709379083143F00103937107
:402500000A7800F5AB501F4B0530182542F003020A7005701A781C4E42F040021A701A78A0F5975002F0FC021238CE2702251A703770057091F824320A2043F0080381F863
:402540002432FFF74FFE114B012220461A60BDE8F84000F071B900BFA781FF1F452700000159004002590040D891FF1FDC91FF1FDA91FF1FE091FF1FAB430040BB43004030
:40258000A1430040055900400059004080E200E0F8B500F04DF9214A04461378204943F0010313700B781F4843F001030B70037801F5AA5143F0010303709379083143F00E
:4025C000010393710A7800F5AB50174B0530182542F003020A7005701A78144E42F040021A701A78A0F5975002F0FC021238CE2702251A703770057091F824320A2043F02F
:40260000080381F82432FFF7EDFD094B012220461A60BDE8F84000F00FB900BFAB430040BB430040A1430040055900400059004080E200E010B500F0FBF80F490F4A0B7850
:402640000F4C03F0FE030B701378A1F5AA5103F0FE03137023781F3903F0FE0323700B7803F0FE030B70937903F0FE039371BDE8104000F0E1B800BF00590040AB43004089
:40268000BB430040044B1A7802F0FB021A701A7842F001021A70704700590040044B1A7802F0FE021A701A7842F004021A7070470059004008B550B9084A1378DB07FCD58A
:4026C0000120FFF78FFD054B01201B7808BD034B1B78DA07F4D4002008BD00BF01590040034A044B1B881088181A00B2704700BFDA91FF1FA05B00400F4A13881BB2C3B17C
:40270000128812B202EB8202520042F210730B490988401A00B203FB00F3002802EBD2704FEA6000D8BF4042184490FBF2F000B27047034B1A68E8E7D891FF1FE091FF1FEF
:40274000DC91FF1F704700BF094B1B7813F001030AD0084A084B127812F0010F14BF032201221A70FFF766BF034A1370704700BFAB43004000590040A881FF1F10B5064C24
:40278000237803B910BDFFF703FF23789B07F9D5BDE81040FFF776BFA881FF1F034A00F0F800137818431070704700BF0241004038B505460020FFF799FA054C0120FFF7AE
:4027C00095FAFF2328462370FFF782FA257038BDE080FF1F38B505460020FFF7A3FA054C0120FFF79FFAFF2328462370FFF78CFA257038BDE180FF1F38B505460020FFF7CB
:40280000BFFA054C0120FFF7BBFAFF2328462370FFF798FA257038BDE280FF1F000000000230800803D000BF01380046FCD17047EFF3108072B6704780F31088704700BFEC
:40284000094B10B5D8689A68002308E0114652F8084B1CB901230B60486810BD01338342F4D3002010BD00BFE491FF1F084B30B50022DC689B6808E05D681946083385426F
:4028800002D100230B6030BD0132A242F4D330BDE491FF1F01230373704700230373704710B1002282720260704718B1027B0AB1013A02737047000038B501F02BFD20B39A
:4028C000124C4200E260000101F018FD238AA060E068584301F012FDA568E168228A002304E005EBC3046060013380188B42F8D3102001F003FD054C6061282001F0FEFC15
:40290000A37CA06143F00203A37438BDE491FF1F38B510220D460021044601F021FCFFF78FFF08B9013038BDA0604FF0FF33002065602360A07338BD38B5837A044643B141
:40294000056801F0F7FA2846FFF7AFFF2046FFF7A7FF002038BD08B50368827A03B19B6822B11BB1FFF7E8FF002008BD012008BD08B901307047FFF7EEBF000038B5104B29
:402980009C69217B59B921606160A16004F11000142201F0E5FB237B013323730DE0656A45B9282001F094FC606218B12946282201F0D6FB646A002CE3D1204638BD00BF5C
:4029C000E491FF1F38B50E4B5C69A17AE56839B92046102201F0C4FB0123A372E5600CE045B9102001F074FCE06018B12946102201F0B6FBE468002CE7D1204638BD00BF08
:402A0000E491FF1F2DE9F74F06460020884691469B469DF830A09DF83470FFF7AFFF054608B9044610E0FFF7CDFF044660B180F80B900560AE604046214652463B46CDF8BF
:402A400000B001F0ABF830B12046FFF729FF2846FFF72BFF00242046BDE8FE8F2DE9FF410C461F4604A9002341F8043D15469DF8286000F0A5F88046B8B1039B0BB11B78EB
:402A80009BB1404600F025F900280EDD14F0150F01D0032809D1039939B1404622462B4600970196FFF7AEFF00E0002004B0BDE8F08100002DE9F3410646884600240E4DC2
:402AC000404655F83410E70001F080FB10B9002C04DA0DE001340F2CF1D109E07D19A87929790090EA796B793046FFF7B7FF00E00020BDE8FC8100BFA0820000FFF7DABFAD
:402B000010B5437B04460BB1012010BD40682168A268A37B01F0C5FC10B10120607310BD207310BD10B5437B044663B9037B53B140682168A268A37B01F0B3FC08B10123F0
:402B400063730023237310BD036870B5994204460D46164607D0037B0BB1FFF7E3FF00232560A673E37370BDFFF7DCBF10B50446FFF7D8FFA068BDE81040FFF777BE0123AF
:402B80000373FFF7CFBF10B50446407B08B1012010BDE37B5BB960682168A268A37B01F01AFC10B10120607310BD0122E27310BD08B5436813B94FF0FF3008BD984708BDE6
:402BC0002DE9F0470F463A21064601F02EFB044610B93446174D27E00378C6EB000A5BB114F8013F43B162783A2A05D1A3F130085FFA88F8023401E04FF000080D4D2B68F4
:402C000028791B689847814601F0EDFA504508D148463146524601F0EEFA10B92B79434502D0AD6D002DEAD107B13C602846BDE8F08700BF0092FF1FF8B5174C064694F810
:402C40005710A56D69B95C220127204601F088FA84F85770A5653046FFF7AAFF00280EDA18E045B95C2001F033FBA06518B129465C2201F075FAA46D002CE0D10AE0074BF2
:402C800026609A6F01329A670323207184F8577084F856302046F8BD0092FF1FE491FF1FFFF7CABF38B504460D4601F062FB08B9013838BD204601F06FFB204601F008FD94
:402CC000204600F0D5FC08B184F8555094F8550038BD90F8553023B990F8561009B1FFF7E1BF1846704710B590F8552004463AB931B1FFF7D7FF002802DC4FF0FF3010BDD3
:402D000094F8550010BDFFF7EEBF10B50C460021FFF756FF08B9013810BD2146BDE81040FFF7F1BF30B51346BAB1B0B10268857A0AB1946804B900247DB172B16CB1C27A41
:402D400012F0100204D14FF6FA730381104630BD1A46BDE8304001F00FB9002030BDFFF7E1BF0C2802D0102805D102E001EB510070474800704788007047036840689B68E2
:402D80005B6AB0FBF3F0704710B5C46C436CE4B199421AD3E318994217D2013B99420CBF4FF0FF31013172B190F836300C2B02D0102B05D102E00905090D03E089B201E096
:402DC00021F070411160012010BD002010BD40F6F473984201D80C2070474FF6F473984294BF102020207047027F8368023902FB01307047431EDBB21F2B13D92F2811D0AA
:402E000007D826280ED002D8222809D10AE02A3804E03A2804D33F2804D95B38022801D90120704700207047034638B30B2A01DD0B2200E0013A00201CE0082809D191F858
:402E400008C0BCF1200F0DD04FF02E0C03F801CB08E038B991F800C0BCF1050F02D1ACF1200C04E011F800C0BCF1200F01D003F801CB01309042E0DB00221A7070472DE9BA
:402E8000F04788B005AE04460D463046114600229A469DF84490BDF84C80BDF8507000F0BDFC08B1002413E020462946524600F0AEFD044660B1129B31460093109A4B4657
:402EC000CDF80480029700F065FF2846FFF7E2FC204608B0BDE8F08710B59DF80C400394BDE8104000F078BD2DE9F04F144E87B0109DDDF848809DF84440376800950194AF
:402F0000CDF8088005937F68934682468946B84732680C4BDDF814C09A420DD060B9504649465A46634610951194CDF8488007B0BDE8F04FFFF7D0BF07B0BDE8F08F00BFEB
:402F4000E480FF1F4883000070B5C37A04460B7010300D4601F098F9064604F10E0001F093F940EA0640686004F1120001F08CF90004A86004F1180001F086F9064604F17D
:402F8000160001F081F940EA0640E86004F11C0001F061F9286170BD2DE9F845038A04460E46924687692BB907F118002146626900F004FC38465146224600F087FC05462F
:402FC000204600F005FCD5B12B78C3B1E52BF1D095F80B80B8F10F0FECD018F00808E9D170692946B269FFF71FFF28463146FFF7ABFF238A404601332382BDE8F8854FF036
:40300000FF30BDE8F8850222FFF79EBD2DE9F74F04460D461E461746002A00F09B8090F836001146FFF79DFEB4F81EA0A36A20FA0AFA9A45814680F08D80638E04F1180877
:403040009A44284651464246FFF7DDFF2846FFF79AFD6B7B002B7DD1A38B013B09EA0309AB681FFA89F909EB030B26B9226C974203D2276401E07A1C226494F83620102AE1
:403080000AD0202A11D1584601F0E5F831460746584601F0EBF84EE0584601F0F5F8B1B20746584601F0ECF845E028460193FFF7F1FB019B17F0010F19F803701CD007F078
:4030C0000F0242EA061209F80320A38B013B994502D00BF1010309E028460AF101014246FFF791FF2846FFF74EFDAB681A78120142EA171732091DE009F80360A38B013B14
:40310000994502D00BF1010309E028460AF101014246FFF778FF2846FFF735FDAB681A7802F00F0147EA0127310A22F00F0201F00F010A431A702846FFF7ACFBE36BB3F1CD
:40314000FF3F09D00FB10133E3632EB1E36B013BE36301E0012000E00020BDE8FE8F6FF07043FFF753BF70B5C36C04460E4693B1002506E0AA1820463146531CFFF746FF77
:403180000135E36C626C013B9D42F3D320463146AA18FFF7E4FF00236364E364A364236570BD70B506460D461C460AB1FFF72EFF304629462246BDE87040FFF7D0BF2DE935
:4031C000F04790F8366005460C46304611469146FFF7C7FDB5F81E80AB6A20FA08F89845824602D30020BDE8F0876B8E05F118079844204641463A46FFF705FF2046FFF7A2
:40320000C2FC18B14FF0FF30BDE8F087AA8BA168013A0AEA020A1FFA8AFA92450AEB01031AF8015001D0013309E0204608F101013A46FFF7E8FE2046FFF7A5FCA3681878F1
:403240000C2E45EA002009D0202E0FD15D7840EA05409D7840EA0560BDE8F08719F0010F02D00009BDE8F0870005000DBDE8F0872DE9F34190F83630144603FB02F7828BE6
:403280008846D200511E0F40D71B0546B7FBF3F7002618E00E4B93F87C30022B05D12846214601AAFFF770FD28B9284641462246FFF785FF0190019B0134A34205D1013637
:4032C000B6B2013F1C46002FE4DC3046BDE8FC81E491FF1F2DE9F34105460E46144698461F681CE0114B93F87C30022B05D12846214601AAFFF748FD28B928463146224687
:40330000FFF75DFF0190737B0BB100240BE0AA6B019B0132934204D81BB1013F1C46002FE0D1C8F800702046BDE8FC81E491FF1F73B504680E4623681BB9FFF71EFD01303A
:4033400039E0FFF71AFD236998423CBF4FF0FF3323612369B3F1FF3F04D12268013323616261E3832169E28B451A954234BF2B4613463BB16069C918C018D21A606121619C
:40338000E283ED1A0DB9284615E002AB43F8045D31466269A068FFF79DFF6061019B21690246C91A4D19256123B9A0683146FFF75FFFE08301987CBD13B502AC44F8043D7E
:4033C0002346FFF787FF019B002B18BF00201CBD2DE9F0410746884615461E460024384641462A460123FFF7E7FF30B1BA6B0134944201D80546F2E7002406B134602846AC
:40340000BDE8F0812DE9F84504460E4615461F46002B36D01C4B93F87C30022B31D190F8368011464046FFF79CFCB4F81CA00AF1FF3A2AEA000A4FEACA0ABAFBF8FAAA44C2
:40344000A8460EE0204631464246FFF7B8FE50B9636C0BB9C4F84480A36C08F101080133A364D045EED9A36C5BB127653B685A6922B1204631462B46FFF7C8FDE36C0133AF
:40348000E364BDE8F88500BFE491FF1F2DE9F8459846274B054693F87C300F46022B1646846B19D1036D984503D0836C0BB1FFF75AFEB8F1000F0FD02B6D43450CD1EB6C71
:4034C000AA6C9A4204D96C6C1C190133EB642CE028463946FFF747FE012E04F1010A01D9564505D92E6C012E01D9564500D902263446284639462246FFF761FE50B101341E
:403500005445F6D902240DE0284639462246FFF756FE30B92846394622464346FFF772FF03E00134B442EFD300242046BDE8F885E491FF1FF8B507460E461546FFF7A6FFF0
:40354000044628B1384631462A462346FFF729FE2046F8BDB2F1FF3F73B504460D4614D0561A013611D0FFF7FFFA084B00211A8AA06800F0F5FD022300936068A368294625
:40358000324600F069FF0023E3737CBDE491FF1F2DE9F84F984690F8363004460C2B0D4616465AD04FF0FF3AD1463CE094F836003146FFF7D6FBB4F81CB0678E0BF1FF3B25
:4035C00010EA0B0BE38B1DD1D840013F3F18022228463946FFF7B8FAA38BAA689B0852F80B1079B9013B0BF1040BF8D13BE0494628465246FFF7AEFFB946BB462846FFF7B6
:403600004CF9DA462946324601232046FFF7D4FE29460746324620460023FFF7F7FC2FB108F1FF383E46B8F1000FBFD1284649465246FFF78FFF13E02946324601232046ED
:40364000FFF7BAFE29460746324620460023FFF7DDFC2FB108F1FF383E46B8F1000FEBD14046BDE8F88F0AF1010B5F45BFD1C5E72DE9F8450446FFF7E3F8054608B90446AB
:4036800096E0204600F014FF4B4E338A834208D338B1002120462A460B4600F09CFE002804DA2846FFF7E2F8002481E005F5FF7000F0EAFD4AF65523984275D105F10B0098
:4036C00000F0E2FD10F47E4F07466DD0338A83426AD32B7C022B67D16E7B002E64D000213C2204F1180000F03BFD05F1130000F0CBFD804620B905F1200000F0ACFD804601
:4037000005F1160000F0C0FD824680B905F1280000F0BAFD10F08F0F46D105F1240000F09AFD824605F12C0000F095FDE062022384F83530C4F828A0C4F8188084F8346018
:4037400005F10E0000F0A0FD608605F1110000F09BFD638E94F83520208602FB0A3A7B099BB2B0FBF3F05044A7832062092301229A40BA4201D1E38302E00133102BF6D176
:403780007743C0EB0800B0FBF6F0A0636762FFF71EFB4FF0FF33202884F8360018BFC4F82CA0E363012400E000242846FFF75EF82046BDE8F88500BFE491FF1F00238B6055
:4037C000837F202B01D102B942694A600A60704783680133836070472DE9F0410C46202105461F469DF818604FF0000800F0B8FC10E014F8080036B9E52804D1B8F1000FB1
:4038000001D1E03802E000F009FDC0B205F8080008F10108B845ECDBBDE8F0812DE9F74506460D4608462849002A14BF92464FF0FF3A00F0CBFC804650B9304629460222E7
:4038400000F05DFEB01C2021092200F089FC37E000274FF0FF3415F80780B8F1000F01D0574505D1B4F1FF3F08BF3C4664B925E04046FFF7BFFA08B3B8F12E0F08BF3C46A4
:4038800001370D2FE7D119E0082C17DC3F1B042F14DC30462946082223464FF00008CDF80080FFF799FF0123611C009306F10800691803227B1EFFF78FFF01E04FF001088E
:4038C0004046BDE8FE8500BF588300002DE9F74FD2F808B0436A4FEA4B18B8FBF3F8D368054698450E461446D2F8009001D20023D360B5F81EA0E368AAF1050A0BB9D4F837
:4039000004902BFA0AF7B9F1000F17D095F83420B8EB0303019206D04A4628463146FFF74BFD814640B3494605F11800FFF75CFA019B591E01EA0707C11906E02B8E43FA22
:403940000AF39F4218D2E96A79183046C4F80090C4F80C800122FFF7F7F83046FFF713F950B9013000FA0AFAB3680AF1FF3A0AEA0B0B03EB4B1000E00020BDE8FE8F2DE9EF
:40398000FF4107460E4601A811461A460A9D9DF82C40FFF743FFC8B9384631462A46FFF795FF8046A0B1037883B101A90B2200F0C7FB38B998F80B3004EA0302A24201D1C2
:4039C000082B05D12846FFF703FFE5E74FF00008404604B0BDE8F0812DE9F04587B002AF04460E46154698469DF83CA039460E9A1830FFF7E3FE204631462A4643460097C7
:403A0000CDF804A0FFF7BBFF07B0BDE8F0852DE9F04500F1180785B005460C46384669469246FFF7CBFE284621466A46FFF74EFF06466846E846FFF7CBFE002E37D1BAF11B
:403A4000000F02D12B8E002B35D12146009A00232846FFF7BDFC2146024600232846FFF769FD80462046FFF78AF8B8F1000F22D0AA8B0021A06800F073FB38464146FFF798
:403A8000B3F995F8347000257E1E361808E0314620460122FFF758F82046FFF731F8013E01357B1BB3F1FF3FF1D1A66803E033780BB1E52BB7D1304605B0BDE8F08538B596
:403AC00004461A3000F0E0FB054604F1140000F0DBFB45EA004038BD2DE9F0451D4685B007460E462A6010465C21904600F09DFB4FF0000A0446A04508D108F10108C5F89A
:403B0000008040465C2100F090FB044694B1C8EB0403002B0EDD10220192103A0292384631464246CDF800A0FFF7DEF970B1FFF7C6FF824628685C2100F077FBA046044693
:403B40000028D8D10C9B0130C3F800A005B0BDE8F085F8B505460C461E461746DAB16FF01A0313700846FEF795FE16B94FF47A7608E007F11C0000F06EFB6B6A5E1E361811
:403B8000B6FBF3F63846FFF79AFF2146024633462846FFF7FDFC607BF8BD00002DE9F04FD1F8008093B0D8F808700BAD044608930E464FF0FF333946284609920F939DF8FF
:403BC00070A0FEF7A5FE10AB009338462946224611ABFFF781FFD0B1F27A109B07920FAA00930292002338462946119A0193FFF77BF9044680B1C37A13F0100F07D10D9B24
:403C0000DDF82CB0C3EB00094FEA691906E02846FEF7ACFF0125A3E083468146099B002B3CD0002C33D0524B5D6912E02B687BB1AA7A6AB19A8B4A450AD19A695A4507D1CE
:403C40009B68BB4204D14FF6F772328100257EE0ED68002DEAD10DF12C0C6146384622460123CDF818C0FFF774FFDDF818C018B14FF0FF3333816AE03E4B1B68DC6824B157
:403C800038466146109A0F9BA0472C4606E0BAF1000F03D1089A002A44D065E0089BEBB1CCB1E37A13F0010F0BD0079A12F0150F07D04FF6FA733381BAF1000F01D10125DC
:403CC00000E000252046FFF7FAFE074604F11C0000F0C1FA29E0BAF1000F45D0BAF1010F01D000251BE0ECB900F024FD214B20221B68019282B2000C0392049000940294D1
:403D00009D6838460BA9119A109BA84750B10D9ADDF82CB0C2EB00094FEA6919254628462F4602E00125002007464FF0FF33C8F81030C8F818B0A8F81C90079AC8F80400D0
:403D400012F0010308BF1846C8F800707060B6F908300BA835EA230528BF0125FEF706FF284613B0BDE8F08F01255046DCE700BFE491FF1FE480FF1F70B505460C461A307C
:403D800089B200F07DFA05F11400210CBDE8704000F076BA2DE9F0470446BDF824700D469146002120229A46BDF82860DDF8208000F0D6F90B222046294600F0A0FB04F175
:403DC0000E00394684F80BA000F05AFA04F11000314600F055FA04F11600394600F050FA04F11800314600F04BFA20464946FFF7C3FF04F11C004146BDE8F04700F036BA92
:403E000007B5426803460AB910460AE081680020009048681968DB6800F0FCFA003818BF01200EBD2DE9F047046805460F46A668FFF77EFA81468246002841D0D4F80080F9
:403E4000B8F1000F1BD14246304639462B46FFF71DFB0246D8B11C4B6061C4F8108093F87C302060022B07D030463946FFF777F910B10120BDE8F087B9F1010A20D030462E
:403E8000394662692B46FFF701FB804628B94FF6FE732B810130BDE8F0870B4B93F87C30022B05D03046394662694346FFF779F92369C4F8148001332361BAF1010ADDE7B1
:403EC0000020BDE8F08700BFE491FF1F2DE9F041836804460D4608460122A1699E8BFEF733FE2846B4F81C80AF68FEF74CFEF8B9013E06EA4816B6B2BE1906F11C00616836
:403F000000F0B4F921683046FFF736FF00F012FC0446A1B206F1160000F0B2F906F11800210C00F0ADF92846BDE8F041FEF727BEBDE8F0817FB50668B0F90830B568C3B955
:403F4000C37A13F0110F14D029466846FEF7E0FC30466946FFF7BAFF064B6C4693F87C30022B03D128466946FFF7FDF86846FEF7FDFD7FBDE491FF1F03682DE9F04F9F68C5
:403F8000038995B001339BB2012B04460E46059201D90025CEE0394610AD0CA8FEF7B8FC39462846FEF7B4FC039626680023D6F808909A4609F118010791D9F82420059988
:403FC00006924FF0FF32099308920A950291049320460CA9FFF726FF38B108A8FFF710FF5546002818BF00258FE03269069901324A43B9F81CB063680BF1FF3BD21A0BEA5F
:40400000030B029B0798934228BF134601937169FEF7EAFE99F83430B9F81C206768013BB7FBF2F703EA0707C719B9F81C300199CBEB03058D4228BF0D469D4228D0BBF192
:40404000000F03D1626873689A420FD00DF14008404639460022FEF777FD4046FEF793FD20B14FF6F9725546228154E01298039958442A460DF1400800F041FA4046394661
:404080000022FEF761FD4046FEF73AFD90B141E0099B089A9A1897420AD008A8FFF7B0FE002837D101230993039B08970B9301E001330993029B03995B1B019A0293636852
:4040C0004919521BAA44ED186560736803919D42019207D91BB1194B93F87C300BB9012104917560019A1AB101374FF0000B9CE7029B002B7FF46CAF08A8FFF781FE04993E
:404100005546002818BF002529B1304610A9FFF7DDFE00E05546059A954205D0B4F9083013B94FF6F87323810CA8FEF71FFD10A8FEF71CFD284615B0BDE8F08FE491FF1FA6
:4041400010B5002308E0C45C11F803C0013A0133644501D0012010BD002AF4D1104610BD70B5034602E003F8011C013A1C4622B103F003050133002DF5D193081ED04FF0D8
:4041800001354D4308E044F8105C44F80C5C44F8085C44F8045C043B032BA44604F11004F1DC1C46002603E04CF80650013B0436002BF9D102F003020CEB8404002302E0B1
:4041C000E154013A0133002AFAD170BD002310F803C0CA5C624501D0012070470133002AF5D110467047002300E00133C25C002AFBD11846704710B500230BE0C45C11F808
:4042000003C0644501D0012010BDC4186478013314B1013A002AF1DC002010BDA0F16103192B98BF00F0DF007047C9B203E00BB918467047013003788B42F8D17047427883
:404240000178431C42EA01205A789B7842EA002043EA002070478378C27803EB0222437803EB0222037803EB0220704703460A0A03F8011B42700A0C090E5A7099707047B1
:404280000170090A417070474278037843EA022070470000094A0A4BC11C10B5146821F0030118680919814201D9002010BD11609A685868013220189A6010BD6492FF1F57
:4042C000AC81FF1F08B5FFF7E5FF00B9FEE708BDFFF7E0BF30B1044A9368013B93600BB9024A1360704700BFAC81FF1F6492FF1F014B586019607047AC81FF1F38B505467C
:40430000FFF7E0FF002104462A46FFF729FF204638BD000010B5084CA37C0BB1002010BD4FF40073238200F0F5F9A37C012043F00103A37410BD00BFE491FF1F08B58368E5
:404340000BB10020984708BD08B583680BB10120984708BD10B504680079A468A04710BD37B59DF81850046800790095E468A0473EBD08B5036800799B69984708BD0368E5
:4043800010B55B69044623B10079984708B1002000E00120607110BD10B5437904460BB9FFF7EDFF607910BDF7B504461F460E461546FFF7F1FF2046FFF7C6FF2A46314677
:4043C000012320460097FFF7C5FF05462046FFF7B5FF2846FEBD10B504690919BDE81040FFF7E2BFF7B5044615461F460E46FFF7D3FF2046FFF7A8FF0023009331462B460B
:404400003A462046FFF7ACFF05462046FFF796FF2846FEBD30B504699DF80C5009190395BDE83040FFF7DEBFF7B5044615461F460E46FFF7B1FF2046FFF786FF01230093A3
:4044400031462B463A462046FFF78AFF05462046FFF774FF2846FEBD30B504699DF80C5009190395BDE83040FFF7DEBF73B504460E461546FFF790FF2046FFF765FF00237E
:404480002A460093314601332046FFF769FF05462046FFF753FF002D14BF4FF0FF3000207CBD10B504690919BDE81040FFF7DEBF30B5054685B0FFF76FFF2B6828791C696C
:4044C0004FF47B71002201ABA04708B1002001E0BDF80C0005B030BD70B506460D46FFF75BFF336830791C694FF47B7100222B46A047002814BF4FF0FF30002070BD11F07E
:40450000030F70B584460B4632D110F0030F2FD195100446AC4611E053F8106CACF1040C44F8106C53F80C6C44F80C6C53F8086C44F8086C53F8046C44F8046C1034103342
:40454000BCF1030FE8D8AB081B0100EB030CCB1815F003050AD0284600215C584CF8014004310138F9D1AD00AC445B1902F0030213F0010F19462FD11CF0010F60462BD1F1
:404580005410254610E031F8086C043D20F8086C31F8066C20F8066C31F8046C20F8046C31F8026C20F8026C08300831032DEAD8A108C9005B1814F003048C440AD020460C
:4045C00000215D5A2CF8015002310138F9D16400A4441B1902F00102614610E013F8040C043A01F8040C13F8030C01F8030C13F8020C01F8020C13F8010C01F8010C18460C
:404600000433032A8C4601F10401E7DC32B10023C15C0CF8031001339342F9D170BD0378E92B01D101207047EB2B01D0002070478078902814BF00200120704708B500F52C
:40464000FF70FFF721FE4AF65523984214BF0020012008BD01EB001000F5E370FFF7FBBDF0B50D4685B01446064658B352B300210B46FFF799FE002824DB2046FFF7DEFF17
:4046800000B32046FFF7CBFF10B10024274616E02146FFF7DFFF074604F5E570FFF7DBFD01A904463046FFF717FF5CB157B1E219FF23120AB2FBF3F2029B9A4202D81DB1BE
:4046C0002C6001E04FF0FF37384605B0F0BD000073B50446FFF7ECFE0646FEF7B1F80C4B05461B8AB3420DD366B1204601A92A46FFF7B6FFB0F1FF3F04D02061019B6361CA
:40470000002400E0FF242846FEF7B0F860B27CBDE491FF1F08B505484FF48051FFF7E8FDBDE808400248FEF7BBBA00BFB881FF1FA48300004FF40410704700BF4FF6FF7011
:4047400070470000014B1868704700BFB891FF1F00487047C483000000F0B2BC37B501220DF10701054600F0BFFC9DF80740FF2C14BF0A240724284601220DF1070100F070
:40478000B3FC9DF80700FF2803D1013CE4B2002CF1D13EBD37B50469857828460DF10701012200F0A1FC9DF807300BB1002003E0013CF2D14FF0FF303EBD37B54FF0FF332C
:4047C00005460C468DF8073006E028460DF10701012200F0B1FC013C002CF6DC3EBD000038B5094C2368032B02DD4FF0FF3509E0DDB2013323601420FFF780FD04EB850475
:4048000060608570284638BDB891FF1F08B5034B4FF400711B68984708BD00BFE880FF1F4FEAD20CACEBD103CCF10F0C10B501336044002410F801CB013B4CEA0424F9D17B
:4048400001F00703511A02228A40DC40013A04EA020010BD7FB5130E85788DF80530130C01F03F018DF80630130A41F040018DF8073000238DF808208DF804101A4601A9FB
:4048800011F802C000215B00DBB283EA0C0E1EF0800F18BF83F009030131082904D04FEA4C0C5FFA8CFCEEE70132052AE7D15B0043F001038DF809308678C46801223046FF
:4048C00003A900F011FC9DF80C30FF2B04D00CB9FF2009E0013CF1E7284601A9062200F02BFC2846FFF73AFF04B070BDF7B5847806460F4620460121FFF75FFF204600F00E
:40490000A7FB304609210022FFF7A4FF8DF8070028BBF6680546012220460DF1060100F0E3FB9DF80630FE2B06D0FC2B04D00135ADB2B542EFD112E00DF107052046394614
:40494000102200F0D1FB29462046012200F0CCFB29462046012200F0C7FB002500E0FF25204600F079FB20460121FFF726FF2846FEBD00002DE9F04F9B46494B89B003EB40
:40498000800305925C684A02029103924FF00309029AA578E678039B2846022E08BF13461E4600F059FB01212846FFF706FFBBF1010F0CBF4FF0110A4FF0120A284600F01A
:4049C00047FB204651463246FFF744FF002851D1059F5E46A378E268B44604924FF000081E460FE0012230460DF11F01CDF804C000F07AFB9DF81F20DDF804C0FE2A05D097
:404A000008F10108049B9845ECD333E0284639464FF40072664600F067FB0222284607A900F062FB9DF81C30384601939DF81D80FFF7ECFE4FF6FF729042019B0CD048EAC0
:404A40000328404508D0BAF1120F13D120460C210022FFF7FFFE0DE0013E02D007F50077B8E7BAF1120F07D120460C213246FFF7F1FE01E04FF0FF36284600F0EDFA2846AA
:404A80000121FFF79AFE3EB1B9F1000F02D009F1FF397DE74FF0FF36304609B0BDE8F08FB891FF1F2DE9F04F99464C4B87B0029203EB80039DF840205D68009103926B783E
:404AC000002B40F085804B0201930327009BAC78EE78019A2046022E08BF1A46164600F0BBFA01212046FFF768FEB9F1010F0CBF4FF0180A4FF0190A204600F0A9FA28463A
:404B000051463246FFF7A6FE8DF81700002850D120460121FFF751FE029ECB46B8463046FFF774FE0DF11707BAF1180F0CBFFE23FC2301228DF817308DF81500030A39467F
:404B400020468DF8143000F0F7FA204631464FF4007200F0F1FA0222204605A900F0ECFA01222046394600F0BFFA9DF8173003F01F03052B1CD12846FFF70CFEC0B9039A67
:404B80000AB906F50076BBF1010BC8D1BAF1190F474611D106A96FF00203204601F8013D012200F0C9FA2846FFF7F4FD20B100E047464FF0FF3600E00026204600F04CFAFF
:404BC00020460121FFF7F9FD26B10FB1013F7DE74FF0FF36304607B0BDE8F08FB891FF1F2DE9F04F877887B0044638460D4600F02FFA20463A210022FFF72CFE064638B1E3
:404C0000384600F029FA38460121FFF7D6FD58E00DF1140804224146384600F065FA4046FFF70DFB8046384600F016FA01213846FFF7C3FDB8F1000F28F07F02B8BF4FEA8F
:404C4000987BD2B240F272634FEA1828B8BF0BF0010B1FFA88F8002A14BF1A460022012111EA080F05D10136F6B24900102E89B2F6D140F27260824233460DD064227243BC
:404C800002F5FA6208E011EA080F07D049000133013689B2DBB2F6B20F2EF4D964214B434FF6FE7103F5FA6302EA01014FF6FC72384603EA020200F0F5F910F0FF0F40F05A
:404CC00099804FF0FF3092E028467E217F22FFF7A7FD8246EB78DFF82C8103F0030203F0780308EBD30358F822101B7C3846594389B200F0B7F90646002877D06B7803F0F6
:404D00000702DB1003F00F0308EB82024344126A93F810800292B8F1000F67D0A978284603911C221A21FFF77BFD0190BAF1000F1FD1502153222846FFF772FD4FF001091B
:404D400009FA00F92F2131222846FFF769FD1FFA89F982463E21284649224FEA5929FFF75FFD0AF1020A09FA0AF9013000FB09F910E0BAF1010F01D0012038E02846302173
:404D80004522FFF74DFD4FEA8029BBF1000F01D00223E37008FB06F2029B0399B2FBF3F2642303FB01225A437343D208DB089A4294BFE260E360FA235E43019BF6089A4002
:404DC0000C21B24294BF2261266128460D22FFF727FD0546384600F043F94FF4007128436070A180C4F80890002000E0FF2007B0BDE8F08FE378A778012B3FF465AF4FF0FF
:404E0000000A67E75C830000F0B5857887B004464FF4C871284600F025F9B0F5C87F00F2CC804CF25033E3600026284600F014F90A212846FFF7C1FC624B93E80300019059
:404E40002846ADF8081000F003F9062201A9284600F072F92846FFF781FC0746284600F0FBF801212846FFF7A8FC17F0010F03D10136052ED9D1A0E0284600F0E9F80821F0
:404E800020464FF4D572FFF7E5FC10F0040F52D0284600F0E1F8A5784FF4FA66284600F0D7F8002237212046FFF7D4FC28460121FFF783FC292100222046FFF7CBFC07464B
:404EC000284600F0C9F828460121FFF776FC17B90123E3701EE017F0040F01D1013EDDD14FF4FA66284600F0B3F8012100222046FFF7B0FC0746284600F0AEF828460121A4
:404F0000FFF75BFC0FB9E77004E0012F55D1013EE8D152E001AD20462946FFF7E7FC00284BD120462946FFF75BFEC0B2002844D10123237043E00422A07805A900F0D4F8AC
:404F4000284600F089F89DF81730AA2B35D19DF8163003F00F03012B2FD1A5784FF4FA66284600F075F8002237212046FFF772FC28460121FFF721FC29214FF0804220466C
:404F8000FFF768FC0746284600F066F828460121FFF713FC0FB1013EE2D101AE20463146FFF7A4FC48B90125E57020463146FFF717FEC0B208B9257001E04FF0FF3007B0F3
:404FC000F0BD00BF9C83000010B5084B03EB80035C6823783BB9FFF7BFFB20B12046BDE81040FFF711BF4FF0FF3010BDB891FF1F38B51D46154BA1F57B7103EB80035C689F
:40500000072918D8DFE801F00A17171704041719204600211422FFF7A3F80CE0237833B92046FFF7F1FE10B14FF0FF3038BDA3882B81A3686B60002038BD2046FFF74AF980
:40504000024B00201A68013A1A6038BDB891FF1F00B1002000F090B9012000F08DB900BF00207047B1F5C87F38B50CD21D254FF4C87400F0FFF82846012100F00BF900F065
:40508000E9F8204638BD45F6C053B1F57A6F28BF4FF47A614D00ADB2B3FBF5F5013D0C46ADB2E6E740F6E443994206D840F6E340824294BF0020012070470020704700BFBE
:4050C00010B5084B1A785AB901241C7000F0D2F821463B2000F0DEF800F0BCF800F04EF8022010BDCC91FF1FF8B507460E461546741C77B1FF2000F09BF800F093F8C30774
:40510000FBD500F0A1F8013D264604F8010CEFD1F8BD013D2544FF2000F08AF800F082F8C207FBD500F090F8A542307002D026460134F0E7F8BD00BF70B506460C461546D8
:4051400014F8010B56B100F073F800F06BF8C307FBD500F079F8013DF2D170BD013D254400F066F800F05EF8C207FBD500F06CF8AC4202D014F8010BF2E770BD70B51E4CA4
:405180002378A3B11D4CFDF753FB23781C4943F0200323700B781B4A43F010030B70137843F010031370BDE87040FDF745BB164B0F21164A19701378990604D514490B78C9
:4051C00013789B06FBD4FDF733FB124B124E1A780E4D42F001021A701A7802F0FE021A70FDF72AFB0D480E490023012236782D7803700B702270C5E7CD91FF1F90640040E1
:40520000936400409164004080640040616400405264004092640040636400408364004081640040014B1878704700BF63640040034A13785B07FCD5024B1870704700BFAB
:405240006364004042640040014B1878704700BF526400400549064A0B7843F001030B70137843F001031370704700BFA2430040B24300400549064A0B7803F0FE030B7081
:40528000137803F0FE031370704700BFA2430040B2430040F0B4314D314E2A7833889BB298420BD02F4C02F007022478E4B24AB933B930802B7803F0BF032B70F0BC70477F
:4052C000002843D014F0010422D0274F274D284E00223A7001272F70327015F8082C02F07F0205F8082C96F86E2016072BD41E4A204F154607263B8016702B781A4A13F01C
:405300000103FAD1174E357805F0FE0535701370144B1A78D5070FD56FF4687213441A460029144C14BF03210121208019701378DB07FCD4F0BC7047094A10801A78144390
:405340001C70F0BC70470028E2D1D0E72B7843F040032B703080F0BC704700BF8240004080400040A243004001400040104000401440004002400040044A4000137800F0CF
:40538000020003F0FD031843107070473051004081F0004102E000BF83F0004330B54FEA41044FEA430594EA050F08BF90EA020F1FBF54EA000C55EA020C7FEA645C7FEACD
:4053C000655C00F0E2804FEA5454D4EB5555B8BF6D420CDD2C4480EA020281EA030382EA000083EA010180EA020281EA0303362D88BF30BD11F0004F4FEA01314FF4801C07
:405400004CEA113102D0404261EB410113F0004F4FEA03334CEA133302D0524263EB430394EA050F00F0A780A4F10104D5F1200E0DDB02FA0EFC22FA05F2801841F10001D8
:4054400003FA0EF2801843FA05F359410EE0A5F120050EF1200E012A03FA0EFC28BF4CF0020C43FA05F3C01851EBE37101F0004507D54FF0000EDCF1000C7EEB00006EEBF8
:405480000101B1F5801F1BD3B1F5001F0CD349085FEA30004FEA3C0C04F101044FEA445212F5800F80F09A80BCF1004F08BF5FEA500C50F1000041EB045141EA050130BD97
:4054C0005FEA4C0C404141EB010111F4801FA4F10104E9D191F0000F04BF01460020B1FA81F308BF2033A3F10B03B3F120020CDA0C3208DD02F1140CC2F10C0201FA0CF035
:4055000021FA02F10CE002F11402D8BFC2F1200C01FA02F120FA0CFCDCBF41EA0C019040E41AA2BF01EB0451294330BD6FEA04041F3C1CDA0C340EDC04F11404C4F1200286
:4055400020FA04F001FA02F340EA030021FA04F345EA030130BDC4F10C04C4F1200220FA02F001FA04F340EA0300294630BD21FA04F0294630BD94F0000F83F4801306BFDE
:4055800081F480110134013D4EE77FEA645C18BF7FEA655C29D094EA050F08BF90EA020F05D054EA000C04BF1946104630BD91EA030F1EBF0021002030BD5FEA545C05D14B
:4055C0004000494128BF41F0004130BD14F580043CBF01F5801130BD01F0004545F0FE4141F470014FF0000030BD7FEA645C1ABF194610467FEA655C1CBF0B46024650EA94
:40560000013406BF52EA033591EA030F41F4002130BD00BF90F0000F04BF0021704730B54FF4806404F132044FF000054FF0000150E700BF90F0000F04BF0021704730B583
:405640004FF4806404F1320410F0004548BF40424FF000013EE700BF42004FEAE2014FEA31014FEA02701FBF12F07F4393F07F4F81F06051704792F0000F14BF93F07F4FF1
:40568000704730B54FF4607401F0004521F0004120E700BF50EA010208BF704730B54FF000050AE050EA010208BF704730B511F0004502D5404261EB41014FF4806404F132
:4056C00032045FEA915C3FF4DCAE4FF003025FEADC0C18BF03325FEADC0C18BF033202EBDC02C2F1200300FA03FC20FA02F001FA03FE40EA0E0021FA02F11444C1E600BF1D
:4057000070B54FF0FF0C4CF4E06C1CEA11541DBF1CEA135594EA0C0F95EA0C0F00F0DEF82C4481EA030621EA4C5123EA4C5350EA013518BF52EA033541F4801143F480133D
:4057400038D0A0FB02CE4FF00005E1FB02E506F00042E0FB03E54FF00006E1FB03569CF0000F18BF4EF0010EA4F1FF04B6F5007F64F5407404D25FEA4E0E6D4146EB060646
:4057800042EAC62141EA55514FEAC52040EA5E504FEACE2EB4F1FD0C88BFBCF5E06F1ED8BEF1004F08BF5FEA500E50F1000041EB045170BD06F0004646EA010140EA0200FA
:4057C00081EA0301B4EB5C04C2BFD4EB0C0541EA045170BD41F480114FF0000E013C00F3AB8014F1360FDEBF002001F0004170BDC4F10004203C35DA0C341BDC04F1140401
:40580000C4F1200500FA05F320FA04F001FA05F240EA020001F0004221F0004110EBD37021FA04F642EB06015EEA430E08BF20EAD37070BDC4F10C04C4F1200500FA04F3FA
:4058400020FA05F001FA04F240EA020001F0004110EBD37041F100015EEA430E08BF20EAD37070BDC4F1200500FA05F24EEA020E20FA04F301FA05F243EA020321FA04F028
:4058800001F0004121FA04F220EA020000EBD3705EEA430E08BF20EAD37070BD94F0000F0FD101F00046400041EB010111F4801F08BF013CF7D041EA060195F0000F18BF6D
:4058C000704703F00046520043EB030313F4801F08BF013DF7D043EA0603704794EA0C0F0CEA135518BF95EA0C0F0CD050EA410618BF52EA4306D1D181EA030101F000416F
:405900004FF0000070BD50EA410606BF1046194652EA430619D094EA0C0F02D150EA013613D195EA0C0F05D152EA03361CBF104619460AD181EA030101F0004141F0FE4170
:4059400041F470014FF0000070BD41F0FE4141F4780170BD70B54FF0FF0C4CF4E06C1CEA11541DBF1CEA135594EA0C0F95EA0C0F00F0A7F8A4EB050481EA030E52EA0335D0
:405980004FEA013100F088804FEA03334FF0805545EA131343EA12634FEA022245EA111545EA10654FEA00260EF000419D4208BF964244F1FD0404F5407402D25B084FEA45
:4059C0003202B61A65EB03055B084FEA32024FF480104FF4002CB6EB020E75EB030E22BFB61A754640EA0C005B084FEA3202B6EB020E75EB030E22BFB61A754640EA5C0091
:405A00005B084FEA3202B6EB020E75EB030E22BFB61A754640EA9C005B084FEA3202B6EB020E75EB030E22BFB61A754640EADC0055EA060E18D04FEA051545EA16754FEA5D
:405A400006164FEAC30343EA52734FEAC2025FEA1C1CC0D111F4801F0BD141EA00014FF000004FF0004CB6E711F4801F04BF01430020B4F1FD0C88BFBCF5E06F3FF6AFAEA5
:405A8000B5EB030C04BFB6EB020C5FEA500C50F1000041EB045170BD0EF0004E4EEA113114EB5C04C2BFD4EB0C0541EA045170BD41F480114FF0000E013C90E645EA060E05
:405AC0008DE60CEA135594EA0C0F08BF95EA0C0F3FF43BAF94EA0C0F0AD150EA01347FF434AF95EA0C0F7FF425AF104619462CE795EA0C0F06D152EA03353FF4FDAE1046C3
:405B0000194622E750EA410618BF52EA43067FF4C5AE50EA41047FF40DAF52EA43057FF4EBAE12E74FF0FF3C06E000BF4FF0010C02E000BF4FF0010C4DF804CD4FEA410C0F
:405B40007FEA6C5C4FEA430C18BF7FEA6C5C1BD001B050EA410C0CBF52EA430C91EA030F02BF90EA020F0020704710F1000F91EA030F58BF994208BF90422CBFD8176FEAE0
:405B8000E37040F0010070474FEA410C7FEA6C5C02D150EA013C07D14FEA430C7FEA6C5CD6D152EA033CD3D05DF8040B704700BF8446104662468C461946634600E000BF38
:405BC00001B5FFF7B7FF002848BF10F1000F01BD4DF808EDFFF7F4FF0CBF012000205DF808FB00BF4DF808EDFFF7EAFF34BF012000205DF808FB00BF4DF808EDFFF7E0FF8D
:405C000094BF012000205DF808FB00BF4DF808EDFFF7CEFF94BF012000205DF808FB00BF4DF808EDFFF7C4FF34BF012000205DF808FB00BF4FEA410212F5001215D211D571
:405C40006FF47873B3EB625212D94FEAC12343F0004343EA505311F0004F23FA02F018BF404270474FF00000704750EA013005D111F0004008BF6FF0004070474FF00000F3
:405C8000704700BF4A0011D212F5001211D20DD56FF47873B3EB62520ED44FEAC12343F0004343EA505323FA02F070474FF00000704750EA013002D14FF0FF3070474FF020
:405CC00000007047014B1868704700BF4C81FF1F0E4B70B51E460E4C0025E41AA410A54204D056F8253098470135F8E702F01EFC084B094C1E46E41AA4100025A54204D0B1
:405D000056F8253098470135F8E770BD3885000038850000388500004085000010B5431E0A44914204D011F8014B03F8014FF8E710BD03460244934202D003F8011BFAE70E
:405D400070472DE9F04788B0149F002B1E461299B8BF03F1004327F02007B6BF1E4600232D23462F1446109DDDF84CA00B7003D0452F03D1013501E0032300E0022307AAFC
:405D8000049206AA03928DE828042246334600F003FD472F804602D1119BDB0728D5462F08EB050911D198F80030302B0AD10022002320463146FFF70BFF18B9C5F10105FF
:405DC000CAF80050DAF8003099440022002320463146FFF7FDFE08B9302202E0CDF81C9006E0079B994503D9591C07911A70F8E74046079B159AC8EB0303136008B0BDE821
:405E0000F087034673B50029B8BF494203F8022BB4BF2D222B22092942701ADD0DF1070216460A2591FBF5F405FB1411092C01F1300102F8011D2146F4DC3031541E02F89D
:405E4000011CB4421A460AD214F8012B03F8012BF7E71A463024214402F8024B5970101A02B070BD2DE9F04F91B00C46DDF8688016461F46054601F027FA0368184609933C
:405E800000F0F4FB00230E93D8F800300A90073323F0070303F1080294F81890D4F800B0C8F80020D3E90023C4E91223D4F84CA0D4F848802AF000430B934FF0FF32A74B56
:405EC00040460B9901F054FFA0B94FF0FF32A34B40460B99FFF790FE60B90022002340465146FFF77FFE10B12D2384F843309C4B9C4A0AE0424653464046514601F038FFC4
:405F0000002800F09281984B984AB9F1470F8CBF90469846032323612BF0040323604FF0000A3DE0B9F1670F00F08A81B9F1470F00F0868123600193636800210DF1330275
:405F4000059002920093424653460691CDF81090CDF80CE02846FFF7F4FE09F0DF03472B804600F08481B9F1650F0D9900F28D8101394A4604F150000D91FFF742FF0E9AE9
:405F800082468318012A236100F37C812268D10700F178819DF8333013B12D2384F84330009733460FAA2146284600F09FF9013002D14FF0FF3096E123685A0501D423693E
:405FC00065E0B9F1650F40F2D580D4E9120100220023FFF7FDFD78B30123654A31462846B8470130E5D00E9B0D9A9A420BDB2368D80708D423689B0740F111814FF000085B
:4060000004F1190906E10A9B099A31462846B8470130CED04FF0000804F11A090E9B013B9845E7DA01234A4631462846B8470130BFD008F10108F1E70D9B002B29DC012357
:406040004B4A31462846B8470130B2D00D9B23B90E9B13B92368D907CCD50A9B099A31462846B8470130A4D04FF0000904F11A0A0D9B5B42994509DA012352463146284616
:40608000B847013095D009F10109F1E70E9B4246A7E00E9AA36D9A42A8BF1A46002A914606DC4FF0000A29EAE97904F11A0B11E01346314642462846B8470130F1D178E799
:4060C00001235A4631462846B84701303FF471AF0AF1010AA36DC9EB03029245F0DB08EB03090D9A0E9B9A420FDB2368DA070CD40E9B0D9A9844C9EB08089B1A9845A8BFB9
:406100009846B8F1000F08DC0FE00A9B099A31462846B8470130EBD14BE743464A4631462846B84701303FF444AF4FF0000928EAE87804F11A0A09E00123524631462846FA
:40614000B84701303FF435AF09F101090D9A0E9B9B1AC8EB03039945EEDB4BE7FFFFEF7FCA830000CE830000D2830000D6830000DA8300000E9A012A01DCDB0738D5012365
:40618000424631462846B84701303FF412AF0A9B099A31462846B84701303FF40AAFD4E9120100220023FFF713FD20B14FF0000804F11A090EE00E9B08F10102013B19E0F2
:4061C00001234A4631462846B84701303FF4F1AE08F101080E9B013B9845F1DB534604F1500231462846B84701307FF403AFE0E64246012331462846B8470130EED1D8E656
:4062000001234A4631462846B84701303FF4D1AE08F10108E3680F9A9B1A9845F0DBE0680F9B9842B8BF18465DE062680EA8531C0DF1340E4BF480637FF474AE062201E0C3
:4062400012B90122626075E6002106910DF133018DE80C00236005904246CDF81090CDF80CE0029153462846FFF76BFD80460D9BD81C02DB626893421DDDA9F102095FFA24
:4062800089F970E60133236184E6B9F1660F14D10029636807DD216113B92268D2071DD501330B4419E013B92268D00701D5023313E0012311E04FF067090D9B0E9A9342D5
:4062C00005DB22682361D10708D5013305E0002BD4BFC3F102030123134423610D9B4FF0000AA36556E611B0BDE8F08F2DE9F04791461F460A698B6806469342B8BF134672
:40630000C9F8003091F843200C46DDF8208012B10133C9F800302368990642BFD9F800300233C9F80030256815F0060510D104F1190A07E00123524639463046C047013019
:406340001AD00135E368D9F800209B1A9D42F1DB94F843302268003318BF012392060FD5E118302081F843005A1C94F845102244023382F8431003E04FF0FF30BDE8F087FD
:4063800004F1430239463046C0470130F4D02268D9F80050E36802F00602042A08BF5D1B2269A3680CBF25EAE57500259342C4BF9B1AED184FF000091A344D4509D001232F
:4063C000224639463046C0470130D5D009F10109F3E70020BDE8F0872DE9F04317460A7E85B06E2A984606460C460C9B01F1430E00F0AE8011D8632A22D009D8002A00F067
:40640000BB80582A40F0CA8081F84520834955E0642A1ED0692A1CD0C0E0732A00F0B08009D86F2A2ED0702A40F0B8800A6842F020020A603EE0752A24D0782A3AD0ADE05A
:406440001A6801F14205111D1960136884F84230A8E021681A6811F0800F02D0111D196008E011F0400F02F10401196002D0B2F9003000E01368002B3CDA2D225B4284F85B
:40648000432037E021681A6811F0800F02D0111D196007E011F0400F02F10401196001D0138800E01368227E5C496F2A14BF0A2208221BE078225A4984F8452022681868B5
:4064C00012F0800F00F104051D6003D1550601D5038800E00368D00744BF42F0200222601BB9226822F0200222601022002084F8430001E049490A226568002DA56008DB63
:40650000206820F0040020602BB9002D7DD175460CE0002B79D07546B3FBF2F002FB1033CB5C05F8013D03460028F5D1082A0BD12368DA0708D5236962689A42DEBF302328
:4065400005F8013C05F1FF35C5EB0E0323612EE008681A6810F0800F496903D0101D1860136808E010F0400F02F104001860136801D0198000E0196000232361754616E002
:406580001A68111D1960156800216268284600F0A7FE08B1401B6060636804E004F1420584F8422001232361002384F84330CDF800803B4603AA21463046FFF797FE0130E4
:4065C00002D14FF0FF3026E023692A4639463046C0470130F5D023689B0710D5002504F1190907E001234A4639463046C0470130E7D00135E368039A9B1A9D42F2DBE068D2
:40660000039B9842B8BF184605E00B7804F1420584F842308AE705B0BDE8F083DC830000ED8300000EB400B54FF402719CB0ADF814106FF00041049107914FF6FF711DABE2
:4066400002900690084853F8042BADF81610006802A9019301F03AFA029B00221A701CB05DF804EB03B070474C81FF1F034613F8012B002AFBD1181A013870472DE9F74FEF
:4066800003690C6980469C427FDC013C01F114074FEA840E00F1140606EB0E0357F82450019356F824300135B3FBF5F507EB0E09C5B34FF0000A3846B446D34650F8043B2F
:4066C0009AB205FB02A21B0C4FEA124A05FB03A392B2C2EB0B0BBCF800204FEA134A5A441FFA83FBDCF800308145CBEB134303EB224392B242EA03424FEA234B4CF8042BAA
:40670000DCD256F80E306BB9019B043B9E421A4602D3C8F8104005E01268043B002AF8D1013CF3E7404600F0F6FF00282BDB304601354FF0000E57F8042B036891B2C1EBE9
:406740000E0E120C99B27144C2EB134303EB214389B24FEA234EB94541EA034340F8043BE9D256F8242006EB840362B9043B9E421A4602D3C8F8104005E01268043B002AB3
:40678000F8D1013CF3E7284600E0002003B0BDE8F08F0000000000002DE9F04F456A95B08246219CCDE9022345B9102000F090FDCAF82400456085600560C560DAF8243040
:4067C000196859B15A68012393404A608B60504600F0C9FDDAF8243000221A60039BA04A002BBDBF01232360039B0023BCBF23F000430393DDF80C80A8BF236028F000430E
:406800001B0D1B0593421DD142F20F73209A1360029B43B9934A944BC8F31300002814BF1846104600E09048229B002B00F04685C37813B100F1080300E0C31C229A136054
:4068400000F03CBDDDE902450022002320462946FFF7BEF9074658B1209A01231360229B002B00F01E8581481860013800F026BD12AB019313AB009322462B46504600F0EB
:40688000C5FFC8F30A56049056B1C5F3130343F07F51204641F44011A6F2FF3611971DE0139B129E1E4406F23243202B0ADD029A06F21240C3F1400322FA00F008FA03F3EF
:4068C000184304E0C3F12000029B03FA00F0FEF7A1FE0123A1F1F871013E11930022644BFEF75AFD58A3D3E90023FEF709FF58A3D3E90023FEF752FD044630460D46FEF74B
:4069000099FE55A3D3E90023FEF7FAFE02460B4620462946FEF742FD04460D46FFF78AF900228346002320462946FFF75BF958B15846FEF77FFE02460B4620462946FFF79A
:4069400047F908B90BF1FF3BBBF1160F0DD8DDE90223484901EBCB01D1E90001FFF760F930B10BF1FF3B002300E00123109300E01090129B9E1B731E079343BFC3F100083C
:40698000002307934FF00008BBF1000F06DB079BCDF82CB05B440793002705E00023CBEB0808CBF100070B931E9B092B28D8052BC4BF043B1E931E9BC8BF0025A3F10203D7
:4069C000D8BF0125032B20D8DFE803F0060E0204012302E0012308E000230A931F9B002B1DDD9946059321E000230A931F9B0BEB030909F10103012B0593B8BF012315E0E9
:406A0000012500231E930A9501E001230A934FF0FF390022CDF8149012231F9206E04FF001094B46CDF81490CDF87C90DAF8244000226260042101F114029A421CD8626858
:406A4000490001326260F6E761436F63A787D23FB3C8608B288AC63FFB799F501344D33F0000F07FFE83000007840000DB8300000000F83F188400006168504600F03EFC28
:406A8000DAF8243020601B680693059B0E2B00F25B81002D00F05881DDE90234BBF1000FCDE90E3430DD9F4A0BF00F034FEA2B1502EBC303E80618CBCDE908340CD5DDE92F
:406AC0000E01994B05F00F05D3E90823FEF742FF0324CDE9020100E00224934E6DB1E90708D5DDE90801D6E90023FEF709FECDE9080101346D100836F0E7DDE90823DDE9E1
:406B00000201FEF727FF20E0CBF1000505B3DDE90E01844B05F00F0203EBC203D3E90023FEF7EEFDCDE902017F4E2D110023022455B1EA0705D5D6E90023FEF7E1FD0134DA
:406B400001236D100836F3E71BB1CDE9020100E00224109BE3B1DDE902560022734B28463146FFF73FF898B1059B8BB1B9F1000F40F3E6800BF1FF330893314600226C4BF2
:406B80002846FEF7BDFD0134CDE902014E4602E0059ECDF820B02046FEF74CFDDDE90223FEF7AEFD634B0022FEF7F8FBA1F1507304460C931D46D6B9DDE9020100225E4B71
:406BC000FEF7EAFB22460C9BCDE90201FFF728F8002840F03F820C99224601F10043DDE90201FEF7FFFF002840F02B82A8E00A9A4C4B711E002A49D003EBC103D3E900239B
:406C000000204E49FEF7A6FE22462B46FEF7C4FBCDE90C01069CDDE90201FFF70BF80546FEF708FD02460B46DDE90201FEF7B4FBDDE90C23303504F8015BCDE90201FEF7A5
:406C4000D1FF002840F01D83DDE9022300203749FEF7A2FBDDE90C23FEF7C4FF002840F0D180069BE31AB3426ADADDE90C0100222F4BFEF745FD0022CDE90C01DDE90201AE
:406C80002B4BFEF73DFDCDE90201C4E703EBC1012246D1E900012B46FEF732FD069BCDE90C011D469C19DDE90201FEF7C3FF0646FEF7C0FC02460B46DDE90201FEF76CFBAC
:406CC000303605F8016BAC42CDE902014FF0000222D11A4BDDE90C01FEF760FB02460B46DDE90201FEF79CFF002840F08B80DDE90C2300201149FEF74FFB02460B46DDE900
:406D00000201FEF76FFFD8B114F8013C621E302B40F0B7821446F7E7054BFEF7F1FCCDE90201C0E718840000F08400000000F03F0000244000001C40000014400000E03F9B
:406D4000DDE90E34CDE90234139B002B7CDBBBF10E0F79DCAB4B03EBCB03D3E900671F9B002B14DA059B002B11DC40F06C810022A54B30463946FEF7C3FCDDE90223FEF7B9
:406D800045FF059D2E46002840F05F8165E1069CDDE9028932463B4640464946FEF7DAFDFEF748FF0546FEF745FC32463B46FEF7A7FC0B46024649464046FEF7EDFA05F160
:406DC000300E069B04F801EBC3EB040E059B73452DD102460B46FEF7E1FA8046894602460B4630463946FEF7FDFE78B942464B4630463946FEF7ECFE002800F04482EB074C
:406E000004D440E2DDF820B000E01C4614F8012C631E392A07D1069A9A42F6D1069930220BF1010B0A701A7801321A702BE20022764BFEF765FC0022002380468946FEF762
:406E4000C7FE0028A6D01EE20A9A002A2BD01E9A012A0ADC119A12B103F2334302E0129BC3F136033D46444613E0059B5D1EAF42BFBF0B9BEA1B9B180B93059BB6BF2F46B8
:406E80007D1B0025002BA7BF4446059BC3EB08040023079A01211A4450469844079200F001FB064602E03D4644460A9E5CB1079B002B08DDA342A8BF2346079AC3EB0808AF
:406EC000E41AD31A0793002F1DDD0A9BABB18DB131462A46504600F07FFB049A01460646504600F0E8FA04990890504600F03BFA089B04937A1B06D000E03A4604995046FD
:406F000000F06AFB04900121504600F0CBFA0B9B05465BB31A460146504600F05DFB1E9B0546012B18DC029B83B9039BC3F3130373B9039B23F000473F0D3F054FB1079BBA
:406F400008F1010801330793012702E0002700E0029F0B9B73B100E000272B6905EB8303186900F052FAC0F1200004E01E9B012BD9DD0B9F0120079B184410F01F0008D0E7
:406F8000C0F12003042B02DDC0F11C0002E006D018461C30079B8044034404440793B8F1000F05DD42460499504600F063FB0490079B002B05DD29461A46504600F05AFBA1
:406FC0000546109B23B32946049800F0A4FB00281EDA00230A220499504600F0DBF90A9B0BF1FF3B0490002B00F05F81314600230A22504600F0CEF9B9F1000F06463FDC28
:407000003BE000BF188400000000144000002440059B002B2BDC1E9B022B28DDDDF81490B9F1000F11D129464B460522504600F0B1F901460546049800F06DFB00280CDC64
:4070400003E0354600E000252E461F9B069C6FEA030B09E03546DDF820B0069B069A5C1C312313700BF1010B05960026F7E00A9BDDF8149023B9069CB2E01E9B022BCFDC7E
:40708000002C05DD31462246504600F0F3FA06469FB17168504600F031F90446326906F10C01023292000C30FEF738FE01222146504600F0DFFA059000E00596029B069FFA
:4070C00003F00103079329460498FFF7D7FA3146044600F13008049800F01DFB059A02902946504600F033FBC36802463BB901460A90049800F00FFB0A9A034600E001237C
:40710000114650460A9300F02EF90A9B53B91E9A42B9079A32B9B8F1390F2AD0029B002B1CDC1DE0029A002A04DB1BD11E9ACAB9079ABAB9002B13DD01220499504600F0D5
:4071400099FA2946049000F0E6FA002803DC07D118F0010F04D0B8F1390F0AD004F131087C1C0CE0002B07F101040BDDB8F1390F03D139233B70013756E008F1010887F896
:4071800000806CE0069B2746E31A4B4504F8018C3BD000230A220499504600F0FBF8059B04909E424FF00A024FF000033146504604D100F0EFF80646059084E700F0EAF8F7
:4071C000002306460A220599504600F0E3F8059079E700230A220499504600F0DBF8049029460498FFF74AFA069B00F1300804F8018BE31A4B45ECDB069B0596B9F1010F46
:40720000ACBF4B4401331F46002601220499504600F030FA2946049000F07DFA002803DC15D118F0010F12D03C4614F8013C621E392B09D1069B934204D10BF1010B3123A4
