:400000000080002011000000050F0000050F000008B5044B1A6803F53F5302331A6000F079FF00BFFA46004010B5054C237833B9044B13B10448AFF300800123237010BDD7
:400040004081FF1F0000000074200000084B10B51BB108490848AFF300800848036803B910BD074B002BFBD0BDE81040184700BF000000004481FF1F74200000C880FF1FEA
:40008000000000000000000010B50C4601F0B0F8204601F013F9012000F098FF01F03CFA002001F049FA01F03FFA01F057FA01F061FA01F077FC04A3D3E9002301F002FE77
:4000C00010BD00BFAFF300809A99999999D9494008B501F0F3F8012000F078FF01F01CFA002001F029FA01F01FFA01F037FA01F041FA01F057FC04A3D3E9002301F0E2FDA4
:4001000008BD00BFAFF300809A99999999D9494038B50546084601F06BF8002001F0CEF800240BE02046FFF7D3FF0022054B01F02FFF08B1204638BD0134E4B2AC42F1D3A9
:40014000002038BD0000F03F38B504461546084601F04EF80BE02046FFF7BAFF0022064B01F00CFF08B1601E38BD0134E4B2AC42F1D3204638BD00BF000034402DE9F04F29
:4001800091B0CDE902019146059306AC354D0FCD0FC40FCD0FC495E8030084E803004FF0000858E001F034FA002540E019F80810E8B2FFF769FF02460B463046394601F0D2
:4001C000A5FA06460F46013402E0002600270024092CEBDD0022244B3046394601F072FD5DB90022214B01F043FCDDE9022301F069FD01F0D7FE824617E000221B4B01F040
:4002000037FCDDE9022301F05DFD01F0CBFE044610AB03EB880353F8283C009303462A465146584600F07EFAA246AB460135BC2DCBDD01F0CDF9059B03EBC803D3E90023F6
:40024000CDE900234FF6FF7251460BF1050000F02BFC08F10108B8F1030FA3DD11B0BDE8F08F00BF782000000000244000006E40F0B58BB062B600F091FF00F01FFF01200E
:4002800000F010FF4FF4FA7000F0A0FE002000F009FF4FF4FA7000F099FE012000F002FF4FF4FA7000F092FE00F070F9002000F05FF901F0EFF901F0DFF901F0D1F90AABA6
:4002C000434A43F8042D4FF6FF726421C82000F087FA41F2883000F079FE002000F048F901F024F800F0BCFF01F008F91521FF20FFF70EFF041E5DDBE7B2DC22BC21384680
:40030000FFF722FF0546031B032693FBF6F6F6B28DF82070204601F045FB29A3D3E9002301F0A6FB00222B4B01F0A2FBCDE9000101241BE0631E0AAA134413F8080C3044ED
:40034000C0B21346234403F8080C01F02BFB1CA3D3E9002301F08CFB00221E4B01F088FB0AAB03EBC40343E90A010134032CE1DD002300E00133BC2BFCDDE9B2BC20FFF7E9
:4003800083FE11A3D3E9002301F072FB01F00AFE044601F01DF9204601F004FB6B4608AAFFF7ECFE01F014F9002000F021FF002000F084FF00200BB0F0BD00BFAFF30080BE
:4003C000FCA9F1D24D621040CDCCCCCCCCCCF03FA02000000000703F10B50446002000F055FE204600F09CFE00F048FE0028FBD100F044FE0128FBD110BD00BF10B50446E1
:40040000012000F043FE204600F08AFE00F036FE0028FBD100F032FE0128FBD110BD00BF38B50244013A42EA00450B44013B43EA01442A20FFF7D0FF012000F027FE002092
:4004400000F010FE280E00F06BFE00F017FE0128FBD1C5F3074000F063FE00F00FFE0128FBD1C5F3072000F05BFE00F007FE0128FBD1E8B200F054FE00F000FE0128FBD1E2
:4004800000F0F0FD2B20FFF7A7FF012000F0FEFD002000F0E7FD200E00F042FE00F0EEFD0128FBD1C4F3074000F03AFE00F0E6FD0128FBD1C4F3072000F032FE00F0DEFD93
:4004C0000128FBD1E0B200F02BFE00F0D7FD0128FBD100F0C7FD2C20FFF77EFF38BD00BF2DE9F041BDF81850EF283FDC90461F46B1F5A07F3ADA8318013BEF2B03DDC0F150
:40050000F0080FFA88F8CB19013BB3F5A07F02DBC1F5A0773FB2BBB21FFA88F289B280B2FFF77EFF2E0AEDB2012000F0AFFD002000F098FD15E0304600F0F2FD00F09EFDCA
:400540000128FBD1284600F0EBFD00F097FD0128FBD1013C24B200E04446002CEBDC013F3FB2002FF8DC012000F07CFDBDE8F08100B583B000904FF4A073F0220021084634
:40058000FFF7AEFF03B05DF804FB00BFF8B50E4D16E0FFF721FF6F7807F07F02023505E06E1C2878FFF72AFF22463546531EDCB2002AF5D117F0800F02D0782000F006FD35
:4005C00028780028E5D1F8BDBC20000080B2EF2822D8002920DBB1F5A07F1DDA10B5144601231A4689B2FFF71BFF012000F04EFD002000F037FD200A00F092FD00F03EFD67
:400600000128FBD1E0B200F08BFD00F037FD0128FBD100F027FD10BD704700BF08B5C0F59F730133C1F1EF0019B200B2FFF7CEFF08BD00BF2DE9F04F83B005460E461746AA
:40064000BDF830200092C1EB0308B8F1000FB8BFC8F10008C0EB0709B9F1000FB8BFC9F10009C84504DD3A461F4613460D460646BD4205DD32461E4613462A463D4617465D
:40068000C5EB070B1FFA8BFB0FFA8BF4C6EB030ABAF1000FB8BFCAF1000A04EBD47464109E4202DA012301931EE04FF0FF3301931AE0C84505DD009A29463046FFF7AEFF70
:4006C00004E0009A31462846FFF7A8FFCAEB0404A3B21CB2002C05DA019A164436B20BEB030424B201352DB2BD42E2DD03B0BDE8F08F00BF00B583B00244013A00930B46A9
:4007000012B2FFF797FF03B05DF804FB00B583B00A44013A009313B20246FFF78BFF03B05DF804FB10B582B0BDF8104090420BD1994202DD0A46194613465A1A013223464E
:4007400012B2FFF7E3FF10E099420BD1904202DD034610461A46121A0132234612B2FFF7C9FF02E00094FFF765FF02B010BD00BF2DE9F84390460025012206E0174CA45C76
:40078000224492B2013292B201359D42F6DB013295B202390EB2023807B24FF0000917E0631901330D4AD05C424631463844FFF735FF013400E00024084B5B5D9C42EFDBC7
:4007C000013636B21D44ADB20135ADB209F10109B9F1060FEFDDBDE8F88300BF2C2100002DE9F04180460E4617461D46044654E1203B3A2B00F24681DFE813F03E01440163
:40080000440144014401440144014401440144014401440144014401370144013B0042004900500057005E0065006C0073007A004401440144014401440144014401810012
:4008400088008F0096009D00A400AB00B200B900C000C700CE00D500DC00E300EA00F100F800FF0006010D0114011B0122012901300100233A4631462046FFF779FF01E125
:4008800001233A4631462046FFF772FFFAE002233A4631462046FFF76BFFF3E003233A4631462046FFF764FFECE004233A4631462046FFF75DFFE5E005233A4631462046F9
:4008C000FFF756FFDEE006233A4631462046FFF74FFFD7E007233A4631462046FFF748FFD0E008233A4631462046FFF741FFC9E009233A4631462046FFF73AFFC2E00A230C
:400900003A4631462046FFF733FFBBE00B233A4631462046FFF72CFFB4E00C233A4631462046FFF725FFADE00D233A4631462046FFF71EFFA6E00E233A4631462046FFF77A
:4009400017FF9FE00F233A4631462046FFF710FF98E010233A4631462046FFF709FF91E011233A4631462046FFF702FF8AE012233A4631462046FFF7FBFE83E013233A464B
:4009800031462046FFF7F4FE7CE014233A4631462046FFF7EDFE75E015233A4631462046FFF7E6FE6EE016233A4631462046FFF7DFFE67E017233A4631462046FFF7D8FE7C
:4009C00060E018233A4631462046FFF7D1FE59E019233A4631462046FFF7CAFE52E01A233A4631462046FFF7C3FE4BE01B233A4631462046FFF7BCFE44E01C233A46314677
:400A00002046FFF7B5FE3DE01D233A4631462046FFF7AEFE36E01E233A4631462046FFF7A7FE2FE01F233A4631462046FFF7A0FE28E020233A4631462046FFF799FE21E084
:400A400021233A4631462046FFF792FE1AE022233A4631462046FFF78BFE13E023233A4631462046FFF784FE0CE024233A4631462046FFF77DFE05E025233A46314620469B
:400A8000FFF776FE073424B2B4F59E7F02DD093E36B244462B6801332B602B681B78002B7FF4A6AEBDE8F0812DE9F04F85B004460D46164652A3D3E90023DDE90E0100F0C1
:400AC00025FE81468A460022534B01F0FBF801F069FA074600EB80034FEA4308404600F061FF02460B46CDE9009A4846514600F00BFE01F057FA8246404400F053FF804692
:400B0000894602460B46DDE9000100F0FDFD0022414B00F0ADFF01F045FA039000F042FF39A3D3E9002300F0A3FF02460B464046494600F0EBFD8046894602460B46DDE997
:400B4000000100F0E1FD0022344B00F091FF01F029FA834600F026FF2DA3D3E9002300F087FF02460B464046494600F0CFFD02460B46DDE9000100F0C7FD0022284B00F06B
:400B800077FF01F00FFA80462FB1BBB2324629462046FFF7EDFD0FB1072000E000200444A4B21FFA8AF33246294620B2FFF7E0FDE01D24233246294600B2FFF7D9FD04F140
:400BC0000E00BDF80C303246294600B2FFF7D0FD04F115001FFA8BF33246294600B2FFF7C7FD04F11C001FFA88F33246294600B2FFF7BEFD05B0BDE8F08F00BFAFF30080FD
:400C0000FCA9F1D24D62403F9A9999999999B93F7B14AE47E17A843F000024400000594000408F40FEE700BFF0B40022174611E050F82760F3B226F0FF0608E001EB42057F
:400C400011F812406D78A5550132013BDBB2002BF4D10137142FEBD9F0BC704708B50A46002101F0FEF908BDF8B5194B1B78DBB2184E3478E4B2184F3D78EDB203F0070142
:400C8000164A11701B090132137044F00303337045F003033B703822114B1A70802103F2CC73197010230F4A137020220E480270903001700D490A700D4A13700A2000F00A
:400CC0009BF93D70347044220A4B1A70F8BD00BFCF010049F8460040F94600406E5800403D510040905A0040985A00402B5B0040585B00407658004008B501F0A7F908BD36
:400D000038B500242C4B1C80582202331A7004222A492B48FFF7F0FF02222A4B1A7008224FF040231A70032103F500731970264B1B78DBB225490B70254B1A8041F25122AA
:400D4000023B1A8019250CE0224B1B7803F0010343EA440404F003044FF4F07000F0C0FC013D0DB1032CEFD115B90320FFF75AFF194B4FF480721A8007221A700022174929
:400D80000A704820023108701A700222033B1A7004220A331A70124A137843F001031370013A137843F001031370013A137843F08003137038BD00BF80400040F002004835
:400DC000004100400043004008010049A146004022420040254200400440004006400040A243004038B572B6354A137843F00403137000240CE0334D630019194A0011465A
:400E00002A44084691882858FFF728FF0134E4B2092CF0D900240BE02A49A3001819420088188022016CC06BFFF766FF0134E4B2002CF1D024494FF09040FFF7F5FE234A20
:400E4000137843F0020313701032137843F0020313701F4C237843F040032370A2F58632513A137843F010031370082219491A48FFF742FF082219491948FFF73DFF0822F9
:400E800018491948FFF738FF082218491848FFF733FF184A137843F008031370164D61232B70FFF72DFF81232B700122134B1A70FFF7DAFE0E2221461148FFF71DFF38BDCF
:400EC000E84600407C2400005400004803500140A0430040D002004802510040D8020048F2510040E002004812510040E80200483251004022430040004800400400084004
:400F0000B043004008B501F075F803680C2B00D1FEE7FEE708B5104E104D16E029686B68AC68002204E051F8040B43F8040B0432A242F8D1E868002203E0002143F8041BE5
:400F400004328242F9D11035013E002EE6D101F057F8FFF78DF9FEE701000000FC24000008B5104A104B1A60104A136843F40073136000230AE0032B03D80D4A52F82310BA
:400F800000E00C490C4A42F8231001332F2BF2D90A4B1A780A4B1A70074A0A4B1A60FFF721FF08BD0004FA050CED00E014ED00E000000000050F00000080FF1FBC7600403E
:400FC000C080FF1F08ED00E001BE704710B5044605E0084B186800F083FBA4F50044B4F5004FF6D8034B586800FB04F000F078FB10BD00BFCC80FF1F08B5034B1B7A00FB7F
:4010000003F000F06DFB08BDCC80FF1F70B504460E46074B1D681F2802D90020FFF7D4FF04F01F04103455F8240045F8246070BD08ED00E038B504460D46072902D900204D
:40104000FFF7C2FF1F2C02D90020FFF7BDFF04F01F0000F1604000F564406D01EDB2057038BD00BF044A137803F0FD03400000F0020018431070704700510040024B187850
:40108000C0F34000704700BF01510040044A137803F0FE0300F0010018431070704700BF00510040044A137803F0DF03400100F02000184310707047F0510040054A1378A9
:4010C00043F0010313701032137843F001031370704700BFA243004008B500F009FB094A137843F0200313700232137843F010031370013A137843F01003137000F0FCFAAF
:4011000008BD00BF91640040014B1878704700BF63640040014B1878704700BF62640040034B1B7813F0040FFAD0024B18707047636400404164004008B501E00A4B1B7886
:401140000A4B1B7813F0200FF8D100F0D1FA084B1A7842F001021A701A7802F0FE021A7000F0CAFA08BD00BF51640040626400409164004008B50F22064B1A70FFF7DCFF1D
:40118000FFF7C2FFFFF7C6FF0023034A1370013A137008BD816400408364004008B5054B1B7823B9FFF7E6FF0122024B1A70FFF793FF08BD5C81FF1F054A137843F008034A
:4011C00013701032137843F008031370704700BFA8430040054B1A7802F0FD021A701A7800F0020010431870704700BF2C580040014B1870704700BF835B0040064B1B78FB
:40120000C3F3810303F19243063393F83831DBB2024A1370704700BF2C5800400B46004008B5064B1A7802F0F3021A701A7800F00C0010431870FFF7E1FF08BD2C5800407E
:4012400010B50024054B1C7001331C700420FFF7E7FF2046FFF7BEFF10BD00BF2C58004008B5074B1B7823B9FFF7EAFF0122044B1A70FFF7A1FF6420FFF7BAFF08BD00BFDA
:401280005D81FF1F054A137843F0040313701032137843F004031370704700BFA8430040054B1A7802F0FD021A701A7800F0020010431870704700BF28580040014B1870AA
:4012C000704700BF825B0040064B1B78C3F3810303F19243063393F82831DBB2024A1370704700BF285800400A46004008B5064B1A7802F0F3021A701A7800F00C00104343
:401300001870FFF7E1FF08BD2858004010B50024054B1C7001331C700420FFF7E7FF2046FFF7BEFF10BD00BF2858004008B5074B1B7823B9FFF7EAFF0122044B1A70FFF791
:40134000A1FF6420FFF7BAFF08BD00BF5E81FF1F08B50A280FD00C2802D0082806D102E04FF4805209E04FF4807206E00020FFF72BFE002201E04FF480620021084B1980CF
:4013800042F2107303FB02F313F5806301D503F2FF73DB12034A13600022034B1A8008BD6481FF1F6881FF1F6681FF1F10B500F09FF904461E4A137843F002031370103249
:4013C000137843F0020313701A3A137843F0010313701032137843F00103137002F5AA521A32137843F0030313701822114B1A70013B1A7842F040021A701A7802F0FC0293
:401400001A70C822053B1A700222A3F59753123B1A70094A137843F0080313700A20FFF7EBFD0122054B1A60204600F065F910BDAB4300400E5900402F5B004080E200E0FB
:4014400008B500F055F90F4A137803F0FE031370A2F5AA521D3A137803F0FD0313701032137803F0FD0313701A3A137803F0FE0313701032137803F0FE03137000F03CF929
:4014800008BD00BF0859004010B504460A280DD00C2802D0082804D101E0C22207E0422205E00020FFF790FDC22200E08222034B1A702046FFF74CFF10BD00BF0A59004030
:4014C00008B5102000F0B4F807210020FFF7B2FD07490020FFF79AFD064A137843F0060313700C20FFF7D0FF0022034B1A8008BDCD150000095900406C81FF1F08B5054B83
:401500001B7823B9FFF7DCFF0122024B1A70FFF74DFF08BD5F81FF1F024A137843F001031370704708590040024A137803F0FE03137070470859004010B5074B1B7813F030
:40154000010401D10028F8D024B10120FFF754FD014B1B78204610BD09590040034B188880B2034B1B88C01A00B27047A25B00406681FF1F10B4124B1B881BB233B1104B4D
:401580001B881BB203EB83035C0001E00D4B1C680D4B1988411A09B242F2107303FB01F2002903DD04EBD470401003E004EBD47040104042831893FBF4F000B210BC7047C1
:4015C0006481FF1F6881FF1F6C81FF1F704700BF08B50C4B1B7813F0020F0ED00A4B1B7813F0010F03D00322084B1A7002E00122064B1A70FFF724FF08BD0022034B1A703F
:4016000008BD00BFAB430040085900406081FF1F08B5064B1B7843B1FFF7C8FE034B1B7813F0020F01D0FFF777FF08BD6081FF1F034B1A7800F0F80010431870704700BFF8
:4016400002410040014B1B685864704708ED00E04001C0B2014B1870704700BF01E400E00222014B1A60704700E100E00222014B1A60704780E100E008B5FFF7F7FF0448D5
:40168000FFF7E0FF0720FFF7E3FFFFF7E9FF08BDA11600000222014B1A60704780E200E000B583B00020FEF763FF02AB0A4A43F8042D4FF6FF7264210846FFF791F84FF402
:4016C0007A70FFF783FC0020FEF752FFFFF7E2FF03B05DF804FB00BFC4240000000000000230800803D000BF01380046FCD17047EFF3108072B6704780F31088704700BF7F
:4017000081F0004102E000BF83F0004330B54FEA41044FEA430594EA050F08BF90EA020F1FBF54EA000C55EA020C7FEA645C7FEA655C00F0E2804FEA5454D4EB5555B8BFFD
:401740006D420CDD2C4480EA020281EA030382EA000083EA010180EA020281EA0303362D88BF30BD11F0004F4FEA01314FF4801C4CEA113102D0404261EB410113F0004FEB
:401780004FEA03334CEA133302D0524263EB430394EA050F00F0A780A4F10104D5F1200E0DDB02FA0EFC22FA05F2801841F1000103FA0EF2801843FA05F359410EE0A5F159
:4017C00020050EF1200E012A03FA0EFC28BF4CF0020C43FA05F3C01851EBE37101F0004507D54FF0000EDCF1000C7EEB00006EEB0101B1F5801F1BD3B1F5001F0CD3490873
:401800005FEA30004FEA3C0C04F101044FEA445212F5800F80F09A80BCF1004F08BF5FEA500C50F1000041EB045141EA050130BD5FEA4C0C404141EB010111F4801FA4F1F4
:401840000104E9D191F0000F04BF01460020B1FA81F308BF2033A3F10B03B3F120020CDA0C3208DD02F1140CC2F10C0201FA0CF021FA02F10CE002F11402D8BFC2F1200C01
:4018800001FA02F120FA0CFCDCBF41EA0C019040E41AA2BF01EB0451294330BD6FEA04041F3C1CDA0C340EDC04F11404C4F1200220FA04F001FA02F340EA030021FA04F37F
:4018C00045EA030130BDC4F10C04C4F1200220FA02F001FA04F340EA0300294630BD21FA04F0294630BD94F0000F83F4801306BF81F480110134013D4EE77FEA645C18BF2A
:401900007FEA655C29D094EA050F08BF90EA020F05D054EA000C04BF1946104630BD91EA030F1EBF0021002030BD5FEA545C05D14000494128BF41F0004130BD14F5800418
:401940003CBF01F5801130BD01F0004545F0FE4141F470014FF0000030BD7FEA645C1ABF194610467FEA655C1CBF0B46024650EA013406BF52EA033591EA030F41F400219C
:4019800030BD00BF90F0000F04BF0021704730B54FF4806404F132044FF000054FF0000150E700BF90F0000F04BF0021704730B54FF4806404F1320410F0004548BF404271
:4019C0004FF000013EE700BF42004FEAE2014FEA31014FEA02701FBF12F07F4393F07F4F81F06051704792F0000F14BF93F07F4F704730B54FF4607401F0004521F0004193
:401A000020E700BF50EA010208BF704730B54FF000050AE050EA010208BF704730B511F0004502D5404261EB41014FF4806404F132045FEA915C3FF4DCAE4FF003025FEA73
:401A4000DC0C18BF03325FEADC0C18BF033202EBDC02C2F1200300FA03FC20FA02F001FA03FE40EA0E0021FA02F11444C1E600BF70B54FF0FF0C4CF4E06C1CEA11541DBF4D
:401A80001CEA135594EA0C0F95EA0C0F00F0DEF82C4481EA030621EA4C5123EA4C5350EA013518BF52EA033541F4801143F4801338D0A0FB02CE4FF00005E1FB02E506F0CC
:401AC0000042E0FB03E54FF00006E1FB03569CF0000F18BF4EF0010EA4F1FF04B6F5007F64F5407404D25FEA4E0E6D4146EB060642EAC62141EA55514FEAC52040EA5E5099
:401B00004FEACE2EB4F1FD0C88BFBCF5E06F1ED8BEF1004F08BF5FEA500E50F1000041EB045170BD06F0004646EA010140EA020081EA0301B4EB5C04C2BFD4EB0C0541EAA6
:401B4000045170BD41F480114FF0000E013C00F3AB8014F1360FDEBF002001F0004170BDC4F10004203C35DA0C341BDC04F11404C4F1200500FA05F320FA04F001FA05F2DB
:401B800040EA020001F0004221F0004110EBD37021FA04F642EB06015EEA430E08BF20EAD37070BDC4F10C04C4F1200500FA04F320FA05F001FA04F240EA020001F0004125
:401BC00010EBD37041F100015EEA430E08BF20EAD37070BDC4F1200500FA05F24EEA020E20FA04F301FA05F243EA020321FA04F001F0004121FA04F220EA020000EBD370C6
:401C00005EEA430E08BF20EAD37070BD94F0000F0FD101F00046400041EB010111F4801F08BF013CF7D041EA060195F0000F18BF704703F00046520043EB030313F4801F8A
:401C400008BF013DF7D043EA0603704794EA0C0F0CEA135518BF95EA0C0F0CD050EA410618BF52EA4306D1D181EA030101F000414FF0000070BD50EA410606BF10461946E0
:401C800052EA430619D094EA0C0F02D150EA013613D195EA0C0F05D152EA03361CBF104619460AD181EA030101F0004141F0FE4141F470014FF0000070BD41F0FE4141F4DD
:401CC000780170BD70B54FF0FF0C4CF4E06C1CEA11541DBF1CEA135594EA0C0F95EA0C0F00F0A7F8A4EB050481EA030E52EA03354FEA013100F088804FEA03334FF080555E
:401D000045EA131343EA12634FEA022245EA111545EA10654FEA00260EF000419D4208BF964244F1FD0404F5407402D25B084FEA3202B61A65EB03055B084FEA32024FF478
:401D400080104FF4002CB6EB020E75EB030E22BFB61A754640EA0C005B084FEA3202B6EB020E75EB030E22BFB61A754640EA5C005B084FEA3202B6EB020E75EB030E22BFE9
:401D8000B61A754640EA9C005B084FEA3202B6EB020E75EB030E22BFB61A754640EADC0055EA060E18D04FEA051545EA16754FEA06164FEAC30343EA52734FEAC2025FEA9A
:401DC0001C1CC0D111F4801F0BD141EA00014FF000004FF0004CB6E711F4801F04BF01430020B4F1FD0C88BFBCF5E06F3FF6AFAEB5EB030C04BFB6EB020C5FEA500C50F1AE
:401E0000000041EB045170BD0EF0004E4EEA113114EB5C04C2BFD4EB0C0541EA045170BD41F480114FF0000E013C90E645EA060E8DE60CEA135594EA0C0F08BF95EA0C0FFD
:401E40003FF43BAF94EA0C0F0AD150EA01347FF434AF95EA0C0F7FF425AF104619462CE795EA0C0F06D152EA03353FF4FDAE1046194622E750EA410618BF52EA43067FF492
:401E8000C5AE50EA41047FF40DAF52EA43057FF4EBAE12E74FF0FF3C06E000BF4FF0010C02E000BF4FF0010C4DF804CD4FEA410C7FEA6C5C4FEA430C18BF7FEA6C5C1BD0D8
:401EC00001B050EA410C0CBF52EA430C91EA030F02BF90EA020F0020704710F1000F91EA030F58BF994208BF90422CBFD8176FEAE37040F0010070474FEA410C7FEA6C5C57
:401F000002D150EA013C07D14FEA430C7FEA6C5CD6D152EA033CD3D05DF8040B704700BF8446104662468C461946634600E000BF01B5FFF7B7FF002848BF10F1000F01BD87
:401F40004DF808EDFFF7F4FF0CBF012000205DF808FB00BF4DF808EDFFF7EAFF34BF012000205DF808FB00BF4DF808EDFFF7E0FF94BF012000205DF808FB00BF4DF808EDC3
:401F8000FFF7CEFF94BF012000205DF808FB00BF4DF808EDFFF7C4FF34BF012000205DF808FB00BF4FEA410212F5001215D211D56FF47873B3EB625212D94FEAC12343F038
:401FC000004343EA505311F0004F23FA02F018BF404270474FF00000704750EA013005D111F0004008BF6FF0004070474FF00000704700BF014B1868704700BF3C81FF1FF8
:402000000E4B70B51E460E4C0025E41AA410A54204D056F8253098470135F8E700F05CFA084B094C1E46E41AA4100025A54204D056F8253098470135F8E770BDE42400008B
:40204000E4240000E4240000EC24000010B5431E0A44914204D011F8014B03F8014FF8E710BD03460244934202D003F8011BFAE770470000000000001F000000E0070000EE
:4020800000F8000020FD0000FF07000018FC000018C60000E07B0000FFFF0000E5AF0000535452494E4720544553542054534A4B46205344464E4B4A00000000EF030380F8
:4020C00002CF0300C130ED0464031281E803850078CB05392C003402F70120EA020000C00123C10110C5023E28C701863601483701003A0155B1020018B603088227F20139
:4021000000260101E00F0F312B0C0E084EF1370710030E0900E10F000E1403110731C148080F0C31360F118029800000071A030102030200040300010403000204030003D3
:4021400004020004030102031305000102030401020102010201020201020102170500010203040200040101020203010402000403010203150301020302000401040202A0
:40218000030104020004030102031601040104050001020304020004020104020204020304180301020302000401040104040001020301000500010203041603010203024F
:4021C0000004020004040001020301000101020203130102010201020103010402000405000102030418030102030200040200040301020302000402000403010203160224
:4022000001020103010404010203040200040200040301020319020004020004020004020004050001020304020004030102031B04000102030200040200040200040400E5
:4022400001020302000404000102031403010203020004010001000100020004030102031904000102030200040200040200040200040200040400010203190500010203A4
:40228000040100010004000102030100010005000102030414010001000100010003000102010005000102030418030102030200040200040200040300030401000401028A
:4022C0000304180200040200040200040200040500010203040200040200041203010203010201020102010201020301020311030102030200040104010401040104010420
:4023000016020004020004020004020003030001020200030200041205000102030401000100010001000100010018020004020004020004020004030002040400010304F3
:4023400002000418020004020004020004030003040300020403000104020004170301020302000402000402000402000402000403010203150100010001000100040001A7
:40238000020302000404000102031703010204020003020004020004020004020004030102031902000402000402000402000404000102030200040400010203160301025A
:4023C0000302000401040104030102030100040102030412010201020102010201020102050001020304160301020302000402000402000402000402000402000414010225
:4024000002010302010302000402000402000402000418020004040001030403000204020004020004020004020004140200040200040200040201030102020103020004F2
:40244000100102010201020102010202010302000416050001020304010001010102010301040500010203040801020000000000000700000000000000000000C84900408B
:402480001900205100401000405100403000C0510040100000000140800000010140000F00140140000800400140000A004C0140000200500140200080000140500200484B
:4024C0008000000053435245454E2050524553534544000043000000F8B500BFF8BC08BC9E4670474D000000610F0000F8B500BFF8BC08BC9E46704729000000102500000A
:40250000C880FF1F780000003000000000000000000000000000E02EC05D00001800000000366E0100000000000000000000000000000000000000000000000000000000A5
:4025400000000000D4240000000000000000000000000000000000000000000000000000000000000000000000000000000000000000000000000000000000000000000063
:4025800000000000DC80FF1F0000000000000000000000000000000000000000000000000000000000000000000000000000000000000000000000000000000000000000A1
:4025C00000000000000000000000000000000000000000000000000000000000000000000000000000000000000000000000000000000000000000000000000000000000DB
:40260000000000000000000000000000000000000000000000000000000000000000000000000000000000000000000000000000000000000000000000000000000000009A
:40264000000000000000000000000000000000000000000000000000000000000000000000000000000000000000000000000000000000000000000000000000000000005A
:40268000000000000000000000000000000000000000000000000000000000000000000000000000000000000000000000000000000000000000000000000000000000001A
:020000040003F7
:0200000480007A
:4000000004520040016400400D0001402C0101403A0201403003014006050140041501400117014001190140041B0140034001400C4101400842014003430140074801406A
:4000400011490140094C0140074D014002500140025101400020012018C01940810F01020305050807010D08190D1B02350E37013B203F4059045F010402060207080EAA32
:4000800017051D801E8120042240230824032570261027402E802F883120375938053A803DA03E02448045A047084C014D0855015688571065406E0A6F9D76028D21C0D070
:4000C000C2F0C430CAB0CCF4CEBBD0F0D210D810000702380456050906090736086009050B3A0C840D130F0C10011102130D1680180A1A101B201C842004228024802604FD
:4001000028842C04307F34803530370F38023B803E105440580459045B045F018101840485018609880E980599019A0A9C039E04B20FB60FB701B888BF40D409D804D904A2
:40014000DB04DF0100140406060A09600C040D200E820F20175518101A021E801F10218026A02702316032803620370238063C043DA059085A815B206180652066406720A9
:4001800084809006928199289A8A9B559C809D40A170A201A310C0F6C2F3C4F0CCA4CE73D60FD878AA20AC04AE41B2C0B320EA20E201E403EA01EE08E608E608E201E4034F
:4001C000EA01EE0833203740CC300A0253105B02641086019F40A720C240D420D640D880E4403E109F40A720AB02AF10B010CE20EEC096109F40A7200340870496109F4008
:40020000A720C010E6100A020E025C0167088001820186019308AA10AF20C2C0D680D880E280E4C0EA80EE10132114401F807B107F108440C40EC601DE03831187109301BE
:400240009720A710AB20AF8000010801000F03C0019A020000000000022108D81D13006402980D0202FC04031D9800021D3800C00D9A10001D00000000020098000200001C
:400280000FE00000000F1013000002220000400023051000040EDCFB3DFFFFFF2200F008040000000000022004040404000000010000C00040011011C00100114001400197
:4002C0000000000000000000000000000000000040A3A300A20000000120200000000000000B0B00000000000000C000C00038000E001801000000000000000000000000A0
:4003000000000000000000000000000000000000000000000000000000000000000000000000000000000000000000000000000000000000000000000000000000000000BD
:40034000000000000000000000000000000000000000000000000000000000000000000000000000000000000000000000000000000000000000000000000000000000007D
:40038000000000000000000000000000000000000000000000000000000000000000000000000000000000000000000000000000000000000000000000000000000000003D
:4003C00000000000000000000000000000000000000000000000000000000000000000000000000000000000000000000000000000000000000000000000000000000000FD
:0200000490006A
:0400000000004005B7
:0200000490105A
:04000000BC90ACAF55
:0200000490303A
:0200000041BB02
:0200000490402A
:4000000000000000000000000000000000000000000000000000000000000000000000000000000000000000000000000000000000000000000000000000000000000000C0
:400040000000000000000000000000000000000000000000000000000000000000000000000000000000000000000000000000000000000000000000000000000000000080
:400080000000000000000000000000000000000000000000000000000000000000000000000000000000000000000000000000000000000000000000000000000000000040
:4000C0000000000000000000000000000000000000000000000000000000000000000000000000000000000000000000000000000000000000000000000000000000000000
:0200000490501A
:0C00000000012E16106900012E2452246D
:00000001FF