:4000000000800020110000000939000009390000034A08B51268034B1A6003F095FC00BFFA460040BC76004010B5054C237833B9044B13B10448AFF300800123237010BD68
:400040009081FF1F00000000749A0000084B10B51BB108490848AFF300800848036803B910BD074B002BFBD0BDE81040184700BF000000009481FF1F749A0000C880FF1F56
:400080000000000010B584B062B603F045FD03F033FD012003F024FD642003F0B5FC002003F01EFD642003F0AFFC012003F018FD642003F0A9FC00F0C3F904F0E3F904F075
:4000C000C1F904F0D9F903F0C9FD03F085FD03F007FE03F095FE0021382004F06BF8A42004F0F4F8002004F0F1F804F0D3F803F0E1FE114B04221A6004F016FA03210F4857
:4001000004F03BFC0E490F4804F030FB04460E4A01AB07CA03C301A91A802046092204F056FC204604F05CFA00F064FC074B4FF0FF321A60FEE700BFE891FF1FAC9A00000A
:40014000B49A0000B89A0000C49A0000E491FF1F38B5054602440B44013A013B002042EA054543EA014403F0AFFC2A2003F028FD03F0A2FC0028FBD103F09EFC0128FBD19B
:4001800003F0A2FC002003F08BFC280E03F018FD03F092FC0128FBD1C5F3074003F010FD03F08AFC0128FBD1C5F3072003F008FD03F082FC0128FBD1E8B203F001FD03F038
:4001C0007BFC0128FBD103F06BFC002003F07CFC2B2003F0F5FC03F06FFC0028FBD103F06BFC0128FBD103F06FFC002003F058FC200E03F0E5FC03F05FFC0128FBD1C4F31D
:40020000074003F0DDFC03F057FC0128FBD1C4F3072003F0D5FC03F04FFC0128FBD1E0B203F0CEFC03F048FC0128FBD103F038FC002003F049FC2C2003F0C2FC03F03CFC79
:400240000028FBD103F038FC0128FBD138BD00BF2DE9F04F164683469AB2984653189BB2C3F1F00080B287B00FFA80F91FFA86FE02AFB9F1EF0F79600EEB0B04BD6B08DCEC
:40028000A4B2C4F5A07189B20FFA81FCBCF5A07F33DB7B682A7806EBD67608EBD8780BEB660B03EB6806002A66D0002300E0234615F8012F5C1C002AF9D1093323F00703E9
:4002C000ADEB030D02AB18462246291B07F055FB0346C4EBC40202EBD272521052420BEB0200012500221A55711E0095033001F0C9FC1437BD46BDE8F08FC144B9F1F00F97
:40030000B444C6BF0FFA83FA1A46C246BCF5A07FD5BFB146234673460FFA84F9FFF718FF012003F0D1FB002003F0BAFBB9F1000F1EDDBAF1000FC8BF544612DDFF2003F00A
:400340003FFC03F0B9FB0128FBD1FF2003F038FC03F0B2FB0128FBD1013CA3B21CB2002BECD109F1FF339BB20FFA83F9002BE0D1012003F095FB8CE707F10C031446AEE79C
:400380002DE9F04190469AB211441F468BB2C3F1F004A4B20FFA84FE1FFA88F6BEF1EF0F3044BDF8185008DC80B2C0F5A07189B20FFA81FCBCF5A07F01DBBDE8F081BE441E
:4003C000BEF1F00FC444C4BF1FB21A46BCF5A07FC6BF0FFA80F8034633462046FFF7B8FE012003F071FB002003F05AFBB8F1000F4FEA1526EDB21DDD002FC8BF3C4612DD15
:40040000304603F0DDFB03F057FB0128FBD1284603F0D6FB03F050FB0128FBD1013CA3B21CB2002BECD108F1FF339BB20FFA83F8002BE1D10120BDE8F04103F031BB00BF26
:400440002DE9F8431F4EEF24002003F03DFB204603F0B6FB03F030FB0028FBD103F02CFB0128FBD106F10208444696F8019009F07F07BB1C1E44B44214D014F8015B012070
:4004800003F022FB284603F09BFB03F015FB0028FBD103F011FB0128EDD003F00DFB0128F7D1E8E719F0800F08EB070605D118F80740002CC8D1BDE8F883782003F0A4FACB
:4004C000F5E700BFD09A00002DE9F04FC1EB030AC0EB020BBAF1000FB8BFCAF1000ABBF1000FB8BFCBF1000B87B0DA45914614468846BDF8402000F39380054651461C468E
:4005000040464D4509DD47462E4698464D463B46B146011B0029B8BF4942AEB2C6EB090080B204B204EBD474434502904FEA640470DD012303938BB2C6F59F760193130AD3
:4005400001360493D3B2B6B20593DA4536DDA6F1500080B2EF281FFA88F720D8C7F59F71013189B2B1F5A07F19D201231A46FFF7EFFD012003F0A8FA002003F091FA0498F7
:4005800003F01EFB03F098FA0128FBD1059803F017FB03F091FA0128FBD103F081FA019BE41AA3B21CB2002C2CDB01352DB2013EA945B6B2C9DA07B0BDE8F08F1FFA88F782
:4005C000C7F1EF0080B2EF28E9D8B6F5A07FE6D201231A463146FFF7BBFD012003F074FA002003F05DFA049803F0EAFA03F064FA0128FBD1059803F0E3FA03F05DFA01289A
:40060000FBD1CAE7039A1744029A0FFA87F89C1824B2CAE7A945CEDB4FF6FF7303938AE799460D462346594680466AE72DE9F04F8BB01C4602AF7B610B469246F9600146F8
:40064000A2B2D3189BB21FFA8AF538616C18C3F1F000B7F8481080B206B27960B7F84C10EF2EB960D7F8508009DCA4B2C4F5A0711FFA81FC0FFA8CFEBEF5A07F39DB7B69F3
:400680000AEBDA7A03EBD3763B6998F8002003EB6A05FB6803EB6606002A6ED0002300E0234618F8012F5C1C002AF9D1093323F00703ADEB030D02AB18462246C4EB0801A0
:4006C00007F05BF90346C4EBC40202EBD27252105242A8184FF0000E0125BA6803F804E0711E0095033001F0CDFA2437BD46BDE8F08F7969D6440E44F02EC6BF1A460FFAAB
:4007000083FB8B46BEF5A07FDABFD1462B4623466146C8BF0FFA84F9FFF71AFD012003F0D3F97B6800201E0ADDB203F0B9F9B9F1000F1EDDBBF1000FC8BF5C4612DD304611
:4007400003F03EFA03F0B8F90128FBD1284603F037FA03F0B1F90128FBD1013CA3B21CB2002BECD109F1FF339BB20FFA83F9002BE0D1012003F094F981E707F11C031446F5
:40078000A7E700BF2DE9F04F0E468BB000214FF4A073F022814602AF0846FFF7D9FC012003F092F9002003F07BF94FF4A078F025002003F005FA03F07FF90128FBD10020C6
:4007C00003F0FEF903F078F901280446FAD1013DADB2002DECD108F1FF381FFA88F8B8F1000FE4D103F05CF9484606F059FD02460B460020764906F0E3FE07F051F84FF6BA
:40080000FF750A231946DC22824600951E20FFF75BFE1E22C923009510460A21FFF754FE012E8CBF4FF00C084FF01508F307009400F1BD80674B2A460421E62001F022FA07
:4008400000942A46644BD921032001F01BFAB9F1040F26DD1FFA8AFB0BF10A04A4B20AF10A0605252A465D4907F1140007F00AFD4FF6FF7223B2194600921E20DC22FFF7E1
:4008800023FE01230093314607F114034FF6FF720320053501F0F6F95C44A9455644A4B2E0DA4FF0BD0A9AFBF8FA1FFA88FB0BF11E0408F11E0601252A46494907F1080023
:4008C00007F0E0FC4FF6FF7322B2104600930A21CA234FF00109FFF7F7FD4D443046CDF8009007F108034FF6FF72042101F0CAF95C445545A4B24644DEDD3A4A3C2392E846
:4009000003001E22F860397448468221FFF720FC484603F0D9F8002003F0C2F83C251E24F82003F04DF903F0C7F80128FBD1002003F046F903F0C0F80128FBD1013CA4B2ED
:40094000002CEDD16B1E9DB2002DE8D103F0A8F83B7B002B39D02B4607F10C0100E02B4611F8012F5D1C002AF9D103F1090222F00702ADEB020D02AB18462A46491B06F04F
:40098000FCFFC5EBC50202EBD27203465010C0F1A300002201215A550091DF2101F072F9114B022224371A60BD46BDE8F08F2A460E4B0421E62001F065F900942A460C4B9D
:4009C000D921032001F05EF941E7A3203B1DE0E700008E40409B0000489B0000689B00006C9B0000709B0000E091FF1F549B00005C9B00002DE9F041A02382B00024C94DFC
:400A0000194602AFF02220462C60FFF7A1FB012003F05AF8204603F043F8A026F025002003F0CEF803F048F80128FBD11F2003F0C7F803F041F801280446FAD1013DADB242
:400A4000002DECD1013EB6B2002EE7D103F028F83146A023F0223046FFF77AFB204603F033F8304603F01CF8A026F025F82003F0A7F803F021F80128FBD1002003F0A0F88D
:400A800003F01AF801280446FAD1013DADB2002DECD1013EB6B2002EE7D103F001F80223F0229F213046FFF753FB204603F00CF8304602F0F5FF0226F025002003F080F8C1
:400AC00002F0FAFF0128FBD1002003F079F802F0F3FF01280446FAD1013DADB2002DECD1013EB6B2002EE7D102F0DAFF31464FF4A07302227720FFF72BFB204602F0E4FFB2
:400B0000304602F0CDFF4FF4A0760225002003F057F802F0D1FF0128FBD1002003F050F802F0CAFF01280446FAD1013DADB2002DECD1013EB6B2002EE7D102F0B1FFFC23BF
:400B4000162223216D20FFF703FB204602F0BCFF304602F0A5FFFC261625002003F030F802F0AAFF0128FBD1002003F029F802F0A3FF01280446FAD1013DADB2002DECD1A4
:400B8000013EB6B2002EE7D102F08AFF664A122300926F21F8222320FFF75AFB8B236322AB218320FFF7D4FA204602F08DFF304602F076FF8B2563249E2003F001F802F084
:400BC0007BFF0128FBD19F2002F0FAFF02F074FF0128FBD1013CA4B2002CEDD16B1E9DB2002DE8D102F05CFF2B46504900E0234611F8015F5C1C002DF9D1093323F0070376
:400C00006E46ADEB030D02AB091B1846224606F0B4FE0346C4EBC40202EBD27250104FF001081D552A46CDF800803A21C0F1520001F028F88B23B5466322AB210A20FFF7D2
:400C400087FA404602F040FF284602F029FF8B2563249E2002F0B4FF02F02EFF0128FBD19F2002F0ADFF02F027FF0128FBD1013CA4B2002CEDD16B1E9DB2002DE8D102F06F
:400C80000FFF2B462A4900E0234611F8015F5C1C002DF9D1093323F007036E46ADEB030D02AB091B1846224606F067FE0346C4EBC40202EBD27250104FF001081D552A4601
:400CC000CDF80080B321C0F1520000F0DBFF8B23B54663220A218320FFF73AFA404602F0F3FE284602F0DCFE8B256324FC2002F067FF02F0E1FE0128FBD1F32002F060FF70
:400D000002F0DAFE0128FBD1013CA4B2002CEDD16B1E9DB2002DE8D102F0C2FE2B4605490BE000BFE091FF1FA09B0000789B0000849B00008C9B0000234611F8015F5C1C31
:400D4000002DF9D1093323F007036E46ADEB030D02AB091B1846224606F00FFE0346C4EBC40202EBD27250104FF001081D552A46CDF800803A21C0F1F30000F083FF0A21D3
:400D80000846B5468B236322FFF7E2F9404602F09BFE284602F084FE8B256324FC2002F00FFF02F089FE0128FBD1F32002F008FF02F082FE0128FBD1013CA4B2002CEDD142
:400DC0006B1E9DB2002DE8D102F06AFE2B46124900E0234611F8015F5C1C002DF9D1093323F00703ADEB030D02AB091B2246184606F0C3FD0346C4EBC40202EBD272501051
:400E000001211D552A460091C0F1F300B32100F039FFBD46BDE8F081989B00002DE9F04794B002AF07F12C052C46B04A07F1140307CA03C3DFF8C0E207F13808DFF8BCC2AE
:400E40001A709EE80F0088E80F009CE80300A84B07F120064FEA114C78603981DFF8A0E293E8070003C69EE80300A24BDFF894E2327001260A0C87F80AC0F8603982BA7444
:400E8000CEF8006093E8070003C47723C921227079201A46FFF75CF9304602F015FE002002F0FEFD772677249E2002F089FE02F003FE0128FBD19F2002F082FE02F0FCFD6E
:400EC0000128FBD1013CA4B2002CEDD1731E9EB2002EE8D102F0E4FD3B7D002B00F0C68107F11401334600E0334611F8012F5E1C002AF9D103F1090222F007026C46ADEBE1
:400F0000020D02AB18463246891B06F036FDC6EBC60202EBD27203465010C0F13E004FF000094FF0010A03F806904A46CDF800A03A2100F0A7FE7723A5461A46C9214846AB
:400F4000FFF706F9504602F0BFFD484602F0A8FD77267724FC2002F033FE02F0ADFD0128FBD1F32002F02CFE02F0A6FD0128FBD1013CA4B2002CEDD1731E9EB2002EE8D10D
:400F800002F08EFD97F83830002B00F07B814146334600E0334611F8012F5E1C002AF9D103F1090222F007026C46ADEB020D02AB18463246891B06F0E0FCC6EBC60202EBD4
:400FC000D27203465010C0F13E004FF000084FF0010903F806804246CDF80090B32100F051FE7723A5461A4650217920FFF7B0F8484602F069FD404602F052FD77267724A2
:40100000FC2002F0DDFD02F057FD0128FBD1F32002F0D6FD02F050FD0128FBD1013CA4B2002CEDD1731E9EB2002EE8D102F038FD3B79002B00F022813346391D00E033467B
:4010400011F8012F5E1C002AF9D103F1090222F007026C46ADEB020D02AB18463246891B06F08BFCC6EBC60202EBD27203465010C0F1B7004FF000084FF0010903F80680E6
:401080004246CDF800903A2100F0FCFD7723A5461A4650214046FFF75BF8484602F014FD404602F0FDFC772677249E2002F088FD02F002FD0128FBD19F2002F081FD02F074
:4010C000FBFC0128FBD1013CA4B2002CEDD1731E9EB2002EE8D102F0E3FC97F82030002B00F0C88007F1200133460EE0BC9B0000C89B0000D49B0000E09B0000F09B0000FD
:40110000F89B0000E091FF1F334611F8012F5E1C002AF9D103F1090222F007026C46ADEB020D02AB18463246891B06F026FCC6EBC60202EBD27203465010C0F1B7004FF0C1
:4011400000084FF0010903F806804246CDF80090B32100F097FDA54607F10C030093414677234F22F120FFF773F877234F227921F1200095FFF76CF80223F022C721404695
:40118000FEF7E6FF484602F09FFC404602F088FC0226F025002002F013FD02F08DFC0128FBD1002002F00CFD02F086FC01280446FAD1013DADB2002DECD1013EB6B2002E46
:4011C000E7D102F06DFC31464FF4A07302227720FEF7BEFF204602F077FC304602F060FC4FF4A0760225002002F0EAFC02F064FC0128FBD1002002F0E3FC02F05DFC0128EF
:401200000446FAD1013DADB2002DECD1013EB6B2002EE7D102F044FC0223F0224F213046FEF796FF204602F04FFC304602F038FC0225F024002002F0C3FC02F03DFC01280D
:40124000FBD1002002F0BCFC02F036FC0128FBD1013CA4B2002CEDD1013DADB2002DE8D102F01EFC4837BD46BDE8F0876C463E203B4654E66C46B7203B4660E76C46B72070
:401280003B46F7E66C463E203B469EE6F0B5002183B0404C08464FF4A07302AFF02203252560FEF755FF012002F00EFC002002F0F7FB4FF4A076F025002002F081FC02F0C9
:4012C000FBFB0128FBD1002002F07AFC02F0F4FB01280446FAD1013DADB2002DECD1013EB6B2002EE7D102F0DBFB2B4B4FF6FF72642100940A2000F0C5FC32231E224FF488
:401300008771D220FEF724FF204602F0DDFB304602F0C6FB32251E24FF2002F051FC02F0CBFB0128FBD1FF2002F04AFC02F0C4FB0128FBD1013CA4B2002CEDD16B1E9DB25C
:40134000002DE8D102F0ACFB2B46144900E0234611F8015F5C1C002DF9D1093323F00703ADEB030D02AB091B2246184606F005FB0346C4EBC40202EBD272501001211D558E
:401380002A460091C0F11C000E2100F07BFC0437BD46F0BDE091FF1F009C0000F89B00002DE9F04300218BB0CD4C08464FF4A07302AFF02204252560FEF7CAFE012002F07D
:4013C00083FB002002F06CFB4FF4A076F025002002F0F6FB02F070FB0128FBD1002002F0EFFB02F069FB01280446FAD1013DADB2002DECD1013EB6B2002EE7D102F050FB52
:401400004FF4A073142231462046FEF7A1FE204602F05AFB304602F043FB4FF4A0751424FF2002F0CDFB02F047FB0128FBD1FF2002F0C6FB02F040FB0128FBD1013CA4B243
:40144000002CEDD16B1E9DB2002DE8D102F028FB2B46A44900E0234611F8015F5C1C002DF9D1093323F00703E846ADEB030D02AB091B2246184606F080FA0346C4EBC4023C
:4014800002EBD27250104FF00109974E1D552A46CDF80090E421C0F1A3003C1D00F0F2FB0FCE0FC496E8070003C4C54629464FF4A07322703C200A22FEF74AFE484602F004
:4014C00003FB284602F0ECFA4FF4A0750A24FF2002F076FB02F0F0FA0128FBD1FF2002F06FFB02F0E9FA0128FBD1013CA4B2002CEDD16B1E9DB2002DE8D102F0D1FA3B79DE
:40150000002B00F01D81391D2B4600E02B4611F8012F5D1C002AF9D103F1090222F007026C46ADEB020D02AB18462A46491B06F024FAC5EBC50202EBD27203465010C0F1CC
:40154000A30000264FF001085E553246CDF80080AE2100F097FB5023A5463222AA215A20FEF7F6FD404602F0AFFA304602F098FA50253224FF2002F023FB02F09DFA0128F3
:40158000FBD1FF2002F01CFB02F096FA0128FBD1013CA4B2002CEDD16B1E9DB2002DE8D102F07EFA2B46514900E0234611F8015F5C1C002DF9D1093323F007036E46ADEB4A
:4015C000030D02AB091B1846224606F0D6F90346C4EBC40202EBD27250104FF001081D552A46CDF800807C21C0F1710000F04AFB5023B546322246215A20FEF7A9FD404609
:4016000002F062FA284602F04BFA50253224FF2002F0D6FA02F050FA0128FBD1FF2002F0CFFA02F049FA0128FBD1013CA4B2002CEDD16B1E9DB2002DE8D102F031FA2B460D
:401640002B4900E0234611F8015F5C1C002DF9D1093323F007036E46ADEB030D02AB091B1846224606F089F90346C4EBC40202EBD27250104FF001081D552A46CDF8008053
:401680007C21C0F1D50000F0FDFA3223B5461E224FF48771D220FEF75BFD404602F014FA284602F0FDF932251E24FF2002F088FA02F002FA0128FBD1FF2002F081FA02F0AD
:4016C000FBF90128FBD1013CA4B2002CEDD16B1E9DB2002DE8D102F0E3F92B4605490CE0E091FF1FE09B00002C9C0000249C0000289C0000F89B0000234611F8015F5C1C1A
:40170000002DF9D1093323F00703ADEB030D02AB091B2246184606F030F90346C4EBC40202EBD272501001211D552A460091C0F11C000E2100F0A6FA2437BD46BDE8F08315
:401740006C46A3203B46FCE62DE9F041002184B0B84C08464FF4A07302AFF02205252560FEF7F6FC012002F0AFF9002002F098F94FF4A076F025002002F022FA02F09CF973
:401780000128FBD1002002F01BFA02F095F901280446FAD1013DADB2002DECD1013EB6B2002EE7D102F07CF94FF4A073142231462046FEF7CDFC204602F086F9304602F06E
:4017C0006FF94FF4A0751424FF2002F0F9F902F073F90128FBD1FF2002F0F2F902F06CF90128FBD1013CA4B2002CEDD16B1E9DB2002DE8D102F054F92B468F4900E0234647
:4018000011F8015F5C1C002DF9D1093323F007036E46ADEB030D02AB091B1846224606F0ACF80346C4EBC40202EBD27250104FF001081D552A46CDF80080E421C0F1A300D3
:4018400000F020FA4623B5461A4632218220FEF77FFC404602F038F9284602F021F946254624FF2002F0ACF902F026F90128FBD1FF2002F0A5F902F01FF90128FBD1013C96
:40188000A4B2002CEDD16B1E9DB2002DE8D102F007F92B46694900E0234611F8015F5C1C002DF9D1093323F007036E46ADEB030D02AB091B1846224606F05FF80346C4EB63
:4018C000C40202EBD27250104FF001081D552A46CDF800804A21C0F1EE0000F0D3F94623B5461A4632212820FEF732FC404602F0EBF8284602F0D4F846254624FF2002F06D
:401900005FF902F0D9F80128FBD1FF2002F058F902F0D2F80128FBD1013CA4B2002CEDD16B1E9DB2002DE8D102F0BAF82B46444900E0234611F8015F5C1C002DF9D109334A
:4019400023F007036E46ADEB030D02AB091B1846224606F012F80346C4EBC40202EBD27250104FF001081D552A46CDF80080A421C0F1EE0000F086F9B546324B391D186878
:401980000A2205F0F8FF03223B1D009273214FF6FF72642000F076F932231E224FF48771D220FEF7D5FB404602F08EF8284602F077F832251E24FF2002F002F902F07CF874
:4019C0000128FBD1FF2002F0FBF802F075F80128FBD1013CA4B2002CEDD16B1E9DB2002DE8D102F05DF82B46174900E0234611F8015F5C1C002DF9D1093323F00703ADEB35
:401A0000030D02AB091B2246184605F0B6FF0346C4EBC40202EBD272501001211D552A460091C0F11C000E2100F02CF90837BD46BDE8F081E091FF1F489C0000649C000095
:401A4000709C0000E891FF1FF89B0000F0B5002183B0404C08464FF4A07302AFF02206252560FEF775FB012002F02EF8002002F017F84FF4A076F025002002F0A1F802F0CA
:401A80001BF80128FBD1002002F09AF802F014F801280446FAD1013DADB2002DECD1013EB6B2002EE7D101F0FBFF2B4B4FF6FF72642100940A2000F0E5F832231E224FF42B
:401AC0008771D220FEF744FB204601F0FDFF304601F0E6FF32251E24FF2002F071F801F0EBFF0128FBD1FF2002F06AF801F0E4FF0128FBD1013CA4B2002CEDD16B1E9DB2B5
:401B0000002DE8D101F0CCFF2B46144900E0234611F8015F5C1C002DF9D1093323F00703ADEB030D02AB091B2246184605F025FF0346C4EBC40202EBD272501001211D5580
:401B40002A460091C0F11C000E2100F09BF80437BD46F0BDE091FF1F7C9C0000F89B00002DE9F0410F4600218AB04FF4A073F02280460846FEF7ECFA012001F0A5FF00209C
:401B800001F08EFF4FF4A076F025002002F018F801F092FF0128FBD1002002F011F801F08BFF01280446FAD1013DADB2002DECD1013EB6B2002EE7D101F072FF2D4B0722B5
:401BC0001A6004A940460A2205F0D5FE07A938460A2205F0D0FE04AB00944FF6FF726E21642000F04FF8642107AB009408464FF6FF7200F047F800941F4B4FF6FF72C82149
:401C0000642000F03FF8022300934FF6FF721B4B9621642000F036F8194A1E233146304600923222FEF714FB02F0EAF83146382002F0C0FAA42002F049FB2146382002F057
:401C4000F5FA304602F06EFB054602F023FB02F031F903A928460A2205F08DFE03AB00944FF6FF723221FA2000F00CF80AB0BDE8F08100BFE091FF1F989C0000AC9C000074
:401C8000F89B00002DE9F04F8DB09DF858400393651E1B78072D0890049188BF0124002B5FD091464D46A2B2C2EBC201520092B289B20792621E06910292203B3A2B3CD8E8
:401CC000DFE813F02A073B003B003B003B003B003B003B003B003B003B003B003B003B00D9063B00940608087E07C3076D0363091E09A809A60494083B003B003B003B00F1
:401D00003B003B003B004D08D908D802BC0575053005EB0452060106E20A1D03330B53040204B203400AED09910A850235029201E5014201F200A200520083B20593059B20
:401D4000069A134418B2B0F59E7F04DD049B0898093B1BB20493039A12F8013F0392002BABD10DB0BDE8F08F4FF0230B1A23012201E0A04B9B5C01331A44BBF1010B92B2F6
:401D8000F7D183B218460746079E04990593891B89B2531CCA1D1FFA83FA13B2C6EB07090B930BB209930FFA89F9CDF828B0914B13F80AB0BBF1000F15D00BEB0A071F4486
:401DC000099A0A9B03EB02088A4B03EB0A0616F8010F2346009504FB009022464146FEF7CFFAB742F3D10A9A0299099B0A4401330A920B9A1BB20BF1010BDA4493420993B1
:401E00001FFA8AFAD3D19AE74FF0220B1A23012201E0784B9B5C01331A44BBF1010B92B2F7D183B218460746079E04990593891B89B2531CCA1D1FFA83FA13B2C6EB070918
:401E40000B930BB209930FFA89F9CDF828B0694B13F80AB0BBF1000F15D00BEB0A071F44099A0A9B03EB0208624B03EB0A0616F8010F2346009504FB009022464146FEF746
:401E80007FFAB742F3D10A9A0299099B0A4401330A920B9A1BB20BF1010BDA44934209931FFA8AFAD3D14AE74FF0210B1A23012201E0504B9B5C01331A44BBF1010B92B2A4
:401EC000F7D183B218460746079E04990593891B89B2531CCA1D1FFA83FA13B2C6EB07090B930BB209930FFA89F9CDF828B0414B13F80AB0BBF1000F15D00BEB0A071F4495
:401F0000099A0A9B03EB02083A4B03EB0A0616F8010F2346009504FB009022464146FEF72FFAB742F3D10A9A0299099B0A4401330A920B9A1BB20BF1010BDA44934209935F
:401F40001FFA8AFAD3D1FAE64FF0200B1A23012201E0284B9B5C01331A44BBF1010B92B2F7D183B218460746079E04990593891B89B2531CCA1D1FFA83FA13B2C6EB0709CA
:401F80000B930BB209930FFA89F9CDF828B0194B13F80AB0BBF1000F15D00BEB0A071F44099A0A9B03EB0208124B03EB0A0616F8010F2346009504FB009022464146FEF7A5
:401FC000DFF9B742F3D10A9A0299099B0A4401330A920B9A1BB20BF1010BDA44934209931FFA8AFAD3D1AAE64FF01E0B1A23012204E000BFBC9C00009D4B9B5C01331A443D
:40200000BBF1010B92B2F7D183B218460746079E04990593891B89B2531CCA1D1FFA83FA13B2C6EB07090B930BB209930FFA89F9CDF828B08E4B13F80AB0BBF1000F15D074
:402040000BEB0A071F44099A0A9B03EB0208884B03EB0A0616F8010F2346009504FB009022464146FEF78CF9B742F3D10A9A0299099B0A4401330A920B9A1BB20BF1010B99
:40208000DA44934209931FFA8AFAD3D157E64FF01F0B1A23012201E0754B9B5C01331A44BBF1010B92B2F7D183B218460746079E04990593891B89B2531CCA1D1FFA83FAD7
:4020C00013B2C6EB07090B930BB209930FFA89F9CDF828B0664B13F80AB0BBF1000F15D00BEB0A071F44099A0A9B03EB0208604B03EB0A0616F8010F2346009504FB009027
:4021000022464146FEF73CF9B742F3D10A9A0299099B0A4401330A920B9A1BB20BF1010BDA44934209931FFA8AFAD3D107E64FF01D0B1A23012201E04D4B9B5C01331A44C8
:40214000BBF1010B92B2F7D183B218460746079E04990593891B89B2531CCA1D1FFA83FA13B2C6EB07090B930BB209930FFA89F9CDF828B03E4B13F80AB0BBF1000F15D083
:402180000BEB0A071F44099A0A9B03EB0208384B03EB0A0616F8010F2346009504FB009022464146FEF7ECF8B742F3D10A9A0299099B0A4401330A920B9A1BB20BF1010B49
:4021C000DA44934209931FFA8AFAD3D1B7E54FF01C0B1A23012201E0254B9B5C01331A44BBF1010B92B2F7D183B218460746079E04990593891B89B2531CCA1D1FFA83FA8A
:4022000013B2C6EB07090B930BB209930FFA89F9CDF828B0164B13F80AB0BBF1000F15D00BEB0A071F44099A0A9B03EB0208104B03EB0A0616F8010F2346009504FB009085
:4022400022464146FEF79CF8B742F3D10A9A0299099B0A4401330A920B9A1BB20BF1010BDA44934209931FFA8AFAD3D167E500BFBC9C0000049A07994FF0030B531A82B24F
:4022800010469BB20592DA1D1BB2C1EB000912B20A9300230B920FFA89F909934FF4907ABBF1000F16D0B34B0BEB0A071F44099A0A9B03EB0208AF4B03EB0A0616F8010F77
:4022C0002346009504FB009022464146FEF758F8B742F3D1099A02990A9B0A44013309920B9A1BB20BF1010BDA4493420A931FFA8AFA3FF424AD9F4B13F80AB0D0E74FF010
:40230000140B1A23012201E09A4B9B5C01331A44BBF1010B92B2F7D183B218460746079E04990593891B89B2531CCA1D1FFA83FA13B2C6EB07090B930BB209930FFA89F97E
:40234000CDF828B08B4B13F80AB0BBF1000F15D00BEB0A071F440A9A099B03EB0208854B03EB0A0616F8010F2346009504FB009022464146FEF704F8B742F3D10A9A029986
:40238000099B0A4401330A920B9A1BB20BF1010BDA44934209931FFA8AFAD3D1CFE4049A07994FF0010B531A82B210469BB20592DA1D1BB2C1EB000912B20A9300230B9260
:4023C0000FFA89F909934FF05F0ABBF1000F16D0684B0BEB0A071F44099A0A9B03EB0208644B03EB0A0616F8010F2346009504FB009022464146FDF7C3FFBE42F3D1099AAC
:4024000002990A9B0A44013309920B9A1BB20BF1010BDA4493420A931FFA8AFA3FF48FAC544B13F80AB0D0E74FF0180B1A23012201E0504B9B5C01331A44BBF1010B92B24C
:40244000F7D183B218460746079E04990593891B89B2531CCA1D1FFA83FA13B2C6EB07090B930BB209930FFA89F9CDF828B0414B13F80AB0BBF1000F15D00BEB0A071F440F
:402480000A9A099B03EB02083A4B03EB0A0616F8010F2346009504FB009022464146FDF76FFFB742F3D10A9A0299099B0A4401330A920B9A1BB20BF1010BDA449342099396
:4024C0001FFA8AFAD3D13AE44FF0170B1A23012201E0284B9B5C01331A44BBF1010B92B2F7D183B218460746079E04990593891B89B2531CCA1D1FFA83FA13B2C6EB070910
:402500000B930BB209930FFA89F9CDF828B0194B13F80AB0BBF1000F15D00BEB0A071F440A9A099B03EB0208124B03EB0A0616F8010F2346009504FB009022464146FDF720
:402540001FFFBE42F3D10A9A0299099B0A4401330A920B9A1BB20BF1010BDA44934209931FFA8AFAD3D1FFF7EABB4FF0160B1A23012203E0BC9C0000AF4B9B5C01331A4415
:40258000BBF1010B92B2F7D183B218460746079E04990593891B89B2531CCA1D1FFA83FA13B2C6EB07090B930BB209930FFA89F9CDF828B0A04B13F80AB0BBF1000F15D0DD
:4025C0000BEB0A071F440A9A099B03EB02089A4B03EB0A0616F8010F2346009504FB009022464146FDF7CCFEBE42F3D10A9A0299099B0A4401330A920B9A1BB20BF1010BB7
:40260000DA44934209931FFA8AFAD3D1FFF797BB049A07994FF0030B531A82B210469BB20592DA1D1BB2C1EB000912B20A9300230B920FFA89F909934FF0BA0ABBF1000F9D
:4026400016D07D4B0BEB0A071F44099A0A9B03EB0208794B03EB0A0616F8010F2346009504FB009022464146FDF78AFEB742F3D1099A02990A9B0A44013309920B9A1BB2FB
:402680000BF1010BDA4493420A931FFA8AFA3FF456AB694B13F80AB0D0E7049A07994FF0030B531A82B210469BB20592DA1D1BB2C1EB000912B2099300230B920FFA89F9F7
:4026C0000A934FF4BF7ABBF1000F16D05A4B0BEB0A071F440A9A099B03EB0208564B03EB0A0616F8010F2346009504FB009022464146FDF745FEBE42F3D10A9A0299099BBA
:402700000A4401330A920B9A1BB20BF1010BDA44934209931FFA8AFA3FF411AB464B13F80AB0D0E7049A079940F2691A531A82B210469BB20592DA1D1BB2C1EB000912B2CE
:40274000099300230B920FFA89F90A934FF0010BBBF1000F16D0384B0BEB0A071F440A9A099B03EB0208344B03EB0A0616F8010F2346009504FB009022464146FDF700FEB3
:40278000BE42F3D10A9A0299099B0A4401330A920B9A1BB20BF1010BDA44934209931FFA8AFA3FF4CCAA244B13F80AB0D0E7049A079940F24F1A531A82B210469BB2059266
:4027C000DA1D1BB2C1EB000912B20A9300230B920FFA89F909934FF0050BBBF1000F16D0154B0BEB0A071F44099A0A9B03EB0208114B03EB0A0616F8010F2346009504FBA9
:40280000009022464146FDF7BBFDB742F3D1099A02990A9B0A44013309920B9A1BB20BF1010BDA4493420A931FFA8AFA3FF487AA014B13F80AB0D0E7BC9C0000049A079947
:4028400040F2351A531A82B210469BB20592DA1D1BB2C1EB000912B20A9300230B920FFA89F909934FF0040BBBF1000F16D0AD4B0BEB0A071F44099A0A9B03EB0208A94BB6
:4028800003EB0A0616F8010F2346009504FB009022464146FDF774FDB742F3D1099A02990A9B0A44013309920B9A1BB20BF1010BDA4493420A931FFA8AFA3FF440AA994BB6
:4028C00013F80AB0D0E74FF0120B1A23012201E0944B9B5C01331A44BBF1010B92B2F7D183B218460746079E04990593891B89B2531CCA1D1FFA83FA13B2C6EB07090B93EA
:402900000BB209930FFA89F9CDF828B0854B13F80AB0BBF1000F15D00BEB0A071F440A9A099B03EB02087F4B03EB0A0616F8010F2346009504FB009022464146FDF720FDC4
:40294000BE42F3D10A9A0299099B0A4401330A920B9A1BB20BF1010BDA44934209931FFA8AFAD3D1FFF7EBB9049A079940F2971A531A82B210469BB20592DA1D1BB2C1EB42
:40298000000912B2099300230B920FFA89F90A93644B13F80AB0BBF1000F15D00BEB0A071F440A9A099B03EB02085E4B03EB0A0616F8010F2346009504FB009022464146C7
:4029C000FDF7DEFCBE42F3D10A9A0299099B0A4401330A920B9A1BB20BF1010BDA44934209931FFA8AFAD3D1FFF7A9B9049A07994FF0030B531A82B210469BB20592DA1D45
:402A00001BB2C1EB000912B20A9300230B920FFA89F909934FF0020ABBF1000F16D0414B0BEB0A071F44099A0A9B03EB02083D4B03EB0A0616F8010F2346009504FB009079
:402A400022464146FDF79CFCBE42F3D1099A02990A9B0A44013309920B9A1BB20BF1010BDA4493420A931FFA8AFA3FF468A92D4B13F80AB0D0E74FF0240B1A23012201E089
:402A8000284B9B5C01331A44BBF1010B92B2F7D183B218460746079E04990593891B89B2531CCA1D1FFA83FA13B2C6EB07090B930BB209930FFA89F9CDF828B0194B13F8BD
:402AC0000AB0BBF1000F15D00BEB0A071F44099A0A9B03EB0208134B03EB0A0616F8010F2346009504FB009022464146FDF748FCBE42F3D10A9A0299099B0A4401330A92DF
:402B00000B9A1BB20BF1010BDA449A4209931FFA8AFAD3D1FFF713B94FF0250B1A23012204E000BFBC9C0000AF4B9B5C01331A44BBF1010B92B2F7D183B218460746079EEC
:402B400004990593891B89B2531CCA1D1FFA83FA13B2C6EB07090B930BB209930FFA89F9CDF828B0A04B13F80AB0BBF1000F15D00BEB0A071F44099A0A9B03EB02089A4BD1
:402B800003EB0A0616F8010F2346009504FB009022464146FDF7F4FBBE42F3D10A9A0299099B0A4401330A920B9A1BB20BF1010BDA449A4209931FFA8AFAD3D1FFF7BFB817
:402BC000049A07994FF0050B531A82B210469BB20592DA1D1BB2C1EB000912B20A9300230B920FFA89F909934FF0310ABBF1000F16D07D4B0BEB0A071F44099A0A9B03EB29
:402C00000208794B03EB0A0616F8010F2346009504FB009022464146FDF7B2FBB742F3D1099A02990A9B0A44013309920B9A1BB20BF1010BDA4493420A931FFA8AFA3FF4F6
:402C40007EA8694B13F80AB0D0E7049A07994FF0030B531A82B210469BB20592DA1D1BB2C1EB000912B20A9300230B920FFA89F909934FF0490ABBF1000F16D05A4B0BEB09
:402C80000A071F44099A0A9B03EB0208564B03EB0A0616F8010F2346009504FB009022464146FDF76DFBB742F3D1099A02990A9B0A44013309920B9A1BB20BF1010BDA4476
:402CC00093420A931FFA8AFA3FF439A8464B13F80AB0D0E7049A07994FF0050B531A82B210469BB20592DA1D1BB2C1EB000912B20A9300230B920FFA89F909934FF01D0A15
:402D0000BBF1000F16D0384B0BEB0A071F44099A0A9B03EB0208344B03EB0A0616F8010F2346009504FB009022464146FDF728FBB742F3D1099A02990A9B0A4401330992DA
:402D40000B9A1BB20BF1010BDA449A420A931FFA8AFA3EF4F4AF244B13F80AB0D0E7049A07994FF0020B531A82B210469BB20592DA1D1BB2C1EB000912B20A9300230B92E6
:402D80000FFA89F909934FF0EA0ABBF1000F16D0154B0BEB0A071F44099A0A9B03EB0208114B03EB0A0616F8010F2346009504FB009022464146FDF7E3FAB742F3D1099AE9
:402DC00002990A9B0A44013309920B9A1BB20BF1010BDA4493420A931FFA8AFA3EF4AFAF014B13F80AB0D0E7BC9C0000049A07994FF0020B531A82B210469BB20592DA1DC3
:402E00001BB2C1EB000912B20A9300230B920FFA89F909934FF0D30ABBF1000F16D0A24B0BEB0A071F44099A0A9B03EB02089E4B03EB0A0616F8010F2346009504FB0090E2
:402E400022464146FDF79CFABE42F3D1099A02990A9B0A44013309920B9A1BB20BF1010BDA4493420A931FFA8AFA3EF468AF8E4B13F80AB0D0E7049A07994FF0040B531AD7
:402E800082B210469BB20592DA1D1BB2C1EB000912B20A9300230B920FFA89F909934FF4827ABBF1000F16D07F4B0BEB0A071F44099A0A9B03EB02087B4B03EB0A0616F8BD
:402EC000010F2346009504FB009022464146FDF757FAB742F3D1099A02990A9B0A44013309920B9A1BB20BF1010BDA4493420A931FFA8AFA3EF423AF6B4B13F80AB0D0E767
:402F0000049A07994FF0030B531A82B210469BB20592DA1D1BB2C1EB000912B2099300230B920FFA89F90A934FF08F0ABBF1000F16D05D4B0BEB0A071F440A9A099B03EBA9
:402F40000208594B03EB0A0616F8010F2346009504FB009022464146FDF712FAB742F3D10A9A0299099B0A4401330A920B9A1BB20BF1010BDA44934209931FFA8AFA3EF475
:402F8000DEAE494B13F80AB0D0E7049A07994FF0030B531A82B210469BB20592DA1D1BB2C1EB000912B20A9300230B920FFA89F909934FF0760ABBF1000F16D03A4B0BEB73
:402FC0000A071F44099A0A9B03EB0208364B03EB0A0616F8010F2346009504FB009022464146FDF7CDF9B742F3D1099A02990A9B0A44013309920B9A1BB20BF1010BDA44F5
:4030000093420A931FFA8AFA3EF499AE264B13F80AB0D0E7049A07994FF0010B531A82B210469BB20592DA1D1BB2C1EB000912B20A9300230B920FFA89F909934FF0A60A07
:40304000BBF1000F16D0184B0BEB0A071F44099A0A9B03EB0208144B03EB0A0616F8010F2346009504FB009022464146FDF788F9B742F3D1099A02990A9B0A440133099279
:403080000B9A1BB20BF1010BDA4493420A931FFA8AFA3EF454AE044B13F80AB0D0E74FF01A0B5B46012203E0BC9C0000A14B9B5C01331A44BBF1010B92B2F7D183B218463B
:4030C0000746079E04990593891B89B2531CCA1D1FFA83FA13B2C6EB07090B930BB209930FFA89F9CDF828B0924B13F80AB0BBF1000F15D00BEB0A071F44099A0A9B03EB57
:4031000002088C4B03EB0A0616F8010F2346009504FB009022464146FDF732F9B742F3D10A9A0299099B0A4401330A920B9A1BB20BF1010BDA44934209931FFA8AFAD3D1EF
:40314000FEF7FDBD4FF0190B1A23012201E0794B9B5C01331A44BBF1010B92B2F7D183B218460746079E04990593891B89B2531CCA1D1FFA83FA13B2C6EB07090B930BB285
:4031800009930FFA89F9CDF828B06A4B13F80AB0BBF1000F15D00BEB0A071F440A9A099B03EB0208634B03EB0A0616F8010F2346009504FB009022464146FDF7E1F8B7427B
:4031C000F3D10A9A0299099B0A4401330A920B9A1BB20BF1010BDA44934209931FFA8AFAD3D1FEF7ACBD4FF01B0B1A23012201E0504B9B5C01331A44BBF1010B92B2F7D1D4
:4032000083B218460746079E04990593891B89B2531CCA1D1FFA83FA13B2C6EB07090B930BB209930FFA89F9CDF828B0414B13F80AB0BBF1000F15D00BEB0A071F44099A66
:403240000A9B03EB02083B4B03EB0A0616F8010F2346009504FB009022464146FDF790F8B742F3D10A9A0299099B0A4401330A920B9A1BB20BF1010BDA44934209931FFA37
:403280008AFAD3D1FEF75BBD4FF0130B1A23012201E0284B9B5C01331A44BBF1010B92B2F7D183B218460746079E04990593891B89B2531CCA1D1FFA83FA13B2C6EB070970
:4032C0000B930BB209930FFA89F9CDF828B0194B13F80AB0BBF1000F15D00BEB0A071F440A9A099B03EB0208124B03EB0A0616F8010F2346009504FB009022464146FDF753
:403300003FF8B742F3D10A9A0299099B0A4401330A920B9A1BB20BF1010BDA44934209931FFA8AFAD3D1FEF70ABD4FF0150B1A23012203E0BC9C0000254B9B5C01331A449F
:40334000BBF1010B92B2F7D183B218460746079E04990593891B89B2531CCA1D1FFA83FA13B2C6EB07090B930BB209930FFA89F9CDF828B0164B13F80AB0BBF1000F15D099
:403380000BEB0A071F440A9A099B03EB0208104B03EB0A0616F8010F2346009504FB009022464146FCF7ECFFB742F3D10A9A0299099B0A4401330A920B9A1BB20BF1010B5A
:4033C000DA44934209931FFA8AFAD3D1FEF7B7BCBC9C000070B5934D8AB02B6804460E46072B15D8DFE803F0B096A3161D46166DA0F17903772B40F2E380F13C4E2C07D845
:40340000772E40F29E80793E762E01D8FDF7BAF90AB070BD3228FBD81E29F9D8FDF7FEFCF6E7322801D81E29F8D9A4F14603502B40F2B280AA3C502CEAD8643E322EE7D8D8
:403440004FF6FF72784B00240092029350220194322364214620FDF7E9F849F69F62734B8DE814000293502232236421AA20FDF7DDF8CDE7322801D81E29CFD9C83C462C25
:40348000C6D8A6F12803462B00F2B080684C0022236800925D1E1E233C22692125605A20FCF76EFF07A920680A2204F064FA0322009207AB4FF6FF7273216420FEF7E2FB64
:4034C000A6E7322802D81E2940F2A4801E235F210022009208461A46FCF752FF04A920460A2204F048FA012407A930460A2204F042FA04AB00944FF6FF726E216420FEF7EA
:40350000C1FB6421009407AB08464FF6FF72FEF7B9FB7DE777283FF66BAF772963D9A1F17903762B3FF669AFFDF73AFF70E7A0F182043C2C3FF66CAFA1F1D1061E2E3FF6F0
:4035400067AFFDF757FA63E7A0F12303F82B03D8A1F16F03122B3DD9A4F10A038B2B0DD8A6F10A03632B38D9833E632E3FF650AF304B01221A60FDF751FC49E7AB3C8B2C6D
:403580003FF646AFA6F10A03632B39D8294B02221A60FDF743FC3BE7643E322E3FF638AF49F69F62204B00240092029350220194322364214620FDF739F84FF6FF724EE7CC
:4035C00077292CD9A1F17906762E3FF621AFFEF73DFA1DE7FEF7C4FA1AE7164B00221A60FDF71CFC14E7FDF751FE11E7823E462E3FF60EAF0E4C0022236800925D1C4AE7E0
:40360000833E632E3FF604AF0A4B03221A60FDF705FCFDE6FDF7EEF900232B60F8E6FEF793F8F5E6E091FF1F249C0000289C0000E891FF1FE491FF1F2DE9F04172B6904A3C
:40364000904D1378A5F1240643F004031370002404EB440306EB4303AA88586A0134002104F096F9092C05F10605F1D180228649864804F082F9864E864F002556F8043F02
:4036800013F0FF0E23F0FF0413D005F110530EF1FF3E03F131005FFA8EFE7044303340005B001A785978023383421155F9D101357544BE42E2D1784941F251260B78774AD2
:4036C00043F002030B701378754843F0020313700278A1F5863142F04002027041390A78704C42F01002704B0A7003CB6F4A2060616003CB6E4DC4F8C000C4F8C41003CB0B
:40370000106051602A786B4F03CBDFF8E8C13860796042F0080203CB674F2A70DFF8D8E12063612265486163A5F29E258CF800200021582239808EF80020298002700221B6
:403740001868A4F6027487F880124FF04025082203215B4B2A7021701B785A49DBB287F82136594BA5F8222226841C7808604FF4F0701D4604F0010400F08AFE182601E08B
:40378000032C0DD02B784FF4F07003F0010343EA440400F07DFE013E04F00304F0D1FEE74A4B4B4F4B4DDFF854C14B484FF4807407211C80002219704FF0480E47490226C7
:4037C00004248CF8002087F800E01A702E7004700B78434A43F003030B701378304C43F001031370237800F5F720012100F2F97043F080034FF0810E3A4A23703A4E85F8B9
:40380000FFE7017013783578DBB297F8F186374AA0F5F420A0F2967003F0070EEDB21B0980F800E05FFA88F813700CF5D45C45F00303337080220CF1050C48F0030387F8A9
:40384000F136DFF8BCE080F89B208CF80010284920238EF8003080F8BA220A200B7000F0F7F894E80F00DFF89CE087F8F1861034442735708EF8007007C42380BDE8F08103
:40388000E846004030A000002C05004800040140FCFFFF475C0000480350014013500140A043004002510040AC050048F2510040224300401251004080400040864000406F
:4038C0000801004900410040254200400440004008400040014000400B400040A2430040A1430040CF010049F84600406F5800402B5B004000480040824000400640004079
:40390000985A00407658004008B503F0F1FF03680C2B00D0FEE7FEE7094908B50A68094B1044C31AB3F5805F02DC0860104608BD03F0DEFF0C234FF0FF320360104608BD90
:40394000CC80FF1F9092FF1F80B5134FF7B1134E002556F80C0C56F8084C56F8102C03463CB1043A52F8041F43F8041B191AA142F8D156F8040C1A4620B142F8045BD11A19
:403980008842FAD1013F06F11006E2D103F0B6FFFCF778FBFEE700BF0100000048A300000E4B0F4A0F491A600B680F4A43F400730E480B600023032B94BF50F823100C49A5
:4039C0000133302B42F8041FF5D10A4B0A4918780A4A0B4B08701A60FFF72EBE0CED00E00004FA0514ED00E0FC7FFF1F0000000009390000BC760040C080FF1F0080FF1F59
:403A000008ED00E001BE7047B0F5004F70B506461AD904460D4DA4F50044686800F038FDB4F5004FF7D8A6F50043013B23F4FF4323F07F03A6F50046F61AA86800FB06F0AC
:403A4000BDE8704000F024BD004DF6E7D080FF1F024B1B7800FB03F000F01ABDD080FF1F064B1F281A6800D901BE00F01F0000F1100352F8230042F82310704708ED00E05A
:403A8000072900D901BE1F2800D901BE00F01F0000F16040490100F56440C9B201707047044A4000137800F0020003F0FD0318431070704700510040024B1878C0F3400048
:403AC000704700BF01510040044A00F00100137803F0FE0318431070704700BF00510040044A4001137800F0200003F0DF03184310707047F05100400549064A0B7843F0B8
:403B000002030B70137843F002031370704700BFA2430040B243004070B51E4C2378A3B11D4C00F0BDFC23781C4943F0200323700B781B4A43F010030B70137843F01003FC
:403B40001370BDE8704000F0AFBC164B0F21164A19701378990604D514490B7813789B06FBD400F09DFC124B124E1A780E4D42F001021A701A7802F0FE021A7000F094FC3A
:403B80000D480E490023012236782D7803700B702270C5E7AC81FF1F90640040926400409664004080640040666400405164004091640040626400408264004086640040F7
:403BC000034A13785B07FCD5024B1870704700BF626400404164004010B419490A78FAB9184B19481A7002701A78184C02F0F3021A701A78012042F004021A701A78C2F346
:403C0000810202F19242063292F83821D2B222701A7802F0FD021A701A78D2B21A7008700B490C4A0B780C4843F008030B701378642143F008031370017010BC704700BF26
:403C4000AD81FF1F2C5800402D5800400B460040A8430040B8430040835B004010B419490A78FAB9184B19481A7002701A78184C02F0F3021A701A78012042F004021A7063
:403C80001A78C2F3810202F19242063292F83021D2B222701A7802F0FD021A701A78D2B21A7008700B490C4A0B780C4843F002030B701378642143F002031370017010BCE9
:403CC000704700BFAE81FF1F245800402558004009460040A8430040B8430040815B0040F8B5334D2C78F4B9102000F07FF807212046FFF7C5FE2F492046FFF7B1FE44F65E
:403D000020602D4A2D4E13782D4F43F006031370C22333702B492C4A2C4B01263C802E70086014801C8000F0BBFB294A04461378284943F0020313700B78274843F0020305
:403D40000B70037801F5AA5143F0010303709379103143F0010393710A7800F5AB501F4B0D30182542F003020A7005701A781C4E42F040021A701A78A0F5975002F0FC02B6
:403D80001838CE2702251A703770057091F824320A2043F0080381F82432FFF759FE114B012220461A60BDE8F84000F07DBB00BFAF81FF1FE93D0000095900400A590040B2
:403DC000EC91FF1FF091FF1FEE91FF1FF491FF1FAB430040BB430040A14300400D5900400859004080E200E0704700BF034A00F0F800137818431070704700BF0241004026
:403E0000F8B51D4D2C7824BB1C4B1D4E02271F701C4A812737701C4B1C481D49082717700F264FF40042067030460C701A600721FFF726FE30461749FFF712FE164E174944
:403E4000174A184B10270120377028700C7014701C7000F025FB1449144A0B7843F004030B70137843F00403137000F01DFB104B4FF400421A60F8BDB081FF1FD64900404B
:403E8000C8490040CA49004080E100E0DB490040DC490040713F0000F691FF1FFA91FF1F0292FF1FF891FF1FA5430040B543004000E100E02DE9F843234BDFF8B080234FA4
:403EC000234E4FF40049C3F8009098F800E0214D3978327830783B781F4C43EA00202B78013003F0FE032B7080B284F803E02171627100F0CDFA00F0D3FA1849184A0B781B
:403F000003F0FB030B70137803F0FB03137000F0CBFA2B782179627994F803E043F002032B7088F800E088F800E0397032702B780C480D4A03F0EF0310212B70C0F80090B5
:403F40001170BDE8F88300BF80E100E0DB490040DC490040D6490040E080FF1FA5430040B543004080E200E0F691FF1FCA490040F8B5824B824D1C782B78590641D5E4B2D5
:403F8000E2072AD52B78453B052B7ED8DFE803F003657D7D033F04F00A03082B04F0DF0400F08B800A2B70D1764A7749137843F0A00313700B789F0740F189802B781078A4
:403FC00013F0080F0CBF0A2309237049034360264FF4004013702E700860A20616D52B78684913F0080F08780CBF02230123684A03430B701378102103F0EF03137029702D
:40400000F8BD2B78DB065CBF10232B70F8BD614A61496248137809780068DBB2C9B2C15413785F490133DBB2137012780B789A423FD3554B1B7803F0020303F0FF02002B5D
:4040400072D0504A51491378602643F009034FF4004013702E700860BFE7A60719D4514B514A1978127891424ED250491A780968D2B28A5C484E4149D2B204203270087001
:404080001A780132D2B21A70A7E70020FFF7BAFCA3E73D4B1B78990725D53A4A3B491378602643F09A034FF4004013702E70086093E7324B10221A708FE72B78304A452BE9
:4040C0003AD02E4900204A230870137085E7304A374E1378294943F010031027042013703770087079E72A4A314E1378234943F0100313701027234A042037700870137887
:4041000043F09003137068E71F4B1B789807DED51C4A1E491378602643F00A034FF4004013702E70086058E7194914480B7843F010030B70027050E71B4B1B7873B11B4B01
:4041400015481B680D4E1B781649DBB203700427012046233770087013703EE70A4B1B789B07B4D5074909480B78602743F00A034FF400460B70177006602EE7D749004032
:40418000F691FF1FFA91FF1F0092FF1F80E100E0D64900400292FF1FD8490040FC91FF1F0192FF1FF891FF1FF991FF1F0492FF1FD9490040184A1378102B01D002207047BB
:4041C000164B1B781B071BD4154B30B440004FF40044C0B21C60A9B945231370114D0F4B0121114C2870197023780F49DB07FBD50B7803F00A030A2B09D0002030BC704723
:4042000001207047492340F001001370E6E7102313700320F2E700BFF691FF1FD949004080E100E0D8490040D7490040154B1B785A0701D4022070474000F0B4C0B2124C89
:40424000B1B945232370114B114F19460D4D1226042238702E701A700B780C4ADB07FBD5137803F00A030A2B07D0F0BC00207047492340F001002370E5E7102323700320AC
:40428000F0BC7047D9490040F691FF1FD7490040D84900400A4B1A78520701D402207047084830B40246084C10210425197005702170137813F0210FFBD0002030BC7047E0
:4042C000D9490040D7490040F691FF1F114B1B785A0701D4022070470F4B70B419460F4E0F4C0425462230701D7022700B780A4ADB07FBD5137803F0020303F0FF0023B1A2
:4043000060232370032070BC70476023237070BC704700BFD9490040D7490040D8490040F691FF1F124B1B7803F00403B3B130B4104C05462378492B14D00F4A13780E49DA
:40434000DB07FBD50D4B1B78D8B21DB96023237030BC704710230B7030BC704703F0FF0210467047044A00214A2311702370E4E7D9490040F691FF1FD7490040D8490040B2
:4043800070B5FFF73DFD00213820FFF713FF0520FFF79CFF01213820FFF748FF0020FFF7C1FF0446FFF776FF00213820FFF702FF0620FFF78BFF01213820FFF737FF002053
:4043C000FFF7B0FF0546FFF765FFFFF773FDFFF717FD00213820FFF7EDFE0320FFF776FF01213820FFF722FF0020FFF79BFF240204F470642C430546FFF74CFF0021382074
:40440000FFF7D8FE0420FFF761FF01213820FFF70DFF0020FFF786FF06462D0205F47065FFF738FF24B2FFF745FD45EA0601204609B2FEF7CFFF024B02221A6070BD00BFAA
:4044400080E200E070B4074B074E1C68074D08490223084AE02033606564087070BC1360704700BF08ED00E080E100E08143000001E400E000E100E0014B02221A607047A5
:4044800000E100E0014B02221A60704780E200E00230800803D000BF01380046FCD17047EFF3108072B6704780F31088704700BF094B10B5D8689A68002308E0114652F830
:4044C000084B1CB901230B60486810BD01338342F4D3002010BD00BF0892FF1F084B30B50022DC689B6808E05D6819460833854202D100230B6030BD0132A242F4D330BD9C
:404500000892FF1F01230373704700230373704710B1002282720260704718B1027B0AB1013A02737047000038B501F02BFD20B3124C4200E260000101F018FD238AA0605B
:40454000E068584301F012FDA568E168228A002304E005EBC3046060013380188B42F8D3102001F003FD054C6061282001F0FEFCA37CA06143F00203A37438BD0892FF1FF2
:4045800038B510220D460021044601F021FCFFF78FFF08B9013038BDA0604FF0FF33002065602360A07338BD38B5837A044643B1056801F0F7FA2846FFF7AFFF2046FFF7DF
:4045C000A7FF002038BD08B50368827A03B19B6822B11BB1FFF7E8FF002008BD012008BD08B901307047FFF7EEBF000038B5104B9C69217B59B921606160A16004F110004F
:40460000142201F0E5FB237B013323730DE0656A45B9282001F094FC606218B12946282201F0D6FB646A002CE3D1204638BD00BF0892FF1F38B50E4B5C69A17AE56839B99D
:404640002046102201F0C4FB0123A372E5600CE045B9102001F074FCE06018B12946102201F0B6FBE468002CE7D1204638BD00BF0892FF1F2DE9F74F06460020884691463E
:404680009B469DF830A09DF83470FFF7AFFF054608B9044610E0FFF7CDFF044660B180F80B900560AE604046214652463B46CDF800B001F0ABF830B12046FFF729FF28460C
:4046C000FFF72BFF00242046BDE8FE8F2DE9FF410C461F4604A9002341F8043D15469DF8286000F0A5F88046B8B1039B0BB11B789BB1404600F025F900280EDD14F0150F4B
:4047000001D0032809D1039939B1404622462B4600970196FFF7AEFF00E0002004B0BDE8F08100002DE9F3410646884600240E4D404655F83410E70001F080FB10B9002CE1
:4047400004DA0DE001340F2CF1D109E07D19A87929790090EA796B793046FFF7B7FF00E00020BDE8FC8100BF68A00000FFF7DABF10B5437B04460BB1012010BD40682168E1
:40478000A268A37B01F0C5FC10B10120607310BD207310BD10B5437B044663B9037B53B140682168A268A37B01F0B3FC08B1012363730023237310BD036870B599420446EB
:4047C0000D46164607D0037B0BB1FFF7E3FF00232560A673E37370BDFFF7DCBF10B50446FFF7D8FFA068BDE81040FFF777BE01230373FFF7CFBF10B50446407B08B1012086
:4048000010BDE37B5BB960682168A268A37B01F01AFC10B10120607310BD0122E27310BD08B5436813B94FF0FF3008BD984708BD2DE9F0470F463A21064601F02EFB04463A
:4048400010B93446174D27E00378C6EB000A5BB114F8013F43B162783A2A05D1A3F130085FFA88F8023401E04FF000080D4D2B6828791B689847814601F0EDFA504508D1F4
:4048800048463146524601F0EEFA10B92B79434502D0AD6D002DEAD107B13C602846BDE8F08700BF2492FF1FF8B5174C064694F85710A56D69B95C220127204601F088FA46
:4048C00084F85770A5653046FFF7AAFF00280EDA18E045B95C2001F033FBA06518B129465C2201F075FAA46D002CE0D10AE0074B26609A6F01329A670323207184F85770B3
:4049000084F856302046F8BD2492FF1F0892FF1FFFF7CABF38B504460D4601F062FB08B9013838BD204601F06FFB204601F008FD204600F0D5FC08B184F8555094F8550089
:4049400038BD90F8553023B990F8561009B1FFF7E1BF1846704710B590F8552004463AB931B1FFF7D7FF002802DC4FF0FF3010BD94F8550010BDFFF7EEBF10B50C4600218F
:40498000FFF756FF08B9013810BD2146BDE81040FFF7F1BF30B51346BAB1B0B10268857A0AB1946804B900247DB172B16CB1C27A12F0100204D14FF6FA730381104630BDCC
:4049C0001A46BDE8304001F00FB9002030BDFFF7E1BF0C2802D0102805D102E001EB510070474800704788007047036840689B685B6AB0FBF3F0704710B5C46C436CE4B165
:404A000099421AD3E318994217D2013B99420CBF4FF0FF31013172B190F836300C2B02D0102B05D102E00905090D03E089B201E021F070411160012010BD002010BD40F6F8
:404A4000F473984201D80C2070474FF6F473984294BF102020207047027F8368023902FB01307047431EDBB21F2B13D92F2811D007D826280ED002D8222809D10AE02A38FC
:404A800004E03A2804D33F2804D95B38022801D90120704700207047034638B30B2A01DD0B2200E0013A00201CE0082809D191F808C0BCF1200F0DD04FF02E0C03F801CB50
:404AC00008E038B991F800C0BCF1050F02D1ACF1200C04E011F800C0BCF1200F01D003F801CB01309042E0DB00221A7070472DE9F04788B005AE04460D4630461146002231
:404B00009A469DF84490BDF84C80BDF8507000F0BDFC08B1002413E020462946524600F0AEFD044660B1129B31460093109A4B46CDF80480029700F065FF2846FFF7E2FCF0
:404B4000204608B0BDE8F08710B59DF80C400394BDE8104000F078BD2DE9F04F144E87B0109DDDF848809DF84440376800950194CDF8088005937F68934682468946B8474F
:404B800032680C4BDDF814C09A420DD060B9504649465A46634610951194CDF8488007B0BDE8F04FFFF7D0BF07B0BDE8F08F00BFE880FF1F10A1000070B5C37A04460B702C
:404BC00010300D4601F098F9064604F10E0001F093F940EA0640686004F1120001F08CF90004A86004F1180001F086F9064604F1160001F081F940EA0640E86004F11C000B
:404C000001F061F9286170BD2DE9F845038A04460E46924687692BB907F118002146626900F004FC38465146224600F087FC0546204600F005FCD5B12B78C3B1E52BF1D017
:404C400095F80B80B8F10F0FECD018F00808E9D170692946B269FFF71FFF28463146FFF7ABFF238A404601332382BDE8F8854FF0FF30BDE8F8850222FFF79EBD2DE9F74F3C
:404C800004460D461E461746002A00F09B8090F836001146FFF79DFEB4F81EA0A36A20FA0AFA9A45814680F08D80638E04F118089A44284651464246FFF7DDFF2846FFF75C
:404CC0009AFD6B7B002B7DD1A38B013B09EA0309AB681FFA89F909EB030B26B9226C974203D2276401E07A1C226494F83620102A0AD0202A11D1584601F0E5F831460746B0
:404D0000584601F0EBF84EE0584601F0F5F8B1B20746584601F0ECF845E028460193FFF7F1FB019B17F0010F19F803701CD007F00F0242EA061209F80320A38B013B994550
:404D400002D00BF1010309E028460AF101014246FFF791FF2846FFF74EFDAB681A78120142EA171732091DE009F80360A38B013B994502D00BF1010309E028460AF1010134
:404D80004246FFF778FF2846FFF735FDAB681A7802F00F0147EA0127310A22F00F0201F00F010A431A702846FFF7ACFBE36BB3F1FF3F09D00FB10133E3632EB1E36B013B7B
:404DC000E36301E0012000E00020BDE8FE8F6FF07043FFF753BF70B5C36C04460E4693B1002506E0AA1820463146531CFFF746FF0135E36C626C013B9D42F3D32046314684
:404E0000AA18FFF7E4FF00236364E364A364236570BD70B506460D461C460AB1FFF72EFF304629462246BDE87040FFF7D0BF2DE9F04790F8366005460C4630461146914613
:404E4000FFF7C7FDB5F81E80AB6A20FA08F89845824602D30020BDE8F0876B8E05F118079844204641463A46FFF705FF2046FFF7C2FC18B14FF0FF30BDE8F087AA8BA1684C
:404E8000013A0AEA020A1FFA8AFA92450AEB01031AF8015001D0013309E0204608F101013A46FFF7E8FE2046FFF7A5FCA36818780C2E45EA002009D0202E0FD15D7840EA15
:404EC00005409D7840EA0560BDE8F08719F0010F02D00009BDE8F0870005000DBDE8F0872DE9F34190F83630144603FB02F7828B8846D200511E0F40D71B0546B7FBF3F7A2
:404F0000002618E00E4B93F87C30022B05D12846214601AAFFF770FD28B9284641462246FFF785FF0190019B0134A34205D10136B6B2013F1C46002FE4DC3046BDE8FC8140
:404F40000892FF1F2DE9F34105460E46144698461F681CE0114B93F87C30022B05D12846214601AAFFF748FD28B9284631462246FFF75DFF0190737B0BB100240BE0AA6BA5
:404F8000019B0132934204D81BB1013F1C46002FE0D1C8F800702046BDE8FC810892FF1F73B504680E4623681BB9FFF71EFD013039E0FFF71AFD236998423CBF4FF0FF3332
:404FC00023612369B3F1FF3F04D12268013323616261E3832169E28B451A954234BF2B4613463BB16069C918C018D21A60612161E283ED1A0DB9284615E002AB43F8045D1A
:4050000031466269A068FFF79DFF6061019B21690246C91A4D19256123B9A0683146FFF75FFFE08301987CBD13B502AC44F8043D2346FFF787FF019B002B18BF00201CBD43
:405040002DE9F0410746884615461E460024384641462A460123FFF7E7FF30B1BA6B0134944201D80546F2E7002406B134602846BDE8F0812DE9F84504460E4615461F46C4
:40508000002B36D01C4B93F87C30022B31D190F8368011464046FFF79CFCB4F81CA00AF1FF3A2AEA000A4FEACA0ABAFBF8FAAA44A8460EE0204631464246FFF7B8FE50B9F7
:4050C000636C0BB9C4F84480A36C08F101080133A364D045EED9A36C5BB127653B685A6922B1204631462B46FFF7C8FDE36C0133E364BDE8F88500BF0892FF1F2DE9F845D6
:405100009846274B054693F87C300F46022B1646846B19D1036D984503D0836C0BB1FFF75AFEB8F1000F0FD02B6D43450CD1EB6CAA6C9A4204D96C6C1C190133EB642CE077
:4051400028463946FFF747FE012E04F1010A01D9564505D92E6C012E01D9564500D902263446284639462246FFF761FE50B101345445F6D902240DE0284639462246FFF726
:4051800056FE30B92846394622464346FFF772FF03E00134B442EFD300242046BDE8F8850892FF1FF8B507460E461546FFF7A6FF044628B1384631462A462346FFF729FEE7
:4051C0002046F8BDB2F1FF3F73B504460D4614D0561A013611D0FFF7FFFA084B00211A8AA06800F0F5FD022300936068A3682946324600F069FF0023E3737CBD0892FF1F5D
:405200002DE9F84F984690F8363004460C2B0D4616465AD04FF0FF3AD1463CE094F836003146FFF7D6FBB4F81CB0678E0BF1FF3B10EA0B0BE38B1DD1D840013F3F1802225E
:4052400028463946FFF7B8FAA38BAA689B0852F80B1079B9013B0BF1040BF8D13BE0494628465246FFF7AEFFB946BB462846FFF74CF9DA462946324601232046FFF7D4FEBA
:4052800029460746324620460023FFF7F7FC2FB108F1FF383E46B8F1000FBFD1284649465246FFF78FFF13E02946324601232046FFF7BAFE29460746324620460023FFF78E
:4052C000DDFC2FB108F1FF383E46B8F1000FEBD14046BDE8F88F0AF1010B5F45BFD1C5E72DE9F8450446FFF7E3F8054608B9044696E0204600F014FF4B4E338A834208D39B
:4053000038B1002120462A460B4600F09CFE002804DA2846FFF7E2F8002481E005F5FF7000F0EAFD4AF65523984275D105F10B0000F0E2FD10F47E4F07466DD0338A834224
:405340006AD32B7C022B67D16E7B002E64D000213C2204F1180000F03BFD05F1130000F0CBFD804620B905F1200000F0ACFD804605F1160000F0C0FD824680B905F1280038
:4053800000F0BAFD10F08F0F46D105F1240000F09AFD824605F12C0000F095FDE062022384F83530C4F828A0C4F8188084F8346005F10E0000F0A0FD608605F1110000F0E6
:4053C0009BFD638E94F83520208602FB0A3A7B099BB2B0FBF3F05044A7832062092301229A40BA4201D1E38302E00133102BF6D17743C0EB0800B0FBF6F0A0636762FFF788
:405400001EFB4FF0FF33202884F8360018BFC4F82CA0E363012400E000242846FFF75EF82046BDE8F88500BF0892FF1F00238B60837F202B01D102B942694A600A60704703
:4054400083680133836070472DE9F0410C46202105461F469DF818604FF0000800F0B8FC10E014F8080036B9E52804D1B8F1000F01D1E03802E000F009FDC0B205F808002B
:4054800008F10108B845ECDBBDE8F0812DE9F74506460D4608462849002A14BF92464FF0FF3A00F0CBFC804650B930462946022200F05DFEB01C2021092200F089FC37E075
:4054C00000274FF0FF3415F80780B8F1000F01D0574505D1B4F1FF3F08BF3C4664B925E04046FFF7BFFA08B3B8F12E0F08BF3C4601370D2FE7D119E0082C17DC3F1B042F3E
:4055000014DC30462946082223464FF00008CDF80080FFF799FF0123611C009306F10800691803227B1EFFF78FFF01E04FF001084046BDE8FE8500BF20A100002DE9F74F40
:40554000D2F808B0436A4FEA4B18B8FBF3F8D368054698450E461446D2F8009001D20023D360B5F81EA0E368AAF1050A0BB9D4F804902BFA0AF7B9F1000F17D095F8342003
:40558000B8EB0303019206D04A4628463146FFF74BFD814640B3494605F11800FFF75CFA019B591E01EA0707C11906E02B8E43FA0AF39F4218D2E96A79183046C4F8009053
:4055C000C4F80C800122FFF7F7F83046FFF713F950B9013000FA0AFAB3680AF1FF3A0AEA0B0B03EB4B1000E00020BDE8FE8F2DE9FF4107460E4601A811461A460A9D9DF844
:405600002C40FFF743FFC8B9384631462A46FFF795FF8046A0B1037883B101A90B2200F0C7FB38B998F80B3004EA0302A24201D1082B05D12846FFF703FFE5E74FF0000820
:40564000404604B0BDE8F0812DE9F04587B002AF04460E46154698469DF83CA039460E9A1830FFF7E3FE204631462A4643460097CDF804A0FFF7BBFF07B0BDE8F0852DE9AC
:40568000F04500F1180785B005460C46384669469246FFF7CBFE284621466A46FFF74EFF06466846E846FFF7CBFE002E37D1BAF1000F02D12B8E002B35D12146009A00238F
:4056C0002846FFF7BDFC2146024600232846FFF769FD80462046FFF78AF8B8F1000F22D0AA8B0021A06800F073FB38464146FFF7B3F995F8347000257E1E361808E03146A1
:4057000020460122FFF758F82046FFF731F8013E01357B1BB3F1FF3FF1D1A66803E033780BB1E52BB7D1304605B0BDE8F08538B504461A3000F0E0FB054604F1140000F0A1
:40574000DBFB45EA004038BD2DE9F0451D4685B007460E462A6010465C21904600F09DFB4FF0000A0446A04508D108F10108C5F8008040465C2100F090FB044694B1C8EB60
:405780000403002B0EDD10220192103A0292384631464246CDF800A0FFF7DEF970B1FFF7C6FF824628685C2100F077FBA04604460028D8D10C9B0130C3F800A005B0BDE8D9
:4057C000F085F8B505460C461E461746DAB16FF01A0313700846FEF795FE16B94FF47A7608E007F11C0000F06EFB6B6A5E1E3618B6FBF3F63846FFF79AFF21460246334604
:405800002846FFF7FDFC607BF8BD00002DE9F04FD1F8008093B0D8F808700BAD044608930E464FF0FF333946284609920F939DF870A0FEF7A5FE10AB0093384629462246E6
:4058400011ABFFF781FFD0B1F27A109B07920FAA00930292002338462946119A0193FFF77BF9044680B1C37A13F0100F07D10D9BDDF82CB0C3EB00094FEA691906E028465B
:40588000FEF7ACFF0125A3E083468146099B002B3CD0002C33D0524B5D6912E02B687BB1AA7A6AB19A8B4A450AD19A695A4507D19B68BB4204D14FF6F772328100257EE0F0
:4058C000ED68002DEAD10DF12C0C6146384622460123CDF818C0FFF774FFDDF818C018B14FF0FF3333816AE03E4B1B68DC6824B138466146109A0F9BA0472C4606E0BAF111
:40590000000F03D1089A002A44D065E0089BEBB1CCB1E37A13F0010F0BD0079A12F0150F07D04FF6FA733381BAF1000F01D1012500E000252046FFF7FAFE074604F11C00EB
:4059400000F0C1FA29E0BAF1000F45D0BAF1010F01D000251BE0ECB900F024FD214B20221B68019282B2000C03920490009402949D6838460BA9119A109BA84750B10D9AC7
:40598000DDF82CB0C2EB00094FEA6919254628462F4602E00125002007464FF0FF33C8F81030C8F818B0A8F81C90079AC8F8040012F0010308BF1846C8F800707060B6F97E
:4059C00008300BA835EA230528BF0125FEF706FF284613B0BDE8F08F01255046DCE700BF0892FF1FE880FF1F70B505460C461A3089B200F07DFA05F11400210CBDE8704063
:405A000000F076BA2DE9F0470446BDF824700D469146002120229A46BDF82860DDF8208000F0D6F90B222046294600F0A0FB04F10E00394684F80BA000F05AFA04F1100009
:405A4000314600F055FA04F11600394600F050FA04F11800314600F04BFA20464946FFF7C3FF04F11C004146BDE8F04700F036BA07B5426803460AB910460AE08168002037
:405A8000009048681968DB6800F0FCFA003818BF01200EBD2DE9F047046805460F46A668FFF77EFA81468246002841D0D4F80080B8F1000F1BD14246304639462B46FFF790
:405AC0001DFB0246D8B11C4B6061C4F8108093F87C302060022B07D030463946FFF777F910B10120BDE8F087B9F1010A20D03046394662692B46FFF701FB804628B94FF681
:405B0000FE732B810130BDE8F0870B4B93F87C30022B05D03046394662694346FFF779F92369C4F8148001332361BAF1010ADDE70020BDE8F08700BF0892FF1F2DE9F041B3
:405B4000836804460D4608460122A1699E8BFEF733FE2846B4F81C80AF68FEF74CFEF8B9013E06EA4816B6B2BE1906F11C00616800F0B4F921683046FFF736FF00F012FCA9
:405B80000446A1B206F1160000F0B2F906F11800210C00F0ADF92846BDE8F041FEF727BEBDE8F0817FB50668B0F90830B568C3B9C37A13F0110F14D029466846FEF7E0FC4C
:405BC00030466946FFF7BAFF064B6C4693F87C30022B03D128466946FFF7FDF86846FEF7FDFD7FBD0892FF1F03682DE9F04F9F68038995B001339BB2012B04460E46059283
:405C000001D90025CEE0394610AD0CA8FEF7B8FC39462846FEF7B4FC039626680023D6F808909A4609F118010791D9F82420059906924FF0FF32099308920A950291049397
:405C400020460CA9FFF726FF38B108A8FFF710FF5546002818BF00258FE03269069901324A43B9F81CB063680BF1FF3BD21A0BEA030B029B0798934228BF134601937169FC
:405C8000FEF7EAFE99F83430B9F81C206768013BB7FBF2F703EA0707C719B9F81C300199CBEB03058D4228BF0D469D4228D0BBF1000F03D1626873689A420FD00DF140083A
:405CC000404639460022FEF777FD4046FEF793FD20B14FF6F9725546228154E01298039958442A460DF1400800F041FA404639460022FEF761FD4046FEF73AFD90B141E0C5
:405D0000099B089A9A1897420AD008A8FFF7B0FE002837D101230993039B08970B9301E001330993029B03995B1B019A029363684919521BAA44ED186560736803919D4269
:405D4000019207D91BB1194B93F87C300BB9012104917560019A1AB101374FF0000B9CE7029B002B7FF46CAF08A8FFF781FE04995546002818BF002529B1304610A9FFF7B8
:405D8000DDFE00E05546059A954205D0B4F9083013B94FF6F87323810CA8FEF71FFD10A8FEF71CFD284615B0BDE8F08F0892FF1F10B5002308E0C45C11F803C0013A013378
:405DC000644501D0012010BD002AF4D1104610BD70B5034602E003F8011C013A1C4622B103F003050133002DF5D193081ED04FF001354D4308E044F8105C44F80C5C44F831
:405E0000085C44F8045C043B032BA44604F11004F1DC1C46002603E04CF80650013B0436002BF9D102F003020CEB8404002302E0E154013A0133002AFAD170BD002310F859
:405E400003C0CA5C624501D0012070470133002AF5D110467047002300E00133C25C002AFBD11846704710B500230BE0C45C11F803C0644501D0012010BDC4186478013345
:405E800014B1013A002AF1DC002010BDA0F16103192B98BF00F0DF007047C9B203E00BB918467047013003788B42F8D1704742780178431C42EA01205A789B7842EA0020A8
:405EC00043EA002070478378C27803EB0222437803EB0222037803EB0220704703460A0A03F8011B42700A0C090E5A70997070470170090A417070474278037843EA0220FB
:405F000070470000094A0A4BC11C10B5146821F0030118680919814201D9002010BD11609A685868013220189A6010BD8892FF1FB481FF1F08B5FFF7E5FF00B9FEE708BDB9
:405F4000FFF7E0BF30B1044A9368013B93600BB9024A1360704700BFB481FF1F8892FF1F014B586019607047B481FF1F38B50546FFF7E0FF002104462A46FFF729FF2046BC
:405F800038BD000010B5084CA37C0BB1002010BD4FF40073238200F0F5F9A37C012043F00103A37410BD00BF0892FF1F08B583680BB10020984708BD08B583680BB1012053
:405FC000984708BD10B504680079A468A04710BD37B59DF81850046800790095E468A0473EBD08B5036800799B69984708BD036810B55B69044623B10079984708B1002076
:4060000000E00120607110BD10B5437904460BB9FFF7EDFF607910BDF7B504461F460E461546FFF7F1FF2046FFF7C6FF2A463146012320460097FFF7C5FF05462046FFF730
:40604000B5FF2846FEBD10B504690919BDE81040FFF7E2BFF7B5044615461F460E46FFF7D3FF2046FFF7A8FF0023009331462B463A462046FFF7ACFF05462046FFF796FF2D
:406080002846FEBD30B504699DF80C5009190395BDE83040FFF7DEBFF7B5044615461F460E46FFF7B1FF2046FFF786FF0123009331462B463A462046FFF78AFF05462046CC
:4060C000FFF774FF2846FEBD30B504699DF80C5009190395BDE83040FFF7DEBF73B504460E461546FFF790FF2046FFF765FF00232A460093314601332046FFF769FF054623
:406100002046FFF753FF002D14BF4FF0FF3000207CBD10B504690919BDE81040FFF7DEBF30B5054685B0FFF76FFF2B6828791C694FF47B71002201ABA04708B1002001E0EE
:40614000BDF80C0005B030BD70B506460D46FFF75BFF336830791C694FF47B7100222B46A047002814BF4FF0FF30002070BD11F0030F70B584460B4632D110F0030F2FD118
:4061800095100446AC4611E053F8106CACF1040C44F8106C53F80C6C44F80C6C53F8086C44F8086C53F8046C44F8046C10341033BCF1030FE8D8AB081B0100EB030CCB18E2
:4061C00015F003050AD0284600215C584CF8014004310138F9D1AD00AC445B1902F0030213F0010F19462FD11CF0010F60462BD15410254610E031F8086C043D20F8086C57
:4062000031F8066C20F8066C31F8046C20F8046C31F8026C20F8026C08300831032DEAD8A108C9005B1814F003048C440AD0204600215D5A2CF8015002310138F9D16400B1
:40624000A4441B1902F00102614610E013F8040C043A01F8040C13F8030C01F8030C13F8020C01F8020C13F8010C01F8010C18460433032A8C4601F10401E7DC32B1002360
:40628000C15C0CF8031001339342F9D170BD0378E92B01D101207047EB2B01D0002070478078902814BF00200120704708B500F5FF70FFF721FE4AF65523984214BF00207D
:4062C000012008BD01EB001000F5E370FFF7FBBDF0B50D4685B01446064658B352B300210B46FFF799FE002824DB2046FFF7DEFF00B32046FFF7CBFF10B10024274616E063
:406300002146FFF7DFFF074604F5E570FFF7DBFD01A904463046FFF717FF5CB157B1E219FF23120AB2FBF3F2029B9A4202D81DB12C6001E04FF0FF37384605B0F0BD000080
:4063400073B50446FFF7ECFE0646FEF7B1F80C4B05461B8AB3420DD366B1204601A92A46FFF7B6FFB0F1FF3F04D02061019B6361002400E0FF242846FEF7B0F860B27CBD72
:406380000892FF1F08B505484FF48051FFF7E8FDBDE808400248FEF7BBBA00BFC081FF1F6CA100004FF40410704700BF4FF6FF7070470000014B1868704700BFC091FF1F77
:4063C000004870478CA1000000F0B2BC37B501220DF10701054600F0BFFC9DF80740FF2C14BF0A240724284601220DF1070100F0B3FC9DF80700FF2803D1013CE4B2002C09
:40640000F1D13EBD37B50469857828460DF10701012200F0A1FC9DF807300BB1002003E0013CF2D14FF0FF303EBD37B54FF0FF3305460C468DF8073006E028460DF1070121
:40644000012200F0B1FC013C002CF6DC3EBD000038B5094C2368032B02DD4FF0FF3509E0DDB2013323601420FFF780FD04EB850460608570284638BDC091FF1F08B5034BF9
:406480004FF400711B68984708BD00BFEC80FF1F4FEAD20CACEBD103CCF10F0C10B501336044002410F801CB013B4CEA0424F9D101F00703511A02228A40DC40013A04EACC
:4064C000020010BD7FB5130E85788DF80530130C01F03F018DF80630130A41F040018DF8073000238DF808208DF804101A4601A911F802C000215B00DBB283EA0C0E1EF08F
:40650000800F18BF83F009030131082904D04FEA4C0C5FFA8CFCEEE70132052AE7D15B0043F001038DF809308678C4680122304603A900F011FC9DF80C30FF2B04D00CB98E
:40654000FF2009E0013CF1E7284601A9062200F02BFC2846FFF73AFF04B070BDF7B5847806460F4620460121FFF75FFF204600F0A7FB304609210022FFF7A4FF8DF8070025
:4065800028BBF6680546012220460DF1060100F0E3FB9DF80630FE2B06D0FC2B04D00135ADB2B542EFD112E00DF1070520463946102200F0D1FB29462046012200F0CCFB64
:4065C00029462046012200F0C7FB002500E0FF25204600F079FB20460121FFF726FF2846FEBD00002DE9F04F9B46494B89B003EB800305925C684A02029103924FF00309A4
:40660000029AA578E678039B2846022E08BF13461E4600F059FB01212846FFF706FFBBF1010F0CBF4FF0110A4FF0120A284600F047FB204651463246FFF744FF002851D1E0
:40664000059F5E46A378E268B44604924FF000081E460FE0012230460DF11F01CDF804C000F07AFB9DF81F20DDF804C0FE2A05D008F10108049B9845ECD333E028463946F7
:406680004FF40072664600F067FB0222284607A900F062FB9DF81C30384601939DF81D80FFF7ECFE4FF6FF729042019B0CD048EA0328404508D0BAF1120F13D120460C2196
:4066C0000022FFF7FFFE0DE0013E02D007F50077B8E7BAF1120F07D120460C213246FFF7F1FE01E04FF0FF36284600F0EDFA28460121FFF79AFE3EB1B9F1000F02D009F1B5
:40670000FF397DE74FF0FF36304609B0BDE8F08FC091FF1F2DE9F04F99464C4B87B0029203EB80039DF840205D68009103926B78002B40F085804B0201930327009BAC7893
:40674000EE78019A2046022E08BF1A46164600F0BBFA01212046FFF768FEB9F1010F0CBF4FF0180A4FF0190A204600F0A9FA284651463246FFF7A6FE8DF81700002850D139
:4067800020460121FFF751FE029ECB46B8463046FFF774FE0DF11707BAF1180F0CBFFE23FC2301228DF817308DF81500030A394620468DF8143000F0F7FA204631464FF441
:4067C000007200F0F1FA0222204605A900F0ECFA01222046394600F0BFFA9DF8173003F01F03052B1CD12846FFF70CFEC0B9039A0AB906F50076BBF1010BC8D1BAF1190FA3
:40680000474611D106A96FF00203204601F8013D012200F0C9FA2846FFF7F4FD20B100E047464FF0FF3600E00026204600F04CFA20460121FFF7F9FD26B10FB1013F7DE70B
:406840004FF0FF36304607B0BDE8F08FC091FF1F2DE9F04F877887B0044638460D4600F02FFA20463A210022FFF72CFE064638B1384600F029FA38460121FFF7D6FD58E0BB
:406880000DF1140804224146384600F065FA4046FFF70DFB8046384600F016FA01213846FFF7C3FDB8F1000F28F07F02B8BF4FEA987BD2B240F272634FEA1828B8BF0BF09C
:4068C000010B1FFA88F8002A14BF1A460022012111EA080F05D10136F6B24900102E89B2F6D140F27260824233460DD06422724302F5FA6208E011EA080F07D04900013308
:40690000013689B2DBB2F6B20F2EF4D964214B434FF6FE7103F5FA6302EA01014FF6FC72384603EA020200F0F5F910F0FF0F40F099804FF0FF3092E028467E217F22FFF7C1
:40694000A7FD8246EB78DFF82C8103F0030203F0780308EBD30358F822101B7C3846594389B200F0B7F90646002877D06B7803F00702DB1003F00F0308EB82024344126A83
:4069800093F810800292B8F1000F67D0A978284603911C221A21FFF77BFD0190BAF1000F1FD1502153222846FFF772FD4FF0010909FA00F92F2131222846FFF769FD1FFA70
:4069C00089F982463E21284649224FEA5929FFF75FFD0AF1020A09FA0AF9013000FB09F910E0BAF1010F01D0012038E0284630214522FFF74DFD4FEA8029BBF1000F01D044
:406A00000223E37008FB06F2029B0399B2FBF3F2642303FB01225A437343D208DB089A4294BFE260E360FA235E43019BF6089A400C21B24294BF2261266128460D22FFF769
:406A400027FD0546384600F043F94FF4007128436070A180C4F80890002000E0FF2007B0BDE8F08FE378A778012B3FF465AF4FF0000A67E724A10000F0B5857887B0044633
:406A80004FF4C871284600F025F9B0F5C87F00F2CC804CF25033E3600026284600F014F90A212846FFF7C1FC624B93E8030001902846ADF8081000F003F9062201A92846C0
:406AC00000F072F92846FFF781FC0746284600F0FBF801212846FFF7A8FC17F0010F03D10136052ED9D1A0E0284600F0E9F8082120464FF4D572FFF7E5FC10F0040F52D0AF
:406B0000284600F0E1F8A5784FF4FA66284600F0D7F8002237212046FFF7D4FC28460121FFF783FC292100222046FFF7CBFC0746284600F0C9F828460121FFF776FC17B9C3
:406B40000123E3701EE017F0040F01D1013EDDD14FF4FA66284600F0B3F8012100222046FFF7B0FC0746284600F0AEF828460121FFF75BFC0FB9E77004E0012F55D1013E09
:406B8000E8D152E001AD20462946FFF7E7FC00284BD120462946FFF75BFEC0B2002844D10123237043E00422A07805A900F0D4F8284600F089F89DF81730AA2B35D19DF8CA
:406BC000163003F00F03012B2FD1A5784FF4FA66284600F075F8002237212046FFF772FC28460121FFF721FC29214FF080422046FFF768FC0746284600F066F82846012108
:406C0000FFF713FC0FB1013EE2D101AE20463146FFF7A4FC48B90125E57020463146FFF717FEC0B208B9257001E04FF0FF3007B0F0BD00BF64A1000010B5084B03EB80034F
:406C40005C6823783BB9FFF7BFFB20B12046BDE81040FFF711BF4FF0FF3010BDC091FF1F38B51D46154BA1F57B7103EB80035C68072918D8DFE801F00A17171704041719AF
:406C8000204600211422FFF7A3F80CE0237833B92046FFF7F1FE10B14FF0FF3038BDA3882B81A3686B60002038BD2046FFF74AF9024B00201A68013A1A6038BDC091FF1F3B
:406CC00000B1002000F08EB9012000F08BB900BF00207047B1F5C87F38B50CD21D254FF4C87400F0FDF82846012100F009F900F0E7F8204638BD45F6C053B1F57A6F28BFD3
:406D00004FF47A614D00ADB2B3FBF5F5013D0C46ADB2E6E740F6E443994206D840F6E340824294BF0020012070470020704700BF10B5084B1A785AB901241C7000F0D0F8FB
:406D400021463B2000F0DCF800F0BAF800F04EF8022010BDD491FF1FF8B507460E461546741C77B1FF2000F099F800F091F8C307FBD500F09FF8013D264604F8010CEFD135
:406D8000F8BD013D2544FF2000F088F800F080F8C207FBD500F08EF8A542307002D026460134F0E7F8BD00BF70B506460C46154614F8010B56B100F071F800F069F8C3077B
:406DC000FBD500F077F8013DF2D170BD013D254400F064F800F05CF8C207FBD500F06AF8AC4202D014F8010BF2E770BD70B51E4C2378A3B11D4CFDF753FB23781C4943F0DA
:406E0000200323700B781B4A43F010030B70137843F010031370BDE87040FDF745BB164B0F21164A19701378990604D514490B7813789B06FBD4FDF733FB0C4B114E1A7894
:406E40000E4D42F001021A701A7802F0FE021A70FDF72AFB0C480D490023012236782D7803700B702270C5E7D591FF1F946400409364004097640040846400406764004001
:406E800054640040636400408364004087640040014B1878704700BF63640040034A13785B07FCD5024B1870704700BF6364004044640040014B1878704700BF5464004099
:406EC0000549064A0B7843F001030B70137843F001031370704700BFA2430040B24300400549064A0B7803F0FE030B70137803F0FE031370704700BFA2430040B243004048
:406F0000F0B4314D314E2A7833889BB298420BD02F4C02F007022478E4B24AB933B930802B7803F0BF032B70F0BC7047002843D014F0010422D0274F274D284E00223A7052
:406F400001272F70327015F8082C02F07F0205F8082C96F86E2016072BD41E4A204F154607263B8016702B781A4A13F00103FAD1174E357805F0FE0535701370144B1A78EF
:406F8000D5070FD56FF4687213441A460029144C14BF03210121208019701378DB07FCD4F0BC7047094A10801A7814431C70F0BC70470028E2D1D0E72B7843F040032B70B1
:406FC0003080F0BC704700BF8240004080400040A243004001400040104000401440004002400040044A8000137800F0040003F0FB031843107070471051004081F000414E
:4070000002E000BF83F0004330B54FEA41044FEA430594EA050F08BF90EA020F1FBF54EA000C55EA020C7FEA645C7FEA655C00F0E2804FEA5454D4EB5555B8BF6D420CDDBE
:407040002C4480EA020281EA030382EA000083EA010180EA020281EA0303362D88BF30BD11F0004F4FEA01314FF4801C4CEA113102D0404261EB410113F0004F4FEA0333BB
:407080004CEA133302D0524263EB430394EA050F00F0A780A4F10104D5F1200E0DDB02FA0EFC22FA05F2801841F1000103FA0EF2801843FA05F359410EE0A5F120050EF14B
:4070C000200E012A03FA0EFC28BF4CF0020C43FA05F3C01851EBE37101F0004507D54FF0000EDCF1000C7EEB00006EEB0101B1F5801F1BD3B1F5001F0CD349085FEA3000C5
:407100004FEA3C0C04F101044FEA445212F5800F80F09A80BCF1004F08BF5FEA500C50F1000041EB045141EA050130BD5FEA4C0C404141EB010111F4801FA4F10104E9D155
:4071400091F0000F04BF01460020B1FA81F308BF2033A3F10B03B3F120020CDA0C3208DD02F1140CC2F10C0201FA0CF021FA02F10CE002F11402D8BFC2F1200C01FA02F179
:4071800020FA0CFCDCBF41EA0C019040E41AA2BF01EB0451294330BD6FEA04041F3C1CDA0C340EDC04F11404C4F1200220FA04F001FA02F340EA030021FA04F345EA0301E1
:4071C00030BDC4F10C04C4F1200220FA02F001FA04F340EA0300294630BD21FA04F0294630BD94F0000F83F4801306BF81F480110134013D4EE77FEA645C18BF7FEA655CDA
:4072000029D094EA050F08BF90EA020F05D054EA000C04BF1946104630BD91EA030F1EBF0021002030BD5FEA545C05D14000494128BF41F0004130BD14F580043CBF01F5F8
