:400000000080002011000000512200005122000008B5044B1A6803F53F5302331A6002F037F900BFFA46004010B5054C237833B9044B13B10448AFF300800123237010BD5F
:40004000A881FF1F000000005C880000084B10B51BB108490848AFF300800848036803B910BD074B002BFBD0BDE81040184700BF00000000AC81FF1F5C880000C880FF1F7A
:400080000000000008B5012809D8002003F02AF8002003F043F8002003F05CF808BD012003F020F8012003F039F8012003F052F808BD00BF10B50C4602F058FA204602F0C4
:4000C000BBFA012002F040F902F0E4FB002002F0F9FB02F0EBFB02F007FC02F011FC05F0B5FF0022014B06F041F910BD00004A4008B502F0A1FA012002F026F902F0CAFB8B
:40010000002002F0DFFB02F0D1FB02F0EDFB02F0F7FB05F09BFF0022014B06F027F908BD00004A4038B505460C4602F037FC204602F01CFA002002F07FFA00240DE02046D6
:40014000FFF7D6FF0022084B06F076FA18B102F005FC204638BD0134E4B2AC42EFD302F0FDFB002038BD00BF0000F03F70B504460E46154602F012FC304602F0F7F913E0F1
:400180002046FFF7B5FF00220D4B06F04BFA48B102F0E4FB002002F0E9F9002002F04CFA601E70BD0134E4B2AC42E9D302F0D6FB002002F0DBF9002002F03EFA204670BDBE
:4001C00000003440000000002DE9F04F95B0079003919046994609AC694D0FCD0FC495E8030084E803000027B7E0CDF8189043463A464946634801F0DBFA02F0CFFB0026F2
:4002000071E0614B1B682BBB0020ABE0B9F1010F07D8039BD95DF0B2FFF74CFF02460B460FE0C6F1BC0B5FFA8BFB08EBC703D3E9000106F033FAC1B25846FFF73BFF024652
:400240000B462046294605F0B5FD04460D460AF1010A03E0002400254FF0000A4B4B18688245D3DB05F0F2FE02460B462046294606F07CF804460D46069B019300960246A1
:400280000B46404801F018FB39A3D3E900232046294605F041FF38A3D3E9002305F03CFF04460D46079805F0D1FE02460B462046294606F05BF806F0C9F90446002E0FDDDF
:4002C00014AB03EB870353F82C3C009300F10A0306F11E0204990A3105981E3000F0D4FB059604940136BB2E8BDD02F037FBB9F1030F26D8DFE809F0020B141D08EBC70396
:40030000D3E9002322490FA806F0B2FE19E008EBC703D3E900231F490FA806F0A9FE10E008EBC703D3E900231B490FA806F0A0FE07E008EBC703D3E9002318490FA806F0F9
:4003400097FE012300930FAB4FF6FF7204990A310598253001F072F80137114B1B689F42FFF643AF15B0BDE8F08F00BFAFF300800000000000C06C409A9999999999E93FC8
:400380006088000078880000C481FF1FD080FF1F848800008C88000098880000A0880000D480FF1F000000002DE9F04192B062B602F0B2F802F040F8012002F031F8642083
:4003C00001F0C2FF002002F02BF8642001F0BCFF012002F025F8642001F0B6FF00F088FA02F05AFE02F04AFE02F03CFE02F05CF902F0F4F802F040FA02F030FB0021382083
:4004000002F002FDA42002F091FD002002F08EFD02F070FD02F036FB02F09EFF0321AE4803F0C3F9AD49AE4803F0B8F80446AD4A01AB07CA03C31A8001A806F03DFE024641
:4004400001A9204603F0DBF9204602F0E1FF00F0A9FCA54B1B68022BFBD1A44C2078FFF711FE2368012B05DC1521FF20FFF75AFE804604E00D21FF20FFF754FE80469C49BA
:400480009C4801F06DF95FFA88F4DC22BC212046FFF76CFEC8EB0000974B1F687E1EB0FBF6F6F6B28DF84040904B1D68032D29D8DFE805F002112A3D404605F0B7FD82A374
:4004C000D3E9002305F028FE00228C4B05F024FECDE9040116E0404605F0A8FD7AA3D3E9002305F019FE0022844B05F015FE78A3D3E9002305F05CFC0022814B05F036FFC1
:40050000CDE90401012493E0404605F08FFD6EA3D3E9002305F000FE0022784B05F0FCFD0022784B05F044FCCDE90401EAE7404605F07CFD64A3D3E9002305F0EDFD00222A
:400540006E4B05F0E9FD00226E4B05F031FC00226B4B05F00BFFCDE90401D3E7631E12AA134413F8080C3044C0B21346234403F8080C032D5BD8DFE805F002132D4205F09E
:4005800065FD51A3D3E9002305F0C6FD00225B4B05F0C2FD12AB03EBC40343E90E0146E005F054FD48A3D3E9002305F0B5FD0022524B05F0B1FD46A3D3E9002305F0F8FB36
:4005C00000224F4B05F0D2FE12AB03EBC40343E90E012CE005F03AFD3BA3D3E9002305F09BFD0022454B05F097FD0022454B05F0DFFB12AB03EBC40343E90E0117E005F0F6
:4006000025FD31A3D3E9002305F086FD00223B4B05F082FD00223B4B05F0CAFB0022384B05F0A4FE12AB03EBC40343E90E010134BC4293DB00240025002616E002F0AEF967
:400640002D4B1B68013B12AA134413F8081CBC20FFF730FD02460B462046294605F0AAFB04460D4602F07AF90136274B18688642E4DB05F0EBFC02460B462046294605F009
:4006800075FE05F0E3FF214C84FB0034C017C0EB640404EB84040534144D2968204600F0C1FA2B7804AA10A92046FFF78DFD02F055F9002001F05AFF002001F0BDFF0A4B77
:4006C0001B68002BFBD1C2E6FCA9F1D24D621040666666666666E63FAC880000B4880000B888000000890000C481FF1FCC80FF1FC4880000F8880000D480FF1F0000703FF5
:400700000000244000002E40D080FF1F6766666610B50446002001F077FE204601F0BEFE01F06AFE0028FBD101F066FE0128FBD110BD00BF10B50446012001F065FE20462B
:4007400001F0ACFE01F058FE0028FBD101F054FE0128FBD110BD00BF38B50244013A42EA00450B44013B43EA01442A20FFF7D0FF012001F049FE002001F032FE280E01F033
:400780008DFE01F039FE0128FBD1C5F3074001F085FE01F031FE0128FBD1C5F3072001F07DFE01F029FE0128FBD1E8B201F076FE01F022FE0128FBD101F012FE2B20FFF76A
:4007C000A7FF012001F020FE002001F009FE200E01F064FE01F010FE0128FBD1C4F3074001F05CFE01F008FE0128FBD1C4F3072001F054FE01F000FE0128FBD1E0B201F0D9
:400800004DFE01F0F9FD0128FBD101F0E9FD2C20FFF77EFF38BD00BF2DE9F041BDF81850EF283FDC90461F46B1F5A07F3ADA8318013BEF2B03DDC0F1F0080FFA88F8CB19B6
:40084000013BB3F5A07F02DBC1F5A0773FB2BBB21FFA88F289B280B2FFF77EFF2E0AEDB2012001F0D1FD002001F0BAFD15E0304601F014FE01F0C0FD0128FBD1284601F00B
:400880000DFE01F0B9FD0128FBD1013C24B200E04446002CEBDC013F3FB2002FF8DC012001F09EFDBDE8F08130B583B015461A464042441B04F5A0744942C81AF030BDF827
:4008C000183000932B4621B200B2FFF7A5FF03B030BD00BF00B583B00090F0234FF4A07200210846FFF7E0FF03B05DF804FB00BFF8B50E4D16E0FFF70BFF6F7807F07F02E7
:40090000023505E06E1C2878FFF714FF22463546531EDCB2002AF5D117F0800F02D0782001F012FD28780028E5D1F8BD0C89000080B2EF2822D8002920DBB1F5A07F1DDAAB
:4009400010B5144601231A4689B2FFF705FF012001F05AFD002001F043FD200A01F09EFD01F04AFD0128FBD1E0B201F097FD01F043FD0128FBD101F033FD10BD704700BF61
:4009800008B5C0F59F730133C1F1EF0019B200B2FFF7CEFF08BD00BF2DE9F04F83B005460E461746BDF830200092C1EB0308B8F1000FB8BFC8F10008C0EB0709B9F1000FE4
:4009C000B8BFC9F10009C84504DD3A461F4613460D460646BD4205DD32461E4613462A463D461746C5EB070B1FFA8BFB0FFA8BF4C6EB030ABAF1000FB8BFCAF1000A04EB00
:400A0000D47464109E4202DA012301931EE04FF0FF3301931AE0C84505DD009A29463046FFF7AEFF04E0009A31462846FFF7A8FFCAEB0404A3B21CB2002C05DA019A164498
:400A400036B20BEB030424B201352DB2BD42E2DD03B0BDE8F08F00BF00B583B00244013A00930B4612B2FFF797FF03B05DF804FB00B583B00A44013A009313B20246FFF7A7
:400A80008BFF03B05DF804FB10B582B0BDF8104090420BD1994202DD0A46194613465A1A0132234612B2FFF7E3FF10E099420BD1904202DD034610461A46121A013223466E
:400AC00012B2FFF7C9FF02E00094FFF765FF02B010BD00BF2DE9F04F85B002AF8246884616461D46B7F83490BC6BB7F830E0CDF800E0FFF7D9FE06EBD67E0AEB6E0E05EB65
:400B0000D57508EB6508002201E0013201342378002BFAD102F1080323F00703ADEB030D02AB1D46A41A002103E014F8010B685401318A42F9DC00219954C2EBC201B14262
:400B40000CDA01EBD171AEEB6100012200924A4608F1FF31033000F071FC5DE0B1425BDD2F4C84FB06343444F617C6EBA40424B2013C00E0013C2B5D202BFBD104F1010B1F
:400B8000C7F804D004F1080323F00703ADEB030D02AB9C46121B511C396002F1080121F00701ADEB010D0DF1080A5046002603E0A95D0CF806100136B442F9DC002104E08A
:400BC00066180136AE5D465401319142F8DB002119550AF802103A68541ECBEBCB0B0BEBDB7BAEEB6B00C4EBC40404EBD474AEEB64040434012500954A4608F103010530CC
:400C000000F01CFC009553464A46A8F10501204600F014FCD7F804D00C37BD46BDE8F08F932449922DE9F0418AB007460C460020FFF750FE384605F009FA02460B46002097
:400C40004F4905F093FB05F001FD06464FF6FF7500950A23DC2219461E20FFF715FF0095C9231E220A211046FFF70EFF012C01D8152500E00C2514F0010F12D101240094B4
:400C8000404B4FF6FF720421E62000F0D7FB00943D4B4FF6FF72D921032000F0CFFB01242DE001240094394B4FF6FF720421E62000F0C4FB0094364B4FF6FF72D921032076
:400CC00000F0BCFBEBE7334907A806F0D1F904FB06F10A3109B24FF6FF78CDF800800B46DC221E20FFF7D0FE06FB04F10123009307AB42460A31032000F0A0FB013404EB5E
:400D000084029742DFDA01241BE02246224906A806F0AEF904FB05F01E3000B24FF6FF760096CA2302460A21FFF7AEFE04FB05F00123009306AB324604211E3000F07EFB67
:400D40000134BD2393FBF5F39C42DEDD134B93E8030004908DF8141004AB0293002301934FF4784300931E233C22D1218220FFF7B1FE02220A4B1A600AB0BDE8F08100BF50
:400D800000008E407C890000848900009089000098890000A4890000A8890000AC890000C481FF1F30B585B00024314B1C601F230093F023A02221462046FFF775FD4FF4CB
:400DC00078430093F023A02221461046FFF76CFD0094F023022221469F20FFF765FD009402234FF4A07277212046FFF75DFD00941623FC226D212120FFF756FD1D4B02930F
:400E000001944FF6FF7300931223F8226F212320FFF760FE184B0293019449F69F65009563238B220A210846FFF754FE134B02930194009563238B2283210A20FFF74AFEA8
:400E40000F4B029301944FF6F345009563238B220A21AB20FFF73EFE0A4B02930194009563238B228321AB20FFF734FE05B030BDC481FF1FB4890000D0890000DC890000A3
:400E8000E4890000F089000070B59EB00122434B1A6019AC424D0FCD0FC42B6824F8023B1B0C23703F4B15AE0FCB86E80F0010AC3D4D0FCD0FC42B6823700AAC3B4D0FCD2C
:400EC0000FC495E8030044F8040B2180384B93E803000890ADF82410090C8DF82610354A05AB07CA03C31A7019AB02930024019449F69F65009577231A4621462046FFF77A
:400F0000E9FD029601944FF6F346009677231A4679212046FFF7DEFD10AB02930194009677231A4621467920FFF7D4FD0AAB02930194009577231A4679210846FFF7CAFD70
:400F400008AB029301944FF6FF75009577234F222146F120FFF7BEFD05AB02930194009577234F227921F120FFF7B4FD0094F023022221467720FFF797FC009402234FF4F8
:400F8000A07277212046FFF78FFC0094F02302222146EF20FFF788FC1EB070BDC481FF1FF88900000C8A00001C8A0000308A0000488A0000508A000070B586B00322374B62
:400FC0001A600020FFF786FC354B0293002401944FF6FF7500951423EF22DB212046FFF779FD304B0293019400953223462296215020FFF76FFD2C4B0293019400953223A2
:40100000462250210846FFF765FD284B029301940095322346220A215020FFF75BFD244B029301940095322346229621A020FFF751FD204B0293019400953223462250215B
:40104000A020FFF747FD1C4B029301940095322346220A21A020FFF73DFD0A2205A9174B186805F07EFB0226009605AB2A466921142000F0E3F9124B029301940095F023B7
:401080004F222146F120FFF725FD0094F02332462146EF20FFF708FC06B070BDC481FF1F5C8A0000788A0000808A0000888A0000948A00009C8A0000A88A0000D080FF1F72
:4010C000488A0000F0B58DB00422434B1A600020FFF700FC414B0293002601964FF6FF7700971423EF22DB213046FFF7F3FC05AC3B4D0FCD0FC495E8070003C4227005ABB8
:401100000293019600970A23EF22AA213046FFF7E1FC344B1B68012B16D1334B0293019649F69F6300933223502264211E20FFF7D1FC2E4B02930196009732235022642132
:401140008220FFF7C7FC31E0CBB9274B0293002401944FF6FF7300933223502264211E20FFF7B8FC214B0293019449F69F6300933223502264218220FFF7ACFC16E01A4BF0
:401180000293002501954FF6FF7400943223502264211046FFF79EFC144B0293019500943223502264218220FFF794FC104B0293002401944FF6FF730093F0234F222146F1
:4011C000F120FFF787FC0094F02302222146EF20FFF76AFB0DB0F0BDC481FF1F0C8A0000BC8A0000D880FF1FB48A0000B88A0000488A000030B587B00522234B1A6000200D
:40120000FFF768FB214B0293002401944FF6FF7500951423EF22DB212046FFF75BFC1C4B02930194009546231A461E218220FFF751FC184B02930194009546231A467821BF
:401240008220FFF747FC0A2205A9134B186805F088FA0323009305AB2A466921322000F0EDF80E4B029301940095F0234F222146F120FFF72FFC0094F02302222146EF2064
:40128000FFF712FB07B030BDC481FF1FD88A0000F48A0000008B0000D480FF1F488A000030B585B00622124B1A600020FFF712FB104B0293002401944FF6FF75009514230B
:4012C000EF22DB212046FFF705FC0B4B029301940095F0234F222146F120FFF7FBFB0094F02302222146EF20FFF7DEFA05B030BDC481FF1F0C8B0000488A000030B58BB0EA
:4013000005460C460020FFF7E5FA0722234B1A600A2207A9284605F024FA0A2204A9204605F01FFA0124009407AB4FF6FF726E21642000F083F8009404AB4FF6FF72642143
:40134000084600F07BF80094154B4FF6FF72C821642000F073F806230093124B4FF6FF729621322000F06AF80F4B0293002401944FF6FF7500954623772228219620FFF733
:40138000A9FB0A4B0293019400951E23322221462046FFF79FFB0BB030BD00BFC481FF1F2C8B0000548A0000308A0000488A00002DE9F04782B092469DF8285000260122EB
:4013C00006E01D4CA45C224492B2013292B201369E42F6DB013296B24FEA4509C9EB01010FB2C9EB00000FFA80F94FF000081DE0A3190133104AD05C691ECDF800A02B46CF
:401400002A4601FB087105FB0090FFF74DFA013400E00024084B9B5D9C42E9DB01373FB21E44B6B20136B6B208F10108B8F1060FEFDD02B0BDE8F087408B00002DE9F043D4
:4014400083B081460F4690461E469DF828506B1EDBB2072B00D901254C467AE1203B3A2B00F26C81DFE813F063016A016A016A016A016A016A016A016A016A016A016A013C
:401480006A016A015B016A013B0043004B0053005B0063006B0073007B0083006A016A016A016A016A016A016A018B0093009B00A300AB00B300BB00C300CB00D300DB003B
:4014C000E300EB00F300FB0003010B0113011B0123012B0133013B0143014B01530100950023424639462046FFF762FF26E100950123424639462046FFF75AFF1EE10095C0
:401500000223424639462046FFF752FF16E100950323424639462046FFF74AFF0EE100950423424639462046FFF742FF06E100950523424639462046FFF73AFFFEE0009572
:401540000623424639462046FFF732FFF6E000950723424639462046FFF72AFFEEE000950823424639462046FFF722FFE6E000950923424639462046FFF71AFFDEE0009525
:401580000A23424639462046FFF712FFD6E000950B23424639462046FFF70AFFCEE000950C23424639462046FFF702FFC6E000950D23424639462046FFF7FAFEBEE00095D6
:4015C0000E23424639462046FFF7F2FEB6E000950F23424639462046FFF7EAFEAEE000951023424639462046FFF7E2FEA6E000951123424639462046FFF7DAFE9EE0009589
:401600001223424639462046FFF7D2FE96E000951323424639462046FFF7CAFE8EE000951423424639462046FFF7C2FE86E000951523424639462046FFF7BAFE7EE0009538
:401640001623424639462046FFF7B2FE76E000951723424639462046FFF7AAFE6EE000951823424639462046FFF7A2FE66E000951923424639462046FFF79AFE5EE00095E8
:401680001A23424639462046FFF792FE56E000951B23424639462046FFF78AFE4EE000951C23424639462046FFF782FE46E000951D23424639462046FFF77AFE3EE0009598
:4016C0001E23424639462046FFF772FE36E000951F23424639462046FFF76AFE2EE000952023424639462046FFF762FE26E000952123424639462046FFF75AFE1EE0009548
:401700002223424639462046FFF752FE16E000952323424639462046FFF74AFE0EE000952423424639462046FFF742FE06E000952523424639462046FFF73AFEC5EBC503F2
:401740001C4424B2B4F59E7F02DD093F3FB24C4601363378002B7FF481AE03B0BDE8F08338B50D46074901F019FF0446284605F0A3FC02462946204602F041F8204601F0C5
:4017800047FE38BD908E000038B50D46074901F005FF0446284605F08FFC02462946204602F02DF8204601F033FE38BD948E00002DE9F04397B006460F4691469846354BDB
:4017C0001B68ADF850301B0C8DF85230324B1A889B78ADF853208DF85530304B129303F1FF2303F57103139303F5602303F5806310932B4B1B68ADF844301B0C8DF846304A
:401800006C46284D0FCD0FC40FCD0FC40FCD0FC495E8030044F8040B24F8021B090C2170B9F1000F03D169463046FFF799FF7C08A70010ABD9193046FFF7A6FF1A493046C8
:40184000FFF7A2FF08EBC908D8E9002317490EA805F00EFC0EA93046FFF796FF144D29463046FFF791FF04EB440114AB19443046FFF78AFF0F493046FFF786FF12ABD91953
:401880003046FFF781FF29463046FFF77DFF17B0BDE8F083B08E0000B48E000056647300988E0000B88E00009C8E0000A08E0000A88E0000AC8E00002DE9D04384B004467E
:4018C00016461F469DF828009DF82C30012B11D804F0BCFB0022224B04F01EFC1EA3D3E9002304F019FC00221E4B04F015FC8046894610E004F0AAFB0022194B04F00CFC43
:4019000015A3D3E9002304F007FC0022164B04F003FC8046894632463B46144901A805F0A7FB01A92046FFF72FFF11492046FFF72BFF42464B460F4901A805F099FB01A917
:401940002046FFF721FF0C492046FFF71DFF04B0BDE8D083AFF30080FCA9F1D24D6210400000703F0000084000001040F08E0000AC8E0000F48E0000A88E000030B58BB012
:4019800004460D46A64B1B68072B00F28982DFE813F008004C00850095009C01F20150025A02A0F123039BB2F82B06D86E2904D9812902D8FFF7A2FC72E2A4F10A039BB29D
:4019C0008B2B09D8092D07D96D2D05D80022954B1A60FFF759FA63E28B2B09D8822D07D9E62D05D801228F4B1A60FFF74DFA57E2AB3CA4B28B2C09D8092D07D96D2D05D854
:401A00000222884B1A60FFF73FFA49E28B2C00F24782822D40F24482E62D00F241820322804B1A60FFF730FA3AE2772804D8772902D8FFF7C1FA33E2772C06D8782D04D996
:401A4000EF2D02D8FFF73EFB2AE2A4F179039BB2772B04D8772D02D8FFF7CCFB20E2772B06D8782D04D9EF2D02D8FFF719FC17E2F13CA4B24E2C04D8772D02D8FFF792F948
:401A80000EE24E2C00F20C82782D40F20982EF2D00F206820222624B1A6001E2A0F18204A4B23C2C00F2FC81D02940F2F981EF2900F2F68100225A4B1A60F1E1A0F1F10314
:401AC0009BB24E2B04D8EF2902D8FFF7DDF9E7E1A4F150039BB2462B26D8952D24D9C82D22D8504A536801335360B3F57A7F03DD4FF47A724B4B5A60002300931E233C22DB
:401B00005F210A20FEF7D0FE0A2207A9454B586804F027FE0223009307AB4FF6FF7269211420FFF78BFCBBE1462B26D84F2D24D9822D22D83B4A53680A335360B3F57A7F9A
:401B400003DD4FF47A72374B5A60002300931E233C225F210A20FEF7A7FE0A2207A9314B586804F0FEFD0223009307AB4FF6FF7269211420FFF762FC92E1462B26D8092D30
:401B800024D93C2D22D8274A536864335360B3F57A7F03DD4FF47A72224B5A60002300931E233C225F210A20FEF77EFE0A2207A91C4B586804F0D5FD0223009307AB4FF690
:401BC000FF7269211420FFF739FC69E1A03CA4B2462C29D8952D27D9C82D25D8114A5368013B5360002B02DC01220E4B5A60002300931E233C225F210A20FEF755FE0A2231
:401C000007A9084B586804F0ACFD0223009307AB4FF6FF7269211420FFF710FC40E100BFC481FF1FCC80FF1F462C24D84F2D22D9822D20D89B4A53680A3B5360002B02DC8A
:401C40000122984B5A60002300931E233C225F210A20FEF729FE0A2207A9924B586804F080FD0223009307AB4FF6FF7269211420FFF7E4FB14E1462C00F21281092D40F298
:401C80000F813C2D00F20C81864A5368643B5360002B02DC0122834B5A60002300931E233C225F210A20FEF7FFFD0A2207A97D4B586804F056FD0223009307AB4FF6FF7260
:401CC00069211420FFF7BAFBEAE0A0F1F1039BB24E2B04D8EF2902D8FFF7D6F8E0E0A4F11E039BB2502B1FD8632D1DD9962D1BD86D4B02930024019449F69F630093322334
:401D0000502264211E20FEF7E5FE684B029301944FF6FF7300933223502264218220FEF7D9FE01F027FABBE0823CA4B2502C00F2B780632D40F2B480962D00F2B1805A4BCE
:401D40000293002401944FF6FF7300933223502264211E20FEF7BEFE544B0293019449F69F6300933223502264218220FEF7B2FE01F0FCF994E0A0F1F1039BB24E2B04D8DF
:401D8000EF2902D8FFF780F88AE0823CA4B2462C26D81D2D24D9642D22D8424B9B68012B03DD013B3F4A936002E001223D4B9A60002300931E233C225F212820FEF774FDA5
:401DC0000A2207A9374B986804F0CBFC0323009307AB4FF6FF7269213220FFF72FFB5FE0462C5DD8772D5BD9BE2D59D82D4B9B68052B03DC01332B4A936002E00622294B2F
:401E00009A60002300931E233C225F212820FEF74BFD0A2207A9234B986804F0A2FC0323009307AB4FF6FF7269213220FFF706FB36E0A0F1F104A4B24E2C31D8EF292FD8EA
:401E4000FFF722F82CE0322807D81E2905D8FEF7A9FF0022164B1A6022E0002300931E231A465F210846FEF71FFD0A2204A9204604F077FC0A2207A9284604F072FC0124A0
:401E8000009404AB4FF6FF726E216420FFF7D6FA009407AB4FF6FF7264210846FFF7CEFA0BB030BDCC80FF1FB48A0000B88A0000C481FF1FFEE700BFF0B40022174611E016
:401EC00050F82760F3B226F0FF0608E001EB420511F812406D78A5550132013BDBB2002BF4D10137172FEBD9F0BC704708B50A46002104F043FC08BDF8B5164B1B78DBB219
:401F0000154E3478E4B2154F3D78EDB203F00701134A11701B090132137044F00303337045F003033B7080220E4B1A70012103F5C173197020230C490B7090310A700B4ACF
:401F400013700A2000F016FA3D7034704422084B1A70F8BDCF010049F8460040F94600406E58004009590040985A00402B5B00407658004008B504F0F6FB08BD38B500242F
:401F80002E4B1C8058232E4A1370023214800232137004222B492C48FFF7ECFF02222B4B1A7008224FF040231A70032103F500731970274B1B78DBB226490B70264B1A800F
:401FC00041F25122023B1A8019250CE0234B1B7803F0010343EA440404F003044FF4F07001F0E6F8013D0DB1032CEFD115B90320FFF760FF1A4B4FF480721A8007221A7048
:40200000002218490A704820023108701A700222033B1A7004220A331A70134A137843F003031370013A137843F001031370013A137843F08003137038BD00BF8040004056
:4020400082400040D4050048004100400043004008010049A146004022420040254200400440004006400040A2430040012807D8044B53F820201844017A13780B43137031
:40208000704700BFF88E0000012808D8044B53F820201844017A137823EA010313707047F88E0000012808D8044B03EB8002D2681844017D13780B4313707047F88E000099
:4020C000012809D8054B03EB8002D2681844017D137823EA01031370704700BFF88E0000012809D8054B03EB80029269184490F8201013780B431370704700BFF88E0000B6
:4021000001280AD8054B03EB80029269184490F82010137823EA010313707047F88E000038B572B6374A137843F00403137000240BE0354863001A19510001440A46098DED
:40214000506AFFF7D3FE0134E4B2082CF1D900240BE02D49A3001819420088188022016EC06DFFF707FF0134E4B2002CF1D027494FF09040FFF7A0FE254A137843F00203A3
:4021800013701032137843F002031370214C237843F040032370A2F58632513A137843F01003137008221C491C48FFF7E3FE08221B491C48FFF7DEFE08221B491B48FFF760
:4021C000D9FE08221A491B48FFF7D4FE08221A491A48FFF7CFFE1A4A137843F008031370184D61232B70FFF7C9FE81232B700122154B1A70FFF780FE0E2221461348FFF705
:40220000B9FE38BDE8460040F88E00006000004803500140A0430040AC05004802510040B4050048C2510040BC050048F2510040C405004812510040CC05004832510040A3
:40224000224300400048004004000840B043004008B504F043FA03680C2B00D1FEE7FEE708B5094B1A681044084BC31AB3F5805F02DC054B186005E004F030FA0C230360AE
:402280004FF0FF32104608BDDC80FF1FA092FF1F08B5104E104D16E029686B68AC68002204E051F8040B43F8040B0432A242F8D1E868002203E0002143F8041B043282428E
:4022C000F9D11035013E002EE6D104F00DFAFEF76BF8FEE7010000003092000008B5104A104B1A60104A136843F40073136000230AE0032B03D80D4A52F8231000E00C49B3
:402300000C4A42F8231001332F2BF2D90A4B1A780A4B1A70074A0A4B1A60FFF701FF08BD0004FA050CED00E014ED00E000000000512200000080FF1FBC760040C080FF1F42
:4023400008ED00E001BE704710B5044605E0084B186800F02DFFA4F50044B4F5004FF6D8034B586800FB04F000F022FF10BD00BFE080FF1F08B5034B1B7A00FB03F000F0F6
:4023800017FF08BDE080FF1F70B504460E46074B1D681F2802D90020FFF7D4FF04F01F04103455F8240045F8246070BD08ED00E038B504460D46072902D90020FFF7C2FF24
:4023C0001F2C02D90020FFF7BDFF04F01F0000F1604000F564406D01EDB2057038BD00BF044A137803F0FD03400000F0020018431070704700510040024B1878C0F3400081
:40240000704700BF01510040044A137803F0FE0300F0010018431070704700BF00510040044A137803F0DF03400100F02000184310707047F0510040054A137843F00203D0
:4024400013701032137843F002031370704700BFA243004008B500F0B3FE094A137843F0200313700232137843F0100313700432137843F01003137000F0A6FE08BD00BF77
:4024800090640040014B1878704700BF62640040014B1878704700BF66640040034B1B7813F0040FFAD0024B18707047626400404164004008B501E00A4B1B780A4B1B788E
:4024C00013F0200FF8D100F07BFE084B1A7842F001021A701A7802F0FE021A7000F074FE08BD00BF51640040666400409164004008B50F22064B1A70FFF7DCFFFFF7C2FF5B
:40250000FFF7C6FF0023034A13700432137008BD806400408264004008B5054B1B7823B9FFF7E6FF0122024B1A70FFF793FF08BDC881FF1F054A137843F008031370103243
:40254000137843F008031370704700BFA8430040054B1A7802F0FD021A701A7800F0020010431870704700BF2C580040014B1870704700BF835B0040064B1B78C3F38103F2
:4025800003F19243063393F83831DBB2024A1370704700BF2C5800400B46004008B5064B1A7802F0F3021A701A7800F00C0010431870FFF7E1FF08BD2C58004010B500243C
:4025C000054B1C7001331C700420FFF7E7FF2046FFF7BEFF10BD00BF2C58004008B5074B1B7823B9FFF7EAFF0122044B1A70FFF7A1FF6420FFF7BAFF08BD00BFC981FF1FC8
:40260000054A137843F0020313701032137843F002031370704700BFA8430040054B1A7802F0FD021A701A7800F0020010431870704700BF24580040014B1870704700BFA4
:40264000815B0040064B1B78C3F3810303F19243063393F83031DBB2024A1370704700BF245800400946004008B5064B1A7802F0F3021A701A7800F00C0010431870FFF7A5
:40268000E1FF08BD2458004010B50024054B1C7001331C700420FFF7E7FF2046FFF7BEFF10BD00BF2458004008B5074B1B7823B9FFF7EAFF0122044B1A70FFF7A1FF642060
:4026C000FFF7BAFF08BD00BFCA81FF1F08B50A280FD00C2802D0082806D102E04FF4805209E04FF4807206E00020FFF72BFE002201E04FF480620021084B198042F210733D
:4027000003FB02F313F5806301D503F2FF73DB12034A13600022034B1A8008BDFC91FF1F0092FF1FFE91FF1F10B500F049FD04461E4A137843F0020313701032137843F007
:40274000020313701A3A137843F0010313701032137843F00103137002F5AA521A32137843F0030313701822114B1A70013B1A7842F040021A701A7802F0FC021A70CE2243
:40278000053B1A700222A3F59753123B1A70094A137843F0080313700A20FFF7EBFD0122054B1A60204600F00FFD10BDAB4300400E5900402F5B004080E200E008B500F081
:4027C000FFFC0F4A137803F0FE031370A2F5AA521D3A137803F0FD0313701032137803F0FD0313701A3A137803F0FE0313701032137803F0FE03137000F0E6FC08BD00BF65
:402800000859004010B504460A280DD00C2802D0082804D101E0C22207E0422205E00020FFF790FDC22200E08222034B1A702046FFF74CFF10BD00BF0A59004008B5102033
:4028400000F0BCF807210020FFF7B2FD07490020FFF79AFD064A137843F0060313700C20FFF7D0FF0022034B1A8008BD59290000095900400492FF1F08B5054B1B7823B91C
:40288000FFF7DCFF0122024B1A70FFF74DFF08BDCB81FF1F044B1A7802F0FB021A701A7842F001021A70704708590040044B1A7802F0FE021A701A7842F004021A70704771
:4028C0000859004010B5074B1B7813F0010401D10028F8D024B10120FFF74CFD014B1B78204610BD09590040034B188880B2034B1B88C01A00B27047A25B0040FE91FF1F9C
:4029000010B4124B1B881BB233B1104B1B881BB203EB83035C0001E00D4B1C680D4B1988411A09B242F2107303FB01F2002903DD04EBD470401003E004EBD470401040429F
:40294000831893FBF4F000B210BC7047FC91FF1F0092FF1F0492FF1F704700BF08B50C4B1B7813F0020F0ED00A4B1B7813F0010F03D00322084B1A7002E00122064B1A7047
:40298000FFF71CFF08BD0022034B1A7008BD00BFAB43004008590040CC81FF1F08B5064B1B7843B1FFF7C0FE034B1B7813F0020F01D0FFF76FFF08BDCC81FF1F034B1A7806
:4029C00000F0F80010431870704700BF0241004038B50222114B1A7081220E3B1A70082202331A700F2511331D70002401331C704FF400420A4B1A6007212846FFF7D8FC28
:402A000008492846FFF7C0FC1022074B1A70074B1C70074B1C70074B1C7038BDD649004080E100E0392B00000692FF1F0A92FF1F1292FF1F0892FF1F08B500F0C1FB064AE1
:402A4000137843F0040313701032137843F00403137000F0B9FB08BDA543004008B5074B1B7823B9FFF7B4FF0122044B1A70FFF7E3FF4FF40042024B1A6008BDCD81FF1F7B
:402A800000E100E02DE9F8434FF40049214BC3F80090DFF8A08098F800301F4CE3701F4F3B7823711E4E3378637130783B7843EA002001301B4D2B7803F0FE032B7080B207
:402AC00000F076FB00F07CFB174A137803F0FB0313701032137803F0FB03137000F074FB2B7843F002032B70E37888F80030E37888F8003023793B70637933702B7803F026
:402B0000EF032B70094BC3F800901022084B1A70BDE8F88380E100E0F080FF1FDB490040DC490040D6490040A543004080E200E00692FF1FCA49004038B5A54B1C78A54B6F
:402B40001B7813F0400F00F03A81E4B214F0010F00F01D819F4B1B78453B052B00F21481DFE813F006008200120112010600DF0004F0DF0504F00A04082C42D1954B1B78E8
:402B8000DBB2452B35D1944B1B7813F0FF0F10D0924B1B681B78DBB2914A137004228C4B1A7001228F4B1A7046228A4B1A702C46EDE08D4B1B7813F0020F0DD08B4A137801
:402BC00043F00A0313706022824B1A704FF40042874B1A602C46DAE0864A137843F0100313701022844B1A700422023B1A702C46CDE00022764B1A704A22764B1A702C46EB
:402C0000C5E00A2C2BD1794A137843F0A0031370754B1B7813F0020F14D06E4B1B7813F0080F01D0092300E00A23704A11780B4313706022674B1A704FF400426C4B1A60D3
:402C40002C46A4E06B4A137843F0100313701022694B1A700422023B1A702C4697E00020FFF770FB2C4692E014F0020F36D15D4B1A78D2B2584B1B78DBB29A4210D2594AAC
:402C80001378DBB255490968CB5CDBB254490B7004214F4B197013780133DBB2137076E0514B1B7813F0020F0CD0504A137843F00A0313706022474B1A704FF400424C4BF3
:402CC0001A6064E04B4A137843F0100313701022494B1A700422023B1A7058E0424B1B7813F0020F0CD0414A137843F09A0313706022384B1A704FF400423D4B1A6046E003
:402D00003C4A137843F01003137010223A4B1A700422023B1A70354A137843F09003137035E0364A1378DBB2354908682C490978C9B2C15413780133DBB213701278D2B23A
:402D4000304B1B78DBB29A4203D21022204B1A701DE0254B1B7813F0020F0CD0234A137843F00903137060221A4B1A704FF400421F4B1A600BE01F4A137843F010031370B4
:402D80000022134B1A7002E00020FFF7DBFA14F0200F1CD00F4B1B7813F0080F01D0012300E00223114A11780B431370114A137803F0EF0313701022064B1A7038BD054BC7
:402DC0001B7813F0100F02D11022024B1A7038BDD74900400692FF1F0992FF1F1492FF1FD84900400892FF1F1092FF1F0A92FF1F80E100E0D6490040D94900401292FF1F63
:402E00000C92FF1F1192FF1F1A4B1B78DBB2102B29D1194B1B7813F0080F26D14FF40042164B1A604000C0B229B140F001004922104B1A7002E045220E4B1A70104B1870D7
:402E4000012201331A700F4B1B7813F0010FFAD00C4B1B7803F00A030A2B08D11022054B1A700320704702207047012070470020704700BF0692FF1FD949004080E100E029
:402E8000D8490040D7490040164B1B7813F0040F23D04000C0B229B140F001004922124B1A7002E04522104B1A70104B1870122201331A700422023B1A700D4B1B7813F067
:402EC000010FFAD00A4B1B7803F00A030A2B06D11022054B1A7003207047022070470020704700BFD94900400692FF1FD8490040D74900400A4B1B7813F0040F0ED01023C7
:402F0000074A13700421023A1170064A1370064B1B7813F0210FFAD00020704702207047D94900400692FF1FD7490040114B1B7813F0040F1BD0104B18700422013B1A7040
:402F400046220E4B1A700E4B1B7813F0010FFAD00B4B1B7813F0020F04D16022074B1A70002070476022054B1A70032070470220704700BFD9490040D84900400692FF1FEF
:402F8000D7490040114B1B7813F0040F1BD0104B1B78DBB2492B05D100220E4B1A704A220B4B1A700B4B1B7813F0010FFAD00A4B1B78DBB218B11021064A117004E0602140
:402FC000034A117000E0002318467047D94900400692FF1FD7490040D849004038B510B1012805D102E00425032401E006250524FFF734FD00213820FFF706FF2046FFF707
:4030000095FF01213820FFF73FFF0020FFF7BAFF84B2FFF76FFF00213820FFF7F5FE2846FFF784FF01213820FFF72EFF0020FFF7A9FF85B2FFF75EFFFFF724FD240204F482
:403040007064E8B2204338BD014B1B685864704708ED00E04001C0B2014B1870704700BF01E400E00222014B1A60704700E100E00222014B1A60704780E100E008B5FFF7BA
:40308000F7FF0448FFF7E0FF0720FFF7E3FFFFF7E9FF08BDA53000000222014B1A60704780E200E010B50120FFF798FF04460020FFF794FF01462046FEF760FCFFF7ECFF5A
:4030C00010BD00BF10B5002404E02046FEF7DCFF0134E4B2012CF8D9FF22014B1A7010BDF680FF1F10B50446FFF7ECFF2046FEF7BDFF014B1C7010BDF680FF1F10B50024F7
:4031000004E02046FEF7DCFF0134E4B2012CF8D9FF22014B1A7010BDF780FF1F10B50446FFF7ECFF2046FEF7BDFF014B1C7010BDF780FF1F10B5002404E02046FEF7E0FF0B
:403140000134E4B2012CF8D9FF22014B1A7010BDF880FF1F10B50446FFF7ECFF2046FEF7BFFF014B1C7010BDF880FF1F08B500F005F808BD08B500F00FF808BD08B5044BF4
:403180001B78C3F30013034A137000F039F808BD93640040FC80FF1F08B500F061F8034B1B780BB100F014F808BD00BFFC80FF1F0230800803D000BF01380046FCD1704720
:4031C000EFF3108072B6704780F31088704700BF08B5FFF7F5FF094A137843F020031370013A137843F0100313700432137843F010031370FFF7E8FF08BD00BF94640040ED
:4032000008B5FFF7DDFF064A137803F0EF0313700432137803F0EF031370FFF7D5FF08BD93640040014B1878704700BF63640040014B1878704700BF67640040034B1B7836
:4032400013F0040FFAD0024B187070476364004044640040014B1878704700BF5464004008B501E00A4B1B780A4B1B7813F0200FF8D1FFF7A5FF084B1A7842F001021A7002
:403280001A7802F0FE021A70FFF79EFF08BD00BF54640040676400409464004008B50F22064B1A70FFF7DCFFFFF7BCFFFFF7C0FF0023034A13700432137008BD8464004015
:4032C0008364004008B5054B1B7823B9FFF7E6FF0122024B1A70FFF77BFF08BDCE81FF1F094B10B5D8689A68002308E0114652F8084B1CB901230B60486810BD0133834280
:40330000F4D3002010BD00BF1892FF1F084B30B50022DC689B6808E05D6819460833854202D100230B6030BD0132A242F4D330BD1892FF1F01230373704700230373704721
:4033400010B1002282720260704718B1027B0AB1013A02737047000038B501F02BFD20B3124C4200E260000101F018FD238AA060E068584301F012FDA568E168228A00237E
:4033800004E005EBC3046060013380188B42F8D3102001F003FD054C6061282001F0FEFCA37CA06143F00203A37438BD1892FF1F38B510220D460021044601F021FCFFF7DB
:4033C0008FFF08B9013038BDA0604FF0FF33002065602360A07338BD38B5837A044643B1056801F0F7FA2846FFF7AFFF2046FFF7A7FF002038BD08B50368827A03B19B68FC
:4034000022B11BB1FFF7E8FF002008BD012008BD08B901307047FFF7EEBF000038B5104B9C69217B59B921606160A16004F11000142201F0E5FB237B013323730DE0656A8B
:4034400045B9282001F094FC606218B12946282201F0D6FB646A002CE3D1204638BD00BF1892FF1F38B50E4B5C69A17AE56839B92046102201F0C4FB0123A372E5600CE0D8
:4034800045B9102001F074FCE06018B12946102201F0B6FBE468002CE7D1204638BD00BF1892FF1F2DE9F74F06460020884691469B469DF830A09DF83470FFF7AFFF054644
:4034C00008B9044610E0FFF7CDFF044660B180F80B900560AE604046214652463B46CDF800B001F0ABF830B12046FFF729FF2846FFF72BFF00242046BDE8FE8F2DE9FF411A
:403500000C461F4604A9002341F8043D15469DF8286000F0A5F88046B8B1039B0BB11B789BB1404600F025F900280EDD14F0150F01D0032809D1039939B1404622462B4693
:4035400000970196FFF7AEFF00E0002004B0BDE8F08100002DE9F3410646884600240E4D404655F83410E70001F080FB10B9002C04DA0DE001340F2CF1D109E07D19A879D1
:4035800029790090EA796B793046FFF7B7FF00E00020BDE8FC8100BF608F0000FFF7DABF10B5437B04460BB1012010BD40682168A268A37B01F0C5FC10B10120607310BD0D
:4035C000207310BD10B5437B044663B9037B53B140682168A268A37B01F0B3FC08B1012363730023237310BD036870B5994204460D46164607D0037B0BB1FFF7E3FF00235E
:403600002560A673E37370BDFFF7DCBF10B50446FFF7D8FFA068BDE81040FFF777BE01230373FFF7CFBF10B50446407B08B1012010BDE37B5BB960682168A268A37B01F069
:403640001AFC10B10120607310BD0122E27310BD08B5436813B94FF0FF3008BD984708BD2DE9F0470F463A21064601F02EFB044610B93446174D27E00378C6EB000A5BB1C5
:4036800014F8013F43B162783A2A05D1A3F130085FFA88F8023401E04FF000080D4D2B6828791B689847814601F0EDFA504508D148463146524601F0EEFA10B92B7943454B
:4036C00002D0AD6D002DEAD107B13C602846BDE8F08700BF3492FF1FF8B5174C064694F85710A56D69B95C220127204601F088FA84F85770A5653046FFF7AAFF00280EDA01
:4037000018E045B95C2001F033FBA06518B129465C2201F075FAA46D002CE0D10AE0074B26609A6F01329A670323207184F8577084F856302046F8BD3492FF1F1892FF1F2D
:40374000FFF7CABF38B504460D4601F062FB08B9013838BD204601F06FFB204601F008FD204600F0D5FC08B184F8555094F8550038BD90F8553023B990F8561009B1FFF788
:40378000E1BF1846704710B590F8552004463AB931B1FFF7D7FF002802DC4FF0FF3010BD94F8550010BDFFF7EEBF10B50C460021FFF756FF08B9013810BD2146BDE810406F
:4037C000FFF7F1BF30B51346BAB1B0B10268857A0AB1946804B900247DB172B16CB1C27A12F0100204D14FF6FA730381104630BD1A46BDE8304001F00FB9002030BDFFF7DB
:40380000E1BF0C2802D0102805D102E001EB510070474800704788007047036840689B685B6AB0FBF3F0704710B5C46C436CE4B199421AD3E318994217D2013B99420CBFFE
:403840004FF0FF31013172B190F836300C2B02D0102B05D102E00905090D03E089B201E021F070411160012010BD002010BD40F6F473984201D80C2070474FF6F4739842B0
:4038800094BF102020207047027F8368023902FB01307047431EDBB21F2B13D92F2811D007D826280ED002D8222809D10AE02A3804E03A2804D33F2804D95B38022801D959
:4038C0000120704700207047034638B30B2A01DD0B2200E0013A00201CE0082809D191F808C0BCF1200F0DD04FF02E0C03F801CB08E038B991F800C0BCF1050F02D1ACF1C7
:40390000200C04E011F800C0BCF1200F01D003F801CB01309042E0DB00221A7070472DE9F04788B005AE04460D463046114600229A469DF84490BDF84C80BDF8507000F026
:40394000BDFC08B1002413E020462946524600F0AEFD044660B1129B31460093109A4B46CDF80480029700F065FF2846FFF7E2FC204608B0BDE8F08710B59DF80C4003947A
:40398000BDE8104000F078BD2DE9F04F144E87B0109DDDF848809DF84440376800950194CDF8088005937F68934682468946B84732680C4BDDF814C09A420DD060B9504696
:4039C00049465A46634610951194CDF8488007B0BDE8F04FFFF7D0BF07B0BDE8F08F00BF0081FF1F0890000070B5C37A04460B7010300D4601F098F9064604F10E0001F0AB
:403A000093F940EA0640686004F1120001F08CF90004A86004F1180001F086F9064604F1160001F081F940EA0640E86004F11C0001F061F9286170BD2DE9F845038A044606
:403A40000E46924687692BB907F118002146626900F004FC38465146224600F087FC0546204600F005FCD5B12B78C3B1E52BF1D095F80B80B8F10F0FECD018F00808E9D1A7
:403A800070692946B269FFF71FFF28463146FFF7ABFF238A404601332382BDE8F8854FF0FF30BDE8F8850222FFF79EBD2DE9F74F04460D461E461746002A00F09B8090F860
:403AC00036001146FFF79DFEB4F81EA0A36A20FA0AFA9A45814680F08D80638E04F118089A44284651464246FFF7DDFF2846FFF79AFD6B7B002B7DD1A38B013B09EA0309EA
:403B0000AB681FFA89F909EB030B26B9226C974203D2276401E07A1C226494F83620102A0AD0202A11D1584601F0E5F831460746584601F0EBF84EE0584601F0F5F8B1B261
:403B40000746584601F0ECF845E028460193FFF7F1FB019B17F0010F19F803701CD007F00F0242EA061209F80320A38B013B994502D00BF1010309E028460AF101014246F3
:403B8000FFF791FF2846FFF74EFDAB681A78120142EA171732091DE009F80360A38B013B994502D00BF1010309E028460AF101014246FFF778FF2846FFF735FDAB681A7884
:403BC00002F00F0147EA0127310A22F00F0201F00F010A431A702846FFF7ACFBE36BB3F1FF3F09D00FB10133E3632EB1E36B013BE36301E0012000E00020BDE8FE8F6FF0A4
:403C00007043FFF753BF70B5C36C04460E4693B1002506E0AA1820463146531CFFF746FF0135E36C626C013B9D42F3D320463146AA18FFF7E4FF00236364E364A3642365D3
:403C400070BD70B506460D461C460AB1FFF72EFF304629462246BDE87040FFF7D0BF2DE9F04790F8366005460C46304611469146FFF7C7FDB5F81E80AB6A20FA08F898452F
:403C8000824602D30020BDE8F0876B8E05F118079844204641463A46FFF705FF2046FFF7C2FC18B14FF0FF30BDE8F087AA8BA168013A0AEA020A1FFA8AFA92450AEB010387
:403CC0001AF8015001D0013309E0204608F101013A46FFF7E8FE2046FFF7A5FCA36818780C2E45EA002009D0202E0FD15D7840EA05409D7840EA0560BDE8F08719F0010F71
:403D000002D00009BDE8F0870005000DBDE8F0872DE9F34190F83630144603FB02F7828B8846D200511E0F40D71B0546B7FBF3F7002618E00E4B93F87C30022B05D1284672
:403D4000214601AAFFF770FD28B9284641462246FFF785FF0190019B0134A34205D10136B6B2013F1C46002FE4DC3046BDE8FC811892FF1F2DE9F34105460E461446984648
:403D80001F681CE0114B93F87C30022B05D12846214601AAFFF748FD28B9284631462246FFF75DFF0190737B0BB100240BE0AA6B019B0132934204D81BB1013F1C46002F33
:403DC000E0D1C8F800702046BDE8FC811892FF1F73B504680E4623681BB9FFF71EFD013039E0FFF71AFD236998423CBF4FF0FF3323612369B3F1FF3F04D122680133236108
:403E00006261E3832169E28B451A954234BF2B4613463BB16069C918C018D21A60612161E283ED1A0DB9284615E002AB43F8045D31466269A068FFF79DFF6061019B216931
:403E40000246C91A4D19256123B9A0683146FFF75FFFE08301987CBD13B502AC44F8043D2346FFF787FF019B002B18BF00201CBD2DE9F0410746884615461E460024384615
:403E800041462A460123FFF7E7FF30B1BA6B0134944201D80546F2E7002406B134602846BDE8F0812DE9F84504460E4615461F46002B36D01C4B93F87C30022B31D190F8D3
:403EC000368011464046FFF79CFCB4F81CA00AF1FF3A2AEA000A4FEACA0ABAFBF8FAAA44A8460EE0204631464246FFF7B8FE50B9636C0BB9C4F84480A36C08F101080133F7
:403F0000A364D045EED9A36C5BB127653B685A6922B1204631462B46FFF7C8FDE36C0133E364BDE8F88500BF1892FF1F2DE9F8459846274B054693F87C300F46022B16463F
:403F4000846B19D1036D984503D0836C0BB1FFF75AFEB8F1000F0FD02B6D43450CD1EB6CAA6C9A4204D96C6C1C190133EB642CE028463946FFF747FE012E04F1010A01D9C8
:403F8000564505D92E6C012E01D9564500D902263446284639462246FFF761FE50B101345445F6D902240DE0284639462246FFF756FE30B92846394622464346FFF772FFA7
:403FC00003E00134B442EFD300242046BDE8F8851892FF1FF8B507460E461546FFF7A6FF044628B1384631462A462346FFF729FE2046F8BDB2F1FF3F73B504460D4614D086
:40400000561A013611D0FFF7FFFA084B00211A8AA06800F0F5FD022300936068A3682946324600F069FF0023E3737CBD1892FF1F2DE9F84F984690F8363004460C2B0D46C6
:4040400016465AD04FF0FF3AD1463CE094F836003146FFF7D6FBB4F81CB0678E0BF1FF3B10EA0B0BE38B1DD1D840013F3F18022228463946FFF7B8FAA38BAA689B0852F86B
:404080000B1079B9013B0BF1040BF8D13BE0494628465246FFF7AEFFB946BB462846FFF74CF9DA462946324601232046FFF7D4FE29460746324620460023FFF7F7FC2FB1C8
:4040C00008F1FF383E46B8F1000FBFD1284649465246FFF78FFF13E02946324601232046FFF7BAFE29460746324620460023FFF7DDFC2FB108F1FF383E46B8F1000FEBD105
:404100004046BDE8F88F0AF1010B5F45BFD1C5E72DE9F8450446FFF7E3F8054608B9044696E0204600F014FF4B4E338A834208D338B1002120462A460B4600F09CFE00286A
:4041400004DA2846FFF7E2F8002481E005F5FF7000F0EAFD4AF65523984275D105F10B0000F0E2FD10F47E4F07466DD0338A83426AD32B7C022B67D16E7B002E64D0002124
:404180003C2204F1180000F03BFD05F1130000F0CBFD804620B905F1200000F0ACFD804605F1160000F0C0FD824680B905F1280000F0BAFD10F08F0F46D105F1240000F059
:4041C0009AFD824605F12C0000F095FDE062022384F83530C4F828A0C4F8188084F8346005F10E0000F0A0FD608605F1110000F09BFD638E94F83520208602FB0A3A7B0949
:404200009BB2B0FBF3F05044A7832062092301229A40BA4201D1E38302E00133102BF6D17743C0EB0800B0FBF6F0A0636762FFF71EFB4FF0FF33202884F8360018BFC4F817
:404240002CA0E363012400E000242846FFF75EF82046BDE8F88500BF1892FF1F00238B60837F202B01D102B942694A600A60704783680133836070472DE9F0410C46202149
:4042800005461F469DF818604FF0000800F0B8FC10E014F8080036B9E52804D1B8F1000F01D1E03802E000F009FDC0B205F8080008F10108B845ECDBBDE8F0812DE9F74562
:4042C00006460D4608462849002A14BF92464FF0FF3A00F0CBFC804650B930462946022200F05DFEB01C2021092200F089FC37E000274FF0FF3415F80780B8F1000F01D0BF
:40430000574505D1B4F1FF3F08BF3C4664B925E04046FFF7BFFA08B3B8F12E0F08BF3C4601370D2FE7D119E0082C17DC3F1B042F14DC30462946082223464FF00008CDF851
:404340000080FFF799FF0123611C009306F10800691803227B1EFFF78FFF01E04FF001084046BDE8FE8500BF189000002DE9F74FD2F808B0436A4FEA4B18B8FBF3F8D368FB
:40438000054698450E461446D2F8009001D20023D360B5F81EA0E368AAF1050A0BB9D4F804902BFA0AF7B9F1000F17D095F83420B8EB0303019206D04A4628463146FFF7FC
:4043C0004BFD814640B3494605F11800FFF75CFA019B591E01EA0707C11906E02B8E43FA0AF39F4218D2E96A79183046C4F80090C4F80C800122FFF7F7F83046FFF713F9DA
:4044000050B9013000FA0AFAB3680AF1FF3A0AEA0B0B03EB4B1000E00020BDE8FE8F2DE9FF4107460E4601A811461A460A9D9DF82C40FFF743FFC8B9384631462A46FFF75D
:4044400095FF8046A0B1037883B101A90B2200F0C7FB38B998F80B3004EA0302A24201D1082B05D12846FFF703FFE5E74FF00008404604B0BDE8F0812DE9F04587B002AFEF
:4044800004460E46154698469DF83CA039460E9A1830FFF7E3FE204631462A4643460097CDF804A0FFF7BBFF07B0BDE8F0852DE9F04500F1180785B005460C4638466946BD
:4044C0009246FFF7CBFE284621466A46FFF74EFF06466846E846FFF7CBFE002E37D1BAF1000F02D12B8E002B35D12146009A00232846FFF7BDFC2146024600232846FFF752
:4045000069FD80462046FFF78AF8B8F1000F22D0AA8B0021A06800F073FB38464146FFF7B3F995F8347000257E1E361808E0314620460122FFF758F82046FFF731F8013E32
:4045400001357B1BB3F1FF3FF1D1A66803E033780BB1E52BB7D1304605B0BDE8F08538B504461A3000F0E0FB054604F1140000F0DBFB45EA004038BD2DE9F0451D4685B0E9
:4045800007460E462A6010465C21904600F09DFB4FF0000A0446A04508D108F10108C5F8008040465C2100F090FB044694B1C8EB0403002B0EDD10220192103A0292384611
:4045C00031464246CDF800A0FFF7DEF970B1FFF7C6FF824628685C2100F077FBA04604460028D8D10C9B0130C3F800A005B0BDE8F085F8B505460C461E461746DAB16FF07F
:404600001A0313700846FEF795FE16B94FF47A7608E007F11C0000F06EFB6B6A5E1E3618B6FBF3F63846FFF79AFF2146024633462846FFF7FDFC607BF8BD00002DE9F04FFD
:40464000D1F8008093B0D8F808700BAD044608930E464FF0FF333946284609920F939DF870A0FEF7A5FE10AB009338462946224611ABFFF781FFD0B1F27A109B07920FAADE
:4046800000930292002338462946119A0193FFF77BF9044680B1C37A13F0100F07D10D9BDDF82CB0C3EB00094FEA691906E02846FEF7ACFF0125A3E083468146099B002BA1
:4046C0003CD0002C33D0524B5D6912E02B687BB1AA7A6AB19A8B4A450AD19A695A4507D19B68BB4204D14FF6F772328100257EE0ED68002DEAD10DF12C0C6146384622466A
:404700000123CDF818C0FFF774FFDDF818C018B14FF0FF3333816AE03E4B1B68DC6824B138466146109A0F9BA0472C4606E0BAF1000F03D1089A002A44D065E0089BEBB19B
:40474000CCB1E37A13F0010F0BD0079A12F0150F07D04FF6FA733381BAF1000F01D1012500E000252046FFF7FAFE074604F11C0000F0C1FA29E0BAF1000F45D0BAF1010FC6
:4047800001D000251BE0ECB900F022FD214B20221B68019282B2000C03920490009402949D6838460BA9119A109BA84750B10D9ADDF82CB0C2EB00094FEA691925462846DE
:4047C0002F4602E00125002007464FF0FF33C8F81030C8F818B0A8F81C90079AC8F8040012F0010308BF1846C8F800707060B6F908300BA835EA230528BF0125FEF706FF12
:40480000284613B0BDE8F08F01255046DCE700BF1892FF1F0081FF1F70B505460C461A3089B200F07DFA05F11400210CBDE8704000F076BA2DE9F0470446BDF824700D46F1
:404840009146002120229A46BDF82860DDF8208000F0D6F90B222046294600F0A0FB04F10E00394684F80BA000F05AFA04F11000314600F055FA04F11600394600F050FAB4
:4048800004F11800314600F04BFA20464946FFF7C3FF04F11C004146BDE8F04700F036BA07B5426803460AB910460AE081680020009048681968DB6800F0FCFA003818BF8A
:4048C00001200EBD2DE9F047046805460F46A668FFF77EFA81468246002841D0D4F80080B8F1000F1BD14246304639462B46FFF71DFB0246D8B11C4B6061C4F8108093F873
:404900007C302060022B07D030463946FFF777F910B10120BDE8F087B9F1010A20D03046394662692B46FFF701FB804628B94FF6FE732B810130BDE8F0870B4B93F87C3043
:40494000022B05D03046394662694346FFF779F92369C4F8148001332361BAF1010ADDE70020BDE8F08700BF1892FF1F2DE9F041836804460D4608460122A1699E8BFEF74B
:4049800033FE2846B4F81C80AF68FEF74CFEF8B9013E06EA4816B6B2BE1906F11C00616800F0B4F921683046FFF736FF00F010FC0446A1B206F1160000F0B2F906F118004A
:4049C000210C00F0ADF92846BDE8F041FEF727BEBDE8F0817FB50668B0F90830B568C3B9C37A13F0110F14D029466846FEF7E0FC30466946FFF7BAFF064B6C4693F87C3064
:404A0000022B03D128466946FFF7FDF86846FEF7FDFD7FBD1892FF1F03682DE9F04F9F68038995B001339BB2012B04460E46059201D90025CEE0394610AD0CA8FEF7B8FC0C
:404A400039462846FEF7B4FC039626680023D6F808909A4609F118010791D9F82420059906924FF0FF32099308920A950291049320460CA9FFF726FF38B108A8FFF710FFDB
:404A80005546002818BF00258FE03269069901324A43B9F81CB063680BF1FF3BD21A0BEA030B029B0798934228BF134601937169FEF7EAFE99F83430B9F81C206768013BD8
:404AC000B7FBF2F703EA0707C719B9F81C300199CBEB03058D4228BF0D469D4228D0BBF1000F03D1626873689A420FD00DF14008404639460022FEF777FD4046FEF793FD3B
:404B000020B14FF6F9725546228154E01298039958442A460DF1400800F041FA404639460022FEF761FD4046FEF73AFD90B141E0099B089A9A1897420AD008A8FFF7B0FE32
:404B4000002837D101230993039B08970B9301E001330993029B03995B1B019A029363684919521BAA44ED186560736803919D42019207D91BB1194B93F87C300BB901217A
:404B800004917560019A1AB101374FF0000B9CE7029B002B7FF46CAF08A8FFF781FE04995546002818BF002529B1304610A9FFF7DDFE00E05546059A954205D0B4F90830C4
:404BC00013B94FF6F87323810CA8FEF71FFD10A8FEF71CFD284615B0BDE8F08F1892FF1F10B5002308E0C45C11F803C0013A0133644501D0012010BD002AF4D1104610BD46
:404C000070B5034602E003F8011C013A1C4622B103F003050133002DF5D193081ED04FF001354D4308E044F8105C44F80C5C44F8085C44F8045C043B032BA44604F110041C
:404C4000F1DC1C46002603E04CF80650013B0436002BF9D102F003020CEB8404002302E0E154013A0133002AFAD170BD002310F803C0CA5C624501D0012070470133002AF4
:404C8000F5D110467047002300E00133C25C002AFBD11846704710B500230BE0C45C11F803C0644501D0012010BDC4186478013314B1013A002AF1DC002010BDA0F16103D5
:404CC000192B98BF00F0DF007047C9B203E00BB918467047013003788B42F8D1704742780178431C42EA01205A789B7842EA002043EA002070478378C27803EB022243784D
:404D000003EB0222037803EB0220704703460A0A03F8011B42700A0C090E5A70997070470170090A417070474278037843EA022070470000094A0A4BC11C10B5146821F044
:404D4000030118680919814201D9002010BD11609A685868013220189A6010BD9892FF1FD081FF1F08B5FFF7E5FF00B9FEE708BDFFF7E0BF30B1044A9368013B93600BB93B
:404D8000024A1360704700BFD081FF1F9892FF1F014B586019607047D081FF1F38B50546FFF7E0FF002104462A46FFF729FF204638BD000010B5084CA37C0BB1002010BD22
:404DC0004FF40073238200F0F5F9A37C012043F00103A37410BD00BF1892FF1F08B583680BB10020984708BD08B583680BB10120984708BD10B504680079A468A04710BDDD
:404E000037B59DF81850046800790095E468A0473EBD08B5036800799B69984708BD036810B55B69044623B10079984708B1002000E00120607110BD10B5437904460BB927
:404E4000FFF7EDFF607910BDF7B504461F460E461546FFF7F1FF2046FFF7C6FF2A463146012320460097FFF7C5FF05462046FFF7B5FF2846FEBD10B504690919BDE810400A
:404E8000FFF7E2BFF7B5044615461F460E46FFF7D3FF2046FFF7A8FF0023009331462B463A462046FFF7ACFF05462046FFF796FF2846FEBD30B504699DF80C5009190395FF
:404EC000BDE83040FFF7DEBFF7B5044615461F460E46FFF7B1FF2046FFF786FF0123009331462B463A462046FFF78AFF05462046FFF774FF2846FEBD30B504699DF80C50EF
:404F000009190395BDE83040FFF7DEBF73B504460E461546FFF790FF2046FFF765FF00232A460093314601332046FFF769FF05462046FFF753FF002D14BF4FF0FF3000208D
:404F40007CBD10B504690919BDE81040FFF7DEBF30B5054685B0FFF76FFF2B6828791C694FF47B71002201ABA04708B1002001E0BDF80C0005B030BD70B506460D46FFF7DF
:404F80005BFF336830791C694FF47B7100222B46A047002814BF4FF0FF30002070BD11F0030F70B584460B4632D110F0030F2FD195100446AC4611E053F8106CACF1040CC1
:404FC00044F8106C53F80C6C44F80C6C53F8086C44F8086C53F8046C44F8046C10341033BCF1030FE8D8AB081B0100EB030CCB1815F003050AD0284600215C584CF801404B
:4050000004310138F9D1AD00AC445B1902F0030213F0010F19462FD11CF0010F60462BD15410254610E031F8086C043D20F8086C31F8066C20F8066C31F8046C20F8046C91
:4050400031F8026C20F8026C08300831032DEAD8A108C9005B1814F003048C440AD0204600215D5A2CF8015002310138F9D16400A4441B1902F00102614610E013F8040C06
:40508000043A01F8040C13F8030C01F8030C13F8020C01F8020C13F8010C01F8010C18460433032A8C4601F10401E7DC32B10023C15C0CF8031001339342F9D170BD037846
:4050C000E92B01D101207047EB2B01D0002070478078902814BF00200120704708B500F5FF70FFF721FE4AF65523984214BF0020012008BD01EB001000F5E370FFF7FBBD26
:40510000F0B50D4685B01446064658B352B300210B46FFF799FE002824DB2046FFF7DEFF00B32046FFF7CBFF10B10024274616E02146FFF7DFFF074604F5E570FFF7DBFD68
:4051400001A904463046FFF717FF5CB157B1E219FF23120AB2FBF3F2029B9A4202D81DB12C6001E04FF0FF37384605B0F0BD000073B50446FFF7ECFE0646FEF7B1F80C4B63
:4051800005461B8AB3420DD366B1204601A92A46FFF7B6FFB0F1FF3F04D02061019B6361002400E0FF242846FEF7B0F860B27CBD1892FF1F08B54FF480510348FFF7E8FD18
:4051C0000248FEF7BDFA08BDDC81FF1F649000004FF40410704700BF4FF6FF7070470000014B1868704700BFDC91FF1F004870478490000000F016BD37B501220DF1070195
:40520000054600F015FD9DF80740FF2C14BF0A240724284601220DF1070100F009FD9DF80700FF2803D1013CE4B2002CF1D13EBD37B50469857828460DF10701012200F031
:40524000F7FC9DF807300BB1002003E0013CF2D14FF0FF303EBD37B54FF0FF3305460C468DF8073006E028460DF10701012200F0EDFC013C002CF6DC3EBD000038B5094CC3
:405280002368032B02DD4FF0FF3509E0DDB2013323601420FFF782FD04EB850460608570284638BDDC91FF1F08B5034B4FF400711B68984708BD00BF0481FF1F4FEAD20C91
:4052C000ACEBD103CCF10F0C10B501336044002410F801CB013B4CEA0424F9D101F00703511A02228A40DC40013A04EA020010BD7FB5130E85788DF80530130C01F03F01AE
:405300008DF80630130A41F040018DF8073000238DF808208DF804101A4601A911F802C000215B00DBB283EA0C0E1EF0800F18BF83F009030131082904D04FEA4C0C5FFA85
:405340008CFCEEE70132052AE7D15B0043F001038DF809308678C4680122304603A900F067FC9DF80C30FF2B04D00CB9FF2009E0013CF1E7284601A9062200F067FC2846F2
:40538000FFF73AFF04B070BDF7B5847806460F4620460121FFF75FFF204600F0E5FB304609210022FFF7A4FF8DF8070028BBF6680546012220460DF1060100F039FC9DF8C7
:4053C0000630FE2B06D0FC2B04D00135ADB2B542EFD112E00DF1070520463946102200F027FC29462046012200F022FC29462046012200F01DFC002500E0FF25204600F085
:40540000BDFB20460121FFF726FF2846FEBD00002DE9F04F9B46494B89B003EB800305925C684A02029103924FF00309029AA578E678039B2846022E08BF13461E4600F093
:405440009DFB01212846FFF706FFBBF1010F0CBF4FF0110A4FF0120A284600F085FB204651463246FFF744FF002851D1059F5E46A378E268B44604924FF000081E460FE020
:40548000012230460DF11F01CDF804C000F0D0FB9DF81F20DDF804C0FE2A05D008F10108049B9845ECD333E0284639464FF40072664600F0BDFB0222284607A900F0B8FB5C
:4054C0009DF81C30384601939DF81D80FFF7ECFE4FF6FF729042019B0CD048EA0328404508D0BAF1120F13D120460C210022FFF7FFFE0DE0013E02D007F50077B8E7BAF1DA
:40550000120F07D120460C213246FFF7F1FE01E04FF0FF36284600F031FB28460121FFF79AFE3EB1B9F1000F02D009F1FF397DE74FF0FF36304609B0BDE8F08FDC91FF1F23
:405540002DE9F04F99464C4B87B0029203EB80039DF840205D68009103926B78002B40F085804B0201930327009BAC78EE78019A2046022E08BF1A46164600F0FFFA012112
:405580002046FFF768FEB9F1010F0CBF4FF0180A4FF0190A204600F0E7FA284651463246FFF7A6FE8DF81700002850D120460121FFF751FE029ECB46B8463046FFF774FE54
:4055C0000DF11707BAF1180F0CBFFE23FC2301228DF817308DF81500030A394620468DF8143000F033FB204631464FF4007200F02DFB0222204605A900F028FB01222046D2
:40560000394600F015FB9DF8173003F01F03052B1CD12846FFF70CFEC0B9039A0AB906F50076BBF1010BC8D1BAF1190F474611D106A96FF00203204601F8013D012200F0CF
:4056400005FB2846FFF7F4FD20B100E047464FF0FF3600E00026204600F090FA20460121FFF7F9FD26B10FB1013F7DE74FF0FF36304607B0BDE8F08FDC91FF1F2DE9F04FE9
:40568000877887B0044638460D4600F06DFA20463A210022FFF72CFE064638B1384600F06DFA38460121FFF7D6FD58E00DF1140804224146384600F0BBFA4046FFF70FFB24
:4056C0008046384600F05AFA01213846FFF7C3FDB8F1000F28F07F02B8BF4FEA987BD2B240F272634FEA1828B8BF0BF0010B1FFA88F8002A14BF1A460022012111EA080FEA
:4057000005D10136F6B24900102E89B2F6D140F27260824233460DD06422724302F5FA6208E011EA080F07D049000133013689B2DBB2F6B20F2EF4D964214B434FF6FE71B9
:4057400003F5FA6302EA01014FF6FC72384603EA020200F049FA10F0FF0F40F099804FF0FF3092E028467E217F22FFF7A7FD8246EB78DFF82C8103F0030203F0780308EB0A
:40578000D30358F822101B7C3846594389B200F001FA0646002877D06B7803F00702DB1003F00F0308EB82024344126A93F810800292B8F1000F67D0A978284603911C22B7
:4057C0001A21FFF77BFD0190BAF1000F1FD1502153222846FFF772FD4FF0010909FA00F92F2131222846FFF769FD1FFA89F982463E21284649224FEA5929FFF75FFD0AF1B7
:40580000020A09FA0AF9013000FB09F910E0BAF1010F01D0012038E0284630214522FFF74DFD4FEA8029BBF1000F01D00223E37008FB06F2029B0399B2FBF3F2642303FBDC
:4058400001225A437343D208DB089A4294BFE260E360FA235E43019BF6089A400C21B24294BF2261266128460D22FFF727FD0546384600F08DF94FF4007128436070A1808B
:40588000C4F80890002000E0FF2007B0BDE8F08FE378A778012B3FF465AF4FF0000A67E71C900000F0B5857887B004464FF4C871284600F06FF9B0F5C87F00F2CC804CF29D
:4058C0005033E3600026284600F058F90A212846FFF7C1FC624B93E8030001902846ADF8081000F041F9062201A9284600F0AEF92846FFF781FC0746284600F03FF90121F3
:405900002846FFF7A8FC17F0010F03D10136052ED9D1A0E0284600F027F9082120464FF4D572FFF7E5FC10F0040F52D0284600F025F9A5784FF4FA66284600F015F9002273
:4059400037212046FFF7D4FC28460121FFF783FC292100222046FFF7CBFC0746284600F00DF928460121FFF776FC17B90123E3701EE017F0040F01D1013EDDD14FF4FA66A5
:40598000284600F0F1F8012100222046FFF7B0FC0746284600F0F2F828460121FFF75BFC0FB9E77004E0012F55D1013EE8D152E001AD20462946FFF7E7FC00284BD1204659
:4059C0002946FFF75BFEC0B2002844D10123237043E00422A07805A900F02AF9284600F0CDF89DF81730AA2B35D19DF8163003F00F03012B2FD1A5784FF4FA66284600F05D
:405A0000B3F8002237212046FFF772FC28460121FFF721FC29214FF080422046FFF768FC0746284600F0AAF828460121FFF713FC0FB1013EE2D101AE20463146FFF7A4FC13
:405A400048B90125E57020463146FFF717FEC0B208B9257001E04FF0FF3007B0F0BD00BF5C90000010B5084B03EB80035C6823783BB9FFF7BFFB20B12046BDE81040FFF7EE
:405A800011BF4FF0FF3010BDDC91FF1F38B51D46154BA1F57B7103EB80035C68072918D8DFE801F00A17171704041719204600211422FFF7A5F80CE0237833B92046FFF76B
:405AC000F1FE10B14FF0FF3038BDA3882B81A3686B60002038BD2046FFF74CF9024B00201A68013A1A6038BDDC91FF1F10B580B9104B1B78EBB901240E4B1C7000F0C0F8CA
:405B000021463B2000F0D8F800F0ACF8FDF7DAFB10BD084B1B7863B90124064B1C7000F0AFF821463B2000F0C7F800F09BF8FDF7C9FB10BDF091FF1F08B550B90846FDF7FE
:405B40007DFBFDF76FFB10F0010FFAD0FDF782FB08BD0846FDF772FBFDF764FB10F0010FFAD0FDF777FB08BD08B510B900F010F908BD002000F00CF908BD00BF08B518B9CD
:405B8000012000F005F908BD012000F001F908BD0020704738B5B1F5C87F04D30D46B1F57A6F03D804E04FF4C87501E04FF47A656C00A4B245F6C053B3FBF4F448B900F0FE
:405BC0005FF8601E012180B200F076F800F04AF808E000F055F8601E012180B200F06CF800F040F8284638BD032809D840F6E44399420FD840F6E3439A420DD800207047F7
:405C000040F6E443994209D840F6E3439A4207D8002070470020704701207047002070470120704708B5FFF761FF022008BD00BFF8B507460D4614466E1CFF213846FFF781
:405C40007BFF28703546013CF6D1F8BD70B5064614464D1C09783046FFF76EFF2946013CF7D170BD054A137843F0010313701032137843F001031370704700BFA2430040F9
:405C8000054A137803F0FE0313701032137803F0FE031370704700BFA2430040014B188880B2704780400040024B187800F00700704700BF8240004070B505460E46FFF7D9
:405CC000F3FF0446FFF7EAFFA84256D02B4B1B7803F0010294B900B185B938B9284B1D80284A137803F0BF03137070BD254A137843F040031370224B1D8070BD22B30023B9
:405D000021490B7001240F310C7004310B700C390B7803F07F030B701A4B1B7813F0080F00D08DB9194B18800721013B1970164B1B7813F0010FFAD110490B7803F0FE0382
:405D40000B700021104B19700C4B1B7813F0010F0DD00E4B1D800EB1032200E001220A4B1A70094B1B7813F0010FFAD170BD044B1D8002490B7813430B7070BDA24300403E
:405D800080400040824000400140004002400040044A137803F0FB03800000F004001843107070471051004081F0004102E000BF83F0004330B54FEA41044FEA430594EA02
:405DC000050F08BF90EA020F1FBF54EA000C55EA020C7FEA645C7FEA655C00F0E2804FEA5454D4EB5555B8BF6D420CDD2C4480EA020281EA030382EA000083EA010180EA36
:405E0000020281EA0303362D88BF30BD11F0004F4FEA01314FF4801C4CEA113102D0404261EB410113F0004F4FEA03334CEA133302D0524263EB430394EA050F00F0A78082
:405E4000A4F10104D5F1200E0DDB02FA0EFC22FA05F2801841F1000103FA0EF2801843FA05F359410EE0A5F120050EF1200E012A03FA0EFC28BF4CF0020C43FA05F3C0181E
:405E800051EBE37101F0004507D54FF0000EDCF1000C7EEB00006EEB0101B1F5801F1BD3B1F5001F0CD349085FEA30004FEA3C0C04F101044FEA445212F5800F80F09A804B
:405EC000BCF1004F08BF5FEA500C50F1000041EB045141EA050130BD5FEA4C0C404141EB010111F4801FA4F10104E9D191F0000F04BF01460020B1FA81F308BF2033A3F18B
:405F00000B03B3F120020CDA0C3208DD02F1140CC2F10C0201FA0CF021FA02F10CE002F11402D8BFC2F1200C01FA02F120FA0CFCDCBF41EA0C019040E41AA2BF01EB0451ED
:405F4000294330BD6FEA04041F3C1CDA0C340EDC04F11404C4F1200220FA04F001FA02F340EA030021FA04F345EA030130BDC4F10C04C4F1200220FA02F001FA04F340EAE7
:405F80000300294630BD21FA04F0294630BD94F0000F83F4801306BF81F480110134013D4EE77FEA645C18BF7FEA655C29D094EA050F08BF90EA020F05D054EA000C04BF1E
:405FC0001946104630BD91EA030F1EBF0021002030BD5FEA545C05D14000494128BF41F0004130BD14F580043CBF01F5801130BD01F0004545F0FE4141F470014FF00000FD
:4060000030BD7FEA645C1ABF194610467FEA655C1CBF0B46024650EA013406BF52EA033591EA030F41F4002130BD00BF90F0000F04BF0021704730B54FF4806404F1320486
:406040004FF000054FF0000150E700BF90F0000F04BF0021704730B54FF4806404F1320410F0004548BF40424FF000013EE700BF42004FEAE2014FEA31014FEA02701FBF01
:4060800012F07F4393F07F4F81F06051704792F0000F14BF93F07F4F704730B54FF4607401F0004521F0004120E700BF50EA010208BF704730B54FF000050AE050EA010231
:4060C00008BF704730B511F0004502D5404261EB41014FF4806404F132045FEA915C3FF4DCAE4FF003025FEADC0C18BF03325FEADC0C18BF033202EBDC02C2F1200300FA72
:4061000003FC20FA02F001FA03FE40EA0E0021FA02F11444C1E600BF70B54FF0FF0C4CF4E06C1CEA11541DBF1CEA135594EA0C0F95EA0C0F00F0DEF82C4481EA030621EABC
:406140004C5123EA4C5350EA013518BF52EA033541F4801143F4801338D0A0FB02CE4FF00005E1FB02E506F00042E0FB03E54FF00006E1FB03569CF0000F18BF4EF0010EDD
:40618000A4F1FF04B6F5007F64F5407404D25FEA4E0E6D4146EB060642EAC62141EA55514FEAC52040EA5E504FEACE2EB4F1FD0C88BFBCF5E06F1ED8BEF1004F08BF5FEAA2
:4061C000500E50F1000041EB045170BD06F0004646EA010140EA020081EA0301B4EB5C04C2BFD4EB0C0541EA045170BD41F480114FF0000E013C00F3AB8014F1360FDEBFF7
:40620000002001F0004170BDC4F10004203C35DA0C341BDC04F11404C4F1200500FA05F320FA04F001FA05F240EA020001F0004221F0004110EBD37021FA04F642EB060173
:406240005EEA430E08BF20EAD37070BDC4F10C04C4F1200500FA04F320FA05F001FA04F240EA020001F0004110EBD37041F100015EEA430E08BF20EAD37070BDC4F1200531
:4062800000FA05F24EEA020E20FA04F301FA05F243EA020321FA04F001F0004121FA04F220EA020000EBD3705EEA430E08BF20EAD37070BD94F0000F0FD101F00046400020
:4062C00041EB010111F4801F08BF013CF7D041EA060195F0000F18BF704703F00046520043EB030313F4801F08BF013DF7D043EA0603704794EA0C0F0CEA135518BF95EA42
:406300000C0F0CD050EA410618BF52EA4306D1D181EA030101F000414FF0000070BD50EA410606BF1046194652EA430619D094EA0C0F02D150EA013613D195EA0C0F05D140
:4063400052EA03361CBF104619460AD181EA030101F0004141F0FE4141F470014FF0000070BD41F0FE4141F4780170BD70B54FF0FF0C4CF4E06C1CEA11541DBF1CEA13551F
:4063800094EA0C0F95EA0C0F00F0A7F8A4EB050481EA030E52EA03354FEA013100F088804FEA03334FF0805545EA131343EA12634FEA022245EA111545EA10654FEA002601
:4063C0000EF000419D4208BF964244F1FD0404F5407402D25B084FEA3202B61A65EB03055B084FEA32024FF480104FF4002CB6EB020E75EB030E22BFB61A754640EA0C005B
:406400005B084FEA3202B6EB020E75EB030E22BFB61A754640EA5C005B084FEA3202B6EB020E75EB030E22BFB61A754640EA9C005B084FEA3202B6EB020E75EB030E22BF81
:40644000B61A754640EADC0055EA060E18D04FEA051545EA16754FEA06164FEAC30343EA52734FEAC2025FEA1C1CC0D111F4801F0BD141EA00014FF000004FF0004CB6E7DB
:4064800011F4801F04BF01430020B4F1FD0C88BFBCF5E06F3FF6AFAEB5EB030C04BFB6EB020C5FEA500C50F1000041EB045170BD0EF0004E4EEA113114EB5C04C2BFD4EB70
:4064C0000C0541EA045170BD41F480114FF0000E013C90E645EA060E8DE60CEA135594EA0C0F08BF95EA0C0F3FF43BAF94EA0C0F0AD150EA01347FF434AF95EA0C0F7FF4A7
:4065000025AF104619462CE795EA0C0F06D152EA03353FF4FDAE1046194622E750EA410618BF52EA43067FF4C5AE50EA41047FF40DAF52EA43057FF4EBAE12E74FF0FF3CCA
:4065400006E000BF4FF0010C02E000BF4FF0010C4DF804CD4FEA410C7FEA6C5C4FEA430C18BF7FEA6C5C1BD001B050EA410C0CBF52EA430C91EA030F02BF90EA020F00206E
:40658000704710F1000F91EA030F58BF994208BF90422CBFD8176FEAE37040F0010070474FEA410C7FEA6C5C02D150EA013C07D14FEA430C7FEA6C5CD6D152EA033CD3D037
:4065C0005DF8040B704700BF8446104662468C461946634600E000BF01B5FFF7B7FF002848BF10F1000F01BD4DF808EDFFF7F4FF0CBF012000205DF808FB00BF4DF808EDA1
:40660000FFF7EAFF34BF012000205DF808FB00BF4DF808EDFFF7E0FF94BF012000205DF808FB00BF4DF808EDFFF7CEFF94BF012000205DF808FB00BF4DF808EDFFF7C4FFDB
:4066400034BF012000205DF808FB00BF4FEA410212F5001215D211D56FF47873B3EB625212D94FEAC12343F0004343EA505311F0004F23FA02F018BF404270474FF00000D1
:40668000704750EA013005D111F0004008BF6FF0004070474FF00000704700BF4A0011D212F5001211D20DD56FF47873B3EB62520ED44FEAC12343F0004343EA505323FAC2
:4066C00002F070474FF00000704750EA013002D14FF0FF3070474FF000007047014B1868704700BF6881FF1F0E4B70B51E460E4C0025E41AA410A54204D056F82530984709
:406700000135F8E702F082FD084B094C1E46E41AA4100025A54204D056F8253098470135F8E770BD18920000189200001892000020920000931E222B10B50C4602D90020B1
:40674000087010BD0A2A06D1002804DA2D230B704042012100E00021214400F0B5FC204610BDFFF7E7BF10B5431E0A44914204D011F8014B03F8014FF8E710BD0346024488
:40678000934202D003F8011BFAE770472DE9F04788B0149F002B1E461299B8BF03F1004327F02007B6BF1E4600232D23462F1446109DDDF84CA00B7003D0452F03D10135D0
:4067C00001E0032300E0022307AA049206AA03928DE828042246334600F03EFD472F804602D1119BDB0728D5462F08EB050911D198F80030302B0AD100220023204631464A
:40680000FFF7F2FE18B9C5F10105CAF80050DAF8003099440022002320463146FFF7E4FE08B9302202E0CDF81C9006E0079B994503D9591C07911A70F8E74046079B159A05
:40684000C8EB0303136008B0BDE8F087034673B50029B8BF494203F8022BB4BF2D222B22092942701ADD0DF1070216460A2591FBF5F405FB1411092C01F1300102F8011DCE
:406880002146F4DC3031541E02F8011CB4421A460AD214F8012B03F8012BF7E71A463024214402F8024B5970101A02B070BD00002DE9F04F91B00C46DDF8688016461F46B0
:4068C000054601F061FA03681846099300F0F4FB00230E93D8F800300A90073323F0070303F1080294F81890D4F800B0C8F80020D3E90023C4E91223D4F84CA0D4F848806D
:406900002AF000430B934FF0FF32A74B40460B9901F08EFFA0B94FF0FF32A34B40460B99FFF776FE60B90022002340465146FFF765FE10B12D2384F843309C4B9C4A0AE07C
:40694000424653464046514601F072FF002800F09281984B984AB9F1470F8CBF90469846032323612BF0040323604FF0000A3DE0B9F1670F00F08A81B9F1470F00F08681C1
:4069800023600193636800210DF13302059002920093424653460691CDF81090CDF80CE02846FFF7F3FE09F0DF03472B804600F08481B9F1650F0D9900F28D8101394A462C
:4069C00004F150000D91FFF741FF0E9A82468318012A236100F37C812268D10700F178819DF8333013B12D2384F84330009733460FAA2146284600F09FF9013002D14FF024
:406A0000FF3096E123685A0501D4236965E0B9F1650F40F2D580D4E9120100220023FFF7E3FD78B30123654A31462846B8470130E5D00E9B0D9A9A420BDB2368D80708D470
:406A400023689B0740F111814FF0000804F1190906E10A9B099A31462846B8470130CED04FF0000804F11A090E9B013B9845E7DA01234A4631462846B8470130BFD008F1B3
:406A80000108F1E70D9B002B29DC01234B4A31462846B8470130B2D00D9B23B90E9B13B92368D907CCD50A9B099A31462846B8470130A4D04FF0000904F11A0A0D9B5B4251
:406AC000994509DA0123524631462846B847013095D009F10109F1E70E9B4246A7E00E9AA36D9A42A8BF1A46002A914606DC4FF0000A29EAE97904F11A0B11E01346314634
:406B000042462846B8470130F1D178E701235A4631462846B84701303FF471AF0AF1010AA36DC9EB03029245F0DB08EB03090D9A0E9B9A420FDB2368DA070CD40E9B0D9AC0
:406B40009844C9EB08089B1A9845A8BF9846B8F1000F08DC0FE00A9B099A31462846B8470130EBD14BE743464A4631462846B84701303FF444AF4FF0000928EAE87804F1C5
:406B80001A0A09E00123524631462846B84701303FF435AF09F101090D9A0E9B9B1AC8EB03039945EEDB4BE7FFFFEF7F8A9000008E90000092900000969000009A9000002F
:406BC0000E9A012A01DCDB0738D50123424631462846B84701303FF412AF0A9B099A31462846B84701303FF40AAFD4E9120100220023FFF7F9FC20B14FF0000804F11A09C8
:406C00000EE00E9B08F10102013B19E001234A4631462846B84701303FF4F1AE08F101080E9B013B9845F1DB534604F1500231462846B84701307FF403AFE0E642460123D5
:406C400031462846B8470130EED1D8E601234A4631462846B84701303FF4D1AE08F10108E3680F9A9B1A9845F0DBE0680F9B9842B8BF18465DE062680EA8531C0DF1340EA7
:406C80004BF480637FF474AE062201E012B90122626075E6002106910DF133018DE80C00236005904246CDF81090CDF80CE0029153462846FFF76AFD80460D9BD81C02DBB2
:406CC000626893421DDDA9F102095FFA89F970E60133236184E6B9F1660F14D10029636807DD216113B92268D2071DD501330B4419E013B92268D00701D5023313E00123B9
:406D000011E04FF067090D9B0E9A934205DB22682361D10708D5013305E0002BD4BFC3F102030123134423610D9B4FF0000AA36556E611B0BDE8F08F2DE9F04791461F46B9
:406D40000A698B6806469342B8BF1346C9F8003091F843200C46DDF8208012B10133C9F800302368990642BFD9F800300233C9F80030256815F0060510D104F1190A07E061
:406D80000123524639463046C04701301AD00135E368D9F800209B1A9D42F1DB94F843302268003318BF012392060FD5E118302081F843005A1C94F845102244023382F88A
:406DC000431003E04FF0FF30BDE8F08704F1430239463046C0470130F4D02268D9F80050E36802F00602042A08BF5D1B2269A3680CBF25EAE57500259342C4BF9B1AED184A
:406E00004FF000091A344D4509D00123224639463046C0470130D5D009F10109F3E70020BDE8F0872DE9F04317460A7E85B06E2A984606460C460C9B01F1430E00F0AE805A
:406E400011D8632A22D009D8002A00F0BB80582A40F0CA8081F84520834955E0642A1ED0692A1CD0C0E0732A00F0B08009D86F2A2ED0702A40F0B8800A6842F020020A6097
:406E80003EE0752A24D0782A3AD0ADE01A6801F14205111D1960136884F84230A8E021681A6811F0800F02D0111D196008E011F0400F02F10401196002D0B2F9003000E04B
:406EC0001368002B3CDA2D225B4284F8432037E021681A6811F0800F02D0111D196007E011F0400F02F10401196001D0138800E01368227E5C496F2A14BF0A2208221BE06F
:406F000078225A4984F845202268186812F0800F00F104051D6003D1550601D5038800E00368D00744BF42F0200222601BB9226822F0200222601022002084F8430001E090
:406F400049490A226568002DA56008DB206820F0040020602BB9002D7DD175460CE0002B79D07546B3FBF2F002FB1033CB5C05F8013D03460028F5D1082A0BD12368DA073D
:406F800008D5236962689A42DEBF302305F8013C05F1FF35C5EB0E0323612EE008681A6810F0800F496903D0101D1860136808E010F0400F02F104001860136801D019806A
:406FC00000E0196000232361754616E01A68111D1960156800216268284600F0E1FE08B1401B6060636804E004F1420584F8422001232361002384F84330CDF800803B46F5
:4070000003AA21463046FFF797FE013002D14FF0FF3026E023692A4639463046C0470130F5D023689B0710D5002504F1190907E001234A4639463046C0470130E7D00135D2
:40704000E368039A9B1A9D42F2DBE068039B9842B8BF184605E00B7804F1420584F842308AE705B0BDE8F0839C900000AD9000000EB400B54FF402719CB0ADF814106FF058
:407080000041049107914FF6FF711DAB02900690084853F8042BADF81610006802A9019301F074FA029B00221A701CB05DF804EB03B070476881FF1F034613F8012B002AAE
:4070C000FBD1181A01387047F0B58BB003460F466D461A4C04F1200E2E4620686168083403C674453546F7D1217920683171911E222930604FF0000001D938701CE07D1E7C
:40710000B3FBF2F402FB14330AAE334413F8283C411C05F8013F23460CB10846F0E77C543A18C11A8B4206DAF95C1478FC5402F801190133F5E738460BB0F0BDBE900000C1
:407140002DE9F74F03690C6980469C427FDC013C01F114074FEA840E00F1140606EB0E0357F82450019356F824300135B3FBF5F507EB0E09C5B34FF0000A3846B446D3468F
:4071800050F8043B9AB205FB02A21B0C4FEA124A05FB03A392B2C2EB0B0BBCF800204FEA134A5A441FFA83FBDCF800308145CBEB134303EB224392B242EA03424FEA234BCB
:4071C0004CF8042BDCD256F80E306BB9019B043B9E421A4602D3C8F8104005E01268043B002AF8D1013CF3E7404600F0F4FF00282BDB304601354FF0000E57F8042B03689D
:4072000091B2C1EB0E0E120C99B27144C2EB134303EB214389B24FEA234EB94541EA034340F8043BE9D256F8242006EB840362B9043B9E421A4602D3C8F8104005E0126862
