:400000000080002011000000BD1D0000BD1D0000034A08B51268034B1A6001F0EFFE00BFFA460040BC76004010B5054C237833B9044B13B10448AFF300800123237010BDDE
:400040008081FF1F00000000FC4E0000084B10B51BB108490848AFF300800848036803B910BD074B002BFBD0BDE81040184700BF000000008481FF1FFC4E0000C880FF1FFE
:40008000000000000000000010B50C4602F03CF8204602F081F8012001F00EFF02F080F9002002F095F902F087F902F0A7F902F0B1F902F06FFB04A3D3E9002302F0FAFC9E
:4000C00010BD00BFAFF300809A99999999D9494038B50C46054602F0E1F9204602F014F8002002F059F800241DB925E0DCB2A54222D0204602F050F8012001F0DDFE02F0F0
:400100004FF9002002F064F902F056F902F076F902F080F902F03EFB09A3D3E9002302F0C9FC094B002202F02BFE631C0028DDD002F098F9204638BD02F094F9002038BD37
:400140009A99999999D949400000F03F0000000070B50E460446154602F0A0F9304601F0D3FFAC4203D32BE0DCB2A54228D9204602F012F8012001F09FFE02F011F900209C
:4001800002F026F902F018F902F038F902F042F902F000FB10A3D3E9002302F08BFC104B002202F0E3FD631C0028DDD002F05AF9002001F0A9FF002001F0EEFF601E70BD99
:4001C00002F050F9002001F09FFF002001F0E4FF204670BDAFF300809A99999999D9494000003440000000002DE9F04F7E4E9BB010AD17460990894607930FCE0FC50FCE82
:400200000FC596E8030085E803004FF0000802F045F9089B0594069301231A460393D3B2013A04920892079A03F1FF3B012A5FFA8BFB4FF000044FF0000569D9C3F1BD038D
:400240005FFA83FB4FF0320AD7E9000102F0CAFDC6B2584601F058FF304601F09DFF012001F02AFE02F09CF8002002F0B1F802F0A3F802F0C3F802F0CDF802F08BFA56A375
:40028000D3E9002302F016FC02460B462046294602F034F9BAF1010A04460D46D4D1204629460022514B02F005FC4DA3D3E9002302F0D6FA044609980D4602F06BFA002208
:4002C0004B4B02F0CDFA0B4602462946204602F0F1FB02F05FFD049B04468BB1039E10AB324653F8283000F10A050599069800930A311E302B461D3200F016FBBD2E32D073
:40030000049B05940693039B013303931A4686E74FF0320A19F80860584601F0F5FE304601F03AFF012001F0C7FD02F039F8002002F04EF802F040F802F060F802F06AF888
:4003400002F028FA24A3D3E9002302F0B3FB02460B462046294602F0D1F8BAF1010A04460D46D7D19BE702F07DF8079B032B09D8DFE803F022291B02D7E900231D490BA847
:4003800003F000FA04982946233008F101080BAB4FF6FF7200F094FBB8F1040F07F108077FF435AF1BB0BDE8F08FD7E9002312490BA803F0E7F9E5E7D7E900230F490BA87E
:4003C00003F0E0F9DEE7D7E900230D490BA803F0D9F9D7E7AFF300809A99999999D949400000000000C06C40004F0000000049400000F43F444F00003C4F0000284F00006F
:40040000304F000000000000F0B58BB062B601F0DBFD01F0C9FD012001F0BAFD4FF4FA7001F04AFD002001F0B3FD4FF4FA7001F043FD012001F0ACFD4FF4FA7001F03CFDE6
:4004400000F050F9002000F01FF901F063FE01F019FE01F0A7FE1521FF20FFF739FEC4B20746DC222046BC21FFF772FE424EC31B05463846A6FB03368DF8044002F07AF900
:400480003BA3D3E9002302F0EBF900223B4B02F0E7F9C6F34706344404F0FF04CDE9020120468DF8054002F075F931A3D3E9002302F0D6F90022314B02F0D2F90022304B05
:4004C00002F0F8FA3319DCB2CDE9040120468DF8064002F05FF926A3D3E9002302F0C0F90022264B02F0BCF90022254B02F0E2FA3444E4B2CDE9060120468DF8074002F02C
:4005000049F91BA3D3E9002302F0AAF900221B4B02F0A6F900221A4B02F0CCFACDE9080101F0BCFFE9B2BC20FFF7AEFD02F032FC144CC31784FB0024C3EB640404EB8404E2
:40054000053401F08FFF2046012100F01BFA02AA01A901232046FFF747FE01F083FF002001F0D2FD002001F017FE00200BB0F0BDFCA9F1D24D621040ABAAAAAA0000703F5B
:40058000000024406766666638B5054602440B44013A013B002042EA054543EA014401F0EBFC2A2001F062FD01F0DEFC0028FBD101F0DAFC0128FBD101F0DEFC002001F029
:4005C000C7FC280E01F052FD01F0CEFC0128FBD1C5F3074001F04AFD01F0C6FC0128FBD1C5F3072001F042FD01F0BEFC0128FBD1E8B201F03BFD01F0B7FC0128FBD101F037
:40060000A7FC002001F0B8FC2B2001F02FFD01F0ABFC0028FBD101F0A7FC0128FBD101F0ABFC002001F094FC200E01F01FFD01F09BFC0128FBD1C4F3074001F017FD01F0F0
:4006400093FC0128FBD1C4F3072001F00FFD01F08BFC0128FBD1E0B201F008FD01F084FC0128FBD101F074FC002001F085FC2C2001F0FCFC01F078FC0028FBD101F074FCDE
:400680000128FBD138BD00BF0021F8B5F02205464FF4A0730846FFF777FF012001F06CFC002001F055FC2E0A4FF4A077EDB2F024304601F0DBFC01F057FC0128FBD1284650
:4006C00001F0D4FC01F050FC0128FBD1013CA4B2002CEDD1013FBFB2002FE8D1BDE8F84001F036BC2DE9F8431F4EEF24002001F043FC204601F0BAFC01F036FC0028FBD1EC
:4007000001F032FC0128FBD106F10208444696F8019009F07F07BB1C1E44B44214D014F8015B012001F028FC284601F09FFC01F01BFC0028FBD101F017FC0128EDD001F0FA
:4007400013FC0128F7D1E8E719F0800F08EB070605D118F80740002CC8D1BDE8F883782001F0AAFBF5E700BF504F0000C1F1EF0138B58CB2EF2C24D8C0F59F70013081B28C
:40078000B1F5A07F1DD2154601231A462046FFF7FBFE012001F0F0FB002001F0D9FB280A01F064FC01F0E0FB0128FBD1E8B201F05DFC01F0D9FB0128FBD1BDE8384001F07F
:4007C000C7BB38BD2DE9F04FC1EB030AC0EB020BBAF1000FB8BFCAF1000ABBF1000FB8BFCBF1000B87B0DA45914614468846BDF8402000F39380054651461C4640464D4501
:4008000009DD47462E4698464D463B46B146011B0029B8BF4942AEB2C6EB090080B204B204EBD474434502904FEA640470DD012303938BB2C6F59F760193130A013604931A
:40084000D3B2B6B20593DA4536DDA6F1500080B2EF281FFA88F720D8C7F59F71013189B2B1F5A07F19D201231A46FFF78DFE012001F082FB002001F06BFB049801F0F6FB8F
:4008800001F072FB0128FBD1059801F0EFFB01F06BFB0128FBD101F05BFB019BE41AA3B21CB2002C2CDB01352DB2013EA945B6B2C9DA07B0BDE8F08F1FFA88F7C7F1EF0083
:4008C00080B2EF28E9D8B6F5A07FE6D201231A463146FFF759FE012001F04EFB002001F037FB049801F0C2FB01F03EFB0128FBD1059801F0BBFB01F037FB0128FBD1CAE710
:40090000039A1744029A0FFA87F89C1824B2CAE7A945CEDB4FF6FF7303938AE799460D462346594680466AE7F0B5904204460E461F46BDF814E016D0994205D0CDF814E048
:40094000BDE8F040FFF73EBF9042154601DD14460546CDF814E02A46204633463146BDE8F040FFF72FBF994201DD3E460F46CDF814E03B46314622462046BDE8F040FFF7EB
:4009800021BF00BF2DE9F04F87B00D46814601F001FF02460B460020424902F08BF802F0F9F94FF6FF740A231946DC22804600941E20FFF707FF1E22C923009410460A214D
:4009C000FFF700FF012D8CBF0C271527EB075CD4354B22460421E62000F072F82246334BD921032000F06CF8B9F1040F23DD4FF6FF7B1FFA88FA0AF10A04A4B208F10A06B5
:400A000005252A462A4903A802F0BCFE23B21946DC221E20CDF800B0FFF7D4FE0535314603AB4FF6FF72032000F04AF85444A9454644A4B2E5DA4FF0BD0898FBF7F84FF64B
:400A4000FF7A1FFA87F909F11E0407F11E0601252A46184902A802F095FE22B21046CA230A21CDF800A0FFF7ADFE0135304602AB4FF6FF72042100F023F84C44A845A4B2AC
:400A80003E44E5DA07B0BDE8F08F22460A4B0421E62000F015F82246084BD921032000F00FF8A1E700008E40C04F0000C84F0000E84F0000EC4F0000D44F0000DC4F00002A
:400AC0002DE9F04F87B001931B7804900291002B56D014460646DFF864BC203B3A2B3CD8DFE813F008053B003B003B003B003B003B003B003B003B003B003B003B003B0084
:400B0000CF043B00A0049F054105700578028C065D06BB064F03FD053B003B003B003B003B003B003B00CE052E0611020B04DC03AD037E0373043A0495074002CE071703C8
:400B4000DF02A7022307EA065C07D901A10131016901F900C10089005100B3B20393039E073636B2B6F59E7F04DD029B049E093B1BB20293019A12F8013F0192002BACD153
:400B800007B0BDE8F08F23211A22012301E01BF803200132134401399BB2F8D1B2B211460392BDF808200133951E05328F1E1FFA83F813B23FB22DB205931BF80890B9F1B7
:400BC000000F0DD009EB08065E440BEB080A1AF8010F224638442946FFF7C8FD5645F6D10135059B09F101092DB2C844AB421FFA88F8E2D1B3E722211A22012301E01BF89C
:400C000003200132134401399BB2F8D1B2B211460392BDF808200133951E05328F1E1FFA83F813B23FB22DB205931BF80890B9F1000F0DD009EB08065E440BEB080A1AF8FF
:400C4000010F224638442946FFF790FD5645F6D10135059B09F101092DB2C844AB421FFA88F8E2D17BE721211A22012301E01BF803200132134401399BB2F8D1B2B211467E
:400C80000392BDF808200133951E05328F1E1FFA83F813B23FB22DB205931BF80890B9F1000F0DD009EB08065E440BEB080A1AF8010F224638442946FFF758FD5645F6D127
:400CC0000135059B09F101092DB2C844AB421FFA88F8E2D143E720211A22012301E01BF803200132134401399BB2F8D1B2B211460392BDF808200133951E05328F1E1FFA29
:400D000083F813B23FB22DB205931BF80890B9F1000F0DD009EB08065E440BEB080A1AF8010F224638442946FFF720FD5645F6D10135059B09F101092DB2C844AB421FFA69
:400D400088F8E2D10BE71E211A22012301E01BF803200132134401399BB2F8D1B2B211460392BDF808200133951E05328F1E1FFA83F813B23FB22DB205931BF80890B9F1B0
:400D8000000F0DD009EB08065E440BEB080A1AF8010F224638442946FFF7E8FC5645F6D10135059B09F101092DB2C844AB421FFA88F8E2D1D3E61F211A22012301E01BF89F
:400DC00003200132134401399BB2F8D1B2B211460392BDF808200133951E05328F1E1FFA83F813B23FB22DB205931BF80890B9F1000F0DD009EB08065E440BEB080A1AF83E
:400E0000010F224638442946FFF7B0FC5645F6D10135059B09F101092DB2C844AB421FFA88F8E2D19BE61D211A22012301E01BF803200132134401399BB2F8D1B2B2114682
:400E40000392BDF808200133951E05328F1E1FFA83F813B23FB22DB205931BF80890B9F1000F0DD009EB08065E440BEB080A1AF8010F224638442946FFF778FC5645F6D146
:400E80000135059B09F101092DB2C844AB421FFA88F8E2D163E61C211A22012301E01BF803200132134401399BB2F8D1B2B211460392BDF808200133951E05328F1E1FFA4C
:400EC00083F813B23FB22DB205931BF80890B9F1000F0DD009EB08065E440BEB080A1AF8010F224638442946FFF740FC5645F6D10135059B09F101092DB2C844AB421FFA89
:400F000088F8E2D12BE6B3B21A460393BDF80830971E9D1E05331BB23FB22DB205934FF003094FF49078B9F1000F0DD009EB08065E440BEB080A1AF8010F224638442946FB
:400F4000FFF714FC5645F6D10135059B09F101092DB2C8449D421FFA88F83FF400AE1BF80890E0E714211A22012301E01BF803200132134401399BB2F8D1B2B211460392A3
:400F8000BDF808200133951E05328F1E1FFA83F813B23FB22DB205931BF80890B9F1000F0DD009EB08065E440BEB080A1AF8010F224638442946FFF7D9FB5645F6D1013504
:400FC000059B09F101092DB2C844AB421FFA88F8E2D1C4E5B3B21A460393BDF80830971E9D1E05331BB23FB22DB205934FF001094FF05F08B9F1000F0DD009EB08065E4432
:401000000BEB080A1AF8010F224638442946FFF7ADFBB245F6D10135059B09F101092DB2C844AB421FFA88F83FF499AD1BF80890E0E718211A22012301E01BF803200132BE
:40104000134401399BB2F8D1B2B211460392BDF808200133951E05328F1E1FFA83F813B23FB22DB205931BF80890B9F1000F0DD009EB08065E440BEB080A1AF8010F224699
:4010800038442946FFF772FB5645F6D10135059B09F101092DB2C844AB421FFA88F8E2D15DE517211A22012301E01BF803200132134401399BB2F8D1B2B211460392BDF8B2
:4010C00008200133951E05328F1E1FFA83F813B23FB22DB205931BF80890B9F1000F0DD009EB08065E440BEB080A1AF8010F224638442946FFF73AFB5645F6D10135059B77
:4011000009F101092DB2C844AB421FFA88F8E2D125E516211A22012301E01BF803200132134401399BB2F8D1B2B211460392BDF808200133951E05328F1E1FFA83F813B2A4
:401140003FB22DB205931BF80890B9F1000F0DD009EB08065E440BEB080A1AF8010F224638442946FFF702FB5645F6D10135059B09F101092DB2C844AB421FFA88F8E2D152
:40118000EDE4B3B21A460393BDF80830971E9D1E05331BB23FB22DB205934FF003094FF0BA08B9F1000F0DD009EB08065E440BEB080A1AF8010F224638442946FFF7D6FA70
:4011C0005645F6D10135059B09F101092DB2C844AB421FFA88F83FF4C2AC1BF80890E0E7B3B21A460393BDF80830971E9D1E05331BB23FB22DB205934FF003094FF4BF7845
:40120000B9F1000F0DD009EB08065E440BEB080A1AF8010F224638442946FFF7A7FA5645F6D10135059B09F101092DB2C844AB421FFA88F83FF493AC1BF80890E0E7B3B26A
:401240001A4640F269180393BDF80830971E9D1E05331BB23FB22DB205934FF00109B9F1000F0DD009EB08065E440BEB080A1AF8010F224638442946FFF778FAB245F6D1D5
:401280000135059B09F101092DB2C844AB421FFA88F83FF464AC1BF80890E0E7B3B21A4640F24F180393BDF80830971E9D1E05331BB23FB22DB205934FF00509B9F1000F6A
:4012C0000DD009EB08065E440BEB080A1AF8010F224638442946FFF749FA5645F6D10135059B09F101092DB2C844AB421FFA88F83FF435AC1BF80890E0E7B3B21A4640F28D
:4013000035180393BDF80830971E9D1E05331BB23FB22DB205934FF00409B9F1000F0DD009EB08065E440BEB080A1AF8010F224638442946FFF71AFA5645F6D10135059BBB
:4013400009F101092DB2C8449D421FFA88F83FF406AC1BF80890E0E712211A22012301E01BF803200132134401399BB2F8D1B2B211460392BDF808200133951E05328F1E33
:401380001FFA83F813B23FB22DB205931BF80890B9F1000F0DD009EB08065E440BEB080A1AF8010F224638442946FFF7DFF95645F6D10135059B09F101092DB2C844AB4228
:4013C0001FFA88F8E2D1FFF7CABBB3B21A4640F297180393BDF80830971E9D1E05331BB23FB22DB205931BF80890B9F1000F0DD009EB08065E440BEB080A1AF8010F2246A9
:4014000038442946FFF7B2F95645F6D10135059B09F101092DB2C844AB421FFA88F8E2D1FFF79DBBB3B21A460393BDF80830971E9D1E05331BB23FB22DB205934FF0030902
:401440004FF00208B9F1000F0DD009EB08065E440BEB080A1AF8010F224638442946FFF785F95645F6D10135059B09F101092DB2C844AB421FFA88F83FF471AB1BF8089051
:40148000E0E724211A22012301E01BF803200132134401399BB2F8D1B2B211460392BDF808200133951E05328F1E1FFA83F813B23FB22DB205931BF80890B9F1000F0DD0D5
:4014C00009EB08065E440BEB080A1AF8010F224638442946FFF74AF95645F6D10135059B09F101092DB2C8449D421FFA88F8E2D1FFF735BB25211A22012301E01BF803209D
:401500000132134401399BB2F8D1B2B211460392BDF808200133951E05328F1E1FFA83F813B23FB22DB205931BF80890B9F1000F0DD009EB08065E440BEB080A1AF8010F09
:40154000224638442946FFF711F95645F6D10135059B09F101092DB2C8449D421FFA88F8E2D1FFF7FCBAB3B21A460393BDF80830971E9D1E05331BB23FB22DB205934FF0B6
:4015800005094FF03108B9F1000F0DD009EB08065E440BEB080A1AF8010F224638442946FFF7E4F8B245F6D10135059B09F101092DB2C844AB421FFA88F83FF4D0AA1BF853
:4015C0000890E0E7B3B21A460393BDF80830971E9D1E05331BB23FB22DB205934FF003094FF04908B9F1000F0DD009EB08065E440BEB080A1AF8010F224638442946FFF7DF
:40160000B5F85645F6D10135059B09F101092DB2C844AB421FFA88F83FF4A1AA1BF80890E0E7B3B21A460393BDF80830971E9D1E05331BB23FB22DB205934FF005094FF0AF
:401640001D08B9F1000F0DD009EB08065E440BEB080A1AF8010F224638442946FFF786F85645F6D10135059B09F101092DB2C844AB421FFA88F83FF472AA1BF80890E0E7AC
:40168000B3B21A460393BDF80830971E9D1E05331BB23FB22DB205934FF002094FF0EA08B9F1000F0DD009EB08065E440BEB080A1AF8010F224638442946FFF757F8B24597
:4016C000F6D10135059B09F101092DB2C844AB421FFA88F83FF443AA1BF80890E0E7B3B21A460393BDF80830971E9D1E05331BB23FB22DB205934FF002094FF0D308B9F113
:40170000000F0DD009EB08065E440BEB080A1AF8010F224638442946FFF728F8B245F6D10135059B09F101092DB2C844AB421FFA88F83FF414AA1BF80890E0E7F04F0000DB
:40174000B3B21A460393BDF80830971E9D1E05331BB23FB22DB205934FF004094FF48278B9F1000F0DD009EB08065E440BEB080A1AF8010F224638442946FEF7F7FF56457E
:40178000F6D10135059B09F101092DB2C844AB421FFA88F83FF4E3A91BF80890E0E7B3B21A460393BDF80830971E9D1E05331BB23FB22DB205934FF003094FF08F08B9F1F6
:4017C000000F0DD009EB08065E440BEB080A1AF8010F224638442946FEF7C8FF5645F6D10135059B09F101092DB2C844AB421FFA88F83FF4B4A91BF80890E0E7B3B21A46AC
:401800000393BDF80830971E9D1E05331BB23FB22DB205934FF003094FF07608B9F1000F0DD009EB08065E440BEB080A1AF8010F224638442946FEF799FF5645F6D1013564
:40184000059B09F101092DB2C844AB421FFA88F83FF485A91BF80890E0E7B3B21A460393BDF80830971E9D1E05331BB23FB22DB205934FF001094FF0A608B9F1000F0DD08F
:4018800009EB08065E440BEB080A1AF8010F224638442946FEF76AFF5645F6D10135059B09F101092DB2C844AB421FFA88F83FF456A91BF80890E0E71A210A46012301E0C8
:4018C0001BF803200132134401399BB2F8D1B2B211460392BDF808200133951E05328F1E1FFA83F813B23FB22DB205931BF80890B9F1000F0DD009EB08065E440BEB080A32
:401900001AF8010F224638442946FEF72FFF5645F6D10135059B09F101092DB2C844AB421FFA88F8E2D1FFF71AB919211A22012301E01BF803200132134401399BB2F8D15B
:40194000B2B211460392BDF808200133951E05328F1E1FFA83F813B23FB22DB205931BF80890B9F1000F0DD009EB08065E440BEB080A1AF8010F224638442946FEF7F6FE63
:401980005645F6D10135059B09F101092DB2C844AB421FFA88F8E2D1FFF7E1B81B211A22012301E01BF803200132134401399BB2F8D1B2B211460392BDF808200133951E97
:4019C00005328F1E1FFA83F813B23FB22DB205931BF80890B9F1000F0DD009EB08065E440BEB080A1AF8010F224638442946FEF7BDFE5645F6D10135059B09F101092DB215
:401A0000C844AB421FFA88F8E2D1FFF7A8B813211A22012301E01BF803200132134401399BB2F8D1B2B211460392BDF808200133951E05328F1E1FFA83F813B23FB22DB265
:401A400005931BF80890B9F1000F0DD009EB08065E440BEB080A1AF8010F224638442946FEF784FE5645F6D10135059B09F101092DB2C844AB421FFA88F8E2D1FFF76FB878
:401A800015211A22012301E01BF803200132134401399BB2F8D1B2B211460392BDF808200133951E05328F1E1FFA83F813B23FB22DB205931BF80890B9F1000F0DD009EBB1
:401AC00008065E440BEB080A1AF8010F224638442946FEF74BFE5645F6D10135059B09F101092DB2C844AB421FFA88F8E2D1FFF736B800BF2DE9F04172B68C4E8C4A3546DE
:401B00001378002443F00403137004EB4403AA8856F813000134002101F0BBF90A2C05F10605F2D180228349834801F0A7F9834E834F002556F8043F13F0FF0E23F0FF0432
:401B400013D005F110530EF1FF3E03F12B005FFA8EFE70442A3340005B001A785978023383421155F9D101357544BE42E2D1754941F251270B78744A43F002030B70137826
:401B8000724843F0020313700278A1F5863142F04002027041390A786D4C42F010026D4B0A706D4A03CB6D4D2060616003CB106051602A786A4E03CB42F0080230607160A4
:401BC00003CBDFF8E8E12A70664E674A206361636125002058218EF80050308011701868624B634D18604FF04024082102260320604B2E70217082F87E011A785E485F4BEA
:401C0000D2B285F8A123A4F8221207801C784FF4F0701D4604F0010400F05AFC182601E0032C0DD02B784FF4F07003F0010343EA440400F04DFC013E04F00304F0D1FEE7B9
:401C40004F4B504F504DDFF868C150484FF4807407211C80002219704FF0480E4C49022604248CF8002087F800E01A702E7004700B78484A43F001030B701378334C43F033
:401C800001031370237801F5F72101F2624143F080034FF0810E01203F4A23703F4E85F8FFE70870137835783D4897F8F1863D4ADBB203F0070EEDB21B0982F800E05FFAE0
:401CC00088F8037045F003033370A1F5F52148F0030387F8F136A1F2C7610CF5C85C38230B70DFF8D0E0102380210CF1030C8CF8001082F82232202280F829228EF8001069
:401D0000294980F8BC220A200B7000F0F9F894E80F00DFF8A4E087F8F1861034442735708EF8007007C42380BDE8F08140530000E84600405002004880000140FCFFFF470E
:401D4000500000480350014013500140A043004002510040D0020048F251004022430040125100408040004082400040004100400043004008010049204200402542004057
:401D80000440004008400040014000400B400040A2430040A1430040CF010049F84600406F5800406E580040585B00400048004006400040285B00407658004008B501F09E
:401DC00031F803680C2B00D0FEE7FEE7094908B50A68094B1044C31AB3F5805F02DC0860104608BD01F01EF80C234FF0FF320360104608BDCC80FF1FC081FF1F80B5134F0C
:401E0000F7B1134E002556F80C0C56F8084C56F8102C03463CB1043A52F8041F43F8041B191AA142F8D156F8040C1A4620B142F8045BD11A8842FAD1013F06F11006E2D120
:401E400000F0F6FFFEF7E0FAFEE700BF01000000105500000E4B0F4A0F491A600B680F4A43F400730E480B600023032B94BF50F823100C490133302B42F8041FF5D10A4B6E
:401E80000A4918780A4A0B4B08701A60FFF732BE0CED00E00004FA0514ED00E0FC7FFF1F00000000BD1D0000BC760040C080FF1F0080FF1F08ED00E0B0F5004F70B50646E5
:401EC0001AD904460D4DA4F50044686800F000FBB4F5004FF7D8A6F50043013B23F4FF4323F07F03A6F50046F61AA86800FB06F0BDE8704000F0ECBA004DF6E7D080FF1F6F
:401F0000024B1B7800FB03F000F0E2BAD080FF1F064B1F281A6800D901BE00F01F0000F1100352F8230042F82310704708ED00E0072900D901BE1F2800D901BE00F01F00F8
:401F400000F16040490100F56440C9B201707047044A4000137800F0020003F0FD0318431070704700510040024B1878C0F34000704700BF01510040044A00F00100137887
:401F800003F0FE0318431070704700BF00510040044A4001137800F0200003F0DF03184310707047F05100400549064A0B7843F001030B70137843F001031370704700BFAB
:401FC000A2430040B243004070B51E4C2378A3B11D4C00F085FA23781C4943F0200323700B781B4A43F010030B70137843F010031370BDE8704000F077BA164B0F21164AE4
:4020000019701378990604D514490B7813789B06FBD400F065FA0C4B114E1A780E4D42F001021A701A7802F0FE021A7000F05CFA0C480D490023012236782D7803700B7003
:402040002270C5E79C81FF1F916400409364004092640040816400406264004051640040636400408364004082640040034A13785B07FCD5024B1870704700BF6364004074
:402080004164004010B419490A78FAB9184B19481A7002701A78184C02F0F3021A701A78012042F004021A701A78C2F3810202F19242063292F83821D2B222701A7802F0FE
:4020C000FD021A701A78D2B21A7008700B490C4A0B780C4843F008030B701378642143F008031370017010BC704700BF9D81FF1F2C5800402D5800400B460040A843004000
:40210000B8430040835B0040014B1870704700BF835B004010B419490A78FAB9184B19481A7002701A78184C02F0F3021A701A78012042F004021A701A78C2F3810202F12A
:402140009242063292F82821D2B222701A7802F0FD021A701A78D2B21A7008700B490C4A0B780C4843F004030B701378642143F004031370017010BC704700BF9E81FF1F52
:4021800028580040295800400A460040A8430040B8430040825B0040014B1870704700BF825B0040F8B5334D2C78F4B9102000F085F907212046FFF7BBFE2F492046FFF7F7
:4021C000A7FE44F620602D4A2D4E13782D4F43F006031370C22333702B492C4A2C4B01263C802E70086014801C8000F079F9294A04461378284943F0020313700B782748FE
:4022000043F002030B70037801F5AA5143F0010303709379103143F0010393710A7800F5AB501F4B0D30182542F003020A7005701A781C4E42F040021A701A78A0F59750C9
:4022400002F0FC021838CE2702251A703770057091F824320A2043F0080381F82432FFF74FFE114B012220461A60BDE8F84000F03BB900BF9F81FF1F6124000009590040BF
:402280000A590040AC81FF1FB081FF1FAE81FF1FB481FF1FAB430040BB430040A14300400D5900400859004080E200E0F8B500F017F9214A04461378204943F00203137017
:4022C0000B781F4843F002030B70037801F5AA5143F0010303709379103143F0010393710A7800F5AB50174B0D30182542F003020A7005701A78144E42F040021A701A78AB
:40230000A0F5975002F0FC021838CE2702251A703770057091F824320A2043F0080381F82432FFF7EDFD094B012220461A60BDE8F84000F0D9B800BFAB430040BB43004049
:40234000A14300400D5900400859004080E200E010B500F0C5F80F490F4A0B780F4C03F0FE030B701378A1F5AB5103F0FD0313702378073903F0FD0323700B7803F0FE03D5
:402380000B70937903F0FE039371BDE8104000F0ABB800BF08590040AB430040BB430040044B1A7802F0FB021A701A7842F001021A70704708590040044B1A7802F0FE02B4
:4023C0001A701A7842F004021A7070470859004008B550B9084A1378DB07FCD50120FFF78FFD054B01201B7808BD034B1B78DA07F4D4002008BD00BF09590040034A044B79
:402400001B881088181A00B2704700BFAE81FF1FA25B00400F4A13881BB2C3B1128812B202EB8202520042F210730B490988401A00B203FB00F3002802EBD2704FEA60009E
:40244000D8BF4042184490FBF2F000B27047034B1A68E8E7AC81FF1FB481FF1FB081FF1F704700BF0A4B1B7803F0020303F0FF0253B1084A084B127812F0010F14BF0322FE
:4024800001221A70FFF764BF034B1A70704700BFAB43004008590040A081FF1F10B5064C237803B910BDFFF701FF23789B07F9D5BDE81040FFF774BFA081FF1F034A00F024
:4024C000F800137818431070704700BF024100400230800803D000BF01380046FCD17047EFF3108072B6704780F31088704700BF81F0004102E000BF83F0004330B54FEA3D
:4025000041044FEA430594EA050F08BF90EA020F1FBF54EA000C55EA020C7FEA645C7FEA655C00F0E2804FEA5454D4EB5555B8BF6D420CDD2C4480EA020281EA030382EAC3
:40254000000083EA010180EA020281EA0303362D88BF30BD11F0004F4FEA01314FF4801C4CEA113102D0404261EB410113F0004F4FEA03334CEA133302D0524263EB43034B
:4025800094EA050F00F0A780A4F10104D5F1200E0DDB02FA0EFC22FA05F2801841F1000103FA0EF2801843FA05F359410EE0A5F120050EF1200E012A03FA0EFC28BF4CF089
:4025C000020C43FA05F3C01851EBE37101F0004507D54FF0000EDCF1000C7EEB00006EEB0101B1F5801F1BD3B1F5001F0CD349085FEA30004FEA3C0C04F101044FEA445249
:4026000012F5800F80F09A80BCF1004F08BF5FEA500C50F1000041EB045141EA050130BD5FEA4C0C404141EB010111F4801FA4F10104E9D191F0000F04BF01460020B1FA85
:4026400081F308BF2033A3F10B03B3F120020CDA0C3208DD02F1140CC2F10C0201FA0CF021FA02F10CE002F11402D8BFC2F1200C01FA02F120FA0CFCDCBF41EA0C01904064
:40268000E41AA2BF01EB0451294330BD6FEA04041F3C1CDA0C340EDC04F11404C4F1200220FA04F001FA02F340EA030021FA04F345EA030130BDC4F10C04C4F1200220FA4E
:4026C00002F001FA04F340EA0300294630BD21FA04F0294630BD94F0000F83F4801306BF81F480110134013D4EE77FEA645C18BF7FEA655C29D094EA050F08BF90EA020FEB
:4027000005D054EA000C04BF1946104630BD91EA030F1EBF0021002030BD5FEA545C05D14000494128BF41F0004130BD14F580043CBF01F5801130BD01F0004545F0FE41F8
:4027400041F470014FF0000030BD7FEA645C1ABF194610467FEA655C1CBF0B46024650EA013406BF52EA033591EA030F41F4002130BD00BF90F0000F04BF0021704730B5EC
:402780004FF4806404F132044FF000054FF0000150E700BF90F0000F04BF0021704730B54FF4806404F1320410F0004548BF40424FF000013EE700BF42004FEAE2014FEA63
:4027C00031014FEA02701FBF12F07F4393F07F4F81F06051704792F0000F14BF93F07F4F704730B54FF4607401F0004521F0004120E700BF50EA010208BF704730B54FF09B
:4028000000050AE050EA010208BF704730B511F0004502D5404261EB41014FF4806404F132045FEA915C3FF4DCAE4FF003025FEADC0C18BF03325FEADC0C18BF033202EBEC
:40284000DC02C2F1200300FA03FC20FA02F001FA03FE40EA0E0021FA02F11444C1E600BF70B54FF0FF0C4CF4E06C1CEA11541DBF1CEA135594EA0C0F95EA0C0F00F0DEF8F6
:402880002C4481EA030621EA4C5123EA4C5350EA013518BF52EA033541F4801143F4801338D0A0FB02CE4FF00005E1FB02E506F00042E0FB03E54FF00006E1FB03569CF01A
:4028C000000F18BF4EF0010EA4F1FF04B6F5007F64F5407404D25FEA4E0E6D4146EB060642EAC62141EA55514FEAC52040EA5E504FEACE2EB4F1FD0C88BFBCF5E06F1ED876
:40290000BEF1004F08BF5FEA500E50F1000041EB045170BD06F0004646EA010140EA020081EA0301B4EB5C04C2BFD4EB0C0541EA045170BD41F480114FF0000E013C00F3F3
:40294000AB8014F1360FDEBF002001F0004170BDC4F10004203C35DA0C341BDC04F11404C4F1200500FA05F320FA04F001FA05F240EA020001F0004221F0004110EBD370A3
:4029800021FA04F642EB06015EEA430E08BF20EAD37070BDC4F10C04C4F1200500FA04F320FA05F001FA04F240EA020001F0004110EBD37041F100015EEA430E08BF20EA2B
:4029C000D37070BDC4F1200500FA05F24EEA020E20FA04F301FA05F243EA020321FA04F001F0004121FA04F220EA020000EBD3705EEA430E08BF20EAD37070BD94F0000F26
:402A00000FD101F00046400041EB010111F4801F08BF013CF7D041EA060195F0000F18BF704703F00046520043EB030313F4801F08BF013DF7D043EA0603704794EA0C0F97
:402A40000CEA135518BF95EA0C0F0CD050EA410618BF52EA4306D1D181EA030101F000414FF0000070BD50EA410606BF1046194652EA430619D094EA0C0F02D150EA0136D9
:402A800013D195EA0C0F05D152EA03361CBF104619460AD181EA030101F0004141F0FE4141F470014FF0000070BD41F0FE4141F4780170BD70B54FF0FF0C4CF4E06C1CEA73
:402AC00011541DBF1CEA135594EA0C0F95EA0C0F00F0A7F8A4EB050481EA030E52EA03354FEA013100F088804FEA03334FF0805545EA131343EA12634FEA022245EA11154E
:402B000045EA10654FEA00260EF000419D4208BF964244F1FD0404F5407402D25B084FEA3202B61A65EB03055B084FEA32024FF480104FF4002CB6EB020E75EB030E22BF11
:402B4000B61A754640EA0C005B084FEA3202B6EB020E75EB030E22BFB61A754640EA5C005B084FEA3202B6EB020E75EB030E22BFB61A754640EA9C005B084FEA3202B6EB1B
:402B8000020E75EB030E22BFB61A754640EADC0055EA060E18D04FEA051545EA16754FEA06164FEAC30343EA52734FEAC2025FEA1C1CC0D111F4801F0BD141EA00014FF09A
:402BC00000004FF0004CB6E711F4801F04BF01430020B4F1FD0C88BFBCF5E06F3FF6AFAEB5EB030C04BFB6EB020C5FEA500C50F1000041EB045170BD0EF0004E4EEA1131E0
:402C000014EB5C04C2BFD4EB0C0541EA045170BD41F480114FF0000E013C90E645EA060E8DE60CEA135594EA0C0F08BF95EA0C0F3FF43BAF94EA0C0F0AD150EA01347FF4F0
:402C400034AF95EA0C0F7FF425AF104619462CE795EA0C0F06D152EA03353FF4FDAE1046194622E750EA410618BF52EA43067FF4C5AE50EA41047FF40DAF52EA43057FF4DF
:402C8000EBAE12E74FF0FF3C06E000BF4FF0010C02E000BF4FF0010C4DF804CD4FEA410C7FEA6C5C4FEA430C18BF7FEA6C5C1BD001B050EA410C0CBF52EA430C91EA030FC7
:402CC00002BF90EA020F0020704710F1000F91EA030F58BF994208BF90422CBFD8176FEAE37040F0010070474FEA410C7FEA6C5C02D150EA013C07D14FEA430C7FEA6C5C89
:402D0000D6D152EA033CD3D05DF8040B704700BF8446104662468C461946634600E000BF01B5FFF7B7FF002848BF10F1000F01BD4DF808EDFFF7F4FF0CBF012000205DF8D0
:402D400008FB00BF4DF808EDFFF7EAFF34BF012000205DF808FB00BF4DF808EDFFF7E0FF94BF012000205DF808FB00BF4DF808EDFFF7CEFF94BF012000205DF808FB00BFCB
:402D80004DF808EDFFF7C4FF34BF012000205DF808FB00BF4FEA410212F5001215D211D56FF47873B3EB625212D94FEAC12343F0004343EA505311F0004F23FA02F018BF4F
:402DC000404270474FF00000704750EA013005D111F0004008BF6FF0004070474FF00000704700BF4A0011D212F5001211D20DD56FF47873B3EB62520ED44FEAC12343F073
:402E0000004343EA505323FA02F070474FF00000704750EA013002D14FF0FF3070474FF000007047014B1868704700BF4081FF1F0E4B70B51E460E4C0025E41AA410A5424F
:402E400004D056F8253098470135F8E702F046FB084B094C1E46E41AA4100025A54204D056F8253098470135F8E770BDE8540000E8540000E8540000F054000010B5431E34
:402E80000A44914204D011F8014B03F8014FF8E710BD03460244934202D003F8011BFAE770472DE9F04788B0149F002B1E461299B8BF03F1004327F02007B6BF1E46002392
:402EC0002D23462F1446109DDDF84CA00B7003D0452F03D1013501E0032300E0022307AA049206AA03928DE828042246334600F003FD472F804602D1119BDB0728D5462F60
:402F000008EB050911D198F80030302B0AD10022002320463146FFF70BFF18B9C5F10105CAF80050DAF8003099440022002320463146FFF7FDFE08B9302202E0CDF81C909F
:402F400006E0079B994503D9591C07911A70F8E74046079B159AC8EB0303136008B0BDE8F087034673B50029B8BF494203F8022BB4BF2D222B22092942701ADD0DF107020D
:402F800016460A2591FBF5F405FB1411092C01F1300102F8011D2146F4DC3031541E02F8011CB4421A460AD214F8012B03F8012BF7E71A463024214402F8024B5970101A99
:402FC00002B070BD2DE9F04F91B00C46DDF8688016461F46054601F027FA03681846099300F0F4FB00230E93D8F800300A90073323F0070303F1080294F81890D4F800B088
:40300000C8F80020D3E90023C4E91223D4F84CA0D4F848802AF000430B934FF0FF32A74B40460B9901F054FFA0B94FF0FF32A34B40460B99FFF790FE60B90022002340468F
:403040005146FFF77FFE10B12D2384F843309C4B9C4A0AE0424653464046514601F038FF002800F09281984B984AB9F1470F8CBF90469846032323612BF0040323604FF0AC
:40308000000A3DE0B9F1670F00F08A81B9F1470F00F0868123600193636800210DF13302059002920093424653460691CDF81090CDF80CE02846FFF7F4FE09F0DF03472B74
:4030C000804600F08481B9F1650F0D9900F28D8101394A4604F150000D91FFF742FF0E9A82468318012A236100F37C812268D10700F178819DF8333013B12D2384F843307C
:40310000009733460FAA2146284600F09FF9013002D14FF0FF3096E123685A0501D4236965E0B9F1650F40F2D580D4E9120100220023FFF7FDFD78B30123654A3146284663
:40314000B8470130E5D00E9B0D9A9A420BDB2368D80708D423689B0740F111814FF0000804F1190906E10A9B099A31462846B8470130CED04FF0000804F11A090E9B013B9E
:403180009845E7DA01234A4631462846B8470130BFD008F10108F1E70D9B002B29DC01234B4A31462846B8470130B2D00D9B23B90E9B13B92368D907CCD50A9B099A314653
:4031C0002846B8470130A4D04FF0000904F11A0A0D9B5B42994509DA0123524631462846B847013095D009F10109F1E70E9B4246A7E00E9AA36D9A42A8BF1A46002A914630
:4032000006DC4FF0000A29EAE97904F11A0B11E01346314642462846B8470130F1D178E701235A4631462846B84701303FF471AF0AF1010AA36DC9EB03029245F0DB08EB3C
:4032400003090D9A0E9B9A420FDB2368DA070CD40E9B0D9A9844C9EB08089B1A9845A8BF9846B8F1000F08DC0FE00A9B099A31462846B8470130EBD14BE743464A463146B3
:403280002846B84701303FF444AF4FF0000928EAE87804F11A0A09E00123524631462846B84701303FF435AF09F101090D9A0E9B9B1AC8EB03039945EEDB4BE7FFFFEF7F9F
:4032C0007E53000082530000865300008A5300008E5300000E9A012A01DCDB0738D50123424631462846B84701303FF412AF0A9B099A31462846B84701303FF40AAFD4E937
:40330000120100220023FFF713FD20B14FF0000804F11A090EE00E9B08F10102013B19E001234A4631462846B84701303FF4F1AE08F101080E9B013B9845F1DB534604F17E
:40334000500231462846B84701307FF403AFE0E64246012331462846B8470130EED1D8E601234A4631462846B84701303FF4D1AE08F10108E3680F9A9B1A9845F0DBE068A7
:403380000F9B9842B8BF18465DE062680EA8531C0DF1340E4BF480637FF474AE062201E012B90122626075E6002106910DF133018DE80C00236005904246CDF81090CDF848
:4033C0000CE0029153462846FFF76BFD80460D9BD81C02DB626893421DDDA9F102095FFA89F970E60133236184E6B9F1660F14D10029636807DD216113B92268D2071DD59A
:4034000001330B4419E013B92268D00701D5023313E0012311E04FF067090D9B0E9A934205DB22682361D10708D5013305E0002BD4BFC3F102030123134423610D9B4FF0E3
:40344000000AA36556E611B0BDE8F08F2DE9F04791461F460A698B6806469342B8BF1346C9F8003091F843200C46DDF8208012B10133C9F800302368990642BFD9F8003081
:403480000233C9F80030256815F0060510D104F1190A07E00123524639463046C04701301AD00135E368D9F800209B1A9D42F1DB94F843302268003318BF012392060FD591
:4034C000E118302081F843005A1C94F845102244023382F8431003E04FF0FF30BDE8F08704F1430239463046C0470130F4D02268D9F80050E36802F00602042A08BF5D1B13
:403500002269A3680CBF25EAE57500259342C4BF9B1AED184FF000091A344D4509D00123224639463046C0470130D5D009F10109F3E70020BDE8F0872DE9F04317460A7EE3
:4035400085B06E2A984606460C460C9B01F1430E00F0AE8011D8632A22D009D8002A00F0BB80582A40F0CA8081F84520834955E0642A1ED0692A1CD0C0E0732A00F0B08029
:4035800009D86F2A2ED0702A40F0B8800A6842F020020A603EE0752A24D0782A3AD0ADE01A6801F14205111D1960136884F84230A8E021681A6811F0800F02D0111D196010
:4035C00008E011F0400F02F10401196002D0B2F9003000E01368002B3CDA2D225B4284F8432037E021681A6811F0800F02D0111D196007E011F0400F02F10401196001D06A
:40360000138800E01368227E5C496F2A14BF0A2208221BE078225A4984F845202268186812F0800F00F104051D6003D1550601D5038800E00368D00744BF42F020022260D7
:403640001BB9226822F0200222601022002084F8430001E049490A226568002DA56008DB206820F0040020602BB9002D7DD175460CE0002B79D07546B3FBF2F002FB103383
:40368000CB5C05F8013D03460028F5D1082A0BD12368DA0708D5236962689A42DEBF302305F8013C05F1FF35C5EB0E0323612EE008681A6810F0800F496903D0101D186096
:4036C000136808E010F0400F02F104001860136801D0198000E0196000232361754616E01A68111D1960156800216268284600F0A7FE08B1401B6060636804E004F14205C0
:4037000084F8422001232361002384F84330CDF800803B4603AA21463046FFF797FE013002D14FF0FF3026E023692A4639463046C0470130F5D023689B0710D5002504F184
:40374000190907E001234A4639463046C0470130E7D00135E368039A9B1A9D42F2DBE068039B9842B8BF184605E00B7804F1420584F842308AE705B0BDE8F08390530000E1
:40378000A15300000EB400B54FF402719CB0ADF814106FF00041049107914FF6FF711DAB02900690084853F8042BADF81610006802A9019301F03AFA029B00221A701CB0EB
:4037C0005DF804EB03B070474081FF1F034613F8012B002AFBD1181A013870472DE9F74F03690C6980469C427FDC013C01F114074FEA840E00F1140606EB0E0357F8245083
:40380000019356F824300135B3FBF5F507EB0E09C5B34FF0000A3846B446D34650F8043B9AB205FB02A21B0C4FEA124A05FB03A392B2C2EB0B0BBCF800204FEA134A5A4441
:403840001FFA83FBDCF800308145CBEB134303EB224392B242EA03424FEA234B4CF8042BDCD256F80E306BB9019B043B9E421A4602D3C8F8104005E01268043B002AF8D1CA
:40388000013CF3E7404600F0F6FF00282BDB304601354FF0000E57F8042B036891B2C1EB0E0E120C99B27144C2EB134303EB214389B24FEA234EB94541EA034340F8043B2D
:4038C000E9D256F8242006EB840362B9043B9E421A4602D3C8F8104005E01268043B002AF8D1013CF3E7284600E0002003B0BDE8F08F0000000000002DE9F04F456A95B04E
:403900008246219CCDE9022345B9102000F090FDCAF82400456085600560C560DAF82430196859B15A68012393404A608B60504600F0C9FDDAF8243000221A60039BA04AED
:40394000002BBDBF01232360039B0023BCBF23F000430393DDF80C80A8BF236028F000431B0D1B0593421DD142F20F73209A1360029B43B9934A944BC8F31300002814BF1F
:403980001846104600E09048229B002B00F04685C37813B100F1080300E0C31C229A136000F03CBDDDE902450022002320462946FFF7BEF9074658B1209A01231360229BEE
:4039C000002B00F01E8581481860013800F026BD12AB019313AB009322462B46504600F0C5FFC8F30A56049056B1C5F3130343F07F51204641F44011A6F2FF3611971DE012
:403A0000139B129E1E4406F23243202B0ADD029A06F21240C3F1400322FA00F008FA03F3184304E0C3F12000029B03FA00F0FEF7A1FE0123A1F1F871013E11930022644B42
:403A4000FEF75AFD58A3D3E90023FEF709FF58A3D3E90023FEF752FD044630460D46FEF799FE55A3D3E90023FEF7FAFE02460B4620462946FEF742FD04460D46FFF78AF9EA
:403A800000228346002320462946FFF75BF958B15846FEF77FFE02460B4620462946FFF747F908B90BF1FF3BBBF1160F0DD8DDE90223484901EBCB01D1E90001FFF760F931
:403AC00030B10BF1FF3B002300E00123109300E01090129B9E1B731E079343BFC3F10008002307934FF00008BBF1000F06DB079BCDF82CB05B440793002705E00023CBEB15
:403B00000808CBF100070B931E9B092B28D8052BC4BF043B1E931E9BC8BF0025A3F10203D8BF0125032B20D8DFE803F0060E0204012302E0012308E000230A931F9B002B18
:403B40001DDD9946059321E000230A931F9B0BEB030909F10103012B0593B8BF012315E0012500231E930A9501E001230A934FF0FF390022CDF8149012231F9206E04FF0BD
:403B800001094B46CDF81490CDF87C90DAF8244000226260042101F114029A421CD86268490001326260F6E761436F63A787D23FB3C8608B288AC63FFB799F501344D33F96
:403BC0000000F07FB2530000BB5300008F5300000000F83FC85300006168504600F03EFCDAF8243020601B680693059B0E2B00F25B81002D00F05881DDE90234BBF1000F70
:403C0000CDE90E3430DD9F4A0BF00F034FEA2B1502EBC303E80618CBCDE908340CD5DDE90E01994B05F00F05D3E90823FEF742FF0324CDE9020100E00224934E6DB1E90705
:403C400008D5DDE90801D6E90023FEF709FECDE9080101346D100836F0E7DDE90823DDE90201FEF727FF20E0CBF1000505B3DDE90E01844B05F00F0203EBC203D3E90023AA
:403C8000FEF7EEFDCDE902017F4E2D110023022455B1EA0705D5D6E90023FEF7E1FD013401236D100836F3E71BB1CDE9020100E00224109BE3B1DDE902560022734B28466D
:403CC0003146FFF73FF898B1059B8BB1B9F1000F40F3E6800BF1FF330893314600226C4B2846FEF7BDFD0134CDE902014E4602E0059ECDF820B02046FEF74CFDDDE9022348
:403D0000FEF7AEFD634B0022FEF7F8FBA1F1507304460C931D46D6B9DDE9020100225E4BFEF7EAFB22460C9BCDE90201FFF728F8002840F03F820C99224601F10043DDE98E
:403D40000201FEF7FFFF002840F02B82A8E00A9A4C4B711E002A49D003EBC103D3E9002300204E49FEF7A6FE22462B46FEF7C4FBCDE90C01069CDDE90201FFF70BF80546D3
:403D8000FEF708FD02460B46DDE90201FEF7B4FBDDE90C23303504F8015BCDE90201FEF7D1FF002840F01D83DDE9022300203749FEF7A2FBDDE90C23FEF7C4FF002840F0B9
:403DC000D180069BE31AB3426ADADDE90C0100222F4BFEF745FD0022CDE90C01DDE902012B4BFEF73DFDCDE90201C4E703EBC1012246D1E900012B46FEF732FD069BCDE97F
:403E00000C011D469C19DDE90201FEF7C3FF0646FEF7C0FC02460B46DDE90201FEF76CFB303605F8016BAC42CDE902014FF0000222D11A4BDDE90C01FEF760FB02460B4657
:403E4000DDE90201FEF79CFF002840F08B80DDE90C2300201149FEF74FFB02460B46DDE90201FEF76FFFD8B114F8013C621E302B40F0B7821446F7E7054BFEF7F1FCCDE9DD
:403E80000201C0E7C8530000A05400000000F03F0000244000001C40000014400000E03FDDE90E34CDE90234139B002B7CDBBBF10E0F79DCAB4B03EBCB03D3E900671F9B16
:403EC000002B14DA059B002B11DC40F06C810022A54B30463946FEF7C3FCDDE90223FEF745FF059D2E46002840F05F8165E1069CDDE9028932463B4640464946FEF7DAFD94
:403F0000FEF748FF0546FEF745FC32463B46FEF7A7FC0B46024649464046FEF7EDFA05F1300E069B04F801EBC3EB040E059B73452DD102460B46FEF7E1FA80468946024690
:403F40000B4630463946FEF7FDFE78B942464B4630463946FEF7ECFE002800F04482EB0704D440E2DDF820B000E01C4614F8012C631E392A07D1069A9A42F6D10699302213
:403F80000BF1010B0A701A7801321A702BE20022764BFEF765FC0022002380468946FEF7C7FE0028A6D01EE20A9A002A2BD01E9A012A0ADC119A12B103F2334302E0129BBE
:403FC000C3F136033D46444613E0059B5D1EAF42BFBF0B9BEA1B9B180B93059BB6BF2F467D1B0025002BA7BF4446059BC3EB08040023079A01211A4450469844079200F053
:4040000001FB064602E03D4644460A9E5CB1079B002B08DDA342A8BF2346079AC3EB0808E41AD31A0793002F1DDD0A9BABB18DB131462A46504600F07FFB049A01460646C9
:40404000504600F0E8FA04990890504600F03BFA089B04937A1B06D000E03A460499504600F06AFB04900121504600F0CBFA0B9B05465BB31A460146504600F05DFB1E9B1D
:404080000546012B18DC029B83B9039BC3F3130373B9039B23F000473F0D3F054FB1079B08F1010801330793012702E0002700E0029F0B9B73B100E000272B6905EB83039F
:4040C000186900F052FAC0F1200004E01E9B012BD9DD0B9F0120079B184410F01F0008D0C0F12003042B02DDC0F11C0002E006D018461C30079B8044034404440793B8F1AA
:40410000000F05DD42460499504600F063FB0490079B002B05DD29461A46504600F05AFB0546109B23B32946049800F0A4FB00281EDA00230A220499504600F0DBF90A9B27
:404140000BF1FF3B0490002B00F05F81314600230A22504600F0CEF9B9F1000F06463FDC3BE000BFC85300000000144000002440059B002B2BDC1E9B022B28DDDDF8149064
:40418000B9F1000F11D129464B460522504600F0B1F901460546049800F06DFB00280CDC03E0354600E000252E461F9B069C6FEA030B09E03546DDF820B0069B069A5C1C1B
:4041C000312313700BF1010B05960026F7E00A9BDDF8149023B9069CB2E01E9B022BCFDC002C05DD31462246504600F0F3FA06469FB17168504600F031F90446326906F128
:404200000C01023292000C30FEF738FE01222146504600F0DFFA059000E00596029B069F03F00103079329460498FFF7D7FA3146044600F13008049800F01DFB059A0290E7
:404240002946504600F033FBC36802463BB901460A90049800F00FFB0A9A034600E00123114650460A9300F02EF90A9B53B91E9A42B9079A32B9B8F1390F2AD0029B002B08
:404280001CDC1DE0029A002A04DB1BD11E9ACAB9079ABAB9002B13DD01220499504600F099FA2946049000F0E6FA002803DC07D118F0010F04D0B8F1390F0AD004F131089E
:4042C0007C1C0CE0002B07F101040BDDB8F1390F03D139233B70013756E008F1010887F800806CE0069B2746E31A4B4504F8018C3BD000230A220499504600F0FBF8059B6F
:4043000004909E424FF00A024FF000033146504604D100F0EFF80646059084E700F0EAF8002306460A220599504600F0E3F8059079E700230A220499504600F0DBF804903D
:4043400029460498FFF74AFA069B00F1300804F8018BE31A4B45ECDB069B0596B9F1010FACBF4B4401331F46002601220499504600F030FA2946049000F07DFA002803DCC2
:4043800015D118F0010F12D03C4614F8013C621E392B09D1069B934204D10BF1010B3123069A02E01446F0E70133137007E03C4614F8013C621E302B01D11446F8E729467C
:4043C000504600F080F8059B6BB12EB19E4203D03146504600F077F80599504600F073F801E0DDF820B00499504600F06CF80023209A23700BF101031360229B1BB11C6081
:4044000001E008480AE0069808E0B9F1000F3FF7E2AE1E9B022B7FF7DEAEB1E615B0BDE8F08F00BF8E530000004870474481FF1F024B0146186800F041BB00BF4081FF1FD4
:4044400010B5C9B202449042034605D01C7801308C42F8D1184610BD002010BD70B5456A04460E463DB91020FFF7E2FF6062456085600560C560656AEB6843B1636ADB68E7
:4044800053F8260078B1026843F8262017E021220421204600F0B8FA636AE860DB68002BECD1002070BD012101FA06F56A1D9200204600F0A9FA0028F3D0466085600023C0
:4044C0000361C36070BD70B5446A06460D463CB91020FFF7ADFF7062446084600460C4603DB1736A6A68DB6853F82210296043F8225070BD2DE9F04106460C460D691F466D
:4045000001F1140E0023DEF80000013381B202FB0171000C0F0C02FB007089B201EB00419D424FEA10474EF8041BECDCD7B1A3689D4212DB616830460131FFF78FFF8046E6
:40454000226904F10C01023292000C30FEF796FC21463046FFF7B7FF444604EB850301355F6125612046BDE8F081030C1B0413B90004102300E0002310F07F4F04BF0002DC
:40458000083310F0704F04BF0001043310F0404F04BF80000233002803DB420003D5581C70471846704720207047036813F007020BD0D90722D49A074BBF5B089B0803606C
:4045C00003604CBF01200220704799B209B91B0C102213F0FF0F04BF1B0A0832190704BF1B090432990704BF9B080232D90702D45B0805D0013203601046704700207047DB
:404600002020704710B50C460121FFF727FF01224461026110BD2DE9F74F14460A69236988469A42BEBF0B46A0461C46D8F81070D4F81090D8F80830D8F8041007EB090618
:404640009E42C8BF0131FFF709FF00F114052B4605EB860C0022634502D243F8042BFAE704F1140208F1140102EB890301EB87070093009B0192934257D9B2F800B0BBF1E5
:40468000000F23D08946AE464FF0000859F8044BBEF800A0A3B20BFB03A34FEA144ADEF8004043444FEA14480BFB0A84F24604EB13449BB243EA04434F454FEA14484AF8F0
:4046C000043B01D9D646E1E7CEF80480019B0432B3F802A0BAF1000F21D02C4689462B684FF00008B9F800E0B4F802B09BB20AFB0EBEA346F04443EA08434BF8043B59F819
:40470000043BB4F804E01B0C0AFB03E34F4503EB18434FEA134801D95C46E3E763600435A7E75CF8043D13B9013E002EF9DC066103B0BDE8F08F00002DE9F843154612F0C8
:40474000030206460F4607D0214C013A002354F82220FFF7CFFE0746AD1036D0746A3CB91020FFF765FE7062446084600460C460D6F82480D8F808404CB940F27121304689
:40478000FFF740FF04460023C8F8080003604FF00008EB070AD5394622463046FFF73BFF814639463046FFF78EFE4F466D100CD0206808B10446ECE7224621463046FFF7C2
:4047C0002AFF2060C0F80080F4E73846BDE8F883905400002DE9F0470C460746914626694FEA621A56444968A368751CAB4202DA01315B00FAE73846FFF730FE00238046CB
:404800001A4600F11401534503DA41F823200133F9E72AEAEA73206901EB830319F01F0904F1140101EB800E14D0C9F1200C002208689A4600FA09F0024343F8042B51F8C5
:40484000042B8E4522FA0CF2F2D8CAF8042042B1B51C06E0043B51F8042B8E4543F8042FF9D8013D3846C8F810502146FFF72BFE4046BDE8F08703690A6910B59B1A11D1BA
:4048800092001430143183180A4453F8044D52F8041D8C4202D007D3012010BD9842F4D3002010BD184610BD4FF0FF3010BD2DE9F8430C460746114620461546FFF7DBFFB9
:4048C000061E08D131463846FFF7C8FD012303614661BDE8F883BCBF23462C4638466168BABF1D4601260026FFF7B8FD2B69C660266905F1140904F1140101EB860709EB78
:40490000830800F114054FF0000C51F8042B59F8044B93B29C44A3B2240CC3EB0C03C4EB124202EB23429BB24FEA224CC84543EA02428E4645F8042BE7D8BE450ED25EF819
:40494000041B8AB26244131403EB114392B242EA03424FEA234C45F8042BEEE755F8043D0BB9013EFAE70661BDE8F8832DE9F3411C4601219046089E099DFFF76FFDC4F32D
:404980001302C4F30A5407460CB142F480120192B8F1000F19D002A840F8088DFFF705FE009B48B1019AC0F1200102FA01F10B43C2407B61019200E07B61019B002B14BF53
:4049C00002210121BB61396107E001A8FFF7EDFD019B01217B613961203034B1A4F2334404443460C0F1350009E0A0F2324007EB810330601869FFF7B8FDC0EB4110286071
:404A0000384602B0BDE8F08138B502FB01F4214600F054F8054618B122460021FEF739FA284638BD38B50546002944D051F8043C0C1F002BB8BFE41800F017FA1E4A1368DB
:404A4000114613B96360146030E0A3420DD92268A018834201BF18685B681218226063600C6023E0A24203D813465A68002AF9D118681918A1420BD12168014458188242D9
:404A8000196013D110685268014419605A600DE002D90C232B6009E021686018824201BF106852680918216062605C602846BDE8384000F0DBB938BDA881FF1F70B5CD1C54
:404AC00025F0030508350C2D38BF0C25002D064601DBA94202D90C23336046E000F0C5F9234B1C681A462146A1B10B685B1B0ED40B2B03D90B60CC18CD501EE08C420BBF60
:404B000063684B681360636018BF0C4615E00C464968E9E7174C23681BB9304600F07AF920602946304600F075F9431C18D0C41C24F00304A0420DD12560304600F096F9F6
:404B400004F10B00231D20F00700C31A0ED05A42E25070BD211A304600F05CF90130EBD10C233360304600F081F9002070BD00BFA881FF1FA481FF1F2DE9F0478E68824602
:404B80009E420C46914698463ED88A8912F4906F3AD02568096902236F1A656905EB450595FBF3F57B1C43449D4238BF1D4653050FD52946FFF782FF064698B13A46216991
:404BC000FEF75CF9A38923F4906343F08003A38113E02A4600F04BF9064670B921695046FFF720FF0C23CAF80030A3894FF0FF3043F04003A381BDE8F08726613E4426601A
:404C000046466561ED1BA560464528BF464649463246206800F00EF9A36800209B1BA36023681E442660BDE8F08700002DE9F04F9DB003938B8980461C060D4616460DD559
:404C40000B695BB94021FFF739FF2860286118B90C23C8F80030CDE040236B610023099320238DF82930DFF89CB130238DF82A3037463C4614F8013B1BB9B7EB060910D05E
:404C800003E0252BF9D02746F3E74B46324629464046FFF771FF013000F0A780099B4B4409933B78002B00F0A08000234FF0FF3204930793059206938DF853301A93012678
:404CC000052221784E48FFF7BBFB671C049B38B14B4A3C46801A06FA00F018430490EFE7D90644BF20228DF853201A0744BF2B228DF8532022782A2A03D0079A00210A200F
:404D00000BE0039A111D12680391002A10DA524243F00200079204900BE027463B780134303B092B03D800FB02320121F5E701B107923B782E2B1ED17B782A2B0AD1039BB7
:404D400002371A1D1B680392002BB8BF4FF0FF33059310E0002319460593781C0A2407463A780130303A092A03D804FB01210123F5E703B10591032239782248FFF760FB90
:404D800040B14023CBEB000003FA00F0049B013718430490397806221B487E1C8DF82810FFF74EFB88B1194B33B9039B073323F007030833039314E003AB00932A46144B11
:404DC00004A94046FEF7FEF807E003AB00932A460F4B04A94046FEF7AFFBB0F1FF3F824603D0099B5344099342E7AB895B0601D4099801E04FF0FF301DB0BDE8F08F00BF4D
:404E0000C8540000CE540000D2540000C52F0000794B000038B5064C0023054608462360FCF7D4FF431C02D1236803B12B6038BDB881FF1F884210B501EB020301D8421E11
:404E40000BE09842FBD28118D21AD34204D013F8014D01F8014DF8E710BD994204D011F8014B02F8014FF8E710BD70477047F8B5074615460E4621B91146BDE8F840FFF7D1
:404E80001DBE1AB9FFF7CEFD2846F8BD00F015F885420ED929463846FFF710FE044650B131462A46FDF7EAFF31463846FFF7BAFD01E03046F8BD2046F8BD51F8040C00286B
:404EC000BEBF091851F8043CC0180438704700004FEA410C7FEA6C5C02D150EA013C0AD14FEA430C7FEA6C5C02D152EA033C02D14FF0000070474FF001007047000000001D
:404F00001F000000E007000000F8000020FD0000FF07000018FC000018C60000E07B0000FFFF0000E5AF000025352E336620560025352E3366204D494C20410025362E339A
:404F40006620560025362E3366204D494C204100EF03038002CF0300C130ED0464031281E803850078CB05392C003402F70120EA020000C00123C10110C5023E28C7018623
:404F80003601483701003A0155B1020018B603088227F20100260101E00F0F312B0C0E084EF1370710030E0900E10F000E1403110731C148080F0C31360F118029800000FD
:404FC00056445320560000004944204D494C20410000000056434520560000004943204D494C2041000000002564000025690000071A0301020302000403000104030002C7
:4050000004030003040200040301020313050001020304010201020102010202010201021705000102030402000401010202030104020004030102031503010203020004B0
:40504000010402020301040200040301020316010401040500010203040200040201040202040203041803010203020004010401040400010203010005000102030416035F
:40508000010203020004020004040001020301000101020203130102010201020103010402000405000102030418030102030200040200040301020302000402000403014A
:4050C0000203160201020103010404010203040200040200040301020319020004020004020004020004050001020304020004030102031B040001020302000402000402E2
:4051000000040400010203020004040001020314030102030200040100010001000200040301020319040001020302000402000402000402000402000404000102031905B3
:40514000000102030401000100040001020301000100050001020304140100010001000100030001020100050001020304180301020302000402000402000403000304019C
:405180000004010203041802000402000402000402000405000102030402000402000412030102030102010201020102010203010203110301020302000401040104010434
:4051C0000104010416020004020004020004020003030001020200030200041205000102030401000100010001000100010018020004020004020004020004030002040403
:4052000000010304020004180200040200040200040300030403000204030001040200041703010203020004020004020004020004020004030102031501000100010001B5
:405240000004000102030200040400010203170301020402000302000402000402000402000403010203190200040200040200040200040400010203020004040001020382
:405280001603010203020004010401040301020301000401020304120102010201020102010201020500010203041603010203020004020004020004020004020004020035
:4052C00004140102020103020103020004020004020004020004180200040400010304030002040200040200040200040200041402000402000402000402010301020201F2
:4053000003020004100102010201020102010202010302000416050001020304010001010102010301040500010203040801020000000000000700000000000000000000E4
:40534000C84900401900205100401000405100403000C0510040100000000140800000010140000F00140140000800400140000A004C014000020050014020004300494E8C
:405380004600696E66004E414E006E616E00300030313233343536373839414243444546003031323334353637383961626364656600496E66696E697479004E614E005085
:4053C0004F534958002E0000000000000000F03F000000000000244000000000000059400000000000408F40000000000088C34000000000006AF8400000000080842E4161
:4054000000000000D01263410000000084D797410000000065CDCD41000000205FA00242000000E876483742000000A2941A6D42000040E59C30A2420000901EC4BCD642D7
:4054400000003426F56B0C430080E03779C3414300A0D8855734764300C84E676DC1AB43003D9160E458E143408CB5781DAF154450EFE2D6E41A4B4492D54D06CFF0804485
:40548000F64AE1C7022DB544B49DD9794378EA4405000000190000007D000000000000000080E03779C34143176E05B5B5B89346F5F93FE9034F384D321D30F94877825AD9
:4054C0003CBF737FDD4F1575232D302B2000686C4C0065666745464700000000F8B500BFF8BC08BC9E4670474D000000551E0000F8B500BFF8BC08BC9E4670472900000033
:4055000010550000C880FF1FB80000004000000000000000C081FF1F180000000000E02EC05D000000366E0100000000000000000000000000000000000000000000000061
:4055400000000000000000007C530000000000000000000000000000000000000000000000000000000000000000000000000000000000000000000000000000000000005C
:405580000000000000000000E080FF1FC5530000CD540000CD540000CD540000CD540000CD540000CD540000CD540000CD540000CD540000FFFFFFFFFFFFFFFFFFFFFFFF38
:4055C000FFFF0000000000000000000000000000000000000000000000000000000000000000000000000000000000000000000000000000000000000000000000000000AD
:40560000000000000000000000000000000000000000000000000000000000000000000000000000000000000000000000000000000000000000000000000000000000006A
:40564000000000000000000000000000000000000000000000000000000000000000000000000000000000000000000000000000000000000000000000000000000000002A
:4056800000000000000000000000000000000000000000000000000000000000000000000000000000000000000000000000000000000000000000000000000000000000EA
:4056C00000000000000000000000000000000000000000000000000000000000000000000000000000000000000000000000000000000000000000000000000000000000AA
:020000040003F7
:0200000480007A
:4000000004520040016400400D0001402C0101403A0201403003014006050140041501400117014001190140041B0140034001400C4101400842014003430140074801406A
:4000400011490140094C0140074D014002500140025101400020012018C01940810F01020305050807010D08190D1B02350E37013B203F4059045F010402060207080EAA32
:4000800017051D801E8120042240230824032570261027402E802F883120375938053A803DA03E02448045A047084C014D0855015688571065406E0A6F9D76028D21C0D070
:4000C000C2F0C430CAB0CCF4CEBBD0F0D210D810000702380456050906090736086009050B3A0C840D130F0C10011102130D1680180A1A101B201C842004228024802604FD
:4001000028842C04307F34803530370F38023B803E105440580459045B045F018101840485018609880E980599019A0A9C039E04B20FB60FB701B888BF40D409D804D904A2
:40014000DB04DF0100140406060A09600C040D200E820F20175518101A021E801F10218026A02702316032803620370238063C043DA059085A815B206180652066406720A9
:4001800084809006928199289A8A9B559C809D40A170A201A310C0F6C2F3C4F0CCA4CE73D60FD878AA20AC04AE41B2C0B320EA20E201E403EA01EE08E608E608E201E4034F
:4001C000EA01EE0833203740CC300A0253105B02641086019F40A720C240D420D640D880E4403E109F40A720AB02AF10B010CE20EEC096109F40A7200340870496109F4008
:40020000A720C010E6100A020E025C0167088001820186019308AA10AF20C2C0D680D880E280E4C0EA80EE10132114401F807B107F108440C40EC601DE03831187109301BE
:400240009720A710AB20AF8000010801000F03C0019A020000000000022108D81D13006402980D0202FC04031D9800021D3800C00D9A10001D00000000020098000200001C
:400280000FE00000000F1013000002220000400023051000040EDCFB3DFFFFFF2200F008040000000000022004040404000000010000C00040011011C00100114001400197
:4002C0000000000000000000000000000000000040A3A300A20000000120200000000000000B0B00000000000000C000C00038000E001801000000000000000000000000A0
:4003000000000000000000000000000000000000000000000000000000000000000000000000000000000000000000000000000000000000000000000000000000000000BD
:40034000000000000000000000000000000000000000000000000000000000000000000000000000000000000000000000000000000000000000000000000000000000007D
:40038000000000000000000000000000000000000000000000000000000000000000000000000000000000000000000000000000000000000000000000000000000000003D
:4003C00000000000000000000000000000000000000000000000000000000000000000000000000000000000000000000000000000000000000000000000000000000000FD
:0200000490006A
:0400000000004005B7
:0200000490105A
:04000000BC90ACAF55
:0200000490303A
:0200000069BCD9
:0200000490402A
:4000000000000000000000000000000000000000000000000000000000000000000000000000000000000000000000000000000000000000000000000000000000000000C0
:400040000000000000000000000000000000000000000000000000000000000000000000000000000000000000000000000000000000000000000000000000000000000080
:400080000000000000000000000000000000000000000000000000000000000000000000000000000000000000000000000000000000000000000000000000000000000040
:4000C0000000000000000000000000000000000000000000000000000000000000000000000000000000000000000000000000000000000000000000000000000000000000
:0200000490501A
:0C00000000012E16106900012E377A2531
:00000001FF