:400000000080002011000000B9120000B912000080B500AF024A034B1B68136001F056F9BC760040FA46004010B5054C237833B9044B13B10448AFF300800123237010BD31
:400040004081FF1F000000000C260000084B10B51BB108490848AFF300800848036803B910BD074B002BFBD0BDE81040184700BF000000004481FF1F0C260000C880FF1FAE
:40008000000000000000000090B585B000AF03460A46FB711346BB71FB79184601F00CFDBB79184601F0B8FD012001F0AFF901F04BFB002001F068FB01F056FB01F084FB72
:4000C0000346184601F0D6FB0346184601F036FF07A3D3E9002302F0C1F803460C46C7E90234D7E90234184621461437BD4690BD9A99999999D9494090B585B000AF0346ED
:40010000FB71FB79184601F087FD012001F07EF901F01AFB002001F037FB01F025FB01F053FB0346184601F0A5FB0346184601F005FF09A3D3E9002302F090F803460C4676
:40014000C7E90234D7E90234184621461437BD4690BD00BFAFF300809A99999999D9494090B587B000AF03460A46FB711346BB714FF000034FF00004C7E90234BB79184650
:4001800001F09AFC002001F047FD0023FB7516E0FA7DFB7D11461846FFF776FFC7E902014FF000020B4BD7E9020102F0BDF90346002B01D0FB7D08E0FB7D0133FB75FA7DDE
:4001C000FB799A42E4D34FF0FF3318461C37BD4690BD00BF0000F03F80B586B000AF0346FB710B46BB7113467B71BB79184601F063FCFB79FB7512E0FB7D1846FFF77CFF08
:40020000C7E902014FF000020C4BD7E9020102F081F90346002B07D1FB7D0133FB75FA7D7B799A42E8D300E000BFFB7D9BB2013B9BB218461837BD4680BD00BF00003440CD
:40024000B0B5ADF5F35D84B000AF01F091FC01F0DFFB01F05DF9002307F5F35202F107021370192307F5F35202F10402138041F2941307F5F35202F10202138007F5BE6306
:40028000083B18464FF4BD531A46002102F0B5F907F5F35303F107031B78032B00F2288601A252F823F000BFB902000045070000DF0900005D0C000001F04EFB1521FF20E2
:4002C000FFF74EFF034607F5F352138007F5F353B3F90030002BC0F20A8607F5F3531B88DBB2DC22BC211846FFF776FF034607F5F25202F11E02138007F5F25303F11E0378
:40030000B3F9002007F5F353B3F90030D31AB64A82FB0312DB17D31A07F5F25202F11D02137007F5F3531B88DBB207F5F25202F108021370012307F5F35202F10C02136095
:400340002AE007F5F35303F10C031B68013B07F5F35202F11002134413F8282C07F5F25303F11D031B781344D9B207F5F25202F1080207F5F35303F10C031B6813440A46FD
:400380001A7007F5F35303F10C031B68013307F5F35202F10C02136007F5F35303F10C031B68032BCDDD002307F5EC5202F10802137007F11003103B4FF000014FF00002AE
:4003C000C3E90012012307F5F35202F10C0213604FE007F5F35303F10C031B68013B07F5F35202F11002134413F8E83C0133D9B207F5EC5202F1080207F5F35303F10C032C
:400400001B6813440A461A7007F5F35303F10C031B68013B07F5F35202F11002134413F8E83C1A4613465B0013441B03184601F085FD4FF000026D4B01F010FF03460C464A
:400440001946224607F11003103B07F5F35000F10C000068C0000344C3E9001207F5F35303F10C031B68013307F5F35202F10C02136007F5F35303F10C031B68BC2BA8DD11
:40048000002307F5F35202F10C02136051E1002307F5F35202F10802136037E107F5EC5202F1080207F5F35303F108031B681344187807F5F25202F1080207F5F35303F1F1
:4004C0000C031B6813441B781946FFF7DDFD04460D4607F5BE62083A07F5F35303F10C0319680B465B000B449901C91A07F5F35303F108031B680B44DB001344C3E90045E2
:4005000007F5F35303F108031B68002B74D107F5BE62083A07F5F35303F10C0319680B465B000B449901C91A07F5F35303F108031B680B44DB001344D3E9004507F5F35363
:4005400003F10403B3F90030184601F0F7FC02460B462046294601F081FE03460C46184621464FF00002224B01F04EFD03460C461846214601F0E2FF034607F5F25202F18C
:400580001A02138007F11003103B07F5F35202F108021268D2001344D3E9004507F5F35303F10203B3F90030184601F0C7FC02460B462046294601F051FE03460C46184684
:4005C00021464FF000020B4B01F01EFD03460C461846214601F0B2FF034607F5F25202F11802138087E000BF565555550000704000006E400000744007F5BE62083A07F5DF
:40060000F35303F10C0319680B465B000B449901C91A07F5F35303F108031B680B44DB001344D3E9004507F5F35303F10403B3F90030184601F082FC02460B4620462946DE
:4006400001F00CFE03460C46184621464FF00002B34B01F0D9FC03460C461846214601F06DFF034607F5F25202F11602138007F11003103B07F5F35202F108021268D20056
:400680001344D3E9004507F5F35303F10203B3F90030184601F052FC02460B462046294601F0DCFD03460C46184621464FF000029C4B01F0A9FC03460C461846214601F087
:4006C0003DFF034607F5F25202F11402138007F5F25303F116031B8807F5F25202F11A02138007F5F25303F114031B8807F5F25202F11802138007F5F35303F108031B6833
:40070000013307F5F35202F10802136007F5F35303F108031B68BC2B7FF7C0AE07F5F35303F10C031B68013307F5F35202F10C02136007F5F35303F10C031B68032B7FF728
:40074000A6AED5E37E2307F5F3521380BC2307F5F25202F11E02138007F5F25303F11E03B3F9002007F5F353B3F90030D31A002B00DA03339B1007F5F25202F11D0213704B
:4007800007F5F3531B88DBB207F5F25202F108021370012307F5F35202F10C0213602AE007F5F35303F10C031B68013B07F5F35202F11002134413F8282C07F5F25303F1EF
:4007C0001D031B781344D9B207F5F25202F1080207F5F35303F10C031B6813440A461A7007F5F35303F10C031B68013307F5F35202F10C02136007F5F35303F10C031B68B5
:40080000032BCDDD002307F5EC5202F10802137007F11003103B4FF000014FF00002C3E90012012307F5F35202F10C0213605CE007F5F35303F10C031B68013B07F5F35214
:4008400002F11002134413F8E83C0133D9B207F5EC5202F1080207F5F35303F10C031B6813440A461A7007F5F35303F10C031B68013B07F5F35202F11002134413F8E83C2E
:40088000184601F05BFB4FF00002274B01F0E6FC03460C46184621464FF00002234B01F0B3FB03460C46184621461BA3D3E9002301F0AAFB03460C461946224607F110035F
:4008C000103B07F5F35000F10C000068C0000344C3E9001207F5F35303F10C031B68013307F5F35202F10C02136007F5F35303F10C031B68BC2B9BDD002307F5F35202F115
:400900000C02136063E0002307F5F35202F1080213604AE0AFF30080FCA9F1D24D62104000006E40000074400000A4400000084007F5EC5202F1080207F5F35303F1080366
:400940001B681344187807F5F25202F1080207F5F35303F10C031B6813441B781946FFF793FB04460D4607F5BE62083A07F5F35303F10C0319680B465B000B449901C91A02
:4009800007F5F35303F108031B680B44DB001344C3E9004507F5F35303F108031B68013307F5F35202F10802136007F5F35303F108031B68BC2BBBDD07F5F35303F10C03D0
:4009C0001B68013307F5F35202F10C02136007F5F35303F10C031B68032B94DD88E27E2307F5F3521380BC2307F5F25202F11E02138007F5F25303F11E03B3F9002007F562
:400A0000F353B3F90030D31A002B00DA03339B1007F5F25202F11D02137007F5F3531B88DBB207F5F25202F108021370012307F5F35202F10C0213602AE007F5F35303F1A1
:400A40000C031B68013B07F5F35202F11002134413F8282C07F5F25303F11D031B781344D9B207F5F25202F1080207F5F35303F10C031B6813440A461A7007F5F35303F176
:400A80000C031B68013307F5F35202F10C02136007F5F35303F10C031B68032BCDDD002307F5EC5202F10802137007F11003103B4FF000014FF00002C3E90012012307F589
:400AC000F35202F10C0213605CE007F5F35303F10C031B68013B07F5F35202F11002134413F8E83C0133D9B207F5EC5202F1080207F5F35303F10C031B6813440A461A7042
:400B000007F5F35303F10C031B68013B07F5F35202F11002134413F8E83C184601F00EFA4FF00002C44B01F099FB03460C46184621464FF00002C14B01F066FA03460C4620
:400B400018462146BAA3D3E9002301F05DFA03460C461946224607F11003103B07F5F35000F10C000068C0000344C3E9001207F5F35303F10C031B68013307F5F35202F1DB
:400B80000C02136007F5F35303F10C031B68BC2B9BDD002307F5F35202F10C02136055E0002307F5F35202F1080213603CE007F5EC5202F1080207F5F35303F108031B6895
:400BC0001344187807F5F25202F1080207F5F35303F10C031B6813441B781946FFF754FA04460D4607F5BE62083A07F5F35303F10C0319680B465B000B449901C91A07F547
:400C0000F35303F108031B680B44DB001344C3E9004507F5F35303F108031B68013307F5F35202F10802136007F5F35303F108031B68BC2BBBDD07F5F35303F10C031B68C6
:400C4000013307F5F35202F10C02136007F5F35303F10C031B68032BA2DD49E17E2307F5F3521380BC2307F5F25202F11E02138007F5F25303F11E03B3F9002007F5F3534E
:400C8000B3F90030D31A002B00DA03339B1007F5F25202F11D02137007F5F3531B88DBB207F5F25202F108021370012307F5F35202F10C0213602AE007F5F35303F10C0356
:400CC0001B68013B07F5F35202F11002134413F8282C07F5F25303F11D031B781344D9B207F5F25202F1080207F5F35303F10C031B6813440A461A7007F5F35303F10C03F4
:400D00001B68013307F5F35202F10C02136007F5F35303F10C031B68032BCDDD002307F5EC5202F10802137007F11003103B4FF000014FF00002C3E90012012307F5F352D0
:400D400002F10C0213605CE007F5F35303F10C031B68013B07F5F35202F11002134413F8E83C0133D9B207F5EC5202F1080207F5F35303F10C031B6813440A461A7007F508
:400D8000F35303F10C031B68013B07F5F35202F11002134413F8E83C184601F0CFF84FF00002254B01F05AFA03460C46184621464FF00002214B01F027F903460C4618463C
:400DC00021461BA3D3E9002301F01EF903460C461946224607F11003103B07F5F35000F10C000068C0000344C3E9001207F5F35303F10C031B68013307F5F35202F10C0288
:400E0000136007F5F35303F10C031B68BC2B9BDD002307F5F35202F10C0213605FE0002307F5F35202F10802136046E0AFF30080FCA9F1D24D6210400000A4400000084052
:400E400007F5EC5202F1080207F5F35303F108031B681344187807F5F25202F1080207F5F35303F10C031B6813441B781946FFF70BF904460D4607F5BE62083A07F5F3530B
:400E800003F10C0319680B465B000B449901C91A07F5F35303F108031B680B44DB001344C3E9004507F5F35303F108031B68013307F5F35202F10802136007F5F35303F121
:400EC00008031B68BC2BBBDD07F5F35303F10C031B68013307F5F35202F10C02136007F5F35303F10C031B68032B98DD00E000BF00F00CFD002000F0DFFD002000F08CFEAB
:400F0000FFF7C6B980B582B000AF786039603A680021786801F071FB00BF0837BD4680BD80B584B000AFF860B9607A607A68B968F86801F057FB00BF1037BD4680BD00BF69
:400F400080B483B000AF0346FB71FEE780B487B000AF7860396000233B6100237B6127E07B699B007A6813441B68BB60BB68FB73BB6823F0FF03BB6014E03B695B003A68A2
:400F800013441B781A46BB68134419463B695B003A6813445B780B703B6901333B61FB7B013BFB73FB7B002BE7D17B6901337B617B69082BD4D900BF1C37BD4680BC70471B
:400FC00080B582B000AF042234493548FFF7A8FF344B02221A704FF0402308221A70324B03221A70314B324A1278D2B21A70314B08221A80304B41F251221A800023FB7056
:4010000019237B6014E0FB785B00DAB22B4B1B78DBB203F00103DBB21343DBB203F00303FB704FF4F07000F027FE7B68013B7B607B68002B02D0FB78032BE4D17B68002BF4
:4010400002D10320FFF77CFF1D4B4FF480721A801B4B07221A701B4B00221A701A4B48221A70174B00221A70184B02221A70184B04221A70174A174B1B78DBB243F0010302
:40108000DBB21370144A144B1B78DBB263F07F03DBB2137000BF0837BD4680BD4C000048004100400043004000420040A146004008010049224200402042004025420040A0
:4010C000044000400640004008400040014000400B400040A1430040A043004080B582B000AF264B1B78FB71254B1B78BB71254B1B787B71244AFB7903F00703DBB2137078
:40110000224AFB791B09DBB213701D4ABB7943F00303DBB213701B4A7B7943F00303DBB213701B4B4FF401521A801A4B80221A70194B01221A70194B80221A70184B1022B8
:401140001A70184B10221A70174B20221A70174B20221A70164B10221A700A2000F078F9084A7B791370064ABB791370114B44221A7000BF0837BD4680BD00BFCF01004990
:40118000F8460040F94600406E5800406F5800400C51004001590040835A0040935A0040945A0040985A0040205B0040235B0040585B00407658004080B582B000AF72B68C
:4011C0002F4A2F4B1B78DBB243F00403DBB213700023FB7113E0FA7913465B0013445B00284A13443B603B681A683B689B889BB219461046FFF786FEFB790133FB71FB79E4
:40120000072BE8D920494FF09040FFF79FFE1F4A1E4B1B78DBB243F00203DBB213701C4A1B4B1B78DBB243F00203DBB21370082218491948FFF774FE082218491848FFF70D
:401240006FFE184A174B1B78DBB243F00803DBB21370154B61221A70FFF7B2FE124B81221A70124B01221A70FFF738FF0E2210491048FFF755FE00BF0837BD4680BD00BFD4
:40128000E8460040102600002400004803500140135001403C000048025100404400004812510040224300400048004004000840A0430040B043004080B500AF01F066F99D
:4012C00003461B680C2B00D1FEE7FEE780B586B000AF224B7B61224B3B61204B7B6135E03B691B68FB603B695B68BB603B699B683B6000237B600CE0FB681A68BB681A60D6
:40130000BB680433BB60FB680433FB607B6804337B607A683B689A42EED13B69DB683B6000237B6008E0BB6800221A60BB680433BB607B6804337B607A683B689A42F2D179
:401340003B6910333B617B69013B7B617B69002BC6D101F021F9FEF773FFFEE7010000006826000080B582B000AF184B184A1A60184A184B1B6843F40073136000237B60AA
:401380000FE07B68032B04D8134A7B6852F8233000E0124B12497A6841F822307B6801337B607B682F2BECD90E4B1B78DAB20E4B1A700E4B0A4A1A60FFF7FEFE0C4B00228E
:4013C0001A6000BF0837BD4680BD00BF0CED00E00004FA0514ED00E000000000B91200000080FF1FBC760040C480FF1F08ED00E0C080FF1F80B483B000AF0346FB7101BEBF
:4014000000BF0C37BD4680BC704700BF80B582B000AF786008E00C4B1B68184600F02CFC7B68A3F500437B607B68B3F5004FF2D8064B1B687A6802FB03F3184600F01CFC83
:4014400000BF0837BD4680BDD880FF1FD080FF1F80B582B000AF0346FB80FB88054A127802FB03F3184600F007FC00BF0837BD4680BD00BFD480FF1F80B584B000AF034600
:401480003960FB710F4B1B68FB60FB791F2B02D90020FFF7AFFFFB7903F01F0310339B00FA6813441B68BB60FB7903F01F0310339B00FA6813443A681A60BB6818461037D0
:4014C000BD4680BD08ED00E080B582B000AF03460A46FB711346BB71BB79072B02D90020FFF788FFFB791F2B02D90020FFF782FFFB7903F01F0303F1604303F56443BA7937
:401500005201D2B21A7000BF0837BD4680BD00BF80B500AF064B1B78002B04D100F00AF8034B01221A7000F029F800BF80BD00BF5C81FF1F80B500AF102000F021FA07218A
:401540000020FFF7C1FF0A490020FFF795FF094A084B1B78DBB243F00603DBB213700C2000F0C8F8044B00221A8000BF80BD00BF01190000015900406C81FF1F80B582B0BE
:4015800000AF00F081FB0346FB712E4A2D4B1B78DBB243F00103DBB213702B4A2A4B1B78DBB243F00103DBB21370284A274B1B78DBB243F00103DBB21370254A244B1B78F7
:4015C000DBB243F00103DBB21370224B1B78BB71BB7943F00203BB71BB7943F00103BB711C4ABB7913701C4B18221A701B4A1B4B1B78DBB243F04003DBB21370174A174B40
:401600001B78DBB223F00303DBB21370144BC8221A70144B02221A70134A134B1B78DBB243F00803DBB213700A20FFF711FF0F4B01221A60FB79184600F02AFB00BF08374C
:40164000BD4680BDAB430040BB430040A1430040B14300400359004006590040055900400059004014460040275B004080E200E080B582B000AF00F007FB0346FB71184A37
:40168000174B1B78DBB223F00103DBB21370154A144B1B78DBB223F00103DBB21370124A114B1B78DBB223F00103DBB213700F4A0E4B1B78DBB223F00103DBB213700C4A2E
:4016C0000B4B1B78DBB223F00103DBB21370FB79184600F0DDFA00BF0837BD4680BD00BF00590040AB430040BB430040A1430040B143004080B584B000AF0346FB71FB7919
:401700000A2B07D00C2B02D0082B06D008E0C223FB730BE08223FB7308E04223FB7305E0C223FB730020FFF765FE00BF054AFB7B1370FB79184600F05FF800BF1037BD46BD
:4017400080BD00BF0259004080B400AF054A054B1B78DBB243F00103DBB2137000BFBD4680BC70470059004080B400AF054A054B1B78DBB223F00103DBB2137000BFBD4610
:4017800080BC70470059004080B584B000AF0346FB710C4B1B78DBB203F00103FB73FB7B012B02D0FB79002BF3D0FB7B012B04D10120FFF74DFE034B1B78FB7B1846103749
:4017C000BD4680BD0159004080B483B000AF084B1B88FB80074B1B881BB29BB2FA88D31A9BB21BB218460C37BD4680BC704700BFA05B00406681FF1F80B584B000AF0346F9
:40180000FB71FB790A2B08D00C2B02D0082B08D00BE04FF48053FB600DE04FF48063FB6009E04FF48073FB6005E00023FB600020FFF7E0FD00BF0C4B00221A80FB6842F2A4
:40184000107202FB03F303F58063002B01DA03F2FF73DB121A46054B1A60054B00221A8000BF1037BD4680BD6481FF1F6881FF1F6681FF1F80B485B000AF0346FB801D4BEF
:401880001B881BB2002B09D01A4B1B881BB21A4613469B0013445B00FB6002E0164B1B68FB60164B1B881BB2FA889BB2D31A9BB2FB80B7F9063042F2107202FB03F2B7F9CA
:4018C0000630002B04DDFB68D90F0B445B1004E0FB68D90F0B445B105B421A44FB6892FBF3F37B81B7F90A3018461437BD4680BC704700BF6481FF1F6881FF1F6C81FF1F8E
:4019000080B400AF00BFBD4680BC704780B500AF0E4B1B78DBB203F00103002B10D00C4B1B78DBB203F00103002B03D0094B03221A7002E0074B01221A70FFF799FE02E0F1
:40194000044B00221A7000BF80BD00BFAB430040005900406081FF1F80B500AF074B1B78002B09D0FFF70AFE044B1B7803F00203002B01D0FFF7E8FE00BF80BD6081FF1F73
:4019800080B483B000AF0346FB710949084B1B78DBB25AB297F9073023F007035BB213435BB2DBB20B7000BF0C37BD4680BC70470241004080B500AF064B00221A70064B82
:4019C00000221A70042000F057F8002000F034F800BF80BD2C5800402D58004080B400AF094A094B1B78DBB243F00803DBB21370064A064B1B78DBB243F00803DBB2137010
:401A000000BFBD4680BC7047A8430040B843004080B500AF074B1B78002B04D1FFF7CAFF044B01221A70FFF7D9FF642000F044F800BF80BD6181FF1F80B483B000AF03462E
:401A4000FB710C4A0B4B1B78DBB223F00203DBB213700849074B1B78DAB2FB7903F00203DBB21343DBB20B7000BF0C37BD4680BC704700BF2C58004080B582B000AF034613
:401A8000FB710C4A0B4B1B78DBB223F00C03DBB213700849074B1B78DAB2FB7903F00C03DBB21343DBB20B7000F016F800BF0837BD4680BD2C58004080B483B000AF03463A
:401AC000FB71044AFB79137000BF0C37BD4680BC704700BF835B004080B483B000AF0B4B1B78DBB203F00C039B08DBB20633FB71074AFB7903F1924303F59C731B78DBB248
:401B0000137000BF0C37BD4680BC70472C5800400B46004080B500AF064B00221A70064B00221A70042000F057F8002000F034F800BF80BD205800402158004080B400AF08
:401B4000094A094B1B78DBB243F00103DBB21370064A064B1B78DBB243F00103DBB2137000BFBD4680BC7047A8430040B843004080B500AF074B1B78002B04D1FFF7CAFFAC
:401B8000044B01221A70FFF7D9FF642000F044F800BF80BD6281FF1F80B483B000AF0346FB710C4A0B4B1B78DBB223F00203DBB213700849074B1B78DAB2FB7903F00203C1
:401BC000DBB21343DBB20B7000BF0C37BD4680BC704700BF2058004080B582B000AF0346FB710C4A0B4B1B78DBB223F00C03DBB213700849074B1B78DAB2FB7903F00C038A
:401C0000DBB21343DBB20B7000F016F800BF0837BD4680BD2058004080B483B000AF0346FB71044AFB79137000BF0C37BD4680BC704700BF805B004080B483B000AF0B4B77
:401C40001B78DBB203F00C039B08DBB20633FB71074AFB7903F1924303F590731B78DBB2137000BF0C37BD4680BC70472058004008460040000000000230800803D000BFB7
:401C800001380046FCD17047EFF3108072B6704780F31088704700BF81F0004102E000BF83F0004330B54FEA41044FEA430594EA050F08BF90EA020F1FBF54EA000C55EA17
:401CC000020C7FEA645C7FEA655C00F0E2804FEA5454D4EB5555B8BF6D420CDD2C4480EA020281EA030382EA000083EA010180EA020281EA0303362D88BF30BD11F0004FE8
:401D00004FEA01314FF4801C4CEA113102D0404261EB410113F0004F4FEA03334CEA133302D0524263EB430394EA050F00F0A780A4F10104D5F1200E0DDB02FA0EFC22FA87
:401D400005F2801841F1000103FA0EF2801843FA05F359410EE0A5F120050EF1200E012A03FA0EFC28BF4CF0020C43FA05F3C01851EBE37101F0004507D54FF0000EDCF13B
:401D8000000C7EEB00006EEB0101B1F5801F1BD3B1F5001F0CD349085FEA30004FEA3C0C04F101044FEA445212F5800F80F09A80BCF1004F08BF5FEA500C50F1000041EB73
:401DC000045141EA050130BD5FEA4C0C404141EB010111F4801FA4F10104E9D191F0000F04BF01460020B1FA81F308BF2033A3F10B03B3F120020CDA0C3208DD02F1140CB1
:401E0000C2F10C0201FA0CF021FA02F10CE002F11402D8BFC2F1200C01FA02F120FA0CFCDCBF41EA0C019040E41AA2BF01EB0451294330BD6FEA04041F3C1CDA0C340EDCE9
:401E400004F11404C4F1200220FA04F001FA02F340EA030021FA04F345EA030130BDC4F10C04C4F1200220FA02F001FA04F340EA0300294630BD21FA04F0294630BD94F00F
:401E8000000F83F4801306BF81F480110134013D4EE77FEA645C18BF7FEA655C29D094EA050F08BF90EA020F05D054EA000C04BF1946104630BD91EA030F1EBF0021002060
:401EC00030BD5FEA545C05D14000494128BF41F0004130BD14F580043CBF01F5801130BD01F0004545F0FE4141F470014FF0000030BD7FEA645C1ABF194610467FEA655CBD
:401F00001CBF0B46024650EA013406BF52EA033591EA030F41F4002130BD00BF90F0000F04BF0021704730B54FF4806404F132044FF000054FF0000150E700BF90F0000F8C
:401F400004BF0021704730B54FF4806404F1320410F0004548BF40424FF000013EE700BF42004FEAE2014FEA31014FEA02701FBF12F07F4393F07F4F81F06051704792F0DB
:401F8000000F14BF93F07F4F704730B54FF4607401F0004521F0004120E700BF50EA010208BF704730B54FF000050AE050EA010208BF704730B511F0004502D5404261EB94
:401FC00041014FF4806404F132045FEA915C3FF4DCAE4FF003025FEADC0C18BF03325FEADC0C18BF033202EBDC02C2F1200300FA03FC20FA02F001FA03FE40EA0E0021FAA7
:4020000002F11444C1E600BF70B54FF0FF0C4CF4E06C1CEA11541DBF1CEA135594EA0C0F95EA0C0F00F0DEF82C4481EA030621EA4C5123EA4C5350EA013518BF52EA033553
:4020400041F4801143F4801338D0A0FB02CE4FF00005E1FB02E506F00042E0FB03E54FF00006E1FB03569CF0000F18BF4EF0010EA4F1FF04B6F5007F64F5407404D25FEA34
:402080004E0E6D4146EB060642EAC62141EA55514FEAC52040EA5E504FEACE2EB4F1FD0C88BFBCF5E06F1ED8BEF1004F08BF5FEA500E50F1000041EB045170BD06F0004648
:4020C00046EA010140EA020081EA0301B4EB5C04C2BFD4EB0C0541EA045170BD41F480114FF0000E013C00F3AB8014F1360FDEBF002001F0004170BDC4F10004203C35DA1E
:402100000C341BDC04F11404C4F1200500FA05F320FA04F001FA05F240EA020001F0004221F0004110EBD37021FA04F642EB06015EEA430E08BF20EAD37070BDC4F10C04B8
:40214000C4F1200500FA04F320FA05F001FA04F240EA020001F0004110EBD37041F100015EEA430E08BF20EAD37070BDC4F1200500FA05F24EEA020E20FA04F301FA05F2D5
:4021800043EA020321FA04F001F0004121FA04F220EA020000EBD3705EEA430E08BF20EAD37070BD94F0000F0FD101F00046400041EB010111F4801F08BF013CF7D041EAD5
:4021C000060195F0000F18BF704703F00046520043EB030313F4801F08BF013DF7D043EA0603704794EA0C0F0CEA135518BF95EA0C0F0CD050EA410618BF52EA4306D1D1D5
:4022000081EA030101F000414FF0000070BD50EA410606BF1046194652EA430619D094EA0C0F02D150EA013613D195EA0C0F05D152EA03361CBF104619460AD181EA0301A8
:4022400001F0004141F0FE4141F470014FF0000070BD41F0FE4141F4780170BD70B54FF0FF0C4CF4E06C1CEA11541DBF1CEA135594EA0C0F95EA0C0F00F0A7F8A4EB050455
:4022800081EA030E52EA03354FEA013100F088804FEA03334FF0805545EA131343EA12634FEA022245EA111545EA10654FEA00260EF000419D4208BF964244F1FD0404F5B0
:4022C000407402D25B084FEA3202B61A65EB03055B084FEA32024FF480104FF4002CB6EB020E75EB030E22BFB61A754640EA0C005B084FEA3202B6EB020E75EB030E22BFB5
:40230000B61A754640EA5C005B084FEA3202B6EB020E75EB030E22BFB61A754640EA9C005B084FEA3202B6EB020E75EB030E22BFB61A754640EADC0055EA060E18D04FEA90
:40234000051545EA16754FEA06164FEAC30343EA52734FEAC2025FEA1C1CC0D111F4801F0BD141EA00014FF000004FF0004CB6E711F4801F04BF01430020B4F1FD0C88BF61
:40238000BCF5E06F3FF6AFAEB5EB030C04BFB6EB020C5FEA500C50F1000041EB045170BD0EF0004E4EEA113114EB5C04C2BFD4EB0C0541EA045170BD41F480114FF0000EA0
:4023C000013C90E645EA060E8DE60CEA135594EA0C0F08BF95EA0C0F3FF43BAF94EA0C0F0AD150EA01347FF434AF95EA0C0F7FF425AF104619462CE795EA0C0F06D152EA70
:4024000003353FF4FDAE1046194622E750EA410618BF52EA43067FF4C5AE50EA41047FF40DAF52EA43057FF4EBAE12E74FF0FF3C06E000BF4FF0010C02E000BF4FF0010C76
:402440004DF804CD4FEA410C7FEA6C5C4FEA430C18BF7FEA6C5C1BD001B050EA410C0CBF52EA430C91EA030F02BF90EA020F0020704710F1000F91EA030F58BF994208BF80
:4024800090422CBFD8176FEAE37040F0010070474FEA410C7FEA6C5C02D150EA013C07D14FEA430C7FEA6C5CD6D152EA033CD3D05DF8040B704700BF8446104662468C4611
:4024C0001946634600E000BF01B5FFF7B7FF002848BF10F1000F01BD4DF808EDFFF7F4FF0CBF012000205DF808FB00BF4DF808EDFFF7EAFF34BF012000205DF808FB00BF2C
:402500004DF808EDFFF7E0FF94BF012000205DF808FB00BF4DF808EDFFF7CEFF94BF012000205DF808FB00BF4DF808EDFFF7C4FF34BF012000205DF808FB00BF4FEA41027F
:4025400012F5001215D211D56FF47873B3EB625212D94FEAC12343F0004343EA505311F0004F23FA02F018BF404270474FF00000704750EA013005D111F0004008BF6FF07A
:40258000004070474FF00000704700BF014B1868704700BF3C81FF1F0E4B70B51E460E4C0025E41AA410A54204D056F8253098470135F8E700F046F8084B094C1E46E41AB5
:4025C000A4100025A54204D056F8253098470135F8E770BD5026000050260000502600005826000010B5431E0A44914204D011F8014B03F8014FF8E710BD034602449342D8
:4026000002D003F8011BFAE77047000000000000205100405000C05100401000F0510040100000000140001000140140000800400140000A004C01400002005001402000AD
:4026400043000000F8B500BFF8BC08BC9E4670474D00000065130000F8B500BFF8BC08BC9E4670472900000078260000C880FF1F78000000300000000000000000366E01DA
:40268000C05D0000180000000000E02E0000000000000000000000000000000000000000000000000000000000000000402600000000000000000000000000000000000071
:4026C0000000000000000000000000000000000000000000000000000000000000000000000000000000000000000000DC80FF1F0000000000000000000000000000000060
:402700000000000000000000000000000000000000000000000000000000000000000000000000000000000000000000000000000000000000000000000000000000000099
:402740000000000000000000000000000000000000000000000000000000000000000000000000000000000000000000000000000000000000000000000000000000000059
:402780000000000000000000000000000000000000000000000000000000000000000000000000000000000000000000000000000000000000000000000000000000000019
:4027C00000000000000000000000000000000000000000000000000000000000000000000000000000000000000000000000000000000000000000000000000000000000D9
:020000040003F7
:0200000480007A
:40000000010701400109014002400140014101400142014002430140024601400147014001510140EE04EE043320CC10A720A720AB20EE201B04C608AB040003000000005E
:400040000000E000000B0B00000000000E00180100000000000000000000000000000000000000000000000000000000000000000000000000000000000000000000000063
:400080000000000000000000000000000000000000000000000000000000000000000000000000000000000000000000000000000000000000000000000000000000000040
:4000C0000000000000000000000000000000000000000000000000000000000000000000000000000000000000000000000000000000000000000000000000000000000000
:4001000000000000000000000000000000000000000000000000000000000000000000000000000000000000000000000000000000000000000000000000000000000000BF
:40014000000000000000000000000000000000000000000000000000000000000000000000000000000000000000000000000000000000000000000000000000000000007F
:0200000490006A
:0400000000004005B7
:0200000490105A
:04000000BC90ACAF55
:0200000490303A
:02000000F54ABF
:0200000490402A
:4000000000000000000000000000000000000000000000000000000000000000000000000000000000000000000000000000000000000000000000000000000000000000C0
:400040000000000000000000000000000000000000000000000000000000000000000000000000000000000000000000000000000000000000000000000000000000000080
:400080000000000000000000000000000000000000000000000000000000000000000000000000000000000000000000000000000000000000000000000000000000000040
:4000C0000000000000000000000000000000000000000000000000000000000000000000000000000000000000000000000000000000000000000000000000000000000000
:0200000490501A
:0C00000000012E16106900012E2505B32A
:00000001FF